:020000040800F2
:1000000000070020F10100086D2B0008252B0008D7
:100010004D2B0008252B0008452B0008F301000894
:10002000F3010008F3010008F3010008613B000838
:10003000F3010008F3010008F3010008F3010008D0
:10004000F3010008F3010008F3010008F3010008C0
:10005000F3010008F3010008314F0008594F000870
:10006000814F0008A94F0008D14F0008F301000894
:10007000F3010008F3010008F3010008F301000890
:10008000F3010008F3010008F3010008D92A000871
:10009000052B0008152B0008F3010008F94F000894
:1000A000F3010008F3010008F3010008F301000860
:1000B000F3010008F3010008F3010008F301000850
:1000C000F3010008F3010008F3010008F301000840
:1000D000F3010008CD500008E1500008F3010008CA
:1000E0005D500008F3010008F3010008F301000867
:1000F000F3010008F3010008F3010008F301000810
:10010000F3010008F3010008F5500008F3010008AE
:10011000F3010008F3010008F3010008F3010008EF
:10012000F3010008F3010008F3010008F3010008DF
:10013000F3010008F3010008F3010008F3010008CF
:10014000F3010008F3010008F3010008F3010008BF
:10015000F3010008F3010008F3010008F3010008AF
:10016000F3010008F3010008F3010008F30100089F
:10017000F3010008F3010008F3010008F30100088F
:10018000F3010008F3010008F3010008F30100087F
:10019000F3010008F3010008F3010008F30100086F
:1001A000F3010008F3010008F3010008F30100085F
:1001B000F3010008F3010008F3010008F30100084F
:1001C000F3010008F3010008F3010008F30100083F
:1001D000F3010008F3010008F3010008F30100082F
:1001E00051150008000000000000000000000000A1
:1001F00002E000F000F8FEE772B6374880F30888A6
:10020000364880F3098836483649086040F20000D5
:10021000CCF200004EF63471CEF200010860BFF35C
:100220004F8FBFF36F8F40F20000C0F2F0004EF628
:100230008851CEF200010860BFF34F8FBFF36F8F7C
:100240004FF00000E1EE100A4EF63C71CEF20001D4
:100250000860062080F31488BFF36F8F04F06AFCF7
:1002600004F002FD4FF055301F491B4A91423CBF3C
:1002700041F8040BFAE71D49184A91423CBF41F886
:10028000040BFAE71A491B4A1B4B9A423EBF51F82E
:10029000040B42F8040BF8E700201849184A914271
:1002A0003CBF41F8040BFAE704F048FC04F02AFDD7
:1002B000144C154DAC4203DA54F8041B8847F9E797
:1002C00000F042F8114C124DAC4203DA54F8041B12
:1002D0008847F9E704F030BC000700200023002025
:1002E0000000000808ED00E00001002000070020E9
:1002F00090550008002300208C230020902300202C
:1003000070530020E0010008E4010008E401000847
:10031000E40100082DE9F04F2DED108AC1F80CD052
:10032000C3689D46BDEC108ABDE8F08F002383F3BF
:1003300011882846A047002004F068F8FEE703F083
:10034000F1FF00DFFEE70000F8B501F07DF904F0F1
:100350008BFB074604F0DAFB0546A8BB1F4B9F4208
:1003600032D001339F4232D01D4B27F0FF029A4218
:1003700030D1F8B200F004FF2E4642F2107400F0C3
:1003800005FF08B10024264601F0D2FC20B103206D
:1003900000F07AF80024264635B1124B9F4203D074
:1003A00004F0ACFB00242646002004F067FB0EB1ED
:1003B00000F080F801F068FA00F054FF204600F0E9
:1003C000CDF800F077F8F9E72E460024D7E7044689
:1003D0000126D4E7064641F28834D0E7010007B091
:1003E000000008B0263A09B008B501F0F9F8A0F10C
:1003F00020035842584108BD07B541F212030221BB
:1004000001A8ADF8043001F009F903B05DF804FB70
:1004100038B5302383F31188174803680BB104F013
:10042000B3F8164A144800234FF47A7104F0A2F886
:10043000002383F31188124C236813B12368013B16
:100440002360636813B16368013B63600D4D2B78D3
:1004500033B963687BB9022001F0ACF932236360E1
:100460002B78032B07D163682BB9022001F0A2F986
:100470004FF47A73636038BD9023002011040008A4
:10048000B0240020A8230020084B187003280CD8A3
:10049000DFE800F008050208022001F089B9022017
:1004A00001F084B9024B00225A607047A823002053
:1004B000B024002010B501F03BFC30B1204B0322EA
:1004C0001A70204B00225A6010BD1F4B1F4A1C4659
:1004D00019680131F8D004339342F9D162681C4B9A
:1004E0009A42F1D91B4B9B6803F1006303F58033FB
:1004F0009A42E9D204F0D6FA04F0E8FA002001F0BA
:10050000BDF80220FFF7C0FF134B1A6C00221A64DB
:10051000196E1A66196E596C5A64596E5A665B6E7A
:1005200072B64FF0E0233021C3F8084DD4E9003211
:1005300081F311889D4683F308881047C4E700BF04
:10054000A8230020B024002000000108200001089A
:10055000FFFF000800230020003802402DE9F04F83
:1005600093B0AC4B00902022FF210AA89D6801F0B7
:1005700035F9A94A1378A3B9A8480121036011707D
:10058000302383F3118803680BB103F0FDFFA44A05
:10059000A24800234FF47A7103F0ECFF002383F3A9
:1005A0001188009B13B19F4B009A1A609E4A009CD1
:1005B0001378032B1EBF002313709A4A4FF0000AD2
:1005C00018BF5360D3465646D146012001F0F0F8DB
:1005D00024B1944B1B68002B00F01582002000F022
:1005E000FFFF0390039B002B01DA00F083FE039BC7
:1005F000002BEDDB012001F0D9F8039B213B162BEA
:10060000E3D801A252F823F0650600088D06000821
:1006100021070008CB050008CB050008CB05000822
:10062000AB0700087B09000895080008F7080008D8
:100630001F09000845090008CB05000857090008F4
:10064000CB050008C909000805070008CB0500080C
:100650000D0A00087106000805070008CB05000810
:10066000F70800080220FFF7BFFE002840F0F581E0
:10067000009B0221BAF1000F08BF1C4605A841F2F9
:100680001233ADF8143000F0C9FF9EE74FF47A70D2
:1006900000F0A6FF071EEBDB0220FFF7A5FE0028F7
:1006A000E6D0013F052F00F2DA81DFE807F0030A08
:1006B0000D10133605230593042105A800F0AEFFA5
:1006C00017E054480421F9E758480421F6E7584850
:1006D0000421F3E74FF01C08404600F0D1FF08F179
:1006E00004080590042105A800F098FFB8F12C0F2C
:1006F000F2D1012000FA07F747EA0B0B5FFA8BFBF8
:100700004FF0000901F0B6F826B10BF00B030B2BEC
:1007100008BF0024FFF770FE57E746480421CDE7E5
:10072000002EA5D00BF00B030B2BA1D10220FFF75D
:100730005BFE074600289BD0012000F09FFF0220AF
:10074000FFF7A2FE00261FFA86F8404600F0A6FF3B
:10075000044690B10021404600F0B8FF0136002861
:10076000F1D1BA46044641F21213022105A8ADF8B0
:1007700014303E4600F052FF27E70120FFF784FEC9
:100780002546244B9B68AB4207D9284600F078FFEA
:10079000013040F067810435F3E7234B00251D70DD
:1007A000204BBA465D603E46ACE7002E3FF460AF9A
:1007B0000BF00B030B2B7FF45BAF0220FFF764FE03
:1007C000322000F00DFFB0F10008FFF651AF18F035
:1007D00003077FF44DAF0F4A926808EB050393427D
:1007E0003FF646AFB8F5807F3FF742AF124B01931B
:1007F000B84523DD4FF47A7000F0F2FE0390039ABF
:10080000002AFFF635AF019B039A03F8012B01374D
:10081000EDE700BF00230020AC240020902300203F
:1008200011040008B0240020A82300200423002085
:10083000082300200C230020AC230020C820FFF751
:10084000D3FD074600283FF413AF1F2D11D8C5F183
:10085000200242450AAB25F0030028BF42468349E7
:100860000192184400F0A8FF019A8048FF2100F08F
:10087000B5FF4FEAA8037D490193C8F387022846D4
:1008800000F0B4FF064600283FF46DAF019B05EB76
:10089000830537E70220FFF7A7FD00283FF4E8AE05
:1008A00000F034FF00283FF4E3AE0027B846704B59
:1008B0009B68BB4218D91F2F11D80A9B01330ED059
:1008C00027F0030312AA134453F8203C0593404633
:1008D000042205A901F0E4F904378046E7E7384629
:1008E00000F0CEFE0590F2E7CDF81480042105A8B3
:1008F00000F094FE06E70023642104A8049300F0AE
:1009000083FE00287FF4B4AE0220FFF76DFD0028BF
:100910003FF4AEAE049800F0E1FE0590E6E7002358
:10092000642104A8049300F06FFE00287FF4A0AEB9
:100930000220FFF759FD00283FF49AAE049800F01A
:10094000DDFEEAE70220FFF74FFD00283FF490AEFE
:1009500000F0ECFEE1E70220FFF746FD00283FF43F
:1009600087AE05A9142000F0E7FE04210746049095
:1009700004A800F053FE3946B9E7322000F030FEFB
:10098000071EFFF675AEBB077FF472AE384A926859
:1009900007EB090393423FF66BAE0220FFF724FDFD
:1009A00000283FF465AE27F003074F44B9453FF4F4
:1009B000A9AE484600F064FE0421059005A800F0A9
:1009C0002DFE09F10409F1E74FF47A70FFF70CFDF1
:1009D00000283FF44DAE00F099FE002844D00A9B59
:1009E00001330BD008220AA9002000F0FFFE0028E6
:1009F0003AD02022FF210AA800F0F0FEFFF7FCFC0D
:100A00001C4803F009FD13B0BDE8F08F002E3FF441
:100A10002FAE0BF00B030B2B7FF42AAE00236421C7
:100A200005A8059300F0F0FD074600287FF420AEEE
:100A30000220FFF7D9FC804600283FF419AEFFF7EB
:100A4000DBFC41F2883003F0E7FC059800F030FF52
:100A5000464600F00FFF3C46B7E5064652E64FF02B
:100A6000000905E6BA467EE637467CE6AC23002060
:100A700000230020A0860100094A136849F269009A
:100A800099B21B0C00FB01331360064B186844F24B
:100A9000506182B2000C01FB0200186080B2704706
:100AA000182300201423002010B500211022044632
:100AB00000F094FE034B03CB206061601868A060D7
:100AC00010BD00BF107AFF1F2DE9F041ADF54E7D3E
:100AD0000DF134086CAC40F2751207460D460EA8B5
:100AE0000021C8F8001000F079FE4FF4C472002114
:100AF000204600F073FE02F041F8254B4FF47A7265
:100B0000B0FBF2F0186093E80700022384E80700C6
:100B10000DF5E9702382FFF7C7FF4FF4A6431D4987
:100B2000238406A804F0FCFB192384F832310DF26B
:100B3000E32206AB0DF1300C1E4603CE6645106075
:100B40005160334602F10802F6D133781370414602
:100B50000122204600F0C6FE00230393AB7E0293E1
:100B600005F11903019380B20123CDE904800093BC
:100B7000E97E05A3D3E90023384602F0C7FB0DF553
:100B80004E7DBDE8F08100BF9E6AC421818A46EE99
:100B9000B8240020305300082DE9F0412C4C237A72
:100BA000DAB080460D465BBB27A9284600F0AAFFB5
:100BB0000746002842D19DF89D60C82E3ED80146C8
:100BC0004FF4A662204600F009FE4FF48073C4F88B
:100BD000F8314FF40073C4F80C334FF44073C4F889
:100BE000203432460DF19E0104F1090000F0E4FDCD
:100BF00026449DF89C30777223720BB9EB7E2372EA
:100C00008122002106AC27A800F0E8FD0122214640
:100C100027A800F0B3FF00230393AB7E029305F1F6
:100C2000190380B201932823CDE904400093E97EA3
:100C300005A3D3E90023404602F068FB5AB0BDE8A3
:100C4000F08100BFAFF3008026417272DF25D7B775
:100C5000D8450020F0B5254E4FF48A7505FB006598
:100C6000F1B096F8D83085F8DC300024D82221463F
:100C700085F8E8403AA800F0B1FD06F1090000F05F
:100C8000A5FDD5F8E4308DF8F000C2B206AF06F14C
:100C900009010DF1F100CDE93A3400F08DFD39463E
:100CA00001223AA800F096FF80B2CDE90470082333
:100CB0000127CDE9023706F1D803019330230093D1
:100CC000317A0B4807A3D3E9002302F01FFBA042AF
:100CD00006DD01F053FFC5F8E000384671B0F0BD05
:100CE0002046FBE778F6339F93CACD8DD845002088
:100CF000D03400202DE9F0411D4D1E4E1E4F86B010
:100D0000284602F02FFB034658B30024CDE90344E4
:100D1000ADF81440027B8DF8142099684068029465
:100D200003AA03C21B68DFF8548043F00043029318
:100D300001F026FF821941F10003009402A9384610
:100D400001F0CEF9A04205DD284602F00FFB88F83D
:100D50000040D5E798F80030072B05D8013388F814
:100D6000003006B0BDE8F081014802F0FFFAF8E774
:100D7000D034002040420F00003500200D4B0020F1
:100D800070B50D4614461E4602F01CFA50B9022EEC
:100D900010D1012C0ED112A3D3E90023C5E9002301
:100DA000012007E0282C10D005D8012C09D0052CF3
:100DB0000FD0002070BD302CFBD10BA3D3E9002352
:100DC000ECE70BA3D3E90023E8E70BA3D3E9002367
:100DD000E4E70BA3D3E90023E0E700BFAFF3008013
:100DE000401DA12026812A0B78F6339F93CACD8D12
:100DF0009E6AC421818A46EE26417272DF25D7B7EA
:100E0000F017304A39059E5638B505460E4C00217C
:100E1000013500F05BFCA4F82C55B4F82C0500F06B
:100E20003DFC78B1B4F82C0500F048FC014648B907
:100E3000B4F82C0500F04AFCB4F82C350133A4F8C2
:100E40002C35EAE738BD00BFD845002010B50A4B65
:100E50000A4A1A6003F5805393F860203AB9DC6DB2
:100E60002CB1204600F0DCFF204604F099F9BDE8E3
:100E70001040034800F0D4BF00350020E8530008BC
:100E8000484500202DE9F04F8FB000AF05460C46D5
:100E900002F098F9002849D1237E022B1BD1E38A66
:100EA000012B18D101F06AFE0646FFF7E5FD034667
:100EB0004FF4C870DFF8C482B3FBF0F206F5167683
:100EC00002FB103316FA83F3C8F80030E37E33B91F
:100ED000A34B00221A703C37BD46BDE8F08F07F1E6
:100EE0002401204600F0CCFD0028F4D107F11400C5
:100EF000FFF7DAFD97F8264007F11401224607F1C3
:100F0000270004F097F90028E2D10F2C08D8944B61
:100F10001C70D8F80030A3F51673C8F80030DAE773
:100F200097F82410284602F045F9D4E7E38A282BE5
:100F30002BD010D8012B23D0052BCCD1BFF34F8F52
:100F40008849894BCA6802F4E0621343CB60BFF35F
:100F50004F8F00BFFDE7302BBDD1844EE17E327A4A
:100F60009142B8D1607E3146002291F8DC50854232
:100F700000F0A5800132042A01F58A71F5D1AAE7B3
:100F800021462846FFF7A0FDA5E721462846FFF7A2
:100F900003FEA0E7B2F8EC507B6005F103094FEACD
:100FA00099094FEA8902D11DC908A8EBC1039D46E2
:100FB000EB460021584600F011FC04F1EE012A46F0
:100FC0003144584600F0F8FB7B6813B9012000F06B
:100FD00055FB96F8D20000F061FB044630B9307240
:100FE00000F094FB204600F049FBB1E0D6F8D42095
:100FF0003AB996F8D200B6F82C25824201D8FFF70C
:1010000003FFD6F8D4202A44944208D296F8D2009E
:10101000B6F82C250130824201D8FFF7F5FE706842
:101020005FFA89F2594600F0E1FB08B9C54679E05C
:10103000726896F8D2002A447260D6F8D42005EB84
:101040000209C6F8D49000F029FB814509D396F82F
:10105000D220D6F8D4000132001B86F8D220C6F880
:10106000D400FF2D0FD80024347200F04FFB20462F
:1010700000F004FB00F05CFE3D4B188108B9FFF75F
:1010800019FAC54627E7BB6896F8D9000AFB036240
:10109000FB68D2F8E41082F8E83001F58061C2F80C
:1010A000E030C2F8E410FFF7D5FDFFF723FE96F815
:1010B000D920013202F0030286F8D920B6E74FF4B6
:1010C0008A7A0AFB02F505F1EA013144204600F074
:1010D000ADFDF86000287FF4FEAE3544012285F8AE
:1010E000E82001F04BFDD5F8E020D6ED007ADFEDE9
:1010F000216A801A192838BF192040F6B832904268
:1011000028BF1046B8EE677A07EE900AF8EEE77A45
:1011100067EEA67ADFED186AE7EE267AFCEEE77A4C
:10112000C6ED007A96F8D930BB60BA6873680AFBDE
:1011300002F4321992F8E81059B1D2F8E4108B4257
:10114000E8463FF427AF002182F8E810C2F8E0102B
:10115000C5467368064A9B0A01331381BBE600BF8C
:10116000C934002000ED00E00400FA05D845002055
:10117000B8240020CDCCCC3D6666663FCC34002040
:10118000014B1870704700BFC424002030B54FF0E9
:1011900000542B4B22689A4285B007D003F0C0FC64
:1011A000044620BB0024204605B030BD254B627D9F
:1011B00025481A70237D03724FF48073C0F8F8310C
:1011C0004FF40073C0F80C3300254FF44073C0F89F
:1011D00020341E49C0F8E450C922093000F0ECFA6E
:1011E0002046E022294600F0F9FA0124DBE7184AFC
:1011F000184D136C43F000731364AA6D164B9A429A
:10120000D0D12B6E013B7E2BCCD8144A07CA01AB40
:1012100083E807001846032100F058FD6B6D8342F8
:101220004FF00003BED12A6D8A4201BFAB65054B6A
:101230002A6E1A7003BF0A4BEA6D1A601C46B2E7A9
:101240009AAD44C5C4240020D845002016000020D3
:1012500000380240006600405041A0B0586600408F
:101260001023002037B51A4D00F062FD02236B7188
:10127000184B288119681848012201F01BFB002334
:101280000193164B164900931648174B4FF48052A2
:1012900001F068FF154B197811B1124801F08AFF6F
:1012A00001F06CFC0446FFF7E7FB4FF4C873B0FB9A
:1012B000F3F202FB130304F5167010FA83F00C4BE3
:1012C000186003F023FC08B10F232B8103B030BD5D
:1012D000B82400201023002000350020810D0008D4
:1012E000C8240020D0340020850E0008C42400202B
:1012F000CC3400202DE9F04F2DED028B8CA7D7E9DF
:1013000000670FF23429D9E90089844C95B00DADFE
:101310009FED808BFFF7EEFCDFF824B200230C93E7
:10132000ADF83C300D936B6000230DF125028DED7F
:10133000008B4FF0010A09A958468DF825308DF829
:1013400024A001F065FA9DF824200023002A40F033
:10135000AE80204601F036FF0546002847D1DFF871
:10136000E4B101F00BFCDBF8003098423FD301F010
:1013700005FC0790FFF780FB079A4FF4C873B0FB9A
:10138000F3F101FB130302F5167010FA83F0CBF8AA
:101390000000DFF8B4B19BF800100791002914BFDA
:1013A0002B46534610A88DF83030FFF77DFB079988
:1013B000C1F11002D2B2062A10AB28BF062219448E
:1013C0000DF13100079200F0F7F9079A0CAB039387
:1013D000182302930132524BD2B2CDE900A30492FA
:1013E0003B463246204601F033FF8BF8005001F0B7
:1013F000C5FB4C4A4C4D1368C31AB3F57A7F32D300
:10140000106001F0BDFB02460B46204601F0B8FF1C
:10141000204601F0D7FE30B32B7ADFF830A1002B45
:1014200014BF032302238AF8053001F0A7FB0DF156
:10143000400B4FF47A730122B0FBF3F05946CAF81F
:101440000000504600F0F4FA18230293374B019342
:1014500080B240F25513CDE903B0009342464B46AB
:10146000204601F0F5FE2B7AABB101F087FB4FF07F
:10147000000A83464FF48A7295F8D900504400F070
:10148000030002FB005393F8E81071B30AF1010A5C
:10149000BAF1040FF0D1C82002F0BEFF2B7A002B66
:1014A0007FF435AF15B0BDEC028BBDE8F08F194667
:1014B000102210A800F092F90DF126030AAA0CA937
:1014C000584600F00DFF95E8030011AB83E80300D8
:1014D0009DF83C308DF84C300C9B109310A9DDE941
:1014E0000A23204602F020F91EE7D3F8E01049B1A4
:1014F0002B68FA2B38BFFA23ABEB01010533B1EBB4
:10150000430FC3D3FFF7A6FB4FF48A720028BDD167
:10151000C1E700BF0000000000000000D034002040
:10152000C8340020084B0020D84500200C4B002078
:10153000401DA12026812A0BF1C6A7C1D068080F43
:1015400000350020CC340020C9340020B82400200D
:1015500008B5054800F060FFBDE80840034A0449AB
:10156000002003F017BE00BF003500205C4B0020B8
:101570004D0E00082DE9F84F4FF47A73DFF85880CC
:10158000DFF8589006460D4602FB03F7002498F951
:1015900000305A1C5FFA84FA01D0A34212D159F8E4
:1015A000240003682A46D3F820B031463B46D8478A
:1015B000854207D1074B012083F800A0BDE8F88FD2
:1015C0000124E4E7002CFBD04FF4FA7002F024FF72
:1015D0000020F3E7504B00201C2300202023002094
:1015E00007B50023024601210DF107008DF80730F1
:1015F000FFF7C0FF20B19DF8070003B05DF804FBC2
:101600004FF0FF30F9E700000A4608B50421FFF764
:10161000B1FF80F00100C0B2404208BD30B4074BBA
:101620000A461978064B53F821402368DD69054BBB
:101630000146AC46204630BC604700BF504B0020FE
:1016400020230020A086010070B503F0B9F8094EF0
:10165000094D3080002428683388834208D903F07C
:10166000A9F82B6804440133B4F5803F2B60F2D312
:1016700070BD00BF524B0020104B002003F04EB94C
:1016800000F1006000F580300068704700F10060F4
:10169000920000F5803003F0D9B80000054B1A68BD
:1016A000054B1B889B1A834202D9104403F082B871
:1016B00000207047104B0020524B0020024B1B684B
:1016C000184403F07FB800BF104B0020024B1B688A
:1016D000184403F08FB800BF104B002010F0030334
:1016E0000AD1B0F5047F05D200F10050A0F51040FA
:1016F000D0F80038184670470023FBE700F100508F
:10170000A0F51040D0F8100A70470000064991F883
:10171000243033B10023086A81F824300822FFF70F
:10172000B5BF0120704700BF144B0020014B186863
:10173000704700BF002004E070B5194B1D68194BBD
:101740000138C5F30B0408442D0C04221E88A64260
:101750000BD15C680A46013C824213460FD214F951
:10176000016F4EB102F8016BF6E7013A03F108038D
:10177000ECD181420B4602D22C2203F8012B0A4AFB
:1017800005241688AE4204D1984284BF967803F8A7
:10179000016B013C02F10402F3D1581A70BD00BF85
:1017A000002004E08C5300087853000870470000C4
:1017B000704700007047000010B50023934203D02B
:1017C000CC5CC4540133F9E710BD00000346024667
:1017D000D01A12F9011B0029FAD1704702440346BE
:1017E000934202D003F8011BFAE770472DE9F84352
:1017F0001F4D144695F824200746884652BBDFF853
:1018000070909CB395F824302BB92022FF214846D4
:101810002F62FFF7E3FF95F82400C0F10802A2420F
:1018200028BF2246D6B24146920005EB8000FFF762
:10183000C3FF95F82430A41B1E44F6B2082E1744AB
:101840009044E4B285F82460DBD1FFF75FFF002805
:10185000D7D108E02B6A03EB82038342CFD0FFF796
:1018600055FF0028CBD10020BDE8F8830120FBE71D
:10187000144B0020024B1A78024B1A70704700BFBD
:10188000504B00201C23002010B5074C074920684E
:101890004FF4E1330B6002F0ABFC60680349BDE834
:1018A000104002F0A5BC00BF202300203C4B0020CC
:1018B000094B10B51422044600211846FFF78EFF8D
:1018C000064A074B127804600146BDE8104053F801
:1018D000220002F08DBC00BF3C4B0020504B00208A
:1018E000202300202DE9F0470D46044600219046B4
:1018F000284640F27912FFF771FF2346202200218B
:10190000284601F0B3FE231D02222021284601F0C3
:10191000ADFE631D03222221284601F0A7FEA31D70
:1019200003222521284601F0A1FE04F1080310221C
:101930002821284601F09AFE04F1100308223821DC
:10194000284601F093FE04F11103082240212846A5
:1019500001F08CFE04F1120308224821284601F010
:1019600085FE04F1140320225021284601F07EFE5A
:1019700004F1180340227021284601F077FE04F19B
:1019800020030822B021284601F070FE04F1210353
:101990000822B821284601F069FE04F12207C0267A
:1019A0003B46314608222846083601F05FFEB6F570
:1019B000A07F07F10107F3D104F132030822314679
:1019C000284601F053FE002704F1330A94F8323020
:1019D0004FEAC7099F4209F5A47615D3B8F1000F65
:1019E00008D1314604F599730722284601F03EFEDE
:1019F00009F24F16274694F832213B1B93420CD331
:101A0000F01DC008BDE8F0870AEB07030822314645
:101A1000284601F02BFE0137D8E707F23313314691
:101A20000822284601F022FE08360137E3E70000CD
:101A300013B504460846002101602346C0F8031090
:101A40002022019001F012FE0198231D0222202184
:101A500001F00CFE0198631D0322222101F006FE15
:101A60000198A31D0322252101F000FE019804F135
:101A700008031022282101F0F9FD072002B010BD53
:101A8000F7B50023047F00910E460722194605464C
:101A900001F0B0FC731C00930122002307212846AB
:101AA00001F0A8FCC4B9B31C009305222346082109
:101AB000284601F09FFC0D243746B278BB1B9342A9
:101AC00011D32B7FA88A0734E408BBB9844294BFA2
:101AD0000020012003B0F0BDAB8ADB00083BDB082F
:101AE000B3700824E8E7FB1C00932146002308227A
:101AF000284601F07FFC08340137DEE7201A18BFC2
:101B00000120E7E7F7B50023047F00910E46082285
:101B10001946054601F06EFC731CC4B908220093F7
:101B200011462346284601F065FC102401237278F3
:101B30005F1C013B934211D32B7FA88A0734E40832
:101B4000BBB9844294BF0020012003B0F0BDAB8A32
:101B5000DB00083BDB0873700824E7E7F319009308
:101B6000214600230822284601F044FC08343B4665
:101B7000DDE7201A18BF0120E7E70000F8B50E46A0
:101B800005461446002181223046FFF727FE2B46EA
:101B900008220021304601F069FD7CB96B1C072248
:101BA0000821304601F062FD0F2401236A785F1C92
:101BB000013B934204D3E01DC008F8BD0824F4E7BC
:101BC000EB1921460822304601F050FD08343B460F
:101BD000ECE70000F8B50E46054614460021CE227B
:101BE0003046FFF7FBFD2B4628220021304601F04E
:101BF0003DFD7CB905F1080308222821304601F09B
:101C000035FD30242F462A7A7B1B934204D3E01DF6
:101C1000C008F8BD2824F5E707F10903214608228A
:101C2000304601F023FD08340137ECE7F7B5047FB7
:101C300000910E46012310220021054601F0DAFB37
:101C4000C4B9B31C0093092223461021284601F091
:101C5000D1FB192437467288BB1B9A4211D82B7FBF
:101C6000A88A0734E408BBB9844294BF002001204D
:101C700003B0F0BDAB8ADB00103BDB08738010249F
:101C8000E8E73B1D0093214600230822284601F087
:101C9000B1FB08340137DEE7201A18BF0120E7E75F
:101CA00030B5094D0A4491420DD011F8013B58401E
:101CB000082340F30004013B2C4013F0FF0384EAA7
:101CC0005000F6D1EFE730BD2083B8EDF7B54FF007
:101CD000FF33DFF854C0DFF854E000EB81011A460F
:101CE00088421CD050F8044B019401AF042417F82B
:101CF000015B82EA05620825DB18164605F1FF350F
:101D00005241002EBCBF83EA0C0382EA0E0215F09A
:101D1000FF05F1D1013C14F0FF04E8D1E0E7D8431E
:101D2000D14303B0F0BD00BF9336EAA9EBE1F04226
:101D3000F7B5354A106851686B4603C36A463349A4
:101D40003348082303F086FA044688BB0A25314A43
:101D5000106851686B4603C36A462F492C48082314
:101D600003F078FA0446002845D00369B3F5702FD4
:101D700041D8B0F86620532A3DD1284A024402F1E6
:101D80005C018B4237D35C3B214900209E1AFFF750
:101D900087FF3246074604F164010020FFF780FF09
:101DA000A3689F4227D1E368984208BF002522E03C
:101DB0000369B3F5702F25D8428B532A20D1174AD7
:101DC000024402F110018B4218D3103B104900204D
:101DD0009D1AFFF765FF2A46064604F11801002008
:101DE000FFF75EFFA3689E4202D1E368984201D0EC
:101DF0000D25ACE70025284603B0F0BD1025A6E769
:101E00000C25A4E70B25A2E7AC530008DCFF0E006D
:101E100000000108B553000890FF0E000800FFF70E
:101E200010B5037C044613B9006803F0FBF92046A3
:101E300010BD00000023BFF35B8FC360BFF35B8F57
:101E4000BFF35B8F8360BFF35B8F7047BFF35B8F24
:101E50000068BFF35B8F704770B505460C30FFF725
:101E6000F5FF05F1080604463046FFF7EFFFA042F4
:101E700006D930466D68FFF7E9FF2544281A70BD82
:101E80003046FFF7E3FF201AF9E7000070B505467A
:101E9000406898B105F10800FFF7D8FF05F10C067E
:101EA00004463046FFF7D2FF8442304694BF6D6847
:101EB0000025FFF7CBFF013C2C44201A70BD000029
:101EC00038B50C460546FFF7C7FFA04210D305F111
:101ED0000800FFF7BBFF04446868B4FBF0F100FBA7
:101EE0001144BFF35B8F0120AC60BFF35B8F38BD43
:101EF0000020FCE72DE9F041144607460D46FFF7A8
:101F0000C5FF844228BF0446D4B1B84658F80C6BCC
:101F10004046FFF79BFF3044286040467E68FFF74D
:101F200095FF331A9C4203D86C600120BDE8F08114
:101F30006B60A41B3B68AB602044E8600220F5E7BF
:101F40002046F3E738B50C460546FFF79FFFA04251
:101F500010D305F10C00FFF779FF04446868B4FB67
:101F6000F0F100FB1144BFF35B8F0120EC60BFF385
:101F70005B8F38BD0020FCE72DE9FF4188466946AC
:101F80000746FFF7B7FF6C4606B204EBC60600250E
:101F9000B44209D06268206808EB0501FFF70CFC29
:101FA000636808341D44F3E729463846FFF7CAFF43
:101FB000284604B0BDE8F081F8B505460C300F4660
:101FC000FFF744FF05F1080604463046FFF73EFFE1
:101FD000A042304688BF6C68FFF738FF201A38608F
:101FE00020B130462C68FFF731FF2044F8BD0000D7
:101FF00073B5144606460D46FFF72EFF844228BFF0
:1020000004460190DCB101A93046FFF7D5FF019BE2
:1020100033B93268C5E90233C5E9002401200CE078
:102020009C4238BF01942860019868608442F5D9C9
:102030003368AB60241AEC60022002B070BD204609
:10204000FBE700002DE9FF410F466946FFF7D0FF8F
:102050006C4600B204EBC0050026AC4209D0D4F8AF
:10206000048054F8081BB8194246FFF7A5FB464404
:10207000F3E7304604B0BDE8F081000038B505460E
:10208000FFF7E0FF044601462846FFF719FF204608
:1020900038BD000010B4026854681A4623465DF843
:1020A000044B18470020704700207047704700001D
:1020B000002070470E20704700F5805090F8C8004F
:1020C000C0F340007047000000F5805090F9D00048
:1020D0007047000000F58050C0F8CC100120704718
:1020E000F7B50C68BDF8207014F0005470D10D7B6A
:1020F000082D6DD8302585F311884569AE687601C5
:102100000CD4AC68240108D4AC6814F080545DD1C0
:1021100084F31188204603B0F0BD01240E6804F159
:10212000180C002EB8BFF6004FEA0C1CB4BF46F0E6
:102130000406760545F80C600E680FFA84FC16F06C
:10214000804F18BF05EB0C1E05EB0C1C1EBFDEF804
:10215000806146F00206CEF880610E7BCCF8846187
:1021600005EB04158E68C5F88C614E68C5F888616A
:10217000DCF8805145F00105CCF8805100EB4416A5
:1021800041F268052E4405EB44150544C6E90023D9
:1021900008350E4601F10C0C56F804EB45F804EB3B
:1021A0006645F9D1843436882E8000EB441407F05C
:1021B0000305267926F00B0635432571002484F3A8
:1021C0001188009700F0FCFC0120A4E70224A5E799
:1021D0004FF0FF309FE7000013B500F580540191E8
:1021E000E06DFFF753FE1F280AD90199E06D202208
:1021F000FFF7C2FEA0F120035842584102B010BDC3
:102200000020FBE708B5302383F3118800F58050E8
:10221000C06DFFF70FFE002383F3118808BD000097
:1022200000220260828142608260704710B5002205
:102230000023C0E900230023044603810C30FFF78C
:10224000EFFF204610BD0000F0B5054600F58050B8
:102250000C4690F8C83013F0040FC3F3800108BF98
:10226000114661F3820304F1840680F8C83005EB5F
:10227000461389B01B79D8072ED57AB319072DD408
:102280006846FFF7D3FF05EB441303F5835303F1CF
:10229000180703AA103318685968144603C4083392
:1022A000BB422246F7D1186820609B88A380DDE9F5
:1022B0000E23CDE900230123ADF808302B686946D1
:1022C000DB6B2846984705EB46152B791A075CBF50
:1022D00043F008032B7101E0002AF4D109B0F0BDEE
:1022E0002DE9F0479A4688B0074688469146302344
:1022F00083F3118807F580546846FFF797FFE06D78
:10230000FFF7AAFD1F282AD9E06D20226946FFF7B2
:10231000B5FE202823D103AD444605AB2E4603CE9F
:102320009E4220606160354604F10804F6D13068B1
:102330002060B388A380DDE90023C9E90023BDF84C
:102340000830AAF80030002383F3118853464A4628
:102350004146384608B0BDE8F04700F01FBC0020F9
:1023600080F3118808B0BDE8F08700002DE9F84F30
:102370000023C0E90133254B044640F8183B0F46C3
:10238000FFF74EFF04F12800FFF750FF04F1480863
:1023900004F582554646083530462036FFF746FF9D
:1023A000AE42F9D104F580554FF480534FF0000947
:1023B000C5E91339C5F848800123EE6504F587584F
:1023C00004F58456C5F8549085F8583085F8603087
:1023D000083608F108084FF0000A4FF0000B46E9F4
:1023E00008ABA6F11800FFF71BFF203646F8289C23
:1023F0004645F4D185F8D07017B1054800F0B8FB18
:10240000044B63612046BDE8F88F00BFE853000825
:10241000C05300080064004010B5044B197804460E
:102420004A1C1A70FFF7A2FF204610BD584B00202F
:102430002DE9F047002950D0294B2A4FB7FBF1F581
:1024400099428CBF0A231123581EB5FBF3FC03FBF2
:102450001C53C4B22BB102280346F5D80020BDE8B6
:10246000F0870CF1FF36B6F5806FF7D2C4EBC40EDF
:102470000EF103034FEAE309C3F3C703A4EB030818
:1024800009F1010A4FF47A755FFA88F009FB0555E6
:102490005AFA88F8B5FBF8F5B5F5617FC1BF0EF1C2
:1024A000FF33C3F3C703E01AC0B25C1C50FA84F4D4
:1024B0000CFB04F4B7FBF4F4A142CFD1013BDBB237
:1024C0000F2BCBD80138C0B20728C7D80021107114
:1024D00016809170D3700120C1E70846BFE700BFA6
:1024E0003F420F0040787D0170B505460E464FF41F
:1024F0007A746B695B6803F00103B34207D04FF451
:102500007A7001F089FF013CF3D1204670BD0120B3
:10251000FCE7000030B54269936913F0700F16D0E4
:1025200000230B4C936103F1840200EB42121179FA
:102530004D0709D5890707D5416954F823508D60A7
:10254000117941F0040111710133032BEBD130BD3E
:10255000D453000873B51D46436916469A68D207DE
:10256000044609D59A6801219960C2F34002CDE979
:1025700000650021FFF768FE63699A68D1050BD5F5
:102580009A684FF480719960C2F34022CDE90065EA
:1025900001212046FFF758FE63699A68D2030BD5E4
:1025A0009A684FF480319960C2F34042CDE90065EA
:1025B00002212046FFF748FE04F58053D3F8CC00F3
:1025C00010B103681B699847204602B0BDE870400F
:1025D000FFF7A0BFF8B504464669002972D106F19D
:1025E0000C073868800770D006EB01153868D5F8FD
:1025F000B00110F0040FD5F8B0011ABFC00840F0C8
:102600000040400DA061D5F8B0C11CF0020F1CBF06
:1026100040F08040A061D5F8B40106EB011100F054
:102620000F0084F82400D1F8B8012077D1F8B80160
:10263000000A6077D1F8B801000CA077D1F8B80192
:10264000000EE077D1F8BC0184F82000D1F8BC017D
:10265000000A84F82100D1F8BC01000C84F82200A3
:10266000D1F8BC11090E84F823103821396004F127
:10267000340004F1180104F1240551F8046B40F80A
:10268000046BA942F9D109880180C4E90A232146D3
:102690000023238651F8283B2046DB6B984704F53E
:1026A000805393F8C820D3F8CC0042F0040283F89A
:1026B000C82010B103681B6998472046BDE8F84060
:1026C000FFF728BF06F110078BE7F8BD10B50446E9
:1026D00000F056FA02460B4652EA030102D0013AD4
:1026E00063F100030449086820B12146BDE81040A9
:1026F000FFF770BF10BD00BF544B0020F0B5302174
:1027000081F31188DFF848C000F5835108310024B7
:1027100004F1840500EB45152E7977070ED4F606F3
:102720000CD5D1E9007697429E4107D246695CF804
:102730002470B7602E7946F004062E710134032C04
:1027400001F12001E4D1002383F31188F0BD00BF23
:10275000D453000808B5302383F31188FFF7DAFE5D
:10276000002383F3118808BDF8B5436905469868CE
:1027700000F0E050B0F1E05F0F4621D0F8B1302317
:1027800083F3118805F583541034002606F1840381
:1027900005EB43131B791A0706D50136032E04F106
:1027A0002004F3D1012007E05B07F6D42146384628
:1027B00000F040FA0028F0D1002383F31188F8BD1F
:1027C0000120FCE708B5302383F3118800F5805021
:1027D000C06DFFF741FB002383F3118843090CBF51
:1027E0000120002008BD0000F8B51D46002313702D
:1027F0000F4606461446FFF7E5FF80F001003870EB
:1028000025B129463046FFF7AFFF2070F8BD000024
:102810002DE9B8410C4615461F46804600F0B0F938
:102820000B462178024609B9287850B14046FFF797
:1028300065FFFFF78FFF3B462A462146FFF7D4FF8F
:102840000120BDE8B881000070B5302686F31188FC
:10285000174B1A6C42F000721A641A6A42F0007246
:102860001A621A6A22F000721A62002383F3118836
:1028700000F5805494F8C83013F0010516D1A9B1C1
:1028800086F311880321132001F0E6FA03211420B6
:1028900001F0E2FA0321152001F0DEFA94F8C830C5
:1028A00043F0010384F8C83085F3118870BD00BF80
:1028B000003802402DE9F04700F5805588B095F8C2
:1028C000D030012B04468846164600F28180814FA5
:1028D00057F823200AB947F82300D7F800A0C4F816
:1028E0000C802674BAF1000F64D095F8D030012B1B
:1028F00070D001212046FFF7A7FF302383F3118812
:102900006269136823F0020313606269136843F07D
:1029100001031360636900275F6187F31188012158
:102920002046FFF7E1FD002800F09580E86DFFF7F5
:1029300081FA04F58359BA4609F1080920220021D9
:102940006846FEF74BFF02A8FFF76AFCCDF818A017
:102950006A4609EB07030DF1180E9446BCE8030024
:10296000F44518605960624603F10803F5D1DCF8BC
:102970000000186020379CF804201A71602FDDD108
:1029800095F8C8306FF38203002785F8C8306A468F
:1029900041462046ADF80070ADF802708DF8047025
:1029A000FFF746FD636948BB4FF400421A6008B068
:1029B000BDE8F08741F2D80002F0F4FB814610B187
:1029C0005146FFF7D3FCC7F80090B9F1000F8CD146
:1029D0000020ECE7386803681B6B98470146002825
:1029E00087D13868FFF730FF3868036832465B6884
:1029F0004146984700287FF47CAFE9E761221A60DE
:102A00009DF802309DF803201B06120402F4702288
:102A100003F040731343BDF80020C2F309021343CF
:102A20009DF804201205022E02F4E0020CBF4FF0C4
:102A300000410021134362690B43D3616369132290
:102A40005A616269136823F0010313603946204616
:102A5000FFF74AFD08B96369A6E795F8D03093BB44
:102A60006169D1F8002242F00102C1F800226169D7
:102A7000D1F8002222F47C5222F00E02C1F800228A
:102A80006169D1F8002242F46062C1F800226269F3
:102A9000C2F814326269C2F80432626941F6FF7109
:102AA000C2F80C126269C2F840326269C2F844325C
:102AB00063690122C3F81C226269D2F8003223F054
:102AC0000103C2F8003295F8C83043F0020385F8DC
:102AD000C8306CE7544B002008B500F051F850EABC
:102AE0000103024602D0421E61F10001044B186846
:102AF00010B10B46FFF72EFDBDE8084001F064B8A9
:102B0000544B002008B50020FFF7E0FDBDE8084069
:102B100001F05AB808B50120FFF7D8FDBDE808401C
:102B200001F052B800B59BB0EFF309816822684606
:102B3000FEF742FEEFF30583014B9B6BFEE700BF00
:102B400000ED00E008B5FFF7EDFF000000B59BB019
:102B5000EFF3098168226846FEF72EFEEFF3058346
:102B6000014B5B6BFEE700BF00ED00E0FEE70000FD
:102B70000FB408B5029801F0FFFBFEE701F012BFA9
:102B800001F0F4BE13B56C4684E80600031D94E81A
:102B9000030083E80500012002B010BD73B585680D
:102BA000019155B11B885B0707D4D0E900369B6BB8
:102BB0009847019AC1B23046A847012002B070BDC3
:102BC000F0B5866889B005460C465EB1BDF8383070
:102BD0005B070AD4D0E900379B6B98472246C1B205
:102BE0003846B047012009B0F0BD00220023CDE9EE
:102BF00000230023ADF808300A4603AB01F10806B4
:102C0000106851681C4603C40832B2422346F7D10B
:102C1000106820609288A280FFF7B2FF0423ADF80D
:102C200008302B68CDE90001DB6B694628469847E0
:102C3000D8E7000030B503680968DD0FB5EBD17F38
:102C400023F0604421F060424FEAD1700BD0002B9A
:102C5000B8BFA40C0029B8BF920C944202D034BF74
:102C60000120002030BD944205D1C1F38070C3F330
:102C700080738342F6D194422CBF00200120F1E7FB
:102C80002DE9F041456A15B94162BDE8F0814B6814
:102C900023F06047C3F38A464FEAD37EC3F38078BC
:102CA00016EA230638BF3E46AC462B465A68BEEBB2
:102CB000D27F22F060440AD0002A18DAA40CB44271
:102CC00017D19D420FD10D60DEE71346EEE7A74214
:102CD00007D102F08044C2F3807242450BD054B158
:102CE000EFE708D2EDE7CCF800100B60CDE7B44277
:102CF00001D0B442E5D81A689C46002AE5D1196093
:102D0000C3E700002DE9F047089D01F007044FEAF2
:102D1000D508224405F0070500EBD1004FF47F49A8
:102D2000944201D1BDE8F08704F0070705F0070AD7
:102D300057453E4638BF5646C6F10806111B8E421F
:102D400028BF0E46E10808EBD50E415C13F80EC013
:102D5000B94029FA06F721FA0AF1FFB28CEA01011B
:102D600047FA0AF739408CEA010C03F80EC03444E4
:102D70003544D5E780EA0120082341F2210201B25F
:102D80004000002980B203F1FF33B8BF504013F078
:102D9000FF03F4D17047000038B50C468D18A542EA
:102DA00000D138BD14F8011BFFF7E4FFF7E700007E
:102DB00042684AB1136843604389818901339BB2F9
:102DC0009942438138BF83811046704770B588B0FF
:102DD000202204460D4668460021FEF7FFFC2046EF
:102DE0000495FFF7E5FF024658B16B46054608AE6D
:102DF0001C4603CCB44228606960234605F10805EF
:102E0000F6D1104608B070BD082817D909280CD093
:102E10000A280CD00B280CD00C280CD00D280CD074
:102E20000E2814BF4020302070470C20704710201F
:102E3000704714207047182070472020704700000A
:102E4000082817D90C280CD910280CD914280CD90B
:102E500018280CD920280CD930288CBF0F200E2020
:102E60007047092070470A2070470B2070470C20DC
:102E700070470D20704700002DE9F843078C072F9D
:102E800004461ED9D0E9029800254FF6FF73C5F11C
:102E90002006A5F1200029FA05F108FA06F628FA1D
:102EA00000F031430143C9B21846FFF763FF08350C
:102EB000402D0346EBD1E1693A46BDE8F843FFF700
:102EC0006BBF4FF6FF70BDE8F883000010B54B688C
:102ED00023B9CA8A63F30902CA8210BD04691A6859
:102EE0001C600361C38A013BC3824A60EFE70000B4
:102EF0002DE9F84F1D46CB8A0F46C3F3090105297A
:102F0000814692460B4630D00020AAB207F11A043F
:102F10009EB2042E1FFA80F80FD8904503F10103EA
:102F200006D3FB8A0A4462F30903FB8201201AE0FC
:102F30001AF80060E6540130EAE79045F1D2A1F1B9
:102F4000050B1C237C68BBFBF3F203FB12BB1FFACF
:102F50008BF6002C45D14846FFF72AFF044638B9C6
:102F600078606FF00200BDE8F88F4FF00008E6E7E8
:102F7000002606607860ADB24FF0000B454510D9D1
:102F80000AEB0803221D13F8011B9155B1B208F199
:102F900001081B291FFA88F82BD0454506F10106C8
:102FA000F1D8FB8AC3F30902154465F30903BCE7B2
:102FB000013292B21C462368002BF9D16B1F0B44DF
:102FC0001C21B3FBF1F301339BB29A42D3D2BBF184
:102FD000000FD0D14846FFF7EBFE20B9C4F800B08F
:102FE000BFE70122E7E7C0F800B05E462060044674
:102FF000C1E74545D5D94846FFF7DAFE08B9206054
:10300000AFE7C0F800B0002620600446B6E7000035
:103010002DE9F04F2DED028B1C4683B05B690192C8
:1030200007468846002B00F09A80238C2BB1E2697A
:10303000002A00F09480072B35D807F10C00FFF729
:10304000B7FE054638B96FF00205284603B0BDEC5F
:10305000028BBDE8F08F14220021FEF7BFFB228C0B
:10306000E16905F10800FEF7A7FB208C013080B272
:10307000FFF7E6FEFFF7C8FE013880B2208401307A
:1030800028746369228C1B782A4403F01F0363F0C1
:103090003F0348F000411372384669602946FFF744
:1030A000EFFD0125D1E700F10C034FF0000908EE18
:1030B000103A4FF0800A4E464D4618EE100AFFF7C0
:1030C00077FE83460028BED014220021FEF786FB3F
:1030D000002E3AD1019BABF8083002220BF1080E0A
:1030E0001FFA82FC0CF10100BCF1060F218C80B2AA
:1030F00001D88E422BD3FFF7A3FEFFF785FE62694E
:103100001278013802F01F028E4208BF4FF0400AC9
:1031100042EA49121BFA80F14AEA020A013048F0F9
:10312000004281F808A08BF81000CBF80420594623
:103130003846FFF7A5FD238C0135B3422DB289F047
:1031400001094FF0000AB8D17FE70022C6E7E16924
:10315000895D0EF802100136B6B20132C0E76FF099
:10316000010572E7F8B515460E46302200210446E7
:103170001F46FEF733FB069B6360B5F5001F079BF8
:10318000A76034BF6A094FF6FF72A36297B2E66187
:1031900004F1100000239A4206D800230360A7829E
:1031A000E3822383E360F8BD0660013330462036B6
:1031B000F1E7000003781BB94BB2002BC8BF0170C8
:1031C0007047000000787047F8B50C46C96907469B
:1031D00011B9238C002B37D1257E1F2D34D8387898
:1031E00028BB228C072A2CD8268A36F003032BD141
:1031F0004FF6FF70FFF7D0FD20F0010031024004D0
:1032000041EA0561400C41EA40254FF6FF72234632
:1032100029463846FFF7FCFE002807DD626913786F
:103220000133DBB21F2B88BF00231370F8BD218A46
:103230002D0645EA012505432046FFF71DFE0246FF
:10324000E5E76FF00300F1E76FF00100EEE7000043
:1032500070B58AB0044616460021282268461D46ED
:10326000FEF7BCFABDF83830ADF810300F9B05936F
:103270009DF840308DF81830119B07936946BDF8D2
:103280004830ADF820302046CDE90265FFF79CFFBD
:103290000AB070BD2DE9F041D36905460C461646CB
:1032A0000BB9138C5BBB377E1F2F28D895F8008095
:1032B000B8F1000F26D03046FFF7DEFD337821024B
:1032C00041EAC33141EA0801338A41EA076141EA30
:1032D00003410246334641F080012846FFF798FE3D
:1032E00000280ADD3378012B07D172691378013386
:1032F000DBB21F2B88BF00231370BDE8F0816FF095
:103300000100FAE76FF00300F7E70000F0B58BB0BB
:1033100004460D4617460021282268461E46FEF741
:103320005DFA9DF84C305A1E534253418DF80030DF
:103330009DF84030ADF81030119B05939DF8483052
:103340008DF81830149B07936A46BDF85430ADF8D9
:10335000203029462046CDE90276FFF79BFF0BB0CF
:10336000F0BD0000406A00B104307047436A1A683B
:10337000426202691A600361C38A013BC3827047DB
:103380002DE9F041D0F82080194E14461D464146E3
:10339000002709B9BDE8F081D1E90223A21A65EB43
:1033A0000303964277EB03031ED2036A8B420DD1CF
:1033B000FFF78CFD036A1B68036203690B60C38A15
:1033C0000161016A013BC3828846E2E7FFF77EFDA7
:1033D0000B68C8F8003003690B60C38A0161013BC8
:1033E000C382D8F80010D4E788460968D1E700BF47
:1033F00080841E002DE9F04F8BB00D46DDF8509013
:1034000014469B468046002800F01981B9F1000F50
:1034100000F01581531E3F2B00F21181012A03D1C8
:10342000BBF1000F40F00B810023CDE90833B8F861
:103430001430B5EBC30F4FEAC30703D300200BB022
:10344000BDE8F08F2B199F42D8F80C303ABF7F1B94
:10345000FFB227461BB9D8F81030002B7AD0272DA1
:103460004ED8C5F12806B7424FF000032CBFF6B284
:103470003E4600932946D8F8080008AB3246FFF7CD
:1034800041FCA7EB060A35445FFA8AFAB8F8143013
:1034900003F10053053BDB000493D8F80C30039391
:1034A0002821039B13B1BAF1000F2CD1D8F81000DA
:1034B00040B1BAF1000F05D0009608AB5246691A28
:1034C000FFF720FC38B2002FB8D066070AD00AAB4D
:1034D00003EBD401624211F8083C02F007021341E9
:1034E00001F8083C082C3CD9102C40F2B580202C67
:1034F00040F2B780BBF1000F00F09C80082334E05D
:10350000BA460026C2E7049BE02B28BFE0230693BF
:103510000B44AB42059314D95A1B0398009692456D
:1035200034BF5246D2B2691A08AB04300792FFF793
:10353000E9FB079A1644AAEB020A1544F6B25FFAB1
:103540008AFA049B069A05999B1A0493039B1B68AD
:103550000393A6E70093D8F8080008AB3A4629463B
:10356000AEE7BBF1000F13D00123B4EBC30F6CD057
:10357000082C12D89DF82030621E23FA02F2D507DB
:1035800006D54FF0FF3202FA04F423438DF82030C1
:103590009DF8203089F8003051E7102C12D8BDF882
:1035A0002030621E23FA02F2D10706D54FF0FF3217
:1035B00002FA04F42343ADF82030BDF82030A9F816
:1035C00000303CE7202C0FD80899631E21FA03F342
:1035D000DA0705D54FF0FF3202FA04F40C430894E1
:1035E000089BC9F800302AE7402C2BD0DDE908659C
:1035F000611EC4F12102A4F1210326FA01F105FAAA
:1036000002F225FA03F311431943CB0712D5012225
:10361000A4F12003C4F1200102FA03F322FA01F11C
:10362000A240524243EA010363EB430332432B437C
:10363000CDE90823DDE90823C9E90023FFE66FF09F
:103640000100FCE66FF00800F9E6082CA0D9102C68
:10365000B3D9202CEED8C3E7BBF1000FADD00223C5
:1036600083E7BBF1000FBBD004237EE730B5012A0E
:10367000144638BF0124402C85B028BF40240025C3
:10368000012ACDE9025518D81B788DF80830630758
:103690000AD004AB03EBD405624215F8083C02F0F3
:1036A0000702934005F8083C00910346224600219A
:1036B00002A8FFF727FB05B030BD082AE4D9102A7D
:1036C00003D81B88ADF80830E1E7202A8DBFD3E985
:1036D00000231B680293CDE90223D8E710B5CB681D
:1036E0001BB98B600B618B8210BD04691A681C606A
:1036F0000361C38A013BC382CA60F0E703064CBF83
:10370000C0F3C0300220704708B50246FFF7F6FF4D
:10371000022806D15306C2F30F2001D100F00300A6
:1037200008BDC2F30740FBE72DE9F04F93B0CDE9A8
:1037300003230A6804461046FFF7E0FF022814BF7F
:10374000C2F306260026002A0D46824680F2F28148
:1037500012F0C04940F0EE81097B002900F0EA81B7
:10376000022803D02378B34240F0E781C2F3046318
:103770000693104602F07F030593FFF7C5FF059BF4
:1037800029444FEA834848EA0A4848EA4668CE781E
:1037900000230022CDE90823F309834648EA000804
:1037A000029367D0059B009302466768534608A9B9
:1037B0002046B847002800F0C381276A4FB9414628
:1037C00004F10C00FFF702FB074690B96FF002000E
:1037D00054E03B6998450DD03F68002FF9D1414630
:1037E00004F10C00FFF7F2FA07460028EED0236A36
:1037F0003B60276297F817C006F01F08CCF3840CD3
:10380000ACEB08001FFA80FE0028B8BF0EF12000C4
:10381000A8EB0C031FFA83FED7E90221B8BF00B260
:10382000002B0793BEBF0EF120031BB2079352EA91
:10383000010338D0039BDFF824E39A1A049B4FF06E
:10384000000C63EB010196457CEB01032BD36B7BF2
:1038500097F81AE0734519D1029B002B78D0012804
:1038600021DC7868F8B9DFF8F0C2944570EB010309
:1038700016D337E0276A27B96FF00C0013B0BDE804
:10388000F08F3B699845B5D03F68F4E7B248904265
:103890007CEB010301D30020F0E7029B002BFAD060
:1038A000079B0F2B17DCFA7DB30002F0030203F035
:1038B0007C031343FB7539462046FFF707FB6B7B00
:1038C000BB76029B3BB9FB7DC3F38402013262F3FA
:1038D0008603FB75D0E76A7BBB7E9A42DBD1029BF5
:1038E000002B35D0B309022B32D0039BBB60049B65
:1038F000FB60142200210DA8FDF770FF039B0A93C3
:10390000049B0B932B1D0C932B7BADF83EB0013B1E
:10391000DBB2ADF83C30069B8DF84230059B8DF84C
:10392000433094F82C308DF840A083F001038DF8DB
:1039300044308DF84180A3680AA920469847FB7D52
:10394000C3F38403013303F01F039B02FB82A2E74E
:10395000FB7DC6F34012B2EBD31F40F0F480C3F3FB
:103960008403434540F0F280029A2B7BB609002A7B
:103970004DD0F2075DD4032B40F2EB80039BBB607C
:10398000049BFB602B7BAE1D033BDBB2324639460A
:1039900004F10C00FFF7ACFA00280CDA3946204697
:1039A000FFF794FAFB7DC3F38403013303F01F0395
:1039B0009B02FB820AE7DDE90884AB883B834FF674
:1039C000FF73C9F12000A9F1200228FA09F104FAD5
:1039D00000F0014324FA02F211431846C9B2FFF77E
:1039E000C9F909F10809B9F1400F0346E9D1B882D4
:1039F0002A7B033AD2B23146FFF7CEF9FB7DB8827B
:103A0000DA43C2F3C01262F3C713FB7543E786B90A
:103A10002E1D013BDBB23246394604F10C00FFF7A4
:103A200067FA0028BADB2A7BB88A013AD2B231465B
:103A3000E2E7F98AC1F30901013B0429DAB25BD854
:103A4000281D002307F11B069A4208D910F801CB64
:103A500006F801C0013101330529DBB2F4D1039925
:103A60000A9104990B91934207F11B010C9138BF05
:103A7000043379680D9134BF55FA83F300230E9314
:103A8000FB8AADF83EB0C3F309031A44069B8DF8D8
:103A90004230059B8DF8433094F82C30ADF83C2033
:103AA00083F001038DF8443000238DF840A08DF899
:103AB00041807B602A7BB88A013A291DFFF76CF9A7
:103AC0003B8BB882834203D1A3680AA9204698475A
:103AD00020460AA9FFF702FEFB7DBA8AC3F38403DE
:103AE000013303F01F039B02FB823B8B9A420CBF06
:103AF00000206FF01000C1E67B68002BAFD00520DE
:103B000001E01C3033461E68002EFAD1091A081D48
:103B10002E1D184401EB090CBCF11B0F5FFA89F351
:103B20009DD89A429BD916F8013B00F8013B09F158
:103B30000109EFE76FF00900A0E66FF00A009DE6CB
:103B40006FF00B009AE66FF00D0097E66FF00E0035
:103B500094E66FF00F0091E640420F0080841E0053
:103B6000EFF3098305494A6B22F001024A63683387
:103B700083F30988002383F31188704700EF00E086
:103B8000302080F3118862B60C4B0D4AD96821F4BD
:103B9000E0610904090C0A43DA60D3F8FC20094902
:103BA00042F08072C3F8FC200A6842F001020A6009
:103BB0002022DA7783F82200704700BF00ED00E092
:103BC0000003FA05001000E010B5302383F31188DC
:103BD0000E4B5B6813F4006314D0F1EE103AEFF370
:103BE0000984683C4FF08073E361094BDB6B23660B
:103BF00084F3098800F08AFB10B1064BA36110BD65
:103C0000054BFBE783F31188F9E700BF00ED00E007
:103C100000EF00E03F030008420300080268436829
:103C20001143016003B1184770470000024AD3688E
:103C300043F0C003D360704700100140024AD368CC
:103C400043F0C003D36070470044004010B50A4CF5
:103C50000A4A2046002100F0A9FA094B094AC4E9A2
:103C60009723094C094A0021204600F09FFA084991
:103C7000084BC4E9971310BD604B00202D3C000891
:103C800080F0FA0200100140CC4D00203D3C0008BD
:103C90000044004040787D012A4A037C002918BF77
:103CA0000A46012B30B5C0F868220CD1264B984249
:103CB00039D1264B596C41F010015964596E41F0CD
:103CC000100159665B6EB2F904501468D0F8603286
:103CD000D0F85C12002D03EB5403B3FBF4F3BEBF2A
:103CE00023F0070503F0070343EA450394888B603C
:103CF000D38843F040030B61138943F001034B6108
:103D000044F4045343F02C03CB6004F4A054002388
:103D10000B60B4F5806F0B684B680CBF7F23FF23EB
:103D200080F8643230BD0A4B9842CCD1074B196CF5
:103D300041F400311964196E41F4003119661B6EAB
:103D4000C1E700BF28540008604B00200038024043
:103D5000CC4D00202DE9F041D0F85C62F768336863
:103D6000DA0504469DB20DD5302383F311884FF454
:103D700080610430FFF752FF6FF4807333600023DB
:103D800083F31188302383F3118804F1040815F0BC
:103D90002F033AD183F31188380615D5290613D598
:103DA000302383F3118804F1380000F07BF90028F8
:103DB0004EDA0821201DFFF731FF4FF67F733B409D
:103DC000F360002383F311887A0616D56B0614D5A9
:103DD000302383F31188D4E913239A420AD1236C48
:103DE00043B127F040073F041021201D3F0CFFF78F
:103DF00015FFF760002383F31188D4F86822D36895
:103E000043B3BDE8F041106918472B0714D015F0F3
:103E1000080F0CBF00214FF48071E80748BF41F044
:103E20002001AA0748BF41F040016B0748BF41F09D
:103E300080014046FFF7F2FEAD06736805D594F8A1
:103E400064122046194000F0E1F93568ADB29EE7F2
:103E50007060B6E7BDE8F08100F1604303F56143AF
:103E60000901C9B283F80013012200F01F039A4030
:103E700043099B0003F1604303F56143C3F88021CC
:103E80001A607047F8B5154682680669AA420B4663
:103E9000816938BF8568761AB54204460BD2184648
:103EA0002A46FDF789FCA3692B44A361A3685B1B29
:103EB000A3602846F8BD0CD918463246FDF77CFCB5
:103EC000AF1BE1683A463044FDF776FCE3683B44BB
:103ED000EBE718462A46FDF76FFCE368E5E70000CC
:103EE00083689342F7B51546044638BF8568D0E924
:103EF0000460361AB5420BD22A46FDF75DFC6369B1
:103F00002B446361A36828465B1BA36003B0F0BD2C
:103F10000DD932460191FDF74FFC0199E068AF1BC6
:103F20003A463144FDF748FCE3683B44E9E72A465A
:103F3000FDF742FCE368E4E710B50A440024C361DE
:103F4000029B8460C0E90000C0E90511C160026104
:103F5000036210BD08B5D0E90532934201D18268F1
:103F600082B98268013282605A1C42611970D0E9BC
:103F700004329A4224BFC3684361002100F068FA0A
:103F8000002008BD4FF0FF30FBE7000070B5302384
:103F900004460E4683F31188A568A5B1A368A269FB
:103FA000013BA360531CA36115782269934224BF8F
:103FB000E368A361E3690BB120469847002383F3CC
:103FC0001188284607E03146204600F031FA0028E3
:103FD000E2DA85F3118870BD2DE9F74F04460E46ED
:103FE00017469846D0F81C904FF0300A8AF3118893
:103FF0004FF0000B154665B12A4631462046FFF7C3
:1040000041FF034660B94146204600F011FA0028FE
:10401000F1D0002383F31188781B03B0BDE8F08F43
:10402000B9F1000F03D001902046C847019B8BF3E4
:104030001188ED1A1E448AF31188DCE7C0E90511E6
:10404000C160C3611144009B8260C0E9000001614E
:1040500003627047F8B504460D461646302383F3D5
:104060001188A768A7B1A368013BA36063695A1CC4
:1040700062611D70D4E904329A4224BFE36863612F
:10408000E3690BB120469847002080F3118807E0D0
:104090003146204600F0CCF90028E2DA87F3118897
:1040A000F8BD0000D0E905239A4210B501D182681D
:1040B0007AB98268013282605A1C82611C78036975
:1040C0009A4224BFC3688361002100F0C1F92046F1
:1040D00010BD4FF0FF30FBE72DE9F74F04460E46C9
:1040E00017469846D0F81C904FF0300A8AF3118892
:1040F0004FF0000B154665B12A4631462046FFF7C2
:10410000EFFE034660B94146204600F091F90028D1
:10411000F1D0002383F31188781B03B0BDE8F08F42
:10412000B9F1000F03D001902046C847019B8BF3E3
:104130001188ED1A1E448AF31188DCE7026843688F
:104140001143016003B11847704700001430FFF7B6
:1041500043BF00004FF0FF331430FFF73DBF0000B6
:104160003830FFF7B9BF00004FF0FF333830FFF7AA
:10417000B3BF00001430FFF709BF00004FF0FF315C
:104180001430FFF703BF00003830FFF763BF0000B3
:104190004FF0FF323830FFF75DBF0000012914BF38
:1041A0006FF0130000207047FFF750BD37B515467C
:1041B0000E4A026000224260C0E902220122044647
:1041C00002740B46009000F15C014FF480721430D1
:1041D000FFF7B2FE00942B464FF4807204F5AE71E7
:1041E00004F13800FFF72AFF03B030BD3C5400084B
:1041F00010B53023044683F31188FFF74DFD0223E9
:104200002374002080F3118810BD000038B5C36905
:1042100004460D461BB904210844FFF78FFF2946C9
:1042200004F11400FFF796FE002806DA201D4FF473
:104230000061BDE83840FFF781BF38BD002303753A
:10424000826803691B6899689142FBD25A680360CF
:1042500042601060586070470023037582680369EC
:104260001B6899689142FBD85A68036042601060ED
:104270005860704708B50846302383F311880B7DDA
:10428000032B05D0042B0DD02BB983F3118808BD67
:104290008B6900221A604FF0FF338361FFF7CEFF76
:1042A0000023F2E7D1E9003213605A60F3E700001F
:1042B000FFF7C4BF054BD9680875186802681A6013
:1042C000536001220275D860FCF724B838500020F2
:1042D00030B50C4BDD684B1C87B004460FD02B4625
:1042E000094A684600F046F92046FFF7E3FF009BC5
:1042F00013B1684600F048F9A86907B030BDFFF770
:10430000D9FFF9E73850002075420008044B1A68BD
:10431000DB6890689B68984294BF0020012070473A
:1043200038500020084B10B51C68D86822681A6005
:10433000536001222275DC60FFF78EFF01462046A4
:10434000BDE81040FBF7E6BF3850002038B5074CF9
:1043500007490848012300252370656000F02CFC04
:104360000223237085F3118838BD00BFA0520020BE
:10437000685400083850002008B572B6044B186520
:1043800000F0E0FA00F08CFB024B03221A70FEE70B
:1043900038500020A052002000F02CB98B6002237E
:1043A00008618B82084670478368A3F1840243F852
:1043B000142C026943F8442C426943F8402C094A02
:1043C00043F8242CC26843F8182C022203F80C2C62
:1043D000002203F80B2C044A43F8102CA3F1200010
:1043E000704700BF2D0300083850002008B5FFF7C4
:1043F000DBFFBDE80840FFF75BBF0000024BDB6856
:1044000098610F20FFF756BF38500020302383F308
:104410001188FFF7F3BF000008B50146302383F38E
:1044200011880820FFF754FF002383F3118808BD8B
:10443000064BDB6839B1426818605A60136043600C
:104440000420FFF745BF4FF0FF3070473850002081
:104450000368984206D01A68026050609961184655
:10446000FFF726BF7047000010B503689C68A242A2
:104470000CD85C688A600B604C6021605960996858
:104480008A1A9A604FF0FF33836010BD1B68121BBD
:10449000ECE700000A2938BF0A2170B504460D4632
:1044A0000A26601900F080FB00F068FB041BA5429F
:1044B00003D8751C2E460446F3E70A2E04D9BDE83E
:1044C0007040012000F0B8BB70BD0000F8B5144B7F
:1044D0000D46D96103F1100141600A2A1969826011
:1044E00038BF0A22016048601861A818144600F01D
:1044F0004BFB0A2700F042FB431BA342064606D3B0
:104500007C1C281900F050FB27463546F2E70A2F9D
:1045100004D9BDE8F840012000F08EBBF8BD00BF13
:1045200038500020F8B506460D4600F027FB0F4A2C
:10453000134653F8107F9F4206D12A460146304663
:10454000BDE8F840FFF7C2BFD169BB68441A2C1917
:1045500028BF2C46A34202D92946FFF79BFF2246DB
:1045600031460348BDE8F840FFF77EBF38500020D1
:104570004850002010B4C0E9032300235DF8044B29
:104580004361FFF7CFBF000010B5194C2369984273
:104590000DD0D0E90032816813605A609A680A44ED
:1045A0009A60002303604FF0FF33A36110BD2346E0
:1045B000026843F8102F53600022026022699A4279
:1045C00003D1BDE8104000F0E9BA936881680B445C
:1045D000936000F0D3FA2269E1699268441AA2421A
:1045E000E4D91144BDE81040091AFFF753BF00BFDA
:1045F000385000202DE9F047DFF8BC8008F11007A3
:104600002C4ED8F8105000F0B9FAD8F81C40AA681F
:10461000031B9A423ED81444D5E900324FF00009FA
:10462000C8F81C4013605A60C5F80090D8F81030E4
:10463000B34201D100F0B2FA89F31188D5E9033110
:1046400028469847302383F311886B69002BD8D014
:1046500000F094FA6A69A0EB04094A4582460DD23B
:10466000022000F0E9FA0022D8F81030B34208D155
:1046700051462846BDE8F047FFF728BF121A2244EA
:10468000F2E712EB090938BF4A4629463846FFF7D8
:10469000EBFEB5E7D8F81030B34208D01444211A25
:1046A000C8F81C00A960BDE8F047FFF7F3BEBDE8FD
:1046B000F08700BF485000203850002038B500F087
:1046C0005DFA054AD2E90845031B181945F10001B6
:1046D000C2E9080138BD00BF3850002000207047F3
:1046E000FEE70000704700004FF0FF307047000009
:1046F000BFF34F8F024AD368DB03FCD4704700BF7F
:10470000003C024008B5094B1B7873B9FFF7F0FF76
:10471000074B1A69002ABFBF064A5A6002F1883265
:104720005A601A6822F480621A6008BDA8520020FC
:10473000003C02402301674508B50B4B1B7893B939
:10474000FFF7D6FF094B1A6942F000421A611A6856
:1047500042F480521A601A6822F480521A601A6871
:1047600042F480621A6008BDA8520020003C02405A
:104770000B28F0B516D80C4C0C4923787BB90C4D9E
:104780000E460C234FF0006255F8047B46F8042BCC
:10479000013B13F0FF033A44F6D10123237051F893
:1047A0002000F0BD0020FCE7DC520020AC520020CD
:1047B00074540008014B53F82000704774540008EB
:1047C0000C2070470B2810B5044601D9002010BDFD
:1047D000FFF7CEFF064B53F824301844C21A0BB92A
:1047E0000120F4E712680132F0D1043BF6E700BF84
:1047F000745400080B2810B5044621D8FFF778FF41
:10480000FFF780FF0F4AF323D360C300DBB243F40A
:10481000007343F002031361136943F4803313619F
:10482000FFF766FFFFF7A4FF074B53F8241000F0D3
:1048300033F9FFF781FF2046BDE81040FFF7C2BF04
:10484000002010BD003C024074540008F8B512F07E
:104850000103144642D18218B2F1016F57D82D4B93
:104860001B6813F0010352D02B4DFFF74BFFF323CE
:10487000EB60FFF73DFF40F20127032C15D824F031
:1048800001046618244C401A40F20117B142236912
:1048900000EB010524D123F001032361FFF74CFF56
:1048A0000120F8BD043C0430E7E78307E7D12B691A
:1048B00023F440732B612B693B432B6151F8046B4C
:1048C0000660BFF34F8FFFF713FF03689E42E9D0E6
:1048D0002B6923F001032B61FFF72EFF0020E0E797
:1048E00023F44073236123693B4323610B882B80AE
:1048F000BFF34F8FFFF7FCFE2D8831F8023BADB2BE
:10490000AB42C3D0236923F001032361E4E71846D7
:10491000C7E700BF00380240003C0240084908B524
:104920000B7828B11BB9FFF7EDFE01230B7008BD12
:10493000002BFCD0BDE808400870FFF7FDBE00BFAB
:10494000A85200200149024800F0A8B800FF030067
:10495000000100200846114600F046BC012000F08E
:1049600043BC0000084600F05DBC000038B5EFF322
:1049700011859DB9EFF30584C4F30804302334B1E5
:1049800083F31188FFF79AFE85F3118838BD83F30E
:104990001188FFF793FE84F3118838BDBDE83840D5
:1049A000FFF78CBE38B5FFF7E1FF114C114AC00884
:1049B00040EA4170A0FB025EC908A0FB040C1CEB9E
:1049C000050CA1FB04404FF000035B41A1FB021268
:1049D0001CEB040C43EB000011EB0E0142F1000252
:1049E000411842F10000090941EA007038BD00BFDA
:1049F000CFF753E3A59BC42010B50244064BD2B2B7
:104A0000904200D110BD441C00B253F8200041F880
:104A1000040BE0B2F4E700BF502800400F4B30B564
:104A20001C6F240407D41C6F44F400741C671C6FB3
:104A300044F400441C670A4C236843F480732360E9
:104A40000244084BD2B2904200D130BD441C00B2A7
:104A500051F8045B43F82050E0B2F4E7003802401C
:104A6000007000405028004007B5012201A9002035
:104A7000FFF7C2FF019803B05DF804FB13B50446CD
:104A8000FFF7F2FFA04205D0012201A90020019406
:104A9000FFF7C4FF02B010BD704700007047000070
:104AA00070470000074B45F255521A6002225A60C7
:104AB00040F6FF729A604CF6CC421A60024B01221B
:104AC0001A70704700300040E4520020034B1B78FE
:104AD0001BB1034B4AF6AA221A607047E452002029
:104AE00000300040034B1A681AB9034AD2F8742800
:104AF0001A607047E052002000300240024B4FF035
:104B00008072C3F8742870470030024008B5FFF780
:104B1000E9FF024B1868C0F3407008BDE052002066
:104B200008B5FFF7DFFF024B1868C0F3007008BD3F
:104B3000E052002070470000FEE700000A4B0B48DF
:104B40000B4A90420BD30B4BDA1C121AC11E22F0F7
:104B500003028B4238BF00220021FCF73FBE53F80E
:104B6000041B40F8041BECE71C560008705300209F
:104B7000705300207053002000F0D0B8014B586AE9
:104B8000704700BF000C0040034B002258631A61BD
:104B90000222DA60704700BF000C0040014B002287
:104BA000DA607047000C0040014B5863704700BF4B
:104BB000000C0040FEE7000070B51B4B01630025B0
:104BC000044686B0586085620E46FEF7D9FF04F1B0
:104BD0001003C4E904334FF0FF33C4E90635C4E9D8
:104BE0000044A560E562FFF7C9FF2B460246C4E911
:104BF000082304F134010D4A256580232046FFF780
:104C0000CDFB0123E0600A4A0375009272680192AD
:104C1000B268CDE90223074B6846CDE90435FFF7BA
:104C2000E5FB06B070BD00BFA0520020A4540008F0
:104C3000A9540008B54B0008024AD36A1843D06251
:104C4000704700BF385000204B6843608B6883601A
:104C5000CB68C3600B6943614B6903628B69436234
:104C60000B6803607047000008B5234B23481A699E
:104C700042F0FF021A611A6922F0FF021A611A69F2
:104C80001A6B42F0FF021A631A6D42F0FF021A65B6
:104C90001B4A1B6D1146FFF7D7FF02F11C0100F5FF
:104CA0008060FFF7D1FF02F1380100F58060FFF767
:104CB000CBFF02F1540100F58060FFF7C5FF02F160
:104CC000700100F58060FFF7BFFF02F18C0100F575
:104CD0008060FFF7B9FF02F1A80100F58060FFF7DF
:104CE000B3FF02F1C40100F58060FFF7ADFFBDE83E
:104CF000084000F08FB800BF0038024000000240BA
:104D0000B054000808B500F029FAFFF71FFBBDE812
:104D10000840FFF7E7BE0000704700000E4B1A6C1A
:104D200042F008021A641A6E42F008021A660B4A30
:104D30001B6E936843F008039360094B31229A621B
:104D40004FF0FF32DA6200229A615A63DA605A60E9
:104D500001225A611A60704700380240002004E0C6
:104D6000000C0040094A08B51169D3680B40D9B25C
:104D7000C9439B07116107D5302383F31188FFF7DF
:104D80000BFB002383F3118808BD00BF000C00401B
:104D90001E4B1A6962F0FF021A611A69D2B21A61D7
:104DA0004FF0FF301A695A69586100215A695961F8
:104DB0005A691A6A62F080521A621A6A02F08052C4
:104DC0001A621A6A5A6A58625A6A59625A6A1A6C9C
:104DD00042F080521A641A6E42F080521A661A6EBD
:104DE0000B4A106840F480701060186F00F4407037
:104DF000B0F5007F1EBF4FF4803018671967536805
:104E000023F40073536000F07DB900BF0038024006
:104E1000007000403B4B3C4A1A643C4A4FF440410E
:104E200011601A6842F001021A601A689007FCD5F6
:104E30009A6822F003029A60324B9A6812F00C02D0
:104E4000FBD1196801F0F90119609A601A6842F4FF
:104E500080321A601A689103FCD55A6F42F0010241
:104E60005A67284B5A6F9207FCD5294A5A601A682C
:104E700042F080721A60254A53685804FCD5214BD1
:104E80001A689101FCD5234AC3F884201A6842F0BD
:104E900080621A601A681201FCD51F4A9A600322C8
:104EA000C3F88C204FF00062C3F894201B4B1A68A3
:104EB0001B4B9A421B4B21D11B4A11681B4A914242
:104EC0001CD140F203121A60164A136803F00F0354
:104ED000032BFAD10B4B9A6842F002029A609A684F
:104EE00002F00C02082AFAD15A6C42F480425A6449
:104EF0005A6E42F480425A665B6E704740F203720B
:104F0000E1E700BF003802400004001000700040DC
:104F1000041940020830002400948838002004E07E
:104F200011640020003C024000ED00E041C20F414E
:104F3000074A08B5536903F00103536123B1054AD9
:104F400013680BB150689847BDE80840FEF73CBEB7
:104F5000003C0140E8520020074A08B5536903F0BD
:104F60000203536123B1054A93680BB1D068984797
:104F7000BDE80840FEF728BE003C0140E852002092
:104F8000074A08B5536903F00403536123B1054A86
:104F900013690BB150699847BDE80840FEF714BE8D
:104FA000003C0140E8520020074A08B5536903F06D
:104FB0000803536123B1054A93690BB1D06998473F
:104FC000BDE80840FEF700BE003C0140E85200206A
:104FD000074A08B5536903F01003536123B1054A2A
:104FE000136A0BB1506A9847BDE80840FEF7ECBD64
:104FF000003C0140E8520020164B10B55C6904F4F7
:1050000078725A61A30604D5134A936A0BB1D06A29
:105010009847600604D5104A136B0BB1506B984744
:10502000210604D50C4A936B0BB1D06B9847E2056F
:1050300004D5094A136C0BB1506C9847A30504D5ED
:10504000054A936C0BB1D06C9847BDE81040FEF751
:10505000BBBD00BF003C0140E8520020194B10B519
:105060005C6904F47C425A61620504D5164A136DEA
:105070000BB1506D9847230504D5134A936D0BB1BE
:10508000D06D9847E00404D50F4A136E0BB1506EF3
:105090009847A10404D50C4A936E0BB1D06E984783
:1050A000620404D5084A136F0BB1506F984723046C
:1050B00004D5054A936F0BB1D06F9847BDE81040F7
:1050C000FEF782BD003C0140E852002008B50348CD
:1050D000FEF740FEBDE80840FEF776BD604B0020BD
:1050E00008B50348FEF736FEBDE80840FEF76CBD84
:1050F000CC4D002008B5FFF735FEBDE80840FEF7AF
:1051000063BD0000062108B50846FEF7A5FE06218E
:105110000720FEF7A1FE06210820FEF79DFE0621CE
:105120000920FEF799FE06210A20FEF795FE0621CA
:105130001720FEF791FE06212820FEF78DFE07219D
:105140003220FEF789FE0C212520FEF785FEBDE802
:1051500008400C212620FEF77FBE000008B5FFF7AF
:1051600017FE00F009F8FFF71FF8FFF7D5FDBDE8BF
:105170000840FFF701BD00000023054A194601332E
:10518000102BC2E9001102F10802F8D1704700BFEC
:10519000E85200200B460146184600F02DB80000EA
:1051A00000F040B8012838BF012010B50446204661
:1051B00000F030F830B900F007F808B900F00CF84A
:1051C0008047F4E710BD0000024B1868BFF35B8F07
:1051D000704700BF6853002008B5062000F084F82F
:1051E0000120FFF77DFA0000024B0A4601461868CD
:1051F000FFF7B0BB2823002010B5054C13462CB197
:105200000A4601460220AFF3008010BD2046FCE7AD
:1052100000000000024B01461868FFF79FBB00BF6B
:1052200028230020024B01461868FFF79BBB00BFF4
:105230002823002010B501390244904201D10020FA
:1052400005E0037811F8014FA34201D0181B10BDEF
:105250000130F2E72DE9F041A3B1C91A17780144F2
:10526000044603F1FF3C8C42204601D9002009E0AE
:105270000578BD4204F10104F5D10CEB0405D61804
:10528000A54201D1BDE8F08115F8018D16F801EDB8
:10529000F045F5D0E7E700001F2938B504460D4674
:1052A00004D9162303604FF0FF3038BD426C12B1B1
:1052B00052F821304BB9204600F030F82A4601461A
:1052C0002046BDE8384000F017B8012B0AD0591C21
:1052D00003D1162303600120E7E7002442F82540AC
:1052E000284698470020E0E7024B01461868FFF780
:1052F000D3BF00BF2823002038B5074D0023044644
:10530000084611462B60FFF7EFF9431C02D12B68CA
:1053100003B1236038BD00BF6C530020FFF7DEB936
:10532000034611F8012B03F8012B002AF9D170472D
:105330006F72672E6172647570696C6F742E415262
:105340004B5F43414E4E4F444500000053544D3394
:1053500032463F3F3F0053544D333246343078009D
:1053600053544D3332463432780053544D33324621
:10537000343436585800000001203300001041003A
:1053800001105A00031059000710310000000000FE
:105390004C53000813040000565300081904000081
:1053A00060530008210400006A53000840A2E4F1A1
:1053B000646891060041A3E5F26569920700000068
:1053C0004261642043414E496661636520696E64B1
:1053D00065782E0080000000008000000000800042
:1053E000000000000000000095200008B52800081B
:1053F00011280008D5200008E1200008E12200085B
:10540000A5200008B5200008A9200008B120000848
:10541000AD20000805220008B9200008852B0008EF
:10542000C9200008D92100080096000000000000F3
:10543000000000000000000000000000000000006C
:105440006941000855410008914100087D4100086C
:105450008941000875410008614100084D4100087C
:105460009D41000863300000645400089050002003
:10547000A05200200040000000400000004000005A
:1054800000400000000001000000020000000200D7
:105490000000020000000200000002000000020004
:1054A000000002006D61696E0069646C65000000B7
:1054B000A00195AA00070000AAAAAAAA50010064A8
:1054C000FFF90000007700000090097080000001E3
:1054D00000000000AAAAAAAA40000001FFFF0000E5
:1054E00000700000000000000000005000000000FC
:1054F000AAAAAA5A00000000FF3F00000000000016
:10550000000000000000000000000000AAAAAAAAF3
:1055100000000000FFFF000000000000000000008D
:105520000000000000000000AAAAAAAA00000000D3
:10553000FFFF00000000000000000000000000006D
:1055400000000000AAAAAAAA00000000FFFF0000B5
:10555000000000000000000000000000000000004B
:10556000AAAAAAAA00000000FFFF00000000000095
:105570000000000000000000000000000A00000021
:105580000000000003000000000000000000000018
:10559000530000000000000000000F0000000000A9
:1055A00040420F00FE2A0100D2040000FF0000006C
:1055B000604B0020CC4D00202C2300200000000078
:1055C00000000000000000000000000000000000DB
:1055D00000000000000000000000000000000000CB
:1055E00000000000000000000000000000000000BB
:1055F00000000000000000000000000000000000AB
:10560000000000000000000000000000000000009A
:0C5610000000000000000000000000008E
:00000001FF
