:020000040800F2
:1000000000070020F1020008A1330008593300085E
:10001000813300085933000879330008F3020008DF
:10002000F3020008F3020008F30200088543000809
:10003000F3020008F3020008F3020008F3020008CC
:10004000F3020008F3020008F3020008F3020008BC
:10005000F3020008F3020008017800082D78000878
:100060005978000885780008B178000849440008EC
:10007000714400089D440008C9440008F544000884
:100080001D45000849450008F3020008093300082F
:10009000313300081D33000845330008DD780008BF
:1000A000F3020008F3020008F3020008F30200085C
:1000B000F3020008F3020008F3020008F30200084C
:1000C000F3020008F3020008F3020008F30200083C
:1000D000F3020008F3020008F3020008F30200082C
:1000E00041790008F3020008F3020008F302000857
:1000F000F3020008F3020008F30200087545000847
:10010000F3020008F3020008C9790008F3020008AE
:10011000F3020008F3020008F3020008F3020008EB
:10012000A1450008C9450008F5450008214600081A
:100130004D460008F3020008F3020008F30200082D
:10014000F3020008F3020008F3020008F3020008BB
:1001500075460008A1460008CD460008F3020008D5
:10016000F3020008F3020008F3020008F30200089B
:10017000F3020008816E0008F3020008F302000891
:10018000F3020008F3020008B5790008F302000842
:10019000F3020008F3020008F3020008F30200086B
:1001A000F3020008F3020008F3020008F30200085B
:1001B000F3020008F3020008F3020008F30200084B
:1001C000F3020008F3020008F3020008F30200083B
:1001D000F30200086D6E0008F3020008F302000845
:1001E000F3020008F3020008F3020008F30200081B
:1001F000F3020008F3020008F3020008F30200080B
:10020000F3020008F3020008F3020008F3020008FA
:10021000F3020008F3020008F3020008F3020008EA
:10022000F3020008F3020008F3020008F3020008DA
:10023000F3020008F3020008F3020008F3020008CA
:10024000F3020008F3020008F3020008F3020008BA
:10025000F3020008F3020008F3020008F3020008AA
:10026000F3020008F3020008F3020008F30200089A
:10027000F3020008F3020008F3020008F30200088A
:10028000F3020008F3020008F3020008F30200087A
:10029000F3020008F3020008F3020008F30200086A
:1002A000F3020008F3020008F3020008F30200085A
:1002B000F3020008F3020008F3020008F30200084A
:1002C000F3020008F3020008F3020008F30200083A
:1002D000F3020008F3020008F3020008F30200082A
:1002E00021170008000000000000000000000000CE
:1002F00002E000F000F8FEE772B6374880F30888A5
:10030000364880F3098836483649086040F20000D4
:10031000CCF200004EF63471CEF200010860BFF35B
:100320004F8FBFF36F8F40F20000C0F2F0004EF627
:100330008851CEF200010860BFF34F8FBFF36F8F7B
:100340004FF00000E1EE100A4EF63C71CEF20001D3
:100350000860062080F31488BFF36F8F05F0FCFF60
:1003600007F00AF84FF055301F491B4A91423CBF35
:1003700041F8040BFAE71D49184A91423CBF41F885
:10038000040BFAE71A491B4A1B4B9A423EBF51F82D
:10039000040B42F8040BF8E700201849184A914270
:1003A0003CBF41F8040BFAE706F014F807F068F8D0
:1003B000144C154DAC4203DA54F8041B8847F9E796
:1003C00000F042F8114C124DAC4203DA54F8041B11
:1003D0008847F9E705F0FCBF000700200023002054
:1003E0000000000808ED00E00001002000070020E8
:1003F0009880000800230020D0230020D023002074
:10040000C8880020E0020008E4020008E4020008B6
:10041000E40200082DE9F04F2DED108AC1F80CD050
:10042000D0F80CD0BDEC108ABDE8F08F002383F328
:1004300011882846A047002005F070FAFEE705F075
:10044000EFF900DFFEE70000F8B501F0E9F901F08F
:100450007FFB05F005FF074605F074FF0546A8BBC6
:100460001F4B9F4232D001339F4232D027F0FF0210
:100470001C4B9A4230D12E4642F21074F8B200F072
:100480009BFF00F09FFF08B10024264601F0A8FD65
:1004900020B10024032000F079F8264635B1124B34
:1004A0009F4203D0002405F045FF2646002005F0BA
:1004B000E1FE0EB100F080F801F0E8FA00F0B6FFBE
:1004C000204600F037F900F077F8F9E72E460024CF
:1004D000D7E704460126D4E7064641F28834D0E740
:1004E000010007B0000008B0263A09B008B501F0D5
:1004F00063F9A0F120035842584108BD07B541F205
:100500001203022101A8ADF8043001F073F903B021
:100510005DF804FB38B5302383F31188174803686E
:100520000BB105F0C7FA0023154A4FF47A7113484E
:1005300005F0B6FA002383F31188124C236813B137
:100540002368013B2360636813B16368013B636008
:100550000D4D2B7833B963687BB9022001F008FA9E
:10056000322363602B78032B07D163682BB90220F9
:1005700001F0FEF94FF47A73636038BDD023002098
:1005800015050008F0240020E8230020084B18700F
:1005900003280CD8DFE800F008050208022001F06B
:1005A000E5B9022001F0E0B9024B00225A60704721
:1005B000E8230020F0240020F8B501F011FD30B14F
:1005C000544B03221A700022534B5A60F8BD534B10
:1005D000534A1C4619680131F8D004339342F9D1CB
:1005E0006268504B9A42F1D94F4B9B6803F100630C
:1005F00003F500339A42E9D205F070FE05F082FE61
:10060000002001F027F90220FFF7C0FF474B00212F
:10061000D3F8E820C3F8E810D3F81021C3F810117C
:10062000D3F81021D3F8EC20C3F8EC10D3F8142140
:10063000C3F81411D3F81421D3F8F020C3F8F01044
:10064000D3F81821C3F81811D3F81821D3F8802053
:1006500042F00062C3F88020D3F8802022F00062CC
:10066000C3F88020D3F88020D3F8802042F00072B5
:10067000C3F88020D3F8802022F00072C3F88020D5
:10068000D3F8803072B64FF0E023C3F8084DD4E9B8
:100690000004BFF34F8FBFF36F8F254AC2F8841059
:1006A000BFF34F8F536923F480335361BFF34F8FF0
:1006B000D2F8803043F6E076C3F3C905C3F34E3376
:1006C0005B0103EA060C29464CEA81770139C2F83E
:1006D0007472F9D2203B13F1200FF2D1BFF34F8F88
:1006E000BFF36F8FBFF34F8FBFF36F8F536923F447
:1006F000003353610023C2F85032BFF34F8FBFF372
:100700006F8F302383F31188854680F30888204754
:100710005CE700BFE8230020F0240020000002086E
:1007200020000208FFFF01080023002000440258B7
:1007300000ED00E02DE9F04F93B0B74B2022FF21F0
:1007400000900AA89D6801F04BF9B44A1378A3B948
:100750000121B34811700360302383F311880368CB
:100760000BB105F0A7F90023AE4A4FF47A71AC48FB
:1007700005F096F9002383F31188009B13B1AA4B6F
:10078000009A1A60A94A1378032B03D00023137030
:10079000A54A53604FF0000A009CD3465646D14606
:1007A000012001F0E3F824B19F4B1B68002B00F0FF
:1007B0002C82002001F000F80390039B002B01DA4B
:1007C00000F088FE039B002BEDDB012001F0CCF84C
:1007D000039B213B1F2BE3D801A252F823F000BF5B
:1007E00061080008890800081D090008A107000821
:1007F000A1070008A1070008AF0900087F0B000847
:10080000990A0008FB0A0008230B0008490B00089E
:10081000A10700085B0B0008A1070008CD0B00082A
:1008200001090008A1070008110C00086D08000864
:1008300001090008A1070008FB0A0008A107000839
:10084000A1070008A1070008A1070008A1070008E8
:10085000A1070008A1070008A10700081D0900085A
:100860000220FFF743FE002840F0F981009B02219F
:1008700005A8BAF1000F08BF1C4641F21233ADF8CB
:10088000143000F0B7FF8BE74FF47A7000F094FF5C
:10089000071EEBDB0220FFF729FE0028E6D0013F10
:1008A000052F00F2DE81DFE807F0030A0D10133692
:1008B0000523042105A8059300F09CFF17E00421FF
:1008C0005548F9E704215A48F6E704215948F3E767
:1008D0004FF01C08404608F1040800F0BDFF042159
:1008E000059005A800F086FFB8F12C0FF2D1012089
:1008F0004FF0000900FA07F747EA0B0B5FFA8BFB92
:1009000001F0BAF826B10BF00B030B2B08BF002443
:10091000FFF7F4FD44E704214748CDE7002EA5D0BA
:100920000BF00B030B2BA1D10220FFF7DFFD0746D5
:1009300000289BD00120002600F08CFF0220FFF74A
:1009400025FE1FFA86F8404600F094FF0446B0B139
:10095000039940460136A1F140025142514100F055
:10096000A1FF0028EDD1BA46044641F2121302213C
:1009700005A83E46ADF8143000F03CFF10E72546D0
:100980000120FFF703FE244B9B68AB4207D92846A2
:1009900000F062FF013040F067810435F3E7002585
:1009A000224BBA463E461D701F4B5D60A8E7002EE5
:1009B0003FF45CAF0BF00B030B2B7FF457AF02201F
:1009C000FFF7E4FD322000F0F7FEB0F10008FFF67B
:1009D0004DAF18F003077FF449AF0F4A08EB05034A
:1009E000926893423FF642AFB8F5807F3FF73EAF43
:1009F000124BB845019323DD4FF47A7000F0DCFE12
:100A00000390039A002AFFF631AF039A0137019B46
:100A100003F8012BEDE700BF00230020EC240020A9
:100A2000D023002015050008F0240020E823002032
:100A300004230020082300200C230020EC230020A6
:100A4000C820FFF753FD074600283FF40FAF1F2DC6
:100A500011D8C5F120020AAB25F0030084494245B4
:100A6000184428BF4246019200F094FF019AFF21EA
:100A70007F4800F0B5FF4FEAA803C8F387027C491E
:100A80002846019300F0B4FF064600283FF46DAFFE
:100A9000019B05EB830533E70220FFF727FD0028C4
:100AA0003FF4E4AE00F010FF00283FF4DFAE002773
:100AB000B846704B9B68BB4218D91F2F11D80A9BB0
:100AC00001330ED027F0030312AA134453F8203C3D
:100AD00005934046042205A9043701F06BFA8046CD
:100AE000E7E7384600F0B8FE0590F2E7CDF814804D
:100AF000042105A800F07EFE02E70023642104A87B
:100B0000049300F06DFE00287FF4B0AE0220FFF7E2
:100B1000EDFC00283FF4AAAE049800F0CBFE05904F
:100B2000E6E70023642104A8049300F059FE00289E
:100B30007FF49CAE0220FFF7D9FC00283FF496AE6C
:100B4000049800F0B9FEEAE70220FFF7CFFC002886
:100B50003FF48CAE00F0C8FEE1E70220FFF7C6FCD0
:100B600000283FF483AE05A9142000F0C3FE074619
:100B70000421049004A800F03DFE3946B9E7322074
:100B800000F01AFE071EFFF671AEBB077FF46EAED3
:100B9000384A07EB0903926893423FF667AE02209A
:100BA000FFF7A4FC00283FF461AE27F003074F4491
:100BB000B9453FF4A5AE484609F1040900F04CFEE2
:100BC0000421059005A800F015FEF1E74FF47A70B6
:100BD000FFF78CFC00283FF449AE00F075FE0028BA
:100BE00044D00A9B01330BD008220AA9002000F050
:100BF000FFFE00283AD02022FF210AA800F0F0FED4
:100C0000FFF77CFC1C4804F08FFE13B0BDE8F08FAA
:100C1000002E3FF42BAE0BF00B030B2B7FF426AE14
:100C20000023642105A8059300F0DAFD074600289B
:100C30007FF41CAE0220FFF759FC804600283FF4E9
:100C400015AEFFF75BFC41F2883004F06DFE0598AD
:100C500000F05CFF46463C4600F00EFFA0E506466D
:100C60004EE64FF0000901E6BA467EE637467CE6DE
:100C7000EC23002000230020A0860100094A49F24D
:100C80006900136899B21B0C00FB013344F25061F8
:100C90001360054B186882B2000C01FB020018605B
:100CA00080B270471423002010230020002110225E
:100CB00010B5044600F094FE034B03CB2060616046
:100CC0001868A06010BD00BF00E8F11F2DE9F041D9
:100CD000ADF5527D0D46002140F2751270AC07460D
:100CE00012A8119100F07CFE4FF4C472002120463E
:100CF00000F076FE0DF1440802F05AFB4FF47A72D0
:100D0000264BB0FBF2F0186093E80700022384E85A
:100D100007000DF5F1702382FFF7C8FF47F60503C2
:100D20001F4907A8238406F0F3FE25230DF2F322C2
:100D30000DF13C0C84F8323107AB1E46083203CE6D
:100D4000664542F8080C42F8041C3346F5D1306879
:100D500041461060204633791371012200F04EFFA6
:100D6000002380B2E97E0393AB7E029305F1190361
:100D700001930123009307A3D3E90023CDE9048065
:100D8000384602F0D3FE0DF5527DBDE8F08100BF7C
:100D9000AFF300809E6AC421818A46EEF8240020C9
:100DA000207B00082DE9F0412C4CDAB080460D463E
:100DB000237A5BBB27A9284601F02EF807460028B6
:100DC00042D19DF89D60C82E3ED801464FF4A662E0
:100DD000204600F005FE4FF4807332460DF19E016F
:100DE000C4F8F8314FF4007304F109002644C4F844
:100DF0000C334FF44073C4F8203400F0CBFD9DF861
:100E00009C30777223720BB9EB7E237206AC812281
:100E1000002127A800F0E4FD0122214627A801F0C7
:100E200037F8002380B2E97E0393AB7E029305F18D
:100E3000190301932823CDE904400093404605A3FC
:100E4000D3E9002302F072FE5AB0BDE8F08100BF82
:100E5000AFF3008026417272DF25D7B7C05E002055
:100E6000F0B5254E4FF48A75F1B0002405FB0065FE
:100E700096F8D830D822214685F8DC303AA885F893
:100E8000E84006AF00F0ACFD06F1090000F0A0FD5F
:100E9000D5F8E430C2B206F109018DF8F0000DF189
:100EA000F100CDE93A3400F075FD394601223AA847
:100EB00001F01AF8082380B2317ACDE904700127D5
:100EC0000E48CDE9023706F1D80301933023009391
:100ED00007A3D3E9002302F029FEA04206DD02F0B9
:100EE00067FAC5F8E000384671B0F0BD2046FBE770
:100EF00078F6339F93CACD8DC05E00201035002058
:100F00002DE9F04F264F87B0DFF8A080254E3846F8
:100F100002F038FE034600283AD00024224DADF8F6
:100F20001440A1460294A246CDE90344027B8DF809
:100F3000142003AA9968406803C21B6843F0004369
:100F400002932B6804F5A664D3F810B002F032FACD
:100F500010EB0802CDF800A0284605F5A65541F192
:100F6000000302A9D8470028C8BF49F00109B4F519
:100F7000266FE6D1B9F1000F05D0384602F006FE23
:100F800086F800A0C3E73378072B04D80133337009
:100F900007B0BDE8F08F024802F0F8FDF8E700BFA7
:100FA00010350020F56300204035002040420F003E
:100FB00070B50D4614461E4602F014FD50B9022EBF
:100FC00010D1012C0ED112A3D3E900230120C5E9D1
:100FD000002307E0282C10D005D8012C09D0052CBF
:100FE0000FD0002070BD302CFBD10BA3D3E9002320
:100FF000ECE70BA3D3E90023E8E70BA3D3E9002335
:10100000E4E70BA3D3E90023E0E700BFAFF30080E0
:10101000401DA12026812A0B78F6339F93CACD8DDF
:101020009E6AC421818A46EE26417272DF25D7B7B7
:10103000F017304A39059E5638B505460E4C00214A
:10104000013500F02FFCA4F82C55B4F82C0500F065
:1010500011FC78B1B4F82C0500F01CFC014648B92D
:10106000B4F82C0500F01EFCB4F82C350133A4F8BC
:101070002C35EAE738BD00BFC05E0020F8B50D4C46
:1010800002260D4FA4F5805343F8307C237E3BB9F4
:1010900065692DB1284601F01DF8284606F0EEFCE2
:1010A0002046A4F5A65401F015F8012E00D1F8BD94
:1010B0000126E7E7305A0020E87B00082DE9F04FD1
:1010C0008FB005460C4600AF02F08CFC002849D1D9
:1010D000237E022B1BD1E38A012B18D102F068F981
:1010E0000646FFF7CBFD03464FF4C87006F51676AB
:1010F000DFF8C082B3FBF0F202FB103316FA83F381
:10110000C8F80030E37E33B9A34B00221A703C3795
:10111000BD46BDE8F08F07F12401204600F03AFEFD
:101120000028F4D107F11400FFF7C0FD97F826401E
:1011300007F1140107F12700224606F0B7FC00284A
:10114000E2D10F2C08D8944B1C70D8F80030A3F5CE
:101150001673C8F80030DAE797F82410284602F032
:1011600039FCD4E7E38A282B2BD010D8012B23D0CD
:10117000052BCCD1BFF34F8F8849894BCA6802F445
:10118000E0621343CB60BFF34F8F00BFFDE7302B0E
:10119000BDD1844EE17E327A9142B8D1607E314633
:1011A000002291F8DC50854200F0A580013201F563
:1011B0008A71042AF5D1AAE721462846FFF786FD61
:1011C000A5E721462846FFF7EDFDA0E7B2F8EC5071
:1011D0007B6005F103094FEA99094FEA8902D11DA5
:1011E000C908A8EBC10300219D46EB46584600F014
:1011F000F7FB04F1EE012A465846314400F0CAFBE1
:101200007B6813B9012000F025FB96F8D20000F0AE
:1012100031FB044630B9307200F056FB204600F036
:1012200019FBB1E0D6F8D4203AB996F8D200B6F856
:101230002C25824201D8FFF7FFFED6F8D4202A449D
:10124000944208D296F8D200B6F82C25013082429A
:1012500001D8FFF7F1FE5FFA89F25946706800F095
:10126000C7FB08B9C54679E0726896F8D2002A44EF
:101270007260D6F8D42005EB0209C6F8D49000F0CD
:10128000F9FA814509D396F8D220D6F8D400013274
:10129000001B86F8D220C6F8D400FF2D0FD80024FA
:1012A000347200F011FB204600F0D4FA00F098FEF2
:1012B0003D4B188108B9FFF77FF9C54627E7BB68A2
:1012C00096F8D9000AFB0362FB68D2F8E41082F8B2
:1012D000E83001F58061C2F8E030C2F8E410FFF7B1
:1012E000BFFDFFF70DFE96F8D920013202F0030290
:1012F00086F8D920B6E74FF48A7A20460AFB02F531
:1013000005F1EA01314400F01BFEF86000287FF48B
:10131000FEAE0122354485F8E82002F049F8D5F800
:10132000E020D6ED007A801A40F6B832B8EE677A3F
:10133000DFED1E6A192838BF1920904228BF1046D9
:1013400007EE900AF8EEE77A67EEA67ADFED186A04
:10135000E7EE267AFCEEE77AC6ED007A96F8D93009
:10136000BB60BA6873680AFB02F4321992F8E8109D
:1013700059B1D2F8E410E8468B423FF427AF002180
:1013800082F8E810C2F8E010C5467368064A9B0A66
:1013900001331381BBE600BF0935002000ED00E0FA
:1013A0000400FA05C05E0020F8240020CDCCCC3D1E
:1013B0006666663F0C350020014B1870704700BF11
:1013C0000425002038B54FF00054144B22689A428F
:1013D00021D1627D0025124B12481A70C922237D4B
:1013E0000930114900F8013C4FF48073C0F8DB501C
:1013F000C0F8EF314FF40073C0F803334FF440737B
:10140000C0F8173400F0C6FAE0222946204600F062
:10141000E7FA012038BD0020FCE700BF9AAD44C5C3
:1014200004250020C05E00201600002037B500F023
:10143000D7FD1F4C1F4D022301221F496B712368EA
:10144000288120465B68984704F5805301221A4999
:10145000D3F8C03404F5A6505B68984700231749B9
:101460004FF480520193164B16480093164B02F02E
:1014700089FA164B197811B1124802F0ABFA01F053
:1014800097FF0446FFF7FAFB4FF4C873B0FBF3F283
:1014900002FB130304F5167010FA83F00C4B18606E
:1014A00004F050FF08B10F232B8103B030BD00BF03
:1014B00040350020F824002040420F00082500207D
:1014C000B10F000810350020BD10000804250020D1
:1014D0000C3500202DE9F04F00242DED028B93B048
:1014E0000DF12C084FF0010ADFF814B2FFF708FDE8
:1014F0000A94ADF834400B94C8F804409FED798B02
:1015000000267E4D37462B680DF11D0207A928469F
:101510008DF81CA08DF81D408DED008BD3F8089040
:101520000023C8479DF81C90B9F1000F1ED010226F
:1015300000210EA800F054FA2B6808AA0AA95F69D6
:1015400028460DF11E03B8470FAB4F4698E803003D
:1015500083E803009DF834300EA958468DF84430D6
:101560000A9B0E93DDE9082302F0EEFC06F5A66661
:1015700005F5A655B6F5266FC5D1002FC0D1604838
:1015800002F030FA00283FD15E4E01F011FF3368BF
:10159000984239D301F00CFF0546FFF76FFB4FF47B
:1015A000C8738DF82870B0FBF3F202FB130305F546
:1015B000167010FA83F03060534E377817B9012354
:1015C0008DF82830C7F110050EA8FFF76FFB0EABA2
:1015D000EDB20DF12900D919062D28BF06252A469E
:1015E000013500F0D7F90AABEDB245480393182353
:1015F00004950293454B0193012300933BA3D3E948
:10160000002302F035FA347001F0D2FE404A414D19
:101610001368C31AB3F57A7F2FD3106001F0CAFEA6
:1016200002460B46364802F0BBFA354802F0DAF9BA
:1016300018B32B7A0EAF384E002B14BF03230223AE
:10164000737101F0B5FE4FF47A7301223946B0FB95
:10165000F3F03060304600F075FB182380B202933F
:101660002E4B019340F25513CDE9037000932448AB
:1016700020A3D3E9002302F0FBF92B7A93B101F008
:1016800097FE002607464FF48A7895F8D900304433
:1016900000F0030008FB005393F8E82072B1013614
:1016A000042EF2D1C82004F03FF92B7A002B7FF4EE
:1016B00017AF13B0BDEC028BBDE8F08FD3F8E0207C
:1016C00042B12B68BA1AFA2B38BFFA230533B2EBB2
:1016D000430FE4D3FFF7C4FB0028E0D1E2E700BFEB
:1016E000AFF300800000000000000000401DA120BA
:1016F00026812A0BF1C6A7C1D068080F403500200B
:10170000103500200C350020093500200835002058
:10171000F0630020C05E0020F8240020F463002065
:1017200010B5074C204601F007F904F5A65001F06A
:1017300003F9044A04490020BDE8104006F098B9B6
:1017400040350020506400207D1000082DE9F84F3E
:101750004FF47A7306460D46002402FB03F7DFF8C8
:101760005080DFF8509098F900305FFA84FA5A1CE4
:1017700001D0A34212D159F824002A463146036809
:10178000D3F820B03B46D847854207D1074B01200C
:1017900083F800A0BDE8F88F0124E4E7002CFBD01B
:1017A0004FF4FA7004F0C0F80020F3E73C64002026
:1017B000182300201C230020002307B50246012126
:1017C0000DF107008DF80730FFF7C0FF20B19DF83D
:1017D000070003B05DF804FB4FF0FF30F9E70000AD
:1017E0000A46042108B5FFF7B1FF80F00100C0B23E
:1017F000404208BD074B0A4630B41978064B53F8EF
:101800002140014623682046DD69044BAC4630BCCC
:10181000604700BF3C6400201C230020A08601001C
:1018200070B50A4E00240A4D04F0ACFB30802868E5
:101830003388834208D904F0A1FB2B6804440133A8
:10184000B4F5003F2B60F2D370BD00BF3E640020B2
:10185000F863002004F064BC00F1006000F5003083
:101860000068704700F10060920000F5003004F05D
:10187000E5BB0000054B1A68054B1B889B1A834289
:1018800002D9104404F07ABB00207047F8630020AE
:101890003E640020024B1B68184404F075BB00BF77
:1018A000F8630020024B1B68184404F07FBB00BFA4
:1018B000F86300200020704700F1FF5000F58F1002
:1018C000D0F8000870470000064991F8243033B181
:1018D00000230822086A81F82430FFF7C3BF0120E3
:1018E000704700BFFC630020014B1868704700BFC1
:1018F0000010005C194B01380322084470B51D68C4
:10190000174BC5F30B042D0C1E88A6420BD15C6847
:101910000A46013C824213460FD214F9016F4EB1C0
:1019200002F8016BF6E7013A03F10803ECD18142BA
:101930000B4602D22C2203F8012B0424094A1688F4
:10194000AE4204D1984284BF967803F8016B013C03
:1019500002F10402F3D1581A70BD00BF0010005C00
:1019600024230020747B00087047000070470000AB
:101970007047000070B504464FF47A764CB1412CA4
:10198000254628BF412506FB05F0641B03F0CCFF6C
:10199000F4E770BD002310B5934203D0CC5CC4546F
:1019A0000133F9E710BD0000013810B510F9013F0F
:1019B0003BB191F900409C4203D11AB10131013A87
:1019C000F4E71AB191F90020981A10BD1046FCE70F
:1019D00003460246D01A12F9011B0029FAD17047BA
:1019E00002440346934202D003F8011BFAE7704712
:1019F0002DE9F8431F4D14460746884695F82420E4
:101A000052BBDFF870909CB395F824302BB920229C
:101A1000FF2148462F62FFF7E3FF95F82400414677
:101A2000C0F1080205EB8000A24228BF2246D6B2D0
:101A30009200FFF7AFFF95F82430A41B17441E4413
:101A40009044E4B2F6B2082E85F82460DBD1FFF7AB
:101A50003BFF0028D7D108E02B6A03EB82038342C7
:101A6000CFD0FFF731FF0028CBD10020BDE8F883AD
:101A70000120FBE7FC630020024B1A78024B1A702E
:101A8000704700BF3C6400201823002038B51A4C72
:101A90001A4D204603F08CFA2946204603F0B4FA8A
:101AA0002D684FF47A70D5F89020D2F8043843F0BE
:101AB0000203C2F80438FFF75DFF1149284603F01E
:101AC000B1FBD5F890200F4DD2F80438286823F0E8
:101AD00002030D49A042C2F804384FF4E1330B6011
:101AE00001D003F0C3F96868A04204D00649BDE8FC
:101AF000384003F0BBB938BDB86B0020347E000815
:101B00003C7E00081C230020246400200C4B70B590
:101B10000C4D04461E780C4B55F826209A420DD0E9
:101B20000A4B002118221846FFF75AFF04600146AD
:101B300055F82600BDE8704003F098B970BD00BFAD
:101B40003C6400201C230020B86B0020246400208B
:101B5000F0B5A1B071B600230120002480261A46FA
:101B6000194602F05BFE4FF4D067214A3D25136908
:101B700023BBD2F810310BBB036804F100619960FC
:101B80000368C3F80CD003685E6003681F600168D7
:101B90000B6843F001030B6001680B6823F01E0320
:101BA0000B6001680B68DB07FCD4037B8034416861
:101BB00005FA03F3B4F5001F0B60D8D102F06EFEF6
:101BC000B4F5001F11D000240A4E0B4D012004F083
:101BD000A7FA3388A34205D928682044013404F0C9
:101BE000E5F9F6E7002004F09BFA61B621B0F0BDFC
:101BF000002000523E640020F86300202DE9F047E9
:101C00000D46044600219046284640F27912FFF71F
:101C1000E7FE234620220021284604F1220702F095
:101C200035F9231D022220212846C02602F02EF974
:101C3000631D03222221284602F028F9A31D032256
:101C40002521284602F022F904F108031022282158
:101C5000284602F01BF904F1100308223821284617
:101C600002F014F904F1110308224021284602F081
:101C70000DF904F1120308224821284602F006F962
:101C800004F1140320225021284602F0FFF804F149
:101C9000180340227021284602F0F8F804F12003CE
:101CA0000822B021284602F0F1F804F121030822AD
:101CB000B821284602F0EAF8314608363B460822A9
:101CC0002846013702F0E2F8B6F5A07FF4D10027EC
:101CD00004F1330A04F1320308223146284602F0A7
:101CE000D5F894F832304FEAC7099F4209F5A47637
:101CF00015D3B8F1000F08D1314609F24F1604F59B
:101D000099730722284602F0C1F827463B1B94F836
:101D1000322193420CD3F01DC008BDE8F0870AEBD6
:101D20000703082231462846013702F0AFF8D8E70A
:101D300007F233133146082228460836013702F0ED
:101D4000A5F8E3E713B50446084600212022234600
:101D500001900160C0F8031002F098F8231D01986B
:101D60000222202102F092F8631D01980322222111
:101D700002F08CF8A31D01980322252102F086F8B9
:101D8000019804F108031022282102F07FF80720AF
:101D900002B010BD0023F7B50E46047F0722009164
:101DA0001946054601F036FF731C012207210093F6
:101DB0002846002301F02EFFC4B9B31C05220821D8
:101DC0002846009323460D2401F024FF3746BB1B11
:101DD000B278934211D307342B7FA88AE408BBB9A9
:101DE000844294BF0020012003B0F0BDAB8A0824D8
:101DF000DB00083BDB08B370E8E7FB1C2146082248
:101E00002846009300230834013701F003FFDEE782
:101E1000201A18BF0120E7E70023F7B50E46047F1C
:101E2000082200911946054601F0F4FE731CC4B95E
:101E300008220093234610241146284601F0EAFEAA
:101E400001235F1C7278013B934211D307342B7F2F
:101E5000A88AE408BBB9844294BF0020012003B0E3
:101E6000F0BDAB8A0824DB00083BDB087370E7E7B2
:101E7000F3192146082228460093002301F0CAFEE8
:101E800008343B46DDE7201A18BF0120E7E70000D1
:101E9000F8B50E4605461446002181223046FFF76C
:101EA0009FFD2B4608220021304601F0EFFF7CB950
:101EB0000F246B1C07220821304601F0E7FF0123A5
:101EC0005F1C6A78013B934204D3E01DC008F8BD53
:101ED0000824F4E7EB1921460822304601F0D6FF2A
:101EE00008343B46ECE70000F8B50E4605461446BC
:101EF0000021CE223046FFF773FD2B462822002119
:101F0000304601F0C3FF7CB9302405F108030822F4
:101F10002821304601F0BAFF2F467B1B2A7A9342D4
:101F200004D3E01DC008F8BD2824F5E707F1090334
:101F30002146082230460834013701F0A7FFECE7BC
:101F4000F7B5047F0E4600910123102200210546BB
:101F500001F060FEC4B9B31C092210212846009389
:101F60002346192401F056FE37467288BB1B9A425D
:101F700011D807342B7FA88AE408BBB9844294BFE8
:101F80000020012003B0F0BDAB8A1024DB00103B21
:101F9000DB087380E8E73B1D2146082228460093B2
:101FA00000230834013701F035FEDEE7201A18BFA0
:101FB0000120E7E730B50A44084D91420DD011F8F1
:101FC000013B5840082340F30004013B2C4013F030
:101FD000FF0384EA5000F6D1EFE730BD2083B8ED6F
:101FE000F7B5364A6B46106851686A4603C3082342
:101FF0003349344805F06AFD044690BB0A25324A4D
:102000006B46106851686A4603C308232F492D4860
:1020100005F05CFD0446002847D00369B3F5F01FC6
:1020200043D8B0F86620B2F5AF6F3ED1284A0244DB
:1020300002F15C018B4238D35C3B224900209E1A9E
:10204000FFF7B8FF04F16401074632460020FFF7AE
:10205000B1FFA3689F4228D1E368984208BF0025DA
:1020600023E00369B3F5F01F26D8428BB2F5AF6FBA
:1020700020D1174A024402F110018B4218D3103BC1
:10208000104900209D1AFFF795FF04F1180106463C
:102090002A460020FFF78EFFA3689E4202D1E36824
:1020A000984201D00D25AAE70025284603B0F0BDCF
:1020B0001025A4E70C25A2E70B25A0E7847B0008E8
:1020C000DCFF1D00000002088D7B000890FF1D0052
:1020D0000800FEF710B5037C044613B9006805F04C
:1020E000DDFC204610BD00000023BFF35B8FC36002
:1020F000BFF35B8FBFF35B8F8360BFF35B8F704772
:10210000BFF35B8F0068BFF35B8F704770B5054608
:102110000C30FFF7F5FF044605F108063046FFF7DF
:10212000EFFFA04206D96D683046FFF7E9FF25446E
:10213000281A70BD3046FFF7E3FF201AF9E70000C8
:1021400070B505464068A0B105F10C0605F1080020
:10215000FFF7D6FF04463046FFF7D2FF844204F172
:10216000FF34304694BF6D680025FFF7C9FF2C444B
:10217000201A70BD38B50C460546FFF7C7FFA042D0
:1021800010D305F10800FFF7BBFF04446868BFF3F4
:102190005B8FB4FBF0F100FB11440120AC60BFF396
:1021A0005B8F38BD0020FCE72DE9F041144607465F
:1021B0000D46FFF7C5FF844228BF0446D4B1B84698
:1021C00058F80C6B4046FFF79BFF304428604046B0
:1021D0007E68FFF795FF331A9C4203D801206C609C
:1021E000BDE8F081A41B6B603B682044AB60E860F5
:1021F0000220F5E72046F3E738B50C460546FFF721
:102200009FFFA04210D305F10C00FFF779FF0444B3
:102210006868BFF35B8FB4FBF0F100FB1144012051
:10222000EC60BFF35B8F38BD0020FCE72DE9FF4178
:102230008846694607466C46FFF7B6FF002506B29A
:1022400004EBC606B4420AD0626808EB05012068B8
:102250000834FFF79FFB54F8043C1D44F2E729467D
:102260003846FFF7C9FF284604B0BDE8F0810000FA
:10227000F8B505460C300F46FFF742FF05F108069A
:1022800004463046FFF73CFFA042304688BF6C68EA
:10229000FFF736FF201A386020B12C683046FFF770
:1022A0002FFF2044F8BD000073B5144606460D46C6
:1022B000FFF72CFF8442019028BF0446DCB101A93E
:1022C0003046FFF7D5FF019B33B93268C5E90233C9
:1022D000C5E9002401200CE09C42286038BF01942D
:1022E000019884426860F5D93368241A0220AB60F3
:1022F000EC6002B070BD2046FBE700002DE9FF4115
:102300000F4669466C46FFF7CFFF00B2002604EB8C
:10231000C005AC4209D0D4F80480B81954F8081BA1
:1023200042464644FFF736FBF3E7304604B0BDE8CB
:10233000F081000038B50546FFF7E0FF044601468E
:102340002846FFF717FF204638BD00007047000001
:1023500010B41346026814680022A4465DF8044BCA
:102360006047000000F5805090F859047047000065
:1023700000F5805090F852047047000000F580503E
:1023800090F95804704700004E207047302383F3C3
:10239000118800F58052D2F89C34D2F89804184481
:1023A000D2F894341844D2F87C341844D2F88C34DF
:1023B0001844D2F888341844002383F311887047F6
:1023C00000F58050C0F85414012070472DE9F04FFB
:1023D0000C4600F5805185B01F4691F852340546F1
:1023E0009046BDF838909BB1D1F878340133C1F8EC
:1023F00078342368980006D4237B082B0BD9627BA2
:102400000AB10F2B07D9D1F87C340133C1F87C34E1
:102410004FF0FF3010E0302383F31188EB6AD3F8DC
:10242000C42012F4001B0AD0D1F8803400200133FC
:10243000C1F8803480F3118805B0BDE8F08F2068C2
:102440004822D3F8C4300028C3F3044A6B6AB4BFEF
:1024500040F08040800412FB0A334FEA4A161860AD
:10246000226852004FEA0A6244BF40F000501860F0
:10247000207B42EA00425A60607B10B342F4401273
:102480005A60D1F8B0240132C1F8B024AA1902F57B
:102490008352117B41F020011173207B039300F0E4
:1024A000E3FF0330039B80105FFA8BF20BF1010B0B
:1024B00082420DDA04EB820103EB820249689160EB
:1024C000F2E7AA1902F58352117B60F34511E3E7A5
:1024D0000122EB6A05EB4A1102FA0AF201F5825178
:1024E000C3F8D020AB19183104F10C0203F5825364
:1024F000C3E90487234653F8040B934241F8040BC5
:10250000F9D11B882E440B8041F2680346F803A0E2
:1025100006F5805609F0030396F86C2043F010038B
:1025200022F01F02134386F86C30002383F31188D6
:1025300042463B4621462846CDF8009000F05AFF1F
:10254000012079E72DE9F04700F58056044696F81A
:102550005254002D40F00381037C032B40F0948003
:1025600028462B462F465FFA80FC944510DA01EB93
:10257000CC0E51F83CC0BCF1000F04DBDEF804C007
:10258000BCF1000F02DB01370130ECE70133FBE760
:10259000302080F31188E06AF3B9D0F8803043F03E
:1025A0000203C0F880304E23E06A002F6FD1D0F8CC
:1025B000803043F00103C0F880306A4B6A4A1B68E0
:1025C00003F1805303F52C539B009342A36240F226
:1025D000B080664800F0E6FE4D2B42D8DFF88481DB
:1025E0004FEA034EDFF88891D8F800C04EEA8C0E0F
:1025F000C0F884E00CF1805000F52C508000606140
:1026000003EB0C00D4F82CC0C3F14E03C8F8000053
:10261000DCF8800040F03000CCF880004FF0000C77
:10262000D4F81480E6465FFA8CF08242BCDD01EB00
:10263000C00A51F83000002810DBDAF804A0BAF123
:10264000000F0BDA09EA00400AF07F0A40EA0A00AC
:1026500040F0084048F82E000EF1010E0CF1010C7C
:10266000E1E7836923F00103836100F0A1FE0646E0
:10267000E36A9B69D90704D500F09AFE831BFA2B05
:10268000F6D9002383F311882846BDE8F087B7EB1D
:10269000530F3DD2DFF8CCE04FEA074CDEF80030B4
:1026A0004CEA830CC0F888C003F1805003EB470369
:1026B000002700F52C50CEF80030BC468000A06109
:1026C000E06AD0F8803043F00C03C0F88030D4F8D2
:1026D00018E0FBB29A427FF770AF51F8330001EB7C
:1026E000C3080028D8F8043001DB002B0EDB20F0F3
:1026F000604023F0604340F0005043F000434EF848
:102700003C000EEBCC000CF1010C43600137E0E71C
:10271000836923F00103836100F04AFE0646E36A01
:102720009B69DA07ADD500F043FE831BFA2BF6D97F
:10273000A7E7E26A936923F00103936100F038FE92
:102740000746E36A9B69DB0705D500F031FEC31B32
:10275000FA2BF6D995E7012586F8525491E7002522
:1027600092E700BF4C640020FCB50040987B000855
:102770000000FF0713B500F580540191606CFFF76E
:10278000DFFC1F280AD920220199606CFFF74EFD5B
:10279000A0F120035842584102B010BD0020FBE7D1
:1027A00008B5302383F3118800F58050406CFFF7A3
:1027B0009BFC002383F3118808BD00000022026007
:1027C00082814260826070470022002310B5C0E918
:1027D0000023002304460C3020F8043CFFF7EEFFF2
:1027E000204610BD2DE9F0479A4688B00746884636
:1027F0009146302383F3118807F580546846FFF72C
:10280000E3FF606CFFF782FC1F282ED92022694667
:10281000606CFFF78FFD202827D194F8523423B342
:1028200003AD444605AB2E46083403CE9E4244F821
:10283000080C44F8041C3546F5D130682060B38894
:10284000A380DDE90023C9E90023BDF80830AAF818
:102850000030002383F3118853464A4641463846E8
:1028600008B0BDE8F04700F0B3BD002080F3118848
:1028700008B0BDE8F08700002DE9F84F00230646B8
:1028800000F58154054688461034C0E90133274BD2
:1028900046F8303B374638462037FFF795FFA742CA
:1028A000F9D105F580544FF4805305F5A3594FF045
:1028B000000A26630026676405F5835709F11009AD
:1028C0004FF0000B1037E663C4E90D36012384F89E
:1028D000403084F84830A7F11800203747E910ABA2
:1028E000FFF76CFF47F8286C4F45F4D1B8F1010FA2
:1028F00084F85884A4F85A64A4F85C64A4F85E646C
:1029000084F86064A4F86264A4F86464A4F866645B
:1029100084F8686402D9064800F044FD054B284657
:1029200053F82830EB62BDE8F88F00BFE87B000861
:10293000BC7B0008D87B0008044B10B5197804460E
:102940004A1C1A70FFF798FF204610BD496400200A
:102950002DE9F04300295AD02E4E2F48B6FBF1F452
:1029600081428CBF0A201120431EB4FBF0F700FB0C
:102970001740DDB220B1022B1846F5D8002032E016
:102980007B1EB3F5806F2ED2C5EBC5084FF47A736A
:1029900008F103044FEAE40EC4F3C7040EF1010981
:1029A000281B0EFB033E5FFA80FC59FA80F0BEFB49
:1029B000F0F0B0F5617F18DC83B2601C5CFA80F047
:1029C0007843B6FBF0F08142D8D1611E0F29D5D8EB
:1029D0000CF1FF310729D1D80120138057801071E5
:1029E000547182F806C0BDE8F08308F1FF34E010AE
:1029F000C4F3C70400F1010E2D1B00FB03335FFA83
:102A000085FC5EFA85F5B3FBF5F39BB2D5E7084686
:102A1000E9E700BF00B4C4043F420F0030B50D4BDE
:102A200005200D4D1C786C438C420ED15978012045
:102A3000518099785171D9789171197911715B79B7
:102A400003EB83035B00138030BD013803F1060301
:102A5000E8D1F9E7287C000840420F0038B540F281
:102A60007772C36A154CC3F8BC200722C36AC3F847
:102A7000C8202268C16A930043F4C023C1F8A03083
:102A800002F1805302F16C01C56A03F52C53EA325E
:102A900089009B00226041F0E061094AC361C5F8EA
:102AA000C01003F5D87103F56A73416293428362E3
:102AB00002D9044800F076FC38BD00BF4C64002009
:102AC000FCB50040987B00082DE9F04F00F58055DB
:102AD0001F4689B0044695F8583489469046022B23
:102AE00004D90026304609B0BDE8F08FA84A52F854
:102AF000231009B942F82300A648C4F80C900178C5
:102B00002774C9B9302383F31188A34BD3F8EC2081
:102B100042F48072C3F8EC20D3F8942042F480721F
:102B2000C3F89420D3F8942022F48072C3F8942040
:102B30000123037081F3118895F851347BB9302358
:102B400083F31188954A95F85834D35C0BB3012B65
:102B500028D0012385F85134002383F311883023D2
:102B600083F31188E26A936923F01003936100F004
:102B70001FFC8246E36A9E6916F0080619D000F031
:102B800017FCA0EB0A03FA2BF4D9002686F3118870
:102B9000A8E70321132001F09DFF0321152001F078
:102BA00099FFD6E70321142001F094FF032116209A
:102BB000F5E79A6942F001029A6100F0F9FB82465A
:102BC000E36A9A69D00706D400F0F2FBA0EB0A038F
:102BD000FA2BF5D9D9E79A694FF0000A42F00202C0
:102BE0009A61E36AC3F854A08AF3118804F5825B02
:102BF000686CFFF779FA0BF1100B20220021684670
:102C0000FEF7EEFE02A8FFF7D9FD6A460BEB0603BE
:102C10000DF1180ECDF818A094460833BCE8030057
:102C2000F44543F8080C43F8041C6246F4D1DCF880
:102C3000000020361860B6F5806F9CF804201A71E9
:102C4000DBD1002304F5A252494620461A3285F80A
:102C5000503485F85334FFF77BFE064690B9E26A9C
:102C6000936923F00103936100F0A2FB0546E36A38
:102C70009B69D9077FF535AF00F09AFB431BFA2B10
:102C8000F5D92EE795F85E34C5F86C94591E95F881
:102C90005F34E26A013B1B0243EA416395F860142A
:102CA00001390B43B5F85C14013943EA0143D361A0
:102CB000B8F1000F36D004F5A35241462046023247
:102CC000FFF7ACFE90B9E26A936923F001039361C8
:102CD00000F06EFB0546E36A9B69DA077FF501AFFA
:102CE00000F066FB431BFA2BF5D9FAE695F867244A
:102CF000C5F87084511E95F86824E36A013A120100
:102D000042EA012295F8661401390A43B5F86414C1
:102D1000013942EA014242F40002DA604FF42062D3
:102D2000E36A9A64E36A4FF000082046C3F8BC8067
:102D3000FFF794FE85F859846FF04042E36A1A6504
:102D4000174AE36A5A654FF00222E36A9A654FF028
:102D5000FF32E36AC3F8E0200322E36A9742DA65B0
:102D60003FF4C0AEE26A936923F00103936100F07F
:102D70001FFB0746E36A9B69DB0705D500F018FBDC
:102D8000C31BFA2BF6D9ACE6012385F85234A9E629
:102D9000406400204864002000440258D07B0008B2
:102DA000550200022DE9F04F054689B0904699463C
:102DB000002741F2680A00F58056EB6AD3F8D83054
:102DC000FB40D80751D505EB47124FEA471B524449
:102DD0001379190749D4D6F884340133C6F88434FA
:102DE00005F5A553C3E9008913799A0605EB0B0293
:102DF00048BFD6F8B434524444BF0133C6F8B434A3
:102E0000137943F008031371DB0723D596F8533485
:102E100003B305F582546846FFF7D6FC03AB1834BC
:102E20005C4404F1080C2068083454F8041C1A4669
:102E3000644503C21346F6D12068694610602846EF
:102E4000A2889A800123ADF808302B68CDE900896B
:102E5000DB6B9847D6F8A834D6F854040133C6F88B
:102E6000A83410B103681B6998470137202FA4D1FB
:102E700009B0BDE8F08F00002DE9F04F0F468DB08E
:102E8000044600F097FA82468946002F5BD1E36A38
:102E9000D3F8A02012F4FE0F03D100200DB0BDE83E
:102EA000F08FD3F8A420920141BF04F58051D1F8EE
:102EB00098240132C1F89824D3F8A4205606ECD007
:102EC000D3F8A450E669C5F305254823E8464FF03A
:102ED000000B03FB05664046FFF770FC32685100AB
:102EE0004ABF22F06043C2F38A4343F0004392009A
:102EF00048BF43F080430093736813F400131BBF73
:102F0000012304F580528DF80D308DF80D301EBF71
:102F1000D2F8B8340133C2F8B834F38803F00F03A1
:102F20008DF80C309DF80C0000F09EFA5FFA8BF3E0
:102F3000984225D9F2180CA90BF1010B127A0B4417
:102F400003F82C2CEEE7012FA7D1E36AD3F8B020C9
:102F500012F4FE0FA1D0D3F8B420950141BF04F5BF
:102F60008051D1F898240132C1F89824D3F8B420C4
:102F7000500692D0D3F8B450266AC5F30525A4E7CD
:102F8000EFB9E36AC3F8A85004A807ADFFF71CFC2B
:102F900098E80F0007C52B800023204604A9ADF850
:102FA0001830236804F58054DB6BCDE904A99847F9
:102FB00058B1D4F890340133C4F890346EE7012F3F
:102FC000E2D1E36AC3F8B850DEE7D4F894340120C4
:102FD0000133C4F8943461E72DE9F04105460F460A
:102FE00000F58054012639462846FFF745FF10B109
:102FF00084F85364F7E7D4F8A834D4F854040133C0
:10300000C4F8A83420B10368BDE8F0411B69184733
:10301000BDE8F081C36AF0B51A6C12F47F0F2BD0B3
:103020001B6C00F5805441F268054FF0010CC4F8A8
:10303000AC340023471900EB43125E012A44117996
:1030400011F0020F15D0490713D4B959C66A0CFA0A
:1030500001F1D6F8CCE011EA0E0F0AD0C6F8D41070
:10306000117941F004011171D4F88C240132C4F8B3
:103070008C240133202BDED1F0BD00002B4B70B52A
:103080001E561B5C012B30D8294D2A4A55F8233097
:1030900052F8264013B349B3236D9A0510D54FF467
:1030A0000073236500F086F950EA01020B4602D056
:1030B000013861F10003024655F82600FFF772FE61
:1030C000236D9B012CD54FF0007255F826302265F8
:1030D00003F58053012283F8592421E0012323655D
:1030E000102323654FF48053236570BD236DDA07E9
:1030F00002D4236D5B0706D50523002155F8260071
:103100002365FFF769FF236DD80602D4236D5906A6
:1031100006D55023012155F826002365FFF75CFFF3
:1031200055F82600BDE87040FFF774BFD47B000857
:1031300040640020D87B000808B5302383F3118851
:10314000FFF768FF002383F3118808BDC36AD3F833
:10315000C00010F07C5005D0D3F8C40080F40010FB
:10316000C0F340507047000008B5302383F3118846
:1031700000F58050406CFEF7C9FF002383F31188EF
:1031800043090CBF0120002008BD000000F580535A
:1031900093F8592462B1C16A8A6922F001028A61F6
:1031A000D3F89C240132C3F89C24002283F85924CC
:1031B000704700002DE9F743302181F3118800F5B5
:1031C0008251002541F2680E4FF00108103100F5E0
:1031D000805C00EB45147444267977071CD4F6060E
:1031E0001AD58E69D0F82C9008FA06F6D9F8CC706A
:1031F0003E4211D04F6801970F689742019F9F414F
:103200000AD2C9F8D460267946F004062671DCF8A3
:1032100088440134CCF8884401352031202DD8D1A0
:10322000002383F3118803B0BDE8F083F8B51E4690
:1032300000230F46054613701446FFF795FF80F0F4
:10324000010038701EB12846FFF780FF2070F8BDDE
:103250002DE9F04F85B099460D468046164691F807
:1032600000B0DDE90EA302931378019300F0A2F8F9
:103270002B7804460F4613B93378002B41D02246F1
:103280003B464046FFF796FFFFF756FFFFF77EFFEE
:103290004B4632462946FFF7C9FF2B7833B1BBF1C5
:1032A000000F03D0012005B0BDE8F08F337813B1D3
:1032B000019B002BF6D108F5805303935445029BE4
:1032C00077EB03031DD2039BD3F85404C8B1036802
:1032D000AAEB04011B6898474B46324629464046F4
:1032E000FFF7A4FF2B7813B1BBF1000FDAD13378CD
:1032F00013B1019B002BD5D100F05CF804460F46BA
:10330000DCE70020CFE70000002108B50846FFF702
:10331000B5FEBDE8084001F06DB8000008B5012118
:103320000020FFF7ABFEBDE8084001F063B80000E5
:1033300008B500210120FFF7A1FEBDE8084001F01B
:1033400059B80000012108B50846FFF797FEBDE80F
:10335000084001F04FB8000000B59BB0EFF30981C1
:1033600068226846FEF716FBEFF30583014B9B6B63
:10337000FEE700BF00ED00E008B5FFF7EDFF00003D
:1033800000B59BB0EFF3098168226846FEF702FBA7
:10339000EFF30583014B5B6BFEE700BF00ED00E040
:1033A000FEE700000FB408B5029802F063FAFEE7EA
:1033B00002F0F8BE02F0DABE13B56C46031D84E8D5
:1033C000060094E8030083E80500012002B010BD68
:1033D00073B58568019155B11B885B0707D4D0E9A7
:1033E00000369B6B9847019AC1B23046A84701202E
:1033F00002B070BDF0B5866889B005460C465EB176
:10340000BDF838305B070AD4D0E900379B6B98478A
:103410002246C1B23846B047012009B0F0BD0022B3
:10342000002301F10806CDE9002300230A46ADF888
:10343000083003AB1068083252F8041C1C46B24234
:1034400003C42346F6D1106820609288A280FFF75B
:10345000B1FF0423ADF808302B68CDE90001DB6B28
:10346000694628469847D7E7082817D909280CD075
:103470000A280CD00B280CD00C280CD00D280CD00E
:103480000E2814BF4020302070470C2070471020B9
:1034900070471420704718207047202070470000A4
:1034A0002DE9F041456A15B94162BDE8F0814B68EC
:1034B000AC4623F06047C3F38A464FEAD37EC3F39A
:1034C000807816EA230638BF3E462B465A68BEEB84
:1034D000D27F22F060440AD0002A18DAA40CB44249
:1034E00017D19D420FD10D60DEE71346EEE7A742EC
:1034F00007D102F08044C2F3807242450BD054B130
:10350000EFE708D2EDE7CCF800100B60CDE7B4424E
:1035100001D0B442E5D81A689C46002AE5D119606A
:10352000C3E700002DE9F047089D01F0070400EB18
:10353000D1004FF47F494FEAD508224405F0070532
:10354000944201D1BDE8F08704F0070705F0070AAF
:10355000111B08EBD50E57453E4613F80EC038BF79
:103560005646C6F108068E4228BF0E46E108415C69
:1035700034443544B94029FA06F721FA0AF1FFB27A
:103580008CEA010147FA0AF739408CEA010C03F88A
:103590000EC0D5E780EA0120082341F2210201B2E2
:1035A000013B4000002980B2B8BF504013F0FF0338
:1035B000F5D1704738B50C468D18A54200D138BDFD
:1035C00014F8011BFFF7E6FFF7E7000042684AB175
:1035D000136881894360438901339BB299424381D7
:1035E00038BF83811046704770B588B004462022EA
:1035F0000D4668460021FEF7F3F920460495FFF7D3
:10360000E5FF024660B16B46054608AE1C4608352C
:1036100003CCB44245F8080C45F8041C2346F5D108
:10362000104608B070BD0000082817D909280CD032
:103630000A280CD00B280CD00C280CD00D280CD04C
:103640000E2814BF4020302070470C2070471020F7
:1036500070471420704718207047202070470000E2
:10366000082817D90C280CD910280CD914280CD9E3
:1036700018280CD920280CD930288CBF0F200E20F8
:103680007047092070470A2070470B2070470C20B4
:1036900070470D20704700002DE9F843078C044661
:1036A000072F1ED900254FF6FF73D0E90298C5F108
:1036B0002006A5F1200029FA05F1083508FA06F6DA
:1036C00028FA00F0314301431846C9B2FFF762FF00
:1036D000402D0346EBD13A46E169BDE8F843FFF7D8
:1036E00069BF4FF6FF70BDE8F883000010B54B6866
:1036F00023B9CA8A63F30902CA8210BD04691A6831
:103700001C600361C38A013BC3824A60EFE700008B
:103710002DE9F84F1D46CB8A0F468146C3F30901B8
:10372000924605290B4630D00020AAB207F11A04B0
:103730009EB21FFA80F8042E0FD8904503F10103C2
:1037400006D30A44FB8A62F309030120FB821AE0D4
:103750001AF800600130E654EAE79045F1D2A1F191
:10376000050B1C237C68BBFBF3F203FB12BB1FFAA7
:103770008BF6002C45D14846FFF728FF044638B9A0
:1037800078606FF00200BDE8F88F4FF00008E6E7C0
:10379000002606607860ADB24FF0000B454510D9A9
:1037A0000AEB0803221D13F8011B08F101089155CB
:1037B000B1B21FFA88F81B292BD0454506F1010646
:1037C000F1D8FB8AC3F30902154465F30903BCE78A
:1037D00001321C4692B22368002BF9D16B1F0B44B7
:1037E0001C21B3FBF1F301339BB29A42D3D2BBF15C
:1037F000000FD0D14846FFF7E9FE20B9C4F800B069
:10380000BFE70122E7E7C0F800B05E46206004464B
:10381000C1E74545D5D94846FFF7D8FE08B920602D
:10382000AFE7C0F800B0002620600446B6E700000D
:103830002DE9F04F1C46074688462DED028B83B0DC
:103840005B690192002B00F09A80238C2BB1E26916
:10385000002A00F09480072B35D807F10C00FFF701
:10386000B5FE054638B96FF00205284603B0BDEC39
:10387000028BBDE8F08F14220021FEF7B1F8228CF4
:10388000E16905F10800FEF785F8208C48F0004159
:10389000013080B2FFF7E4FEFFF7C6FE013880B2C8
:1038A00020840130287438466369228C1B782A44AE
:1038B00003F01F0363F03F03137269602946FFF7AB
:1038C000EFFD0125D1E74FF0000900F10C034FF0A7
:1038D000800A4E464D4608EE103A18EE100AFFF7E1
:1038E00075FE83460028BED014220021FEF778F82A
:1038F000002E3AD1019B0222ABF808300BF1080EE2
:103900001FFA82FC218C0CF10100BCF1060F80B281
:1039100001D88E422BD3FFF7A3FE8E4208BF4FF093
:10392000400AFFF781FE62690138013512781BFAFF
:1039300080F1013002F01F022DB242EA491289F0F3
:1039400001094AEA020A48F0004281F808A05946F3
:103950008BF810003846CBF804204FF0000AFFF730
:103960009FFD238CB342B8D17FE70022C6E7E1690F
:10397000895D01360EF80210B6B20132C0E76FF071
:10398000010572E7F8B515460E46302200210446BF
:103990001F46FEF725F8069BB5F5001FA76063607C
:1039A00004F11000079B34BF6A094FF6FF72E6610D
:1039B000A362002397B29A4206D800230360A7822D
:1039C000E3822383E360F8BD06600133304620368E
:1039D000F1E7000003781BB94BB2002BC8BF0170A0
:1039E0007047000000787047F8B50C46C969074673
:1039F00011B9238C002B37D1257E1F2D34D8387870
:103A000028BB228C072A2CD8268A36F003032BD118
:103A10004FF6FF70FFF7CEFD20F0010031024FF6A8
:103A2000FF72400441EA0561400C41EA402523460B
:103A300029463846FFF7FCFE002807DD6269137847
:103A40000133DBB21F2B88BF00231370F8BD218A1E
:103A50002D0645EA012505432046FFF71DFE0246D7
:103A6000E5E76FF00300F1E76FF00100EEE700001B
:103A700070B58AB0044616460021282268461D46C5
:103A8000FDF7AEFFBDF8383069462046ADF810307E
:103A90000F9B05939DF840308DF81830119B0793CC
:103AA000BDF84830CDE90265ADF82030FFF79CFF46
:103AB0000AB070BD2DE9F041D36905460C461646A3
:103AC0000BB9138C5BBB377E1F2F28D895F800806D
:103AD000B8F1000F26D03046FFF7DEFD3378210223
:103AE0000246284641EAC331338A41EA080141EAE5
:103AF000076141EA0341334641F08001FFF798FE38
:103B000000280ADD3378012B07D17269137801335D
:103B1000DBB21F2B88BF00231370BDE8F0816FF06C
:103B20000100FAE76FF00300F7E70000F0B58BB093
:103B300004460D4617460021282268461E46FDF71A
:103B40004FFF9DF84C30294620465A1E53425341A0
:103B50006A468DF800309DF84030ADF81030119B6A
:103B600005939DF848308DF81830149B0793BDF8E5
:103B70005430CDE90276ADF82030FFF79BFF0BB053
:103B8000F0BD0000406A00B104307047436A1A6813
:103B9000426202691A600361C38A013BC3827047B3
:103BA0002DE9F041D0F8208014461D46184E4146BC
:103BB000002709B9BDE8F081D1E90223A21A65EB1B
:103BC0000303964277EB03031ED2036A8B420DD1A7
:103BD000FFF78CFD036A1B68036203690B60C38AED
:103BE0000161013B016AC3828846E2E7FFF77EFD7F
:103BF0000B68C8F8003003690B60C38A0161013BA0
:103C0000C382D8F80010D4E788460968D1E700BF1E
:103C100080841E002DE9F04F8BB00D4614469B4664
:103C2000DDF850908046002800F01881B9F1000FAF
:103C300000F01481531E3F2B00F21081012A03D1A2
:103C4000BBF1000F40F00A810023CDE90833B8F83A
:103C50001430B5EBC30F4FEAC30703D300200BB0FA
:103C6000BDE8F08F2B199F42D8F80C3036BF7F1B70
:103C70002746FFB21BB9D8F81030002B7AD0272D79
:103C80004DD8C5F1280600232946B742009308AB5A
:103C9000D8F808002CBFF6B23E46A7EB060A35441A
:103CA00032465FFA8AFAFFF73DFCB8F81430282153
:103CB00003F10053053BDB000493D8F80C30039369
:103CC000039B13B1BAF1000F2CD1D8F8100040B10A
:103CD000BAF1000F05D008AB5246691A0096FFF7FB
:103CE00021FC38B2002FB9D066070AD00AAB624275
:103CF00003EBD40102F0070211F8083C134101F86C
:103D0000083C082C3DD9102C40F2B580202C40F204
:103D1000B780BBF1000F00F09C80082335E0BA4665
:103D20000026C2E7049BE02B28BFE02306930B4448
:103D3000AB42059315D95A1B0398691A0096924510
:103D400008AB00F1040034BF5246D2B20792FFF72D
:103D5000E9FB079A1644AAEB020A1544F6B25FFA89
:103D60008AFA049B069A05999B1A0493039B1B6885
:103D70000393A5E700933A4608AB2946D8F8080014
:103D8000ADE7BBF1000F13D00123B4EBC30F6BD031
:103D9000082C12D89DF82030621E23FA02F2D507B3
:103DA00006D54FF0FF3202FA04F423438DF8203099
:103DB0009DF8203089F8003051E7102C12D8BDF85A
:103DC0002030621E23FA02F2D10706D54FF0FF32EF
:103DD00002FA04F42343ADF82030BDF82030A9F8EE
:103DE00000303CE7202C0FD80899631E21FA03F31A
:103DF000DA0705D54FF0FF3202FA04F40C430894B9
:103E0000089BC9F800302AE7402C2AD0611EC4F173
:103E10002102A4F12103DDE9086526FA01F105FA82
:103E200002F225FA03F311431943CB0711D50122FE
:103E3000A4F12003C4F1200102FA03F322FA01F1F4
:103E4000A2400B43524263EB430332432B43CDE981
:103E50000823DDE90823C9E9002300E76FF001002A
:103E6000FDE66FF00800FAE6082CA1D9102CB4D9B1
:103E7000202CEED8C4E7BBF1000FAED0022384E7BC
:103E8000BBF1000FBCD004237FE70000012A30B54E
:103E9000144638BF012485B00025402C28BF40249B
:103EA000012ACDE9025518D81B788DF80830630730
:103EB0000AD004AB624203EBD40502F0070215F806
:103EC000083C934005F8083C034600912246002137
:103ED00002A8FFF727FB05B030BD082AE4D9102A55
:103EE00003D81B88ADF80830E1E7202A95BF1B688E
:103EF000D3E900230293CDE90223D8E710B5CB68BC
:103F00001BB98B600B618B8210BD04691A681C6041
:103F10000361C38A013BC382CA60F0E703064CBF5A
:103F2000C0F3C0300220704708B50246FFF7F6FF25
:103F3000022806D15306C2F30F2001D100F003007E
:103F400008BDC2F30740FBE72DE9F04F93B00446EC
:103F50000D46CDE903230A681046FFF7DFFF02286C
:103F6000824614BFC2F306260026002A80F2F3819F
:103F700012F0C04940F0EF81097B002900F0EB818D
:103F8000022803D02378B34240F0E881C2F30463EF
:103F900010462944069302F07F030593FFF7C4FF00
:103FA000059B002283464FEA8348002348EA0A48DB
:103FB00048EA4668CE78CDE90823F30948EA0008C4
:103FC000029368D0059B024608A9204600935346F9
:103FD0006768B847002800F0C481276A4FB9414696
:103FE00004F10C00FFF700FB074690B96FF00200E8
:103FF00055E03B6998450DD03F68002FF9D1414607
:1040000004F10C00FFF7F0FA07460028EED0236A0F
:104010003B60276297F817C006F01F08CCF3840CAA
:10402000ACEB0800A8EB0C031FFA80FE0028B8BF19
:104030000EF120001FFA83FEB8BF00B2002B0793D9
:10404000B8BF0EF12003D7E90221BCBF1BB2079312
:1040500052EA010338D0039B4FF0000CDFF820E355
:104060009A1A049B63EB010196457CEB01032BD369
:104070006B7B97F81AE0734519D1029B002B78D01F
:10408000012821DC7868F8B9DFF8F0C2944570EBBC
:10409000010316D337E0276A27B96FF00C0013B07D
:1040A000BDE8F08F3B699845B4D03F68F4E7B3486A
:1040B00090427CEB010301D30020F0E7029B002B30
:1040C000FAD0079B0F2B17DCFA7DB3003946204648
:1040D00002F0030203F07C031343FB75FFF706FBBA
:1040E0006B7BBB76029B3BB9FB7DC3F38402013241
:1040F00062F38603FB75D0E76A7BBB7E9A42DBD115
:10410000029B002B35D0B309022B32D0039B142223
:1041100000210DA8BB60049BFB60FDF761FC039BC5
:104120000AA920460A93049BADF83EB00B932B1DC1
:104130008DF840A00C932B7B8DF84180013BDBB2C6
:10414000ADF83C30069B8DF84230059B8DF843302E
:1041500094F82C3083F001038DF84430A36898471D
:10416000FB7DC3F38403013303F01F039B02FB8237
:10417000A2E7FB7DC6F34012B2EBD31F40F0F48000
:10418000C3F38403434540F0F280029AB6092B7BC7
:10419000002A4DD0F2075DD4032B40F2EB80039B45
:1041A000AE1D394604F10C00BB603246049BFB6037
:1041B0002B7B033BDBB2FFF7ABFA00280CDA394666
:1041C0002046FFF793FAFB7DC3F38403013303F02A
:1041D0001F039B02FB8209E7AB88DDE908843B8370
:1041E0004FF6FF73C9F12000A9F1200228FA09F166
:1041F00009F1080904FA00F024FA02F20143184612
:104200001143C9B2FFF7C6F9B9F1400F0346E9D12E
:10421000B88231462A7B033AD2B2FFF7CBF9FB7D55
:10422000B882DA43C2F3C01262F3C713FB7543E7E7
:1042300086B92E1D013B394604F10C00DBB2324633
:10424000FFF766FA0028BADB2A7B3146B88A013AC2
:10425000D2B2E2E7F98A013BC1F30901DAB20429DB
:104260005BD8281D002307F11B069A4208D910F8D5
:1042700001CB013306F801C00131DBB20529F4D1CD
:10428000039993420A9138BF043304992CBF002349
:1042900055FA83F30B9107F11B010C9179680E938A
:1042A0000D91291DFB8AADF83EB0C3F309038DF8CB
:1042B00040A08DF841801A44069B8DF84230059B42
:1042C000ADF83C208DF8433094F82C3083F0010396
:1042D0008DF844300023B88A7B602A7B013AFFF7CF
:1042E00069F93B8BB882834203D1A3680AA92046AF
:1042F000984720460AA9FFF701FEFB7DBA8AC3F35F
:104300008403013303F01F039B02FB823B8B9A4221
:104310000CBF00206FF01000C1E67B68002BAFD00F
:10432000052001E01C3033461E68002EFAD1091A20
:104330002E1D081D184401EB090C5FFA89F3BCF12E
:104340001B0F9DD89A429BD916F8013B09F1010930
:1043500000F8013BEFE76FF00900A0E66FF00A00FC
:104360009DE66FF00B009AE66FF00D0097E66FF098
:104370000E0094E66FF00F0091E600BF40420F0080
:1043800080841E00EFF30983054968334A6B22F0ED
:1043900001024A6383F30988002383F3118870477D
:1043A00000EF00E0302080F3118862B60D4B0E4A1A
:1043B000D96821F4E0610904090C0A430B49DA6069
:1043C000D3F8FC2042F08072C3F8FC20084AC2F8FF
:1043D000B01F116841F0010111602022DA7783F8E3
:1043E0002200704700ED00E00003FA0555CEACC591
:1043F000001000E0302310B583F311880E4B5B688A
:1044000013F4006314D0F1EE103AEFF309844FF087
:104410008073683CE361094BDB6B236684F3098896
:1044200001F0F2F910B1064BA36110BD054BFBE79B
:1044300083F31188F9E700BF00ED00E000EF00E032
:104440003F0400084204000808B5074B074A1968F2
:1044500001F03D01996053680BB190689847BDE841
:104460000840FFF7C7BF00BF0000024054640020AF
:1044700008B5084B1968890901F03D018A019A6065
:10448000054AD3680BB110699847BDE80840FFF7AB
:10449000B1BF00BF000002405464002008B5084BC3
:1044A0001968090C01F03D010A049A60054A536934
:1044B0000BB190699847BDE80840FFF79BBF00BF6C
:1044C000000002405464002008B5084B1968890DAB
:1044D00001F03D018A059A60054AD3690BB1106A63
:1044E0009847BDE80840FFF785BF00BF00000240C5
:1044F0005464002008B5074B074A596801F03D0194
:10450000D960536A0BB1906A9847BDE80840FFF73D
:1045100071BF00BF000002405464002008B5084B82
:104520005968890901F03D018A01DA60054AD36AB8
:104530000BB1106B9847BDE80840FFF75BBF00BFA9
:10454000000002405464002008B5084B5968090C6B
:1045500001F03D010A04DA60054A536B0BB1906B20
:104560009847BDE80840FFF745BF00BF0000024084
:104570005464002008B5084B5968890D01F03D01CD
:104580008A05DA60054AD36B0BB1106C9847BDE819
:104590000840FFF72FBF00BF000002405464002016
:1045A00008B5074B074A196801F03D019960536C43
:1045B0000BB1906C9847BDE80840FFF71BBF00BFE8
:1045C000000402405464002008B5084B19688909AA
:1045D00001F03D018A019A60054AD36C0BB1106D60
:1045E0009847BDE80840FFF705BF00BF0004024040
:1045F0005464002008B5084B1968090C01F03D010E
:104600000A049A60054A536D0BB1906D9847BDE856
:104610000840FFF7EFBE00BF0004024054640020D2
:1046200008B5084B1968890D01F03D018A059A60AB
:10463000054AD36D0BB1106E9847BDE80840FFF7EF
:10464000D9BE00BF000402405464002008B5074BE7
:10465000074A596801F03D01D960536E0BB1906E65
:104660009847BDE80840FFF7C5BE00BF0004024000
:104670005464002008B5084B5968890901F03D01D0
:104680008A01DA60054AD36E0BB1106F9847BDE816
:104690000840FFF7AFBE00BF000402405464002092
:1046A00008B5084B5968090C01F03D010A04DA60AD
:1046B000054A536F0BB1906F9847BDE80840FFF76C
:1046C00099BE00BF000402405464002008B5084BA6
:1046D0005968890D01F03D018A05DA60054AD36FFA
:1046E00013B1D2F880009847BDE80840FFF782BEBA
:1046F000000402405464002000230C4910B51A46FF
:104700000B4C0B6054F82300026001EB43000433B0
:104710004260402BF6D1074A4FF0FF339360D360DD
:10472000C2F80834C2F80C3410BD00BF5464002035
:10473000487C0008000002400F28F8B510D9102866
:1047400010D0112811D0122808D10F240720DFF82B
:10475000C8E00126DEF80050A04208D9002653E048
:104760000446F4E70F240020F1E70724FBE706FAEC
:1047700000F73D424AD1264C4FEA001C3D4304EB72
:1047800000160EEBC000CEF80050C0E90123FBB2CA
:1047900073B12048D0F8D83043F00103C0F8D830C6
:1047A000D0F8003143F00103C0F80031D0F80031F7
:1047B00017F47F4F0ED01748D0F8D83043F00203DB
:1047C000C0F8D830D0F8003143F00203C0F800310F
:1047D000D0F8003154F80C00036823F01F03036085
:1047E000056815F00105FBD104EB0C033D2493F89B
:1047F0000CC05F6804FA0CF43C602124056044613D
:1048000012B1987B00F066F93046F8BD0130A3E79D
:10481000487C0008004402585464002010B530243D
:1048200084F31188FFF788FF002383F3118810BDFC
:1048300010B50446807B00F063F901231549627BC3
:1048400003FA02F20B6823EA0203DAB20B6072B9D0
:10485000114AD2F8D81021F00101C2F8D810D2F8CC
:10486000001121F00101C2F80011D2F8002113F467
:104870007F4F0ED1084BD3F8D82022F00202C3F8A4
:10488000D820D3F8002122F00202C3F80021D3F887
:10489000003110BD546400200044025808B5302394
:1048A00083F31188FFF7C4FF002383F3118808BD49
:1048B000026843681143016003B118477047000064
:1048C000024A136843F0C003136070470078004049
:1048D00013B50E4C204600F0BDFA04F1140000237D
:1048E0004FF400720A49009400F07AF9094B4FF432
:1048F0000072094904F13800009400F0F3F9074A06
:10490000074BC4E9172302B010BD00BFD8640020D4
:1049100044650020C148000844670020007800403A
:1049200000E1F505037C30B5244C002918BF0C4686
:10493000012B11D1224B98420ED1224BD3F8E82003
:1049400042F08042C3F8E820D3F8102142F08042C0
:10495000C3F81021D3F810312268036EC16D03EB48
:1049600052038466B3FBF2F36268150442BF23F07E
:10497000070503F0070343EA4503CB60A36843F050
:1049800040034B60E36843F001038B6042F496738D
:1049900043F001030B604FF0FF330B62510505D567
:1049A00012F0102205D0B2F1805F04D080F864309C
:1049B00030BD7F23FAE73F23F8E700BF487D0008BA
:1049C000D8640020004402582DE9F047C66D054622
:1049D0003768F469210734621AD014F0080118BF4F
:1049E0004FF48071E20748BF41F02001A3074FF068
:1049F000300348BF41F04001600748BF41F08001EB
:104A000083F31188281DFFF753FF002383F31188D8
:104A1000E2050AD5302383F311884FF48061281D05
:104A2000FFF746FF002383F311884FF030094FF062
:104A3000000A14F0200838D13B0616D54FF0300993
:104A400005F1380A200610D589F31188504600F088
:104A50007DF9002836DA0821281DFFF729FF27F005
:104A600080033360002383F31188790614D562062E
:104A700012D5302383F31188D5E913239A4208D144
:104A80002B6C33B127F040071021281DFFF710FFD2
:104A90003760002383F31188E30618D5AA6E1369E3
:104AA000ABB15069BDE8F047184789F31188736AC4
:104AB000284695F86410194000F0E6F98AF3118849
:104AC000F469B6E7B06288F31188F469BAE7BDE823
:104AD000F0870000090100F16043012203F5614302
:104AE000C9B283F8001300F01F039A4043099B00EA
:104AF00003F1604303F56143C3F880211A607047F6
:104B000000F01F0301229A40430900F160409B001E
:104B100000F5614003F1604303F56143C3F8802071
:104B2000C3F88021002380F800337047F8B515469C
:104B3000826804460B46AA4200D28568A1692669AC
:104B4000761AB5420BD218462A46FCF723FFA36912
:104B50002B44A3612846A3685B1BA360F8BD0CD956
:104B6000AF1B18463246FCF715FF3A46E168304461
:104B7000FCF710FFE3683B44EBE718462A46FCF7D6
:104B800009FFE368E5E7000083689342F7B5044650
:104B9000154600D28568D4E90460361AB5420BD2B6
:104BA0002A46FCF7F7FE63692B4463612846A36835
:104BB0005B1BA36003B0F0BD0DD93246AF1B019162
:104BC000FCF7E8FE01993A46E0683144FCF7E2FE62
:104BD000E3683B44E9E72A46FCF7DCFEE368E4E7E8
:104BE00010B50A440024C361029B8460C160026165
:104BF0000362C0E90000C0E9051110BD08B5D0E9A5
:104C00000532934201D1826882B9826801328260A2
:104C10005A1C426119700021D0E904329A4224BF23
:104C2000C368436100F09CFE002008BD4FF0FF30D8
:104C3000FBE7000070B5302304460E4683F311886D
:104C4000A568A5B1A368A269013BA360531CA36139
:104C500015782269934224BFE368A361E3690BB12D
:104C600020469847002383F31188284607E0314601
:104C7000204600F065FE0028E2DA85F3118870BD59
:104C80002DE9F74F04460E4617469846D0F81C907B
:104C90004FF0300A8AF311884FF0000B154665B1CA
:104CA0002A4631462046FFF741FF034660B9414698
:104CB000204600F045FE0028F1D0002383F3118840
:104CC000781B03B0BDE8F08FB9F1000F03D001905D
:104CD0002046C847019B8BF31188ED1A1E448AF3C6
:104CE0001188DCE7C160C361009B82600362C0E998
:104CF00005111144C0E9000001617047F8B5044690
:104D00000D461646302383F31188A768A7B1A36820
:104D1000013BA36063695A1C62611D70D4E90432CF
:104D20009A4224BFE3686361E3690BB12046984768
:104D3000002080F3118807E03146204600F000FE95
:104D40000028E2DA87F31188F8BD0000D0E90523D6
:104D500010B59A4201D182687AB982680021013285
:104D600082605A1C82611C7803699A4224BFC3681E
:104D7000836100F0F5FD204610BD4FF0FF30FBE7EA
:104D80002DE9F74F04460E4617469846D0F81C907A
:104D90004FF0300A8AF311884FF0000B154665B1C9
:104DA0002A4631462046FFF7EFFE034660B94146EA
:104DB000204600F0C5FD0028F1D0002383F31188C0
:104DC000781B03B0BDE8F08FB9F1000F03D001905C
:104DD0002046C847019B8BF31188ED1A1E448AF3C5
:104DE0001188DCE7026843681143016003B118478A
:104DF000704700001430FFF743BF00004FF0FF334F
:104E00001430FFF73DBF00003830FFF7B9BF000096
:104E10004FF0FF333830FFF7B3BF00001430FFF717
:104E200009BF00004FF0FF311430FFF703BF00004F
:104E30003830FFF763BF00004FF0FF323830FFF724
:104E40005DBF0000012914BF6FF013000020704700
:104E5000FFF73EBD044B036000234360C0E902330B
:104E600001230374704700BF607D000810B5302334
:104E7000044683F31188FFF755FD022300202374B5
:104E800080F3118810BD000038B5C36904460D4693
:104E90001BB904210844FFF7A5FF294604F11400BB
:104EA000FFF7ACFE002806DA201D4FF40061BDE8D4
:104EB0003840FFF797BF38BD02684368114301606F
:104EC00003B118477047000013B5406B00F58054DC
:104ED000D4F8A4381A681178042914D1017C022965
:104EE00011D11979012312898B4013420BD101A9E9
:104EF0004C3002F0F7F8D4F8A4480246019B21791F
:104F0000206800F0DFF902B010BD0000143002F09C
:104F100079B800004FF0FF33143002F073B800008E
:104F20004C3002F04BB900004FF0FF334C3002F030
:104F300045B90000143002F047B800004FF0FF31CF
:104F4000143002F041B800004C3002F017B90000F4
:104F50004FF0FF324C3002F011B9000000207047D2
:104F600010B500F58054D4F8A4381A6811780429D3
:104F700017D1017C022914D15979012352898B4020
:104F800013420ED1143001F0D9FF024648B1D4F8D3
:104F9000A4484FF4407361792068BDE8104000F0E8
:104FA0007FB910BD406BFFF7DBBF0000704700000A
:104FB0007FB5124B012504260446036000230574C7
:104FC00000F1840243602946C0E902330C4B029091
:104FD000143001934FF44073009601F08BFF094B9E
:104FE00004F69442294604F14C000294CDE9006392
:104FF0004FF4407302F052F804B070BD887D000891
:10500000A54F0008C94E00080A68302383F31188B1
:105010000B790B3342F823004B79133342F823000A
:105020008B7913B10B3342F8230000F58053C3F89A
:10503000A41802230374002080F311887047000035
:1050400038B5037F044613B190F85430ABB901254D
:10505000201D0221FFF730FF04F114006FF0010161
:10506000257700F089FC04F14C0084F854506FF06F
:105070000101BDE8384000F07FBC38BD10B501210A
:1050800004460430FFF718FF0023237784F85430D8
:1050900010BD000038B504460025143001F042FF71
:1050A00004F14C00257702F011F8201D84F85450CB
:1050B0000121FFF701FF2046BDE83840FFF750BF50
:1050C00090F8803003F06003202B06D190F8812007
:1050D0000023212A03D81F2A06D800207047222A3D
:1050E000FBD1C0E91D3303E0034A42670722826710
:1050F000C3670120704700BF3C23002037B500F58F
:105100008055D5F8A4381A68117804291AD1017C81
:10511000022917D11979012312898B40134211D129
:1051200000F14C04204602F091F858B101A9204644
:1051300001F0D8FFD5F8A4480246019B21792068E8
:1051400000F0C0F803B030BD01F10B03F0B550F82A
:10515000236085B004460D46FEB1302383F31188E9
:1051600004EB8507301D0821FFF7A6FEFB6806F15A
:105170004C005B691B681BB1019001F0C1FF0198F5
:1051800003A901F0AFFF024648B1039B2946204620
:1051900000F098F8002383F3118805B0F0BDFB6898
:1051A0005A691268002AF5D01B8A013B1340F1D1DD
:1051B00004F18002EAE70000133138B550F82140CD
:1051C000ECB1302383F3118804F58053D3F8A4287D
:1051D0001368527903EB8203DB689B695D6845B114
:1051E00004216018FFF768FE294604F1140001F05D
:1051F000AFFE2046FFF7B4FE002383F3118838BDCD
:105200007047000001F07CB901234022002110B555
:10521000044600F8303BFCF7E3FB0023C4E901330C
:1052200010BD000010B53023044683F311882422FA
:10523000416000210C30FCF7D3FB204601F082F9DD
:1052400002230020237080F3118810BD70B500EB9D
:105250008103054650690E461446DA6018B11022E3
:105260000021FCF7BDFBA06918B110220021FCF75A
:10527000B7FB31462846BDE8704001F069BA00002E
:1052800083682022002103F0011310B504468360D7
:105290001030FCF7A5FB2046BDE8104001F0E4BA51
:1052A000F0B4012500EB810447898D40E4683D435B
:1052B000A469458123600023A2606360F0BC01F013
:1052C00001BB0000F0B4012500EB810407898D408B
:1052D000E4683D436469058123600023A260636044
:1052E000F0BC01F077BB000070B502230025044636
:1052F000242203702946C0F888500C3040F8045C22
:10530000FCF76EFB204684F8705001F0B5F9636835
:105310001B6823B129462046BDE87040184770BD80
:105320000378052B10B504460AD080F88C3005238D
:10533000037043681B680BB1042198470023A360E6
:1053400010BD00000178052906D190F88C20436833
:1053500002701B6803B118477047000070B590F8E1
:105360007030044613B1002380F8703004F18002DD
:10537000204601F09DFA63689B68B3B994F88030C9
:1053800013F0600535D00021204601F08FFD00218B
:10539000204601F07FFD63681B6813B1062120469B
:1053A0009847062384F8703070BD2046984700283F
:1053B000E4D0B4F88630A26F9A4288BFA36794F90C
:1053C0008030A56F002B4FF0300380F20381002D59
:1053D00000F0F280092284F8702083F31188002104
:1053E0002046D4E91D23FFF76DFF002383F31188C6
:1053F000DAE794F8812003F07F0343EA022340F2C6
:105400000232934200F0C58021D8B3F5807F48D0A6
:105410000DD8012B3FD0022B00F09380002BB2D18E
:1054200004F1880262670222A267E367C1E7B3F56D
:10543000817F00F09B80B3F5407FA4D194F8823047
:10544000012BA0D1B4F8883043F0020332E0B3F569
:10545000006F4DD017D8B3F5A06F31D0A3F5C0635E
:10546000012B90D86368204694F882205E6894F8F7
:105470008310B4F88430B047002884D04368636751
:105480000368A3671AE0B3F5106F36D040F6024206
:1054900093427FF478AF5C4B63670223A3670023DA
:1054A000C3E794F88230012B7FF46DAFB4F88830F5
:1054B00023F00203A4F88830C4E91D55E56778E7B6
:1054C000B4F88030B3F5A06F0ED194F88230204646
:1054D00084F88A3001F02EF963681B6813B101214A
:1054E00020469847032323700023C4E91D339CE71B
:1054F00004F18B0363670123C3E72378042B10D1E6
:10550000302383F311882046FFF7BAFE85F3118814
:105510000321636884F88B5021701B680BB120460F
:10552000984794F88230002BDED084F88B30042327
:10553000237063681B68002BD6D002212046984751
:10554000D2E794F8843020461D0603F00F010AD5F7
:1055500001F0A0F9012804D002287FF414AF2B4BEE
:105560009AE72B4B98E701F087F9F3E794F882303C
:10557000002B7FF408AF94F8843013F00F01B3D000
:105580001A06204602D501F0A9FCADE701F09AFC0D
:10559000AAE794F88230002B7FF4F5AE94F88430BB
:1055A00013F00F01A0D01B06204602D501F07EFCAF
:1055B0009AE701F06FFC97E7142284F8702083F3D8
:1055C00011882B462A4629462046FFF769FE85F3B7
:1055D0001188E9E65DB1152284F8702083F3118803
:1055E00000212046D4E91D23FFF75AFEFDE60B22D9
:1055F00084F8702083F311882B462A4629462046DA
:10560000FFF760FEE3E700BFB87D0008B07D00084B
:10561000B47D000838B590F870300446002B3ED0B9
:10562000063BDAB20F2A34D80F2B32D8DFE803F06A
:10563000373131082232313131313131313137377F
:10564000856FB0F886309D4214D2C3681B8AB5FBC3
:10565000F3F203FB12556DB9302383F311882B4607
:105660002A462946FFF72EFE85F311880A2384F87F
:1056700070300EE0142384F87030302383F31188E7
:10568000002320461A461946FFF70AFE002383F33B
:10569000118838BDC36F03B198470023E7E70021A5
:1056A000204601F003FC0021204601F0F3FB636873
:1056B0001B6813B10621204698470623D7E7000050
:1056C00010B590F870300446142B29D017D8062B4B
:1056D00005D001D81BB110BD093B022BFBD800211E
:1056E000204601F0E3FB0021204601F0D3FB636874
:1056F0001B6813B1062120469847062319E0152B95
:10570000E9D10B2380F87030302383F31188002314
:105710001A461946FFF7D6FD002383F31188DAE70E
:10572000C3689B695B68002BD5D1C36F03B19847F1
:10573000002384F87030CEE7002382680375036984
:105740001B6899689142FBD25A68036042601060FE
:105750005860704700238268037503691B68996865
:105760009142FBD85A6803604260106058607047ED
:1057700008B50846302383F311880B7D032B05D031
:10578000042B0DD02BB983F3118808BD8B6900223F
:105790001A604FF0FF338361FFF7CEFF0023F2E77B
:1057A000D1E9003213605A60F3E70000FFF7C4BF8D
:1057B000054BD96808751868026853601A600122A1
:1057C000D8600275FAF726BE486900200C4B30B548
:1057D000DD684B1C87B004460FD02B46094A68464B
:1057E00000F05EF92046FFF7E3FF009B13B1684627
:1057F00000F060F9A86907B030BDFFF7D9FFF9E7FD
:105800004869002071570008044B1A68DB689068EB
:105810009B68984294BF002001207047486900208F
:10582000084B10B51C68D868226853601A600122C2
:10583000DC602275FFF78EFF01462046BDE8104070
:10584000FAF7E8BD4869002038B5074C0123002568
:10585000064907482370656001F036FD0223237076
:1058600085F3118838BD00BFB06B0020C07D0008F3
:105870004869002008B572B6044B186500F064FC56
:1058800000F02AFD024B03221A70FEE7486900204F
:10589000B06B002000F044B9034A516853685B1AAA
:1058A0009842FBD8704700BF001000E08B600223D5
:1058B000086108468B8270478368A3F1840243F82D
:1058C000142C026943F8442C426943F8402C094ADD
:1058D00043F8242CC268A3F1200043F8182C0222BC
:1058E00003F80C2C002203F80B2C034A43F8102C6D
:1058F000704700BF2D0400084869002008B5FFF775
:10590000DBFFBDE80840FFF751BF0000024BDB683A
:1059100098610F20FFF74CBF48690020302383F3C4
:105920001188FFF7F3BF000008B50146302383F369
:1059300011880820FFF74AFF002383F3118808BD70
:10594000064BDB6839B1426818605A6013604360E7
:105950000420FFF73BBF4FF0FF307047486900203D
:105960000368984206D01A68026050601846996130
:10597000FFF71CBF7047000038B504460D4620688D
:10598000844200D138BD036823605C608561FFF705
:105990000DFFF4E7036810B59C68A2420CD85C6860
:1059A0008A600B604C602160596099688A1A9A601D
:1059B0004FF0FF33836010BD121B1B68ECE7000043
:1059C0000A2938BF0A2170B504460D460A26601917
:1059D00001F072FC01F05AFC041BA54203D8751CAF
:1059E00004462E46F3E70A2E04D90120BDE8704094
:1059F00001F0AABC70BD0000F8B5144B0D460A2A90
:105A00004FF00A07D96103F11001826038BF0A2202
:105A1000416019691446016048601861A81801F0D6
:105A20003BFC01F033FC431B0646A34206D37C1C1F
:105A300028192746354601F03FFCF2E70A2F04D922
:105A40000120BDE8F84001F07FBCF8BD48690020A6
:105A5000F8B506460D4601F019FC0F4A134653F8F7
:105A6000107F9F4206D12A4601463046BDE8F840E5
:105A7000FFF7C2BFD169BB68441A2C1928BF2C4656
:105A8000A34202D92946FFF79BFF2246314603482D
:105A9000BDE8F840FFF77EBF486900205869002044
:105AA000C0E90323002310B45DF8044B4361FFF702
:105AB000CFBF000010B5194C236998420DD0816802
:105AC000D0E9003213605A609A680A449A60002351
:105AD00003604FF0FF33A36110BD0268234643F813
:105AE000102F53600022026022699A4203D1BDE860
:105AF000104001F0DBBB936881680B44936001F0B8
:105B0000C5FB2269E1699268441AA242E4D91144B2
:105B1000BDE81040091AFFF753BF00BF48690020D5
:105B20002DE9F047DFF8BC8008F110072C4ED8F8BB
:105B3000105001F0ABFBD8F81C40AA68031B9A4236
:105B40003ED814444FF00009D5E90032C8F81C4093
:105B500013605A60C5F80090D8F81030B34201D1F4
:105B600001F0A4FB89F31188D5E903312846984751
:105B7000302383F311886B69002BD8D001F086FBAA
:105B80006A69A0EB040982464A450DD2022001F061
:105B9000DBFB0022D8F81030B34208D1514628462A
:105BA000BDE8F047FFF728BF121A2244F2E712EBD4
:105BB00009092946384638BF4A46FFF7EBFEB5E7E4
:105BC000D8F81030B34208D01444C8F81C00211A89
:105BD000A960BDE8F047FFF7F3BEBDE8F08700BF5E
:105BE000586900204869002038B501F04FFB054A8C
:105BF000D2E90845031B181945F10001C2E9080163
:105C000038BD00BF4869002000207047FEE7000053
:105C1000704700004FF0FF307047000002290CD0A1
:105C2000032904D00129074818BF00207047032A20
:105C300005D8054800EBC2007047044870470020B3
:105C4000704700BF987E00084C2300204C7E00085F
:105C500070B59AB005460846144601A900F0C2F88E
:105C600001A8FBF7B5FE431C0022C6B25B0010463C
:105C7000C5E9003423700323023404F8013C01AB6E
:105C8000D1B202348E4201D81AB070BD13F8011B94
:105C9000013204F8010C04F8021CF1E708B53023C6
:105CA00083F311880348FFF729FA002383F311884F
:105CB00008BD00BFB86B002090F8803003F01F02D1
:105CC000012A07D190F881200B2A03D10023C0E9D3
:105CD0001D3315E003F06003202B08D1B0F88430A9
:105CE0002BB990F88120212A03D81F2A04D8FFF766
:105CF000E7B9222AEBD0FAE7034A42670722826714
:105D0000C3670120704700BF4323002007B5052962
:105D100017D8DFE801F0191603191920302383F38F
:105D20001188104A01210190FFF790FA0198022191
:105D30000D4AFFF78BFA0D48FFF7ACF9002383F308
:105D4000118803B05DF804FB302383F31188074802
:105D5000FFF776F9F2E7302383F311880348FFF762
:105D60008DF9EBE7EC7D0008107E0008B86B002091
:105D700038B50C4D0C4C2A460C4904F10800FFF7CD
:105D800067FF05F1CA0204F110000949FFF760FF3F
:105D900005F5CA7204F118000649BDE83840FFF75E
:105DA00057BF00BF908400204C230020CC7D00080A
:105DB000D67D0008E17D000870B5044608460D4612
:105DC000FBF706FEC6B22046013403780BB918462D
:105DD00070BD32462946FBF7E7FD0028F3D10120CC
:105DE000F6E700002DE9F04705460C46FBF7F0FD0D
:105DF0002C49C6B22846FFF7DFFF08B11036F6B2CD
:105E000029492846FFF7D8FF08B11036F6B2632EAD
:105E10000BD8DFF89080DFF89090244FDFF898A03F
:105E20002E7846B92670BDE8F08729462046BDE8A1
:105E3000F04701F06DBE252E30D10722414628469D
:105E4000FBF7B2FD80B91A4B224603F1140153F857
:105E5000040B8B4242F8040BF9D1198807359B7863
:105E6000173411809370DBE7082249462846FBF778
:105E70009BFD98B9A21C0F4B197802320909C95D24
:105E800002F8041C13F8011B01F00F015345C95D12
:105E900002F8031CF0D118340835C1E7013504F8C5
:105EA000016BBDE7B87E0008E17D0008C07E0008F8
:105EB0002E7B000800E8F11F0CE8F11FBFF34F8FA5
:105EC000044B1A695107FCD1D3F810215207F8D1BD
:105ED000704700BF0020005208B50D4B1B78ABB9CE
:105EE000FFF7ECFF0B4BDA68D10704D50A4A5A607A
:105EF00002F188325A60D3F80C21D20706D5064A3F
:105F0000C3F8042102F18832C3F8042108BD00BFA0
:105F1000EE860020002000522301674508B5114B92
:105F20001B78F3B9104B1A69510703D5DA6842F0B0
:105F30004002DA60D3F81021520705D5D3F80C21BE
:105F400042F04002C3F80C21FFF7B8FF064BDA68B5
:105F500042F00102DA60D3F80C2142F00102C3F8EA
:105F60000C2108BDEE860020002000520F289ABFA9
:105F700000F5806040040020704700004FF40030BE
:105F800070470000102070470F2808B50BD8FFF7A6
:105F9000EDFF00F500330268013204D10430834282
:105FA000F9D1012008BD0020FCE700000F2838B51A
:105FB00005463FD8FFF782FF1F4CFFF78DFF4FF0DC
:105FC000FF3307286361C4F814311DD82361FFF73C
:105FD00075FF030243F02403E360E36843F08003AA
:105FE000E36023695A07FCD42846FFF767FFFFF7F1
:105FF000BDFF4FF4003100F04BF92846FFF78EFF4C
:10600000BDE83840FFF7C0BFC4F81031FFF756FFB6
:10601000A0F108031B0243F02403C4F80C31D4F8A8
:106020000C3143F08003C4F80C31D4F810315B0715
:10603000FBD4D9E7002038BD002000522DE9F84FED
:1060400005460C46104645EA0203DE0602D0002053
:10605000BDE8F88F20F01F00DFF8BCB0DFF8BCA06F
:10606000FFF73AFF04EB0008444503D10120FFF796
:1060700055FFEDE720222946204601F017FD10B913
:1060800020352034F0E72B4605F120021F68791CEB
:10609000DDD104339A42F9D105F178431B481C4EF7
:1060A000B3F5801F1B4B38BF184603F1F80332BF0E
:1060B000D946D1461E46FFF701FF0760A5EB040C49
:1060C000336804F11C0143F002033360231FD9F845
:1060D000007017F00507FAD153F8042F8B424CF8E3
:1060E0000320F4D1BFF34F8FFFF7E8FE4FF0FF33EB
:1060F0002022214603602846336823F002033360E0
:1061000001F0D4FC0028BBD03846B0E7142100527F
:106110000C20005214200052102000521021005276
:1061200010B5084C237828B11BB9FFF7D5FE012321
:10613000237010BD002BFCD02070BDE81040FFF78D
:10614000EDBE00BFEE86002038B5054D00240334B7
:10615000696855F80C0B00F0ADF8122CF7D138BD7A
:10616000D47E0008084601F099BC000038B5EFF372
:1061700011859DB9EFF30584C4F30804302334B1CD
:1061800083F31188FFF730FD85F3118838BD83F361
:106190001188FFF729FD84F3118838BDBDE8384028
:1061A000FFF722BD10B5FFF7E1FF104CC008104A01
:1061B000002340EA4170C908A0FB04ECA0FB020EDA
:1061C0001CEB0000A1FB044CA1FB02125B41001977
:1061D00043EB0C0011EB0E0142F10002411842F1B9
:1061E0000000090941EA007010BD00BFCFF753E37A
:1061F000A59BC4200244074BD2B210B5904200D1F7
:1062000010BD441C00B253F8200041F8040BE0B26A
:10621000F4E700BF504000580E4B30B51C6F24040B
:1062200005D41C6F1C671C6F44F400441C670A4CA7
:1062300002442368D2B243F480732360074B904238
:1062400000D130BD441C51F8045B00B243F820502B
:10625000E0B2F4E7004402580048025850400058A9
:1062600007B5012201A90020FFF7C4FF019803B080
:106270005DF804FB13B50446FFF7F2FFA04205D01A
:10628000012201A900200194FFF7C6FF02B010BD52
:106290000144BFF34F8F064B884204D3BFF34F8FA7
:1062A000BFF36F8F7047C3F85C022030F4E700BF84
:1062B00000ED00E00144BFF34F8F064B884204D34A
:1062C000BFF34F8FBFF36F8F7047C3F8700220305A
:1062D000F4E700BF00ED00E070470000074B45F217
:1062E00055521A6002225A6040F6FF729A604CF6CC
:1062F000CC421A600122024B1A70704700480058C5
:10630000F4860020034B1B781BB1034B4AF6AA22EC
:106310001A607047F486002000480058034B1A6842
:106320001AB9034AD2F8D0241A607047F0860020C8
:1063300000400258024B4FF48032C3F8D02470471B
:106340000040025808B5FFF7E9FF024B1868C0F398
:10635000806008BDF086002070B5BFF34F8FBFF39B
:106360006F8F1A4A0021C2F85012BFF34F8FBFF34C
:106370006F8F536943F400335361BFF34F8FBFF303
:106380006F8FC2F88410BFF34F8FD2F8803043F67E
:10639000E074C3F3C900C3F34E335B0103EA0406A0
:1063A000014646EA81750139C2F86052F9D2203BB4
:1063B00013F1200FF2D1BFF34F8F536943F48033B1
:1063C0005361BFF34F8FBFF36F8F70BD00ED00E0DF
:1063D000FEE70000214B2248224A70B5904237D395
:1063E000214BC11EDA1C121A22F003028B4238BF65
:1063F00000220021FBF7F4FA1C4A0023C2F8843083
:10640000BFF34F8FD2F8803043F6E074C3F3C90076
:10641000C3F34E335B0103EA0406014646EA817585
:106420000139C2F86C52F9D2203B13F1200FF2D19E
:10643000BFF34F8FBFF36F8FBFF34F8FBFF36F8FDC
:106440000023C2F85032BFF34F8FBFF36F8F70BD80
:1064500053F8041B40F8041BC0E700BF6881000824
:10646000C8880020C8880020C888002000ED00E00F
:10647000074BD3F8D81021EA0001C3F8D810D3F89D
:10648000002122EA0002C3F80021D3F8003170474E
:106490000044025870B5D0E9244300224FF0FF3584
:1064A0009E6804EB42135101D3F80009002805DA75
:1064B000D3F8000940F08040C3F80009D3F8000B7E
:1064C000002805DAD3F8000B40F08040C3F8000B39
:1064D000013263189642C3F80859C3F8085BE0D24A
:1064E0004FF00113C4F81C3870BD0000890141F061
:1064F0002001016103699B06FCD41220FFF7CCB98F
:1065000010B50A4C2046FEF77FFE094BC4F89030C8
:10651000084BC4F89430084C2046FEF775FE074B34
:10652000C4F89030064BC4F8943010BDF8860020B3
:1065300000000840407F00089487002000000440CD
:106540004C7F000870B503780546012B5CD1434BA6
:10655000D0F89040984258D1414B0E216520D3F895
:10656000D82042F00062C3F8D820D3F8002142F0CE
:106570000062C3F80021D3F80021D3F8802042F054
:106580000062C3F88020D3F8802022F00062C3F8B4
:106590008020D3F88030FEF79DFA324BE360324B17
:1065A000C4F800380023D5F89060C4F8003EC0233A
:1065B00023604FF40413A3633369002BFCDA012337
:1065C0000C203361FFF768F93369DB07FCD4122034
:1065D000FFF762F93369002BFCDA00262846A66033
:1065E000FFF758FF6B68C4F81068DB68C4F81468DC
:1065F000C4F81C6883BB1D4BA3614FF0FF3363617C
:10660000A36843F00103A36070BD194B9842C9D140
:10661000134B4FF08060D3F8D82042F00072C3F8DB
:10662000D820D3F8002142F00072C3F80021D3F83B
:106630000021D3F8802042F00072C3F88020D3F804
:10664000802022F00072C3F88020D3F88030FFF75A
:106650000FFF0E214D209EE7064BCDE7F886002068
:10666000004402584014004003002002003C30C0A7
:1066700094870020083C30C0F8B5D0F8904005461B
:1066800000214FF000662046FFF730FFD5F8941048
:1066900000234FF001128F684FF0FF30C4F83438F8
:1066A000C4F81C2804EB431201339F42C2F800696E
:1066B000C2F8006BC2F80809C2F8080BF2D20B68E6
:1066C000D5F89020C5F898306362102313611669DD
:1066D00016F01006FBD11220FFF7DEF8D4F80038D0
:1066E00023F4FE63C4F80038A36943F4402343F065
:1066F0001003A3610923C4F81038C4F814380B4BF5
:10670000EB604FF0C043C4F8103B094BC4F8003BAA
:10671000C4F81069C4F80039D5F8983003F11002B4
:1067200043F48013C5F89820A362F8BD1C7F0008CD
:1067300040800010D0F8902090F88A10D2F80038ED
:1067400023F4FE6343EA0113C2F8003870470000E7
:106750002DE9F84300EB8103D0F890500C468046B9
:10676000DA680FFA81F94801166806F00306731E0D
:10677000022B05EB41134FF0000194BFB604384ED5
:10678000C3F8101B4FF0010104F1100398BF06F18C
:10679000805601FA03F3916998BF06F50046002977
:1067A0003AD0578A04F15801374349016F50D5F860
:1067B0001C180B430021C5F81C382B180127C3F8FF
:1067C0001019A7405369611E9BB3138A928B9B08D3
:1067D000012A88BF5343D8F89820981842EA034307
:1067E00001F140022146C8F89800284605EB8202D4
:1067F0005360FFF77BFE08EB8900C3681B8A43EAFE
:10680000845348341E4364012E51D5F81C381F436D
:10681000C5F81C78BDE8F88305EB4917D7F8001BCD
:1068200021F40041C7F8001BD5F81C1821EA030326
:10683000C0E704F13F030B4A2846214605EB8303DA
:106840005A60FFF753FE05EB4910D0F8003923F4E6
:106850000043C0F80039D5F81C3823EA0707D7E70A
:106860000080001000040002D0F894201268C0F8E4
:106870009820FFF70FBE00005831D0F89030490142
:106880005B5813F4004004D013F4001F0CBF022027
:10689000012070474831D0F8903049015B5813F41B
:1068A000004004D013F4001F0CBF022001207047E9
:1068B00000EB8101CB68196A0B6813604B68536069
:1068C0007047000000EB810330B5DD68AA691368EA
:1068D000D36019B9402B84BF402313606B8A1468BE
:1068E000D0F890201C4402EB4110013C09B2B4FBEB
:1068F000F3F46343033323F0030343EAC44343F055
:10690000C043C0F8103B2B6803F00303012B0ED1EA
:10691000D2F8083802EB411013F4807FD0F8003B26
:1069200014BF43F0805343F00053C0F8003B02EB28
:106930004112D2F8003B43F00443C2F8003B30BDA3
:106940002DE9F041D0F8906005460C4606EB411366
:10695000D3F8087B3A07C3F8087B08D5D6F8143873
:106960001B0704D500EB8103DB685B689847FA07D7
:106970001FD5D6F81438DB071BD505EB8403D9687F
:10698000CCB98B69488A5A68B2FBF0F600FB162234
:106990008AB91868DA6890420DD2121AC3E9002445
:1069A000302383F3118821462846FFF78BFF84F3B9
:1069B0001188BDE8F081012303FA04F26B8923EA10
:1069C00002036B81CB68002BF3D021462846BDE83B
:1069D000F041184700EB81034A0170B5DD68D0F83B
:1069E00090306C692668E66056BB1A444FF400206C
:1069F000C2F810092A6802F00302012A0AB20ED175
:106A0000D3F8080803EB421410F4807FD4F800098F
:106A100014BF40F0805040F00050C4F8000903EB70
:106A20004212D2F8000940F00440C2F800090122E5
:106A3000D3F8340802FA01F10143C3F8341870BDE9
:106A400019B9402E84BF4020206020681A442E8A45
:106A50008419013CB4FBF6F440EAC44040F0005015
:106A6000C6E700002DE9F843D0F8906005460C46D3
:106A70004F0106EB4113D3F8088918F0010FC3F852
:106A800008891CD0D6F81038DB0718D500EB810335
:106A9000D3F80CC0DCF81430D3F800E0DA6896457F
:106AA00030D2A2EB0E024FF000091A60C3F8049036
:106AB000302383F31188FFF78DFF89F3118818F0D5
:106AC000800F1DD0D6F834380126A640334217D0A7
:106AD00005EB84030134D5F89050D3F80CC0E4B230
:106AE0002F44DCF8142005EB0434D2F800E05168A0
:106AF000714514D3D5F8343823EA0606C5F834684E
:106B0000BDE8F883012303FA01F2038923EA0203B3
:106B10000381DCF80830002BD1D09847CFE7AEEBEB
:106B20000103BCF81000834228BF0346D7F81809B8
:106B300080B2B3EB800FE3D89068A0F1040959F854
:106B4000048FC4F80080A0EB09089844B8F1040F42
:106B5000F5D818440B4490605360C8E72DE9F84F0E
:106B6000D0F8905004466E69AB691E4016F4805808
:106B70006E6103D0BDE8F84FFEF7B6BB002E12DA07
:106B8000D5F8003E9B0705D0D5F8003E23F003035F
:106B9000C5F8003ED5F80438204623F00103C5F8B7
:106BA0000438FEF7CFFB370505D52046FFF772FC0A
:106BB0002046FEF7B5FBB0040CD5D5F8083813F025
:106BC000060FEB6823F470530CBF43F4105343F4E7
:106BD000A053EB6031071BD56368DB681BB9AB6959
:106BE00023F00803AB612378052B0CD1D5F8003EC8
:106BF0009A0705D0D5F8003E23F00303C5F8003E00
:106C00002046FEF79FFB6368DB680BB12046984780
:106C1000F30200F1BA80B70226D5D4F8909000278D
:106C20004FF0010A09EB4712D2F8003B03F440236E
:106C3000B3F5802F11D1D2F8003B002B0DDA628919
:106C40000AFA07F322EA0303638104EB8703DB6894
:106C5000DB6813B13946204698470137D4F89430A1
:106C6000FFB29B689F42DDD9F00619D5D4F8900099
:106C7000026AC2F30A1702F00F0302F4F012B2F52F
:106C8000802F00F0CA80B2F5402F09D104EB8303B6
:106C9000002200F58050DB681B6A974240F0B0800C
:106CA0003003D5F8185835D5E90303D5002120461F
:106CB000FFF746FEAA0303D501212046FFF740FE59
:106CC0006B0303D502212046FFF73AFE2F0303D5BD
:106CD00003212046FFF734FEE80203D504212046B5
:106CE000FFF72EFEA90203D505212046FFF728FE57
:106CF0006A0203D506212046FFF722FE2B0203D5A8
:106D000007212046FFF71CFEEF0103D5082120468E
:106D1000FFF716FE700340F1A780E90703D50021B5
:106D20002046FFF79FFEAA0703D501212046FFF763
:106D300099FE6B0703D502212046FFF793FE2F072C
:106D400003D503212046FFF78DFEEE0603D504216F
:106D50002046FFF787FEA80603D505212046FFF74A
:106D600081FE690603D506212046FFF77BFE2A0631
:106D700003D507212046FFF775FEEB0574D52046A5
:106D80000821BDE8F84FFFF76DBED4F890904FF0A2
:106D9000000B4FF0010AD4F894305FFA8BF79B6830
:106DA0009F423FF638AF09EB4713D3F8002902F4AE
:106DB0004022B2F5802F20D1D3F80029002A1CDA16
:106DC000D3F8002942F09042C3F80029D3F80029F3
:106DD000002AFBDB3946D4F89000FFF787FB2289B5
:106DE0000AFA07F322EA0303238104EB8703DB6833
:106DF0009B6813B13946204698470BF1010BCAE74F
:106E0000910701D1D0F80080072A02F101029CBF4E
:106E100003F8018B4FEA18283FE704EB830300F5E2
:106E20008050DA68D2F818C0DCF80820DCE9001CD1
:106E3000A1EB0C0C00218F4208D1DB689B699A689A
:106E40003A449A605A683A445A6029E711F0030FAD
:106E500001D1D0F800808C4501F1010184BF02F816
:106E6000018B4FEA1828E6E7BDE8F88F08B503481C
:106E7000FFF774FEBDE80840FDF7BCBAF8860020B5
:106E800008B50348FFF76AFEBDE80840FDF7B2BA4F
:106E900094870020D0F8903003EB4111D1F8003BEB
:106EA00043F40013C1F8003B70470000D0F8903065
:106EB00003EB4111D1F8003943F40013C1F8003954
:106EC00070470000D0F8903003EB4111D1F8003B3F
:106ED00023F40013C1F8003B70470000D0F8903055
:106EE00003EB4111D1F8003923F40013C1F8003944
:106EF0007047000030B50433039C0172002104FB8D
:106F00000325C160C0E90653049B0363059BC0E9E8
:106F10000000C0E90422C0E90842C0E90A11436345
:106F200030BD00000022416AC260C0E90411C0E91E
:106F30000A226FF00101FEF71FBD0000D0E9043204
:106F4000934201D1C2680AB9181D704700207047EA
:106F5000036919600021C2680132C260C26913442A
:106F600082699342036124BF436A0361FEF7F8BC60
:106F700038B504460D46E3683BB162690020131D35
:106F80001268A3621344E36207E0237A33B9294607
:106F90002046FEF7D5FC0028EDDA38BD6FF0010081
:106FA000FBE70000C368C269013BC3604369134447
:106FB00082699342436124BF436A43610023836231
:106FC000036B03B11847704770B53023044683F351
:106FD0001188866A3EB9FFF7CBFF054618B186F3E4
:106FE0001188284670BDA36AE26A13F8015B9342D8
:106FF000A36202D32046FFF7D5FF002383F3118855
:10700000EFE700002DE9F84F04460E461746984674
:107010004FF0300989F311880025AA46D4F828B02A
:10702000BBF1000F09D141462046FFF7A1FF20B177
:107030008BF311882846BDE8F88FD4E90A12A7EB34
:10704000050B521A934528BF9346BBF1400F1BD93D
:10705000334601F1400251F8040B914243F8040B0E
:10706000F9D1A36A403640354033A362D4E90A23FC
:107070009A4202D32046FFF795FF8AF31188BD425A
:10708000D8D289F31188C9E730465A46FAF782FC0C
:10709000A36A5E445D445B44A362E7E710B5029CCB
:1070A0000433017203FB0421C460C0E9061300230A
:1070B000C0E90A33039B0363049BC0E90000C0E9F5
:1070C0000422C0E90842436310BD0000026A6FF069
:1070D0000101C260426AC0E904220022C0E90A221A
:1070E000FEF74ABCD0E904239A4201D1C26822B912
:1070F000184650F8043B0B60704700231846FAE727
:10710000C3680021C2690133C360436913448269C3
:107110009342436124BF436A4361FEF721BC0000F0
:1071200038B504460D46E3683BB1236900201A1DBB
:10713000A262E2691344E36207E0237A33B9294685
:107140002046FEF7FDFB0028EDDA38BD6FF00100A8
:10715000FBE7000003691960C268013AC260C269B6
:10716000134482699342036124BF436A036100238D
:107170008362036B03B118477047000070B530237A
:107180000D460446114683F31188866A2EB9FFF72F
:10719000C7FF10B186F3118870BDA36A1D70A36A82
:1071A000E26A01339342A36204D3E16920460439C1
:1071B000FFF7D0FF002080F31188EDE72DE9F84FAD
:1071C00004460D46904699464FF0300A8AF31188DE
:1071D0000026B346A76A4FB949462046FFF7A0FFED
:1071E00020B187F311883046BDE8F88FD4E90A074B
:1071F0003A1AA8EB0607974228BF1746402F1BD91B
:1072000005F1400355F8042B9D4240F8042BF9D1B9
:10721000A36A40364033A362D4E90A239A4204D3D6
:10722000E16920460439FFF795FF8BF31188464545
:10723000D9D28AF31188CDE729463A46FAF7AAFB54
:10724000A36A3D443E443B44A362E5E7D0E90423FE
:107250009A4217D1C3689BB1836A8BB1043B9B1AD6
:107260000ED01360C368013BC360C3691A448369CD
:107270009A42026124BF436A0361002383620123AF
:10728000184670470023FBE700F024B9014B586A09
:10729000704700BF000C0040034B002258631A6186
:1072A0000222DA60704700BF000C0040014B002250
:1072B000DA607047000C0040014B5863704700BF14
:1072C000000C0040FEE7000070B51B4B0025044693
:1072D00086B058600E4685620163FDF763F804F1DD
:1072E0001003A560E562C4E904334FF0FF33C4E93D
:1072F0000044C4E90635FFF7C9FF2B46024604F1F6
:1073000034012046C4E9082380230C4A2565FEF792
:10731000CDFA01230A4AE06000920375684672685C
:107320000192B268CDE90223064BCDE90435FEF7A0
:10733000E5FA06B070BD00BFB06B0020587F0008B2
:107340005D7F0008C5720008024AD36A1843D06204
:10735000704700BF486900204B6843608B688360BA
:10736000CB68C3600B6943614B6903628B694362FD
:107370000B6803607047000008B53C4B40F2FF719A
:107380003B48D3F888200A43C3F88820D3F88820E4
:1073900022F4FF6222F00702C3F88820D3F8882085
:1073A000D3F8E0200A43C3F8E020D3F808210A43C9
:1073B000C3F808212F4AD3F808311146FFF7CCFF54
:1073C00000F5806002F11C01FFF7C6FF00F5806048
:1073D00002F13801FFF7C0FF00F5806002F15401AF
:1073E000FFF7BAFF00F5806002F17001FFF7B4FF0C
:1073F00000F5806002F18C01FFF7AEFF00F58060C0
:1074000002F1A801FFF7A8FF00F5806002F1C401B6
:10741000FFF7A2FF00F5806002F1E001FFF79CFF9B
:1074200000F5806002F1FC01FFF796FF02F58C7118
:1074300000F58060FFF790FF00F018F90E4BD3F8CD
:10744000902242F00102C3F89022D3F8942242F035
:107450000102C3F894220522C3F898204FF060522D
:10746000C3F89C20054AC3F8A02008BD0044025878
:1074700000000258647F000800ED00E01F000803D0
:1074800008B500F0D5FAFEF7DFF90F4BD3F8DC2092
:1074900042F04002C3F8DC20D3F8042122F040027D
:1074A000C3F80421D3F80431084B1A6842F00802EB
:1074B0001A601A6842F004021A60FEF72FFFBDE856
:1074C0000840FEF755BC00BF0044025800180248AF
:1074D00070470000114BD3F8E82042F00802C3F8CF
:1074E000E820D3F8102142F00802C3F810210C4A1A
:1074F000D3F81031D36B43F00803D363C722094B91
:107500009A624FF0FF32DA6200229A615A63DA60BF
:107510005A6001225A611A60704700BF0044025845
:107520000010005C000C0040094A08B51169D368DE
:107530000B40D9B29B076FEA0101116107D53023D7
:1075400083F31188FEF7A6F9002383F3118808BDA1
:10755000000C0040064BD3F8DC200243C3F8DC20CB
:10756000D3F804211043C3F80401D3F80431704761
:107570000044025808B53C4B4FF0FF31D3F880204F
:1075800062F00042C3F88020D3F8802002F000426D
:10759000C3F88020D3F88020D3F88420C3F8841067
:1075A000D3F884200022C3F88420D3F88400D86F55
:1075B00040F0FF4040F4FF0040F4DF4040F07F0027
:1075C000D867D86F20F0FF4020F4FF0020F4DF40A0
:1075D00020F07F00D867D86FD3F888006FEA40505A
:1075E0006FEA5050C3F88800D3F88800C0F30A004F
:1075F000C3F88800D3F88800D3F89000C3F890103F
:10760000D3F89000C3F89020D3F89000D3F89400FA
:10761000C3F89410D3F89400C3F89420D3F89400DE
:10762000D3F89800C3F89810D3F89800C3F89820BE
:10763000D3F89800D3F88C00C3F88C10D3F88C00E2
:10764000C3F88C20D3F88C00D3F89C00C3F89C10AE
:10765000D3F89C10C3F89C20D3F89C30FDF74CF86D
:10766000BDE8084000F0B8B90044025808B501224E
:10767000534BC3F80821534BD3F8F42042F00202D5
:10768000C3F8F420D3F81C2142F00202C3F81C21F5
:107690000222D3F81C314C4BDA605A689104FCD5B5
:1076A0004A4A1A6001229A60494ADA6000221A6145
:1076B0004FF440429A61444B9A699204FCD51A688F
:1076C00042F480721A603F4B1A6F12F4407F04D06C
:1076D0004FF480321A6700221A671A6842F00102DA
:1076E0001A60384B1A685007FCD500221A611A69D3
:1076F00012F03802FBD1012119604FF0804159602E
:107700005A67344ADA62344A1A611A6842F480329B
:107710001A602C4B1A689103FCD51A6842F4805207
:107720001A601A689204FCD52C4A2D499A620022EC
:107730005A63196301F57C01DA6301F5E771996316
:107740005A64284A1A64284ADA621A6842F0A8522F
:107750001A601C4B1A6802F02852B2F1285FF9D166
:1077600048229A614FF48862DA6140221A621F4A05
:10777000DA641F4A1A651F4A5A651F4A9A653223FE
:107780001E4A1360136803F00F03022BFAD10D4A4F
:10779000136943F003031361136903F03803182BD3
:1077A000FAD14FF00050FFF7D5FE4FF08040FFF7C1
:1077B000D1FE4FF00040BDE80840FFF7CBBE00BF50
:1077C00000800051004402580048025800C000F0F8
:1077D000020000010000FF010088900832206000D4
:1077E00063020901470E0508DD0BBF0120000020E0
:1077F000000001100910E0000001011000200052FB
:107800004FF0B04208B5D2F8883003F00103C2F857
:10781000883023B1044A13680BB150689847BDE81B
:107820000840FCF7E7BD00BF488800204FF0B04299
:1078300008B5D2F8883003F00203C2F8883023B1CB
:10784000044A93680BB1D0689847BDE80840FCF73C
:10785000D1BD00BF488800204FF0B04208B5D2F833
:10786000883003F00403C2F8883023B1044A136956
:107870000BB150699847BDE80840FCF7BBBD00BF9D
:10788000488800204FF0B04208B5D2F8883003F0A5
:107890000803C2F8883023B1044A93690BB1D06958
:1078A0009847BDE80840FCF7A5BD00BF4888002008
:1078B0004FF0B04208B5D2F8883003F01003C2F898
:1078C000883023B1044A136A0BB1506A9847BDE867
:1078D0000840FCF78FBD00BF488800204FF0B04340
:1078E00010B5D3F8884004F47872C3F88820A30652
:1078F00004D5124A936A0BB1D06A9847600604D542
:107900000E4A136B0BB1506B9847210604D50B4AF6
:10791000936B0BB1D06B9847E20504D5074A136C03
:107920000BB1506C9847A30504D5044A936C0BB176
:10793000D06C9847BDE81040FCF75CBD488800203B
:107940004FF0B04310B5D3F8884004F47C42C3F83C
:107950008820620504D5164A136D0BB1506D984707
:10796000230504D5124A936D0BB1D06D9847E004FE
:1079700004D50F4A136E0BB1506E9847A10404D57D
:107980000B4A936E0BB1D06E9847620404D5084A37
:10799000136F0BB1506F9847230404D5044A936FBB
:1079A0000BB1D06F9847BDE81040FCF723BD00BF76
:1079B0004888002008B50348FDF706F8BDE80840F0
:1079C000FCF718BDD864002008B5FFF7ADFDBDE891
:1079D0000840FCF70FBD0000062108B50846FDF77A
:1079E00079F806210720FDF775F806210820FDF734
:1079F00071F806210920FDF76DF806210A20FDF730
:107A000069F806211720FDF765F806212820FDF703
:107A100061F809217A20FDF75DF807213220FDF792
:107A200059F80C215220BDE80840FDF753B800007A
:107A300008B5FFF79FFD00F00DF8FDF709FAFDF717
:107A4000E1FBFDF7B3FAFFF743FDBDE80840FFF7A0
:107A50001BBC00000023054A19460133102BC2E964
:107A6000001102F10802F8D1704700BF48880020D9
:107A70000B460146184600F003B8000000F00EB8AF
:107A800010B5054C13462CB10A4601460220AFF34F
:107A9000008010BD2046FCE700000000024B0146BC
:107AA0001868FEF75FBB00BF6C23002010B50139DA
:107AB0000244904201D1002005E0037811F8014F03
:107AC000A34201D0181B10BD0130F2E72DE9F041AF
:107AD000A3B1C91A17780144044603F1FF3C8C4254
:107AE000204601D9002009E00578BD4204F10104D7
:107AF000F5D10CEB0405D618A54201D1BDE8F08103
:107B000015F8018D16F801EDF045F5D0E7E7000016
:107B1000034611F8012B03F8012B002AF9D1704715
:107B20006F72672E6172647570696C6F742E437525
:107B300062654F72616E67652D7065726970682D40
:107B4000686561767900000053544D333248373F01
:107B50003F3F0053544D3332483733782F37327814
:107B60000053544D3332483734332F3735332F37A2
:107B70003530000001105A00031059000120580050
:107B80000320560040A2E4F1646891060041A3E599
:107B9000F26569920700000043414E464449666120
:107BA00063653A204D6573736167652052414D20CE
:107BB0004F766572666C6F77210000004261642029
:107BC00043414E496661636520696E6465782E00A5
:107BD000000100000001FF0000A0004000A40040E0
:107BE0000000000000000000C92A0008512300081E
:107BF00051320008C1230008CD230008E527000802
:107C000045250008892300088D2300086523000806
:107C10004D230008A127000871230008B93300088C
:107C20007D2300087527000801040E05054B02029C
:107C30000E05054B04010E05054B05010B04044B15
:107C4000080106030346000010000240080002403D
:107C50000008024000000B0028000240080002401B
:107C60000408024006010C004000024008000240E7
:107C70000808024010020D005800024008000240AF
:107C80000C08024016030E00700002400C00024077
:107C90001008024000040F00880002400C0002405F
:107CA0001408024006051000A00002400C0002402B
:107CB0001808024010061100B80002400C000240F3
:107CC0001C08024016072F0010040240080402405E
:107CD000200802400008380028040240080402403E
:107CE000240802400609390040040240080402400A
:107CF00028080240100A3A005804024008040240D2
:107D00002C080240160B3B00700402400C04024099
:107D100030080240000C3C00880402400C04024081
:107D200034080240060D4400A00402400C04024046
:107D300038080240100E4500B80402400C0402400E
:107D40003C080240160F46000096000000000000AC
:107D50000000000000000000000000000000000023
:107D600000000000114E0008FD4D0008394E0008CB
:107D7000254E0008314E00081D4E0008094E00082F
:107D8000F54D0008454E000800000000294F00088E
:107D9000154F0008514F00083D4F0008494F00089B
:107DA000354F0008214F00080D4F00085D4F0008B7
:107DB000000000000100000000000000633000002F
:107DC000BC7D0008A0690020B06B00204172647582
:107DD00050696C6F740025424F415244252D424C2E
:107DE000002553455249414C250000000200000087
:107DF0000000000049510008B9510008400040004F
:107E00006084002070840020020000000000000058
:107E10000300000000000000015200080000000004
:107E2000100000008084002000000000010000001D
:107E300000000000F8860020010102000D5D00082E
:107E40001D5C0008B95C00089D5C00084300000050
:107E5000547E000809024300020100C032090400F8
:107E600000010202010005240010010524010001A7
:107E7000042402020524060001070582030800FF0E
:107E800009040100020A0000000705010240000089
:107E9000070581024000000012000000A07E0008DB
:107EA00012011001020000400912415700020102B4
:107EB000030100000403090425424F4152442500F8
:107EC0003031323334353637383941424344454610
:107ED000000000000001002000FF0100020000007F
:107EE0000000003000000400080000000000002432
:107EF00000000800040000000004000000FC000076
:107F000002000000000004300080000008000000B3
:107F10000000003800000100010000000000000027
:107F20005D53000815560008C15600084000400087
:107F300030880020308800200100000040880020A8
:107F40008000000040010000080000000001000067
:107F500000100000080000006D61696E0069646C2B
:107F6000650000000000802A00000000AAAAAAAA5A
:107F700000000024FFFF00000000000000A00A0035
:107F80000021000200000000AAAAAAAA0000000026
:107F9000FFFF000000000009000009001400005469
:107FA00000000000AAAAAAAA14000054FFFF0000C3
:107FB00000000000000000000A4010000000000067
:107FC000AAAA8AAA00401000FFFF00009900000042
:107FD000000000000081020000000000AAAAAAAA76
:107FE00000410100FFFF00000000007007000000DA
:107FF0000000000000000000AAAAAAAA00000000D9
:10800000FFFF000000000000000000000000000072
:1080100000000000AAAAAAAA00000000FFFF0000BA
:108020000000000000000000000000000000000050
:10803000AAAAAAAA00000000FFFF0000000000009A
:10804000000000000000000000000000AAAAAAAA88
:1080500000000000FFFF0000000000000000000022
:108060000000000000000000AAAAAAAA0000000068
:10807000FFFF000000000000000000000000000002
:1080800000000000AAAAAAAA00000000FFFF00004A
:108090000000000000000000780500000000000063
:1080A00000001E0000000000FE2A0100D2040000B3
:1080B000FF000000B86B0020D86400200000000022
:1080C000487B000883040000537B00085004000034
:1080D000617B000800960000000008009600000088
:1080E0000008000004000000B47E0008000000004A
:1080F0000000000000000000000000000000000080
:1081000000000000702300200000000000000000BC
:10811000000000000000000000000000000000005F
:10812000000000000000000000000000000000004F
:10813000000000000000000000000000000000003F
:10814000000000000000000000000000000000002F
:10815000000000000000000000000000000000001F
:08816000000000000000000017
:00000001FF
