:020000040800F2
:100000000009002025050008A11900087119000841
:100010008D190008711900088519000827050008C6
:10002000270500082705000827050008F9340008FF
:100030002705000827050008270500080D3A0008D5
:1000400027050008270500082705000827050008E0
:1000500027050008270500083D3700086937000814
:1000600095370008C1370008ED370008270500085C
:1000700027050008270500082705000827050008B0
:100080002705000827050008270500089D29000806
:10009000092A00085D2A0008B12A0008193800085A
:1000A0002705000827050008270500082705000880
:1000B0002705000827050008270500082705000870
:1000C0002705000827050008270500082705000860
:1000D0002705000827050008270500082705000850
:1000E00081380008270500082705000827050008B3
:1000F0002705000827050008270500082705000830
:10010000270500082705000827050008270500081F
:10011000270500082705000827050008270500080F
:1001200027050008270500082705000827050008FF
:1001300027050008270500082705000827050008EF
:1001400027050008270500082705000827050008DF
:1001500027050008270500082705000827050008CF
:100160004FF0FF0C1CEAD0521EBF1CEAD15392EA9A
:100170000C0F93EA0C0F6FD01A4480EA010C400276
:1001800018BF5FEA41211ED04FF0006343EA5010D0
:1001900043EA5111A0FB01310CF00040B1F5000F12
:1001A0003EBF490041EAD3715B0040EA010062F1C1
:1001B0007F02FD2A1DD8B3F1004F40EBC25008BFAB
:1001C00020F00100704790F0000F0CF0004C08BFC9
:1001D00049024CEA502040EA51207F3AC2BFD2F196
:1001E000FF0340EAC250704740F400004FF00003A4
:1001F000013A5DDC12F1190FDCBF00F000407047DE
:10020000C2F10002410021FA02F1C2F1200200FA1B
:1002100002FC5FEA310040F1000053EA4C0308BFE2
:1002200020EADC70704792F0000F00F0004C02BF33
:10023000400010F4000F013AF9D040EA0C0093F0AE
:10024000000F01F0004C02BF490011F4000F013B08
:10025000F9D041EA0C018FE70CEAD15392EA0C0F76
:1002600018BF93EA0C0F0AD030F0004C18BF31F0E1
:10027000004CD8D180EA010000F00040704790F0B7
:10028000000F17BF90F0004F084691F0000F91F05B
:10029000004F14D092EA0C0F01D142020FD193EA21
:1002A0000C0F03D14B0218BF084608D180EA0100A9
:1002B00000F0004040F0FE4040F40000704740F085
:1002C000FE4040F44000704780F0004002E000BF74
:1002D00081F0004142001FBF5FEA410392EA030F31
:1002E0007FEA226C7FEA236C6AD04FEA1262D2EB7B
:1002F0001363C1BFD218414048404140B8BF5B4280
:10030000192B88BF704710F0004F40F4000020F018
:100310007F4018BF404211F0004F41F4000121F02E
:100320007F4118BF494292EA030F3FD0A2F1010278
:1003300041FA03FC10EB0C00C3F1200301FA03F1B6
:1003400000F0004302D5494260EB4000B0F5000FD9
:1003500013D3B0F1807F06D340084FEA310102F198
:100360000102FE2A51D2B1F1004F40EBC25008BF4A
:1003700020F0010040EA03007047490040EB000014
:10038000013A28BFB0F5000FEDD2B0FA80FCACF115
:10039000080CB2EB0C0200FA0CF0AABF00EBC25042
:1003A00052421843BCBFD0401843704792F0000F30
:1003B00081F4000106BF80F400000132013BB5E783
:1003C0004FEA41037FEA226C18BF7FEA236C21D0F9
:1003D00092EA030F04D092F0000F08BF084670475E
:1003E00090EA010F1CBF0020704712F07F4F04D12C
:1003F000400028BF40F00040704712F100723CBF3F
:1004000000F50000704700F0004343F0FE4040F468
:10041000000070477FEA226216BF08467FEA236326
:100420000146420206BF5FEA412390EA010F40F411
:10043000800070474FF0000304E000BF10F000435D
:1004400048BF40425FEA000C08BF704743F0964344
:1004500001464FF000001CE050EA010208BF70475F
:100460004FF000030AE000BF50EA010208BF7047E6
:1004700011F0004302D5404261EB41015FEA010CFB
:1004800002BF84460146002043F0B64308BFA3F1F3
:100490008053A3F50003BCFA8CF2083AA3EBC253D5
:1004A00010DB01FA02FC634400FA02FCC2F12002F4
:1004B000BCF1004F20FA02F243EB020008BF20F02B
:1004C0000100704702F1200201FA02FCC2F1200291
:1004D00050EA4C0021FA02F243EB020008BF20EA86
:1004E000DC70704742000ED2B2F1FE4F0BD34FF0DA
:1004F0009E03B3EB126209D44FEA002343F000439A
:1005000023FA02F070474FF00000704712F1610FBC
:1005100001D1420202D14FF0FF3070474FF000008E
:10052000704700BF02E000F000F8FEE772B6264810
:1005300080F30888254880F3098825482549086004
:10054000022080F31488BFF36F8F03F025F803F0C7
:1005500089F84FF0553020491B4A91423CBF41F881
:10056000040BFAE71D49194A91423CBF41F8040BBC
:10057000FAE71B491B4A1C4B9A423EBF51F8040B39
:1005800042F8040BF8E700201849194A91423CBF91
:1005900041F8040BFAE703F003F803F065F8154C93
:1005A000154DAC4203DA54F8041B8847F9E700F014
:1005B0003FF8124C124DAC4203DA54F8041B884742
:1005C000F9E702F0EBBF0000000900200011002055
:1005D0000000000808ED00E00001002000090020F4
:1005E000103B0008001100202411002028110020D9
:1005F000D4250020600100086001000860010008A7
:10060000600100082DE9F04FC1F80CD0C3689D4689
:10061000BDE8F08F002383F311882846A04700200F
:1006200002F0E6FCFEE702F07FFC00DFFEE70000E0
:10063000F8B500F03BFE02F0FDFE074602F048FF71
:10064000064600283ED12B4B9F423BD001339F42B0
:100650003BD0294B27F0FF029A4239D1F8B200F083
:1006600001FC354642F2107400F002FC08B100248F
:10067000254601F003F978B30024032000F042F886
:10068000254636B11D4B9F4203D0002402F018FFCF
:100690002546002002F0D8FE194B9B6813F040035A
:1006A0001FD00DB100F044F800F042FC01F07AF9DF
:1006B0000546C4B101F076F9401BA04213D900F001
:1006C00037F8F3E735460024CEE704460125CBE7AB
:1006D00005464FF47A74C7E7B4F57A7F08BF012561
:1006E000CFE71C46E0E700F0D5FC012002F086FCD5
:1006F000DFE700BF010007B0000008B0263A09B0EC
:10070000000C0140084B187003280CD8DFE800F0FB
:1007100008050208022000F025BE022000F01ABEE3
:100720000022024B5A607047281100202C11002033
:1007300038B501F0A3F830B103221F4B1A70002224
:100740001E4B5A6038BD1E4B1E4A19680131F9D044
:1007500004339342F9D11C4C194DD4F80424AA4215
:10076000F0D31A4B9B6803F1006303F5C8439A4228
:10077000E8D202F079FE02F08BFE002000F0B0FD1E
:100780000220FFF7BFFF124BDA690022DA61D96954
:1007900099699A619B6972B64FF0E023C3F8085DCE
:1007A0003021D4F80034D4F8042481F311889D4614
:1007B00083F308881047C5E7281100202C1100207A
:1007C0000064000820640008006000080011002098
:1007D0000010024049F26900084A136899B21B0CE4
:1007E00000FB013344F250611360054B186882B27C
:1007F000000C01FB0200186080B27047201100203D
:100800001C11002010B504460021102200F0C6FD86
:10081000034B03CB206061601868A06010BD00BF6F
:10082000E8F7FF1F2DE9F0410026ADF54E7D6CACD9
:1008300040F2751207460D460EA831460D9600F09F
:10084000ADFD4FF4C4723146204600F0A7FD01F023
:10085000A9F84FF47A72B0FBF2F0264B0DF1340890
:10086000186093E80700022384E807000DF5E9709B
:100870002382FFF7C7FF4EF603031F4907A823840F
:1008800003F0FCF816230DF2E32284F832310DF167
:100890002C0C07AB1E4603CE6645106051603346F4
:1008A00002F10802F6D1306841461060B388204654
:1008B0009380012200F0BEFD00230393AB7E80B243
:1008C000029305F1190301930123CDE904800093FC
:1008D000384606A3D3E90023E97E01F0A9FB0DF514
:1008E0004E7DBDE8F08100BFAFF300809E6AC42159
:1008F000818A46EE341100208C3A00082DE9F0413F
:10090000264D80462B7A0C46DAB0FBB9204627A943
:1009100000F0A0FE0746002836D19DF89D60C82E45
:1009200032D801464FF4FA72284600F037FD3246BD
:100930000DF19E0105F1090000F01EFD9DF89C30AF
:100940002E4477722B720BB9E37E2B728122002129
:1009500006AD27A800F022FD0122294627A800F0B5
:10096000B5FE00230393A37E80B2029304F1190322
:1009700001932823CDE904500093404605A3D3E911
:100980000023E17E01F054FB5AB0BDE8F08100BFC6
:10099000AFF3008026417272DF25D7B77C2100209B
:1009A000F0B54FF48A750024234EF1B005FB0065C5
:1009B00096F8D830D822214685F8DC3085F8E84012
:1009C0003AA800F0EBFC06F1090000F0DFFCD5F8D6
:1009D000E430C2B206AF8DF8F00006F109010DF166
:1009E000F100CDE93A3400F0C7FC394601223AA8BB
:1009F00000F098FE80B2CDE9047008230127CDE90C
:100A0000023706F1D80301933023317A00930B4863
:100A100007A3D3E9002301F00BFBA04206DD00F0A1
:100A2000C1FFC5F8E000384671B0F0BD2046FBE7D5
:100A300078F6339F93CACD8D7C2100204C21002075
:100A4000F0B51E4E1E4F1F4D85B0304601F01CFB09
:100A5000044660B310220021684600F09FFC4FF06E
:100A60000003227B6068A16862F303038DF8003005
:100A700002AB03C3019B2268384662F31C03019357
:100A80009DF800306A4643F020038DF800300023C3
:100A9000194602F085F9044620B9304601F0F8FA0B
:100AA0002C70D2E72B78072B03D801332B7005B0BD
:100AB000F0BD024801F0ECFAF9E700BF4C2100203C
:100AC000A82300207523002070B50D4614461E464D
:100AD00001F00AFA50B9022E10D1012C0ED112A346
:100AE000D3E900230120C5E9002307E0282C10D01A
:100AF00005D8012C09D0052C0FD0002070BD302C5A
:100B0000FBD10BA3D3E90023ECE70BA3D3E900232C
:100B1000E8E70BA3D3E90023E4E70BA3D3E9002321
:100B2000E0E700BFAFF30080401DA12026812A0B23
:100B300078F6339F93CACD8D9E6AC421818A46EE92
:100B400026417272DF25D7B7F017304A39059E5615
:100B500038B505460E4C0021013500F0E3FBA4F842
:100B6000F051B4F8F00100F0C5FB78B1B4F8F00131
:100B700000F0D0FB014648B9B4F8F00100F0D2FB18
:100B8000B4F8F0310133A4F8F031EAE738BD00BF22
:100B90007C2100202DE9F04F8DB000AF04460D46BA
:100BA00001F0A2F9002846D12B7E022B1AD1EB8A44
:100BB000012B17D100F0F6FE0646FFF70BFE4FF4AF
:100BC000C873B0FBF3F202FB1303DFF878829BB229
:100BD00006F516763344C8F80030EB7E33B90022B0
:100BE000994B1A703437BD46BDE8F08F284607F19F
:100BF0001C0100F0EDFC0028F4D107F10C00FFF718
:100C000001FEBD7F07F10C012A4607F11F0002F02B
:100C100005FF0028E3D10F2D08D88B4B1D70D8F8A5
:100C20000030A3F51673C8F80030DBE72046397FA3
:100C300001F052F9D6E7EB8A282B6BD010D8012BA4
:100C400063D0052BCED1BFF34F8F8049804BCA684C
:100C500002F4E0621343CB60BFF34F8F00BFFDE7A8
:100C6000302BBFD17B4CEA7E237A9A42BAD194F8DA
:100C7000DC206B7E9A42B5D1284604F1EA0100F0EF
:100C80007DFD06460028ADD1012384F8E83000F050
:100C900089FED4F8E030C01A192840F6B83338BFBE
:100CA0001920984228BF1846FFF7C4FB6A49FFF78E
:100CB00057FA05462068FFF7BDFB6849FFF750FA71
:100CC00001462846FFF706FBFFF70CFC20604FF4B7
:100CD0008A7194F8D9307B607A68636801FB02F509
:100CE000621992F8E80050B1D2F8E400E946834274
:100CF00015D0002382F8E830C2F8E030CD466368B2
:100D0000574A9B0A013313816CE729462046FFF7B7
:100D100089FD67E729462046FFF7F0FD62E7B2F854
:100D2000EC803B6008F1030A4FEA9A0A4FEA8A0214
:100D3000D11DC908A9EBC1039D46EB4600215846C9
:100D400000F02CFB05F1EE0142465846214400F02C
:100D500013FB3B6813B9012000F0C2FA94F8D200EB
:100D600000F0C8FA054630B9207200F0E3FA2846D0
:100D700000F0B6FAC2E7D4F8D4303BB994F8D20008
:100D8000B4F8F031834201D8FFF7E2FED4F8D43052
:100D900043449D4208D294F8D200B4F8F0310130B7
:100DA000834201D8FFF7D4FE594660685FFA8AF2A1
:100DB00000F0FCFA08B9CD4689E7636894F8D200E0
:100DC00043446360D4F8D43008EB030AC4F8D4A0D9
:100DD00000F090FA824509D394F8D230D4F8D400C8
:100DE0000133401B84F8D230C4F8D400B8F1FF0FAF
:100DF0000FD80025257200F09DFA284600F070FA01
:100E000000F03CFD164B188108B9FFF791FCCD4668
:100E1000E8E64FF48A727B6894F8D90002FB03433A
:100E2000D3F8E42083F8E86002F58072C3F8E0604C
:100E3000C3F8E420FFF7B4FDFFF702FE84F8D960A1
:100E4000B9E700BF482100204521002000ED00E067
:100E50000400FA057C210020CDCCCC3D6666663FBF
:100E600034110020014B1870704700BF4011002062
:100E700030B54FF00054254B226885B09A4207D018
:100E800002F030FB0446C0B90024204605B030BD56
:100E90000025627D1E4B1F481A70237DC9220372F4
:100EA0001D49C0F8E450093000F066FA2046E022FF
:100EB000294600F073FA0124E7E7184A184DD36970
:100EC00043F00073D361AA6D164B9A42DCD12B6EAE
:100ED000013B7E2BD8D8144A01AB07CA83E8070030
:100EE0001846032100F09AFC6B6D83424FF000031B
:100EF000CAD12A6D8A4203BFAB652A6E044B1C46D9
:100F000001BF1A70EA6D094B1A60BEE79AAD44C57D
:100F1000401100207C21002016000020001002401B
:100F2000006600405041A0B05866004018110020F3
:100F30002DE9F04385B000F0A1FC0223494C637118
:100F400000230293484B2081D3F800C0BCF57A7F80
:100F500012D3464F464BB7FBFCF59C458CBF0A238A
:100F60001123B5FBF3F603FB1652591EC8B2002A33
:100F70003ED002290B46F4D89DF80B303D495A1E4D
:100F80009DF80A303C48013B1B0443EA0253BDF87C
:100F90000820013A13434B6001F0F2FE0023019355
:100FA000364B374900934FF48052364B364800F0A9
:100FB00069FF364B197811B1334800F08DFF00F00E
:100FC000F1FC0546FFF706FC4FF4C873B0FBF3F2E3
:100FD00002FB130305F516709BB218442C4B1860E6
:100FE00002F076FA08B10F23238105B0BDE8F08343
:100FF000731EB3F5806FBFD24FF47A75C0EBC00E8D
:101000000EF103034FEAE30909FB0555C3F3C703D8
:10101000C11AC9B209F101088844B5FBF8F5B5F564
:10102000617F08D90EF1FF33C3F3C703C11A581EFD
:101030000F28C9B214D84A1E072A8CBF00220122E9
:10104000581800FB0660B7FBF0F7BC4594D1002AA6
:1010500092D0ADF808608DF80A308DF80B108BE750
:101060001346EDE73411002018110020005125022D
:101070003F420F0010110020A8230020C90A0008D9
:1010800044110020950B00084C2100204011002045
:10109000482100202DE9F04F80A7D7E900670FF223
:1010A0000429D9E90089734D93B00DF1300AFFF797
:1010B000C7FC18220021504600F070F9DFF8B8B1E3
:1010C0006E4C002352461946584601F091FE0146E7
:1010D00050BB102208A800F061F9E36883F0100308
:1010E000E36000F061FC0DF1240C0B4612A90246EE
:1010F00011E903008CE803009DF83410C1F30300EC
:10110000890649BF0E99BDF83810C1F31C0141F0A2
:10111000004158BFC1F30A018DF82C000891284600
:1011200008A901F095F9CCE7284600F0DDFE044659
:10113000002847D100F036FCDFF844B1DBF800307E
:1011400098423FD300F02EFC0790FFF743FB4FF48B
:10115000C873B0FBF3F101FB1300079A83B202F5E9
:1011600016701844CBF80000DFF818B18DF8204055
:101170009BF8001011B901238DF8203050460791DB
:10118000FFF740FB07990DF12100C1F11004E4B213
:10119000062C28BF06245144224600F0EDF808AB87
:1011A000039318230293384B013401930123E4B2D3
:1011B000009332463B462846049400F0DBFE0023B1
:1011C0008BF8003000F0EEFB304A314C1368C31A44
:1011D000B3F57A7F30D3106000F0E6FB02460B4691
:1011E000284600F05FFF284600F07EFE20B3237AF9
:1011F000DFF8A0B0002B14BF032302238BF80530C7
:1012000000F0D0FB4FF47A73B0FBF3F00122CBF87F
:1012100000005146584600F0B3F9182302931E4BC4
:1012200080B2019340F25513CDE903A000934246EA
:101230004B46284600F09EFE237ABBB100F0B2FB7D
:1012400094F8E83073B9D4F8E03043B1C01A236899
:10125000FA2B38BFFA230533B0EB430F02D300203B
:10126000FFF79EFB237A002B7FF41FAF13B0BDE87E
:10127000F08F00BF4C210020A8230020000801406F
:101280004821002045210020442100207023002017
:101290007C2100203411002074230020401DA12057
:1012A00026812A0BF1C6A7C1D068080F70B501F0DE
:1012B0007DFF0024084E094D308028683388834222
:1012C00008D901F06FFF2B6804440133B4F5C84F0F
:1012D0002B60F2D370BD00BFA42300207823002030
:1012E00001F0F2BF00F10060920000F5C84001F08B
:1012F00097BF0000054B1A68054B1B889B1A834259
:1013000002D9104401F04EBF00207047782300201E
:10131000A4230020024B1B68184401F049BF00BF02
:1013200078230020024B1B68184401F053BF00BF14
:1013300078230020064991F8243033B10023082295
:10134000086A81F82430FFF7CDBF0120704700BF45
:101350007C230020022802BF1022014B1A61704733
:1013600000080140022802BF4FF48012014B1A61AD
:10137000704700BF00080140002310B5934203D01E
:10138000CC5CC4540133F9E710BD000003460246AB
:10139000D01A12F9011B0029FAD170470346024402
:1013A000934202D003F8011BFAE770472DE9F84396
:1013B0001F4D144695F824200746884652BBDFF897
:1013C00070909CB395F824302BB92022FF21484619
:1013D0002F62FFF7E3FF95F824004146C0F10802B1
:1013E000A24228BF224605EB8000D6B29200FFF74A
:1013F000C3FF95F82430A41B1E44F6B2082E1744F0
:101400009044E4B285F82460DBD1FFF793FF002815
:10141000D7D108E02B6A03EB82038342CFD0FFF7DA
:1014200089FF0028CBD10020BDE8F8830120FBE72D
:101430007C2300202DE9F0470D460446002190460C
:10144000284640F27912FFF7A9FF23462022002107
:10145000284600F09FFF022220212846231D00F08D
:1014600099FF032222212846631D00F093FF0322E7
:1014700025212846A31D00F08DFF10222821284693
:1014800004F1080300F086FF08223821284604F101
:10149000100300F07FFF08224021284604F11103C9
:1014A00000F078FF08224821284604F1120300F0DA
:1014B00071FF20225021284604F1140300F06AFF36
:1014C00040227021284604F1180300F063FF08222F
:1014D000B021284604F1200300F05CFF0822B82167
:1014E000284604F1210300F055FFC02604F122072D
:1014F0003B46314608222846083600F04BFFB6F539
:10150000A07F07F10107F3D108223146284604F1F4
:10151000320300F03FFF002704F1330A94F8323021
:101520004FEAC7099F4209F5A47615D3B8F1000F19
:1015300008D131460722284604F5997300F02AFFA6
:1015400009F24F16274694F832213B1B93420CD3E5
:10155000F01DC008BDE8F0870AEB070308223146FA
:10156000284600F017FF0137D8E7314607F233135A
:101570000822284600F00EFF08360137E3E7000096
:1015800038B50C460021054621600346C4F8031017
:101590002046202200F0FEFE20462B1D02222021A4
:1015A00000F0F8FE20466B1D0322222100F0F2FE1F
:1015B0002046AB1D0322252100F0ECFE2046102220
:1015C000282105F1080300F0E5FE072038BD0000E2
:1015D0000023F7B50E460546047F07220091194601
:1015E00000F09AFD731C0093012200230721284676
:1015F00000F092FDC4B9B31C0093052223460821D4
:10160000284600F089FD0D243746B278BB1B934273
:1016100011D32B7FE01DC008AC8ABBB9A04294BF98
:101620000020012003B0F0BDAB8A0824DB00083B9A
:10163000DB08B370E8E7FB1C214600930822002377
:10164000284600F069FD08340137DEE7001B18BFAB
:101650000120E7E70023F7B50E46047F082200913A
:101660001946054600F058FD731CC4B908220093C2
:1016700011462346284600F04FFD102401237278BE
:101680005F1C013B934211D32B7FE01DC008AC8A45
:10169000BBB9A04294BF0020012003B0F0BDAB8ACB
:1016A0000824DB00083BDB087370E7E7F3192146E9
:1016B000009308220023284600F02EFD08343B4604
:1016C000DDE7001B18BF0120E7E70000F8B50E4674
:1016D00005461446002181223046FFF75FFE2B4667
:1016E00008220021304600F055FE7CB9072208216F
:1016F00030466B1C00F04EFE0F2401236A785F1CFD
:10170000013B934204D3E01DC008F8BD0824F4E770
:101710002146EB190822304600F03CFE08343B46D7
:10172000ECE70000F8B50E46054614460021CE222F
:101730003046FFF733FE2B4628220021304600F0CA
:1017400029FE7CB908222821304605F1080300F063
:1017500021FE30242F462A7A7B1B934204D3E01DBE
:10176000C008F8BD2824F5E7214607F1090308223F
:10177000304600F00FFE08340137ECE7F7B5047F80
:101780000E460091012310220021054600F0C4FC02
:10179000C4B9B31C0093092223461021284600F047
:1017A000BBFC192437467288BB1B9A4211D82B7F89
:1017B000E01DC008AC8ABBB9A04294BF0020012044
:1017C00003B0F0BDAB8A1024DB00103BDB08738054
:1017D000E8E73B1D2146009308220023284600F03D
:1017E0009BFC08340137DEE7001B18BF0120E7E748
:1017F00030B5094D0A4491420DD011F8013B5840D3
:10180000082340F30004013B2C4013F0FF0384EA5B
:101810005000F6D1EFE730BD2083B8ED4FF0FF3335
:10182000F7B500EB81061946DFF848C0DFF848E05D
:10183000B0421BD050F8042B01AF0192042217F8DC
:10184000014B81EA046108240D46DB184941013C43
:10185000002DBCBF83EA0C0381EA0E0114F0FF04E3
:10186000F2D1013A12F0FF02E9D1E1E7D843C943CE
:1018700003B0F0BD9336EAA9EBE1F042F7B56B4651
:10188000354A106851686A4603C30823334934480F
:1018900002F0D4F8044690BB0A256B46314A106822
:1018A00051686A4603C308232F492D4802F0C6F841
:1018B0000446002847D00369B3F5CE3F43D8B0F8BB
:1018C0006620B2F57A7F3ED1284A024402F15C01DB
:1018D0008B4238D35C3B224900209E1AFFF788FFD9
:1018E00007463246002004F16401FFF781FFA36838
:1018F0009F4228D1E368984208BF002523E003698E
:10190000B3F5CE3F26D8428BB2F57A7F20D1174A65
:10191000024402F110018B4218D3103B1049002001
:101920009D1AFFF765FF06462A46002004F11801BC
:10193000FFF75EFFA3689E4202D1E368984201D0A0
:101940000D25AAE70025284603B0F0BD1025A4E721
:101950000C25A2E70B25A0E7A43A0008DC9B0100B8
:1019600000640008AD3A0008909B0100089CFFF756
:10197000EFF30983EFF30583014B9B6BFEE700BF99
:1019800000ED00E008B5FFF7F3FF0000EFF3098377
:10199000EFF30583014B5B6BFEE700BF00ED00E05A
:1019A000FEE7000001F0F6BC01F0A2BC2DE9F04119
:1019B000456A15B94162BDE8F0814B68AC4623F039
:1019C0006047C3F38A4616EA230638BF3E464FEA0D
:1019D000D37EC3F380782B465A68BEEBD27F22F0C9
:1019E00060440AD0002A18DAA40CB44217D19D42F0
:1019F0000FD10D60DEE71346EEE7A74207D102F0F4
:101A00008044C2F3807242450BD054B1EFE708D254
:101A1000EDE7CCF800100B60CDE7B44201D0B44242
:101A2000E5D81A689C46002AE5D11960C3E7000092
:101A30002DE9F0474FF47F49089D01F007044FEA74
:101A4000D508224405F0070500EBD100944201D1EE
:101A5000BDE8F08704F0070705F0070A57453E4642
:101A600038BF5646111BC6F108068E4228BF0E46E7
:101A7000E108415C08EBD50E13F80EC0B94029FA15
:101A800006F721FA0AF1FFB28CEA010147FA0AF7D8
:101A900039408CEA010C03F80EC034443544D5E7D4
:101AA000082341F2210280EA012001B2400000290E
:101AB00080B203F1FF33B8BF504013F0FF03F4D1FD
:101AC0007047000038B50C468D18A54200D138BDCE
:101AD00014F8011BFFF7E4FFF7E700000346406836
:101AE00048B1026899895A605A89013292B291428A
:101AF0005A8138BF9A81704770B504460D4688B048
:101B0000202200216846FFF749FC20460495FFF794
:101B1000E5FF024658B16B46054608AE1C4603CCAD
:101B2000B44228606960234605F10805F6D11046E5
:101B300008B070BD082817D909280CD00A280CD085
:101B40000B280CD00C280CD00D280CD00E2814BF5C
:101B50004020302070470C20704710207047142020
:101B6000704718207047202070470000082817D9B8
:101B70000C280CD910280CD914280CD918280CD9E9
:101B800020280CD930288CBF0F200E207047092048
:101B900070470A2070470B2070470C2070470D20BB
:101BA000704700002DE9F843078C0446072F1ED923
:101BB000D0E9029800254FF6FF73C5F12006A5F184
:101BC000200029FA05F108FA06F628FA00F0314358
:101BD0000143C9B21846FFF763FF0835402D03469D
:101BE000EBD13A46E169BDE8F843FFF76BBF4FF62A
:101BF000FF70BDE8F883000010B54B6823B9CA8AAE
:101C000063F30902CA8210BD04691A681C6003618B
:101C1000C38A013BC3824A60EFE700002DE9F84F19
:101C20001D46CB8A0F46C3F309010529814692461A
:101C30000B4630D00020AAB207F11A049EB2042E3F
:101C40001FFA80F80FD8904503F1010306D3FB8AF1
:101C50000A4462F309030120FB821AE01AF80060CB
:101C60000130E654EAE79045F1D21C23A1F1050BBF
:101C7000BBFBF3F203FB12BB7C681FFA8BF6002C54
:101C800045D14846FFF72AFF044638B978606FF01F
:101C90000200BDE8F88F4FF00008E6E70026066076
:101CA00078604FF0000BADB2454510D90AEB080340
:101CB000221D13F8011B08F101089155B1B21B292F
:101CC0001FFA88F82BD0454506F10106F1D8FB8AAA
:101CD000C3F30902154465F30903BCE71C4601324E
:101CE00092B22368002BF9D16B1F0B441C21B3FB6C
:101CF000F1F301339BB29A42D3D2BBF1000FD0D1A2
:101D00004846FFF7EBFE20B9C4F800B0BFE7012258
:101D1000E7E7C0F800B05E4620600446C1E74545ED
:101D2000D5D94846FFF7DAFE08B92060AFE7C0F81A
:101D300000B0002620600446B6E700002DE9F74F0A
:101D40001C465B69074688460092002B00F097808E
:101D5000238C2BB1E269002A00F09180072B33D845
:101D600007F10C00FFF7BAFE054628B96FF002052F
:101D7000284603B0BDE8F08F14220021FFF70EFBC8
:101D8000228CE16905F10800FFF7F6FA208C48F093
:101D90000041013080B2FFF7E9FEFFF7CBFE0138CA
:101DA00080B22084013028746369228C1B782A4415
:101DB00003F01F0363F03F0313723846696029463E
:101DC000FFF7F4FD0125D3E74FF000094FF0800A3B
:101DD0004E464D4600F10C0301930198FFF77EFE3D
:101DE00083460028C2D014220021FFF7D7FA002E24
:101DF0003BD10222009BABF808300BF1080E1FFA12
:101E000082FC0CF10100BCF1060F218C80B201D8DC
:101E10008E422CD3FFF7AAFEFFF78CFE8E4208BF3E
:101E20004FF0400A62690138127880B202F01F0256
:101E300042EA49120BEB00014AEA020A013048F07B
:101E4000004281F808A08BF8100059463846CBF8BC
:101E50000420FFF7ABFD238C0135B3424FF0000A9D
:101E60002DB289F00109B8D182E70022C5E7E16906
:101E7000895D01360EF80210B6B20132BFE76FF08D
:101E8000010575E7F8B5044615460E4630220021D7
:101E90001F46FFF783FA069BB5F5001F6360079B9B
:101EA00028BF4FF6FF72A3624FF0000338BF6A09E4
:101EB000A760E66197B204F110009A4206D80023A9
:101EC0000360A782E3822383E360F8BD06600133E9
:101ED00030462036F1E7000003781BB94BB2002BE7
:101EE000C8BF01707047000000787047F8B50C4615
:101EF000C969074611B9238C002B37D1257E1F2DC8
:101F000034D8387828BB228C072A2CD8268A36F079
:101F100003032BD14FF6FF70FFF7D4FD4FF6FF728E
:101F200020F001003602400446EA0565400C45EA0F
:101F30004025234629463846FFF700FF002807DDE5
:101F4000626913780133DBB21F2B88BF0023137043
:101F5000F8BD218A2D0645EA012505432046FFF7F5
:101F600021FE0246E5E76FF00300F1E76FF00100A4
:101F7000EEE7000070B504461D4616468AB02822DA
:101F800000216846FFF70AFABDF838306946ADF817
:101F900010300F9B204605939DF84030CDE9026537
:101FA0008DF81830119B0793BDF84830ADF82030FC
:101FB000FFF79CFF0AB070BD2DE9F041D3690546DB
:101FC0000C4616460BB9138C5BBB377E1F2F28D8E7
:101FD00095F80080B8F1000F26D03046FFF7E2FDFB
:101FE0003378210241EAC33141EA0801338A41EAE8
:101FF000076141EA034102463346284641F0800129
:10200000FFF79CFE00280ADD3378012B07D17269A7
:1020100013780133DBB21F2B88BF00231370BDE898
:10202000F0816FF00100FAE76FF00300F7E70000BE
:10203000F0B504460D461E4617468BB028220021F7
:102040006846FFF7ABF99DF84C3029465A1E5342BB
:1020500053418DF800309DF840306A46ADF810309D
:10206000119B204605939DF84830CDE902768DF806
:102070001830149B0793BDF85430ADF82030FFF7AB
:102080009BFF0BB0F0BD0000406A00B10430704708
:10209000436A1A68426202691A600361C38A013B9B
:1020A000C38270472DE9F041D0F8208014461D46C8
:1020B00041460027174E09B9BDE8F081D1E9022356
:1020C000A21A65EB0303964277EB03031ED2036A61
:1020D0008B420DD1FFF790FD036A1B680362036911
:1020E0000B60C38A0161016A013B8846C382E2E753
:1020F000FFF782FD0B68C8F8003003690B60C38AE4
:102100000161013BC382D8F80010D4E78846096812
:10211000D1E700BF80841E002DE9F04F8BB00D4643
:1021200014469B468046DDF85090002800F01A8146
:10213000B9F1000F00F01681531E3F2B00F21281FF
:10214000012A03D1BBF1000F40F00C810023CDE93F
:102150000833B8F81430B5EBC30F4FEAC30703D305
:1021600000200BB0BDE8F08F2B199F42D8F80C303F
:1021700036BF7F1B2746FFB21BB9D8F81030002BA3
:102180007BD0272D4ED8C5F12806B7424FF000036B
:1021900034BF3E46F6B2009329463246D8F80800CE
:1021A00008ABFFF745FCA7EB060A35445FFA8AFA4D
:1021B0002821B8F8143003F10053053BDB000493E9
:1021C000D8F80C300393039B13B1BAF1000F2CD154
:1021D000D8F8100040B1BAF1000F05D05246009671
:1021E00008AB691AFFF724FC38B2002FB8D0660795
:1021F0000AD00AAB03EBD40111F8083C624202F0AA
:102200000702134101F8083C082C3DD9102C40F27C
:10221000B680202C40F2B880BBF1000F00F09D800A
:10222000082335E0BA460026C2E7049BE02B28BF0E
:10223000E02306930B44AB42059315D95A1B9245F4
:1022400038BF5246039828BFD2B20096691A08AB2D
:1022500004300792FFF7ECFB079A1644AAEB020A38
:102260001544F6B25FFA8AFA049B069A05999B1AFE
:102270000493039B1B680393A5E700933A46294602
:10228000D8F8080008ABADE7BBF1000F13D001236D
:10229000B4EBC30F6CD0082C12D89DF82030621E0E
:1022A00023FA02F2D50706D54FF0FF3202FA04F402
:1022B00023438DF820309DF8203089F8003050E716
:1022C000102C12D8BDF82030621E23FA02F2D1077A
:1022D00006D54FF0FF3202FA04F42343ADF8203064
:1022E000BDF82030A9F800303BE7202C0FD8089922
:1022F000631E21FA03F3DA0705D54FF0FF3202FA25
:1023000004F40C430894089BC9F8003029E7402CDA
:102310002BD0DDE90865611EC4F12102A4F121037F
:1023200026FA01F105FA02F225FA03F311431943E3
:10233000CB0712D50122A4F12003C4F1200102FA37
:1023400003F322FA01F1A240524243EA010363EB94
:10235000430332432B43CDE90823DDE90823C9E9D0
:102360000023FEE66FF00100FBE66FF00800F8E6E0
:10237000082CA0D9102CB3D9202CEED8C3E7BBF180
:10238000000FADD0022383E7BBF1000FBBD00423C5
:102390007EE70000012A30B5144638BF012200252F
:1023A000402A28BF402285B0012CCDE9025517D81C
:1023B0001B788DF8083053070AD004AB03EBD20525
:1023C00015F8083C544204F00704A34005F8083C03
:1023D0000346009102A80021FFF72AFB05B030BD9B
:1023E000082CE5D9102C03D81B88ADF80830E2E79B
:1023F000202C02D81B680293DDE7D3E90045CDE924
:102400000245D8E710B5CB681BB98B600B618B8296
:1024100010BD04691A681C600361C38A013BC38252
:10242000CA60F0E703064CBFC0F3C030022070471B
:1024300008B50246FFF7F6FF022806D15306C2F39D
:102440000F2001D100F0030008BDC2F30740FBE7F5
:102450002DE9F04F93B0CDE903230A6804461046F6
:10246000FFF7E0FF02280CBF0026C2F30626002A71
:102470000D46824680F2F98112F0C04940F0F581A4
:10248000097B002900F0F181022803D02378B342B0
:1024900040F0EE81C2F304631046069302F07F031E
:1024A0000593FFF7C5FF059B00224FEA83480023F1
:1024B00048EA0A48294448EA4668CE78CDE9082324
:1024C000F309834648EA0008029367D0059B024659
:1024D000009320465346676808A9B847002800F0D3
:1024E000CA81276A4FB9414604F10C00FFF704FB8B
:1024F000074690B96FF0020054E03B6998450DD053
:102500003F68002FF9D1414604F10C00FFF7F4FABF
:1025100007460028EED0236A3B60276297F817C071
:1025200006F01F08CCF3840CACEB08001FFA80FE09
:102530000028B8BF0EF12000A8EB0C031FFA83FEA1
:10254000B8BF00B2002B0793BEBF0EF120031BB231
:102550000793D7E9022152EA010338D04FF0000C6B
:10256000039BDFF8F8E19A1A049B63EB010196459F
:102570007CEB01032BD36B7B97F81AE0734519D1E1
:10258000029B002B78D0012821DC7868F8B9DFF8AD
:10259000D0C1944570EB010316D337E0276A27B901
:1025A0006FF00C0013B0BDE8F08F3B699845B5D0D3
:1025B0003F68F4E76A4890427CEB010301D30020B6
:1025C000F0E7029B002BFAD0079B0F2B17DCFA7D5C
:1025D000B30002F0030203F07C031343FB7539469A
:1025E0002046FFF709FB6B7BBB76029B3BB9FB7D6B
:1025F000C3F38402013262F38603FB75D0E76A7B82
:10260000BB7E9A42DBD1029B002B35D0B309022B53
:1026100032D0039B1422BB60049B0021FB600DA8F9
:10262000FEF7BCFE039B20460A93049BADF83EB028
:102630000B932B1D0C932B7B8DF840A0013BDBB241
:10264000ADF83C30069B8DF841808DF84230059BFB
:102650000AA98DF8433094F82C3083F001038DF8EB
:102660004430A3689847FB7DC3F38403013303F030
:102670001F039B02FB82A2E7FB7DC6F34012B2EB75
:10268000D31F40F0FB80C3F38403434540F0F9803F
:10269000029A2B7BB609002A4DD0F20762D4032B95
:1026A00040F2F280039BAE1DBB60049B3246FB6090
:1026B0002B7B3946033BDBB204F10C00FFF7AEFA8B
:1026C00000280CDA39462046FFF796FAFB7DC3F363
:1026D0008403013303F01F039B02FB820AE7AB88EC
:1026E000DDE908843B834FF6FF73C9F12000A9F1AF
:1026F000200228FA09F104FA00F0014324FA02F258
:1027000011431846C9B2FFF7CBF909F10809B9F12D
:10271000400F0346E9D13146B8822A7B033AD2B250
:10272000FFF7D0F9FB7DB882DA43C2F3C01262F33F
:10273000C713FB7543E7AEB92E1D013B3246394640
:10274000DBB204F10C00FFF769FA0028BADB2A7B40
:102750003146013AB88AD2B2E2E700BF80841E0057
:1027600040420F00F98A013BC1F309010429DAB2A2
:102770005DD80023281D07F11B069A4208D910F8DE
:1027800001CB013306F801C001310529DBB2F4D1D8
:10279000934228BF0023039938BF04330A91049958
:1027A00038BFDBB20B9107F11B010C91796838BF80
:1027B0005B190D910E93FB8AADF83EB0C3F309038C
:1027C0001A44069BADF83C208DF84230059B8DF8ED
:1027D00040A08DF8433094F82C308DF8418083F080
:1027E00001038DF8443000237B602A7BB88A013ACC
:1027F000291DFFF767F93B8BB882834203D120463E
:10280000A3680AA9984720460AA9FFF7FBFDFB7DAC
:10281000BA8AC3F38403013303F01F039B02FB82D4
:102820003B8B9A420CBF00206FF01000BAE67B6829
:10283000002BADD0052001E033461C301E68002E71
:10284000FAD1091A081D2E1D184401EB090CBCF120
:102850001B0F5FFA89F39BD89A4299D916F8013B6E
:1028600009F1010900F8013BEFE76FF0090099E673
:102870006FF00A0096E66FF00B0093E66FF00D0024
:1028800090E66FF00E008DE66FF00F008AE600BF55
:10289000F0B53F4D3F4FEB6943F00073EB61EB69DF
:1028A0003D4B9B6AD3F800623E4046F00106C3F8F8
:1028B0000062D3F800423C4044EA002444F00104A2
:1028C000C3F80042002955D000200646C3F81C0278
:1028D000C3F80402C3F80C02C3F8140203EBC004EB
:1028E00001300E28C4F84062C4F84462F6D10027D3
:1028F0004FF0010C9678148816F0010F18BFD3F82A
:1029000004E20CFA04F01CBF40EA0E0EC3F804E225
:1029100016F0020F18BFD3F80CE203EBC4041CBF7F
:1029200040EA0E0EC3F80CE2760748BFD3F81462F3
:1029300007F1010744BF0643C3F814625668B94261
:10294000C4F84062966802F10C02C4F84462D3F8FD
:102950001C4240EA0400C3F81C02CBD1D3F8002289
:1029600022F00102C3F80022EB6923F00073EB614F
:10297000EB69F0BD0122C3F84012C3F84412C3F85A
:102980000412C3F81412C3F80C22C3F81C22E5E7A2
:10299000001002400000FFFFA8230020184A08B5DD
:1029A000916A8B688B6013F0010104D013F00C0F57
:1029B00018BF4FF48031D80506D513F4406F14BF0B
:1029C00041F4003141F00201D80306D513F4402F41
:1029D00014BF41F4802141F00401D3690BB10848D0
:1029E0009847302383F311880021064800F022FB2A
:1029F000002383F31188BDE8084000F0ABBD00BFA1
:102A0000A8230020B023002038B5124CA36ADD684B
:102A1000AA0712D05A6922F002025A61A36913B1BF
:102A2000012120469847302383F3118800210A486A
:102A300000F000FB002383F31188EB0606D510217C
:102A4000A36AD960236A0BB102489847BDE83840B1
:102A500000F080BDA8230020B823002038B5124C18
:102A6000A36A1D69AA0712D05A6922F010025A619E
:102A7000A36913B1022120469847302383F31188BC
:102A800000210A4800F0D6FA002383F31188EB06F0
:102A900006D51021A36A1961236A0BB10248984731
:102AA000BDE8384000F056BDA8230020B823002020
:102AB00038B50F4CA36A5D682A075D600AD5042209
:102AC00022701A6822F002021A60636A13B10021B0
:102AD000204698476B0706D5A36A9969236A13B104
:102AE000034809049847BDE8384000F033BD00BFF3
:102AF000A823002010B50E4C204600F02FF90D4BF6
:102B00000B211320A36200F009F90B21142000F01F
:102B100005F90B21152000F001F90B21162000F01A
:102B2000FDF8BDE8104000220E201146FFF7B0BEB0
:102B3000A8230020006400400F4B10B598420446C3
:102B400005D10E4BDA6942F00072DA61DB690122CD
:102B5000A36A1A60A36A5A68D20707D562685168E7
:102B60001268D9611A60064A5A6110BD0121082015
:102B700000F0B0F9EEE700BFA823002000100240EB
:102B80005B87010003291AD8DFE801F0020A0F145D
:102B9000836A9B6813F0E05F14BF01200020704738
:102BA000836A9868C0F380607047836A9868C0F34E
:102BB000C0607047836A9868C0F300707047002057
:102BC0007047000010B5032927D8DFE801F002277D
:102BD0002B2F836A9968C1F30161183103EB01134C
:102BE0001078840648BF5468C0F3001158BF948819
:102BF0004FEA410148BF41EAC40100F00F005860AC
:102C000048BF41F00401906858BF41EA4451D2687E
:102C100041F001019860DA60196010BD836A03F524
:102C2000C073DDE7836A03F5C873D9E7836A03F5E8
:102C3000D073D5E701290AD002290FD081B9836A60
:102C4000DA68920701D1186903E001207047836AAE
:102C5000D86810F0030018BF01207047836AF2E7BC
:102C60000020704710B539B9836AD96889071BD12C
:102C70001B699C0704D110BD012915D00229FAD186
:102C8000816AD1F8C031D1F8C441D1F8C8011061CE
:102C9000D1F8CC015061202008610869800717D164
:102CA000486940F0100012E0816AD1F8B031D1F8E3
:102CB000B441D1F8B8011061D1F8BC0150612020B5
:102CC000C860C868800703D1486940F002004861C5
:102CD000C3F34000C3F38001000140EA41111079C1
:102CE00020F030000143117189064BBF91681189B2
:102CF000DB085B0D4CBF63F31C0163F30A0113791E
:102D000048BF916064F3030313714FEA14234FEA41
:102D1000144458BF118113705480ACE7012209019B
:102D200000F1604303F56143C9B283F8001300F07A
:102D30001F039A4043099B0003F1604303F561437D
:102D4000C3F880211A607047090100F16040C9B2E0
:102D500000F56D4001767047FFF7CCBE012303708C
:102D6000002300F10802C0E9022200F11002C0E9CC
:102D70000422C0E90633C0E908334360704700000D
:102D800010B53023044683F3118802234160037099
:102D9000FFF7D2FE04230020237080F3118810BDBA
:102DA0002DE9F0411F4604460D461646302383F3B5
:102DB000118800F108082378052B0DD029462046FC
:102DC000FFF7E0FE40B1204632462946FFF7FAFE03
:102DD000002080F3118808E03946404600F01AF9D7
:102DE0000028E8D0002383F31188BDE8F0810000BB
:102DF0002DE9F0411F4604460D461646302383F365
:102E0000118800F110082378052B0DD029462046A3
:102E1000FFF710FF40B1204632462946FFF722FF58
:102E2000002080F3118808E03946404600F0F2F8AF
:102E30000028E8D0002383F31188BDE8F08100006A
:102E400000238268037503691B6899689142FBD26D
:102E50005A680360426010605860704700238268BF
:102E6000037503691B6899689142FBD85A6803602F
:102E7000426010605860704708B50846302383F3FD
:102E800011880B7D032B05D0042B0DD02BB983F3B8
:102E9000118808BD00228B691A604FF0FF338361EF
:102EA000FFF7CEFF0023F2E7D1E9003213605A604A
:102EB000F3E70000FFF7C4BF054BD9680875186831
:102EC000026853601A6001220275D860FDF79ABB50
:102ED000D823002030B50C4B0446DD684B1C87B06E
:102EE0000FD02B466846094A00F0CAF82046FFF783
:102EF000E3FF009B13B1684600F0CAF8A86907B069
:102F000030BDFFF7D9FFF9E7D8230020792E00085C
:102F1000044B1A68DB6890689B68984294BF002055
:102F200001207047D8230020084B10B51C68D868D2
:102F3000226853601A6001222275DC60FFF78EFF61
:102F400001462046BDE81040FDF75CBBD8230020B9
:102F500038B501230025064C0649074823706560F3
:102F600000F03EFB0223237085F3118838BD00BFBB
:102F700030250020BC3A0008D823002000F09AB881
:102F80008B60022308618B82084670478368A3F137
:102F9000440243F8142C026943F8442C426943F874
:102FA000402C094A43F8242CC268A3F1200043F8BE
:102FB000182C022203F80C2C002203F80B2C034AD5
:102FC00043F8102C704700BF15060008D8230020D6
:102FD00008B5FFF7DBFFBDE80840FFF76BBF000057
:102FE000024BDB6898610F20FFF766BFD8230020F3
:102FF000302383F31188FFF7F3BF000008B50146C3
:10300000302383F311880820FFF764FF002383F344
:10301000118808BD064BDB6839B1426818605A60F8
:10302000136043600420FFF755BF4FF0FF30704737
:10303000D823002038B504460D462068844200D1CC
:1030400038BD036823605C608561FFF733FFF4E7F8
:1030500010B50A4C23699A6891420CD85A6881606D
:103060000360426010609A685860511A99604FF08E
:10307000FF33A36110BD1B68891AECE7D823002039
:10308000C0E90323002310B410BC4361FFF7E0BF85
:10309000036881689A680A449A60426813605A60BB
:1030A00000234FF0FF320360014B9A61704700BF6D
:1030B000D823002070B5124D2A46EB690133EB612D
:1030C00052F8103F934206D030269A68013A9A602F
:1030D0002C69A36803B170BDD4E900210A60516076
:1030E000236083F311882046D4E90331984786F39F
:1030F000118861690029EBD02046FFF7A9FFE7E7B7
:10310000D8230020054A30B5D369D2E908451B1BF6
:10311000181945F10001C2E9080130BDD82300208B
:1031200000207047FEE70000704700004FF0FF30BE
:1031300070470000BFF34F8F024AD368DB07FCD40F
:10314000704700BF0020024008B5074B1B7853B9F9
:10315000FFF7F0FF054B1A69120641BF044A5A6097
:1031600002F188325A6008BD482500200020024044
:103170002301674508B5054B1B7833B9FFF7DAFF24
:10318000034A136943F08003136108BD48250020FA
:10319000002002407F289ABF00F500308002002006
:1031A000704700004FF48060704700008020704737
:1031B0007F2808B50BD8FFF7EDFF00F580630268A4
:1031C000013204D104308342F9D1012008BD00202E
:1031D000FCE700007F2810B504461CD8FFF7AAFFC3
:1031E000FFF7B2FFF3220D4B4FF48061DA60022249
:1031F0001A61FFF7CFFF58611A6942F040021A6165
:10320000FFF798FF00F02EF9FFF7B4FF2046BDE866
:103210001040FFF7CDBF002010BD00BF00200240CE
:103220002DE9F843054612F00100144606D040F29D
:10323000033200201E4B1A60BDE8F8831D4BAA180C
:103240009A4204D94FF44272194B1A60F4E7FFF71F
:103250007BFF4FF00109FFF76DFFDFF85C806D1A0F
:10326000012C0F4605EB010603D8FFF783FF012071
:10327000E2E73B88C8F8109033800020FFF75AFF40
:10328000C8F81000338831F8022B9BB29A420CD058
:1032900040F21F32064B1A60084B1E60084B1C6040
:1032A000084B1F60FFF766FFC6E7023CD8E700BF88
:1032B000442500200000020800200240382500209C
:1032C000402500203C250020084908B50B7828B18E
:1032D0001BB9FFF739FF01230B7008BD002BFCD091
:1032E000BDE808400870FFF745BF00BF4825002033
:1032F00038B5EFF31185BDBBEFF30584C4F30804C3
:103300003023C4B183F31188FFF7FCFE44014B0165
:10331000241A43EAD06363EB0103A2009B00121856
:1033200043EA947341EB0301C900D00041EA5271B2
:1033300085F3118838BD83F31188FFF7E3FE45015B
:103340004B012D1A43EAD06363EB0103AA009B00F3
:10335000121843EA957341EB0301C900D00041EA1A
:10336000527184F3118838BDFFF7CCFE44014B0144
:10337000241A43EAD06363EB0103A2009B001218F6
:1033800043EA947341EB0301C900D00041EA527152
:1033900038BD00BF38B5FFF7ABFF00230F4A104C14
:1033A000C00840EA4170A0FB025EC908A0FB040C03
:1033B000A1FB0440A1FB02121CEB050C5B411CEBC2
:1033C000040C43EB000011EB0E0142F10002411826
:1033D00042F10000090941EA007038BDA59BC420F4
:1033E000CFF753E310B5094C013AD2B2FF2A00D10E
:1033F00010BD500854F82030013054F820009BB222
:1034000043EA004341F8043BEEE700BF046C004090
:1034100010B50748013AD2B2FF2A00D110BD0C887E
:10342000530840F823404C88013340F82340F1E72B
:10343000046C004007B50122002001A9FFF7D2FF6C
:10344000019803B05DF804FB13B50446FFF7F2FFE3
:10345000A04205D00122002001A90194FFF7D8FF66
:1034600002B010BD7047000045F25552064B1A607D
:1034700002225A6040F6FF729A604CF6CC421A6003
:103480000122024B1A707047003000405025002086
:10349000034B1B781BB14AF6AA22024B1A607047F5
:1034A0005025002000300040044B1A682AB902F170
:1034B000804202F50432526A1A6070474C2500209F
:1034C0004FF08072014B5A62704700BF00100240FB
:1034D00008B5FFF7E9FF024B1868C0F3407008BD5C
:1034E0004C25002008B5FFF7DFFF024B1868C0F33A
:1034F000007008BD4C250020EFF30983203383F3CF
:103500000988002383F3118870470000302080F37E
:10351000118862B60C4B0D4AD96821F4E0610904A8
:10352000090C0A43DA60D3F8FC20094942F08072A2
:10353000C3F8FC200A6842F001020A602022DA7710
:1035400083F82200704700BF00ED00E00003FA0599
:10355000001000E0302310B583F311880B4B5B683B
:1035600013F400630FD0EFF309844FF08073203C15
:10357000E36184F30988FFF7CBFC10B1044BA3612E
:1035800010BD044BFBE783F31188F9E700ED00E081
:10359000270600082A06000870470000FEE7000022
:1035A0000A4B0B480B4A90420BD30B4BC11EDA1C43
:1035B000121A22F003028B4238BF00220021FDF7CD
:1035C000EDBE53F8041B40F8041BECE7343B000845
:1035D000D4250020D4250020D4250020FEE70000BB
:1035E00070B5002504461A4B86B0586085620163A9
:1035F0000E46FFF78BFF04F11003C4E904334FF0CC
:10360000FF33A361134BE561D9692B460A46204677
:10361000C4E9082304F134018023C4E900440E4ABC
:10362000A560E5622565FFF7ABFC01230B4AE0606E
:1036300003750092726868460192B268CDE9022370
:10364000074BCDE90435FFF7C3FC06B070BD00BFE2
:1036500030250020D8230020C83A0008CD3A0008C1
:10366000DD35000800F030B808B500F063F9FFF769
:103670006FFCBDE80840FFF717BF0000704700006F
:103680004FF0FF310E4B1A6919611A6900221A6155
:103690001869D868D960D968DA60DA68DA6942F0FE
:1036A0008052DA61DA69DA6942F00062DA61054A69
:1036B000DB69136843F48073136000F01BB900BF2B
:1036C0000010024000700040194B1A6842F00102DD
:1036D0001A601A689007FCD51A6802F0F9021A609D
:1036E00000225A605A6812F00C0FFBD11A6842F49B
:1036F00080321A601A689103FCD55A6842F4E812C5
:103700005A601A6842F080721A601A689201FCD5F9
:103710001221084A5A60084A11605A6842F00202AF
:103720005A605A6802F00C02082AFAD1704700BFAA
:103730000010024000641D0000200240084A08B545
:10374000516913680B4003F00103536123B1054A2B
:1037500013680BB150689847BDE80840FFF7FABE00
:103760000004014054250020084A08B55169136837
:103770000B4003F00203536123B1054A93680BB178
:10378000D0689847BDE80840FFF7E4BE0004014058
:1037900054250020084A08B5516913680B4003F00E
:1037A0000403536123B1054A13690BB1506998476B
:1037B000BDE80840FFF7CEBE0004014054250020BC
:1037C000084A08B5516913680B4003F008035361B8
:1037D00023B1054A93690BB1D0699847BDE8084009
:1037E000FFF7B8BE0004014054250020084A08B580
:1037F000516913680B4003F01003536123B1054A6C
:10380000136A0BB1506A9847BDE80840FFF7A2BEA3
:103810000004014054250020174B10B55A691C685C
:10382000144004F478725A61A30604D5134A936ACB
:103830000BB1D06A9847600604D5104A136B0BB1E0
:10384000506B9847210604D50C4A936B0BB1D06B93
:103850009847E20504D5094A136C0BB1506C9847A0
:10386000A30504D5054A936C0BB1D06C9847BDE80D
:103870001040FFF76FBE00BF000401405425002038
:103880001A4B10B55A691C68144004F47C425A6102
:10389000620504D5164A136D0BB1506D9847230588
:1038A00004D5134A936D0BB1D06D9847E00404D54D
:1038B0000F4A136E0BB1506E9847A10404D50C4A01
:1038C000936E0BB1D06E9847620404D5084A136F0B
:1038D0000BB1506F9847230404D5054A936F0BB181
:1038E000D06F9847BDE81040FFF734BE0004014098
:1038F00054250020062108B50846FFF70FFA0621D7
:103900000720FFF70BFA06210820FFF707FA062128
:103910000920FFF703FA06210A20FFF7FFF9062125
:103920001720FFF7FBF9BDE8084006212820FFF724
:10393000F5B9000008B5FFF7A3FE054800F00CF844
:10394000FFF70AFAFFF79AFEBDE8084000F002B858
:10395000D43A000800F042B8002319461C4A01334B
:10396000102BC2E9001102F10802F8D1194B9A6933
:1039700042F07D029A619B690268174BDA608268A7
:103980005A6042681A60C26803F58063DA6042696F
:103990005A6002691A608269C3F80C24026AC3F88B
:1039A0000424C269C3F80024426AC3F80C28C26A1E
:1039B000C3F80428826AC3F80028026BC3F80C2CF1
:1039C000826BC3F8042C426BC3F8002C704700BF15
:1039D0005425002000100240000801404FF0E02371
:1039E000044A08215A6100229A6107220B201A61B9
:1039F000FFF7AAB93F19010008B5302383F31188F6
:103A0000FFF7BCFA002383F3118808BD08B5FFF760
:103A1000F3FFBDE80840FFF79DBD000010B5013978
:103A20000244904201D1002005E0037811F8014FD3
:103A3000A34201D0181B10BD0130F2E72DE9F0417F
:103A40009BB10446C91A1778014403F1FF3C8C422C
:103A5000204601D9002008E005780134BD42F6D1A6
:103A60000CEB0405D618A54201D1BDE8F08115F88C
:103A7000018D16F801EDF045F5D0E8E7034611F8A1
:103A8000012B03F8012B002AF9D170476F72672EC2
:103A90006172647570696C6F742E663130332D47B6
:103AA0005053000040A2E4F1646891060041A3E590
:103AB000F26569920700000063300000B83A000820
:103AC00030240020302500206D61696E0069646C2F
:103AD0006500000000180000444441444454494437
:103AE00001000000424444444444444400000000B7
:103AF0004444444444444444000000004444444496
:103B00004444444400000000444444444444444485
:103B1000E803000000000000009C0100000000001D
:103B2000640000000000000040420F00FE2A010077
:043B3000D2040000BB
:00000001FF
