:020000040800F2
:1000000000090020B1010008E52200089D22000837
:10001000C52200089D220008BD220008B301000887
:10002000B3010008B3010008B3010008D932000889
:10003000B3010008B3010008B3010008A94000089B
:10004000B3010008B3010008B3010008B3010008C0
:10005000B3010008B30100088D3D0008B93D000858
:10006000E53D0008113E00083D3E0008B3010008D0
:10007000B3010008B3010008B3010008B301000890
:10008000B3010008B3010008B301000851220008C1
:100090007D2200088D220008B3010008693E000897
:1000A000B3010008B3010008B3010008B301000860
:1000B000B3010008B3010008B3010008B301000850
:1000C000B3010008B3010008B3010008B301000840
:1000D000B301000899420008AD420008B3010008CE
:1000E000D13E0008B3010008B3010008B3010008C5
:1000F000B3010008B3010008B3010008B301000810
:10010000B3010008B3010008B3010008B3010008FF
:10011000B3010008B3010008B3010008B3010008EF
:10012000B3010008B3010008B3010008B3010008DF
:10013000B3010008B3010008B3010008B3010008CF
:10014000B3010008B3010008B3010008B3010008BF
:10015000B3010008B3010008B3010008B3010008AF
:10016000B3010008B3010008B3010008B30100089F
:10017000B3010008B3010008B3010008B30100088F
:10018000B3010008B3010008B3010008B30100087F
:10019000B3010008B3010008B3010008B30100086F
:1001A000190F00080000000000000000000000001F
:1001B00002E000F000F8FEE772B6374880F30888E6
:1001C000364880F3098836483649086040F2000016
:1001D000CCF200004EF63471CEF200010860BFF39D
:1001E0004F8FBFF36F8F40F20000C0F2F0004EF669
:1001F0008851CEF200010860BFF34F8FBFF36F8FBD
:100200004FF00000E1EE100A4EF63C71CEF2000114
:100210000860062080F31488BFF36F8F03F06AFC38
:1002200003F0DEFC4FF055301F491B4A91423CBFA2
:1002300041F8040BFAE71D49184A91423CBF41F8C6
:10024000040BFAE71A491B4A1B4B9A423EBF51F86E
:10025000040B42F8040BF8E700201849184A9142B1
:100260003CBF41F8040BFAE703F048FC03F0F4FC50
:10027000144C154DAC4203DA54F8041B8847F9E7D7
:1002800000F042F8114C124DAC4203DA54F8041B52
:100290008847F9E703F030BC000900200011002076
:1002A0000000000808ED00E0000100200009002027
:1002B00098480008001100207C11002080110020C7
:1002C000543C0020A0010008A4010008A40100087B
:1002D000A40100082DE9F04F2DED108AC1F80CD0D3
:1002E000C3689D46BDEC108ABDE8F08F002383F300
:1002F00011882846A047002003F052F9FEE703F0DA
:10030000DBF800DFFEE70000F8B500F017FE03F0B1
:1003100095FB074603F0E4FB064600283ED12B4B35
:100320009F423BD001339F423BD0294B27F0FF0235
:100330009A4239D1F8B200F03DFC354642F21074D1
:1003400000F03EFC08B10024254601F0ADF878B37A
:10035000032000F043F80024254636B11D4B9F4290
:1003600003D003F0B5FB00242546002003F070FB0A
:10037000194B1B6913F040031FD00DB100F044F876
:1003800000F050FC01F0B6FF0546C4B101F0B2FF29
:10039000401BA04213D900F037F8F3E7354600249C
:1003A000CEE704460125CBE705464FF47A74C7E74C
:1003B000B4F57A7F08BF0125CFE71C46E0E700F0DF
:1003C00079FC012003F0F2F8DFE700BF010007B07D
:1003D000000008B0263A09B000040048084B187025
:1003E00003280CD8DFE800F008050208022000F01E
:1003F00001BE022000F0F6BD024B00225A60704799
:10040000801100208411002038B501F04DF830B182
:100410001F4B03221A701F4B00225A6038BD1E4B1F
:100420001E4A19680131F9D004339342F9D11C4CAA
:10043000194DD4F80428AA42F0D31A4B9B6803F153
:10044000006303F5D0439A42E8D203F015FB03F0B2
:1004500027FB002000F08CFD0220FFF7BFFF124BAE
:10046000DA690022DA61D96999699A619B6972B681
:100470004FF0E0233021C3F8085DD4F80038D4F8F9
:10048000042881F311889D4683F308881047C5E747
:1004900080110020841100200068000820680008F6
:1004A000006000080011002000100240094A136893
:1004B00049F2690099B21B0C00FB01331360064B33
:1004C000186844F2506182B2000C01FB020018600F
:1004D00080B27047141100201011002010B50021C7
:1004E0001022044600F0A0FD034B03CB20606160A6
:1004F0001868A06010BD00BFACF7FF1F2DE9F041E8
:10050000ADF54E7D0DF134086CAC40F27512074626
:100510000D460EA80021C8F8001000F085FD4FF42C
:10052000C4720021204600F07FFD01F0E3FE254B60
:100530004FF47A72B0FBF2F0186093E807000223E0
:1005400084E807000DF5E9702382FFF7C7FF4EF638
:1005500003431D49238406A804F0D4F8192384F822
:1005600032310DF2E32206AB0DF1300C1E4603CE04
:10057000664510605160334602F10802F6D13378C7
:10058000137041460122204600F09AFD0023039398
:10059000AB7E029305F11903019380B20123CDE9EB
:1005A00004800093E97E05A3D3E90023384602F0D6
:1005B00069FA0DF54E7DBDE8F08100BF9E6AC42149
:1005C000818A46EE8C110020144700082DE9F04185
:1005D0002C4C237ADAB080460D465BBB27A928460F
:1005E00000F07EFE0746002842D19DF89D60C82E8F
:1005F0003ED801464FF4A662204600F015FD4FF4A8
:100600008073C4F8F8314FF40073C4F80C334FF41E
:100610004073C4F8203432460DF19E0104F1090004
:1006200000F0F0FC26449DF89C30777223720BB9E1
:10063000EB7E23728122002106AC27A800F0F4FC97
:100640000122214627A800F087FE00230393AB7EFA
:10065000029305F1190380B201932823CDE90440E8
:100660000093E97E05A3D3E90023404602F00AFA8D
:100670005AB0BDE8F08100BFAFF30080264172722E
:10068000DF25D7B7B0320020F0B5254E4FF48A757C
:1006900005FB0065F1B096F8D83085F8DC30002411
:1006A000D822214685F8E8403AA800F0BDFC06F1C2
:1006B000090000F0B1FCD5F8E4308DF8F000C2B2CA
:1006C00006AF06F109010DF1F100CDE93A3400F071
:1006D00099FC394601223AA800F06AFE80B2CDE9C1
:1006E000047008230127CDE9023706F1D8030193EE
:1006F00030230093317A0B4807A3D3E9002302F09B
:10070000C1F9A04206DD01F0F5FDC5F8E00038466C
:1007100071B0F0BD2046FBE778F6339F93CACD8DCC
:10072000B0320020A42100202DE9F0411D4D1E4EC5
:100730001E4F86B0284602F0D1F9034658B3002474
:10074000CDE90344ADF81440027B8DF8142099687C
:100750004068029403AA03C21B68DFF8548043F088
:100760000043029301F0C8FD821941F10003009497
:1007700002A9384601F072F8A04205DD284602F0D1
:10078000B1F988F80040D5E798F80030072B05D874
:10079000013388F8003006B0BDE8F081014802F06E
:1007A000A1F9F8E7A421002040420F00D821002041
:1007B000E537002070B50D4614461E4602F0BEF81F
:1007C00050B9022E10D1012C0ED112A3D3E900236F
:1007D000C5E90023012007E0282C10D005D8012C02
:1007E00009D0052C0FD0002070BD302CFBD10BA3FD
:1007F000D3E90023ECE70BA3D3E90023E8E70BA33D
:10080000D3E90023E4E70BA3D3E90023E0E700BF2B
:10081000AFF30080401DA12026812A0B78F6339F7C
:1008200093CACD8D9E6AC421818A46EE264172729A
:10083000DF25D7B7F017304A39059E5638B505463B
:100840000E4C0021013500F0B5FBA4F82C55B4F88E
:100850002C0500F097FB78B1B4F82C0500F0A2FB52
:10086000014648B9B4F82C0500F0A4FBB4F82C35C7
:100870000133A4F82C35EAE738BD00BFB0320020C0
:1008800010B50A4B0A4A1A6003F5805393F86020AA
:100890003AB9DC6D2CB1204600F080FE204603F012
:1008A00071FEBDE81040034800F078BED82100205A
:1008B0006C470008203200202DE9F04F8FB000AFC8
:1008C00005460C4602F03AF8002849D1237E022B57
:1008D0001BD1E38A012B18D101F00CFD0646FFF76E
:1008E000E5FD03464FF4C870DFF8C482B3FBF0F2B5
:1008F00006F5167602FB103316FA83F3C8F80030BB
:10090000E37E33B9A34B00221A703C37BD46BDE8E5
:10091000F08F07F12401204600F0A0FC0028F4D15C
:1009200007F11400FFF7DAFD97F8264007F11401EC
:10093000224607F1270003F06FFE0028E2D10F2CBA
:1009400008D8944B1C70D8F80030A3F51673C8F87B
:100950000030DAE797F82410284601F0E7FFD4E7E3
:10096000E38A282B2BD010D8012B23D0052BCCD1F8
:10097000BFF34F8F8849894BCA6802F4E062134382
:10098000CB60BFF34F8F00BFFDE7302BBDD1844E4E
:10099000E17E327A9142B8D1607E3146002291F8F0
:1009A000DC50854200F0A5800132042A01F58A71ED
:1009B000F5D1AAE721462846FFF7A0FDA5E7214685
:1009C0002846FFF703FEA0E7B2F8EC507B6005F184
:1009D00003094FEA99094FEA8902D11DC908A8EB1A
:1009E000C1039D46EB460021584600F01DFB04F173
:1009F000EE012A463144584600F004FB7B6813B9E7
:100A0000012000F0B5FA96F8D20000F0BBFA0446D7
:100A100030B9307200F0D6FA204600F0A9FAB1E001
:100A2000D6F8D4203AB996F8D200B6F82C258242EE
:100A300001D8FFF703FFD6F8D4202A44944208D205
:100A400096F8D200B6F82C250130824201D8FFF783
:100A5000F5FE70685FFA89F2594600F0EDFA08B9C0
:100A6000C54679E0726896F8D2002A447260D6F8DA
:100A7000D42005EB0209C6F8D49000F083FA814532
:100A800009D396F8D220D6F8D4000132001B86F89C
:100A9000D220C6F8D400FF2D0FD80024347200F005
:100AA00091FA204600F064FA00F0FEFC3D4B1881FC
:100AB00008B9FFF7A9FCC54627E7BB6896F8D90037
:100AC0000AFB0362FB68D2F8E41082F8E83001F513
:100AD0008061C2F8E030C2F8E410FFF7D5FDFFF7FF
:100AE00023FE96F8D920013202F0030286F8D920BD
:100AF000B6E74FF48A7A0AFB02F505F1EA013144C0
:100B0000204600F081FCF86000287FF4FEAE3544FA
:100B1000012285F8E82001F0EDFBD5F8E020D6EDC4
:100B2000007ADFED216A801A192838BF192040F6B3
:100B3000B832904228BF1046B8EE677A07EE900AA6
:100B4000F8EEE77A67EEA67ADFED186AE7EE267A26
:100B5000FCEEE77AC6ED007A96F8D930BB60BA6849
:100B600073680AFB02F4321992F8E81059B1D2F80E
:100B7000E4108B42E8463FF427AF002182F8E810EA
:100B8000C2F8E010C5467368064A9B0A0133138118
:100B9000BBE600BF9D21002000ED00E00400FA0547
:100BA000B03200208C110020CDCCCC3D6666663F73
:100BB000A0210020014B1870704700BF9811002041
:100BC00038B54FF00054134B22689A4220D1124B93
:100BD000627D12481A70237D03724FF48073C0F84F
:100BE000F8314FF40073C0F80C3300254FF4407314
:100BF000C0F820340A49C0F8E450C922093000F096
:100C000001FAE0222946204600F00EFA012038BD04
:100C10000020FCE79AAD44C598110020B0320020B6
:100C20001600002037B500F03FFC194D1949288106
:100C30000223012218486B7101F0F8F90023019397
:100C4000164B174900931748174B4FF4805201F089
:100C500045FE164B197811B1124801F067FE01F0FC
:100C600049FB0446FFF722FC4FF4C873B0FBF3F2D4
:100C700002FB130304F5167010FA83F00C4B186096
:100C800002F02EFF08B10F232B8103B030BD00BF4F
:100C90008C11002040420F00D8210020B507000829
:100CA0009C110020A4210020B90800089811002000
:100CB000A02100202DE9F04F2DED028B8EA7D7E962
:100CC00000670FF23C29D9E90089864C95B00DAD3B
:100CD0009FED828BFFF728FDDFF82CB200230C93E9
:100CE000ADF83C300D936B6000230DF125028DEDC6
:100CF000008B4FF0010A09A958468DF825308DF870
:100D000024A001F041F99DF824200023002A40F09E
:100D1000AB80204601F012FE0546002847D1DFF8DF
:100D2000ECB101F0E7FADBF8003098423FD301F074
:100D3000E1FA0790FFF7BAFB079A4FF4C873B0FBCC
:100D4000F3F101FB130302F5167010FA83F0CBF8F0
:100D50000000DFF8BCB19BF800100791002914BF18
:100D60002B46534610A88DF83030FFF7B7FB079994
:100D7000C1F11002D2B2062A10AB28BF06221944D4
:100D80000DF13100079200F03DF9079A0CAB039387
:100D9000182302930132544BD2B2CDE900A304923E
:100DA0003B463246204601F00FFE8BF8005001F022
:100DB000A1FA4E4A4E4D1368C31AB3F57A7F32D367
:100DC000106001F099FA02460B46204601F094FEAD
:100DD000204601F0B3FD30B32B7ADFF838A1002BA9
:100DE00014BF032302238AF8053001F083FA0DF1C2
:100DF000400B4FF47A730122B0FBF3F05946CAF866
:100E00000000504600F002FA18230293394B019378
:100E100080B240F25513CDE903B0009342464B46F1
:100E2000204601F0D1FD2B7ACBB101F063FA4FF0EF
:100E3000000A83464FF48A7295F8D900504400F0B6
:100E4000030002FB005393F8E81089B30AF1010A8A
:100E5000BAF1040FF0D12B7A002B7FF438AF15B024
:100E6000BDEC028BBDE8F08F4FF0904110A84A69AD
:100E700082F010024A611946102200F0D5F80DF1F7
:100E800026030AAA0CA9584600F0E8FD95E80300DD
:100E900011AB83E803009DF83C308DF84C300C9B7F
:100EA000109310A9DDE90A23204601F0F9FF1BE7A2
:100EB000D3F8E01049B12B68FA2B38BFFA23ABEB1B
:100EC00001010533B1EB430FC0D3FFF7DDFB4FF456
:100ED0008A720028BAD1BEE7AFF30080000000009C
:100EE00000000000A42100209C210020E037002009
:100EF000B0320020E4370020401DA12026812A0BBB
:100F0000F1C6A7C1D068080FD8210020A021002079
:100F10009D2100208C11002008B5054800F03AFE04
:100F2000BDE80840034A0449002003F025BB00BF88
:100F3000D8210020203800208108000870B502F078
:100F40000DFC094E094D3080002428683388834207
:100F500008D902F0FFFB2B6804440133B4F5D04FED
:100F60002B60F2D370BD00BF14380020E83700209A
:100F700002F080BC00F10060920000F5D04002F069
:100F800027BC0000054B1A68054B1B889B1A83423F
:100F900002D9104402F0DEBB00207047E837002081
:100FA00014380020024B1B68184402F0D9BB00BF64
:100FB000E8370020024B1B68184402F0E3BB00BF77
:100FC000E8370020064991F8243033B10023086A3D
:100FD00081F824300822FFF7CDBF0120704700BF01
:100FE000EC370020022802BF4FF0904310229A6194
:100FF00070470000022802BF4FF090434FF4801268
:101000009A61704710B50023934203D0CC5CC4545E
:101010000133F9E710BD000003460246D01A12F969
:10102000011B0029FAD1704702440346934202D0C3
:1010300003F8011BFAE770472DE9F8431F4D1446EA
:1010400095F824200746884652BBDFF870909CB381
:1010500095F824302BB92022FF2148462F62FFF754
:10106000E3FF95F82400C0F10802A24228BF2246FF
:10107000D6B24146920005EB8000FFF7C3FF95F81A
:101080002430A41B1E44F6B2082E17449044E4B248
:1010900085F82460DBD1FFF795FF0028D7D108E061
:1010A0002B6A03EB82038342CFD0FFF78BFF00282C
:1010B000CBD10020BDE8F8830120FBE7EC3700200E
:1010C0002DE9F0470D46044600219046284640F29F
:1010D0007912FFF7A9FF234620220021284601F0BC
:1010E00081FE231D02222021284601F07BFE631D84
:1010F00003222221284601F075FEA31D032225218B
:10110000284601F06FFE04F108031022282128462A
:1011100001F068FE04F1100308223821284601F08E
:1011200061FE04F1110308224021284601F05AFE15
:1011300004F1120308224821284601F053FE04F16D
:10114000140320225021284601F04CFE04F118031C
:1011500040227021284601F045FE04F120030822B8
:10116000B021284601F03EFE04F121030822B821F7
:10117000284601F037FE04F12207C0263B463146DF
:1011800008222846083601F02DFEB6F5A07F07F1AB
:101190000107F3D104F1320308223146284601F059
:1011A00021FE002704F1330A94F832304FEAC709D0
:1011B0009F4209F5A47615D3B8F1000F08D1314646
:1011C00004F599730722284601F00CFE09F24F1628
:1011D000274694F832213B1B93420CD3F01DC008E4
:1011E000BDE8F0870AEB070308223146284601F0E4
:1011F000F9FD0137D8E707F23313314608222846B4
:1012000001F0F0FD08360137E3E7000013B50446AE
:101210000846002101602346C0F8031020220190F7
:1012200001F0E0FD0198231D0222202101F0DAFDEA
:101230000198631D0322222101F0D4FD0198A31D12
:101240000322252101F0CEFD019804F108031022AC
:10125000282101F0C7FD072002B010BDF7B500231B
:10126000047F00910E4607221946054601F07EFCD8
:10127000731C0093012200230721284601F076FC0D
:10128000C4B9B31C0093052223460821284601F067
:101290006DFC0D243746B278BB1B934211D32B7FD4
:1012A000A88A0734E408BBB9844294BF0020012017
:1012B00003B0F0BDAB8ADB00083BDB08B370082449
:1012C000E8E7FB1C0093214600230822284601F092
:1012D0004DFC08340137DEE7201A18BF0120E7E78C
:1012E000F7B50023047F00910E46082219460546F3
:1012F00001F03CFC731CC4B908220093114623463C
:10130000284601F033FC1024012372785F1C013B56
:10131000934211D32B7FA88A0734E408BBB98442D7
:1013200094BF0020012003B0F0BDAB8ADB00083B76
:10133000DB0873700824E7E7F319009321460023C4
:101340000822284601F012FC08343B46DDE7201A4B
:1013500018BF0120E7E70000F8B50E460546144621
:10136000002181223046FFF75FFE2B460822002134
:10137000304601F037FD7CB96B1C0722082130464E
:1013800001F030FD0F2401236A785F1C013B93427A
:1013900004D3E01DC008F8BD0824F4E7EB1921468A
:1013A0000822304601F01EFD08343B46ECE7000001
:1013B000F8B50E46054614460021CE223046FFF70A
:1013C00033FE2B4628220021304601F00BFD7CB96C
:1013D00005F1080308222821304601F003FD3024DE
:1013E0002F462A7A7B1B934204D3E01DC008F8BD28
:1013F0002824F5E707F1090321460822304601F0C9
:10140000F1FC08340137ECE7F7B5047F00910E4694
:10141000012310220021054601F0A8FBC4B9B31C2A
:101420000093092223461021284601F09FFB19242E
:1014300037467288BB1B9A4211D82B7FA88A073483
:10144000E408BBB9844294BF0020012003B0F0BD82
:10145000AB8ADB00103BDB0873801024E8E73B1D00
:101460000093214600230822284601F07FFB083420
:101470000137DEE7201A18BF0120E7E730B5094D34
:101480000A4491420DD011F8013B5840082340F323
:101490000004013B2C4013F0FF0384EA5000F6D116
:1014A000EFE730BD2083B8EDF7B5364A10685168D4
:1014B0006B4603C36A4634493448082303F0BCF83A
:1014C000044690BB0A25324A106851686B4603C334
:1014D0006A4630492D48082303F0AEF80446002838
:1014E00047D00369B3F5663F43D8B0F86620B2F53C
:1014F0007B7F3ED1284A024402F15C018B4238D303
:101500005C3B224900209E1AFFF7B8FF324607468F
:1015100004F164010020FFF7B1FFA3689F4228D1C6
:10152000E368984208BF002523E00369B3F5663FEE
:1015300026D8428BB2F57B7F20D1174A024402F1B4
:1015400010018B4218D3103B104900209D1AFFF761
:1015500095FF2A46064604F118010020FFF78EFF8A
:10156000A3689E4202D1E368984201D00D25AAE704
:101570000025284603B0F0BD1025A4E70C25A2E7FE
:101580000B25A0E730470008DC970300006800083F
:1015900039470008909703000898FFF710B5037CBF
:1015A000044613B9006803F02FF8204610BD000070
:1015B0000023BFF35B8FC360BFF35B8FBFF35B8F11
:1015C0008360BFF35B8F7047BFF35B8F0068BFF32F
:1015D0005B8F704770B505460C30FFF7F5FF05F1DE
:1015E000080604463046FFF7EFFFA04206D9304612
:1015F0006D68FFF7E9FF2544281A70BD3046FFF7F4
:10160000E3FF201AF9E7000070B50546406898B17D
:1016100005F10800FFF7D8FF05F10C060446304637
:10162000FFF7D2FF8442304694BF6D680025FFF774
:10163000CBFF013C2C44201A70BD000038B50C468D
:101640000546FFF7C7FFA04210D305F10800FFF7DA
:10165000BBFF04446868B4FBF0F100FB1144BFF326
:101660005B8F0120AC60BFF35B8F38BD0020FCE7CF
:101670002DE9F041144607460D46FFF7C5FF8442A9
:1016800028BF0446D4B1B84658F80C6B4046FFF763
:101690009BFF3044286040467E68FFF795FF331A71
:1016A0009C4203D86C600120BDE8F0816B60A41BF4
:1016B0003B68AB602044E8600220F5E72046F3E792
:1016C00038B50C460546FFF79FFFA04210D305F141
:1016D0000C00FFF779FF04446868B4FBF0F100FBED
:1016E0001144BFF35B8F0120EC60BFF35B8F38BD0B
:1016F0000020FCE72DE9FF41884669460746FFF7D1
:10170000B7FF6C4606B204EBC6060025B44209D00A
:101710006268206808EB0501FFF774FC6368083411
:101720001D44F3E729463846FFF7CAFF284604B0B0
:10173000BDE8F081F8B505460C300F46FFF744FFD1
:1017400005F1080604463046FFF73EFFA04230464A
:1017500088BF6C68FFF738FF201A386020B1304628
:101760002C68FFF731FF2044F8BD000073B5144624
:1017700006460D46FFF72EFF844228BF044601901F
:10178000DCB101A93046FFF7D5FF019B33B93268C0
:10179000C5E90233C5E9002401200CE09C4238BFB2
:1017A00001942860019868608442F5D93368AB6081
:1017B000241AEC60022002B070BD2046FBE7000056
:1017C0002DE9FF410F466946FFF7D0FF6C4600B296
:1017D00004EBC0050026AC4209D0D4F8048054F8CC
:1017E000081BB8194246FFF70DFC4644F3E73046A4
:1017F00004B0BDE8F081000038B50546FFF7E0FF12
:10180000044601462846FFF719FF204638BD000070
:1018100010B4026854681A4623465DF8044B184712
:10182000002070470020704770470000002070477C
:101830000E20704700F5805090F8C800C0F34000BB
:101840007047000000F5805090F9D000704700000C
:1018500000F58050C0F8CC1001207047F7B50C6837
:10186000BDF8207014F0005470D10D7B082D6DD898
:10187000302585F311884569AE6876010CD4AC68D3
:10188000240108D4AC6814F080545DD184F311882D
:10189000204603B0F0BD01240E6804F1180C002EA0
:1018A000B8BFF6004FEA0C1CB4BF46F0040676053C
:1018B00045F80C600E680FFA84FC16F0804F18BFD4
:1018C00005EB0C1E05EB0C1C1EBFDEF8806146F01C
:1018D0000206CEF880610E7BCCF8846105EB04151E
:1018E0008E68C5F88C614E68C5F88861DCF8805157
:1018F00045F00105CCF8805100EB441641F2680533
:101900002E4405EB44150544C6E9002308350E4670
:1019100001F10C0C56F804EB45F804EB6645F9D1DF
:10192000843436882E8000EB441407F003052679B2
:1019300026F00B0635432571002484F311880097A7
:1019400000F0FAFC0120A4E70224A5E74FF0FF30E5
:101950009FE7000013B500F580540191E06DFFF79B
:1019600053FE1F280AD90199E06D2022FFF7C2FE1D
:10197000A0F120035842584102B010BD0020FBE7FF
:1019800008B5302383F3118800F58050C06DFFF750
:101990000FFE002383F3118808BD000000220260BF
:1019A000828142608260704710B500220023C0E946
:1019B00000230023044603810C30FFF7EFFF20468D
:1019C00010BD0000F0B5054600F580500C4690F8BB
:1019D000C83013F0040FC3F3800108BF114661F350
:1019E000820304F1840680F8C83005EB461389B001
:1019F0001B79D8072ED57AB319072DD46846FFF77F
:101A0000D3FF05EB441303F5835303F1180703AA2F
:101A1000103318685968144603C40833BB42224681
:101A2000F7D1186820609B88A380DDE90E23CDE9FB
:101A300000230123ADF808302B686946DB6B28468C
:101A4000984705EB46152B791A075CBF43F008034E
:101A50002B7101E0002AF4D109B0F0BD2DE9F04767
:101A60009A4688B0074688469146302383F311880A
:101A700007F580546846FFF797FFE06DFFF7AAFD72
:101A80001F282AD9E06D20226946FFF7B5FE2028DD
:101A900023D103AD444605AB2E4603CE9E422060C3
:101AA0006160354604F10804F6D130682060B388DF
:101AB000A380DDE90023C9E90023BDF80830AAF8B6
:101AC0000030002383F3118853464A464146384686
:101AD00008B0BDE8F04700F01DBC002080F311887D
:101AE00008B0BDE8F08700002DE9F84F0023C0E9F9
:101AF0000133254B044640F8183B0F46FFF74EFFD5
:101B000004F12800FFF750FF04F1480804F582555E
:101B10004646083530462036FFF746FFAE42F9D13B
:101B200004F580554FF480534FF00009C5E913398F
:101B3000C5F848800123EE6504F5875804F58456FE
:101B4000C5F8549085F8583085F86030083608F1AB
:101B500008084FF0000A4FF0000B46E908ABA6F169
:101B60001800FFF71BFF203646F8289C4645F4D1A5
:101B700085F8D07017B1054800F0B6FB044B6361DF
:101B80002046BDE8F88F00BF6C47000844470008B6
:101B90000064004010B5044B197804464A1C1A70C2
:101BA000FFF7A2FF204610BD1C3800202DE9F047AA
:101BB000002950D0294B2A4FB7FBF1F599428CBF31
:101BC0000A231123581EB5FBF3FC03FB1C53C4B2BC
:101BD0002BB102280346F5D80020BDE8F0870CF1B0
:101BE000FF36B6F5806FF7D2C4EBC40E0EF10303D7
:101BF0004FEAE309C3F3C703A4EB030809F1010AA1
:101C00004FF47A755FFA88F009FB05555AFA88F89F
:101C1000B5FBF8F5B5F5617FC1BF0EF1FF33C3F336
:101C2000C703E01AC0B25C1C50FA84F40CFB04F445
:101C3000B7FBF4F4A142CFD1013BDBB20F2BCBD8E1
:101C40000138C0B20728C7D80021107116809170E2
:101C5000D3700120C1E70846BFE700BF3F420F0035
:101C60000051250270B505460E464FF47A746B6933
:101C70005B6803F00103B3424FF0010004D001F0B0
:101C800095FC013CF3D1204670BD000030B542699F
:101C9000936913F0700F16D000230B4C936103F17E
:101CA000840200EB421211794D0709D5890707D547
:101CB000416954F823508D60117941F0040111718C
:101CC0000133032BEBD130BD5847000873B51D46D7
:101CD000436916469A68D207044609D59A680121D5
:101CE0009960C2F34002CDE900650021FFF76AFE6A
:101CF00063699A68D1050BD59A684FF48071996031
:101D0000C2F34022CDE9006501212046FFF75AFECB
:101D100063699A68D2030BD59A684FF48031996051
:101D2000C2F34042CDE9006502212046FFF74AFE9A
:101D300004F58053D3F8CC0010B103681B699847B1
:101D4000204602B0BDE87040FFF7A0BFF8B50446DA
:101D50004669002972D106F10C073868800770D0F7
:101D600006EB01153868D5F8B00110F0040FD5F86E
:101D7000B0011ABFC00840F00040400DA061D5F886
:101D8000B0C11CF0020F1CBF40F08040A061D5F82C
:101D9000B40106EB011100F00F0084F82400D1F823
:101DA000B8012077D1F8B801000A6077D1F8B801FE
:101DB000000CA077D1F8B801000EE077D1F8BC0193
:101DC00084F82000D1F8BC01000A84F82100D1F881
:101DD000BC01000C84F82200D1F8BC11090E84F873
:101DE00023103821396004F1340004F1180104F1A2
:101DF000240551F8046B40F8046BA942F9D1098815
:101E00000180C4E90A2321460023238651F8283B98
:101E10002046DB6B984704F5805393F8C820D3F82D
:101E2000CC0042F0040283F8C82010B103681B699B
:101E300098472046BDE8F840FFF728BF06F1100795
:101E40008BE7F8BD10B5044600F056FA02460B4683
:101E500052EA030102D0013A63F100030449086821
:101E600020B12146BDE81040FFF770BF10BD00BF94
:101E700018380020F0B5302181F31188DFF848C010
:101E800000F583510831002404F1840500EB451569
:101E90002E7977070ED4F6060CD5D1E90076974255
:101EA0009E4107D246695CF82470B7602E7946F0EF
:101EB00004062E710134032C01F12001E4D100232A
:101EC00083F31188F0BD00BF5847000808B53023E0
:101ED00083F31188FFF7DAFE002383F3118808BD2E
:101EE000F8B543690546986800F0E050B0F1E05F4E
:101EF0000F4621D0F8B1302383F3118805F58354C0
:101F00001034002606F1840305EB43131B791A07EE
:101F100006D50136032E04F12004F3D1012007E099
:101F20005B07F6D42146384600F040FA0028F0D18D
:101F3000002383F31188F8BD0120FCE708B53023A6
:101F400083F3118800F58050C06DFFF743FB002339
:101F500083F3118843090CBF0120002008BD000055
:101F6000F8B51D46002313700F4606461446FFF7CA
:101F7000E5FF80F00100387025B129463046FFF7B3
:101F8000AFFF2070F8BD00002DE9B8410C461546A2
:101F90001F46804600F0B0F90B462178024609B989
:101FA000287850B14046FFF765FFFFF78FFF3B46AB
:101FB0002A462146FFF7D4FF0120BDE8B881000082
:101FC00070B5302686F31188174BDA6942F000723B
:101FD000DA611A6942F000721A611A6922F000721D
:101FE0001A61002383F3118800F5805494F8C830F7
:101FF00013F0010516D1A9B186F31188032113202E
:1020000001F0C8F90321142001F0C4F903211520BF
:1020100001F0C0F994F8C83043F0010384F8C830E7
:1020200085F3118870BD00BF001002402DE9F04714
:1020300000F5805588B095F8D030012B04468846CD
:10204000164600F28180814F57F823200AB947F8DD
:102050002300D7F800A0C4F80C802674BAF1000F52
:1020600064D095F8D030012B70D001212046FFF7C5
:10207000A7FF302383F311886269136823F00203FA
:1020800013606269136843F00103136063690027FA
:102090005F6187F3118801212046FFF7E3FD0028E7
:1020A00000F09580E86DFFF783FA04F58359BA468E
:1020B00009F10809202200216846FEF7B5FF02A8B1
:1020C000FFF76CFCCDF818A06A4609EB07030DF189
:1020D000180E9446BCE80300F44518605960624647
:1020E00003F10803F5D1DCF80000186020379CF8F4
:1020F00004201A71602FDDD195F8C8306FF3820388
:10210000002785F8C8306A4641462046ADF8007081
:10211000ADF802708DF80470FFF748FD636948BBA5
:102120004FF400421A6008B0BDE8F08741F2D800D1
:1021300002F02AFA814610B15146FFF7D5FCC7F8E4
:102140000090B9F1000F8CD10020ECE738680368EB
:102150001B6B98470146002887D13868FFF730FF8E
:102160003868036832465B684146984700287FF428
:102170007CAFE9E761221A609DF802309DF80320E8
:102180001B06120402F4702203F040731343BDF8DF
:102190000020C2F3090213439DF804201205022E09
:1021A00002F4E0020CBF4FF00041002113436269CA
:1021B0000B43D361636913225A616269136823F088
:1021C0000103136039462046FFF74CFD08B96369E7
:1021D000A6E795F8D03093BB6169D1F8002242F0B0
:1021E0000102C1F800226169D1F8002222F47C5278
:1021F00022F00E02C1F800226169D1F8002242F4F7
:102200006062C1F800226269C2F814326269C2F8E1
:102210000432626941F6FF71C2F80C126269C2F8B9
:1022200040326269C2F8443263690122C3F81C2259
:102230006269D2F8003223F00103C2F8003295F847
:10224000C83043F0020385F8C8306CE71838002026
:1022500008B500F051F850EA0103024602D0421ED0
:1022600061F10001044B186810B10B46FFF72EFD19
:10227000BDE8084001F064B81838002008B5002017
:10228000FFF7E0FDBDE8084001F05AB808B50120AD
:10229000FFF7D8FDBDE8084001F052B800B59BB08B
:1022A000EFF3098168226846FEF7ACFEEFF3058381
:1022B000014B9B6BFEE700BF00ED00E008B5FFF7A8
:1022C000EDFF000000B59BB0EFF30981682268467E
:1022D000FEF798FEEFF30583014B5B6BFEE700BF53
:1022E00000ED00E0FEE700000FB408B5029801F031
:1022F0000DF9FEE701F040BB01F0ECBA13B56C46F6
:1023000084E80600031D94E8030083E8050001202B
:1023100002B010BD73B58568019155B11B885B078C
:1023200007D4D0E900369B6B9847019AC1B230467A
:10233000A847012002B070BDF0B5866889B0054697
:102340000C465EB1BDF838305B070AD4D0E90037DF
:102350009B6B98472246C1B23846B047012009B06E
:10236000F0BD00220023CDE900230023ADF80830A2
:102370000A4603AB01F10806106851681C4603C405
:102380000832B2422346F7D1106820609288A280BA
:10239000FFF7B2FF0423ADF808302B68CDE9000148
:1023A000DB6B694628469847D8E7000030B50368DC
:1023B0000968DD0FB5EBD17F23F0604421F0604266
:1023C0004FEAD1700BD0002BB8BFA40C0029B8BFC6
:1023D000920C944202D034BF0120002030BD9442C0
:1023E00005D1C1F38070C3F380738342F6D1944268
:1023F0002CBF00200120F1E72DE9F041456A15B915
:102400004162BDE8F0814B6823F06047C3F38A4620
:102410004FEAD37EC3F3807816EA230638BF3E46E0
:10242000AC462B465A68BEEBD27F22F060440AD0FD
:10243000002A18DAA40CB44217D19D420FD10D60C6
:10244000DEE71346EEE7A74207D102F08044C2F36D
:10245000807242450BD054B1EFE708D2EDE7CCF8DB
:1024600000100B60CDE7B44201D0B442E5D81A6841
:102470009C46002AE5D11960C3E700002DE9F0472A
:10248000089D01F007044FEAD508224405F007052E
:1024900000EBD1004FF47F49944201D1BDE8F087B1
:1024A00004F0070705F0070A57453E4638BF564671
:1024B000C6F10806111B8E4228BF0E46E10808EB44
:1024C000D50E415C13F80EC0B94029FA06F721FA7F
:1024D0000AF1FFB28CEA010147FA0AF739408CEAA7
:1024E000010C03F80EC034443544D5E780EA0120DE
:1024F000082341F2210201B24000002980B203F119
:10250000FF33B8BF504013F0FF03F4D17047000011
:1025100038B50C468D18A54200D138BD14F8011B02
:10252000FFF7E4FFF7E7000042684AB11368436031
:102530004389818901339BB29942438138BF8381AA
:102540001046704770B588B0202204460D46684694
:102550000021FEF769FD20460495FFF7E5FF0246DE
:1025600058B16B46054608AE1C4603CCB442286001
:102570006960234605F10805F6D1104608B070BD24
:10258000082817D909280CD00A280CD00B280CD001
:102590000C280CD00D280CD00E2814BF4020302061
:1025A00070470C2070471020704714207047182087
:1025B0007047202070470000082817D90C280CD934
:1025C00010280CD914280CD918280CD920280CD97B
:1025D00030288CBF0F200E207047092070470A203A
:1025E00070470B2070470C2070470D20704700008B
:1025F0002DE9F843078C072F04461ED9D0E902982D
:1026000000254FF6FF73C5F12006A5F1200029FA39
:1026100005F108FA06F628FA00F031430143C9B281
:102620001846FFF763FF0835402D0346EBD1E169FB
:102630003A46BDE8F843FFF76BBF4FF6FF70BDE8C1
:10264000F883000010B54B6823B9CA8A63F3090206
:10265000CA8210BD04691A681C600361C38A013B09
:10266000C3824A60EFE700002DE9F84F1D46CB8A90
:102670000F46C3F309010529814692460B4630D027
:102680000020AAB207F11A049EB2042E1FFA80F8A5
:102690000FD8904503F1010306D3FB8A0A4462F385
:1026A0000903FB8201201AE01AF80060E6540130A9
:1026B000EAE79045F1D2A1F1050B1C237C68BBFB36
:1026C000F3F203FB12BB1FFA8BF6002C45D14846F0
:1026D000FFF72AFF044638B978606FF00200BDE8C2
:1026E000F88F4FF00008E6E7002606607860ADB28C
:1026F0004FF0000B454510D90AEB0803221D13F8D3
:10270000011B9155B1B208F101081B291FFA88F885
:102710002BD0454506F10106F1D8FB8AC3F3090227
:10272000154465F30903BCE7013292B21C462368E5
:10273000002BF9D16B1F0B441C21B3FBF1F30133C8
:102740009BB29A42D3D2BBF1000FD0D14846FFF7DB
:10275000EBFE20B9C4F800B0BFE70122E7E7C0F8FC
:1027600000B05E4620600446C1E74545D5D94846DD
:10277000FFF7DAFE08B92060AFE7C0F800B0002626
:1027800020600446B6E700002DE9F04F2DED028BE6
:102790001C4683B05B69019207468846002B00F017
:1027A0009A80238C2BB1E269002A00F09480072BD9
:1027B00035D807F10C00FFF7B7FE054638B96FF0C2
:1027C0000205284603B0BDEC028BBDE8F08F142251
:1027D0000021FEF729FC228CE16905F10800FEF7D3
:1027E00011FC208C013080B2FFF7E6FEFFF7C8FE37
:1027F000013880B22084013028746369228C1B78F0
:102800002A4403F01F0363F03F0348F000411372B2
:10281000384669602946FFF7EFFD0125D1E700F151
:102820000C034FF0000908EE103A4FF0800A4E46B4
:102830004D4618EE100AFFF777FE83460028BED0FB
:1028400014220021FEF7F0FB002E3AD1019BABF8D9
:10285000083002220BF1080E1FFA82FC0CF1010075
:10286000BCF1060F218C80B201D88E422BD3FFF72A
:10287000A3FEFFF785FE62691278013802F01F029D
:102880008E4208BF4FF0400A42EA49121BFA80F11B
:102890004AEA020A013048F0004281F808A08BF8A9
:1028A0001000CBF8042059463846FFF7A5FD238CCD
:1028B0000135B3422DB289F001094FF0000AB8D1B9
:1028C0007FE70022C6E7E169895D0EF80210013654
:1028D000B6B20132C0E76FF0010572E7F8B51546F0
:1028E0000E463022002104461F46FEF79DFB069B44
:1028F0006360B5F5001F079BA76034BF6A094FF6F8
:10290000FF72A36297B2E66104F1100000239A42BD
:1029100006D800230360A782E3822383E360F8BD27
:102920000660013330462036F1E7000003781BB91A
:102930004BB2002BC8BF0170704700000078704791
:10294000F8B50C46C969074611B9238C002B37D15D
:10295000257E1F2D34D8387828BB228C072A2CD806
:10296000268A36F003032BD14FF6FF70FFF7D0FD18
:1029700020F001003102400441EA0561400C41EAC7
:1029800040254FF6FF72234629463846FFF7FCFEE6
:10299000002807DD626913780133DBB21F2B88BF83
:1029A00000231370F8BD218A2D0645EA0125054351
:1029B0002046FFF71DFE0246E5E76FF00300F1E752
:1029C0006FF00100EEE7000070B58AB004461646CD
:1029D0000021282268461D46FEF726FBBDF8383048
:1029E000ADF810300F9B05939DF840308DF81830EE
:1029F000119B07936946BDF84830ADF8203020465A
:102A0000CDE90265FFF79CFF0AB070BD2DE9F041EA
:102A1000D36905460C4616460BB9138C5BBB377E53
:102A20001F2F28D895F80080B8F1000F26D0304627
:102A3000FFF7DEFD3378210241EAC33141EA0801A4
:102A4000338A41EA076141EA03410246334641F0D5
:102A500080012846FFF798FE00280ADD3378012B15
:102A600007D1726913780133DBB21F2B88BF0023B3
:102A70001370BDE8F0816FF00100FAE76FF003001A
:102A8000F7E70000F0B58BB004460D46174600216D
:102A9000282268461E46FEF7C7FA9DF84C305A1E9B
:102AA000534253418DF800309DF84030ADF810305E
:102AB000119B05939DF848308DF81830149B0793AF
:102AC0006A46BDF85430ADF8203029462046CDE99D
:102AD0000276FFF79BFF0BB0F0BD0000406A00B12B
:102AE00004307047436A1A68426202691A600361DF
:102AF000C38A013BC38270472DE9F041D0F82080A2
:102B0000194E14461D464146002709B9BDE8F0811B
:102B1000D1E90223A21A65EB0303964277EB030384
:102B20001ED2036A8B420DD1FFF78CFD036A1B682E
:102B3000036203690B60C38A0161016A013BC382BE
:102B40008846E2E7FFF77EFD0B68C8F800300369AE
:102B50000B60C38A0161013BC382D8F80010D4E73F
:102B600088460968D1E700BF80841E002DE9F04F38
:102B70008BB00D46DDF8509014469B4680460028E9
:102B800000F01981B9F1000F00F01581531E3F2BA1
:102B900000F21181012A03D1BBF1000F40F00B813B
:102BA0000023CDE90833B8F81430B5EBC30F4FEA72
:102BB000C30703D300200BB0BDE8F08F2B199F4251
:102BC000D8F80C303ABF7F1BFFB227461BB9D8F8A4
:102BD0001030002B7AD0272D4ED8C5F12806B742E9
:102BE0004FF000032CBFF6B23E4600932946D8F8BA
:102BF000080008AB3246FFF741FCA7EB060A354454
:102C00005FFA8AFAB8F8143003F10053053BDB0091
:102C10000493D8F80C3003932821039B13B1BAF125
:102C2000000F2CD1D8F8100040B1BAF1000F05D038
:102C3000009608AB5246691AFFF720FC38B2002F05
:102C4000B8D066070AD00AAB03EBD401624211F890
:102C5000083C02F00702134101F8083C082C3CD95B
:102C6000102C40F2B580202C40F2B780BBF1000F51
:102C700000F09C80082334E0BA460026C2E7049B9B
:102C8000E02B28BFE02306930B44AB42059314D9F5
:102C90005A1B03980096924534BF5246D2B2691A25
:102CA00008AB04300792FFF7E9FB079A1644AAEB3A
:102CB000020A1544F6B25FFA8AFA049B069A05994D
:102CC0009B1A0493039B1B680393A6E70093D8F811
:102CD000080008AB3A462946AEE7BBF1000F13D017
:102CE0000123B4EBC30F6CD0082C12D89DF8203010
:102CF000621E23FA02F2D50706D54FF0FF3202FA20
:102D000004F423438DF820309DF8203089F80030FA
:102D100051E7102C12D8BDF82030621E23FA02F2BF
:102D2000D10706D54FF0FF3202FA04F42343ADF881
:102D30002030BDF82030A9F800303CE7202C0FD817
:102D40000899631E21FA03F3DA0705D54FF0FF3225
:102D500002FA04F40C430894089BC9F800302AE7EF
:102D6000402C2BD0DDE90865611EC4F12102A4F1DD
:102D7000210326FA01F105FA02F225FA03F31143C1
:102D80001943CB0712D50122A4F12003C4F120017D
:102D900002FA03F322FA01F1A240524243EA01038C
:102DA00063EB430332432B43CDE90823DDE90823DA
:102DB000C9E90023FFE66FF00100FCE66FF00800B0
:102DC000F9E6082CA0D9102CB3D9202CEED8C3E7F3
:102DD000BBF1000FADD0022383E7BBF1000FBBD0E6
:102DE00004237EE730B5012A144638BF0124402C65
:102DF00085B028BF40240025012ACDE9025518D806
:102E00001B788DF8083063070AD004AB03EBD405B8
:102E1000624215F8083C02F00702934005F8083CAE
:102E2000009103462246002102A8FFF727FB05B0C8
:102E300030BD082AE4D9102A03D81B88ADF8083021
:102E4000E1E7202A8DBFD3E900231B680293CDE977
:102E50000223D8E710B5CB681BB98B600B618B825E
:102E600010BD04691A681C600361C38A013BC382F8
:102E7000CA60F0E703064CBFC0F3C03002207047C1
:102E800008B50246FFF7F6FF022806D15306C2F343
:102E90000F2001D100F0030008BDC2F30740FBE79B
:102EA0002DE9F04F93B0CDE903230A68044610469C
:102EB000FFF7E0FF022814BFC2F306260026002A0F
:102EC0000D46824680F2F28112F0C04940F0EE8158
:102ED000097B002900F0EA81022803D02378B3425D
:102EE00040F0E781C2F304630693104602F07F03CB
:102EF0000593FFF7C5FF059B29444FEA834848EA3D
:102F00000A4848EA4668CE7800230022CDE9082323
:102F1000F309834648EA0008029367D0059B0093B3
:102F200002466768534608A92046B847002800F0C3
:102F3000C381276A4FB9414604F10C00FFF702FB39
:102F4000074690B96FF0020054E03B6998450DD0F8
:102F50003F68002FF9D1414604F10C00FFF7F2FA67
:102F600007460028EED0236A3B60276297F817C017
:102F700006F01F08CCF3840CACEB08001FFA80FEAF
:102F80000028B8BF0EF12000A8EB0C031FFA83FE47
:102F9000D7E90221B8BF00B2002B0793BEBF0EF1E4
:102FA00020031BB2079352EA010338D0039BDFF8DA
:102FB00024E39A1A049B4FF0000C63EB0101964541
:102FC0007CEB01032BD36B7B97F81AE0734519D187
:102FD000029B002B78D0012821DC7868F8B9DFF853
:102FE000F0C2944570EB010316D337E0276A27B986
:102FF0006FF00C0013B0BDE8F08F3B699845B5D079
:103000003F68F4E7B24890427CEB010301D3002013
:10301000F0E7029B002BFAD0079B0F2B17DCFA7D01
:10302000B30002F0030203F07C031343FB7539463F
:103030002046FFF707FB6B7BBB76029B3BB9FB7D12
:10304000C3F38402013262F38603FB75D0E76A7B27
:10305000BB7E9A42DBD1029B002B35D0B309022BF9
:1030600032D0039BBB60049BFB60142200210DA89F
:10307000FDF7DAFF039B0A93049B0B932B1D0C9324
:103080002B7BADF83EB0013BDBB2ADF83C30069B8C
:103090008DF84230059B8DF8433094F82C308DF834
:1030A00040A083F001038DF844308DF84180A3687F
:1030B0000AA920469847FB7DC3F38403013303F03C
:1030C0001F039B02FB82A2E7FB7DC6F34012B2EB1B
:1030D000D31F40F0F480C3F38403434540F0F280F3
:1030E000029A2B7BB609002A4DD0F2075DD4032B40
:1030F00040F2EB80039BBB60049BFB602B7BAE1D0F
:10310000033BDBB23246394604F10C00FFF7ACFA60
:1031100000280CDA39462046FFF794FAFB7DC3F30A
:103120008403013303F01F039B02FB820AE7DDE9FE
:103130000884AB883B834FF6FF73C9F12000A9F1E7
:10314000200228FA09F104FA00F0014324FA02F2FD
:1031500011431846C9B2FFF7C9F909F10809B9F1D5
:10316000400F0346E9D1B8822A7B033AD2B23146F6
:10317000FFF7CEF9FB7DB882DA43C2F3C01262F3E7
:10318000C713FB7543E786B92E1D013BDBB2324600
:10319000394604F10C00FFF767FA0028BADB2A7BF6
:1031A000B88A013AD2B23146E2E7F98AC1F309019D
:1031B000013B0429DAB25BD8281D002307F11B0666
:1031C0009A4208D910F801CB06F801C00131013349
:1031D0000529DBB2F4D103990A9104990B9193422A
:1031E00007F11B010C9138BF043379680D9134BF8E
:1031F00055FA83F300230E93FB8AADF83EB0C3F378
:1032000009031A44069B8DF84230059B8DF8433024
:1032100094F82C30ADF83C2083F001038DF8443055
:1032200000238DF840A08DF841807B602A7BB88A0E
:10323000013A291DFFF76CF93B8BB882834203D119
:10324000A3680AA92046984720460AA9FFF702FE6C
:10325000FB7DBA8AC3F38403013303F01F039B028F
:10326000FB823B8B9A420CBF00206FF01000C1E63E
:103270007B68002BAFD0052001E01C3033461E6870
:10328000002EFAD1091A081D2E1D184401EB090C55
:10329000BCF11B0F5FFA89F39DD89A429BD916F8AF
:1032A000013B00F8013B09F10109EFE76FF009006C
:1032B000A0E66FF00A009DE66FF00B009AE66FF053
:1032C0000D0097E66FF00E0094E66FF00F0091E6A8
:1032D00040420F0080841E00EFF3098305494A6BCA
:1032E00022F001024A63683383F30988002383F3E1
:1032F0001188704700EF00E0302080F3118862B63B
:103300000C4B0D4AD96821F4E0610904090C0A4309
:10331000DA60D3F8FC20094942F08072C3F8FC203F
:103320000A6842F001020A602022DA7783F822005C
:10333000704700BF00ED00E00003FA05001000E058
:1033400010B5302383F311880E4B5B6813F40063D0
:1033500014D0F1EE103AEFF30984683C4FF080731B
:10336000E361094BDB6B236684F3098800F098F86E
:1033700010B1064BA36110BD054BFBE783F3118829
:10338000F9E700BF00ED00E000EF00E0FF020008F9
:103390000203000800F1604303F561430901C9B26B
:1033A00083F80013012200F01F039A4043099B0099
:1033B00003F1604303F56143C3F880211A6070474D
:1033C00000F16040090100F56D40C9B20176704717
:1033D00000230375826803691B6899689142FBD2D8
:1033E0005A6803604260106058607047002303759C
:1033F000826803691B6899689142FBD85A68036028
:10340000426010605860704708B50846302383F367
:1034100011880B7D032B05D0042B0DD02BB983F322
:10342000118808BD8B6900221A604FF0FF33836159
:10343000FFF7CEFF0023F2E7D1E9003213605A60B4
:10344000F3E70000FFF7C4BF054BD968087518689B
:1034500002681A60536001220275D860FCF73ABF17
:103460002838002030B50C4BDD684B1C87B0044673
:103470000FD02B46094A684600F0D8F82046FFF7DF
:10348000E3FF009B13B1684600F0DAF8A86907B0C3
:1034900030BDFFF7D9FFF9E72838002009340008CC
:1034A000044B1A68DB6890689B68984294BF0020C0
:1034B0000120704728380020084B10B51C68D868D8
:1034C00022681A60536001222275DC60FFF78EFFCC
:1034D00001462046BDE81040FCF7FCBE283800201D
:1034E00038B5074C0749084801230025237065605B
:1034F00000F024FB0223237085F3118838BD00BF40
:10350000503A0020B04700082838002008B572B6AD
:10351000044B186500F0C2F900F0ACFA024B03222C
:103520001A70FEE728380020503A002000F09AB8C0
:103530008B60022308618B82084670478368A3F181
:10354000840243F8142C026943F8442C426943F87E
:10355000402C094A43F8242CC26843F8182C022254
:1035600003F80C2C002203F80B2C044A43F8102C0F
:10357000A3F12000704700BFED02000828380020AA
:1035800008B5FFF7DBFFBDE80840FFF75BBF0000B1
:10359000024BDB6898610F20FFF756BF28380020E8
:1035A000302383F31188FFF7F3BF000008B501460D
:1035B000302383F311880820FFF754FF002383F39F
:1035C000118808BD064BDB6839B1426818605A6043
:1035D000136043600420FFF745BF4FF0FF30704792
:1035E000283800200368984206D01A6802605060AC
:1035F00099611846FFF726BF7047000010B50A4CC6
:1036000023699A6891420CD85A68816003604260CD
:1036100010609A685860511A99604FF0FF33A361A7
:1036200010BD1B68891AECE72838002010B4C0E9E7
:10363000032300235DF8044B4361FFF7DFBF000065
:10364000036881689A680A449A60426813605A6005
:1036500000230360024B4FF0FF329A61704700BFB6
:103660002838002070B5124DEB692A460133EB6112
:1036700052F8103F934206D09A68013A9A60302679
:103680002C69A36803B170BDD4E900210A605160C0
:10369000236083F31188D4E903312046984786F3E9
:1036A000118861690029EBD02046FFF7A7FFE7E703
:1036B00028380020054A30B5D369D2E908451B1BDC
:1036C000181945F10001C2E9080130BD2838002071
:1036D00000207047FEE70000704700004FF0FF3009
:1036E00070470000BFF34F8F024AD368DB07FCD45A
:1036F000704700BF0020024008B5074B1B7853B944
:10370000FFF7F0FF054B1A69120641BF044A5A60E1
:1037100002F188325A6008BD683A00200020024059
:103720002301674508B5054B1B7833B9FFF7DAFF6E
:10373000034A136943F08003136108BD683A00200F
:10374000002002407F289ABF00F58030C002002090
:10375000704700004FF40060704700008020704701
:103760007F2808B50BD8FFF7EDFF00F5006302686E
:10377000013204D104308342F9D1012008BD002078
:10378000FCE700007F2810B504461CD8FFF7AAFF0D
:10379000FFF7B2FF0D4BF322DA6002221A61FFF746
:1037A000D1FF58611A6942F040021A614FF400617A
:1037B000FFF798FF00F05AF9FFF7B4FF2046BDE885
:1037C0001040FFF7CDBF002010BD00BF0020024019
:1037D0002DE9F84312F00103144606D01F4B40F2C6
:1037E00003321A600020BDE8F88385181C4A954210
:1037F00004D91A4A4FF442711160F3E7FFF77CFFD6
:10380000FFF770FFDFF86880451A4FF00109012CBF
:1038100005EB01060F4603D8FFF784FF0120E2E71E
:103820003B88C8F8109033800020FFF75BFFC8F892
:103830001000338831F8022B9BB29A420CD0074B10
:1038400040F21F321A60074B1E60074B1C60074B8B
:103850001F60FFF767FFC6E7023CD8E7643A002025
:1038600000000408583A0020603A00205C3A00202A
:1038700000200240084908B50B7828B11BB9FFF7B2
:103880003BFF01230B7008BD002BFCD0BDE80840B6
:103890000870FFF747BF00BF683A002008B5064828
:1038A0004FF41F4100F0E4F8BDE808404FF4005128
:1038B0004FF0805000F0DCB80001002008461146AF
:1038C00000F084BE012000F081BE0000084600F038
:1038D0009BBE000038B5EFF31185BDBBEFF3058447
:1038E000C4F308043023C4B183F31188FFF7E2FE68
:1038F0004C014201121A44EAD06464EB01049300C3
:10390000A4001B1844EA927441EB0401C900D800DA
:1039100041EA537185F3118838BD83F31188FFF7AD
:10392000C9FE4D014201121A45EAD06565EB010559
:103930009300AD001B1845EA927541EB0501C900E3
:10394000D80041EA537184F3118838BDFFF7B2FE05
:103950004B014401241A43EAD06363EB0103A20044
:103960009B00121843EA947341EB0301C900D00095
:1039700041EA527138BD00BF38B5FFF7ABFF114CBB
:10398000114AC00840EA4170A0FB025EC908A0FBD2
:10399000040C1CEB050CA1FB04404FF000035B4141
:1039A000A1FB02121CEB040C43EB000011EB0E0117
:1039B00042F10002411842F10000090941EA007099
:1039C00038BD00BFCFF753E3A59BC42010B5024418
:1039D000064BD2B2904200D110BD441C00B253F845
:1039E000200041F8040BE0B2F4E700BF502800408B
:1039F0000F4B30B51C6A240407D41C6A44F440748D
:103A00001C621C6A44F400441C620A4C236843F4A0
:103A1000807323600244084BD2B2904200D130BD83
:103A2000441C00B251F8045B43F82050E0B2F4E7C4
:103A300000100240007000405028004007B50122ED
:103A400001A90020FFF7C2FF019803B05DF804FB55
:103A500013B50446FFF7F2FFA04205D0012201A9E9
:103A600000200194FFF7C4FF02B010BD70470000B2
:103A70007047000070470000074B45F255521A602E
:103A800002225A6040F6FF729A604CF6CC421A60ED
:103A9000024B01221A70704700300040703A00203B
:103AA000034B1B781BB1034B4AF6AA221A607047DE
:103AB000703A002000300040044B1A682AB902F125
:103AC000804202F50432526A1A6070476C3A002054
:103AD000024B4FF080725A62704700BF00100240E4
:103AE00008B5FFF7E9FF024B1868C0F3407008BD46
:103AF0006C3A002070470000FEE700000A4B0B48BC
:103B00000B4A90420BD30B4BDA1C121AC11E22F047
:103B100003028B4238BF00220021FDF785BA53F81B
:103B2000041B40F8041BECE714490008543C002037
:103B3000543C0020543C0020FEE7000070B51B4BB5
:103B400001630025044686B0586085620E46FFF783
:103B5000D3FB04F11003C4E904334FF0FF33A36136
:103B6000134BE561D969A5600A462B46C4E90823D1
:103B700004F13401C4E900440E4AE562256580235E
:103B80002046FFF7D5FC0123E0600B4A0375009245
:103B900072680192B268CDE90223084B6846CDE90C
:103BA0000435FFF7EDFC06B070BD00BF503A0020B1
:103BB00028380020BC470008C1470008393B0008EE
:103BC0004B6843608B688360CB68C3600B6943615B
:103BD0004B6903628B6943620B68036070470000A6
:103BE00008B51B4B9A6A42F4FC029A629A6A22F464
:103BF000FC029A629A6A5A6942F4FC025A61154AB6
:103C00005B6911464FF09040FFF7DAFF02F11C01AB
:103C100000F58060FFF7D4FF02F1380100F5806005
:103C2000FFF7CEFF02F1540100F58060FFF7C8FFF7
:103C300002F1700100F58060FFF7C2FF02F18C0114
:103C400000F58060FFF7BCFFBDE8084000F05AB8FF
:103C500000100240C847000808B500F093F9FFF7CC
:103C60003FFCBDE80840FFF727BF00007047000099
:103C700010B5214CA36A63F4FC03A362A36A03F4A6
:103C8000FC03A3624FF0FF32A36A23692261236918
:103C9000002323612169E168E260E268E360E26891
:103CA000E269164942F08052E261E2690A6842F430
:103CB00080720A60226A02F44072B2F5407F1EBF31
:103CC0004FF4803222622362236A1B0407D4236AE2
:103CD00043F440732362236A43F40043236200F0F9
:103CE00031F9A369064A43F00103A361A36913688C
:103CF00043F02003136010BD00100240007000402C
:103D0000000001401E4B1A6842F001021A601A6856
:103D10009007FCD55A6822F003025A605A6812F0E4
:103D20000C02FBD1196801F0F90119605A601A6898
:103D300042F480321A601A689103FCD5114A5A6025
:103D40004FF40452DA6230221A631A6842F0807229
:103D50001A601A689201FCD50B4912220A600A689F
:103D600002F00702022AFAD15A6842F002025A60AF
:103D70005A6802F00C02082AFAD11A6B1A637047CB
:103D80000010024000241D0000200240084A08B52F
:103D9000516913680B4003F00103536123B1054AD5
:103DA00013680BB150689847BDE80840FFF7C8BAE0
:103DB00000040140743A0020084A08B551691368AC
:103DC0000B4003F00203536123B1054A93680BB122
:103DD000D0689847BDE80840FFF7B2BA0004014038
:103DE000743A0020084A08B5516913680B4003F083
:103DF0000403536123B1054A13690BB15069984715
:103E0000BDE80840FFF79CBA00040140743A002066
:103E1000084A08B5516913680B4003F00803536161
:103E200023B1054A93690BB1D0699847BDE80840B2
:103E3000FFF786BA00040140743A0020084A08B52A
:103E4000516913680B4003F01003536123B1054A15
:103E5000136A0BB1506A9847BDE80840FFF770BA83
:103E600000040140743A0020174B10B55A691C68D1
:103E7000144004F478725A61A30604D5134A936A75
:103E80000BB1D06A9847600604D5104A136B0BB18A
:103E9000506B9847210604D50C4A936B0BB1D06B3D
:103EA0009847E20504D5094A136C0BB1506C98474A
:103EB000A30504D5054A936C0BB1D06C9847BDE8B7
:103EC0001040FFF73DBA00BF00040140743A0020E3
:103ED0001A4B10B55A691C68144004F47C425A61AC
:103EE000620504D5164A136D0BB1506D9847230532
:103EF00004D5134A936D0BB1D06D9847E00404D5F7
:103F00000F4A136E0BB1506E9847A10404D50C4AAA
:103F1000936E0BB1D06E9847620404D5084A136FB4
:103F20000BB1506F9847230404D5054A936F0BB12A
:103F3000D06F9847BDE81040FFF702BA0004014077
:103F4000743A0020062108B50846FFF723FA062137
:103F50000720FFF71FFA06210820FFF71BFA0621AA
:103F60000920FFF717FA06210A20FFF713FA0621A6
:103F70001720FFF70FFABDE8084006212820FFF7B9
:103F800009BA000008B5FFF773FE00F067F800F00B
:103F90003DF8FFF76BFEBDE8084000F05DB800009B
:103FA000026843681143016003B11847704700007D
:103FB000143000F02FBA00004FF0FF33143000F03F
:103FC00029BA0000383000F0A5BA00004FF0FF33E6
:103FD000383000F09FBA0000143000F0F5B900004E
:103FE0004FF0FF31143000F0EFB90000383000F02E
:103FF0004FBA00004FF0FF32383000F049BA0000ED
:10400000012914BF6FF013000020704700F06CB856
:10401000044B03600023C0E90233436001230374AF
:10402000704700BF7048000838B5C36904460D46A4
:104030001BB904210844FFF7B3FF294604F114001B
:1040400000F0A6F9002806DA201D4FF40061BDE853
:104050003840FFF7A5BF38BD00F00EB80023054A71
:1040600019460133102BC2E9001102F10802F8D100
:10407000704700BF743A00204FF0E023044A5A61B1
:1040800000229A6107221A6108210B20FFF798B9D4
:104090003F19010008B5302383F31188FFF746FA72
:1040A000002383F3118808BD08B5FFF7F3FFBDE8CF
:1040B0000840FFF745B900000268436811430160FA
:1040C00003B1184770470000024A136843F0C00369
:1040D0001360704700380140024A136843F0C00380
:1040E000136070470044004037B51D4C1D4D2046FD
:1040F000FFF78EFF009404F114001B4900232022D7
:1041000000F038F92022009404F13800174B1849C8
:1041100000F0B2F9174BC4E91735174C0C212520D4
:10412000FFF738F92046FFF773FF04F11400134935
:1041300000940023202200F01DF904F13800104BF8
:1041400010490094202200F097F90F4B0C212620F3
:10415000C4E9173503B0BDE83040FFF71BB900BF15
:10416000F43A002000512502CC3B0020C940000851
:104170000C3C002000380140603B0020EC3B00205C
:10418000D94000082C3C0020004400402DE9F047B5
:10419000C66D3768F46934622107054619D014F0FA
:1041A000080118BF4FF48071E20748BF41F02001B9
:1041B000A30748BF41F04001600748BF41F08001BC
:1041C000302383F31188281DFFF776FF002383F344
:1041D0001188E2050AD5302383F311884FF48061FA
:1041E000281DFFF769FF002383F311884FF0300982
:1041F0004FF0000A14F0200838D13B0616D54FF0D6
:10420000300905F1380A200610D589F31188504687
:1042100000F066F9002836DA0821281DFFF74CFF68
:1042200027F080033360002383F31188790614D5C7
:10423000620612D5302383F31188D5E913239A42FD
:1042400008D12B6C33B11021281D27F04007FFF750
:1042500033FF3760002383F31188E30619D5AA6E74
:104260001369B3B1BDE8F0475069184789F3118865
:10427000B38C95F8641028461940FFF7D5FE8AF3F1
:104280001188F469B6E780B2308588F31188F46943
:10429000B9E7BDE8F087000008B50348FFF776FFEF
:1042A000BDE80840FFF74CB8F43A002008B50348D1
:1042B000FFF76CFFBDE80840FFF742B8603B002005
:1042C000F8B5154682680669AA420B46816938BF6F
:1042D0008568761AB54204460BD218462A46FCF782
:1042E00091FEA3692B44A361A3685B1BA3602846CE
:1042F000F8BD0CD918463246FCF784FEAF1BE168C6
:104300003A463044FCF77EFEE3683B44EBE7184650
:104310002A46FCF777FEE368E5E7000083689342EE
:10432000F7B51546044638BF8568D0E90460361AEB
:10433000B5420BD22A46FCF765FE63692B446361E4
:10434000A36828465B1BA36003B0F0BD0DD93246BD
:104350000191FCF757FE0199E068AF1B3A463144E2
:10436000FCF750FEE3683B44E9E72A46FCF74AFEC7
:10437000E368E4E710B50A440024C361029B84604B
:10438000C0E90000C0E90511C1600261036210BD0F
:1043900008B5D0E90532934201D1826882B98268BA
:1043A000013282605A1C42611970D0E904329A428B
:1043B00024BFC36843610021FFF714F9002008BD42
:1043C0004FF0FF30FBE7000070B5302304460E4687
:1043D00083F31188A568A5B1A368A269013BA36016
:1043E000531CA36115782269934224BFE368A3613B
:1043F000E3690BB120469847002383F311882846D0
:1044000007E031462046FFF7DDF80028E2DA85F3C1
:10441000118870BD2DE9F74F04460E4617469846A1
:10442000D0F81C904FF0300A8AF311884FF0000B3F
:10443000154665B12A4631462046FFF741FF03463F
:1044400060B941462046FFF7BDF80028F1D00023AF
:1044500083F31188781B03B0BDE8F08FB9F1000F2A
:1044600003D001902046C847019B8BF31188ED1AB9
:104470001E448AF31188DCE7C0E90511C160C361FD
:104480001144009B8260C0E9000001610362704733
:10449000F8B504460D461646302383F31188A76805
:1044A000A7B1A368013BA36063695A1C62611D70D8
:1044B000D4E904329A4224BFE3686361E3690BB133
:1044C00020469847002080F3118807E031462046B7
:1044D000FFF778F80028E2DA87F31188F8BD0000CA
:1044E000D0E905239A4210B501D182687AB9826871
:1044F000013282605A1C82611C7803699A4224BF8F
:10450000C36883610021FFF76DF8204610BD4FF0AE
:10451000FF30FBE72DE9F74F04460E461746984655
:10452000D0F81C904FF0300A8AF311884FF0000B3E
:10453000154665B12A4631462046FFF7EFFE034691
:1045400060B941462046FFF73DF80028F1D000232E
:1045500083F31188781B03B0BDE8F08FB9F1000F29
:1045600003D001902046C847019B8BF31188ED1AB8
:104570001E448AF31188DCE70B460146184600F01A
:104580002DB8000000F040B8012838BF012010B558
:104590000446204600F030F830B900F007F808B9BA
:1045A00000F00CF88047F4E710BD0000024B1868DB
:1045B000BFF35B8F704700BF4C3C002008B506205E
:1045C00000F084F80120FFF785F80000024B0A464E
:1045D00001461868FFF772B91811002010B5054C94
:1045E00013462CB10A4601460220AFF3008010BDED
:1045F0002046FCE700000000024B01461868FFF768
:1046000061B900BF18110020024B01461868FFF77E
:104610005DB900BF1811002010B501390244904265
:1046200001D1002005E0037811F8014FA34201D029
:10463000181B10BD0130F2E72DE9F041A3B1C91AF2
:1046400017780144044603F1FF3C8C42204601D90F
:10465000002009E00578BD4204F10104F5D10CEB1E
:104660000405D618A54201D1BDE8F08115F8018DE9
:1046700016F801EDF045F5D0E7E700001F2938B541
:1046800004460D4604D9162303604FF0FF3038BDB1
:10469000426C12B152F821304BB9204600F030F88C
:1046A0002A4601462046BDE8384000F017B8012BE5
:1046B0000AD0591C03D1162303600120E7E7002428
:1046C00042F82540284698470020E0E7024B014683
:1046D0001868FFF7D3BF00BF1811002038B5074D89
:1046E00000230446084611462B60FEF7F7FF431CE3
:1046F00002D12B6803B1236038BD00BF503C0020BD
:10470000FEF7E6BF034611F8012B03F8012B002A40
:10471000F9D170476F72672E6172647570696C6F42
:10472000742E663330332D4D313030323500000079
:1047300040A2E4F1646891060041A3E5F265699244
:10474000070000004261642043414E496661636591
:1047500020696E6465782E008000000000800000F3
:104760000000800000000000000000001118000898
:104770002D200008891F0008511800085D18000846
:104780005D1A0008211800083118000825180008D3
:104790002D1800082918000881190008351800088C
:1047A000FD22000845180008551900086330000074
:1047B000AC47000880380020503A00206D61696ED7
:1047C0000069646C65000000A001A82A00000000D8
:1047D000FAAABEAA50001424EFFF000000770000E0
:1047E000709709000100000000000000AAAAAAAA10
:1047F00001000000FFFF00000000000000000000BA
:104800000000000000000000AAAAAAAA0000000000
:10481000FFFF00000000000000000000000000009A
:1048200000000000AAAAAAAA00000000FFFF0000E2
:104830000000000000000000000000000000000078
:10484000AAAAAAAA00000000FFFF000000000000C2
:10485000000000000000000000000000AAAAAAAAB0
:1048600000000000FFFF000000000000000000004A
:1048700000000000CD3F0008B93F0008F53F0008E8
:10488000E13F0008ED3F0008D93F0008C53F0008A0
:10489000B13F000801400008EC03000000000000E8
:1048A0000098030000000000FE2A0100D20400006E
:1048B0001C110020000000000000000000000000AB
:1048C00000000000000000000000000000000000E8
:1048D00000000000000000000000000000000000D8
:1048E00000000000000000000000000000000000C8
:1048F00000000000000000000000000000000000B8
:1049000000000000000000000000000000000000A7
:0449100000000000A3
:00000001FF
