:020000040800F2
:1000000000070020F102000849330008013300080E
:10001000293300080133000821330008F3020008E7
:10002000F3020008F3020008F30200082D43000861
:10003000F3020008F3020008F3020008F3020008CC
:10004000F3020008F3020008F3020008F3020008BC
:10005000F3020008F30200084D5F0008795F000812
:10006000A55F0008D15F0008FD5F0008F1430008AC
:100070001944000845440008714400089D440008E4
:10008000C5440008F1440008F3020008B13200083A
:10009000D9320008C5320008ED3200082960000896
:1000A000F3020008F3020008F3020008F30200085C
:1000B000F3020008F3020008F3020008F30200084C
:1000C000F3020008F3020008F3020008F30200083C
:1000D000F302000801610008F3020008F3020008BF
:1000E0008D600008F3020008F3020008F302000824
:1000F000F3020008F3020008F30200081D4500089F
:10010000F3020008F302000829610008F302000866
:10011000F3020008F3020008F3020008F3020008EB
:1001200049450008714500089D450008C94500087B
:10013000F5450008F3020008F3020008F302000886
:10014000F3020008F3020008F3020008F3020008BB
:100150001D4600084946000875460008F3020008DD
:10016000F3020008F3020008F3020008F30200089B
:10017000F3020008F3020008F3020008F30200088B
:10018000F3020008F3020008F302000815610008FA
:10019000F3020008F3020008F3020008F30200086B
:1001A000F3020008F3020008F3020008F30200085B
:1001B000F3020008F3020008F3020008F30200084B
:1001C000F3020008F3020008F3020008F30200083B
:1001D000F3020008F3020008F3020008F30200082B
:1001E000F3020008F3020008F3020008F30200081B
:1001F000F3020008F3020008F3020008F30200080B
:10020000F3020008F3020008F3020008F3020008FA
:10021000F3020008F3020008F3020008F3020008EA
:10022000F3020008F3020008F3020008F3020008DA
:10023000F3020008F3020008F3020008F3020008CA
:10024000F3020008F3020008F3020008F3020008BA
:10025000F3020008F3020008F3020008F3020008AA
:10026000F3020008F3020008F3020008F30200089A
:10027000F3020008F3020008F3020008F30200088A
:10028000F3020008F3020008F3020008F30200087A
:10029000F3020008F3020008F3020008F30200086A
:1002A000F3020008F3020008F3020008F30200085A
:1002B000F3020008F3020008F3020008F30200084A
:1002C000F3020008F3020008F3020008F30200083A
:1002D000F3020008F3020008F3020008F30200082A
:1002E000CD16000800000000000000000000000023
:1002F00002E000F000F8FEE772B6374880F30888A5
:10030000364880F3098836483649086040F20000D4
:10031000CCF200004EF63471CEF200010860BFF35B
:100320004F8FBFF36F8F40F20000C0F2F0004EF627
:100330008851CEF200010860BFF34F8FBFF36F8F7B
:100340004FF00000E1EE100A4EF63C71CEF20001D3
:100350000860062080F31488BFF36F8F05F0C6FA9B
:1003600005F0C8FB4FF055301F491B4A91423CBF76
:1003700041F8040BFAE71D49184A91423CBF41F885
:10038000040BFAE71A491B4A1B4B9A423EBF51F82D
:10039000040B42F8040BF8E700201849184A914270
:1003A0003CBF41F8040BFAE705F0DEFA05F024FC47
:1003B000144C154DAC4203DA54F8041B8847F9E796
:1003C00000F042F8114C124DAC4203DA54F8041B11
:1003D0008847F9E705F0C6BA00070020002300208F
:1003E0000000000808ED00E00001002000070020E8
:1003F0005866000800230020A0230020A02300202E
:100400007C700020E0020008E4020008E40200081A
:10041000E40200082DE9F04F2DED108AC1F80CD050
:10042000D0F80CD0BDEC108ABDE8F08F002383F328
:1004300011882846A047002004F098FEFEE704F04B
:1004400021FE00DFFEE70000F8B501F055F901F0EC
:1004500003FA01F04DFB05F0CDF9074605F03CFA33
:100460000546A8BB1F4B9F4232D001339F4232D07A
:1004700027F0FF021C4B9A4230D12E4642F21074F4
:10048000F8B200F06FFF00F073FF08B100242646B9
:1004900001F076FD20B10024032000F079F8264613
:1004A00035B1124B9F4203D0002405F00DFA2646C9
:1004B000002005F0A9F90EB100F080F801F0EAFA89
:1004C00000F08AFF204600F00BF900F077F8F9E71A
:1004D0002E460024D7E704460126D4E7064641F21B
:1004E0008834D0E7010007B0000008B0263A09B010
:1004F00008B501F07DF9A0F120035842584108BD2C
:1005000007B541F21203022101A8ADF8043001F051
:100510008DF903B05DF804FB38B5302383F31188FF
:10052000174803680BB104F0DFFE0023154A4FF4AF
:100530007A71134804F0CEFE002383F31188124C25
:10054000236813B12368013B2360636813B16368B8
:10055000013B63600D4D2B7833B963687BB9022092
:1005600001F02EFA322363602B78032B07D16368E6
:100570002BB9022001F024FA4FF47A73636038BD7E
:10058000A023002019050008C0240020B823002063
:10059000084B187003280CD8DFE800F008050208A3
:1005A000022001F00BBA022001F006BA024B002231
:1005B0005A607047B8230020C0240020F8B501F02D
:1005C000DFFC30B13E4B03221A7000223D4B5A60D3
:1005D000F8BD3D4B3D4A1C4619680131F8D0043343
:1005E0009342F9D162683A4B9A42F1D9394B9B68F0
:1005F00003F1006303F580239A42E9D205F038F94C
:1006000005F04AF9002001F04DF90220FFF7C0FF84
:10061000314B00219A6C99641A6F19671A6FDA6C62
:10062000D9645A6F59675A6F1A6D19659A6F99672D
:100630009B6F72B64FF0E023C3F8084DD4E9000475
:10064000BFF34F8FBFF36F8F244AC2F88410BFF3FC
:100650004F8F536923F480335361BFF34F8FD2F828
:10066000803043F6E076C3F3C905C3F34E335B0134
:1006700003EA060C29464CEA81770139C2F8747204
:10068000F9D2203B13F1200FF2D1BFF34F8FBFF30C
:100690006F8FBFF34F8FBFF36F8F536923F4003316
:1006A00053610023C2F85032BFF34F8FBFF36F8FF7
:1006B000302383F31188854680F30888204787E735
:1006C000B8230020C02400200000040820000408F3
:1006D000FFFF0308002300200045025800ED00E062
:1006E0002DE9F04F93B0B74B2022FF2100900AA8CC
:1006F0009D6801F079F9B44A1378A3B90121B34890
:1007000011700360302383F3118803680BB104F088
:10071000EBFD0023AE4A4FF47A71AC4804F0DAFDE9
:10072000002383F31188009B13B1AA4B009A1A602F
:10073000A94A1378032B03D000231370A54A5360F2
:100740004FF0000A009CD3465646D146012001F0E6
:1007500035F924B19F4B1B68002B00F02C82002040
:1007600001F046F80390039B002B01DA00F088FEAD
:10077000039B002BEDDB012001F01EF9039B213BC5
:100780001F2BE3D801A252F823F000BF0D08000888
:1007900035080008C90800084D0700084D07000883
:1007A0004D0700085B0900082B0B0008450A0008EC
:1007B000A70A0008CF0A0008F50A00084D0700083C
:1007C000070B00084D070008790B0008AD0800086A
:1007D0004D070008BD0B000819080008AD08000807
:1007E0004D070008A70A00084D0700084D0700083C
:1007F0004D0700084D0700084D0700084D07000889
:100800004D0700084D070008C90800080220FFF73F
:100810006FFE002840F0F981009B022105A8BAF183
:10082000000F08BF1C4641F21233ADF8143000F03F
:10083000FDFF8BE74FF47A7000F0DAFF071EEBDB69
:100840000220FFF755FE0028E6D0013F052F00F2F9
:10085000DE81DFE807F0030A0D10133605230421BB
:1008600005A8059300F0E2FF17E004215548F9E7D9
:1008700004215A48F6E704215948F3E74FF01C08D1
:10088000404608F1040801F00FF80421059005A87E
:1008900000F0CCFFB8F12C0FF2D101204FF000098D
:1008A00000FA07F747EA0B0B5FFA8BFB01F0E8F859
:1008B00026B10BF00B030B2B08BF0024FFF720FE23
:1008C00044E704214748CDE7002EA5D00BF00B03E9
:1008D0000B2BA1D10220FFF70BFE074600289BD06F
:1008E0000120002600F0DEFF0220FFF751FE1FFA74
:1008F00086F8404600F0E6FF0446B0B10399404652
:100900000136A1F140025142514100F0F3FF0028AD
:10091000EDD1BA46044641F21213022105A83E4623
:10092000ADF8143000F082FF10E725460120FFF7F4
:100930002FFE244B9B68AB4207D9284600F0B4FF3A
:10094000013040F067810435F3E70025224BBA46B9
:100950003E461D701F4B5D60A8E7002E3FF45CAF64
:100960000BF00B030B2B7FF457AF0220FFF710FEA9
:10097000322000F03DFFB0F10008FFF64DAF18F057
:1009800003077FF449AF0F4A08EB050392689342CF
:100990003FF642AFB8F5807F3FF73EAF124BB84508
:1009A000019323DD4FF47A7000F022FF0390039A45
:1009B000002AFFF631AF039A0137019B03F8012BA0
:1009C000EDE700BF00230020BC240020A02300206E
:1009D00019050008C0240020B823002004230020AB
:1009E000082300200C230020BC230020C820FFF790
:1009F0007FFD074600283FF40FAF1F2D11D8C5F12A
:100A000020020AAB25F0030084494245184428BF60
:100A10004246019200F0D6FF019AFF217F4800F084
:100A2000E3FF4FEAA803C8F387027C4928460193F5
:100A300000F0E2FF064600283FF46DAF019B05EB96
:100A4000830533E70220FFF753FD00283FF4E4AEAF
:100A500000F062FF00283FF4DFAE0027B846704B7D
:100A60009B68BB4218D91F2F11D80A9B01330ED0A7
:100A700027F0030312AA134453F8203C0593404681
:100A8000042205A9043701F065FA8046E7E73846F5
:100A900000F00AFF0590F2E7CDF81480042105A8C4
:100AA00000F0C4FE02E70023642104A8049300F0D0
:100AB000B3FE00287FF4B0AE0220FFF719FD002836
:100AC0003FF4AAAE049800F01DFF0590E6E700236E
:100AD000642104A8049300F09FFE00287FF49CAEDC
:100AE0000220FFF705FD00283FF496AE049800F0C1
:100AF0000BFFEAE70220FFF7FBFC00283FF48CAE77
:100B000000F01AFFE1E70220FFF7F2FC00283FF4B3
:100B100083AE05A9142000F015FF074604210490B8
:100B200004A800F083FE3946B9E7322000F060FEE9
:100B3000071EFFF671AEBB077FF46EAE384A07EBB7
:100B40000903926893423FF667AE0220FFF7D0FC9C
:100B500000283FF461AE27F003074F44B9453FF446
:100B6000A5AE484609F1040900F09EFE0421059057
:100B700005A800F05BFEF1E74FF47A70FFF7B8FCD0
:100B800000283FF449AE00F0C7FE002844D00A9B7D
:100B900001330BD008220AA9002000F02DFF002805
:100BA0003AD02022FF210AA800F01EFFFFF7A8FC80
:100BB0001C4804F0E1FA13B0BDE8F08F002E3FF4BA
:100BC0002BAE0BF00B030B2B7FF426AE002364211E
:100BD00005A8059300F020FE074600287FF41CAE10
:100BE0000220FFF785FC804600283FF415AEFFF792
:100BF00087FC41F2883004F0BFFA059800F05EFFF0
:100C000046463C4600F03CFFA0E506464EE64FF067
:100C1000000901E6BA467EE637467CE6BC230020A2
:100C200000230020A0860100094A49F269001368E8
:100C300099B21B0C00FB013344F250611360054B69
:100C4000186882B2000C01FB0200186080B2704785
:100C500014230020102300200021102210B5044688
:100C600000F0C2FE034B03CB206061601868A060F7
:100C700010BD00BF00E8F11F2DE9F041ADF54E7D3C
:100C80000D46002140F275126CAC07460EA80D917E
:100C900000F0AAFE4FF4C4720021204600F0A4FE2A
:100CA0000DF1340802F058FB4FF47A72264BB0FB7A
:100CB000F2F0186093E80700022384E807000DF5BE
:100CC000E9702382FFF7C8FF41F204331F4907A8E8
:100CD000238405F0BFFA15230DF2E3220DF12C0C4D
:100CE00084F8323107AB1E46083203CE664542F81F
:100CF000080C42F8041C3346F5D1306841461060B8
:100D0000204633791371012200F048FF002380B29E
:100D1000E97E0393AB7E029305F11903019301234E
:100D2000009307A3D3E90023CDE90480384602F0FD
:100D3000D1FE0DF54E7DBDE8F08100BFAFF3008020
:100D40009E6AC421818A46EEC8240020646200089D
:100D50002DE9F0412C4CDAB080460D46237A5BBB7E
:100D600027A9284601F028F80746002842D19DF817
:100D70009D60C82E3ED801464FF4A662204600F082
:100D800033FE4FF4807332460DF19E01C4F8F83102
:100D90004FF4007304F109002644C4F80C334FF4F7
:100DA0004073C4F8203400F00DFE9DF89C3077723B
:100DB00023720BB9EB7E237206AC8122002127A897
:100DC00000F012FE0122214627A801F031F800238D
:100DD00080B2E97E0393AB7E029305F11903019380
:100DE0002823CDE904400093404605A3D3E900231E
:100DF00002F070FE5AB0BDE8F08100BFAFF3008092
:100E000026417272DF25D7B7905E0020F0B5254EDF
:100E10004FF48A75F1B0002405FB006596F8D830D0
:100E2000D822214685F8DC303AA885F8E84006AF9C
:100E300000F0DAFD06F1090000F0CEFDD5F8E4304F
:100E4000C2B206F109018DF8F0000DF1F100CDE913
:100E50003A3400F0B7FD394601223AA801F014F8FF
:100E6000082380B2317ACDE9047001270E48CDE91C
:100E7000023706F1D80301933023009307A3D3E987
:100E8000002302F027FEA04206DD02F065FAC5F855
:100E9000E000384671B0F0BD2046FBE778F6339F9E
:100EA00093CACD8D905E0020E03400202DE9F04FF4
:100EB000264F87B0DFF8A080254E384602F036FE78
:100EC000034600283AD00024224DADF81440A14634
:100ED0000294A246CDE90344027B8DF8142003AAB4
:100EE0009968406803C21B6843F0004302932B6873
:100EF00004F5A664D3F810B002F030FA10EB080243
:100F0000CDF800A0284605F5A65541F1000302A939
:100F1000D8470028C8BF49F00109B4F5266FE6D1CB
:100F2000B9F1000F05D0384602F004FE86F800A0A3
:100F3000C3E73378072B04D80133337007B0BDE81B
:100F4000F08F024802F0F6FDF8E700BFE034002021
:100F5000C56300201035002040420F0070B50D46DB
:100F600014461E4602F012FD50B9022E10D1012C7B
:100F70000ED112A3D3E900230120C5E9002307E025
:100F8000282C10D005D8012C09D0052C0FD000201A
:100F900070BD302CFBD10BA3D3E90023ECE70BA3EE
:100FA000D3E90023E8E70BA3D3E90023E4E70BA38D
:100FB000D3E90023E0E700BFAFF30080401DA1208C
:100FC00026812A0B78F6339F93CACD8D9E6AC42161
:100FD000818A46EE26417272DF25D7B7F017304A74
:100FE00039059E5638B505460E4C0021013500F0F6
:100FF00081FCA4F82C55B4F82C0500F063FC78B102
:10100000B4F82C0500F06EFC014648B9B4F82C0584
:1010100000F070FCB4F82C350133A4F82C35EAE765
:1010200038BD00BF905E0020F8B50D4C02260D4F74
:10103000A4F5805343F8307C237E3BB965692DB11C
:10104000284601F01BF8284605F0BAF82046A4F51A
:10105000A65401F013F8012E00D1F8BD0126E7E7F0
:10106000005A00201C6300082DE9F04F8FB00546A0
:101070000C4600AF02F08AFC002849D1237E022BE7
:101080001BD1E38A012B18D102F066F90646FFF75F
:10109000CBFD03464FF4C87006F51676DFF8C08224
:1010A000B3FBF0F202FB103316FA83F3C8F80030FA
:1010B000E37E33B9A34B00221A703C37BD46BDE82E
:1010C000F08F07F12401204600F034FE0028F4D10F
:1010D00007F11400FFF7C0FD97F8264007F114014F
:1010E00007F12700224605F083F80028E2D10F2CF3
:1010F00008D8944B1C70D8F80030A3F51673C8F8C4
:101100000030DAE797F82410284602F037FCD4E7DD
:10111000E38A282B2BD010D8012B23D0052BCCD140
:10112000BFF34F8F8849894BCA6802F4E0621343CA
:10113000CB60BFF34F8F00BFFDE7302BBDD1844E96
:10114000E17E327A9142B8D1607E3146002291F838
:10115000DC50854200F0A580013201F58A71042A35
:10116000F5D1AAE721462846FFF786FDA5E72146E7
:101170002846FFF7EDFDA0E7B2F8EC507B6005F1E3
:1011800003094FEA99094FEA8902D11DC908A8EB62
:10119000C10300219D46EB46584600F025FC04F1B2
:1011A000EE012A465846314400F00CFC7B6813B926
:1011B000012000F077FB96F8D20000F083FB044694
:1011C00030B9307200F0A8FB204600F06BFBB1E0B4
:1011D000D6F8D4203AB996F8D200B6F82C25824237
:1011E00001D8FFF7FFFED6F8D4202A44944208D253
:1011F00096F8D200B6F82C250130824201D8FFF7CC
:10120000F1FE5FFA89F25946706800F0F5FB08B903
:10121000C54679E0726896F8D2002A447260D6F822
:10122000D42005EB0209C6F8D49000F04BFB8145B1
:1012300009D396F8D220D6F8D4000132001B86F8E4
:10124000D220C6F8D400FF2D0FD80024347200F04D
:1012500063FB204600F026FB00F092FE3D4B188118
:1012600008B9FFF7ABF9C54627E7BB6896F8D90080
:101270000AFB0362FB68D2F8E41082F8E83001F55B
:101280008061C2F8E030C2F8E410FFF7BFFDFFF75D
:101290000DFE96F8D920013202F0030286F8D9201B
:1012A000B6E74FF48A7A20460AFB02F505F1EA0117
:1012B000314400F015FEF86000287FF4FEAE0122F4
:1012C000354485F8E82002F047F8D5F8E020D6ED5F
:1012D000007A801A40F6B832B8EE677ADFED1E6AFF
:1012E000192838BF1920904228BF104607EE900AEF
:1012F000F8EEE77A67EEA67ADFED186AE7EE267A6F
:10130000FCEEE77AC6ED007A96F8D930BB60BA6891
:1013100073680AFB02F4321992F8E81059B1D2F856
:10132000E410E8468B423FF427AF002182F8E81032
:10133000C2F8E010C5467368064A9B0A0133138160
:10134000BBE600BFD934002000ED00E00400FA0540
:10135000905E0020C8240020CDCCCC3D6666663F60
:10136000DC340020014B1870704700BFD4240020EB
:1013700038B54FF00054144B22689A4221D1627D57
:101380000025124B12481A70C922237D09301149D9
:1013900000F8013C4FF48073C0F8DB50C0F8EF3127
:1013A0004FF40073C0F803334FF44073C0F81734A0
:1013B00000F008FBE0222946204600F015FB012042
:1013C00038BD0020FCE700BF9AAD44C5D4240020FE
:1013D000905E00201600002037B500F0D1FD1F4CB4
:1013E0001F4D022301221F496B712368288120466B
:1013F0005B68984704F5805301221A49D3F8C0343A
:1014000004F5A6505B689847002317494FF48052B3
:101410000193164B16480093164B02F087FA164BB1
:10142000197811B1124802F0A9FA01F095FF0446AB
:10143000FFF7FAFB4FF4C873B0FBF3F202FB1303A0
:1014400004F5167010FA83F00C4B186004F044FA9F
:1014500008B10F232B8103B030BD00BF1035002031
:10146000C824002040420F00D82400205D0F00084F
:10147000E034002069100008D4240020DC3400206F
:101480002DE9F04F00242DED028B93B00DF12C08C7
:101490004FF0010ADFF814B2FFF708FD0A94ADF827
:1014A00034400B94C8F804409FED798B00267E4DA4
:1014B00037462B680DF11D0207A928468DF81CA0A0
:1014C0008DF81D408DED008BD3F808900023C847A0
:1014D0009DF81C90B9F1000F1ED0102200210EA81B
:1014E00000F082FA2B6808AA0AA95F6928460DF164
:1014F0001E03B8470FAB4F4698E8030083E803008C
:101500009DF834300EA958468DF844300A9B0E934E
:10151000DDE9082302F0ECFC06F5A66605F5A65504
:10152000B6F5266FC5D1002FC0D1604802F02EFA63
:1015300000283FD15E4E01F00FFF3368984239D347
:1015400001F00AFF0546FFF76FFB4FF4C8738DF8F3
:101550002870B0FBF3F202FB130305F5167010FAC6
:1015600083F03060534E377817B901238DF8283057
:10157000C7F110050EA8FFF76FFB0EABEDB20DF132
:101580002900D919062D28BF06252A46013500F065
:1015900019FA0AABEDB24548039318230495029358
:1015A000454B0193012300933BA3D3E9002302F0B1
:1015B00033FA347001F0D0FE404A414D1368C31A2B
:1015C000B3F57A7F2FD3106001F0C8FE02460B46B8
:1015D000364802F0B9FA354802F0D8F918B32B7A38
:1015E0000EAF384E002B14BF03230223737101F09A
:1015F000B3FE4FF47A7301223946B0FBF3F030604A
:10160000304600F06FFB182380B202932E4B0193FB
:1016100040F25513CDE903700093244820A3D3E989
:10162000002302F0F9F92B7A93B101F095FE002620
:1016300007464FF48A7895F8D900304400F003004B
:1016400008FB005393F8E82072B10136042EF2D162
:10165000C82003F091FD2B7A002B7FF417AF13B055
:10166000BDEC028BBDE8F08FD3F8E02042B12B68CF
:10167000BA1AFA2B38BFFA230533B2EB430FE4D37F
:10168000FFF7C4FB0028E0D1E2E700BFAFF3008022
:101690000000000000000000401DA12026812A0B50
:1016A000F1C6A7C1D068080F10350020E034002033
:1016B000DC340020D9340020D8340020C06300205E
:1016C000905E0020C8240020C463002010B5074CA1
:1016D000204601F005F904F5A65001F001F9044A8D
:1016E00004490020BDE8104004F064BD103500201E
:1016F0002064002029100008F8B50A25204C01229A
:101700004FF400712046192703F0A0F8204601226B
:101710004FF4807103F09AF84FF480766520013819
:1017200025D00822A2F10801B646332905D84FF08A
:10173000000C66834FF000730DE0A1F13403668363
:10174000B3FBF7FC07FB1C33002B0CBF4FF0010C65
:101750004FF0000CEED1013143EA4C238A42A361E1
:10176000A4F818E0E1D10832A02AD8D0DAE7013D88
:1017700042F2107003F000FD15F0FF05BFD1F8BD77
:10178000000402582DE9F84F4FF47A7306460D46CF
:10179000002402FB03F7DFF85080DFF8509098F93F
:1017A00000305FFA84FA5A1C01D0A34212D159F8D2
:1017B00024002A4631460368D3F820B03B46D84778
:1017C000854207D1074B012083F800A0BDE8F88FC0
:1017D0000124E4E7002CFBD04FF4FA7003F0CCFCBA
:1017E0000020F3E70C640020182300201C230020B5
:1017F000002307B5024601210DF107008DF80730DF
:10180000FFF7C0FF20B19DF8070003B05DF804FBAF
:101810004FF0FF30F9E700000A46042108B5FFF752
:10182000B1FF80F00100C0B2404208BD074B0A463C
:1018300030B41978064B53F82140014623682046FE
:10184000DD69044BAC4630BC604700BF0C6400202F
:101850001C230020A086010070B5104C0025104EFE
:1018600003F05AFE20803068238883420CD800257C
:101870002088013803F04CFE23880544013BB5F570
:10188000802F2380F4D370BD03F042FE33680544FB
:101890000133B5F5802F3360E5D3E8E70E6400200F
:1018A000C863002003F006BF00F1006000F580204F
:1018B0000068704700F10060920000F5802003F09E
:1018C00087BE0000054B1A68054B1B889B1A834294
:1018D00002D9104403F01CBE00207047C8630020EA
:1018E0000E640020024B1B68184403F017BE00BFB3
:1018F000C8630020024B1B68184403F021BE00BFE0
:10190000C86300200020704700F1FF5000F58F10E1
:10191000D0F8000870470000064991F8243033B130
:1019200000230822086A81F82430FFF7C3BF012092
:10193000704700BFCC630020014B1868704700BFA0
:101940000010005C194B01380322084470B51D6873
:10195000174BC5F30B042D0C1E88A6420BD15C68F7
:101960000A46013C824213460FD214F9016F4EB170
:1019700002F8016BF6E7013A03F10803ECD181426A
:101980000B4602D22C2203F8012B0424094A1688A4
:10199000AE4204D1984284BF967803F8016B013CB3
:1019A00002F10402F3D1581A70BD00BF0010005CB0
:1019B00024230020A8620008704700007047000040
:1019C00070470000002310B5934203D0CC5CC45490
:1019D0000133F9E710BD000003460246D01A12F9A0
:1019E000011B0029FAD1704702440346934202D0FA
:1019F00003F8011BFAE770472DE9F8431F4D144621
:101A00000746884695F8242052BBDFF870909CB3B7
:101A100095F824302BB92022FF2148462F62FFF78A
:101A2000E3FF95F824004146C0F1080205EB800071
:101A3000A24228BF2246D6B29200FFF7C3FF95F814
:101A40002430A41B17441E449044E4B2F6B2082E7E
:101A500085F82460DBD1FFF75FFF0028D7D108E0CD
:101A60002B6A03EB82038342CFD0FFF755FF002898
:101A7000CBD10020BDE8F8830120FBE7CC63002038
:101A8000024B1A78024B1A70704700BF0C6400209A
:101A90001823002010B5074C4FF4E13306492068A5
:101AA0000B6003F055FA60680349BDE8104003F08D
:101AB0004FBA00BF1C230020F4630020094B1822FA
:101AC000002110B504461846FFF78EFF064A074B63
:101AD00001461278046053F82200BDE8104003F07C
:101AE00037BA00BFF46300200C6400201C230020E0
:101AF000F0B5A1B071B600230120002480261A465B
:101B0000194602F055FE4FF4D067214A3D2513696E
:101B100023BBD2F810310BBB036804F1006199605C
:101B20000368C3F80CD003685E6003681F60016837
:101B30000B6843F001030B6001680B6823F01E0380
:101B40000B6001680B68DB07FCD4037B80344168C1
:101B500005FA03F3B4F5001F0B60D8D102F05EFE66
:101B6000B4F5001F11D000240A4E0B4D012003F0E4
:101B7000A1FD3388A34205D928682044013403F02D
:101B8000DFFCF6E7002003F095FD61B621B0F0BD63
:101B9000002000520E640020C86300202DE9F047A9
:101BA0000D46044600219046284640F27912FFF780
:101BB0001BFF234620220021284604F1220702F0C1
:101BC00039F9231D022220212846C02602F032F9CD
:101BD000631D03222221284602F02CF9A31D0322B3
:101BE0002521284602F026F904F1080310222821B5
:101BF000284602F01FF904F1100308223821284674
:101C000002F018F904F1110308224021284602F0DD
:101C100011F904F1120308224821284602F00AF9BA
:101C200004F1140320225021284602F003F904F1A4
:101C3000180340227021284602F0FCF804F120032A
:101C40000822B021284602F0F5F804F12103082209
:101C5000B821284602F0EEF8314608363B46082205
:101C60002846013702F0E6F8B6F5A07FF4D1002748
:101C700004F1330A04F1320308223146284602F007
:101C8000D9F894F832304FEAC7099F4209F5A47693
:101C900015D3B8F1000F08D1314609F24F1604F5FB
:101CA00099730722284602F0C5F827463B1B94F893
:101CB000322193420CD3F01DC008BDE8F0870AEB37
:101CC0000703082231462846013702F0B3F8D8E767
:101CD00007F233133146082228460836013702F04E
:101CE000A9F8E3E713B5044608460021202223465D
:101CF00001900160C0F8031002F09CF8231D0198C8
:101D00000222202102F096F8631D0198032222216D
:101D100002F090F8A31D01980322252102F08AF811
:101D2000019804F108031022282102F083F807200B
:101D300002B010BD0023F7B50E46047F07220091C4
:101D40001946054601F03AFF731C01220721009352
:101D50002846002301F032FFC4B9B31C0522082134
:101D60002846009323460D2401F028FF3746BB1B6D
:101D7000B278934211D307342B7FA88AE408BBB909
:101D8000844294BF0020012003B0F0BDAB8A082438
:101D9000DB00083BDB08B370E8E7FB1C21460822A8
:101DA0002846009300230834013701F007FFDEE7DF
:101DB000201A18BF0120E7E70023F7B50E46047F7D
:101DC000082200911946054601F0F8FE731CC4B9BB
:101DD00008220093234610241146284601F0EEFE07
:101DE00001235F1C7278013B934211D307342B7F90
:101DF000A88AE408BBB9844294BF0020012003B044
:101E0000F0BDAB8A0824DB00083BDB087370E7E712
:101E1000F3192146082228460093002301F0CEFE44
:101E200008343B46DDE7201A18BF0120E7E7000031
:101E3000F8B50E4605461446002181223046FFF7CC
:101E4000D3FD2B4608220021304601F0F3FF7CB978
:101E50000F246B1C07220821304601F0EBFF012301
:101E60005F1C6A78013B934204D3E01DC008F8BDB3
:101E70000824F4E7EB1921460822304601F0DAFF86
:101E800008343B46ECE70000F8B50E46054614461C
:101E90000021CE223046FFF7A7FD2B462822002145
:101EA000304601F0C7FF7CB9302405F10803082251
:101EB0002821304601F0BEFF2F467B1B2A7A934231
:101EC00004D3E01DC008F8BD2824F5E707F1090395
:101ED0002146082230460834013701F0ABFFECE719
:101EE000F7B5047F0E46009101231022002105461C
:101EF00001F064FEC4B9B31C0922102128460093E6
:101F00002346192401F05AFE37467288BB1B9A42B9
:101F100011D807342B7FA88AE408BBB9844294BF48
:101F20000020012003B0F0BDAB8A1024DB00103B81
:101F3000DB087380E8E73B1D214608222846009312
:101F400000230834013701F039FEDEE7201A18BFFC
:101F50000120E7E730B50A44084D91420DD011F851
:101F6000013B5840082340F30004013B2C4013F090
:101F7000FF0384EA5000F6D1EFE730BD2083B8EDCF
:101F8000F7B5384A6B46106851686A4603C30823A0
:101F90003549364804F03CF90446002833D10A2577
:101FA000334A6B46106851686A4603C308233149B7
:101FB0002E4804F02DF90446002849D00369B3F5F2
:101FC000E01F45D8B0F8661040F2134291423FD16D
:101FD000294A024402F15C018B4239D35C3B23491C
:101FE00000209E1AFFF7B6FF04F16401074632464F
:101FF0000020FFF7AFFFA3689F4229D1E368984212
:1020000008BF002524E00369B3F5E01F27D8418B02
:1020100040F21342914220D1174A024402F11001CA
:102020008B4218D3103B114900209D1AFFF792FFF5
:1020300004F1180106462A460020FFF78BFFA3682B
:102040009E4202D1E368984201D00D25A8E7002501
:10205000284603B0F0BD1025A2E70C25A0E70B250C
:102060009EE700BFB8620008DCFF1B000000040808
:10207000C162000890FF1B000800FCF710B5037C4C
:10208000044613B9006804F0ABF8204610BD000008
:102090000023BFF35B8FC360BFF35B8FBFF35B8F26
:1020A0008360BFF35B8F7047BFF35B8F0068BFF344
:1020B0005B8F704770B505460C30FFF7F5FF04469F
:1020C00005F108063046FFF7EFFFA04206D96D681C
:1020D0003046FFF7E9FF2544281A70BD3046FFF768
:1020E000E3FF201AF9E7000070B505464068A0B18B
:1020F00005F10C0605F10800FFF7D6FF044630464F
:10210000FFF7D2FF844204F1FF34304694BF6D687C
:102110000025FFF7C9FF2C44201A70BD38B50C46C6
:102120000546FFF7C7FFA04210D305F10800FFF7EF
:10213000BBFF04446868BFF35B8FB4FBF0F100FBA6
:1021400011440120AC60BFF35B8F38BD0020FCE779
:102150002DE9F041144607460D46FFF7C5FF8442BE
:1021600028BF0446D4B1B84658F80C6B4046FFF778
:102170009BFF3044286040467E68FFF795FF331A86
:102180009C4203D801206C60BDE8F081A41B6B6009
:102190003B682044AB60E8600220F5E72046F3E7A7
:1021A00038B50C460546FFF79FFFA04210D305F156
:1021B0000C00FFF779FF04446868BFF35B8FB4FB42
:1021C000F0F100FB11440120EC60BFF35B8F38BDE0
:1021D0000020FCE72DE9FF418846694607466C462A
:1021E000FFF7B6FF002506B204EBC606B4420AD0DC
:1021F000626808EB050120680834FFF7E3FB54F838
:10220000043C1D44F2E729463846FFF7C9FF28463B
:1022100004B0BDE8F0810000F8B505460C300F466B
:10222000FFF742FF05F1080604463046FFF73CFF82
:10223000A042304688BF6C68FFF736FF201A38602E
:1022400020B12C683046FFF72FFF2044F8BD000076
:1022500073B5144606460D46FFF72CFF84420190E5
:1022600028BF0446DCB101A93046FFF7D5FF019B2A
:1022700033B93268C5E90233C5E9002401200CE016
:102280009C42286038BF0194019884426860F5D967
:102290003368241A0220AB60EC6002B070BD2046A7
:1022A000FBE700002DE9FF410F4669466C46FFF74A
:1022B000CFFF00B2002604EBC005AC4209D0D4F831
:1022C0000480B81954F8081B42464644FFF77AFBCD
:1022D000F3E7304604B0BDE8F081000038B50546AC
:1022E000FFF7E0FF044601462846FFF717FF2046A8
:1022F00038BD00007047000010B41346026814682F
:102300000022A4465DF8044B6047000000F58050B1
:1023100090F859047047000000F5805090F852047E
:102320007047000000F5805090F958047047000095
:102330004E207047302383F3118800F58052D2F885
:102340009C34D2F898041844D2F894341844D2F843
:102350007C341844D2F88C341844D2F888341844A9
:10236000002383F31188704700F58050C0F854149F
:10237000012070472DE9F04F0C4600F5805185B0E3
:102380001F4691F8523405469046BDF838909BB1EF
:10239000D1F878340133C1F878342368980006D432
:1023A000237B082B0BD9627B0AB10F2B07D9D1F8FD
:1023B0007C340133C1F87C344FF0FF3010E030231F
:1023C00083F31188EB6AD3F8C42012F4001B0AD0FF
:1023D000D1F8803400200133C1F8803480F31188B3
:1023E00005B0BDE8F08F20684822D3F8C43000283B
:1023F000C3F3044A6B6AB4BF40F08040800412FB10
:102400000A334FEA4A161860226852004FEA0A62FD
:1024100044BF40F000501860207B42EA00425A60FE
:10242000607B10B342F440125A60D1F8B0240132FC
:10243000C1F8B024AA1902F58352117B41F02001A2
:102440001173207B039300F0E3FF0330039B8010A4
:102450005FFA8BF20BF1010B82420DDA04EB820181
:1024600003EB820249689160F2E7AA1902F58352F0
:10247000117B60F34511E3E70122EB6A05EB4A119A
:1024800002FA0AF201F58251C3F8D020AB191831D3
:1024900004F10C0203F58253C3E90487234653F881
:1024A000040B934241F8040BF9D11B882E440B8096
:1024B00041F2680346F803A006F5805609F00303CD
:1024C00096F86C2043F0100322F01F02134386F8A5
:1024D0006C30002383F3118842463B462146284650
:1024E000CDF8009000F05AFF012079E72DE9F04780
:1024F00000F58056044696F85254002D40F00381B2
:10250000037C032B40F0948028462B462F465FFA2D
:1025100080FC944510DA01EBCC0E51F83CC0BCF1C4
:10252000000F04DBDEF804C0BCF1000F02DB013752
:102530000130ECE70133FBE7302080F31188E06ADB
:10254000F3B9D0F8803043F00203C0F880304E2356
:10255000E06A002F6FD1D0F8803043F00103C0F85B
:1025600080306A4B6A4A1B6803F1805303F52C5391
:102570009B009342A36240F2B080664800F0E6FE02
:102580004D2B42D8DFF884814FEA034EDFF8889163
:10259000D8F800C04EEA8C0EC0F884E00CF18050F0
:1025A00000F52C508000606103EB0C00D4F82CC0C7
:1025B000C3F14E03C8F80000DCF8800040F03000A2
:1025C000CCF880004FF0000CD4F81480E6465FFA97
:1025D0008CF08242BCDD01EBC00A51F830000028CB
:1025E00010DBDAF804A0BAF1000F0BDA09EA0040B8
:1025F0000AF07F0A40EA0A0040F0084048F82E003E
:102600000EF1010E0CF1010CE1E7836923F00103E7
:10261000836100F0A1FE0646E36A9B69D90704D5F1
:1026200000F09AFE831BFA2BF6D9002383F311885E
:102630002846BDE8F087B7EB530F3DD2DFF8CCE07A
:102640004FEA074CDEF800304CEA830CC0F888C033
:1026500003F1805003EB4703002700F52C50CEF820
:102660000030BC468000A061E06AD0F8803043F0C2
:102670000C03C0F88030D4F818E0FBB29A427FF720
:1026800070AF51F8330001EBC3080028D8F80430CC
:1026900001DB002B0EDB20F0604023F0604340F0B4
:1026A000005043F000434EF83C000EEBCC000CF120
:1026B000010C43600137E0E7836923F00103836184
:1026C00000F04AFE0646E36A9B69DA07ADD500F0E2
:1026D00043FE831BFA2BF6D9A7E7E26A936923F03E
:1026E0000103936100F038FE0746E36A9B69DB074C
:1026F00005D500F031FEC31BFA2BF6D995E701256D
:1027000086F8525491E7002592E700BF1C64002030
:10271000FCB50040CC6200080000FF0713B500F5CF
:1027200080540191606CFFF7DFFC1F280AD920223A
:102730000199606CFFF74EFDA0F12003584258410B
:1027400002B010BD0020FBE708B5302383F31188E9
:1027500000F58050406CFFF79BFC002383F3118849
:1027600008BD0000002202608281426082607047E2
:102770000022002310B5C0E90023002304460C30DA
:1027800020F8043CFFF7EEFF204610BD2DE9F0478E
:102790009A4688B0074688469146302383F31188CD
:1027A00007F580546846FFF7E3FF606CFFF782FC93
:1027B0001F282ED920226946606CFFF78FFD202844
:1027C00027D194F8523423B303AD444605AB2E46CB
:1027D000083403CE9E4244F8080C44F8041C3546E5
:1027E000F5D130682060B388A380DDE90023C9E912
:1027F0000023BDF80830AAF80030002383F31188C5
:1028000053464A464146384608B0BDE8F04700F016
:10281000B3BD002080F3118808B0BDE8F087000048
:102820002DE9F84F0023064600F5815405468846F9
:102830001034C0E90133274B46F8303B3746384661
:102840002037FFF795FFA742F9D105F580544FF4E3
:10285000805305F5A3594FF0000A266300266764EC
:1028600005F5835709F110094FF0000B1037E663A7
:10287000C4E90D36012384F8403084F84830A7F1CC
:102880001800203747E910ABFFF76CFF47F8286CBA
:102890004F45F4D1B8F1010F84F85884A4F85A6474
:1028A000A4F85C64A4F85E6484F86064A4F86264CC
:1028B000A4F86464A4F8666484F8686402D90648DD
:1028C00000F044FD054B284653F82830EB62BDE884
:1028D000F88F00BF1C630008F06200080C6300085A
:1028E000044B10B5197804464A1C1A70FFF798FF7C
:1028F000204610BD196400202DE9F04300295AD06C
:102900002E4E2F48B6FBF1F481428CBF0A201120D5
:10291000431EB4FBF0F700FB1740DDB220B1022BE1
:102920001846F5D8002032E07B1EB3F5806F2ED21A
:10293000C5EBC5084FF47A7308F103044FEAE40EBF
:10294000C4F3C7040EF10109281B0EFB033E5FFA16
:1029500080FC59FA80F0BEFBF0F0B0F5617F18DC26
:1029600083B2601C5CFA80F07843B6FBF0F08142E1
:10297000D8D1611E0F29D5D80CF1FF310729D1D844
:102980000120138057801071547182F806C0BDE891
:10299000F08308F1FF34E010C4F3C70400F1010E26
:1029A0002D1B00FB03335FFA85FC5EFA85F5B3FB54
:1029B000F5F39BB2D5E70846E9E700BF00B4C404CD
:1029C0003F420F0030B50D4B05200D4D1C786C4378
:1029D0008C420ED159780120518099785171D97863
:1029E0009171197911715B7903EB83035B0013809B
:1029F00030BD013803F10603E8D1F9E75C63000854
:102A000040420F0038B540F27772C36A154CC3F8E4
:102A1000BC200722C36AC3F8C8202268C16A930099
:102A200043F4C023C1F8A03002F1805302F16C01DD
:102A3000C56A03F52C53EA3289009B00226041F0FD
:102A4000E061094AC361C5F8C01003F5D87103F508
:102A50006A7341629342836202D9044800F076FCB3
:102A600038BD00BF1C640020FCB50040CC620008EB
:102A70002DE9F04F00F580551F4689B0044695F8C2
:102A8000583489469046022B04D90026304609B0B6
:102A9000BDE8F08FA84A52F8231009B942F8230084
:102AA000A648C4F80C9001782774C9B9302383F381
:102AB0001188A34BD3F8EC2042F48072C3F8EC20C9
:102AC000D3F8942042F48072C3F89420D3F8942071
:102AD00022F48072C3F894200123037081F31188DB
:102AE00095F851347BB9302383F31188954A95F8D2
:102AF0005834D35C0BB3012B28D0012385F8513413
:102B0000002383F31188302383F31188E26A9369E9
:102B100023F01003936100F01FFC8246E36A9E6974
:102B200016F0080619D000F017FCA0EB0A03FA2BE8
:102B3000F4D9002686F31188A8E70321132002F0B8
:102B40003BF80321152002F037F8D6E703211420C3
:102B500002F032F803211620F5E79A6942F00102EB
:102B60009A6100F0F9FB8246E36A9A69D00706D4BD
:102B700000F0F2FBA0EB0A03FA2BF5D9D9E79A692A
:102B80004FF0000A42F002029A61E36AC3F854A0CF
:102B90008AF3118804F5825B686CFFF779FA0BF110
:102BA000100B202200216846FEF71EFF02A8FFF747
:102BB000D9FD6A460BEB06030DF1180ECDF818A0EF
:102BC00094460833BCE80300F44543F8080C43F886
:102BD000041C6246F4D1DCF8000020361860B6F51B
:102BE000806F9CF804201A71DBD1002304F5A252F7
:102BF000494620461A3285F8503485F85334FFF799
:102C00007BFE064690B9E26A936923F00103936163
:102C100000F0A2FB0546E36A9B69D9077FF535AF53
:102C200000F09AFB431BFA2BF5D92EE795F85E349A
:102C3000C5F86C94591E95F85F34E26A013B1B029B
:102C400043EA416395F8601401390B43B5F85C140D
:102C5000013943EA0143D361B8F1000F36D004F5DE
:102C6000A352414620460232FFF7ACFE90B9E26A19
:102C7000936923F00103936100F06EFB0546E36A5C
:102C80009B69DA077FF501AF00F066FB431BFA2B67
:102C9000F5D9FAE695F86724C5F87084511E95F8C1
:102CA0006824E36A013A120142EA012295F86614A7
:102CB00001390A43B5F86414013942EA014242F489
:102CC0000002DA604FF42062E36A9A64E36A4FF02C
:102CD00000082046C3F8BC80FFF794FE85F85984AD
:102CE0006FF04042E36A1A65174AE36A5A654FF08B
:102CF0000222E36A9A654FF0FF32E36AC3F8E020EC
:102D00000322E36A9742DA653FF4C0AEE26A936950
:102D100023F00103936100F01FFB0746E36A9B6900
:102D2000DB0705D500F018FBC31BFA2BF6D9ACE680
:102D3000012385F85234A9E61064002018640020AD
:102D40000044025804630008550200022DE9F04FC8
:102D5000054689B090469946002741F2680A00F579
:102D60008056EB6AD3F8D830FB40D80751D505EB35
:102D700047124FEA471B52441379190749D4D6F832
:102D800084340133C6F8843405F5A553C3E90089BA
:102D900013799A0605EB0B0248BFD6F8B4345244B7
:102DA00044BF0133C6F8B434137943F008031371F8
:102DB000DB0723D596F8533403B305F582546846F0
:102DC000FFF7D6FC03AB18345C4404F1080C206810
:102DD000083454F8041C1A46644503C21346F6D15D
:102DE0002068694610602846A2889A800123ADF8C1
:102DF00008302B68CDE90089DB6B9847D6F8A834FA
:102E0000D6F854040133C6F8A83410B103681B691E
:102E100098470137202FA4D109B0BDE8F08F0000FA
:102E20002DE9F04F0F468DB0044600F097FA824628
:102E30008946002F5BD1E36AD3F8A02012F4FE0F7D
:102E400003D100200DB0BDE8F08FD3F8A42092018B
:102E500041BF04F58051D1F898240132C1F898247B
:102E6000D3F8A4205606ECD0D3F8A450E669C5F3F5
:102E700005254823E8464FF0000B03FB0566404656
:102E8000FFF770FC326851004ABF22F06043C2F382
:102E90008A4343F00043920048BF43F080430093CD
:102EA000736813F400131BBF012304F580528DF8DF
:102EB0000D308DF80D301EBFD2F8B8340133C2F892
:102EC000B834F38803F00F038DF80C309DF80C0034
:102ED00000F09EFA5FFA8BF3984225D9F2180CA9FC
:102EE0000BF1010B127A0B4403F82C2CEEE7012FA7
:102EF000A7D1E36AD3F8B02012F4FE0FA1D0D3F823
:102F0000B420950141BF04F58051D1F898240132D5
:102F1000C1F89824D3F8B420500692D0D3F8B45016
:102F2000266AC5F30525A4E7EFB9E36AC3F8A850FC
:102F300004A807ADFFF71CFC98E80F0007C52B801D
:102F40000023204604A9ADF81830236804F5805406
:102F5000DB6BCDE904A9984758B1D4F8903401331C
:102F6000C4F890346EE7012FE2D1E36AC3F8B85099
:102F7000DEE7D4F8943401200133C4F8943461E7D7
:102F80002DE9F04105460F4600F5805401263946EB
:102F90002846FFF745FF10B184F85364F7E7D4F8EB
:102FA000A834D4F854040133C4F8A83420B1036819
:102FB000BDE8F0411B691847BDE8F081C36AF0B570
:102FC0001A6C12F47F0F2BD01B6C00F5805441F269
:102FD00068054FF0010CC4F8AC340023471900EB2E
:102FE00043125E012A44117911F0020F15D04907EE
:102FF00013D4B959C66A0CFA01F1D6F8CCE011EA3B
:103000000E0F0AD0C6F8D410117941F004011171E5
:10301000D4F88C240132C4F88C240133202BDED167
:10302000F0BD00002B4B70B51E561B5C012B30D839
:10303000294D2A4A55F8233052F8264013B349B394
:10304000236D9A0510D54FF40073236500F086F9BF
:1030500050EA01020B4602D0013861F1000302463A
:1030600055F82600FFF772FE236D9B012CD54FF01B
:10307000007255F82630226503F58053012283F84B
:10308000592421E001232365102323654FF4805345
:10309000236570BD236DDA0702D4236D5B0706D567
:1030A0000523002155F826002365FFF769FF236DEE
:1030B000D80602D4236D590606D55023012155F8B0
:1030C00026002365FFF75CFF55F82600BDE8704039
:1030D000FFF774BF08630008106400200C63000849
:1030E00008B5302383F31188FFF768FF002383F3CB
:1030F000118808BDC36AD3F8C00010F07C5005D019
:10310000D3F8C40080F40010C0F3405070470000B2
:1031100008B5302383F3118800F58050406CFEF72A
:10312000C9FF002383F3118843090CBF012000204D
:1031300008BD000000F5805393F8592462B1C16ABC
:103140008A6922F001028A61D3F89C240132C3F813
:103150009C24002283F85924704700002DE9F7438E
:10316000302181F3118800F58251002541F2680E6B
:103170004FF00108103100F5805C00EB45147444F9
:10318000267977071CD4F6061AD58E69D0F82C90CC
:1031900008FA06F6D9F8CC703E4211D04F68019774
:1031A0000F689742019F9F410AD2C9F8D4602679DF
:1031B00046F004062671DCF888440134CCF88844D3
:1031C00001352031202DD8D1002383F3118803B09D
:1031D000BDE8F083F8B51E4600230F460546137080
:1031E0001446FFF795FF80F0010038701EB12846A5
:1031F000FFF780FF2070F8BD2DE9F04F85B09946AC
:103200000D468046164691F800B0DDE90EA3029304
:103210001378019300F0A2F82B7804460F4613B9F7
:103220003378002B41D022463B464046FFF796FFBD
:10323000FFF756FFFFF77EFF4B4632462946FFF762
:10324000C9FF2B7833B1BBF1000F03D0012005B0CB
:10325000BDE8F08F337813B1019B002BF6D108F550
:10326000805303935445029B77EB03031DD2039BCA
:10327000D3F85404C8B10368AAEB04011B6898474B
:103280004B46324629464046FFF7A4FF2B7813B140
:10329000BBF1000FDAD1337813B1019B002BD5D1EC
:1032A00000F05CF804460F46DCE70020CFE70000A2
:1032B000002108B50846FFF7B5FEBDE8084001F05B
:1032C0006DB8000008B501210020FFF7ABFEBDE896
:1032D000084001F063B8000008B500210120FFF7A5
:1032E000A1FEBDE8084001F059B80000012108B571
:1032F0000846FFF797FEBDE8084001F04FB8000010
:1033000000B59BB0EFF3098168226846FEF75AFBCF
:10331000EFF30583014B9B6BFEE700BF00ED00E080
:1033200008B5FFF7EDFF000000B59BB0EFF3098192
:1033300068226846FEF746FBEFF30583014B5B6BA3
:10334000FEE700BF00ED00E0FEE700000FB408B5A7
:10335000029801F0C1FEFEE702F0EEB902F0D0B92A
:1033600013B56C46031D84E8060094E8030083E867
:103370000500012002B010BD73B58568019155B1FB
:103380001B885B0707D4D0E900369B6B9847019AEE
:10339000C1B23046A847012002B070BDF0B58668C2
:1033A00089B005460C465EB1BDF838305B070AD4DB
:1033B000D0E900379B6B98472246C1B23846B047E8
:1033C000012009B0F0BD0022002301F10806CDE97B
:1033D000002300230A46ADF8083003AB106808321A
:1033E00052F8041C1C46B24203C42346F6D11068AE
:1033F00020609288A280FFF7B1FF0423ADF8083067
:103400002B68CDE90001DB6B694628469847D7E772
:10341000082817D909280CD00A280CD00B280CD062
:103420000C280CD00D280CD00E2814BF40203020C2
:1034300070470C20704710207047142070471820E8
:1034400070472020704700002DE9F041456A15B90A
:103450004162BDE8F0814B68AC4623F06047C3F39E
:103460008A464FEAD37EC3F3807816EA230638BF34
:103470003E462B465A68BEEBD27F22F060440AD00B
:10348000002A18DAA40CB44217D19D420FD10D6066
:10349000DEE71346EEE7A74207D102F08044C2F30D
:1034A000807242450BD054B1EFE708D2EDE7CCF87B
:1034B00000100B60CDE7B44201D0B442E5D81A68E1
:1034C0009C46002AE5D11960C3E700002DE9F047CA
:1034D000089D01F0070400EBD1004FF47F494FEA4B
:1034E000D508224405F00705944201D1BDE8F087D4
:1034F00004F0070705F0070A111B08EBD50E574526
:103500003E4613F80EC038BF5646C6F108068E4236
:1035100028BF0E46E108415C34443544B94029FADD
:1035200006F721FA0AF1FFB28CEA010147FA0AF71D
:1035300039408CEA010C03F80EC0D5E780EA01207F
:10354000082341F2210201B2013B4000002980B270
:10355000B8BF504013F0FF03F5D1704738B50C46A3
:103560008D18A54200D138BD14F8011BFFF7E6FF06
:10357000F7E7000042684AB11368818943604389D4
:1035800001339BB29942438138BF83811046704713
:1035900070B588B0044620220D4668460021FEF72B
:1035A00023FA20460495FFF7E5FF024660B16B461B
:1035B000054608AE1C46083503CCB44245F8080C55
:1035C00045F8041C2346F5D1104608B070BD000034
:1035D000082817D909280CD00A280CD00B280CD0A1
:1035E0000C280CD00D280CD00E2814BF4020302001
:1035F00070470C2070471020704714207047182027
:103600007047202070470000082817D90C280CD9D3
:1036100010280CD914280CD918280CD920280CD91A
:1036200030288CBF0F200E207047092070470A20D9
:1036300070470B2070470C2070470D20704700002A
:103640002DE9F843078C0446072F1ED900254FF6B5
:10365000FF73D0E90298C5F12006A5F1200029FAF0
:1036600005F1083508FA06F628FA00F0314301435F
:103670001846C9B2FFF762FF402D0346EBD13A4628
:10368000E169BDE8F843FFF769BF4FF6FF70BDE899
:10369000F883000010B54B6823B9CA8A63F30902A6
:1036A000CA8210BD04691A681C600361C38A013BA9
:1036B000C3824A60EFE700002DE9F84F1D46CB8A30
:1036C0000F468146C3F30901924605290B4630D0C7
:1036D0000020AAB207F11A049EB21FFA80F8042E45
:1036E0000FD8904503F1010306D30A44FB8A62F325
:1036F00009030120FB821AE01AF800600130E65449
:10370000EAE79045F1D2A1F1050B1C237C68BBFBD5
:10371000F3F203FB12BB1FFA8BF6002C45D148468F
:10372000FFF728FF044638B978606FF00200BDE863
:10373000F88F4FF00008E6E7002606607860ADB22B
:103740004FF0000B454510D90AEB0803221D13F872
:10375000011B08F101089155B1B21FFA88F81B2925
:103760002BD0454506F10106F1D8FB8AC3F30902C7
:10377000154465F30903BCE701321C4692B2236885
:10378000002BF9D16B1F0B441C21B3FBF1F3013368
:103790009BB29A42D3D2BBF1000FD0D14846FFF77B
:1037A000E9FE20B9C4F800B0BFE70122E7E7C0F89E
:1037B00000B05E4620600446C1E74545D5D948467D
:1037C000FFF7D8FE08B92060AFE7C0F800B00026C8
:1037D00020600446B6E700002DE9F04F1C4607467E
:1037E00088462DED028B83B05B690192002B00F0BF
:1037F0009A80238C2BB1E269002A00F09480072B79
:1038000035D807F10C00FFF7B5FE054638B96FF063
:103810000205284603B0BDEC028BBDE8F08F1422F0
:103820000021FEF7E1F8228CE16905F10800FEF7BE
:10383000C9F8208C48F00041013080B2FFF7E4FE67
:10384000FFF7C6FE013880B2208401302874384664
:103850006369228C1B782A4403F01F0363F03F0343
:10386000137269602946FFF7EFFD0125D1E74FF09C
:10387000000900F10C034FF0800A4E464D4608EE59
:10388000103A18EE100AFFF775FE83460028BED0E6
:1038900014220021FEF7A8F8002E3AD1019B022243
:1038A000ABF808300BF1080E1FFA82FC218C0CF1EA
:1038B0000100BCF1060F80B201D88E422BD3FFF776
:1038C000A3FE8E4208BF4FF0400AFFF781FE6269F7
:1038D0000138013512781BFA80F1013002F01F0225
:1038E0002DB242EA491289F001094AEA020A48F077
:1038F000004281F808A059468BF810003846CBF8F2
:1039000004204FF0000AFFF79FFD238CB342B8D18B
:103910007FE70022C6E7E169895D01360EF80210F3
:10392000B6B20132C0E76FF0010572E7F8B515468F
:103930000E463022002104461F46FEF755F8069B2E
:10394000B5F5001FA760636004F11000079B34BF4A
:103950006A094FF6FF72E661A362002397B29A42AA
:1039600006D800230360A782E3822383E360F8BDC7
:103970000660013330462036F1E7000003781BB9BA
:103980004BB2002BC8BF0170704700000078704731
:10399000F8B50C46C969074611B9238C002B37D1FD
:1039A000257E1F2D34D8387828BB228C072A2CD8A6
:1039B000268A36F003032BD14FF6FF70FFF7CEFDBA
:1039C00020F0010031024FF6FF72400441EA056128
:1039D000400C41EA4025234629463846FFF7FCFEC5
:1039E000002807DD626913780133DBB21F2B88BF23
:1039F00000231370F8BD218A2D0645EA01250543F1
:103A00002046FFF71DFE0246E5E76FF00300F1E7F1
:103A10006FF00100EEE7000070B58AB0044616466C
:103A20000021282268461D46FDF7DEFFBDF838302C
:103A300069462046ADF810300F9B05939DF8403045
:103A40008DF81830119B0793BDF84830CDE9026519
:103A5000ADF82030FFF79CFF0AB070BD2DE9F041B2
:103A6000D36905460C4616460BB9138C5BBB377EF3
:103A70001F2F28D895F80080B8F1000F26D03046C7
:103A8000FFF7DEFD337821020246284641EAC331C2
:103A9000338A41EA080141EA076141EA03413346BA
:103AA00041F08001FFF798FE00280ADD3378012BF2
:103AB00007D1726913780133DBB21F2B88BF002353
:103AC0001370BDE8F0816FF00100FAE76FF00300BA
:103AD000F7E70000F0B58BB004460D46174600210D
:103AE000282268461E46FDF77FFF9DF84C30294688
:103AF00020465A1E534253416A468DF800309DF8C5
:103B00004030ADF81030119B05939DF848308DF88A
:103B10001830149B0793BDF85430CDE90276ADF808
:103B20002030FFF79BFF0BB0F0BD0000406A00B1F2
:103B300004307047436A1A68426202691A6003617E
:103B4000C38A013BC38270472DE9F041D0F8208041
:103B500014461D46184E4146002709B9BDE8F081BC
:103B6000D1E90223A21A65EB0303964277EB030324
:103B70001ED2036A8B420DD1FFF78CFD036A1B68CE
:103B8000036203690B60C38A0161013B016AC3825E
:103B90008846E2E7FFF77EFD0B68C8F8003003694E
:103BA0000B60C38A0161013BC382D8F80010D4E7DF
:103BB00088460968D1E700BF80841E002DE9F04FD8
:103BC0008BB00D4614469B46DDF850908046002889
:103BD00000F01881B9F1000F00F01481531E3F2B43
:103BE00000F21081012A03D1BBF1000F40F00A81DD
:103BF0000023CDE90833B8F81430B5EBC30F4FEA12
:103C0000C30703D300200BB0BDE8F08F2B199F42F0
:103C1000D8F80C3036BF7F1B2746FFB21BB9D8F847
:103C20001030002B7AD0272D4DD8C5F1280600235F
:103C30002946B742009308ABD8F808002CBFF6B26B
:103C40003E46A7EB060A354432465FFA8AFAFFF78A
:103C50003DFCB8F81430282103F10053053BDB008C
:103C60000493D8F80C300393039B13B1BAF1000FFF
:103C70002CD1D8F8100040B1BAF1000F05D008AB34
:103C80005246691A0096FFF721FC38B2002FB9D0CE
:103C900066070AD00AAB624203EBD40102F00702C6
:103CA00011F8083C134101F8083C082C3DD9102CB0
:103CB00040F2B580202C40F2B780BBF1000F00F03D
:103CC0009C80082335E0BA460026C2E7049BE02B1F
:103CD00028BFE02306930B44AB42059315D95A1B2A
:103CE0000398691A0096924508AB00F1040034BFAE
:103CF0005246D2B20792FFF7E9FB079A1644AAEBA5
:103D0000020A1544F6B25FFA8AFA049B069A0599EC
:103D10009B1A0493039B1B680393A5E700933A4601
:103D200008AB2946D8F80800ADE7BBF1000F13D067
:103D30000123B4EBC30F6BD0082C12D89DF82030B0
:103D4000621E23FA02F2D50706D54FF0FF3202FABF
:103D500004F423438DF820309DF8203089F800309A
:103D600051E7102C12D8BDF82030621E23FA02F25F
:103D7000D10706D54FF0FF3202FA04F42343ADF821
:103D80002030BDF82030A9F800303CE7202C0FD8B7
:103D90000899631E21FA03F3DA0705D54FF0FF32C5
:103DA00002FA04F40C430894089BC9F800302AE78F
:103DB000402C2AD0611EC4F12102A4F12103DDE9C7
:103DC000086526FA01F105FA02F225FA03F3114318
:103DD0001943CB0711D50122A4F12003C4F120011E
:103DE00002FA03F322FA01F1A2400B43524263EBC1
:103DF000430332432B43CDE90823DDE90823C9E916
:103E0000002300E76FF00100FDE66FF00800FAE61E
:103E1000082CA1D9102CB4D9202CEED8C4E7BBF1C2
:103E2000000FAED0022384E7BBF1000FBCD0042307
:103E30007FE70000012A30B5144638BF012485B061
:103E40000025402C28BF4024012ACDE9025518D86E
:103E50001B788DF8083063070AD004AB624203EB8D
:103E6000D40502F0070215F8083C934005F8083C19
:103E7000034600912246002102A8FFF727FB05B068
:103E800030BD082AE4D9102A03D81B88ADF80830C1
:103E9000E1E7202A95BF1B68D3E900230293CDE90F
:103EA0000223D8E710B5CB681BB98B600B618B82FE
:103EB00010BD04691A681C600361C38A013BC38298
:103EC000CA60F0E703064CBFC0F3C0300220704761
:103ED00008B50246FFF7F6FF022806D15306C2F3E3
:103EE0000F2001D100F0030008BDC2F30740FBE73B
:103EF0002DE9F04F93B004460D46CDE903230A683F
:103F00001046FFF7DFFF0228824614BFC2F30626E1
:103F10000026002A80F2F38112F0C04940F0EF81C0
:103F2000097B002900F0EB81022803D02378B342FB
:103F300040F0E881C2F3046310462944069302F07E
:103F40007F030593FFF7C4FF059B002283464FEADA
:103F50008348002348EA0A4848EA4668CE78CDE913
:103F60000823F30948EA0008029368D0059B02463B
:103F700008A92046009353466768B847002800F018
:103F8000C481276A4FB9414604F10C00FFF700FBDA
:103F9000074690B96FF0020055E03B6998450DD097
:103FA0003F68002FF9D1414604F10C00FFF7F0FA09
:103FB00007460028EED0236A3B60276297F817C0B7
:103FC00006F01F08CCF3840CACEB0800A8EB0C0344
:103FD0001FFA80FE0028B8BF0EF120001FFA83FEF2
:103FE000B8BF00B2002B0793B8BF0EF12003D7E98A
:103FF0000221BCBF1BB2079352EA010338D0039BD6
:104000004FF0000CDFF820E39A1A049B63EB0101E8
:1040100096457CEB01032BD36B7B97F81AE0734535
:1040200019D1029B002B78D0012821DC7868F8B9DF
:10403000DFF8F0C2944570EB010316D337E0276A2E
:1040400027B96FF00C0013B0BDE8F08F3B699845BD
:10405000B4D03F68F4E7B34890427CEB010301D34E
:104060000020F0E7029B002BFAD0079B0F2B17DCF8
:10407000FA7DB3003946204602F0030203F07C03C8
:104080001343FB75FFF706FB6B7BBB76029B3BB9CB
:10409000FB7DC3F38402013262F38603FB75D0E734
:1040A0006A7BBB7E9A42DBD1029B002B35D0B309E1
:1040B000022B32D0039B142200210DA8BB60049B6D
:1040C000FB60FDF791FC039B0AA920460A93049B21
:1040D000ADF83EB00B932B1D8DF840A00C932B7BBD
:1040E0008DF84180013BDBB2ADF83C30069B8DF88A
:1040F0004230059B8DF8433094F82C3083F0010357
:104100008DF84430A3689847FB7DC3F384030133E3
:1041100003F01F039B02FB82A2E7FB7DC6F3401264
:10412000B2EBD31F40F0F480C3F38403434540F067
:10413000F280029AB6092B7B002A4DD0F2075DD49B
:10414000032B40F2EB80039BAE1D394604F10C00BB
:10415000BB603246049BFB602B7B033BDBB2FFF76B
:10416000ABFA00280CDA39462046FFF793FAFB7DBC
:10417000C3F38403013303F01F039B02FB8209E7AF
:10418000AB88DDE908843B834FF6FF73C9F120005B
:10419000A9F1200228FA09F109F1080904FA00F04E
:1041A00024FA02F2014318461143C9B2FFF7C6F9D7
:1041B000B9F1400F0346E9D1B88231462A7B033A70
:1041C000D2B2FFF7CBF9FB7DB882DA43C2F3C0125B
:1041D00062F3C713FB7543E786B92E1D013B3946D1
:1041E00004F10C00DBB23246FFF766FA0028BADBB6
:1041F0002A7B3146B88A013AD2B2E2E7F98A013B1A
:10420000C1F30901DAB204295BD8281D002307F1A4
:104210001B069A4208D910F801CB013306F801C0F9
:104220000131DBB20529F4D1039993420A9138BFD9
:10423000043304992CBF002355FA83F30B9107F143
:104240001B010C9179680E930D91291DFB8AADF825
:104250003EB0C3F309038DF840A08DF841801A44A5
:10426000069B8DF84230059BADF83C208DF843301D
:1042700094F82C3083F001038DF844300023B88A81
:104280007B602A7B013AFFF769F93B8BB882834256
:1042900003D1A3680AA92046984720460AA9FFF738
:1042A00001FEFB7DBA8AC3F38403013303F01F03CD
:1042B0009B02FB823B8B9A420CBF00206FF01000E8
:1042C000C1E67B68002BAFD0052001E01C303346EF
:1042D0001E68002EFAD1091A2E1D081D184401EB84
:1042E000090C5FFA89F3BCF11B0F9DD89A429BD948
:1042F00016F8013B09F1010900F8013BEFE76FF007
:104300000900A0E66FF00A009DE66FF00B009AE648
:104310006FF00D0097E66FF00E0094E66FF00F005F
:1043200091E600BF40420F0080841E00EFF3098336
:10433000054968334A6B22F001024A6383F3098816
:10434000002383F31188704700EF00E0302080F3F2
:10435000118862B60D4B0E4AD96821F4E061090458
:10436000090C0A430B49DA60D3F8FC2042F0807252
:10437000C3F8FC20084AC2F8B01F116841F00101DF
:1043800011602022DA7783F82200704700ED00E008
:104390000003FA0555CEACC5001000E0302310B57F
:1043A00083F311880E4B5B6813F4006314D0F1EEB5
:1043B000103AEFF309844FF08073683CE361094BD6
:1043C000DB6B236684F3098800F050FE10B1064BC6
:1043D000A36110BD054BFBE783F31188F9E700BF2C
:1043E00000ED00E000EF00E03F0400084204000898
:1043F00008B5074B074A196801F03D0199605368F9
:104400000BB190689847BDE80840FFF7C7BF00BFF1
:10441000000002402464002008B5084B196889098F
:1044200001F03D018A019A60054AD3680BB1106919
:104430009847BDE80840FFF7B1BF00BF0000024049
:104440002464002008B5084B1968090C01F03D01EF
:104450000A049A60054A53690BB190699847BDE810
:104460000840FFF79BBF00BF00000240246400200B
:1044700008B5084B1968890D01F03D018A059A605D
:10448000054AD3690BB1106A9847BDE80840FFF7A9
:1044900085BF00BF000002402464002008B5074B20
:1044A000074A596801F03D01D960536A0BB1906A1F
:1044B0009847BDE80840FFF771BF00BF0000024009
:1044C0002464002008B5084B5968890901F03D01B2
:1044D0008A01DA60054AD36A0BB1106B9847BDE8D0
:1044E0000840FFF75BBF00BF0000024024640020CB
:1044F00008B5084B5968090C01F03D010A04DA605F
:10450000054A536B0BB1906B9847BDE80840FFF725
:1045100045BF00BF000002402464002008B5084BDE
:104520005968890D01F03D018A05DA60054AD36BAF
:104530000BB1106C9847BDE80840FFF72FBF00BFD4
:10454000000002402464002008B5074B074A1968A0
:1045500001F03D019960536C0BB1906C9847BDE838
:104560000840FFF71BBF00BF000402402464002086
:1045700008B5084B1968890901F03D018A019A6064
:10458000054AD36C0BB1106D9847BDE80840FFF7A2
:1045900005BF00BF000402402464002008B5084B9A
:1045A0001968090C01F03D010A049A60054A536D2F
:1045B0000BB1906D9847BDE80840FFF7EFBE00BF14
:1045C000000402402464002008B5084B1968890DD6
:1045D00001F03D018A059A60054AD36D0BB1106E5A
:1045E0009847BDE80840FFF7D9BE00BF000402406D
:1045F0002464002008B5074B074A596801F03D01C3
:10460000D960536E0BB1906E9847BDE80840FFF734
:10461000C5BE00BF000402402464002008B5084B5A
:104620005968890901F03D018A01DA60054AD36EB3
:104630000BB1106F9847BDE80840FFF7AFBE00BF51
:10464000000402402464002008B5084B5968090C96
:1046500001F03D010A04DA60054A536F0BB1906F17
:104660009847BDE80840FFF799BE00BF000402402C
:104670002464002008B5084B5968890D01F03D01FC
:104680008A05DA60054AD36F13B1D2F880009847E3
:10469000BDE80840FFF782BE000402402464002009
:1046A00000230C4910B51A460B4C0B6054F823003C
:1046B000026001EB430004334260402BF6D1074A0D
:1046C0004FF0FF339360D360C2F80834C2F80C3463
:1046D00010BD00BF246400207C630008000002407D
:1046E0000F28F8B510D9102810D0112811D0122891
:1046F00008D10F240720DFF8B4E00126DEF80050CF
:10470000A04208D9002649E00446F4E70F2400201F
:10471000F1E70724FBE706FA00F73D4240D1214CC0
:104720004FEA001C3D4304EB00160EEBC000CEF830
:104730000050C0E90123FBB24BB11B48836B43F02F
:1047400001038363036E43F001030366036E17F4F2
:104750007F4F09D01448836B43F002038363036ED9
:1047600043F002030366036E54F80C00036823F061
:104770001F030360056815F00105FBD104EB0C0372
:104780003D2493F80CC05F6804FA0CF43C602124CB
:104790000560446112B1987B00F00EFA3046F8BD16
:1047A0000130ADE77C630008004502582464002016
:1047B00010B5302484F31188FFF792FF002383F3B0
:1047C000118810BD10B50446807B00F00BFA012360
:1047D0001049627B03FA02F20B6823EA0203DAB2A1
:1047E0000B604AB90C4A916B21F001019163116E83
:1047F00021F001011166126E13F47F4F09D1064BAF
:104800009A6B22F002029A631A6E22F002021A6672
:104810001B6E10BD246400200045025808B53023EB
:1048200083F31188FFF7CEFF002383F3118808BDBF
:104830000023054A19460133102BC2E9001102F189
:104840000802F8D1704700BFA86400202DE9F74F97
:1048500002F0030AC2F3C313C2F38009C2F3C10812
:10486000C2F3411E574600224FF00F0B0193CB07B6
:1048700033D502F00703019C012556009B00BAF1D5
:10488000020F05FA02F504FA03FC44680BFA03F37D
:1048900024EA05046FEA030344EA090444604FF084
:1048A0000304856804FA06F625EA06056FEA06049D
:1048B00045EA08058560C56825EA060545EA0E054E
:1048C000C5601BD1072A13D8056A2B4043EA0C03A5
:1048D000036203681C403C430460490822D04FEA4D
:1048E000490901324FEA88084FEA8E0EBF00BEE741
:1048F000456A2B4043EA0C034362EAE70568072A4E
:1049000004EA050444EA0704046005D8046A234065
:1049100043EA0C030362E0E7446A234043EA0C03E2
:104920004362DAE703B0BDE8F08F00000268436835
:104930001143016003B1184770470000024A136831
:1049400043F0C0031360704700100140024A13682F
:1049500043F0C00313607047007C004037B51A4C29
:104960001A4D204600F0E8FA04F1140000940023E8
:104970004FF40072164900F0A5F94FF40072154982
:1049800004F138000094144B00F01EFA134BC4E9F4
:104990001735134C204600F0CFFA04F11400002321
:1049A0004FF400720F49009400F08CF90E4B4FF455
:1049B00000720E4904F13800009400F005FA0C4B27
:1049C000C4E9173503B030BD2865002000E1F505C6
:1049D00000660020006A00203D49000800100140E8
:1049E00094650020006800204D490008006C0020FC
:1049F000007C0040037C30B5284C002918BF0C46D1
:104A0000012B0CD1264B984236D1264B1A6D42F021
:104A100010021A659A6F42F010029A679B6F226823
:104A2000036EC16D03EB52038466B3FBF2F362685D
:104A3000150442BF23F0070503F0070343EA4503CB
:104A4000CB60A36843F040034B60E36843F001038D
:104A50008B6042F4967343F001030B604FF0FF3319
:104A60000B62510505D512F0102213D0B2F1805F10
:104A700012D080F8643030BD0B4B9842CFD1094B37
:104A80009A6C42F000429A641A6F42F000421A6730
:104A90001B6FC4E77F23ECE73F23EAE77C64000851
:104AA0002865002000450258946500202DE9F04754
:104AB000C66D05463768F469210734621AD014F0D0
:104AC000080118BF4FF48071E20748BF41F0200190
:104AD000A3074FF0300348BF41F04001600748BFD3
:104AE00041F0800183F31188281DFFF71FFF002389
:104AF00083F31188E2050AD5302383F311884FF43C
:104B00008061281DFFF712FF002383F311884FF007
:104B100030094FF0000A14F0200838D13B0616D5B2
:104B20004FF0300905F1380A200610D589F31188B5
:104B3000504600F07DF9002836DA0821281DFFF7DD
:104B4000F5FE27F080033360002383F31188790694
:104B500014D5620612D5302383F31188D5E91323C7
:104B60009A4208D12B6C33B127F040071021281D41
:104B7000FFF7DCFE3760002383F31188E30618D5C6
:104B8000AA6E1369ABB15069BDE8F047184789F3C5
:104B90001188736A284695F86410194000F0E6F908
:104BA0008AF31188F469B6E7B06288F31188F46972
:104BB000BAE7BDE8F0870000090100F16043012277
:104BC00003F56143C9B283F8001300F01F039A4054
:104BD00043099B0003F1604303F56143C3F880215F
:104BE0001A60704700F01F0301229A40430900F148
:104BF00060409B0000F5614003F1604303F56143B1
:104C0000C3F88020C3F88021002380F80033704768
:104C1000F8B51546826804460B46AA4200D285685C
:104C2000A1692669761AB5420BD218462A46FCF7C6
:104C3000C9FEA3692B44A3612846A3685B1BA3603C
:104C4000F8BD0CD9AF1B18463246FCF7BBFE3A46FE
:104C5000E1683044FCF7B6FEE3683B44EBE71846F6
:104C60002A46FCF7AFFEE368E5E70000836893425D
:104C7000F7B50446154600D28568D4E90460361AB3
:104C8000B5420BD22A46FCF79DFE63692B44636153
:104C90002846A3685B1BA36003B0F0BD0DD9324664
:104CA000AF1B0191FCF78EFE01993A46E068314452
:104CB000FCF788FEE3683B44E9E72A46FCF782FEFE
:104CC000E368E4E710B50A440024C361029B8460F2
:104CD000C16002610362C0E90000C0E9051110BDB6
:104CE00008B5D0E90532934201D1826882B9826861
:104CF000013282605A1C426119700021D0E90432ED
:104D00009A4224BFC368436100F052FA002008BDF4
:104D10004FF0FF30FBE7000070B5302304460E462D
:104D200083F31188A568A5B1A368A269013BA360BC
:104D3000531CA36115782269934224BFE368A361E1
:104D4000E3690BB120469847002383F31188284676
:104D500007E03146204600F01BFA0028E2DA85F32E
:104D6000118870BD2DE9F74F04460E461746984648
:104D7000D0F81C904FF0300A8AF311884FF0000BE6
:104D8000154665B12A4631462046FFF741FF0346E6
:104D900060B94146204600F0FBF90028F1D000231D
:104DA00083F31188781B03B0BDE8F08FB9F1000FD1
:104DB00003D001902046C847019B8BF31188ED1A60
:104DC0001E448AF31188DCE7C160C361009B8260E6
:104DD0000362C0E905111144C0E900000161704798
:104DE000F8B504460D461646302383F31188A768AC
:104DF000A7B1A368013BA36063695A1C62611D707F
:104E0000D4E904329A4224BFE3686361E3690BB1D9
:104E100020469847002080F3118807E0314620465D
:104E200000F0B6F90028E2DA87F31188F8BD000037
:104E3000D0E9052310B59A4201D182687AB9826817
:104E40000021013282605A1C82611C7803699A42F7
:104E500024BFC368836100F0ABF9204610BD4FF05A
:104E6000FF30FBE72DE9F74F04460E4617469846FC
:104E7000D0F81C904FF0300A8AF311884FF0000BE5
:104E8000154665B12A4631462046FFF7EFFE034638
:104E900060B94146204600F07BF90028F1D000239C
:104EA00083F31188781B03B0BDE8F08FB9F1000FD0
:104EB00003D001902046C847019B8BF31188ED1A5F
:104EC0001E448AF31188DCE70268436811430160DD
:104ED00003B11847704700001430FFF743BF0000CC
:104EE0004FF0FF331430FFF73DBF00003830FFF7BD
:104EF000B9BF00004FF0FF333830FFF7B3BF0000F9
:104F00001430FFF709BF00004FF0FF311430FFF7F6
:104F100003BF00003830FFF763BF00004FF0FF32DF
:104F20003830FFF75DBF0000012914BF6FF0130098
:104F300000207047FFF712BD044B0360002343605D
:104F4000C0E9023301230374704700BF9464000872
:104F500010B53023044683F31188FFF74BFD02237D
:104F60000020237480F3118810BD000038B5C36998
:104F700004460D461BB904210844FFF7A5FF294646
:104F800004F11400FFF7ACFE002806DA201D4FF4F0
:104F90000061BDE83840FFF797BF38BD0023826845
:104FA000037503691B6899689142FBD25A680360D4
:104FB000426010605860704700238268037503697F
:104FC0001B6899689142FBD85A6803604260106080
:104FD0005860704708B50846302383F311880B7D6D
:104FE000032B05D0042B0DD02BB983F3118808BDFA
:104FF0008B6900221A604FF0FF338361FFF7CEFF09
:105000000023F2E7D1E9003213605A60F3E70000B1
:10501000FFF7C4BF054BD96808751868026853606C
:105020001A600122D8600275FBF7F4B9006E002007
:105030000C4B30B5DD684B1C87B004460FD02B46B7
:10504000094A684600F046F92046FFF7E3FF009B57
:1050500013B1684600F048F9A86907B030BDFFF702
:10506000D9FFF9E7006E0020D54F0008044B1A68FD
:10507000DB6890689B68984294BF002001207047CD
:10508000006E0020084B10B51C68D8682268536079
:105090001A600122DC602275FFF78EFF0146204670
:1050A000BDE81040FBF7B6B9006E002038B5074CDC
:1050B00001230025064907482370656000F0C2FC03
:1050C0000223237085F3118838BD00BF687000206B
:1050D000C0640008006E002008B572B6044B186565
:1050E00000F0FCFA00F0C2FB024B03221A70FEE74C
:1050F000006E00206870002000F02CB98B60022345
:10510000086108468B8270478368A3F1840243F8E4
:10511000142C026943F8442C426943F8402C094A94
:1051200043F8242CC268A3F1200043F8182C022273
:1051300003F80C2C002203F80B2C034A43F8102C24
:10514000704700BF2D040008006E002008B5FFF76F
:10515000DBFFBDE80840FFF75BBF0000024BDB68E8
:1051600098610F20FFF756BF006E0020302383F3B5
:105170001188FFF7F3BF000008B50146302383F321
:1051800011880820FFF754FF002383F3118808BD1E
:10519000064BDB6839B1426818605A60136043609F
:1051A0000420FFF745BF4FF0FF307047006E00202E
:1051B0000368984206D01A680260506018469961E8
:1051C000FFF726BF70470000036810B59C68A24235
:1051D0000CD85C688A600B604C60216059609968EB
:1051E0008A1A9A604FF0FF33836010BD121B1B6850
:1051F000ECE700000A2938BF0A2170B504460D46C5
:105200000A26601900F016FC00F0FEFB041BA54204
:1052100003D8751C04462E46F3E70A2E04D9012054
:10522000BDE8704000F04EBC70BD0000F8B5144BF6
:105230000D460A2A4FF00A07D96103F11001826076
:1052400038BF0A224160196914460160486018613C
:10525000A81800F0DFFB00F0D7FB431B0646A34273
:1052600006D37C1C28192746354600F0E3FBF2E7FD
:105270000A2F04D90120BDE8F84000F023BCF8BD96
:10528000006E0020F8B506460D4600F0BDFB0F4A43
:10529000134653F8107F9F4206D12A4601463046F6
:1052A000BDE8F840FFF7C2BFD169BB68441A2C19AA
:1052B00028BF2C46A34202D92946FFF79BFF22466E
:1052C00031460348BDE8F840FFF77EBF006E00207E
:1052D000106E0020C0E90323002310B45DF8044BD6
:1052E0004361FFF7CFBF000010B5194C2369984206
:1052F0000DD08168D0E9003213605A609A680A4480
:105300009A60002303604FF0FF33A36110BD026871
:10531000234643F8102F53600022026022699A420C
:1053200003D1BDE8104000F07FBB936881680B4457
:10533000936000F069FB2269E1699268441AA24215
:10534000E4D91144BDE81040091AFFF753BF00BF6C
:10535000006E00202DE9F047DFF8BC8008F110074F
:105360002C4ED8F8105000F04FFBD8F81C40AA681B
:10537000031B9A423ED814444FF00009D5E900328D
:10538000C8F81C4013605A60C5F80090D8F8103077
:10539000B34201D100F048FB89F31188D5E903310C
:1053A00028469847302383F311886B69002BD8D0A7
:1053B00000F02AFB6A69A0EB040982464A450DD237
:1053C000022000F07FFB0022D8F81030B34208D151
:1053D00051462846BDE8F047FFF728BF121A22447D
:1053E000F2E712EB09092946384638BF4A46FFF76B
:1053F000EBFEB5E7D8F81030B34208D01444C8F833
:105400001C00211AA960BDE8F047FFF7F3BEBDE814
:10541000F08700BF106E0020006E002038B500F04D
:10542000F3FA054AD2E90845031B181945F10001B2
:10543000C2E9080138BD00BF006E0020002070479F
:10544000FEE70000704700004FF0FF30704700009B
:10545000BFF34F8F044B1A695107FCD1D3F81021C9
:105460005207F8D1704700BF0020005208B50D4B1D
:105470001B78ABB9FFF7ECFF0B4BDA68D10704D50B
:105480000A4A5A6002F188325A60D3F80C21D207D6
:1054900006D5064AC3F8042102F18832C3F8042174
:1054A00008BD00BF70700020002000522301674536
:1054B00008B5114B1B78F3B9104B1A69510703D586
:1054C000DA6842F04002DA60D3F81021520705D5BD
:1054D000D3F80C2142F04002C3F80C21FFF7B8FFCB
:1054E000064BDA6842F00102DA60D3F80C2142F090
:1054F0000102C3F80C2108BD70700020002000528A
:105500000F289ABF00F5806040040020704700001B
:105510004FF4003070470000102070470F2808B586
:105520000BD8FFF7EDFF00F500330268013204D11C
:1055300004308342F9D1012008BD0020FCE70000BF
:105540000F2838B505463FD8FFF782FF1F4CFFF7FD
:105550008DFF4FF0FF3307286361C4F814311DD865
:105560002361FFF775FF030243F02403E360E36860
:1055700043F08003E36023695A07FCD42846FFF711
:1055800067FFFFF7BDFF4FF4003100F04BF92846ED
:10559000FFF78EFFBDE83840FFF7C0BFC4F81031F9
:1055A000FFF756FFA0F108031B0243F02403C4F8E1
:1055B0000C31D4F80C3143F08003C4F80C31D4F82A
:1055C00010315B07FBD4D9E7002038BD0020005222
:1055D0002DE9F84F05460C46104645EA0203DE0663
:1055E00002D00020BDE8F88F20F01F00DFF8BCB02B
:1055F000DFF8BCA0FFF73AFF04EB0008444503D1F5
:105600000120FFF755FFEDE720222946204600F054
:10561000EFFD10B920352034F0E72B4605F12002CC
:105620001F68791CDDD104339A42F9D105F1784322
:105630001B481C4EB3F5801F1B4B38BF184603F1A7
:10564000F80332BFD946D1461E46FFF701FF076077
:10565000A5EB040C336804F11C0143F00203336032
:10566000231FD9F8007017F00507FAD153F8042F5B
:105670008B424CF80320F4D1BFF34F8FFFF7E8FEC5
:105680004FF0FF332022214603602846336823F081
:105690000203336000F0ACFD0028BBD03846B0E711
:1056A000142100520C2000521420005210200052ED
:1056B0001021005210B5084C237828B11BB9FFF710
:1056C000D5FE0123237010BD002BFCD02070BDE857
:1056D0001040FFF7EDBE00BF7070002038B5054DDB
:1056E00000240334696855F80C0B00F0ADF8122C57
:1056F000F7D138BDCC640008084600F071BD000049
:1057000038B5EFF311859DB9EFF30584C4F30804B0
:10571000302334B183F31188FFF780FE85F31188BD
:1057200038BD83F31188FFF779FE84F3118838BD03
:10573000BDE83840FFF772BE10B5FFF7E1FF104C2F
:10574000C008104A002340EA4170C908A0FB04ECDD
:10575000A0FB020E1CEB0000A1FB044CA1FB0212FB
:105760005B41001943EB0C0011EB0E0142F100020A
:10577000411842F10000090941EA007010BD00BF64
:10578000CFF753E3A59BC4200244074BD2B210B518
:10579000904200D110BD441C00B253F8200041F8E3
:1057A000040BE0B2F4E700BF504000580E4B30B598
:1057B0001C6F240405D41C6F1C671C6F44F4004448
:1057C0001C670A4C02442368D2B243F480732360FE
:1057D000074B904200D130BD441C51F8045B00B22D
:1057E00043F82050E0B2F4E7004402580048025861
:1057F0005040005807B5012201A90020FFF7C4FF5F
:10580000019803B05DF804FB13B50446FFF7F2FFFF
:10581000A04205D0012201A900200194FFF7C6FF94
:1058200002B010BD0144BFF34F8F064B884204D332
:10583000BFF34F8FBFF36F8F7047C3F85C02203008
:10584000F4E700BF00ED00E00144BFF34F8F064BCB
:10585000884204D3BFF34F8FBFF36F8F7047C3F8F5
:1058600070022030F4E700BF00ED00E07047000058
:10587000074B45F255521A6002225A6040F6FF72F9
:105880009A604CF6CC421A600122024B1A707047A3
:105890000048005878700020034B1B781BB1034B65
:1058A0004AF6AA221A607047787000200048005813
:1058B000034B1A681AB9034AD2F8D0241A60704709
:1058C0007470002000400258024B4FF48032C3F83D
:1058D000D02470470040025808B5FFF7E9FF024B9B
:1058E0001868C0F3806008BD7470002070B5BFF305
:1058F0004F8FBFF36F8F1A4A0021C2F85012BFF3C7
:105900004F8FBFF36F8F536943F400335361BFF37D
:105910004F8FBFF36F8FC2F88410BFF34F8FD2F851
:10592000803043F6E074C3F3C900C3F34E335B0128
:1059300003EA0406014646EA81750139C2F860525D
:10594000F9D2203B13F1200FF2D1BFF34F8F5369EF
:1059500043F480335361BFF34F8FBFF36F8F70BD3C
:1059600000ED00E0FEE70000214B2248224A70B51E
:10597000904237D3214BC11EDA1C121A22F00302C7
:105980008B4238BF00220021FCF72EF81C4A00236E
:10599000C2F88430BFF34F8FD2F8803043F6E07402
:1059A000C3F3C900C3F34E335B0103EA04060146A7
:1059B00046EA81750139C2F86C52F9D2203B13F1E5
:1059C000200FF2D1BFF34F8FBFF36F8FBFF34F8F15
:1059D000BFF36F8F0023C2F85032BFF34F8FBFF376
:1059E0006F8F70BD53F8041B40F8041BC0E700BF65
:1059F000F86600087C7000207C7000207C7000201D
:105A000000ED00E000F01AB9014B586A704700BF82
:105A1000000C0040034B002258631A610222DA6036
:105A2000704700BF000C0040014B0022DA60704755
:105A3000000C0040014B5863704700BF000C004051
:105A4000FEE7000070B51B4B0025044686B0586089
:105A50000E4685620163FEF779FC04F11003A56030
:105A6000E562C4E904334FF0FF33C4E90044C4E9FC
:105A70000635FFF7C9FF2B46024604F134012046E4
:105A8000C4E9082380230C4A2565FFF737FB01236F
:105A90000A4AE06000920375684672680192B26833
:105AA000CDE90223064BCDE90435FFF74FFB06B0E5
:105AB00070BD00BF687000201465000819650008FB
:105AC000415A0008024AD36A1843D062704700BFA7
:105AD000006E00204B6843608B688360CB68C360B6
:105AE0000B6943614B6903628B6943620B68036016
:105AF0007047000008B53A4B40F2FF713948D3F8BF
:105B000088200A43C3F88820D3F8882022F4FF6253
:105B100022F00702C3F88820D3F88830324B1A6C81
:105B20000A431A649A6E0A439A66304A9B6E11467B
:105B3000FFF7D0FF00F5806002F11C01FFF7CAFFFC
:105B400000F5806002F13801FFF7C4FF00F58060C6
:105B500002F15401FFF7BEFF00F5806002F1700111
:105B6000FFF7B8FF00F5806002F18C01FFF7B2FF8C
:105B700000F5806002F1A801FFF7ACFF00F580603E
:105B800002F1C401FFF7A6FF00F5806002F1E00119
:105B9000FFF7A0FF00F5806002F1FC01FFF79AFF1C
:105BA00002F58C7100F58060FFF794FF00F008F9B2
:105BB0000F4BD3F8902242F00102C3F89022D3F8A1
:105BC000942242F00102C3F894220522C3F89820DF
:105BD0004FF06052C3F89C20064AC3F8A02008BDCD
:105BE0000044025800000258004502582065000891
:105BF00000ED00E01F00080308B500F0CDFAFFF744
:105C000055FA0B4BDA6B42F04002DA635A6E22F01F
:105C100040025A665B6E074B1A6842F008021A602F
:105C20001A6842F004021A60BDE80840FFF740BE5F
:105C30000045025800180248704700000E4B9A6C4D
:105C400042F008029A641A6F42F008021A670B4A7F
:105C50001B6FD36B43F00803D363C722084B9A62D0
:105C60004FF0FF32DA6200229A615A63DA605A60BA
:105C700001225A611A607047004502580010005C0A
:105C8000000C0040094A08B51169D3680B40D9B22D
:105C90009B076FEA0101116107D5302383F3118857
:105CA000FFF72AFA002383F3118808BD000C004097
:105CB000044BDA6B0243DA635A6E104358665B6E2C
:105CC000704700BF0045025808B53C4B4FF0FF310C
:105CD000D3F8802062F00042C3F88020D3F88020FF
:105CE00002F00042C3F88020D3F88020D3F884204B
:105CF000C3F88410D3F884200022C3F88420D3F89A
:105D00008400D86F40F0FF4040F4FF0040F4DF40D3
:105D100040F07F00D867D86F20F0FF4020F4FF00EC
:105D200020F4DF4020F07F00D867D86FD3F88800D8
:105D30006FEA40506FEA5050C3F88800D3F88800EB
:105D4000C0F30A00C3F88800D3F88800D3F89000A5
:105D5000C3F89010D3F89000C3F89020D3F89000C7
:105D6000D3F89400C3F89410D3F89400C3F89420A7
:105D7000D3F89400D3F89800C3F89810D3F898009B
:105D8000C3F89820D3F89800D3F88C00C3F88C108F
:105D9000D3F88C00C3F88C20D3F88C00D3F89C0087
:105DA000C3F89C10D3F89C10C3F89C20D3F89C3007
:105DB000FEF776FCBDE8084000F0BEB9004402588A
:105DC00008B50122504BC3F80821504B5A6D42F0E0
:105DD00002025A65DA6F42F00202DA670422DB6FD0
:105DE0004B4BDA605A689104FCD54A4A1A6001228A
:105DF0009A60494ADA6000221A614FF440429A617F
:105E0000434B9A699204FCD51A6842F480721A6076
:105E1000424B1A6F12F4407F04D04FF480321A675D
:105E200000221A671A6842F001021A603B4B1A6896
:105E30005007FCD500221A611A6912F03802FBD112
:105E4000012119604FF0804159605A67344ADA6283
:105E5000344A1A611A6842F480321A602F4B1A6869
:105E60009103FCD51A6842F480521A601A689204B1
:105E7000FCD52D4A2D499A6200225A63196301F517
:105E80007C01DA6301F5E77199635A64284A1A6460
:105E9000284ADA621A6842F0A8521A601F4B1A6840
:105EA00002F02852B2F1285FF9D148229A614FF4EA
:105EB0008862DA6140221A621F4ADA641F4A1A6550
:105EC0001F4A5A651F4A9A6532231F4A1360136896
:105ED00003F00F03022BFAD1104A136943F00303B6
:105EE0001361136903F03803182BFAD14FF00050F7
:105EF000FFF7DEFE4FF08040FFF7DAFE4FF0004084
:105F0000BDE80840FFF7D4BE0080005100450258AC
:105F10000048025800C000F004000001004402588C
:105F20000000FF0100889008322060006302090130
:105F3000470E0508DD0BBF01200000200000011006
:105F40000910E00000010110002000524FF0B042A3
:105F500008B5D2F8883003F00103C2F8883023B1C5
:105F6000044A13680BB150689847BDE80840FEF733
:105F700015BA00BFA86400204FF0B04208B5D2F8AF
:105F8000883003F00203C2F8883023B1044A9368D2
:105F90000BB1D0689847BDE80840FEF7FFB900BFD5
:105FA000A86400204FF0B04208B5D2F8883003F062
:105FB0000403C2F8883023B1044A13690BB1506955
:105FC0009847BDE80840FEF7E9B900BFA864002083
:105FD0004FF0B04208B5D2F8883003F00803C2F899
:105FE000883023B1044A93690BB1D0699847BDE862
:105FF0000840FEF7D3B900BFA86400204FF0B042BC
:1060000008B5D2F8883003F01003C2F8883023B105
:10601000044A136A0BB1506A9847BDE80840FEF77E
:10602000BDB900BFA86400204FF0B04310B5D3F84D
:10603000884004F47872C3F88820A30604D5124A75
:10604000936A0BB1D06A9847600604D50E4A136B69
:106050000BB1506B9847210604D50B4A936B0BB1DB
:10606000D06B9847E20504D5074A136C0BB1506C0E
:106070009847A30504D5044A936C0BB1D06C98479C
:10608000BDE81040FEF78AB9A86400204FF0B04385
:1060900010B5D3F8884004F47C42C3F88820620528
:1060A00004D5164A136D0BB1506D9847230504D5DE
:1060B000124A936D0BB1D06D9847E00404D50F4A96
:1060C000136E0BB1506E9847A10404D50B4A936E22
:1060D0000BB1D06E9847620404D5084A136F0BB118
:1060E000506F9847230404D5044A936F0BB1D06FC7
:1060F0009847BDE81040FEF751B900BFA8640020E2
:1061000008B50348FEF7D2FCBDE80840FEF746B9E3
:106110002865002008B50348FEF7C8FCBDE8084024
:10612000FEF73CB99465002008B5FFF7ABFDBDE86C
:106130000840FEF733B90000062108B50846FEF70F
:106140003BFD06210720FEF737FD06210820FEF75C
:1061500033FD06210920FEF72FFD06210A20FEF758
:106160002BFD06211720FEF727FD06212820FEF72C
:1061700023FD09217A20FEF71FFD07213220FEF7BB
:106180001BFD0C212520FEF717FD0C215320BDE837
:106190000840FEF711BD000008B5FFF795FDFEF7BA
:1061A00047FBFEF7C7FEFFF747FDBDE80840FFF7D6
:1061B00029BC00000B460146184600F003B8000059
:1061C00000F00EB810B5054C13462CB10A46014636
:1061D0000220AFF3008010BD2046FCE70000000065
:1061E000024B01461868FFF787BA00BF3C23002026
:1061F00010B501390244904201D1002005E0037836
:1062000011F8014FA34201D0181B10BD0130F2E775
:106210002DE9F041A3B1C91A17780144044603F1EE
:10622000FF3C8C42204601D9002009E00578BD42A0
:1062300004F10104F5D10CEB0405D618A54201D1F7
:10624000BDE8F08115F8018D16F801EDF045F5D0A7
:10625000E7E70000034611F8012B03F8012B002AA1
:10626000F9D17047636F6D2E6375626570696C6FED
:10627000742E6865726534666300000053544D33B4
:106280003248373F3F3F0053544D3332483733781D
:106290002F3732780053544D3332483734332F3749
:1062A00035332F373530000001105A0003105900E4
:1062B000012058000320560040A2E4F164689106D2
:1062C0000041A3E5F26569920700000043414E4694
:1062D0004449666163653A204D6573736167652063
:1062E00052414D204F766572666C6F772100000039
:1062F0004261642043414E496661636520696E6472
:1063000065782E00000100000001FF0000A00040A1
:1063100000A400400000000000000000712A0008F6
:10632000F9220008F93100086923000875230008E4
:106330008D270008ED2400083123000835230008CC
:106340000D230008F522000849270008192300083A
:1063500061330008252300081D27000801040E05ED
:10636000054B02020E05054B04010E05054B050108
:106370000B04044B08010603034600001000024012
:10638000080002400008024000000B002800024004
:10639000080002400408024006010C0040000240D0
:1063A000080002400808024010020D005800024098
:1063B000080002400C08024016030E007000024064
:1063C0000C0002401008024000040F008800024048
:1063D0000C0002401408024006051000A000024014
:1063E0000C0002401808024010061100B8000240DC
:1063F0000C0002401C08024016072F001004024047
:106400000804024020080240000838002804024026
:1064100008040240240802400609390040040240F2
:106420000804024028080240100A3A0058040240BA
:10643000080402402C080240160B3B007004024086
:106440000C04024030080240000C3C00880402406A
:106450000C04024034080240060D4400A00402402F
:106460000C04024038080240100E4500B8040240F7
:106470000C0402403C080240160F46000096000043
:10648000000000000000000000000000000000000C
:106490000000000000000000F54E0008E14E00087A
:1064A0001D4F0008094F0008154F0008014F000854
:1064B000ED4E0008D94E0008294F00086330000057
:1064C000BC640008586E00206870002000010020A5
:1064D00000FF010002000000000000300000040086
:1064E0000800000000000024000008000400000074
:1064F0000004000000FC0000020000000000043066
:1065000000800000080000000000003800000100CA
:10651000010000006D61696E0069646C6500000037
:106520000000002800000000AAAAAAAA0000002477
:10653000FFFF0000000000000000000000A0550A5E
:1065400000000000AAAA9AAA00500000FFF2000072
:10655000000000770000990000000000000000002B
:10656000AAAAAAAA00000000FFFF00000000000085
:10657000000000005A000000000000009AAAAAAA29
:1065800000000000F3FF0000990000000000000080
:106590000A00000000000000AAAAAAAA0500000044
:1065A000FFFF000088000000000000000000000065
:1065B00000000000AAAAAAAA00000000FFFF000035
:1065C00000000000000000000000000000000000CB
:1065D000AAAAAAAA00000000FFFF00000000000015
:1065E000000000000000000000000000AAAAAAAA03
:1065F00000000000FFFF000000000000000000009D
:106600000000000000000000AAAAAAAA00000000E2
:10661000FFFF00000000000000000000000000007C
:1066200000000000AAAAAAAA00000000FFFF0000C4
:10663000000000000000000000000000000000005A
:10664000AAAAAAAA00000000FFFF000000000000A4
:106650000000000000000000130400000000000023
:106660000000180000000000FE2A0100D204000013
:10667000FF00000028650020946500200000000055
:106680007C62000883040000876200085004000058
:106690009562000840230020000000000000000078
:1066A00000000000000000000000000000000000EA
:1066B00000000000000000000000000000000000DA
:1066C00000000000000000000000000000000000CA
:1066D00000000000000000000000000000000000BA
:1066E00000000000000000000000000000000000AA
:0866F0000000000000000000A2
:00000001FF
