:020000040800F2
:1000000000070020F1010008A92C0008612C00085D
:10001000892C0008612C0008812C0008F3010008DD
:10002000F3010008F3010008F30100089D3C0008FB
:10003000F3010008F3010008F3010008F3010008D0
:10004000F3010008F3010008F3010008F3010008C0
:10005000F3010008F30100080D50000835500008B6
:100060005D50000885500008AD500008F3010008FD
:10007000F3010008F3010008F3010008F301000890
:10008000F3010008F3010008F3010008F12B000858
:10009000012C0008152C0008F3010008D5500008B9
:1000A000F3010008F3010008F3010008F301000860
:1000B000BD510008F3010008F3010008F301000836
:1000C000F3010008F3010008F3010008F301000840
:1000D000F3010008F3010008A9510008F30100082A
:1000E00039510008F3010008F3010008F30100088A
:1000F000F3010008F3010008F3010008F301000810
:10010000F3010008F3010008F3010008F3010008FF
:10011000F3010008F3010008F3010008F3010008EF
:10012000F3010008F3010008F3010008F3010008DF
:10013000F3010008F3010008F3010008292C00086E
:10014000392C00084D2C0008F3010008F3010008C9
:10015000F3010008F3010008F3010008F3010008AF
:10016000F3010008F3010008F3010008F30100089F
:10017000F3010008F3010008F3010008F30100088F
:10018000F3010008F3010008F3010008F30100087F
:10019000F3010008F3010008F3010008F30100086F
:1001A000F3010008F3010008F3010008F30100085F
:1001B000F3010008F3010008F3010008F30100084F
:1001C000F3010008F3010008F3010008F30100083F
:1001D000F3010008F3010008F3010008F30100082F
:1001E0009D15000800000000000000000000000055
:1001F00002E000F000F8FEE772B6374880F30888A6
:10020000364880F3098836483649086040F20000D5
:10021000CCF200004EF63471CEF200010860BFF35C
:100220004F8FBFF36F8F40F20000C0F2F0004EF628
:100230008851CEF200010860BFF34F8FBFF36F8F7C
:100240004FF00000E1EE100A4EF63C71CEF20001D4
:100250000860062080F31488BFF36F8F04F0E0FC81
:1002600004F072FD4FF055301F491B4A91423CBFCC
:1002700041F8040BFAE71D49184A91423CBF41F886
:10028000040BFAE71A491B4A1B4B9A423EBF51F82E
:10029000040B42F8040BF8E700201849184A914271
:1002A0003CBF41F8040BFAE704F0BEFC04F09AFDF1
:1002B000144C154DAC4203DA54F8041B8847F9E797
:1002C00000F042F8114C124DAC4203DA54F8041B12
:1002D0008847F9E704F0A6BC0007002000230020AF
:1002E0000000000808ED00E00001002000070020E9
:1002F0005056000800230020882300208823002077
:10030000C8610020E0010008E4010008E4010008E1
:10031000E40100082DE9F04F2DED108AC1F80CD052
:10032000C3689D46BDEC108ABDE8F08F002383F3BF
:1003300011882846A047002004F0DCF8FEE704F00E
:1003400065F800DFFEE70000F8B501F099F904F068
:1003500001FC074604F050FC0546A8BB1F4B9F421A
:1003600032D001339F4232D01D4B27F0FF029A4218
:1003700030D1F8B200F01EFF2E4642F2107400F0A9
:100380001FFF08B10024264601F0FEFC20B1032027
:1003900000F07AF80024264635B1124B9F4203D074
:1003A00004F022FC00242646002004F0DDFB0EB100
:1003B00000F080F801F09CFA00F06EFF204600F09B
:1003C000CDF800F077F8F9E72E460024D7E7044689
:1003D0000126D4E7064640F6C414D0E7010007B072
:1003E000000008B0263A09B008B501F015F9A0F1EF
:1003F00020035842584108BD07B541F212030221BB
:1004000001A8ADF8043001F025F903B05DF804FB54
:1004100038B5302383F31188174803680BB104F013
:1004200027F9164A144800234FF47A7104F016F99C
:10043000002383F31188124C236813B12368013B16
:100440002360636813B16368013B63600D4D2B78D3
:1004500033B963687BB9022001F0D8F932236360B5
:100460002B78032B07D163682BB9022001F0CEF95A
:100470004FF47A73636038BD8823002011040008AC
:10048000A8240020A0230020084B187003280CD8B3
:10049000DFE800F008050208022001F0ADB90220F3
:1004A00001F0A0B9024B00225A607047A02300203F
:1004B000A824002010B501F067FC30B1204B0322C6
:1004C0001A70204B00225A6010BD1F4B1F4A1C4659
:1004D00019680131F8D004339342F9D162681C4B9A
:1004E0009A42F1D91B4B9B6803F1006303F58033FB
:1004F0009A42E9D204F04CFB04F05EFB002001F0CC
:10050000D9F80220FFF7C0FF134B1A6C00221A64BF
:10051000196E1A66196E596C5A64596E5A665B6E7A
:1005200072B64FF0E0233021C3F8084DD4E9003211
:1005300081F311889D4683F308881047C4E700BF04
:10054000A0230020A82400200000010820000108AA
:10055000FFFF000800230020003802402DE9F04F83
:1005600093B0AC4B00902022FF210AA89D6801F0B7
:1005700069F9A94A1378A3B9A84801210360117049
:10058000302383F3118803680BB104F071F8A44A97
:10059000A24800234FF47A7104F060F8002383F33B
:1005A0001188009B13B19F4B009A1A609E4A009CD1
:1005B0001378032B1EBF002313709A4A4FF0000AD2
:1005C00018BF5360D3465646D146012001F014F9B6
:1005D00024B1944B1B68002B00F01582002001F021
:1005E0001BF80390039B002B01DA00F0A7FE039B8E
:1005F000002BEDDB012001F0F5F8039B213B162BCE
:10060000E3D801A252F823F0650600088D06000821
:1006100021070008CB050008CB050008CB05000822
:10062000AB0700087B09000895080008F7080008D8
:100630001F09000845090008CB05000857090008F4
:10064000CB050008C909000805070008CB0500080C
:100650000D0A00087106000805070008CB05000810
:10066000F70800080220FFF7BFFE002840F0F581E0
:10067000009B0221BAF1000F08BF1C4605A841F2F9
:100680001233ADF8143000F0E5FF9EE74FF47A70B6
:1006900000F0C2FF071EEBDB0220FFF7A5FE0028DB
:1006A000E6D0013F052F00F2DA81DFE807F0030A08
:1006B0000D10133605230593042105A800F0CAFF89
:1006C00017E054480421F9E758480421F6E7584850
:1006D0000421F3E74FF01C08404600F0EDFF08F15D
:1006E00004080590042105A800F0B4FFB8F12C0F10
:1006F000F2D1012000FA07F747EA0B0B5FFA8BFBF8
:100700004FF0000901F0EAF826B10BF00B030B2BB8
:1007100008BF0024FFF770FE57E746480421CDE7E5
:10072000002EA5D00BF00B030B2BA1D10220FFF75D
:100730005BFE074600289BD0012000F0BBFF022093
:10074000FFF7A2FE00261FFA86F8404600F0C2FF1F
:10075000044690B10021404600F0D4FF0136002845
:10076000F1D1BA46044641F21213022105A8ADF8B0
:1007700014303E4600F06EFF27E70120FFF784FEAD
:100780002546244B9B68AB4207D9284600F094FFCE
:10079000013040F067810435F3E7234B00251D70DD
:1007A000204BBA465D603E46ACE7002E3FF460AF9A
:1007B0000BF00B030B2B7FF45BAF0220FFF764FE03
:1007C000322000F029FFB0F10008FFF651AF18F019
:1007D00003077FF44DAF0F4A926808EB050393427D
:1007E0003FF646AFB8F5807F3FF742AF124B01931B
:1007F000B84523DD4FF47A7000F00EFF0390039AA2
:10080000002AFFF635AF019B039A03F8012B01374D
:10081000EDE700BF00230020A4240020882300204F
:1008200011040008A8240020A02300200423002095
:10083000082300200C230020A4230020C820FFF759
:10084000D3FD074600283FF413AF1F2D11D8C5F183
:10085000200242450AAB25F0030028BF42468349E7
:100860000192184400F0DCFF019A8048FF2100F05B
:10087000E9FF4FEAA8037D490193C8F387022846A0
:1008800000F0E8FF064600283FF46DAF019B05EB42
:10089000830537E70220FFF7A7FD00283FF4E8AE05
:1008A00000F050FF00283FF4E3AE0027B846704B3D
:1008B0009B68BB4218D91F2F11D80A9B01330ED059
:1008C00027F0030312AA134453F8203C0593404633
:1008D000042205A901F010FA04378046E7E73846FC
:1008E00000F0EAFE0590F2E7CDF81480042105A897
:1008F00000F0B0FE06E70023642104A8049300F092
:100900009FFE00287FF4B4AE0220FFF76DFD0028A3
:100910003FF4AEAE049800F0FDFE0590E6E700233C
:10092000642104A8049300F08BFE00287FF4A0AE9D
:100930000220FFF759FD00283FF49AAE049800F01A
:10094000F9FEEAE70220FFF74FFD00283FF490AEE2
:1009500000F008FFE1E70220FFF746FD00283FF422
:1009600087AE05A9142000F003FF04210746049078
:1009700004A800F06FFE3946B9E7322000F04CFEC3
:10098000071EFFF675AEBB077FF472AE384A926859
:1009900007EB090393423FF66BAE0220FFF724FDFD
:1009A00000283FF465AE27F003074F44B9453FF4F4
:1009B000A9AE484600F080FE0421059005A800F08D
:1009C00049FE09F10409F1E74FF47A70FFF70CFDD5
:1009D00000283FF44DAE00F0B5FE002844D00A9B3D
:1009E00001330BD008220AA9002000F033FF0028B1
:1009F0003AD02022FF210AA800F024FFFFF7FCFCD8
:100A00001C4803F07DFD13B0BDE8F08F002E3FF4CD
:100A10002FAE0BF00B030B2B7FF42AAE00236421C7
:100A200005A8059300F00CFE074600287FF420AED1
:100A30000220FFF7D9FC804600283FF419AEFFF7EB
:100A4000DBFC41F2883003F05BFD059800F05CFFB1
:100A5000464600F043FF3C46B7E5064652E64FF0F7
:100A6000000905E6BA467EE637467CE6A423002068
:100A700000230020A0860100094A136849F269009A
:100A800099B21B0C00FB01331360064B186844F24B
:100A9000506182B2000C01FB0200186080B2704706
:100AA000182300201423002010B500211022044632
:100AB00000F0C8FE034B03CB206061601868A060A3
:100AC00010BD00BF107AFF1F2DE9F041ADF54E7D3E
:100AD0000DF134086CAC40F2751207460D460EA8B5
:100AE0000021C8F8001000F0ADFE4FF4C4720021E0
:100AF000204600F0A7FE02F0DFF8254B4FF47A7293
:100B0000B0FBF2F0186093E80700022384E80700C6
:100B10000DF5E9702382FFF7C7FF40F604331D4946
:100B2000238406A804F05CFC182384F832310DF20B
:100B3000E3266B440DF1300C1A4603CA624530605F
:100B40007160134606F10806F6D14146012220469F
:100B500000F0F4FE00230393AB7E029305F119032A
:100B6000019380B20123CDE904800093E97E06A3BE
:100B7000D3E90023384602F067FC0DF54E7DBDE851
:100B8000F08100BFAFF300809E6AC421818A46EEE7
:100B9000B0240020F05300082DE9F0412C4C237ABA
:100BA000DAB080460D465BBB27A9284600F0D6FF89
:100BB0000746002842D19DF89D60C82E3ED80146C8
:100BC0004FF4A662204600F03DFE4FF48073C4F857
:100BD000F8314FF40073C4F80C334FF44073C4F889
:100BE000203432460DF19E0104F1090000F018FE98
:100BF00026449DF89C30777223720BB9EB7E2372EA
:100C00008122002106AC27A800F01CFE012221460B
:100C100027A800F0DFFF00230393AB7E029305F1CA
:100C2000190380B201932823CDE904400093E97EA3
:100C300005A3D3E90023404602F006FC5AB0BDE804
:100C4000F08100BFAFF3008026417272DF25D7B775
:100C5000A8560020F0B5254E4FF48A7505FB0065B7
:100C6000F1B096F8D83085F8DC300024D82221463F
:100C700085F8E8403AA800F0E5FD06F1090000F02B
:100C8000D9FDD5F8E4308DF8F000C2B206AF06F118
:100C900009010DF1F100CDE93A3400F0C1FD39460A
:100CA00001223AA800F0C2FF80B2CDE90470082307
:100CB0000127CDE9023706F1D803019330230093D1
:100CC000317A0B4807A3D3E9002302F0BDFBA04211
:100CD00006DD01F0F1FFC5F8E000384671B0F0BD67
:100CE0002046FBE778F6339F93CACD8DA8560020A7
:100CF000C83400202DE9F04F274FDFF8A880274E99
:100D000087B0384602F0CCFB034600283DD00024D3
:100D1000CDE90344ADF81440027B8DF814209968A6
:100D20004068029403AA03C21B681D4D43F00043B0
:100D30000293A146A2462B68D3F810B001F0BEFF83
:100D400010EB080241F100032846CDF800A002A9EB
:100D5000D84704F2364440F66C030028C8BF49F077
:100D6000010905F586559C4205F11805E3D1B9F155
:100D7000000F05D0384602F097FB86F800A0C0E7C8
:100D80003378072B04D80133337007B0BDE8F08FF8
:100D9000014802F089FBF8E7C8340020DD5B002041
:100DA000F834002040420F0070B50D4614461E4630
:100DB00002F0A6FA50B9022E10D1012C0ED112A3C6
:100DC000D3E90023C5E90023012007E0282C10D037
:100DD00005D8012C09D0052C0FD0002070BD302C77
:100DE000FBD10BA3D3E90023ECE70BA3D3E900234A
:100DF000E8E70BA3D3E90023E4E70BA3D3E900233F
:100E0000E0E700BFAFF30080401DA12026812A0B40
:100E100078F6339F93CACD8D9E6AC421818A46EEAF
:100E200026417272DF25D7B7F017304A39059E5632
:100E300038B505460E4C0021013500F063FCA4F8DE
:100E40002C55B4F82C0500F045FC78B1B4F82C050D
:100E500000F050FC014648B9B4F82C0500F052FCF3
:100E6000B4F82C350133A4F82C35EAE738BD00BFBF
:100E7000A8560020F8B50E4C0E4F0226A4F580535C
:100E800043F8487C237E3BB965692DB1284600F0C4
:100E9000F9FF284604F0E4F9204600F0F3FFA4F53A
:100EA0008654012EA4F1180400D1F8BD0126E5E70F
:100EB00018560020B85400082DE9F04F8FB000AF4D
:100EC00005460C4602F01CFA002849D1237E022B6D
:100ED0001BD1E38A012B18D101F0EEFE0646FFF785
:100EE000CBFD03464FF4C870DFF8C482B3FBF0F2C9
:100EF00006F5167602FB103316FA83F3C8F80030B5
:100F0000E37E33B9A34B00221A703C37BD46BDE8DF
:100F1000F08F07F12401204600F0DEFD0028F4D117
:100F200007F11400FFF7C0FD97F8264007F1140100
:100F3000224607F1270004F0DDF90028E2D10F2C4A
:100F400008D8944B1C70D8F80030A3F51673C8F875
:100F50000030DAE797F82410284602F0C9F9D4E700
:100F6000E38A282B2BD010D8012B23D0052BCCD1F2
:100F7000BFF34F8F8849894BCA6802F4E06213437C
:100F8000CB60BFF34F8F00BFFDE7302BBDD1844E48
:100F9000E17E327A9142B8D1607E3146002291F8EA
:100FA000DC50854200F0A5800132042A01F58A71E7
:100FB000F5D1AAE721462846FFF786FDA5E7214699
:100FC0002846FFF7E9FDA0E7B2F8EC507B6005F199
:100FD00003094FEA99094FEA8902D11DC908A8EB14
:100FE000C1039D46EB460021584600F02BFC04F15E
:100FF000EE012A463144584600F012FC7B6813B9D2
:10100000012000F057FB96F8D20000F063FB044685
:1010100030B9307200F096FB204600F04BFBB1E097
:10102000D6F8D4203AB996F8D200B6F82C258242E8
:1010300001D8FFF7FDFED6F8D4202A44944208D206
:1010400096F8D200B6F82C250130824201D8FFF77D
:10105000EFFE70685FFA89F2594600F0FBFB08B9B1
:10106000C54679E0726896F8D2002A447260D6F8D4
:10107000D42005EB0209C6F8D49000F02BFB814583
:1010800009D396F8D220D6F8D4000132001B86F896
:10109000D220C6F8D400FF2D0FD80024347200F0FF
:1010A00051FB204600F006FB00F06EFE3D4B188120
:1010B00008B9FFF7FFF9C54627E7BB6896F8D900DE
:1010C0000AFB0362FB68D2F8E41082F8E83001F50D
:1010D0008061C2F8E030C2F8E410FFF7BBFDFFF713
:1010E00009FE96F8D920013202F0030286F8D920D1
:1010F000B6E74FF48A7A0AFB02F505F1EA013144BA
:10110000204600F0BFFDF86000287FF4FEAE3544B5
:10111000012285F8E82001F0CFFDD5F8E020D6EDDA
:10112000007ADFED216A801A192838BF192040F6AD
:10113000B832904228BF1046B8EE677A07EE900AA0
:10114000F8EEE77A67EEA67ADFED186AE7EE267A20
:10115000FCEEE77AC6ED007A96F8D930BB60BA6843
:1011600073680AFB02F4321992F8E81059B1D2F808
:10117000E4108B42E8463FF427AF002182F8E810E4
:10118000C2F8E010C5467368064A9B0A0133138112
:10119000BBE600BFC134002000ED00E00400FA050A
:1011A000A8560020B0240020CDCCCC3D6666663F1A
:1011B000C4340020014B1870704700BFBC240020CD
:1011C00030B54FF000542B4B22689A4285B007D0BF
:1011D00003F01CFD044620BB0024204605B030BDB2
:1011E000254B627D25481A70237D03724FF480736E
:1011F000C0F8F8314FF40073C0F80C3300254FF4F9
:101200004073C0F820341E49C0F8E450C9220930A8
:1012100000F006FB2046E022294600F013FB0124E3
:10122000DBE7184A184D136C43F000731364AA6D82
:10123000164B9A42D0D12B6E013B7E2BCCD8144A50
:1012400007CA01AB83E807001846032100F06AFDD6
:101250006B6D83424FF00003BED12A6D8A4201BFFD
:10126000AB65054B2A6E1A7003BF0A4BEA6D1A6014
:101270001C46B2E79AAD44C5BC240020A856002005
:101280001600002000380240006600405041A0B027
:10129000586600401023002037B500F075FD1D4D45
:1012A0001D4C2881022321681C486B71012201F02A
:1012B00085FB1B48216850F8D83F01225B6898479E
:1012C00000230193174B184900931848184B4FF40B
:1012D000805201F0E5FF174B197811B1134802F065
:1012E00007F801F0E9FC0446FFF7C6FB4FF4C873AA
:1012F000B0FBF3F202FB130304F5167010FA83F04F
:101300000D4B186003F078FC08B10F232B8103B05C
:1013100030BD00BFB024002010230020F83400208E
:10132000F8440020A90D0008C0240020C834002083
:10133000B90E0008BC240020C43400202DE9F04F71
:101340002DED028BDFF8508293B00BAF9FED838BB6
:10135000FFF7D0FC00230A93ADF834300B937B6089
:101360000025844CDFF810A22E4601238DF81C3096
:1013700023688DED008B4FF0000BD3F808908DF8AB
:101380001DB05B460DF11D0207A92046C8479DF818
:101390001C90B9F1000F24D0D8F8143083F4004326
:1013A000C8F81430102259460EA800F04BFA2368F2
:1013B00008AA5E690AA90DF11E032046B04797E806
:1013C00003000FAB83E803009DF834308DF8443000
:1013D0000A9B0E930EA9DDE90823504602F042FA5B
:1013E0004E4605F2364540F66C0304F586549D42A0
:1013F00004F11804B9D1002EB2D15F4801F080FF8A
:10140000002840D15D4D01F057FC2B6898423AD33B
:1014100001F052FC0446FFF72FFB4FF4C873B0FBFA
:10142000F3F202FB130304F5167010FA83F0286040
:10143000534D8DF828602E7816B901238DF8283089
:10144000C6F11004E4B20EA8FFF72EFB062C28BF4D
:1014500006240EAB224699190DF1290000F0E0F99F
:101460000AAB0393182302930134464B0193E4B271
:1014700001230093404804943AA3D3E9002301F0E8
:1014800085FF00232B7001F017FC3F4A3F4C136887
:10149000C31AB3F57A7F2FD3106001F00FFC024618
:1014A0000B46354802F00AF8334801F029FF18B31B
:1014B000237A374D002B14BF032302236B7101F0F5
:1014C000FBFB0EAE4FF47A730122B0FBF3F0314612
:1014D0002860284600F0D8FA182302932D4B019378
:1014E00080B240F25513CDE90360009322481FA358
:1014F000D3E9002301F04AFF237A93B101F0DCFB2A
:10150000002506464FF48A7794F8D900284400F065
:10151000030007FB004393F8E82072B10135042D66
:10152000F2D1C82002F0ECFF237A002B7FF40DAF3C
:1015300013B0BDEC028BBDE8F08FD3F8E02042B1D0
:101540002368FA2B38BFFA23B21A0533B2EB430FE4
:10155000E4D3FFF77FFB0028E0D1E2E700000000C2
:1015600000000000401DA12026812A0BF1C6A7C162
:10157000D068080FF8340020C8340020C43400209C
:10158000C1340020C0340020D85B0020A8560020C1
:10159000B0240020DC5B00200004024008B50648AF
:1015A00000F06EFF054800F06BFFBDE80840044AFC
:1015B0000449002003F04EBEF8340020D04500203E
:1015C000305C0020750E000870B5104B1B7801339D
:1015D000DBB2012B0C4612D80D4B1D6829684FF465
:1015E0007A730E6AA2FB0332014622462846B047B0
:1015F000844204D1074B00221A70012070BD4FF4C1
:10160000FA7002F07DFF0020F8E700BF1C230020E5
:1016100020230020205C002007B500230246012182
:101620000DF107008DF80730FFF7CEFF20B19DF8D0
:10163000070003B05DF804FB4FF0FF30F9E700004E
:101640000A4608B50421FFF7BFFF80F00100C0B2D1
:10165000404208BD30B4074B0A461978064B53F890
:1016600021402368DD69054B0146AC46204630BC6D
:10167000604700BF205C002020230020A0860100DE
:1016800070B503F011F9094E094D30800024286827
:101690003388834208D903F001F92B6804440133ED
:1016A000B4F5803F2B60F2D370BD00BF225C0020F8
:1016B000E05B002003F0A8B900F1006000F5803085
:1016C0000068704700F10060920000F5803003F080
:1016D00031B90000054B1A68054B1B889B1A8342E1
:1016E00002D9104403F0DAB800207047E05B002014
:1016F000225C0020024B1B68184403F0D7B800BFDF
:10170000E05B0020024B1B68184403F0E7B800BF01
:10171000E05B002010F003030AD1B0F5047F05D28E
:1017200000F10050A0F51040D0F80038184670477E
:101730000023FBE700F10050A0F51040D0F8100A9C
:1017400070470000064991F8243033B10023086A3D
:1017500081F824300822FFF7B5BF0120704700BF91
:10176000E45B0020014B1868704700BF002004E0D4
:1017700070B5194B1D68194B0138C5F30B040844AB
:101780002D0C04221E88A6420BD15C680A46013C3F
:10179000824213460FD214F9016F4EB102F8016B69
:1017A000F6E7013A03F10803ECD181420B4602D27D
:1017B0002C2203F8012B0A4A05241688AE4204D1D4
:1017C000984284BF967803F8016B013C02F1040251
:1017D000F3D1581A70BD00BF002004E04C5400083B
:1017E00038540008022802BF024B4FF000429A61B1
:1017F000704700BF00040240022802BF024B4FF4B2
:1018000000429A61704700BF00040240022801BFF5
:10181000024A536983F40043536170470004024055
:1018200010B50023934203D0CC5CC4540133F9E7D4
:1018300010BD000003460246D01A12F9011B002910
:10184000FAD1704702440346934202D003F8011BC9
:10185000FAE770472DE9F8431F4D144695F8242008
:101860000746884652BBDFF870909CB395F8243049
:101870002BB92022FF2148462F62FFF7E3FF95F89E
:101880002400C0F10802A24228BF2246D6B2414637
:10189000920005EB8000FFF7C3FF95F82430A41BEE
:1018A0001E44F6B2082E17449044E4B285F8246032
:1018B000DBD1FFF747FF0028D7D108E02B6A03EB05
:1018C00082038342CFD0FFF73DFF0028CBD1002019
:1018D000BDE8F8830120FBE7E45B0020024B1A78A7
:1018E000024B1A70704700BF205C00201C230020B0
:1018F00003494FF461430B60024B186802F0ECBCE3
:101900000C5C002020230020094B10B51422044653
:1019100000211846FFF796FF064A074B127804602D
:101920000146BDE8104053F8220002F0D5BC00BFCC
:101930000C5C0020205C0020202300202DE9F047D3
:101940000D46044600219046284640F27912FFF7E2
:1019500079FF234620220021284601F025FF231D80
:1019600002222021284601F01FFF631D03222221AD
:10197000284601F019FFA31D03222521284601F066
:1019800013FF04F1080310222821284601F00CFF60
:1019900004F1100308223821284601F005FF04F164
:1019A000110308224021284601F0FEFE04F1120333
:1019B00008224821284601F0F7FE04F114032022F2
:1019C0005021284601F0F0FE04F118034022702156
:1019D000284601F0E9FE04F120030822B021284640
:1019E00001F0E2FE04F121030822B821284601F0AB
:1019F000DBFE04F12207C0263B463146082228467A
:101A0000083601F0D1FEB6F5A07F07F10107F3D14A
:101A100004F1320308223146284601F0C5FE0027B2
:101A200004F1330A94F832304FEAC7099F4209F5AE
:101A3000A47615D3B8F1000F08D1314604F5997397
:101A40000722284601F0B0FE09F24F16274694F807
:101A500032213B1B93420CD3F01DC008BDE8F08738
:101A60000AEB070308223146284601F09DFE0137A4
:101A7000D8E707F2331331460822284601F094FED6
:101A800008360137E3E7000013B504460846002195
:101A900001602346C0F803102022019001F084FE6B
:101AA0000198231D0222202101F07EFE0198631D72
:101AB0000322222101F078FE0198A31D0322252193
:101AC00001F072FE019804F108031022282101F0B0
:101AD0006BFE072002B010BDF7B50023047F009114
:101AE0000E4607221946054601F022FD731C00939D
:101AF000012200230721284601F01AFDC4B9B31CB6
:101B00000093052223460821284601F011FD0D24EB
:101B10003746B278BB1B934211D32B7FA88A073478
:101B2000E408BBB9844294BF0020012003B0F0BD9B
:101B3000AB8ADB00083BDB08B3700824E8E7FB1C3A
:101B40000093214600230822284601F0F1FC0834C6
:101B50000137DEE7201A18BF0120E7E7F7B50023B9
:101B6000047F00910E4608221946054601F0E0FC6C
:101B7000731CC4B90822009311462346284601F07D
:101B8000D7FC1024012372785F1C013B934211D3D0
:101B90002B7FA88A0734E408BBB9844294BF002095
:101BA000012003B0F0BDAB8ADB00083BDB0873709B
:101BB0000824E7E7F319009321460023082228466A
:101BC00001F0B6FC08343B46DDE7201A18BF0120BF
:101BD000E7E70000F8B50E460546144600218122CD
:101BE0003046FFF72FFE2B4608220021304601F039
:101BF000DBFD7CB96B1C07220821304601F0D4FDC7
:101C00000F2401236A785F1C013B934204D3E01D3B
:101C1000C008F8BD0824F4E7EB1921460822304635
:101C200001F0C2FD08343B46ECE70000F8B50E4673
:101C3000054614460021CE223046FFF703FE2B4610
:101C400028220021304601F0AFFD7CB905F10803E0
:101C500008222821304601F0A7FD30242F462A7A99
:101C60007B1B934204D3E01DC008F8BD2824F5E790
:101C700007F1090321460822304601F095FD08349A
:101C80000137ECE7F7B5047F00910E4601231022DF
:101C90000021054601F04CFCC4B9B31C0093092295
:101CA00023461021284601F043FC19243746728848
:101CB000BB1B9A4211D82B7FA88A0734E408BBB912
:101CC000844294BF0020012003B0F0BDAB8ADB004A
:101CD000103BDB0873801024E8E73B1D009321468E
:101CE00000230822284601F023FC08340137DEE7F0
:101CF000201A18BF0120E7E730B5094D0A44914288
:101D00000DD011F8013B5840082340F30004013B7B
:101D10002C4013F0FF0384EA5000F6D1EFE730BD0A
:101D20002083B8EDF7B54FF0FF33DFF854C0DFF88C
:101D300054E000EB81011A4688421CD050F8044B55
:101D4000019401AF042417F8015B82EA05620825BB
:101D5000DB18164605F1FF355241002EBCBF83EA61
:101D60000C0382EA0E0215F0FF05F1D1013C14F0DC
:101D7000FF04E8D1E0E7D843D14303B0F0BD00BF92
:101D80009336EAA9EBE1F042F7B5384A106851689A
:101D90006B4603C36A4636493648082303F0BAFA4D
:101DA0000446002833D10A25334A106851686B462F
:101DB00003C36A4631492F48082303F0ABFA0446AF
:101DC000002849D00369B3F5E02F45D8B0F8661074
:101DD00040F20B4291423FD1294A024402F15C0198
:101DE0008B4239D35C3B234900209E1AFFF784FFC6
:101DF0003246074604F164010020FFF77DFFA36827
:101E00009F4229D1E368984208BF002524E0036976
:101E1000B3F5E02F27D8418B40F20B42914220D1FD
:101E2000174A024402F110018B4218D3103B1149AA
:101E300000209D1AFFF760FF2A46064604F11801AC
:101E40000020FFF759FFA3689E4202D1E368984241
:101E500001D00D25A8E70025284603B0F0BD1025C8
:101E6000A2E70C25A0E70B259EE700BF6C540008F5
:101E7000DCFF0600000001087554000890FF060012
:101E80000800FFF710B5037C044613B9006803F09F
:101E900029FA204610BD00000023BFF35B8FC3600A
:101EA000BFF35B8FBFF35B8F8360BFF35B8F7047C4
:101EB000BFF35B8F0068BFF35B8F704770B505465B
:101EC0000C30FFF7F5FF05F1080604463046FFF732
:101ED000EFFFA04206D930466D68FFF7E9FF2544C1
:101EE000281A70BD3046FFF7E3FF201AF9E700001B
:101EF00070B50546406898B105F10800FFF7D8FFB6
:101F000005F10C0604463046FFF7D2FF8442304606
:101F100094BF6D680025FFF7CBFF013C2C44201ACD
:101F200070BD000038B50C460546FFF7C7FFA0425C
:101F300010D305F10800FFF7BBFF04446868B4FB49
:101F4000F0F100FB1144BFF35B8F0120AC60BFF3E5
:101F50005B8F38BD0020FCE72DE9F04114460746B1
:101F60000D46FFF7C5FF844228BF0446D4B1B846EA
:101F700058F80C6B4046FFF79BFF30442860404602
:101F80007E68FFF795FF331A9C4203D86C600120EE
:101F9000BDE8F0816B60A41B3B68AB602044E86047
:101FA0000220F5E72046F3E738B50C460546FFF773
:101FB0009FFFA04210D305F10C00FFF779FF044406
:101FC0006868B4FBF0F100FB1144BFF35B8F0120A4
:101FD000EC60BFF35B8F38BD0020FCE72DE9FF41CB
:101FE000884669460746FFF7B7FF6C4606B204EB22
:101FF000C6060025B44209D06268206808EB0501D6
:10200000FFF70EFC636808341D44F3E729463846A1
:10201000FFF7CAFF284604B0BDE8F081F8B50546D1
:102020000C300F46FFF744FF05F108060446304622
:10203000FFF73EFFA042304688BF6C68FFF738FFCD
:10204000201A386020B130462C68FFF731FF204459
:10205000F8BD000073B5144606460D46FFF72EFF87
:10206000844228BF04460190DCB101A93046FFF745
:10207000D5FF019B33B93268C5E90233C5E90024B5
:1020800001200CE09C4238BF0194286001986860F0
:102090008442F5D93368AB60241AEC60022002B0A8
:1020A00070BD2046FBE700002DE9FF410F46694661
:1020B000FFF7D0FF6C4600B204EBC0050026AC422F
:1020C00009D0D4F8048054F8081BB8194246FFF729
:1020D000A7FB4644F3E7304604B0BDE8F0810000BA
:1020E00038B50546FFF7E0FF044601462846FFF7EE
:1020F00019FF204638BD000010B4026854681A4623
:1021000023465DF8044B18470020704700207047B5
:1021100070470000002070470E20704700F5805087
:1021200090F8C800C0F340007047000000F58050F0
:1021300090F9D0007047000000F58050C0F8CC1036
:1021400001207047F7B50C68BDF8207014F00054FA
:1021500070D10D7B082D6DD8302585F31188456928
:10216000AE6876010CD4AC68240108D4AC6814F0D5
:1021700080545DD184F31188204603B0F0BD012462
:102180000E6804F1180C002EB8BFF6004FEA0C1CC4
:10219000B4BF46F00406760545F80C600E680FFAE9
:1021A00084FC16F0804F18BF05EB0C1E05EB0C1CD1
:1021B0001EBFDEF8806146F00206CEF880610E7B1D
:1021C000CCF8846105EB04158E68C5F88C614E6807
:1021D000C5F88861DCF8805145F00105CCF88051E4
:1021E00000EB441641F268052E4405EB4415054406
:1021F000C6E9002308350E4601F10C0C56F804EB35
:1022000045F804EB6645F9D1843436882E8000EB1E
:10221000441407F00305267926F00B063543257193
:10222000002484F31188009700F068FD0120A4E7E2
:102230000224A5E74FF0FF309FE7000013B500F53B
:1022400080540191E06DFFF753FE1F280AD90199D0
:10225000E06D2022FFF7C2FEA0F120035842584152
:1022600002B010BD0020FBE708B5302383F31188CE
:1022700000F58050C06DFFF70FFE002383F3118837
:1022800008BD0000002202608281426082607047C7
:1022900010B500220023C0E9002300230446038177
:1022A0000C30FFF7EFFF204610BD0000F0B50546EB
:1022B00000F580500C4690F8C83013F0040FC3F3BB
:1022C000800108BF114661F3820304F1840680F89F
:1022D000C83005EB461389B01B79D8072ED57AB3E1
:1022E00019072DD46846FFF7D3FF05EB441303F518
:1022F000835303F1180703AA10331868596814466A
:1023000003C40833BB422246F7D1186820609B887B
:10231000A380DDE90E23CDE900230123ADF80830C9
:102320002B686946DB6B2846984705EB46152B79E9
:102330001A075CBF43F008032B7101E0002AF4D1B7
:1023400009B0F0BD2DE9F0479A4688B007468846A7
:102350009146302383F3118807F580546846FFF7D0
:1023600097FFE06DFFF7AAFD1F282AD9E06D202214
:102370006946FFF7B5FE202823D103AD444605ABDF
:102380002E4603CE9E4220606160354604F108046B
:10239000F6D130682060B388A380DDE90023C9E965
:1023A0000023BDF80830AAF80030002383F3118819
:1023B00053464A464146384608B0BDE8F04700F06B
:1023C0008BBC002080F3118808B0BDE8F0870000C6
:1023D0002DE9F84F0023C0E90133264B044640F8AD
:1023E000183B0F46FFF74EFF04F12800FFF750FFA0
:1023F00004F1480804F58255464608353046203633
:10240000FFF746FFAE42F9D104F580554FF48053F3
:102410004FF00009C5E91339C5F848800123EE657E
:1024200004F5875804F58456C5F8549085F858305B
:1024300085F86030083608F108084FF0000A4FF0C0
:10244000000B46E908ABA6F11800FFF71BFF20368A
:1024500046F8289C4645F4D1012F85F8D07002D962
:10246000054800F023FC054B53F8273063612046F4
:10247000BDE8F88FB8540008805400089C54000848
:1024800010B5044B197804464A1C1A70FFF7A0FFD8
:10249000204610BD2C5C00202DE9F047002950D0CB
:1024A000294B2A4FB7FBF1F599428CBF0A23112320
:1024B000581EB5FBF3FC03FB1C53C4B22BB102281E
:1024C0000346F5D80020BDE8F0870CF1FF36B6F5DD
:1024D000806FF7D2C4EBC40E0EF103034FEAE30999
:1024E000C3F3C703A4EB030809F1010A4FF47A759B
:1024F0005FFA88F009FB05555AFA88F8B5FBF8F53C
:10250000B5F5617FC1BF0EF1FF33C3F3C703E01A16
:10251000C0B25C1C50FA84F40CFB04F4B7FBF4F476
:10252000A142CFD1013BDBB20F2BCBD80138C0B2D7
:102530000728C7D80021107116809170D370012030
:10254000C1E70846BFE700BF3F420F0040787D016A
:1025500070B505460E464FF47A746B695B6803F0FC
:102560000103B34207D04FF47A7001F0C9FF013C78
:10257000F3D1204670BD0120FCE7000030B5426970
:10258000936913F0700F16D000230B4C936103F185
:10259000840200EB421211794D0709D5890707D54E
:1025A000416954F823508D60117941F00401117193
:1025B0000133032BEBD130BDA454000873B51D4685
:1025C000436916469A68D207044609D59A680121DC
:1025D0009960C2F34002CDE900650021FFF766FE75
:1025E00063699A68D1050BD59A684FF48071996038
:1025F000C2F34022CDE9006501212046FFF756FED7
:1026000063699A68D2030BD59A684FF48031996058
:10261000C2F34042CDE9006502212046FFF746FEA5
:1026200004F58053D3F8CC0010B103681B699847B8
:10263000204602B0BDE87040FFF7A0BF0C4B10B5BC
:102640001C561B5C012B11D800F038FB50EA01032B
:10265000024602D0421E61F10001064B53F82400ED
:1026600020B1BDE810400B46FFF7A8BF10BD00BF6A
:1026700098540008245C0020F8B5044646690029F7
:1026800072D106F10C073868800770D006EB01158F
:102690003868D5F8B00110F0040FD5F8B0011ABFB2
:1026A000C00840F00040400DA061D5F8B0C11CF05A
:1026B000020F1CBF40F08040A061D5F8B40106EBCA
:1026C000011100F00F0084F82400D1F8B801207740
:1026D000D1F8B801000A6077D1F8B801000CA077F2
:1026E000D1F8B801000EE077D1F8BC0184F82000E1
:1026F000D1F8BC01000A84F82100D1F8BC01000C1B
:1027000084F82200D1F8BC11090E84F82310382176
:10271000396004F1340004F1180104F1240551F882
:10272000046B40F8046BA942F9D109880180C4E91F
:102730000A2321460023238651F8283B2046DB6BE1
:10274000984704F5805393F8C820D3F8CC0042F0A2
:10275000040283F8C82010B103681B69984720461B
:10276000BDE8F840FFF70ABF06F110078BE7F8BD98
:102770000D4B70B51D561B5C012B0C4612D800F09A
:102780009DFA02460B4652EA030102D0013A63F178
:102790000003064951F8250020B12146BDE87040EC
:1027A000FFF76ABF70BD00BF98540008245C00208A
:1027B000F0B5302181F31188DFF848C000F583516E
:1027C0000831002404F1840500EB45152E797707C4
:1027D0000ED4F6060CD5D1E9007697429E4107D279
:1027E00046695CF82470B7602E7946F004062E71B5
:1027F0000134032C01F12001E4D1002383F311887B
:10280000F0BD00BFA454000808B5302383F311883D
:10281000FFF7B4FE002383F3118808BDF8B54369C0
:102820000546986800F0E050B0F1E05F0F4621D017
:10283000F8B1302383F3118805F583541034002652
:1028400006F1840305EB43131B791A0706D50136FD
:10285000032E04F12004F3D1012007E05B07F6D436
:102860002146384600F084FA0028F0D1002383F393
:102870001188F8BD0120FCE708B5302383F31188E7
:1028800000F58050C06DFFF719FB002383F311881A
:1028900043090CBF0120002008BD0000F8B51D460B
:1028A000002313700F4606461446FFF7E5FF80F03D
:1028B0000100387025B129463046FFF7AFFF207080
:1028C000F8BD00002DE9B8410C4615461F4680466C
:1028D00000F0F4F90B462178024609B9287850B186
:1028E0004046FFF765FFFFF78FFF3B462A4621462C
:1028F000FFF7D4FF0120BDE8B881000038B53023D0
:1029000083F3118800F580542A4D94F8D030EB5CA5
:10291000E3B1012B28D0002383F3118894F8C83049
:10292000DB0712D489B1302383F3118894F8D030B7
:10293000EB5C33B3012B31D094F8C83043F0010382
:1029400084F8C830002383F3118838BD1A4B1A6C01
:1029500042F000721A641A6A42F000721A621A6A2D
:1029600022F000721A62D6E7134B1A6C42F08062B2
:102970001A641A6A42F080621A621A6A22F080624D
:10298000F0E70321132001F0DBFA0321142001F00A
:10299000D7FA0321152001F0D3FACDE703213F2018
:1029A00001F0CEFA0321402001F0CAFA03214120B0
:1029B000F1E700BF94540008003802402DE9F047C9
:1029C00000F5805588B095F8D030022B0446884633
:1029D000164600F28180854F57F823200AB947F840
:1029E0002300D7F800A0C4F80C802674BAF1000FB9
:1029F00064D095F8D030012B70D001212046FFF72C
:102A00007DFF302383F311886269136823F002038A
:102A100013606269136843F0010313606369002760
:102A20005F6187F3118801212046FFF791FD00289F
:102A300000F09580E86DFFF72FFA04F58359BA4648
:102A400009F10809202200216846FEF7FBFE02A8D2
:102A5000FFF718FCCDF818A06A4609EB07030DF143
:102A6000180E9446BCE80300F445186059606246AD
:102A700003F10803F5D1DCF80000186020379CF85A
:102A800004201A71602FDDD195F8C8306FF38203EE
:102A9000002785F8C8306A4641462046ADF80070E8
:102AA000ADF802708DF80470FFF7F6FC636948BB5F
:102AB0004FF400421A6008B0BDE8F08741F2D80038
:102AC00002F0D0FB814610B15146FFF781FCC7F8F8
:102AD0000090B9F1000F8CD10020ECE73868036852
:102AE0001B6B98470146002887D13868FFF706FF1F
:102AF0003868036832465B684146984700287FF48F
:102B00007CAFE9E761221A609DF802309DF803204E
:102B10001B06120402F4702203F040731343BDF845
:102B20000020C2F3090213439DF804201205022E6F
:102B300002F4E0020CBF4FF0004100211343626930
:102B40000B43D361636913225A616269136823F0EE
:102B50000103136039462046FFF7FAFC08B96369A0
:102B6000A6E795F8D030002B39D16169D1F8002261
:102B700042F00102C1F800226169D1F8002222F47A
:102B80007C5222F00E02C1F800226169D1F80022C5
:102B900042F46062C1F800226269C2F814326269CC
:102BA000C2F8043262696FF07841C2F80C126269AF
:102BB000C2F840326269C2F844326269C2F8B03287
:102BC0006269C2F8B432636944F20102C3F81C229C
:102BD0006269D2F8003223F00103C2F8003295F89E
:102BE000C83043F0020385F8C83064E7245C002055
:102BF00008B50020FFF722FDBDE8084001F082B8CB
:102C000008B500210846FFF7B3FDBDE8084001F014
:102C100079B8000008B501210020FFF7A9FDBDE843
:102C2000084001F06FB8000008B50120FFF706FD6D
:102C3000BDE8084001F066B808B500210120FFF7A3
:102C400097FDBDE8084001F05DB8000008B501211E
:102C50000846FFF78DFDBDE8084001F053B80000BD
:102C600000B59BB0EFF3098168226846FEF7D8FDF6
:102C7000EFF30583014B9B6BFEE700BF00ED00E027
:102C800008B5FFF7EDFF000000B59BB0EFF3098139
:102C900068226846FEF7C4FDEFF30583014B5B6BCA
:102CA000FEE700BF00ED00E0FEE700000FB408B54E
:102CB000029801F0D5FBFEE701F0EABE01F0CCBEC0
:102CC00013B56C4684E80600031D94E8030083E80E
:102CD0000500012002B010BD73B58568019155B1A2
:102CE0001B885B0707D4D0E900369B6B9847019A95
:102CF000C1B23046A847012002B070BDF0B5866869
:102D000089B005460C465EB1BDF838305B070AD481
:102D1000D0E900379B6B98472246C1B23846B0478E
:102D2000012009B0F0BD00220023CDE900230023DB
:102D3000ADF808300A4603AB01F108061068516887
:102D40001C4603C40832B2422346F7D11068206003
:102D50009288A280FFF7B2FF0423ADF808302B68F9
:102D6000CDE90001DB6B694628469847D8E70000AB
:102D700030B503680968DD0FB5EBD17F23F06044FF
:102D800021F060424FEAD1700BD0002BB8BFA40CE9
:102D90000029B8BF920C944202D034BF0120002019
:102DA00030BD944205D1C1F38070C3F38073834278
:102DB000F6D194422CBF00200120F1E72DE9F0412B
:102DC000456A15B94162BDE8F0814B6823F0604760
:102DD000C3F38A464FEAD37EC3F3807816EA23060C
:102DE00038BF3E46AC462B465A68BEEBD27F22F037
:102DF00060440AD0002A18DAA40CB44217D19D42CC
:102E00000FD10D60DEE71346EEE7A74207D102F0CF
:102E10008044C2F3807242450BD054B1EFE708D230
:102E2000EDE7CCF800100B60CDE7B44201D0B4421E
:102E3000E5D81A689C46002AE5D11960C3E700006E
:102E40002DE9F047089D01F007044FEAD508224418
:102E500005F0070500EBD1004FF47F49944201D102
:102E6000BDE8F08704F0070705F0070A57453E461E
:102E700038BF5646C6F10806111B8E4228BF0E46C3
:102E8000E10808EBD50E415C13F80EC0B94029FAF1
:102E900006F721FA0AF1FFB28CEA010147FA0AF7B4
:102EA00039408CEA010C03F80EC034443544D5E7B0
:102EB00080EA0120082341F2210201B240000029EA
:102EC00080B203F1FF33B8BF504013F0FF03F4D1D9
:102ED0007047000038B50C468D18A54200D138BDAA
:102EE00014F8011BFFF7E4FFF7E7000042684AB15E
:102EF000136843604389818901339BB299424381BE
:102F000038BF83811046704770B588B020220446D0
:102F10000D4668460021FEF795FC20460495FFF714
:102F2000E5FF024658B16B46054608AE1C4603CC89
:102F3000B44228606960234605F10805F6D11046C1
:102F400008B070BD082817D909280CD00A280CD061
:102F50000B280CD00C280CD00D280CD00E2814BF38
:102F60004020302070470C207047102070471420FC
:102F7000704718207047202070470000082817D994
:102F80000C280CD910280CD914280CD918280CD9C5
:102F900020280CD930288CBF0F200E207047092024
:102FA00070470A2070470B2070470C2070470D2097
:102FB000704700002DE9F843078C072F04461ED9FF
:102FC000D0E9029800254FF6FF73C5F12006A5F160
:102FD000200029FA05F108FA06F628FA00F0314334
:102FE0000143C9B21846FFF763FF0835402D034679
:102FF000EBD1E1693A46BDE8F843FFF76BBF4FF606
:10300000FF70BDE8F883000010B54B6823B9CA8A89
:1030100063F30902CA8210BD04691A681C60036167
:10302000C38A013BC3824A60EFE700002DE9F84FF5
:103030001D46CB8A0F46C3F30901052981469246F6
:103040000B4630D00020AAB207F11A049EB2042E1B
:103050001FFA80F80FD8904503F1010306D3FB8ACD
:103060000A4462F30903FB8201201AE01AF80060A7
:10307000E6540130EAE79045F1D2A1F1050B1C239B
:103080007C68BBFBF3F203FB12BB1FFA8BF6002C30
:1030900045D14846FFF72AFF044638B978606FF0FB
:1030A0000200BDE8F88F4FF00008E6E70026066052
:1030B0007860ADB24FF0000B454510D90AEB08031C
:1030C000221D13F8011B9155B1B208F101081B290B
:1030D0001FFA88F82BD0454506F10106F1D8FB8A86
:1030E000C3F30902154465F30903BCE7013292B248
:1030F0001C462368002BF9D16B1F0B441C21B3FB2A
:10310000F1F301339BB29A42D3D2BBF1000FD0D17D
:103110004846FFF7EBFE20B9C4F800B0BFE7012234
:10312000E7E7C0F800B05E4620600446C1E74545C9
:10313000D5D94846FFF7DAFE08B92060AFE7C0F8F6
:1031400000B0002620600446B6E700002DE9F04FED
:103150002DED028B1C4683B05B69019207468846C1
:10316000002B00F09A80238C2BB1E269002A00F03A
:103170009480072B35D807F10C00FFF7B7FE054602
:1031800038B96FF00205284603B0BDEC028BBDE8EC
:10319000F08F14220021FEF755FB228CE16905F126
:1031A0000800FEF73DFB208C013080B2FFF7E6FE01
:1031B000FFF7C8FE013880B22084013028746369AB
:1031C000228C1B782A4403F01F0363F03F0348F06E
:1031D00000411372384669602946FFF7EFFD01256B
:1031E000D1E700F10C034FF0000908EE103A4FF060
:1031F000800A4E464D4618EE100AFFF777FE8346CA
:103200000028BED014220021FEF71CFB002E3AD16C
:10321000019BABF8083002220BF1080E1FFA82FC6A
:103220000CF10100BCF1060F218C80B201D88E4256
:103230002BD3FFF7A3FEFFF785FE626912780138F2
:1032400002F01F028E4208BF4FF0400A42EA4912C4
:103250001BFA80F14AEA020A013048F0004281F884
:1032600008A08BF81000CBF8042059463846FFF729
:10327000A5FD238C0135B3422DB289F001094FF031
:10328000000AB8D17FE70022C6E7E169895D0EF840
:1032900002100136B6B20132C0E76FF0010572E7E5
:1032A000F8B515460E463022002104461F46FEF7AB
:1032B000C9FA069B6360B5F5001F079BA76034BF82
:1032C0006A094FF6FF72A36297B2E66104F110003B
:1032D00000239A4206D800230360A782E382238357
:1032E000E360F8BD0660013330462036F1E70000A8
:1032F00003781BB94BB2002BC8BF017070470000A8
:1033000000787047F8B50C46C969074611B9238C97
:10331000002B37D1257E1F2D34D8387828BB228C3E
:10332000072A2CD8268A36F003032BD14FF6FF70DC
:10333000FFF7D0FD20F001003102400441EA0561B1
:10334000400C41EA40254FF6FF7223462946384695
:10335000FFF7FCFE002807DD626913780133DBB25A
:103360001F2B88BF00231370F8BD218A2D0645EA64
:10337000012505432046FFF71DFE0246E5E76FF0F5
:103380000300F1E76FF00100EEE7000070B58AB0CE
:10339000044616460021282268461D46FEF752FACA
:1033A000BDF83830ADF810300F9B05939DF84030D4
:1033B0008DF81830119B07936946BDF84830ADF879
:1033C00020302046CDE90265FFF79CFF0AB070BDB2
:1033D0002DE9F041D36905460C4616460BB9138C0E
:1033E0005BBB377E1F2F28D895F80080B8F1000FFF
:1033F00026D03046FFF7DEFD3378210241EAC331A3
:1034000041EA0801338A41EA076141EA0341024681
:10341000334641F080012846FFF798FE00280ADD78
:103420003378012B07D1726913780133DBB21F2B7C
:1034300088BF00231370BDE8F0816FF00100FAE748
:103440006FF00300F7E70000F0B58BB004460D46BF
:1034500017460021282268461E46FEF7F3F99DF81C
:103460004C305A1E534253418DF800309DF8403085
:10347000ADF81030119B05939DF848308DF8183049
:10348000149B07936A46BDF85430ADF820302946A6
:103490002046CDE90276FFF79BFF0BB0F0BD0000A0
:1034A000406A00B104307047436A1A684262026998
:1034B0001A600361C38A013BC38270472DE9F04162
:1034C000D0F82080194E14461D464146002709B900
:1034D000BDE8F081D1E90223A21A65EB030396420D
:1034E00077EB03031ED2036A8B420DD1FFF78CFDED
:1034F000036A1B68036203690B60C38A0161016A86
:10350000013BC3828846E2E7FFF77EFD0B68C8F8FF
:10351000003003690B60C38A0161013BC382D8F8A4
:103520000010D4E788460968D1E700BF80841E00F8
:103530002DE9F04F8BB00D46DDF8509014469B46B8
:103540008046002800F01981B9F1000F00F01581C4
:10355000531E3F2B00F21181012A03D1BBF1000F52
:1035600040F00B810023CDE90833B8F81430B5EBF7
:10357000C30F4FEAC30703D300200BB0BDE8F08FA1
:103580002B199F42D8F80C303ABF7F1BFFB2274659
:103590001BB9D8F81030002B7AD0272D4ED8C5F1A2
:1035A0002806B7424FF000032CBFF6B23E46009308
:1035B0002946D8F8080008AB3246FFF741FCA7EBD4
:1035C000060A35445FFA8AFAB8F8143003F100535A
:1035D000053BDB000493D8F80C3003932821039BB0
:1035E00013B1BAF1000F2CD1D8F8100040B1BAF1E4
:1035F000000F05D0009608AB5246691AFFF720FC71
:1036000038B2002FB8D066070AD00AAB03EBD4015A
:10361000624211F8083C02F00702134101F8083C2D
:10362000082C3CD9102C40F2B580202C40F2B780F9
:10363000BBF1000F00F09C80082334E0BA4600265E
:10364000C2E7049BE02B28BFE02306930B44AB4268
:10365000059314D95A1B03980096924534BF5246DD
:10366000D2B2691A08AB04300792FFF7E9FB079A58
:103670001644AAEB020A1544F6B25FFA8AFA049BD2
:10368000069A05999B1A0493039B1B680393A6E76C
:103690000093D8F8080008AB3A462946AEE7BBF1DC
:1036A000000F13D00123B4EBC30F6CD0082C12D839
:1036B0009DF82030621E23FA02F2D50706D54FF09E
:1036C000FF3202FA04F423438DF820309DF82030B5
:1036D00089F8003051E7102C12D8BDF82030621E56
:1036E00023FA02F2D10706D54FF0FF3202FA04F4B2
:1036F0002343ADF82030BDF82030A9F800303CE776
:10370000202C0FD80899631E21FA03F3DA0705D598
:103710004FF0FF3202FA04F40C430894089BC9F8F6
:1037200000302AE7402C2BD0DDE90865611EC4F18A
:103730002102A4F1210326FA01F105FA02F225FA89
:1037400003F311431943CB0712D50122A4F120033F
:10375000C4F1200102FA03F322FA01F1A24052421D
:1037600043EA010363EB430332432B43CDE90823D0
:10377000DDE90823C9E90023FFE66FF00100FCE65C
:103780006FF00800F9E6082CA0D9102CB3D9202C32
:10379000EED8C3E7BBF1000FADD0022383E7BBF146
:1037A000000FBBD004237EE730B5012A144638BF92
:1037B0000124402C85B028BF40240025012ACDE9F2
:1037C000025518D81B788DF8083063070AD004AB6F
:1037D00003EBD405624215F8083C02F0070293405F
:1037E00005F8083C009103462246002102A8FFF795
:1037F00027FB05B030BD082AE4D9102A03D81B885E
:10380000ADF80830E1E7202A8DBFD3E900231B681B
:103810000293CDE90223D8E710B5CB681BB98B60C2
:103820000B618B8210BD04691A681C600361C38A36
:10383000013BC382CA60F0E703064CBFC0F3C0304F
:103840000220704708B50246FFF7F6FF022806D1AE
:103850005306C2F30F2001D100F0030008BDC2F3EC
:103860000740FBE72DE9F04F93B0CDE903230A6849
:1038700004461046FFF7E0FF022814BFC2F30626F5
:103880000026002A0D46824680F2F28112F0C049DD
:1038900040F0EE81097B002900F0EA81022803D084
:1038A0002378B34240F0E781C2F3046306931046E5
:1038B00002F07F030593FFF7C5FF059B29444FEAFC
:1038C000834848EA0A4848EA4668CE78002300223E
:1038D000CDE90823F309834648EA0008029367D03C
:1038E000059B009302466768534608A92046B847DF
:1038F000002800F0C381276A4FB9414604F10C004B
:10390000FFF702FB074690B96FF0020054E03B69F5
:1039100098450DD03F68002FF9D1414604F10C00C5
:10392000FFF7F2FA07460028EED0236A3B602762D1
:1039300097F817C006F01F08CCF3840CACEB080016
:103940001FFA80FE0028B8BF0EF12000A8EB0C0380
:103950001FFA83FED7E90221B8BF00B2002B0793FC
:10396000BEBF0EF120031BB2079352EA010338D009
:10397000039BDFF824E39A1A049B4FF0000C63EBDF
:10398000010196457CEB01032BD36B7B97F81AE082
:10399000734519D1029B002B78D0012821DC78686F
:1039A000F8B9DFF8F0C2944570EB010316D337E0A5
:1039B000276A27B96FF00C0013B0BDE8F08F3B69A0
:1039C0009845B5D03F68F4E7B24890427CEB0103DC
:1039D00001D30020F0E7029B002BFAD0079B0F2BAE
:1039E00017DCFA7DB30002F0030203F07C031343FB
:1039F000FB7539462046FFF707FB6B7BBB76029BC6
:103A00003BB9FB7DC3F38402013262F38603FB758D
:103A1000D0E76A7BBB7E9A42DBD1029B002B35D07C
:103A2000B309022B32D0039BBB60049BFB601422C2
:103A300000210DA8FDF706FF039B0A93049B0B933F
:103A40002B1D0C932B7BADF83EB0013BDBB2ADF8E8
:103A50003C30069B8DF84230059B8DF8433094F83E
:103A60002C308DF840A083F001038DF844308DF8A0
:103A70004180A3680AA920469847FB7DC3F38403CD
:103A8000013303F01F039B02FB82A2E7FB7DC6F319
:103A90004012B2EBD31F40F0F480C3F384034345DC
:103AA00040F0F280029A2B7BB609002A4DD0F20733
:103AB0005DD4032B40F2EB80039BBB60049BFB6057
:103AC0002B7BAE1D033BDBB23246394604F10C00C2
:103AD000FFF7ACFA00280CDA39462046FFF794FAD3
:103AE000FB7DC3F38403013303F01F039B02FB82BE
:103AF0000AE7DDE90884AB883B834FF6FF73C9F121
:103B00002000A9F1200228FA09F104FA00F001438B
:103B100024FA02F211431846C9B2FFF7C9F909F1B4
:103B20000809B9F1400F0346E9D1B8822A7B033A6C
:103B3000D2B23146FFF7CEF9FB7DB882DA43C2F349
:103B4000C01262F3C713FB7543E786B92E1D013B14
:103B5000DBB23246394604F10C00FFF767FA002861
:103B6000BADB2A7BB88A013AD2B23146E2E7F98A57
:103B7000C1F30901013B0429DAB25BD8281D0023F7
:103B800007F11B069A4208D910F801CB06F801C0CC
:103B9000013101330529DBB2F4D103990A9104996B
:103BA0000B91934207F11B010C9138BF04337968E4
:103BB0000D9134BF55FA83F300230E93FB8AADF8C1
:103BC0003EB0C3F309031A44069B8DF84230059BAF
:103BD0008DF8433094F82C30ADF83C2083F001038D
:103BE0008DF8443000238DF840A08DF841807B6033
:103BF0002A7BB88A013A291DFFF76CF93B8BB88202
:103C0000834203D1A3680AA92046984720460AA9FF
:103C1000FFF702FEFB7DBA8AC3F38403013303F08E
:103C20001F039B02FB823B8B9A420CBF00206FF06C
:103C30001000C1E67B68002BAFD0052001E01C30EE
:103C400033461E68002EFAD1091A081D2E1D18448D
:103C500001EB090CBCF11B0F5FFA89F39DD89A4266
:103C60009BD916F8013B00F8013B09F10109EFE788
:103C70006FF00900A0E66FF00A009DE66FF00B0000
:103C80009AE66FF00D0097E66FF00E0094E66FF085
:103C90000F0091E640420F0080841E00EFF309837D
:103CA00005494A6B22F001024A63683383F30988AD
:103CB000002383F31188704700EF00E0302080F389
:103CC000118862B60C4B0D4AD96821F4E0610904F1
:103CD000090C0A43DA60D3F8FC20094942F08072EB
:103CE000C3F8FC200A6842F001020A602022DA7759
:103CF00083F82200704700BF00ED00E00003FA05E2
:103D0000001000E010B5302383F311880E4B5B6880
:103D100013F4006314D0F1EE103AEFF30984683C19
:103D20004FF08073E361094BDB6B236684F30988F2
:103D300000F060FB10B1064BA36110BD054BFBE723
:103D400083F31188F9E700BF00ED00E000EF00E029
:103D50003F03000842030008026843681143016002
:103D600003B1184770470000024AD36843F0C0030C
:103D7000D36070470044004010B5054C054A00214F
:103D8000204600F087FA044A044BC4E9972310BD8B
:103D9000345C0020693D00080044004040787D010B
:103DA000234A037C002918BF0A46012B30B5C0F80E
:103DB00068220CD11F4B984209D11F4B196C41F45A
:103DC00000311964196E41F4003119661B6EB2F9A5
:103DD00004501468D0F86032D0F85C12002D03EB68
:103DE0005403B3FBF4F3BEBF23F0070503F007034E
:103DF00043EA450394888B60D38843F040030B610A
:103E0000138943F001034B6144F4045343F02C0342
:103E1000CB6004F4A05400230B60B4F5806F0B68F2
:103E20004B680CBF7F23FF2380F8643230BD00BF96
:103E3000F8540008345C0020003802402DE9F041BD
:103E4000D0F85C62F7683368DA0504469DB20DD598
:103E5000302383F311884FF480610430FFF77CFF37
:103E60006FF480733360002383F31188302383F36E
:103E7000118804F1040815F02F033AD183F3118857
:103E8000380615D5290613D5302383F3118804F19C
:103E9000380000F07BF900284EDA0821201DFFF7DA
:103EA0005BFF4FF67F733B40F360002383F3118881
:103EB0007A0616D56B0614D5302383F31188D4E91E
:103EC00013239A420AD1236C43B127F040073F04E1
:103ED0001021201D3F0CFFF73FFFF760002383F305
:103EE0001188D4F86822D36843B3BDE8F041106963
:103EF00018472B0714D015F0080F0CBF00214FF402
:103F00008071E80748BF41F02001AA0748BF41F08F
:103F100040016B0748BF41F080014046FFF71CFF9E
:103F2000AD06736805D594F864122046194000F078
:103F3000E1F93568ADB29EE77060B6E7BDE8F081A3
:103F400000F1604303F561430901C9B283F800132E
:103F5000012200F01F039A4043099B0003F16043D4
:103F600003F56143C3F880211A607047F8B5154620
:103F700082680669AA420B46816938BF8568761A4D
:103F8000B54204460BD218462A46FDF749FCA36900
:103F90002B44A361A3685B1BA3602846F8BD0CD922
:103FA00018463246FDF73CFCAF1BE1683A46304408
:103FB000FDF736FCE3683B44EBE718462A46FDF77D
:103FC0002FFCE368E5E7000083689342F7B51546E8
:103FD000044638BF8568D0E90460361AB5420BD272
:103FE0002A46FDF71DFC63692B446361A3682846DC
:103FF0005B1BA36003B0F0BD0DD932460191FDF704
:104000000FFC0199E068AF1B3A463144FDF708FC0C
:10401000E3683B44E9E72A46FDF702FCE368E4E78E
:1040200010B50A440024C361029B8460C0E900000B
:10403000C0E90511C1600261036210BD08B5D0E995
:104040000532934201D1826882B98268013282606E
:104050005A1C42611970D0E904329A4224BFC368E5
:104060004361002100F068FA002008BD4FF0FF30E6
:10407000FBE7000070B5302304460E4683F3118839
:10408000A568A5B1A368A269013BA360531CA36105
:1040900015782269934224BFE368A361E3690BB1F9
:1040A00020469847002383F31188284607E03146CD
:1040B000204600F031FA0028E2DA85F3118870BD5D
:1040C0002DE9F74F04460E4617469846D0F81C9047
:1040D0004FF0300A8AF311884FF0000B154665B196
:1040E0002A4631462046FFF741FF034660B9414664
:1040F000204600F011FA0028F1D0002383F3118844
:10410000781B03B0BDE8F08FB9F1000F03D0019028
:104110002046C847019B8BF31188ED1A1E448AF391
:104120001188DCE7C0E90511C160C3611144009B3F
:104130008260C0E90000016103627047F8B504467F
:104140000D461646302383F31188A768A7B1A368EC
:10415000013BA36063695A1C62611D70D4E904329B
:104160009A4224BFE3686361E3690BB12046984734
:10417000002080F3118807E03146204600F0CCF99A
:104180000028E2DA87F31188F8BD0000D0E90523A2
:104190009A4210B501D182687AB982680132826090
:1041A0005A1C82611C7803699A4224BFC3688361E8
:1041B000002100F0C1F9204610BD4FF0FF30FBE7B1
:1041C0002DE9F74F04460E4617469846D0F81C9046
:1041D0004FF0300A8AF311884FF0000B154665B195
:1041E0002A4631462046FFF7EFFE034660B94146B6
:1041F000204600F091F90028F1D0002383F31188C4
:10420000781B03B0BDE8F08FB9F1000F03D0019027
:104210002046C847019B8BF31188ED1A1E448AF390
:104220001188DCE7026843681143016003B1184755
:10423000704700001430FFF743BF00004FF0FF331A
:104240001430FFF73DBF00003830FFF7B9BF000062
:104250004FF0FF333830FFF7B3BF00001430FFF7E3
:1042600009BF00004FF0FF311430FFF703BF00001B
:104270003830FFF763BF00004FF0FF323830FFF7F0
:104280005DBF0000012914BF6FF0130000207047CC
:10429000FFF772BD37B515460E4A02600022426034
:1042A000C0E902220122044602740B46009000F18C
:1042B0005C014FF480721430FFF7B2FE00942B467D
:1042C0004FF4807204F5AE7104F13800FFF72AFF55
:1042D00003B030BD0C55000810B53023044683F3FD
:1042E0001188FFF75DFD02232374002080F31188FD
:1042F00010BD000038B5C36904460D461BB9042142
:104300000844FFF78FFF294604F11400FFF796FEDB
:10431000002806DA201D4FF40061BDE83840FFF7A1
:1043200081BF38BD00230375826803691B689968E3
:104330009142FBD25A680360426010605860704737
:1043400000230375826803691B6899689142FBD852
:104350005A680360426010605860704708B50846AC
:10436000302383F311880B7D032B05D0042B0DD054
:104370002BB983F3118808BD8B6900221A604FF0B6
:10438000FF338361FFF7CEFF0023F2E7D1E900326C
:1043900013605A60F3E70000FFF7C4BF054BD9680C
:1043A0000875186802681A60536001220275D860A7
:1043B000FBF7B0BFA05E002030B50C4BDD684B1C96
:1043C00087B004460FD02B46094A684600F046F9EC
:1043D0002046FFF7E3FF009B13B1684600F048F961
:1043E000A86907B030BDFFF7D9FFF9E7A05E00204C
:1043F0005D430008044B1A68DB6890689B6898422C
:1044000094BF002001207047A05E0020084B10B52B
:104410001C68D86822681A60536001222275DC602B
:10442000FFF78EFF01462046BDE81040FBF772BF44
:10443000A05E002038B5074C074908480123002535
:104440002370656000F028FC0223237085F3118837
:1044500038BD00BF0861002038550008A05E00206C
:1044600008B572B6044B186500F0E2FA00F08EFB56
:10447000024B03221A70FEE7A05E002008610020B4
:1044800000F02CB98B60022308618B8208467047CC
:104490008368A3F1840243F8142C026943F8442C86
:1044A000426943F8402C094A43F8242CC26843F877
:1044B000182C022203F80C2C002203F80B2C044ABF
:1044C00043F8102CA3F12000704700BF2D03000813
:1044D000A05E002008B5FFF7DBFFBDE80840FFF74E
:1044E0005BBF0000024BDB6898610F20FFF756BFEF
:1044F000A05E0020302383F31188FFF7F3BF000094
:1045000008B50146302383F311880820FFF754FFD4
:10451000002383F3118808BD064BDB6839B142687C
:1045200018605A60136043600420FFF745BF4FF0E6
:10453000FF307047A05E00200368984206D01A68DA
:104540000260506099611846FFF726BF704700006F
:1045500010B503689C68A2420CD85C688A600B6046
:104560004C602160596099688A1A9A604FF0FF3355
:10457000836010BD1B68121BECE700000A2938BFDE
:104580000A2170B504460D460A26601900F07EFB2C
:1045900000F06AFB041BA54203D8751C2E46044696
:1045A000F3E70A2E04D9BDE87040012000F0B4BB47
:1045B00070BD0000F8B5144B0D46D96103F1100130
:1045C00041600A2A1969826038BF0A220160486086
:1045D0001861A818144600F04BFB0A2700F044FBB2
:1045E000431BA342064606D37C1C281900F04EFB51
:1045F00027463546F2E70A2F04D9BDE8F8400120E6
:1046000000F08ABBF8BD00BFA05E0020F8B50646EA
:104610000D4600F029FB0F4A134653F8107F9F42C6
:1046200006D12A4601463046BDE8F840FFF7C2BF32
:10463000D169BB68441A2C1928BF2C46A34202D961
:104640002946FFF79BFF224631460348BDE8F84064
:10465000FFF77EBFA05E0020B05E002010B4C0E96E
:10466000032300235DF8044B4361FFF7CFBF000035
:1046700010B5194C236998420DD0D0E900328168F9
:1046800013605A609A680A449A60002303604FF0EE
:10469000FF33A36110BD2346026843F8102F536017
:1046A0000022026022699A4203D1BDE8104000F066
:1046B000E7BA936881680B44936000F0D5FA2269E9
:1046C000E1699268441AA242E4D91144BDE810405D
:1046D000091AFFF753BF00BFA05E00202DE9F04785
:1046E000DFF8BC8008F110072C4ED8F8105000F00D
:1046F000BBFAD8F81C40AA68031B9A423ED814445F
:10470000D5E900324FF00009C8F81C4013605A6028
:10471000C5F80090D8F81030B34201D100F0B0FADB
:1047200089F31188D5E9033128469847302383F36C
:1047300011886B69002BD8D000F096FA6A69A0EB5B
:1047400004094A4582460DD2022000F0E5FA002213
:10475000D8F81030B34208D151462846BDE8F0479A
:10476000FFF728BF121A2244F2E712EB090938BFFB
:104770004A4629463846FFF7EBFEB5E7D8F8103031
:10478000B34208D01444211AC8F81C00A960BDE83F
:10479000F047FFF7F3BEBDE8F08700BFB05E002032
:1047A000A05E002038B500F05FFA054AD2E908455E
:1047B000031B181945F10001C2E9080138BD00BF0B
:1047C000A05E002000207047FEE700007047000058
:1047D0004FF0FF3070470000BFF34F8F024AD3689D
:1047E000DB03FCD4704700BF003C024008B5094B16
:1047F0001B7873B9FFF7F0FF074B1A69002ABFBF98
:10480000064A5A6002F188325A601A6822F48062BD
:104810001A6008BD10610020003C0240230167457A
:1048200008B50B4B1B7893B9FFF7D6FF094B1A69F4
:1048300042F000421A611A6842F480521A601A6803
:1048400022F480521A601A6842F480621A6008BD2D
:1048500010610020003C02400728F0B516D80C4C2F
:104860000C4923787BB90C4D0E4608234FF00062AB
:1048700055F8047B46F8042B013B13F0FF033A4440
:10488000F6D10123237051F82000F0BD0020FCE791
:10489000346100201461002044550008014B53F896
:1048A000200070474455000808207047072810B5BD
:1048B000044601D9002010BDFFF7CEFF064B53F888
:1048C00024301844C21A0BB90120F4E712680132EF
:1048D000F0D1043BF6E700BF44550008072810B5A7
:1048E000044621D8FFF778FFFFF780FF0F4AF32334
:1048F000D360C300DBB243F4007343F002031361DF
:10490000136943F480331361FFF766FFFFF7A4FFD9
:10491000074B53F8241000F035F9FFF781FF2046CC
:10492000BDE81040FFF7C2BF002010BD003C0240B0
:1049300044550008F8B512F00103144642D1851819
:104940002E4A954257D82E4B1B6813F0010352D0C4
:104950002C4DFFF74BFFF323EB60FFF73DFF40F2D9
:104960000127032C15D824F001046618254C401AA1
:1049700040F20117B142236900EB010524D123F075
:1049800001032361FFF74CFF0120F8BD043C043014
:10499000E7E78307E7D12B6923F440732B612B6989
:1049A0003B432B6151F8046B0660BFF34F8FFFF759
:1049B00013FF03689E42E9D02B6923F001032B61AA
:1049C000FFF72EFF0020E0E723F440732361236903
:1049D0003B4323610B882B80BFF34F8FFFF7FCFE17
:1049E0002D8831F8023BADB2AB42C3D0236923F02E
:1049F00001032361E4E71846C7E700BF0000080889
:104A000000380240003C0240084908B50B7828B144
:104A10001BB9FFF7EBFE01230B7008BD002BFCD088
:104A2000BDE808400870FFF7FBBE00BF1061002022
:104A30000149024800F0A8B800FF0300000100206F
:104A40000846114600F030BC012000F02DBC0000EB
:104A5000084600F047BC000038B5EFF311859DB95A
:104A6000EFF30584C4F30804302334B183F31188D1
:104A7000FFF798FE85F3118838BD83F31188FFF79F
:104A800091FE84F3118838BDBDE83840FFF78ABE37
:104A900038B5FFF7E1FF114C114AC00840EA4170F8
:104AA000A0FB025EC908A0FB040C1CEB050CA1FBDB
:104AB00004404FF000035B41A1FB02121CEB040C0D
:104AC00043EB000011EB0E0142F10002411842F1EC
:104AD0000000090941EA007038BD00BFCFF753E379
:104AE000A59BC42010B50244064BD2B2904200D11F
:104AF00010BD441C00B253F8200041F8040BE0B292
:104B0000F4E700BF502800400F4B30B51C6F240461
:104B100007D41C6F44F400741C671C6F44F40044F9
:104B20001C670A4C236843F4807323600244084BDB
:104B3000D2B2904200D130BD441C00B251F8045BA7
:104B400043F82050E0B2F4E7003802400070004023
:104B50005028004007B5012201A90020FFF7C2FF3D
:104B6000019803B05DF804FB13B50446FFF7F2FFAC
:104B7000A04205D0012201A900200194FFF7C4FF43
:104B800002B010BD70470000704700007047000081
:104B9000074B45F255521A6002225A6040F6FF72E6
:104BA0009A604CF6CC421A60024B01221A70704790
:104BB000003000403C610020034B1B781BB1034BCD
:104BC0004AF6AA221A6070473C610020003000407B
:104BD000034B1A681AB9034AD2F874281A6070474E
:104BE0003861002000300240024B4FF08072C3F861
:104BF000742870470030024008B5FFF7E9FF024B08
:104C00001868C0F3407008BD3861002008B5FFF790
:104C1000DFFF024B1868C0F3007008BD3861002048
:104C200070470000FEE700000A4B0B480B4A904219
:104C30000BD30B4BDA1C121AC11E22F003028B425B
:104C400038BF00220021FCF7FDBD53F8041B40F8DB
:104C5000041BECE7D8560008C8610020C86100209A
:104C6000C861002000F0CAB84FF08043586A70470E
:104C70004FF08043002258631A610222DA607047C5
:104C80004FF080430022DA60704700004FF080430D
:104C900058637047FEE7000070B51B4B01630025A9
:104CA000044686B0586085620E46FFF707F804F1A7
:104CB0001003C4E904334FF0FF33C4E90635C4E9F7
:104CC0000044A560E562FFF7CFFF2B460246C4E92A
:104CD000082304F134010D4A256580232046FFF79F
:104CE000D1FB0123E0600A4A0375009272680192C9
:104CF000B268CDE90223074B6846CDE90435FFF7DA
:104D0000E9FB06B070BD00BF0861002064550008D3
:104D100069550008954C0008024AD36A1843D062CE
:104D2000704700BFA05E00204B6843608B688360C3
:104D3000CB68C3600B6943614B6903628B69436253
:104D40000B6803607047000008B5234B23481A69BD
:104D500042F0FF021A611A6922F0FF021A611A6911
:104D60001A6B42F0FF021A631A6D42F0FF021A65D5
:104D70001B4A1B6D1146FFF7D7FF02F11C0100F51E
:104D80008060FFF7D1FF02F1380100F58060FFF786
:104D9000CBFF02F1540100F58060FFF7C5FF02F17F
:104DA000700100F58060FFF7BFFF02F18C0100F594
:104DB0008060FFF7B9FF02F1A80100F58060FFF7FE
:104DC000B3FF02F1C40100F58060FFF7ADFFBDE85D
:104DD000084000F08DB800BF0038024000000240DB
:104DE0007055000808B500F019FAFFF723FBBDE87D
:104DF0000840FFF7EDBE0000704700000F4B1A6C33
:104E000042F001021A641A6E42F001021A660C4A5C
:104E10001B6E936843F0010393604FF0804331228F
:104E20009A624FF0FF32DA6200229A615A63DA60C6
:104E30005A6001225A611A60704700BF0038024070
:104E4000002004E04FF0804208B51169D3680B40A0
:104E5000D9B2C9439B07116107D5302383F3118869
:104E6000FFF70EFB002383F3118808BD1E4B1A6960
:104E700062F0FF021A611A69D2B21A614FF0FF3074
:104E80001A695A69586100215A6959615A691A6A3E
:104E900062F080521A621A6A02F080521A621A6A2A
:104EA0005A6A58625A6A59625A6A1A6C42F08052B7
:104EB0001A641A6E42F080521A661A6E0B4A106813
:104EC00040F480701060186F00F44070B0F5007FFF
:104ED0001EBF4FF4803018671967536823F40073BE
:104EE000536000F073B900BF00380240007000400A
:104EF0003B4B3C4A1A643C4A4FF4404111601A68EB
:104F000042F001021A601A689007FCD59A6822F0F4
:104F100003029A60324B9A6812F00C02FBD11968B6
:104F200001F0F90119609A601A6842F480321A603F
:104F30001A689103FCD55A6F42F001025A67284B58
:104F40005A6F9207FCD5294A5A601A6842F080725B
:104F50001A60254A53685804FCD5214B1A68910100
:104F6000FCD5234AC3F884201A6842F080621A6094
:104F70001A681201FCD51F4A9A600322C3F88C20DC
:104F80004FF00062C3F894201B4B1A681B4B9A42E7
:104F90001B4B21D11B4A11681B4A91421CD140F284
:104FA00003121A60164A136803F00F03032BFAD199
:104FB0000B4B9A6842F002029A609A6802F00C0267
:104FC000082AFAD15A6C42F480425A645A6E42F46A
:104FD00080425A665B6E704740F20372E1E700BFA1
:104FE0000038024000040010007000400819400220
:104FF0001030002400948838002004E01164002060
:10500000003C024000ED00E041C20F41074A08B5F4
:10501000536903F00103536123B1054A13680BB1CF
:1050200050689847BDE80840FEF76CBE003C014060
:1050300040610020074A08B5536903F00203536139
:1050400023B1054A93680BB1D0689847BDE8084082
:10505000FEF758BE003C014040610020074A08B5F9
:10506000536903F00403536123B1054A13690BB17B
:1050700050699847BDE80840FEF744BE003C014037
:1050800040610020074A08B5536903F008035361E3
:1050900023B1054A93690BB1D0699847BDE8084030
:1050A000FEF730BE003C014040610020074A08B5D1
:1050B000536903F01003536123B1054A136A0BB11E
:1050C000506A9847BDE80840FEF71CBE003C01400E
:1050D00040610020164B10B55C6904F478725A6187
:1050E000A30604D5134A936A0BB1D06A98476006A9
:1050F00004D5104A136B0BB1506B9847210604D5A9
:105100000C4A936B0BB1D06B9847E20504D5094A62
:10511000136C0BB1506C9847A30504D5054A936CEA
:105120000BB1D06C9847BDE81040FEF7EBBD00BF57
:10513000003C014040610020194B10B55C6904F44B
:105140007C425A61620504D5164A136D0BB1506D4D
:105150009847230504D5134A936D0BB1D06D98473A
:10516000E00404D50F4A136E0BB1506E9847A104AA
:1051700004D50C4A936E0BB1D06E9847620404D5E7
:10518000084A136F0BB1506F9847230404D5054AA2
:10519000936F0BB1D06F9847BDE81040FEF7B2BDDA
:1051A000003C01404061002008B50348FEF746FE80
:1051B000BDE80840FEF7A6BD345C002008B5FFF747
:1051C00041FEBDE80840FEF79DBD0000062108B580
:1051D0000846FEF7B5FE06210720FEF7B1FE0621C0
:1051E0000820FEF7ADFE06210920FEF7A9FE0621E4
:1051F0000A20FEF7A5FE06211720FEF7A1FE0621D4
:105200002820FEF79DFE07211C20FEF799FEBDE831
:1052100008400C212620FEF793BE000008B5FFF7DA
:1052200025FE00F009F8FFF733F8FFF7E5FDBDE8CC
:105230000840FFF717BD00000023054A1946013357
:10524000102BC2E9001102F10802F8D1704700BF2B
:10525000406100200B460146184600F02DB80000C2
:1052600000F040B8012838BF012010B504462046A0
:1052700000F030F830B900F007F808B900F00CF889
:105280008047F4E710BD0000024B1868BFF35B8F46
:10529000704700BFC061002008B5062000F084F808
:1052A0000120FFF791FA0000024B0A4601461868F8
:1052B000FFF7C6BB2423002010B5054C13462CB1C4
:1052C0000A4601460220AFF3008010BD2046FCE7ED
:1052D00000000000024B01461868FFF7B5BB00BF95
:1052E00024230020024B01461868FFF7B1BB00BF22
:1052F0002423002010B501390244904201D100203E
:1053000005E0037811F8014FA34201D0181B10BD2E
:105310000130F2E72DE9F041A3B1C91A1778014431
:10532000044603F1FF3C8C42204601D9002009E0ED
:105330000578BD4204F10104F5D10CEB0405D61843
:10534000A54201D1BDE8F08115F8018D16F801EDF7
:10535000F045F5D0E7E700001F2938B504460D46B3
:1053600004D9162303604FF0FF3038BD426C12B1F0
:1053700052F821304BB9204600F030F82A46014659
:105380002046BDE8384000F017B8012B0AD0591C60
:1053900003D1162303600120E7E7002442F82540EB
:1053A000284698470020E0E7024B01461868FFF7BF
:1053B000D3BF00BF2423002038B5074D0023044687
:1053C000084611462B60FFF703FA431C02D12B68F5
:1053D00003B1236038BD00BFC4610020FFF7F2B9FC
:1053E000034611F8012B03F8012B002AF9D170476D
:1053F0006F72672E6172647570696C6F742E486F7E
:105400006C7962726F4750530000000053544D3363
:1054100032463F3F3F0053544D33324634307800DC
:1054200053544D3332463432780053544D33324660
:105430003434365858000000012033000010410079
:1054400001105A000310590007103100000000003D
:105450000C5400081304000016540008190400003E
:1054600020540008210400002A54000840A2E4F15E
:10547000646891060041A3E5F265699207000000A7
:105480004261642043414E496661636520696E64F0
:1054900065782E00000100000001FF00006400405C
:1054A00000680040800000000080000000008000D4
:1054B0000000000000000000F9200008BD290008DD
:1054C000C5280008392100084521000845230008A7
:1054D00009210008192100080D21000815210008E4
:1054E00011210008692200081D210008C12C0008B4
:1054F0002D2100083D220008009600000000000059
:10550000000000000000000000000000000000009B
:10551000514200083D4200087942000865420008F7
:10552000714200085D420008494200083542000807
:10553000854200086330000034550008F85E002002
:105540000861002000400000004000000040000012
:105550000040000000000100000002000000020006
:10556000000002006D61696E0069646C65000000F6
:10557000A001812A00000000AAA9AAAA50000124C3
:10558000EFFF000000770000009009001000004AC3
:10559000000000009AAAAAAA00000000FBFF000079
:1055A0000000000000009900000000000000000062
:1055B000AAAAAAAA00000000FFFF00000000000045
:1055C000000000000000000000000000AAAAAAAA33
:1055D00000000000FFFF00000000000000000000CD
:1055E0000000000000000000AAAAAAAA0000000013
:1055F000FFFF0000000000000000000000000000AD
:1056000000000000AAAAAAAA00000000FFFF0000F4
:10561000000000000000000000000000000000008A
:10562000AAAAAAAA00000000FFFF000000000000D4
:105630000000000000000000000000000A00000060
:105640000000000003000000000000000000000057
:105650000B04000000000000000007000000000034
:1056600040420F00FE2A0100D2040000FF000000AB
:10567000345C00202823002000000000000000000F
:10568000000000000000000000000000000000001A
:10569000000000000000000000000000000000000A
:1056A00000000000000000000000000000000000FA
:1056B00000000000000000000000000000000000EA
:1056C00000000000000000000000000000000000DA
:0856D0000000000000000000D2
:00000001FF
