:020000040800F2
:1000000000070020F1010008092E0008C12D00089A
:10001000E92D0008C12D0008E12D0008F3010008BA
:10002000F3010008F3010008F3010008E93D0008AE
:10003000F3010008F3010008F3010008F3010008D0
:10004000F3010008F3010008F3010008F3010008C0
:10005000F3010008F3010008F14200081943000809
:10006000414300086943000891430008F301000878
:10007000F3010008F3010008F3010008F301000890
:10008000F3010008F3010008F3010008F301000880
:10009000F3010008712D0008852D0008B943000800
:1000A000F3010008F3010008F3010008F301000860
:1000B000A1440008F3010008F3010008F30100085F
:1000C000F3010008F3010008F3010008F301000840
:1000D000F3010008F30100088D440008F301000853
:1000E0001D440008F3010008F3010008F3010008B3
:1000F000F3010008F3010008F3010008F301000810
:10010000F3010008F3010008F3010008F3010008FF
:10011000F3010008F3010008F3010008F3010008EF
:10012000F3010008F3010008F3010008F3010008DF
:10013000F3010008F3010008F3010008F3010008CF
:10014000F3010008F3010008F3010008F3010008BF
:10015000F3010008F3010008F3010008F3010008AF
:10016000F3010008F3010008F3010008F30100089F
:10017000F3010008F3010008F3010008F30100088F
:10018000F3010008F3010008F3010008F30100087F
:10019000F3010008F3010008992D0008AD2D0008B7
:1001A000F3010008F3010008F3010008F30100085F
:1001B000F3010008F3010008F3010008F30100084F
:1001C000F3010008F3010008F3010008F30100083F
:1001D000F3010008F3010008F3010008F30100082F
:1001E0002D150008000000000000000000000000C5
:1001F00002E000F000F8FEE772B6374880F30888A6
:10020000364880F3098836483649086040F20000D5
:10021000CCF200004EF63471CEF200010860BFF35C
:100220004F8FBFF36F8F40F20000C0F2F0004EF628
:100230008851CEF200010860BFF34F8FBFF36F8F7C
:100240004FF00000E1EE100A4EF63C71CEF20001D4
:100250000860062080F31488BFF36F8F04F0A2FFBC
:1002600005F082F84FF055301F491B4A91423CBFC0
:1002700041F8040BFAE71D49184A91423CBF41F886
:10028000040BFAE71A491B4A1B4B9A423EBF51F82E
:10029000040B42F8040BF8E700201849184A914271
:1002A0003CBF41F8040BFAE704F080FF05F0A2F828
:1002B000144C154DAC4203DA54F8041B8847F9E797
:1002C00000F042F8114C124DAC4203DA54F8041B12
:1002D0008847F9E704F068BF0007002000230020EA
:1002E0000000000808ED00E00001002000070020E9
:1002F000E856000800230020B4230020B823002083
:10030000B4690020E0010008E4010008E4010008ED
:10031000E40100082DE9F04F2DED108AC1F80CD052
:10032000C3689D46BDEC108ABDE8F08F002383F3BF
:1003300011882846A047002004F0BAFBFEE704F02D
:1003400043FB00DFFEE70000F8B501F061F904F0BF
:10035000CBFE074604F01CFF0546A8BB1F4B9F427F
:1003600032D001339F4232D01D4B27F0FF029A4218
:1003700030D1F8B200F022FF2E4642F2107400F0A5
:1003800023FF08B10024264601F070FC20B10320B1
:1003900000F07AF80024264635B1124B9F4203D074
:1003A00004F0EEFE00242646002004F0A7FE0EB165
:1003B00000F080F801F040FA00F038FF204600F02D
:1003C000D1F800F077F8F9E72E460024D7E7044685
:1003D0000126D4E7064640F6C414D0E7010007B072
:1003E000000008B0263A09B008B501F0DDF8A0F128
:1003F00020035842584108BD07B541F212030221BB
:1004000001A8ADF8043001F0EDF803B05DF804FB8D
:1004100038B5302383F31188174803680BB104F013
:1004200005FC164A144800234FF47A7104F0F4FBDB
:10043000002383F31188124C236813B12368013B16
:100440002360636813B16368013B63600D4D2B78D3
:1004500033B963687BB9022001F07CF93223636011
:100460002B78032B07D163682BB9022001F072F9B6
:100470004FF47A73636038BDB8230020110400087C
:10048000D8240020D0230020084B187003280CD853
:10049000DFE800F008050208022001F051B902204F
:1004A00001F044B9024B00225A607047D02300206B
:1004B000D824002010B501F0D9FB30B1234B032222
:1004C0001A70234B00225A6010BD224B224A1C4650
:1004D00019680131F8D004339342F9D16268A2421D
:1004E000F2D31E4B9B6803F1006303F510439A425D
:1004F000EAD204F017FE04F029FE002001F0A2F871
:100500000220FFF7C1FF164B9A6D00229A65996F82
:100510009A67996FD96DDA65D96FDA67D96F196EF5
:100520001A66D3F88010C3F88020D3F8803072B6F2
:100530004FF0E0233021C3F8084DD4E9003281F3B5
:1005400011889D4683F308881047BDE7D02300201B
:10055000D8240020009000082090000800230020EC
:10056000001002402DE9F04F93B0AC4B00902022D8
:10057000FF210AA89D6801F009F9A94A1378A3B9D7
:10058000A848012103601170302383F311880368A8
:100590000BB104F04BFBA44AA24800234FF47A713C
:1005A00004F03AFB002383F31188009B13B19F4BA7
:1005B000009A1A609E4A009C1378032B1EBF0023EA
:1005C00013709A4A4FF0000A18BF5360D34656463C
:1005D000D146012001F0B4F824B1944B1B68002BE4
:1005E00000F01582002000F0DFFF0390039B002B3A
:1005F00001DA00F06FFE039B002BEDDB012001F020
:1006000095F8039B213B162BE3D801A252F823F067
:100610006D0600089506000829070008D3050008A4
:10062000D3050008D3050008B307000883090008B4
:100630009D080008FF080008270900084D09000868
:10064000D30500085F090008D3050008D109000898
:100650000D070008D3050008150A000879060008F0
:100660000D070008D3050008FF0800080220FFF767
:10067000BBFE002840F0F581009B0221BAF1000F7B
:1006800008BF1C4605A841F21233ADF8143000F043
:10069000A9FF9EE74FF47A7000F086FF071EEBDBA0
:1006A0000220FFF7A1FE0028E6D0013F052F00F24F
:1006B000DA81DFE807F0030A0D10133605230593EE
:1006C000042105A800F08EFF17E054480421F9E743
:1006D00058480421F6E758480421F3E74FF01C0876
:1006E000404600F0B1FF08F104080590042105A878
:1006F00000F078FFB8F12C0FF2D1012000FA07F7D3
:1007000047EA0B0B5FFA8BFB4FF0000901F08AF808
:1007100026B10BF00B030B2B08BF0024FFF76CFE78
:1007200057E746480421CDE7002EA5D00BF00B0378
:100730000B2BA1D10220FFF757FE074600289BD0C4
:10074000012000F07FFF0220FFF79EFE00261FFA27
:1007500086F8404600F086FF044690B100214046EE
:1007600000F098FF01360028F1D1BA46044641F264
:100770001213022105A8ADF814303E4600F032FFF6
:1007800027E70120FFF780FE2546244B9B68AB42FC
:1007900007D9284600F058FF013040F06781043542
:1007A000F3E7234B00251D70204BBA465D603E46A3
:1007B000ACE7002E3FF460AF0BF00B030B2B7FF484
:1007C0005BAF0220FFF760FE322000F0EDFEB0F1DB
:1007D0000008FFF651AF18F003077FF44DAF0F4A42
:1007E000926808EB050393423FF646AFB8F5807F69
:1007F0003FF742AF124B0193B84523DD4FF47A70B7
:1008000000F0D2FE0390039A002AFFF635AF019B59
:10081000039A03F8012B0137EDE700BF0023002006
:10082000D4240020B823002011040008D82400207C
:10083000D023002004230020082300200C230020C4
:10084000D4230020C820FFF7CFFD074600283FF43F
:1008500013AF1F2D11D8C5F1200242450AAB25F078
:10086000030028BF424683490192184400F07CFFF0
:10087000019A8048FF2100F089FF4FEAA8037D49D3
:100880000193C8F38702284600F088FF0646002837
:100890003FF46DAF019B05EB830537E70220FFF7BF
:1008A000A3FD00283FF4E8AE00F006FF00283FF467
:1008B000E3AE0027B846704B9B68BB4218D91F2F88
:1008C00011D80A9B01330ED027F0030312AA134458
:1008D00053F8203C05934046042205A901F0B0F9E5
:1008E00004378046E7E7384600F0AEFE0590F2E7B1
:1008F000CDF81480042105A800F074FE06E700235B
:10090000642104A8049300F063FE00287FF4B4AED1
:100910000220FFF769FD00283FF4AEAE049800F016
:10092000C1FE0590E6E70023642104A8049300F0CB
:100930004FFE00287FF4A0AE0220FFF755FD0028EF
:100940003FF49AAE049800F0AFFEEAE70220FFF70A
:100950004BFD00283FF490AE00F0BEFEE1E7022020
:10096000FFF742FD00283FF487AE05A9142000F0F0
:10097000B9FE04210746049004A800F033FE39466E
:10098000B9E7322000F010FE071EFFF675AEBB0778
:100990007FF472AE384A926807EB090393423FF640
:1009A0006BAE0220FFF720FD00283FF465AE27F074
:1009B00003074F44B9453FF4A9AE484600F044FE52
:1009C0000421059005A800F00DFE09F10409F1E7E6
:1009D0004FF47A70FFF708FD00283FF44DAE00F0A9
:1009E0006BFE002844D00A9B01330BD008220AA9D1
:1009F000002000F0D3FE00283AD02022FF210AA8D0
:100A000000F0C4FEFFF7F8FC1C4804F057F813B0E0
:100A1000BDE8F08F002E3FF42FAE0BF00B030B2B35
:100A20007FF42AAE0023642105A8059300F0D0FDD1
:100A3000074600287FF420AE0220FFF7D5FC804651
:100A400000283FF419AEFFF7D7FC41F2883004F0DC
:100A500035F8059800F0FCFE464600F0E3FE3C4603
:100A6000B7E5064652E64FF0000905E6BA467EE6CF
:100A700037467CE6D423002000230020A086010016
:100A8000094A136849F2690099B21B0C00FB013353
:100A90001360064B186844F2506182B2000C01FBEF
:100AA0000200186080B27047142300201023002039
:100AB00010B500211022044600F068FE034B03CB62
:100AC000206061601868A06010BD00BF9075FF1FB6
:100AD0002DE9F041ADF54E7D0DF134086CAC40F2DE
:100AE000751207460D460EA80021C8F8001000F048
:100AF0004DFE4FF4C4720021204600F047FE02F084
:100B00008BF9274B4FF47A72B0FBF2F0186093E840
:100B10000700022384E807000DF5E9702382FFF740
:100B2000C7FF41F604531F49238406A804F0CCFCF8
:100B30001B2384F832310DF2E32206AB0DF1300CA9
:100B40001E4603CE664510605160334602F108022E
:100B5000F6D13188B3789370118020464146012246
:100B600000F090FE00230393AB7E029305F119037E
:100B7000019380B20123CDE904800093E97E06A3AE
:100B8000D3E90023384602F005FD0DF54E7DBDE8A2
:100B9000F08100BFAFF300809E6AC421818A46EED7
:100BA000E0240020D85400082DE9F0412C4C237A91
:100BB000DAB080460D465BBB27A9284600F072FFDD
:100BC0000746002842D19DF89D60C82E3ED80146B8
:100BD0004FF4A662204600F0D9FD4FF48073C4F8AC
:100BE000F8314FF40073C4F80C334FF44073C4F879
:100BF000203432460DF19E0104F1090000F0B4FDED
:100C000026449DF89C30777223720BB9EB7E2372D9
:100C10008122002106AC27A800F0B8FD0122214660
:100C200027A800F07BFF00230393AB7E029305F11E
:100C3000190380B201932823CDE904400093E97E93
:100C400005A3D3E90023404602F0A4FC5AB0BDE856
:100C5000F08100BFAFF3008026417272DF25D7B765
:100C6000A85E0020F0B5254E4FF48A7505FB00659F
:100C7000F1B096F8D83085F8DC300024D82221462F
:100C800085F8E8403AA800F081FD06F1090000F07F
:100C900075FDD5F8E4308DF8F000C2B206AF06F16C
:100CA00009010DF1F100CDE93A3400F05DFD39465E
:100CB00001223AA800F05EFF80B2CDE9047008235B
:100CC0000127CDE9023706F1D803019330230093C1
:100CD000317A0B4807A3D3E9002302F05BFCA04262
:100CE00006DD02F099F8C5F8E000384671B0F0BDB5
:100CF0002046FBE778F6339F93CACD8DA85E00208F
:100D0000F83400202DE9F04F264FDFF8A480264E5E
:100D100087B0384602F06AFC034600283AD0002427
:100D2000CDE90344ADF81440027B8DF81420996896
:100D30004068029403AA03C21B681C4D43F00043A1
:100D40000293A146A2462B68D3F810B002F066F8D1
:100D500010EB080241F100032846CDF800A002A9DB
:100D6000D84704F5A6640028C8BF49F00109B4F5C6
:100D7000266F05F5A655E6D1B9F1000F05D0384626
:100D800002F038FC86F800A0C3E73378072B04D8BC
:100D90000133337007B0BDE8F08F024802F02AFC3F
:100DA000F8E700BFF8340020DD630020283500207C
:100DB00040420F0070B50D4614461E4602F046FB39
:100DC00050B9022E10D1012C0ED112A3D3E9002369
:100DD000C5E90023012007E0282C10D005D8012CFC
:100DE00009D0052C0FD0002070BD302CFBD10BA3F7
:100DF000D3E90023ECE70BA3D3E90023E8E70BA337
:100E0000D3E90023E4E70BA3D3E90023E0E700BF25
:100E1000AFF30080401DA12026812A0B78F6339F76
:100E200093CACD8D9E6AC421818A46EE2641727294
:100E3000DF25D7B7F017304A39059E5638B5054635
:100E40000E4C0021013500F025FCA4F82C55B4F817
:100E50002C0500F007FC78B1B4F82C0500F012FC6A
:100E6000014648B9B4F82C0500F014FCB4F82C3550
:100E70000133A4F82C35EAE738BD00BFA85E002096
:100E8000F8B50D4C0D4F0226A4F5805343F8307C85
:100E9000237E3BB965692DB1284600F065FF2846E1
:100EA00004F0C8FA204600F05FFF012EA4F5A65416
:100EB00000D1F8BD0126E7E7185A00204055000888
:100EC0002DE9F04F8FB000AF05460C4602F0BEFA98
:100ED000002849D1237E022B1BD1E38A012B18D194
:100EE00001F09AFF0646FFF7CBFD03464FF4C870AA
:100EF000DFF8C482B3FBF0F206F5167602FB10337E
:100F000016FA83F3C8F80030E37E33B9A34B00220E
:100F10001A703C37BD46BDE8F08F07F1240120462A
:100F200000F07EFD0028F4D107F11400FFF7C0FDAA
:100F300097F8264007F11401224607F1270004F034
:100F400091FA0028E2D10F2C08D8944B1C70D8F8E5
:100F50000030A3F51673C8F80030DAE797F82410CC
:100F6000284602F06BFAD4E7E38A282B2BD010D85E
:100F7000012B23D0052BCCD1BFF34F8F8849894B50
:100F8000CA6802F4E0621343CB60BFF34F8F00BF27
:100F9000FDE7302BBDD1844EE17E327A9142B8D14B
:100FA000607E3146002291F8DC50854200F0A58039
:100FB0000132042A01F58A71F5D1AAE721462846B3
:100FC000FFF786FDA5E721462846FFF7EDFDA0E7E0
:100FD000B2F8EC507B6005F103094FEA99094FEA3A
:100FE0008902D11DC908A8EBC1039D46EB4600212B
:100FF000584600F0CBFB04F1EE012A463144584636
:1010000000F0B2FB7B6813B9012000F01BFB96F8DF
:10101000D20000F027FB044630B9307200F04CFBE0
:10102000204600F00FFBB1E0D6F8D4203AB996F88C
:10103000D200B6F82C25824201D8FFF7FFFED6F881
:10104000D4202A44944208D296F8D200B6F82C252F
:101050000130824201D8FFF7F1FE70685FFA89F231
:10106000594600F09BFB08B9C54679E0726896F8CE
:10107000D2002A447260D6F8D42005EB0209C6F8E3
:10108000D49000F0EFFA814509D396F8D220D6F833
:10109000D4000132001B86F8D220C6F8D400FF2D00
:1010A0000FD80024347200F007FB204600F0CAFA83
:1010B00000F0DCFD3D4B188108B9FFF7FBF9C54690
:1010C00027E7BB6896F8D9000AFB0362FB68D2F8F1
:1010D000E41082F8E83001F58061C2F8E030C2F82F
:1010E000E410FFF7BFFDFFF70DFE96F8D92001329F
:1010F00002F0030286F8D920B6E74FF48A7A0AFB99
:1011000002F505F1EA013144204600F05FFDF86088
:1011100000287FF4FEAE3544012285F8E82001F076
:101120007BFED5F8E020D6ED007ADFED216A801A4B
:10113000192838BF192040F6B832904228BF10460F
:10114000B8EE677A07EE900AF8EEE77A67EEA67ACD
:10115000DFED186AE7EE267AFCEEE77AC6ED007A54
:1011600096F8D930BB60BA6873680AFB02F432198A
:1011700092F8E81059B1D2F8E4108B42E8463FF4F7
:1011800027AF002182F8E810C2F8E010C546736866
:10119000064A9B0A01331381BBE600BFF1340020ED
:1011A00000ED00E00400FA05A85E0020E024002025
:1011B000CDCCCC3D6666663FF4340020014B187000
:1011C000704700BFEC24002038B54FF00054134B9B
:1011D00022689A4220D1124B627D12481A70237DF8
:1011E00003724FF48073C0F8F8314FF40073C0F805
:1011F0000C3300254FF44073C0F820340A49C0F87E
:10120000E450C922093000F0AFFAE0222946204616
:1012100000F0BCFA012038BD0020FCE79AAD44C5BF
:10122000EC240020A85E00201600002037B500F056
:101230001DFD1F4C1F4D2049288102236B7123681F
:1012400001225B682046984704F580531A49D3F879
:10125000C03401225B6804F5A6509847002301932F
:10126000164B174900931748174B4FF4805202F062
:10127000BDF8164B197811B1124802F0DFF801F0F1
:10128000CBFD0446FFF7FCFB4FF4C873B0FBF3F251
:1012900002FB130304F5167010FA83F00C4B186070
:1012A00003F076FF08B10F232B8103B030BD00BFE0
:1012B00028350020E024002040420F00B50D000832
:1012C000F0240020F8340020C10E0008EC24002097
:1012D000F43400202DE9F04F2DED028B002493B063
:1012E0000DF12C089FED818BDFF83C92FFF70AFD92
:1012F0000A94ADF834400B94C8F804400026814DA0
:10130000DFF804B2374601238DF81C302B688DF8C6
:101310001D408DED008B0DF11D02D3F808A007A92B
:1013200000232846D0479DF81CA0BAF1000F24D016
:10133000D9F8143083F48063C9F8143010220021E6
:101340000EA800F023FA2B6808AA5F690AA90DF11C
:101350001E032846B84798E803000FAB83E8030054
:101360009DF834308DF844300A9B0E930EA9DDE9C8
:101370000823584602F01CFB574606F5A666B6F54C
:10138000266F05F5A655BED1002FB7D15E4802F0F5
:101390005DF800283FD15D4E01F03EFD3368984274
:1013A00039D301F039FD0546FFF76AFB4FF4C873E6
:1013B000B0FBF3F202FB130305F5167010FA83F08D
:1013C0003060534E8DF82870377817B901238DF8A7
:1013D0002830C7F11005EDB20EA8FFF769FB062D06
:1013E00028BF06250EAB2A46D9190DF1290000F0B9
:1013F000BBF90AAB0393182302930135454B0193C4
:10140000EDB201230093404804953AA3D3E90023A9
:1014100002F062F8347001F0FFFC3F4A3F4D136860
:10142000C31AB3F57A7F2FD3106001F0F7FC0246A0
:101430000B46354802F0E8F8334802F007F818B3D5
:101440002B7A374E002B14BF03230223737101F054
:10145000E3FC0EAF4FF47A730122B0FBF3F0394690
:101460003060304600F0B4FA182302932D4B0193FC
:1014700080B240F25513CDE90370009322481FA3B8
:10148000D3E9002302F028F82B7A93B101F0C4FCD1
:10149000002607464FF48A7895F8D900304400F0CA
:1014A000030008FB005393F8E82072B10136042EC4
:1014B000F2D1C82003F002FB2B7A002B7FF410AF8F
:1014C00013B0BDEC028BBDE8F08FD3F8E02042B141
:1014D0002B68FA2B38BFFA23BA1A0533B2EB430F45
:1014E000E4D3FFF7BFFB0028E0D1E2E700000000F3
:1014F00000000000401DA12026812A0BF1C6A7C1D3
:10150000D068080F28350020F8340020F43400207B
:10151000F1340020F0340020D8630020A85E0020C1
:10152000E0240020DC6300200008004810B5074CD0
:10153000204600F04BFF04F5A65000F047FFBDE841
:101540001040034A0349002003F06EBF28350020F5
:1015500034640020810E000870B5104B1B780133F5
:10156000DBB2012B0C4612D80D4B1D6829684FF4D5
:101570007A730E6AA2FB0332014622462846B04720
:10158000844204D1074B00221A70012070BD4FF431
:10159000FA7003F093FA0020F8E700BF1823002048
:1015A0001C2300202464002007B5002302460121EB
:1015B0000DF107008DF80730FFF7CEFF20B19DF841
:1015C000070003B05DF804FB4FF0FF30F9E70000BF
:1015D0000A4608B50421FFF7BFFF80F00100C0B242
:1015E000404208BD30B4074B0A461978064B53F801
:1015F00021402368DD69054B0146AC46204630BCDE
:10160000604700BF246400201C230020A086010046
:1016100070B503F00BFC094E094D3080002428689A
:101620003388834208D903F0FDFB2B68044401335F
:10163000B4F5104F2B60F2D370BD00BF26640020BC
:10164000E063002003F0A6BC00F1006000F510404C
:101650000068704700F10060920000F5104003F050
:1016600023BC0000054B1A68054B1B889B1A83425C
:1016700002D9104403F0D6BB00207047E06300207D
:1016800026640020024B1B68184403F0D3BB00BF44
:10169000E0630020024B1B68184403F0DDBB00BF71
:1016A000E06300200020704700F10050A0F51040DA
:1016B000D0F8900570470000064991F8243033B106
:1016C0000023086A81F824300822FFF7C3BF0120F5
:1016D000704700BFE4630020014B1868704700BFEB
:1016E000002004E030B50F4B0F4C1B682288C3F379
:1016F0000B030138934208440BD164680A46013C4D
:10170000824213460BD214F9015F2DB102F8015B3E
:10171000F6E781420B4602D22C2203F8012B581A1D
:1017200030BD00BF002004E020230020022802BFBB
:10173000024B4FF080629A61704700BF000800487A
:10174000022802BF024B4FF480629A61704700BFCB
:1017500000080048022801BF024A536983F48063ED
:10176000536170470008004810B50023934203D02E
:10177000CC5CC4540133F9E710BD000003460246B7
:10178000D01A12F9011B0029FAD17047024403460E
:10179000934202D003F8011BFAE770472DE9F843A2
:1017A0001F4D144695F824200746884652BBDFF8A3
:1017B00070909CB395F824302BB92022FF21484625
:1017C0002F62FFF7E3FF95F82400C0F10802A24260
:1017D00028BF2246D6B24146920005EB8000FFF7B3
:1017E000C3FF95F82430A41B1E44F6B2082E1744FC
:1017F0009044E4B285F82460DBD1FFF75DFF002858
:10180000D7D108E02B6A03EB82038342CFD0FFF7E6
:1018100053FF0028CBD10020BDE8F8830120FBE76F
:10182000E4630020024B1A78024B1A70704700BF25
:10183000246400201823002003494FF461430B6007
:10184000024B186803F026B80C6400201C2300200B
:10185000094B10B51822044600211846FFF796FFE1
:10186000064A074B127804600146BDE8104053F861
:10187000220003F00FB800BF0C6400202464002095
:101880001C2300202DE9F0470D4604460021904618
:10189000284640F27912FFF779FF234620220021E3
:1018A000284602F027F8231D02222021284602F0B4
:1018B00021F8631D03222221284602F01BF8A31DF4
:1018C00003222521284602F015F804F1080310220E
:1018D0002821284602F00EF804F1100308223821CE
:1018E000284602F007F804F1110308224021284697
:1018F00002F000F804F1120308224821284601F002
:10190000F9FF04F1140320225021284601F0F2FFD0
:1019100004F1180340227021284601F0EBFF04F186
:1019200020030822B021284601F0E4FF04F121033E
:101930000822B821284601F0DDFF04F12207C02665
:101940003B46314608222846083601F0D3FFB6F55B
:10195000A07F07F10107F3D104F1320308223146D9
:10196000284601F0C7FF002704F1330A94F832300B
:101970004FEAC7099F4209F5A47615D3B8F1000FC5
:1019800008D1314604F599730722284601F0B2FFC9
:1019900009F24F16274694F832213B1B93420CD391
:1019A000F01DC008BDE8F0870AEB070308223146A6
:1019B000284601F09FFF0137D8E707F2331331467D
:1019C0000822284601F096FF08360137E3E70000B9
:1019D00013B504460846002101602346C0F80310F1
:1019E0002022019001F086FF0198231D0222202170
:1019F00001F080FF0198631D0322222101F07AFF8C
:101A00000198A31D0322252101F074FF019804F120
:101A100008031022282101F06DFF072002B010BD3D
:101A2000F7B50023047F00910E46072219460546AC
:101A300001F024FE731C0093012200230721284695
:101A400001F01CFEC4B9B31C0093052223460821F3
:101A5000284601F013FE0D243746B278BB1B934293
:101A600011D32B7FA88A0734E408BBB9844294BF02
:101A70000020012003B0F0BDAB8ADB00083BDB088F
:101A8000B3700824E8E7FB1C0093214600230822DA
:101A9000284601F0F3FD08340137DEE7201A18BFAD
:101AA0000120E7E7F7B50023047F00910E460822E6
:101AB0001946054601F0E2FD731CC4B908220093E3
:101AC00011462346284601F0D9FD102401237278DF
:101AD0005F1C013B934211D32B7FA88A0734E40893
:101AE000BBB9844294BF0020012003B0F0BDAB8A93
:101AF000DB00083BDB0873700824E7E7F319009369
:101B0000214600230822284601F0B8FD08343B4650
:101B1000DDE7201A18BF0120E7E70000F8B50E4600
:101B200005461446002181223046FFF72FFE2B4642
:101B300008220021304601F0DDFE7CB96B1C072233
:101B40000821304601F0D6FE0F2401236A785F1C7D
:101B5000013B934204D3E01DC008F8BD0824F4E71C
:101B6000EB1921460822304601F0C4FE08343B46FA
:101B7000ECE70000F8B50E46054614460021CE22DB
:101B80003046FFF703FE2B4628220021304601F0A5
:101B9000B1FE7CB905F1080308222821304601F086
:101BA000A9FE30242F462A7A7B1B934204D3E01DE2
:101BB000C008F8BD2824F5E707F1090321460822EB
:101BC000304601F097FE08340137ECE7F7B5047FA3
:101BD00000910E46012310220021054601F04EFD22
:101BE000C4B9B31C0093092223461021284601F0F2
:101BF00045FD192437467288BB1B9A4211D82B7FAA
:101C0000A88A0734E408BBB9844294BF00200120AD
:101C100003B0F0BDAB8ADB00103BDB0873801024FF
:101C2000E8E73B1D0093214600230822284601F0E7
:101C300025FD08340137DEE7201A18BF0120E7E749
:101C400030B5094D0A4491420DD011F8013B58407E
:101C5000082340F30004013B2C4013F0FF0384EA07
:101C60005000F6D1EFE730BD2083B8EDF7B5384A24
:101C7000106851686B4603C36A46364936480823E4
:101C800003F000FC0446002833D10A25334A1068CB
:101C900051686B4603C36A4631492F48082303F055
:101CA000F1FB0446002849D00369B3F5EE2F45D86F
:101CB000B0F8661040F21D4291423FD1294A0244D9
:101CC00002F15C018B4239D35C3B234900209E1A10
:101CD000FFF7B6FF3246074604F164010020FFF724
:101CE000AFFFA3689F4229D1E368984208BF00254F
:101CF00024E00369B3F5EE2F27D8418B40F21D4253
:101D0000914220D1174A024402F110018B4218D3AC
:101D1000103B114900209D1AFFF792FF2A46064604
:101D200004F118010020FFF78BFFA3689E4202D147
:101D3000E368984201D00D25A8E70025284603B0A6
:101D4000F0BD1025A2E70C25A0E70B259EE700BFFC
:101D500000550008DC6F07000090000809550008D6
:101D6000906F07000870FFF710B5037C044613B9A5
:101D7000006803F06FFB204610BD00000023BFF396
:101D80005B8FC360BFF35B8FBFF35B8F8360BFF379
:101D90005B8F7047BFF35B8F0068BFF35B8F70474B
:101DA00070B505460C30FFF7F5FF05F1080604464F
:101DB0003046FFF7EFFFA04206D930466D68FFF7C7
:101DC000E9FF2544281A70BD3046FFF7E3FF201ACB
:101DD000F9E7000070B50546406898B105F10800C4
:101DE000FFF7D8FF05F10C0604463046FFF7D2FF97
:101DF0008442304694BF6D680025FFF7CBFF013C5D
:101E00002C44201A70BD000038B50C460546FFF77B
:101E1000C7FFA04210D305F10800FFF7BBFF044441
:101E20006868B4FBF0F100FB1144BFF35B8F012045
:101E3000AC60BFF35B8F38BD0020FCE72DE9F041BB
:101E4000144607460D46FFF7C5FF844228BF0446E7
:101E5000D4B1B84658F80C6B4046FFF79BFF3044AE
:101E6000286040467E68FFF795FF331A9C4203D8EE
:101E70006C600120BDE8F0816B60A41B3B68AB6027
:101E80002044E8600220F5E72046F3E738B50C4629
:101E90000546FFF79FFFA04210D305F10C00FFF7A6
:101EA00079FF04446868B4FBF0F100FB1144BFF310
:101EB0005B8F0120EC60BFF35B8F38BD0020FCE737
:101EC0002DE9FF41884669460746FFF7B7FF6C4694
:101ED00006B204EBC6060025B44209D06268206849
:101EE00008EB0501FFF740FC636808341D44F3E785
:101EF00029463846FFF7CAFF284604B0BDE8F081FE
:101F0000F8B505460C300F46FFF744FF05F108060B
:101F100004463046FFF73EFFA042304688BF6C685B
:101F2000FFF738FF201A386020B130462C68FFF7E1
:101F300031FF2044F8BD000073B5144606460D4637
:101F4000FFF72EFF844228BF04460190DCB101A9AF
:101F50003046FFF7D5FF019B33B93268C5E902333C
:101F6000C5E9002401200CE09C4238BF01942860A0
:101F7000019868608442F5D93368AB60241AEC603C
:101F8000022002B070BD2046FBE700002DE9FF41B2
:101F90000F466946FFF7D0FF6C4600B204EBC00560
:101FA0000026AC4209D0D4F8048054F8081BB819B4
:101FB0004246FFF7D9FB4644F3E7304604B0BDE89C
:101FC000F081000038B50546FFF7E0FF0446014602
:101FD0002846FFF719FF204638BD00007047000073
:101FE00010B41346026814680022A4465DF8044B3E
:101FF0006047000000F5805090F8590470470000D9
:1020000000F5805090F852047047000000F58050B1
:1020100090F958047047000050207047302383F334
:10202000118800F58052D2F89C34D2F898041844F4
:10203000D2F894341844D2F87C341844D2F88C3452
:102040001844D2F888341844002383F31188704769
:1020500000F58050C0F854140120704738B5C26AAA
:10206000936923F001039361044600F0D5FE054611
:10207000E36A9B69DB0706D500F0CEFE431BFA2B13
:10208000F6D9002004E004F58054012084F85204BD
:1020900038BD00002DE9F04F0C4600F5805185B0A9
:1020A0001F4691F85234BDF83890054690469BB1D2
:1020B000D1F878340133C1F878342368980006D415
:1020C000237B082B0BD9627B0AB10F2B07D9D1F8E0
:1020D0007C340133C1F87C344FF0FF3010E0302302
:1020E00083F31188EB6AD3F8C42012F4001B0AD0E2
:1020F000D1F880340133C1F88034002080F3118896
:1021000005B0BDE8F08FD3F8C4302068C3F3014AAE
:102110006B6A4822002812FB0A33B4BF40F08040AB
:10212000800418602268520044BF40F000501860DC
:10213000207B4FEA0A6242EA00425A60607B4FEA23
:102140004A1610B342F440125A60D1F8B02401325A
:10215000C1F8B024AA1902F58352117B41F0200185
:102160001173207B039300F0B3FE039B03308010B8
:102170005FFA8BF282420BF1010B0DDA04EB820164
:1021800003EB820249689160F2E7AA1902F58352D3
:10219000117B60F34511E3E7EB6A012202FA0AF2D0
:1021A000C3F8CC2005EB4A11AB1903F5825301F5B6
:1021B0008251C3E904871831234604F10C0253F815
:1021C000040B41F8040B9342F9D11B880B802E4479
:1021D00041F2680346F803A006F5805609F00303B0
:1021E00096F86C2043F0100322F01F02134386F888
:1021F0006C30002383F31188CDF8009042463B46B3
:102200002146284600F02AFE012079E713B500F5A3
:1022100080540191606CFFF7DDFD1F280AD90199F8
:10222000606C2022FFF74CFEA0F120035842584179
:1022300002B010BD0020FBE708B5302383F31188FE
:1022400000F58050406CFFF799FD002383F311885F
:1022500008BD0000002202608281426082607047F7
:1022600010B500220023C0E90023002304460381A7
:102270000C30FFF7EFFF204610BD00002DE9F047BE
:102280009A4688B0074688469146302383F31188E2
:1022900007F580546846FFF7E3FF606CFFF780FDA9
:1022A0001F282DD9606C20226946FFF78BFE20285D
:1022B00026D194F852341BB303AD444605AB2E46E9
:1022C00003CE9E4220606160354604F10804F6D1D9
:1022D00030682060B388A380DDE90023C9E90023CA
:1022E000BDF80830AAF80030002383F31188534664
:1022F0004A464146384608B0BDE8F04700F09CBD6C
:10230000002080F3118808B0BDE8F0872DE9F84F70
:1023100000230646C0E90133294B46F8303B00F55F
:102320008154054688463746103438462037FFF733
:1023300097FFA742F9D105F580544FF480532663E7
:102340000026C4E90D366764012305F5835705F5BA
:10235000A359E66384F8403084F84830103709F117
:1023600010094FF0000A4FF0000B47E908ABA7F146
:102370001800FFF76FFF203747F8286C4F45F4D15E
:10238000B8F1010F84F85884A4F85A64A4F85C6486
:10239000A4F85E6484F86064A4F86264A4F86464D9
:1023A000A4F8666484F8686402D9064800F02EFD3B
:1023B000054B53F82830EB622846BDE8F88F00BF84
:1023C00040550008145500083055000810B5044B5E
:1023D000197804464A1C1A70FFF798FF204610BD72
:1023E000316400202DE9F84315460C4600295CD0E5
:1023F000022001F077FF2E49B0FBF4F78C428CBF2E
:102400000A2111214B1EB7FBF1F601FB1671DAB25E
:1024100021B1022B1946F5D8002032E0731EB3F526
:10242000806FF9D2C2EBC20808F103014FEAE10E56
:10243000C1F3C701A2EB010C0EF101094FF47A734D
:102440005FFA8CF70EFB033E59FA8CFCBEFBFCFCDA
:10245000BCF5617F17DC1FFA8CF34A1C57FA82F235
:102460007243B0FBF2F08442D6D14A1E0F2AD3D871
:102470007A1E072AD0D801202B806E8028716971BE
:10248000AF71BDE8F88308F1FF314FEAE10CC1F309
:10249000C701521A0CF1010ED7B20CFB03335EFADE
:1024A00082F2B3FBF2F39BB2D7E70846E9E700BF3D
:1024B0003F420F0030B50D4B0D4D05201C786C438D
:1024C0008C420ED15978518099785171D978917197
:1024D000197911715B7903EB83035B001380012091
:1024E00030BD013803F10603E8D1F9E78055000853
:1024F00040420F0038B500F58053114A93F8583424
:10250000D55C4FF45472554305F1804303F52443E1
:10251000044600211846FFF739F90A4B60612B4445
:10252000A361094B2B44E361084B2B442362084B06
:102530002B446362E36A0022C3F8C02038BD00BFA9
:102540002855000870A40040B0A4004088A50040B1
:1025500078A600402DE9F04F00F580551F4695F80C
:102560005834022B89B004468946904604D9002687
:10257000304609B0BDE8F08FA64A52F8231009B9D9
:1025800042F82300A448C4F80C900178277499B944
:10259000302383F31188A14B9A6D42F000729A6543
:1025A0009A6B42F000729A639A6B22F000729A63FF
:1025B0000123037081F3118895F85134CBB930238E
:1025C00083F31188964A95F85834D35C012B2AD0AE
:1025D000022B2FD03BB90321152001F0A5FF0321C9
:1025E000162001F0A1FF012385F85134002383F365
:1025F0001188302383F31188E26A936923F0100372
:10260000936100F009FC8246E36A9E6916F00806B1
:1026100017D000F001FCA0EB0A03FA2BF4D9002636
:1026200086F31188A4E70321562001F07DFF0321E2
:102630005720D6E70321582001F076FF03215920C7
:10264000CFE79A6942F001029A6100F0E5FB824609
:10265000E36A9A69D00706D400F0DEFBA0EB0A0318
:10266000FA2BF5D9DBE79A6942F002029A61E36A34
:102670004FF0000AC3F854A08AF31188686CFFF782
:102680007DFB04F5825B0BF1100B202200216846D4
:10269000FFF77CF802A8FFF7DDFDCDF818A06A4629
:1026A0000BEB06030DF1180E9446BCE80300F4454D
:1026B00018605960624603F10803F5D1DCF80000A8
:1026C000186020369CF804201A71B6F5806FDCD1B2
:1026D000002304F5A25285F8503485F853341A3299
:1026E00049462046FFF77EFE064690B9E26A9369A6
:1026F00023F00103936100F08FFB0546E36A9B69B9
:10270000D9077FF534AF00F087FB431BFA2BF5D9CF
:102710002DE795F85E34C5F86C94591E95F85F3432
:10272000E26A013B1B0243EA416395F860140139F8
:102730000B43B5F85C14013943EA0143D361B8F1A6
:10274000000F36D004F5A352023241462046FFF76F
:10275000B1FE90B9E26A936923F00103936100F03E
:102760005BFB0546E36A9B69DA077FF500AF00F083
:1027700053FB431BFA2BF5D9F9E695F86724C5F806
:102780007084511E95F86824E36A013A120142EA06
:10279000012295F8661401390A43B5F86414013929
:1027A00042EA014242F40002DA60E36A4FF4206236
:1027B0009A642046FFF79EFE002385F85934E36AA9
:1027C0006FF040421A65E36A164A5A65E36A44228A
:1027D0009A65E36A0722C3F8DC20E36A0322974282
:1027E000DA653FF4C5AEE26A936923F001039361B1
:1027F00000F012FB0746E36A9B69DB0705D500F092
:102800000BFBC31BFA2BF6D9B1E6012385F8523432
:10281000AEE600BF286400203064002000100240B3
:10282000285500089B0008002DE9F04F054689B0A7
:1028300090469946002741F2680A00F58056EB6AF7
:10284000D3F8D430FB40D80751D505EB471252449A
:102850004FEA471B1379190749D4D6F8843401335A
:10286000C6F8843405F5A553C3E9008913799A069F
:1028700048BFD6F8B43405EB0B0248BF01335244CD
:1028800048BFC6F8B434137943F008031371DB076B
:1028900022D596F85334FBB105F5825418346846B6
:1028A0005C44FFF7DDFC03AB04F1080C20686168B1
:1028B0001A4603C2083464451346F7D120681060F5
:1028C000A2889A800123ADF808302B68CDE90089F1
:1028D000DB6B694628469847D6F8A834D6F85404E6
:1028E0000133C6F8A83410B103681B699847013753
:1028F000202FA4D109B0BDE8F08F00002DE9F04FE2
:102900008DB004460F4600F089FA82468946002FB2
:1029100056D1E36AD3F89020920141BF04F580516B
:10292000D1F898240132C1F89824D3F890201607E2
:1029300003D100200DB0BDE8F08FD3F89050E669C8
:10294000C5F30125482303FB0566E8464046FFF72B
:1029500081FC326851004ABF22F06043C2F38A43CF
:1029600043F00043920048BF43F0804300937368F4
:1029700013F400131FBF04F5805201238DF80D30AE
:10298000D2F8B8340EBF8DF80D300133C2F8B83428
:10299000F38803F00F038DF80C304FF0000B9DF817
:1029A0000C0000F095FA5FFA8BF3984220D9F218E8
:1029B0000CA90B44127A03F82C2C0BF1010BEEE757
:1029C000012FB6D1E36AD3F89820950141BF04F5F1
:1029D0008051D1F898240132C1F89824D3F8982076
:1029E0001007A6D0D3F89850266AC5F30125A9E7A9
:1029F000EFB9E36AC3F8945004A8FFF731FC98E8F4
:102A00000F0007AD07C52B800023ADF818302368F1
:102A10002046CDE904A9DB6B04A9984704F580544E
:102A200058B1D4F890340133C4F8903482E7012FC0
:102A300004BFE36AC3F89C50DEE7D4F89434013352
:102A4000C4F89434012075E72DE9F04105460F469E
:102A500000F58054012639462846FFF74FFF10B194
:102A600084F85364F7E7D4F8A834D4F85404013355
:102A7000C4F8A83420B10368BDE8F0411B691847C9
:102A8000BDE8F081F0B5C36A1A6C12F47F0F2BD049
:102A900000F580541B6CC4F8AC3441F26805002387
:102AA00047194FF0010C00EB43122A445E011179E3
:102AB00011F0020F15D0490713D4B959C66AD6F8D8
:102AC000C8E00CFA01F111EA0E0F0AD0C6F8D010D6
:102AD000117941F004011171D4F88C240132C4F849
:102AE0008C240133202BDED1F0BD00002B4B70B5C0
:102AF0001E561B5C012B2FD8294D2A4A55F823302E
:102B000052F826400BB341B3236D1A060FD580232C
:102B1000236500F083F950EA01020B4602D0013828
:102B200061F10003024655F82600FFF77DFE236D94
:102B30001B032CD555F826304FF4002203F58053A3
:102B40002265012283F8592421E00123236508230B
:102B500023654FF48063236570BD236DDA0702D4CB
:102B6000236D9B0706D5032355F826002365002116
:102B7000FFF76AFF236D180702D4236DD90606D527
:102B8000182355F8260023650121FFF75DFF55F84E
:102B90002600BDE87040FFF775BF00BF2C55000848
:102BA000286400203055000808B5302383F31188CD
:102BB000FFF768FF002383F3118808BDC36AD3F8C9
:102BC000C40080F40010C0F34050704708B53023B3
:102BD00083F3118800F58050406CFFF7E1F8002383
:102BE00083F3118843090CBF0120002008BD0000B9
:102BF00000F5805393F8592462B1C16A8A6922F0C2
:102C000001028A61D3F89C240132C3F89C2400227B
:102C100083F85924704700002DE9F743302181F3F0
:102C2000118800F582511031002541F2680E4FF0F5
:102C3000010800F5805C00EB4514744426797707A1
:102C40001CD4F6061AD5D0F82C908E69D9F8C87025
:102C500008FA06F63E4211D04F6801970F68974276
:102C6000019F9F410AD2C9F8D060267946F0040638
:102C70002671DCF888440134CCF888440135202DD5
:102C800001F12001D7D1002383F3118803B0BDE8FF
:102C9000F0830000F8B51E46002313700F4605466A
:102CA0001446FFF793FF80F0010038701EB12846EC
:102CB000FFF784FF2070F8BD2DE9F04F85B09946ED
:102CC000DDE90EA30D4602931378019391F800B04D
:102CD0008046164600F0A2F82B7804460F4613B93A
:102CE0003378002B41D022463B464046FFF794FF05
:102CF000FFF75AFFFFF77CFF4B4632462946FFF7A6
:102D0000C9FF2B7833B1BBF1000F03D0012005B010
:102D1000BDE8F08F337813B1019B002BF6D108F595
:102D200080530393029B544577EB03031DD2039B0F
:102D3000D3F85404C8B10368AAEB04011B68984790
:102D40004B46324629464046FFF7A4FF2B7813B185
:102D5000BBF1000FDAD1337813B1019B002BD5D131
:102D600000F05CF804460F46DCE70020CFE70000E7
:102D700008B500210846FFF7B9FEBDE8084001F09C
:102D800067B8000008B501210020FFF7AFFEBDE8DD
:102D9000084001F05DB8000008B500210120FFF7F0
:102DA000A5FEBDE8084001F053B8000008B50121B8
:102DB0000846FFF79BFEBDE8084001F049B8000057
:102DC00000B59BB0EFF3098168226846FEF7CCFCA2
:102DD000EFF30583014B9B6BFEE700BF00ED00E0C6
:102DE00008B5FFF7EDFF000000B59BB0EFF30981D8
:102DF00068226846FEF7B8FCEFF30583014B5B6B76
:102E0000FEE700BF00ED00E0FEE700000FB408B5EC
:102E1000029801F003FEFEE702F002B902F0E4B806
:102E200013B56C4684E80600031D94E8030083E8AC
:102E30000500012002B010BD73B58568019155B140
:102E40001B885B0707D4D0E900369B6B9847019A33
:102E5000C1B23046A847012002B070BDF0B5866807
:102E600089B005460C465EB1BDF838305B070AD420
:102E7000D0E900379B6B98472246C1B23846B0472D
:102E8000012009B0F0BD00220023CDE9002300237A
:102E9000ADF808300A4603AB01F108061068516826
:102EA0001C4603C40832B2422346F7D110682060A2
:102EB0009288A280FFF7B2FF0423ADF808302B6898
:102EC000CDE90001DB6B694628469847D8E700004A
:102ED000082817D909280CD00A280CD00B280CD0A8
:102EE0000C280CD00D280CD00E2814BF4020302008
:102EF00070470C207047102070471420704718202E
:102F000070472020704700002DE9F041456A15B94F
:102F10004162BDE8F0814B6823F06047C3F38A4605
:102F20004FEAD37EC3F3807816EA230638BF3E46C5
:102F3000AC462B465A68BEEBD27F22F060440AD0E2
:102F4000002A18DAA40CB44217D19D420FD10D60AB
:102F5000DEE71346EEE7A74207D102F08044C2F352
:102F6000807242450BD054B1EFE708D2EDE7CCF8C0
:102F700000100B60CDE7B44201D0B442E5D81A6826
:102F80009C46002AE5D11960C3E700002DE9F0470F
:102F9000089D01F007044FEAD508224405F0070513
:102FA00000EBD1004FF47F49944201D1BDE8F08796
:102FB00004F0070705F0070A57453E4638BF564656
:102FC000C6F10806111B8E4228BF0E46E10808EB29
:102FD000D50E415C13F80EC0B94029FA06F721FA64
:102FE0000AF1FFB28CEA010147FA0AF739408CEA8C
:102FF000010C03F80EC034443544D5E780EA0120C3
:10300000082341F2210201B24000002980B203F1FD
:10301000FF33B8BF504013F0FF03F4D170470000F6
:1030200038B50C468D18A54200D138BD14F8011BE7
:10303000FFF7E4FFF7E7000042684AB11368436016
:103040004389818901339BB29942438138BF83818F
:103050001046704770B588B0202204460D46684679
:103060000021FEF793FB20460495FFF7E5FF02469B
:1030700058B16B46054608AE1C4603CCB4422860E6
:103080006960234605F10805F6D1104608B070BD09
:10309000082817D909280CD00A280CD00B280CD0E6
:1030A0000C280CD00D280CD00E2814BF4020302046
:1030B00070470C207047102070471420704718206C
:1030C0007047202070470000082817D90C280CD919
:1030D00010280CD914280CD918280CD920280CD960
:1030E00030288CBF0F200E207047092070470A201F
:1030F00070470B2070470C2070470D207047000070
:103100002DE9F843078C072F04461ED9D0E9029811
:1031100000254FF6FF73C5F12006A5F1200029FA1E
:1031200005F108FA06F628FA00F031430143C9B266
:103130001846FFF763FF0835402D0346EBD1E169E0
:103140003A46BDE8F843FFF76BBF4FF6FF70BDE8A6
:10315000F883000010B54B6823B9CA8A63F30902EB
:10316000CA8210BD04691A681C600361C38A013BEE
:10317000C3824A60EFE700002DE9F84F1D46CB8A75
:103180000F46C3F309010529814692460B4630D00C
:103190000020AAB207F11A049EB2042E1FFA80F88A
:1031A0000FD8904503F1010306D3FB8A0A4462F36A
:1031B0000903FB8201201AE01AF80060E65401308E
:1031C000EAE79045F1D2A1F1050B1C237C68BBFB1B
:1031D000F3F203FB12BB1FFA8BF6002C45D14846D5
:1031E000FFF72AFF044638B978606FF00200BDE8A7
:1031F000F88F4FF00008E6E7002606607860ADB271
:103200004FF0000B454510D90AEB0803221D13F8B7
:10321000011B9155B1B208F101081B291FFA88F86A
:103220002BD0454506F10106F1D8FB8AC3F309020C
:10323000154465F30903BCE7013292B21C462368CA
:10324000002BF9D16B1F0B441C21B3FBF1F30133AD
:103250009BB29A42D3D2BBF1000FD0D14846FFF7C0
:10326000EBFE20B9C4F800B0BFE70122E7E7C0F8E1
:1032700000B05E4620600446C1E74545D5D94846C2
:10328000FFF7DAFE08B92060AFE7C0F800B000260B
:1032900020600446B6E700002DE9F04F2DED028BCB
:1032A0001C4683B05B69019207468846002B00F0FC
:1032B0009A80238C2BB1E269002A00F09480072BBE
:1032C00035D807F10C00FFF7B7FE054638B96FF0A7
:1032D0000205284603B0BDEC028BBDE8F08F142236
:1032E0000021FEF753FA228CE16905F10800FEF790
:1032F0003BFA208C013080B2FFF7E6FEFFF7C8FEF4
:10330000013880B22084013028746369228C1B78D4
:103310002A4403F01F0363F03F0348F00041137297
:10332000384669602946FFF7EFFD0125D1E700F136
:103330000C034FF0000908EE103A4FF0800A4E4699
:103340004D4618EE100AFFF777FE83460028BED0E0
:1033500014220021FEF71AFA002E3AD1019BABF895
:10336000083002220BF1080E1FFA82FC0CF101005A
:10337000BCF1060F218C80B201D88E422BD3FFF70F
:10338000A3FEFFF785FE62691278013802F01F0282
:103390008E4208BF4FF0400A42EA49121BFA80F100
:1033A0004AEA020A013048F0004281F808A08BF88E
:1033B0001000CBF8042059463846FFF7A5FD238CB2
:1033C0000135B3422DB289F001094FF0000AB8D19E
:1033D0007FE70022C6E7E169895D0EF80210013639
:1033E000B6B20132C0E76FF0010572E7F8B51546D5
:1033F0000E463022002104461F46FEF7C7F9069B01
:103400006360B5F5001F079BA76034BF6A094FF6DC
:10341000FF72A36297B2E66104F1100000239A42A2
:1034200006D800230360A782E3822383E360F8BD0C
:103430000660013330462036F1E7000003781BB9FF
:103440004BB2002BC8BF0170704700000078704776
:10345000F8B50C46C969074611B9238C002B37D142
:10346000257E1F2D34D8387828BB228C072A2CD8EB
:10347000268A36F003032BD14FF6FF70FFF7D0FDFD
:1034800020F001003102400441EA0561400C41EAAC
:1034900040254FF6FF72234629463846FFF7FCFECB
:1034A000002807DD626913780133DBB21F2B88BF68
:1034B00000231370F8BD218A2D0645EA0125054336
:1034C0002046FFF71DFE0246E5E76FF00300F1E737
:1034D0006FF00100EEE7000070B58AB004461646B2
:1034E0000021282268461D46FEF750F9BDF8383005
:1034F000ADF810300F9B05939DF840308DF81830D3
:10350000119B07936946BDF84830ADF8203020463E
:10351000CDE90265FFF79CFF0AB070BD2DE9F041CF
:10352000D36905460C4616460BB9138C5BBB377E38
:103530001F2F28D895F80080B8F1000F26D030460C
:10354000FFF7DEFD3378210241EAC33141EA080189
:10355000338A41EA076141EA03410246334641F0BA
:1035600080012846FFF798FE00280ADD3378012BFA
:1035700007D1726913780133DBB21F2B88BF002398
:103580001370BDE8F0816FF00100FAE76FF00300FF
:10359000F7E70000F0B58BB004460D461746002152
:1035A000282268461E46FEF7F1F89DF84C305A1E58
:1035B000534253418DF800309DF84030ADF8103043
:1035C000119B05939DF848308DF81830149B079394
:1035D0006A46BDF85430ADF8203029462046CDE982
:1035E0000276FFF79BFF0BB0F0BD0000406A00B110
:1035F00004307047436A1A68426202691A600361C4
:10360000C38A013BC38270472DE9F041D0F8208086
:10361000194E14461D464146002709B9BDE8F08100
:10362000D1E90223A21A65EB0303964277EB030369
:103630001ED2036A8B420DD1FFF78CFD036A1B6813
:10364000036203690B60C38A0161016A013BC382A3
:103650008846E2E7FFF77EFD0B68C8F80030036993
:103660000B60C38A0161013BC382D8F80010D4E724
:1036700088460968D1E700BF80841E002DE9F04F1D
:103680008BB00D46DDF8509014469B4680460028CE
:1036900000F01981B9F1000F00F01581531E3F2B86
:1036A00000F21181012A03D1BBF1000F40F00B8120
:1036B0000023CDE90833B8F81430B5EBC30F4FEA57
:1036C000C30703D300200BB0BDE8F08F2B199F4236
:1036D000D8F80C303ABF7F1BFFB227461BB9D8F889
:1036E0001030002B7AD0272D4ED8C5F12806B742CE
:1036F0004FF000032CBFF6B23E4600932946D8F89F
:10370000080008AB3246FFF741FCA7EB060A354438
:103710005FFA8AFAB8F8143003F10053053BDB0076
:103720000493D8F80C3003932821039B13B1BAF10A
:10373000000F2CD1D8F8100040B1BAF1000F05D01D
:10374000009608AB5246691AFFF720FC38B2002FEA
:10375000B8D066070AD00AAB03EBD401624211F875
:10376000083C02F00702134101F8083C082C3CD940
:10377000102C40F2B580202C40F2B780BBF1000F36
:1037800000F09C80082334E0BA460026C2E7049B80
:10379000E02B28BFE02306930B44AB42059314D9DA
:1037A0005A1B03980096924534BF5246D2B2691A0A
:1037B00008AB04300792FFF7E9FB079A1644AAEB1F
:1037C000020A1544F6B25FFA8AFA049B069A059932
:1037D0009B1A0493039B1B680393A6E70093D8F8F6
:1037E000080008AB3A462946AEE7BBF1000F13D0FC
:1037F0000123B4EBC30F6CD0082C12D89DF82030F5
:10380000621E23FA02F2D50706D54FF0FF3202FA04
:1038100004F423438DF820309DF8203089F80030DF
:1038200051E7102C12D8BDF82030621E23FA02F2A4
:10383000D10706D54FF0FF3202FA04F42343ADF866
:103840002030BDF82030A9F800303CE7202C0FD8FC
:103850000899631E21FA03F3DA0705D54FF0FF320A
:1038600002FA04F40C430894089BC9F800302AE7D4
:10387000402C2BD0DDE90865611EC4F12102A4F1C2
:10388000210326FA01F105FA02F225FA03F31143A6
:103890001943CB0712D50122A4F12003C4F1200162
:1038A00002FA03F322FA01F1A240524243EA010371
:1038B00063EB430332432B43CDE90823DDE90823BF
:1038C000C9E90023FFE66FF00100FCE66FF0080095
:1038D000F9E6082CA0D9102CB3D9202CEED8C3E7D8
:1038E000BBF1000FADD0022383E7BBF1000FBBD0CB
:1038F00004237EE730B5012A144638BF0124402C4A
:1039000085B028BF40240025012ACDE9025518D8EA
:103910001B788DF8083063070AD004AB03EBD4059D
:10392000624215F8083C02F00702934005F8083C93
:10393000009103462246002102A8FFF727FB05B0AD
:1039400030BD082AE4D9102A03D81B88ADF8083006
:10395000E1E7202A8DBFD3E900231B680293CDE95C
:103960000223D8E710B5CB681BB98B600B618B8243
:1039700010BD04691A681C600361C38A013BC382DD
:10398000CA60F0E703064CBFC0F3C03002207047A6
:1039900008B50246FFF7F6FF022806D15306C2F328
:1039A0000F2001D100F0030008BDC2F30740FBE780
:1039B0002DE9F04F93B0CDE903230A680446104681
:1039C000FFF7E0FF022814BFC2F306260026002AF4
:1039D0000D46824680F2F28112F0C04940F0EE813D
:1039E000097B002900F0EA81022803D02378B34242
:1039F00040F0E781C2F304630693104602F07F03B0
:103A00000593FFF7C5FF059B29444FEA834848EA21
:103A10000A4848EA4668CE7800230022CDE9082308
:103A2000F309834648EA0008029367D0059B009398
:103A300002466768534608A92046B847002800F0A8
:103A4000C381276A4FB9414604F10C00FFF702FB1E
:103A5000074690B96FF0020054E03B6998450DD0DD
:103A60003F68002FF9D1414604F10C00FFF7F2FA4C
:103A700007460028EED0236A3B60276297F817C0FC
:103A800006F01F08CCF3840CACEB08001FFA80FE94
:103A90000028B8BF0EF12000A8EB0C031FFA83FE2C
:103AA000D7E90221B8BF00B2002B0793BEBF0EF1C9
:103AB00020031BB2079352EA010338D0039BDFF8BF
:103AC00024E39A1A049B4FF0000C63EB0101964526
:103AD0007CEB01032BD36B7B97F81AE0734519D16C
:103AE000029B002B78D0012821DC7868F8B9DFF838
:103AF000F0C2944570EB010316D337E0276A27B96B
:103B00006FF00C0013B0BDE8F08F3B699845B5D05D
:103B10003F68F4E7B24890427CEB010301D30020F8
:103B2000F0E7029B002BFAD0079B0F2B17DCFA7DE6
:103B3000B30002F0030203F07C031343FB75394624
:103B40002046FFF707FB6B7BBB76029B3BB9FB7DF7
:103B5000C3F38402013262F38603FB75D0E76A7B0C
:103B6000BB7E9A42DBD1029B002B35D0B309022BDE
:103B700032D0039BBB60049BFB60142200210DA884
:103B8000FDF704FE039B0A93049B0B932B1D0C93E0
:103B90002B7BADF83EB0013BDBB2ADF83C30069B71
:103BA0008DF84230059B8DF8433094F82C308DF819
:103BB00040A083F001038DF844308DF84180A36864
:103BC0000AA920469847FB7DC3F38403013303F021
:103BD0001F039B02FB82A2E7FB7DC6F34012B2EB00
:103BE000D31F40F0F480C3F38403434540F0F280D8
:103BF000029A2B7BB609002A4DD0F2075DD4032B25
:103C000040F2EB80039BBB60049BFB602B7BAE1DF3
:103C1000033BDBB23246394604F10C00FFF7ACFA45
:103C200000280CDA39462046FFF794FAFB7DC3F3EF
:103C30008403013303F01F039B02FB820AE7DDE9E3
:103C40000884AB883B834FF6FF73C9F12000A9F1CC
:103C5000200228FA09F104FA00F0014324FA02F2E2
:103C600011431846C9B2FFF7C9F909F10809B9F1BA
:103C7000400F0346E9D1B8822A7B033AD2B23146DB
:103C8000FFF7CEF9FB7DB882DA43C2F3C01262F3CC
:103C9000C713FB7543E786B92E1D013BDBB23246E5
:103CA000394604F10C00FFF767FA0028BADB2A7BDB
:103CB000B88A013AD2B23146E2E7F98AC1F3090182
:103CC000013B0429DAB25BD8281D002307F11B064B
:103CD0009A4208D910F801CB06F801C0013101332E
:103CE0000529DBB2F4D103990A9104990B9193420F
:103CF00007F11B010C9138BF043379680D9134BF73
:103D000055FA83F300230E93FB8AADF83EB0C3F35C
:103D100009031A44069B8DF84230059B8DF8433009
:103D200094F82C30ADF83C2083F001038DF844303A
:103D300000238DF840A08DF841807B602A7BB88AF3
:103D4000013A291DFFF76CF93B8BB882834203D1FE
:103D5000A3680AA92046984720460AA9FFF702FE51
:103D6000FB7DBA8AC3F38403013303F01F039B0274
:103D7000FB823B8B9A420CBF00206FF01000C1E623
:103D80007B68002BAFD0052001E01C3033461E6855
:103D9000002EFAD1091A081D2E1D184401EB090C3A
:103DA000BCF11B0F5FFA89F39DD89A429BD916F894
:103DB000013B00F8013B09F10109EFE76FF0090051
:103DC000A0E66FF00A009DE66FF00B009AE66FF038
:103DD0000D0097E66FF00E0094E66FF00F0091E68D
:103DE00040420F0080841E00EFF3098305494A6BAF
:103DF00022F001024A63683383F30988002383F3C6
:103E00001188704700EF00E0302080F3118862B61F
:103E10000C4B0D4AD96821F4E0610904090C0A43EE
:103E2000DA60D3F8FC20094942F08072C3F8FC2024
:103E30000A6842F001020A602022DA7783F8220041
:103E4000704700BF00ED00E00003FA05001000E03D
:103E500010B5302383F311880E4B5B6813F40063B5
:103E600014D0F1EE103AEFF30984683C4FF0807300
:103E7000E361094BDB6B236684F3098800F098FD4E
:103E800010B1064BA36110BD054BFBE783F311880E
:103E9000F9E700BF00ED00E000EF00E03F0300089D
:103EA00042030008026843681143016003B11847E8
:103EB00070470000024A136843F0C0031360704764
:103EC0000044004013B50F4C204600F0D7FC04F12D
:103ED00014000D49009400234FF4807200F094FB0D
:103EE0000A490B4B00944FF4807204F1380000F043
:103EF0000DFC084BE365002000F0F4F9206602B0E9
:103F000010BD00BF38640020A4640020A465002018
:103F1000B53E00080044004030B5037C214C002928
:103F200018BF0C46012B0CD11F4B984209D11F4BD7
:103F30009A6D42F400329A659A6F42F400329A67A1
:103F40009B6F2268036EC16D846603EB5203B3FB63
:103F5000F2F36268150442BF23F0070503F007037C
:103F600043EA4503CB60A36843F040034B60E3683A
:103F700043F001038B6042F4967343F001030B603E
:103F80004FF0FF330B62510505D512F0102205D01A
:103F9000B2F1805F04D080F8643030BD7F23FAE74F
:103FA0003F23F8E7A05500083864002000100240C5
:103FB0002DE9F047C66D3768F4693462210705467C
:103FC00019D014F0080118BF4FF48071E20748BF00
:103FD00041F02001A30748BF41F04001600748BFFE
:103FE00041F08001302383F31188281DFFF75AFF29
:103FF000002383F31188E2050AD5302383F3118867
:104000004FF48061281DFFF74DFF002383F31188D3
:104010004FF030094FF0000A14F0200838D13B0669
:1040200016D54FF0300905F1380A200610D589F36E
:104030001188504600F09EFB002836DA0821281D22
:10404000FFF730FF27F080033360002383F31188EC
:10405000790614D5620612D5302383F31188D5E989
:1040600013239A4208D12B6C33B11021281D27F05D
:104070004007FFF717FF3760002383F31188E3063B
:1040800018D5AA6E1369ABB1BDE8F047506918475F
:1040900089F31188736A95F864102846194000F076
:1040A00007FC8AF31188F469B6E7B06288F31188D7
:1040B000F469BAE7BDE8F087434B4FF4007270B57E
:1040C0001A605A6912F4C06FFBD1404B9A6802F033
:1040D0000C02042A20D01A6842F480721A601A680E
:1040E0005205FCD501229A609A6802F00C02042A5B
:1040F000FAD13749374A0A600A6812F00F02FBD139
:10410000C3F8982063221A601A689603FCD42E4ADA
:104110004FF48071C2F88010C468E50306D51A68B0
:1041200042F480321A601A689103FCD5C269D20742
:1041300009D5D3F8982042F00102C3F89820D3F8AB
:1041400098209607FBD54269DA6044F480721A60C1
:1041500004F0807111B11A689501FBD59968026964
:104160001B4E22F0030501F0030129439960856984
:104170003560316869400907FBD1134905680D6056
:1041800046684E608068C1F880006E0417D44869A4
:104190008505FCD4996802F0030021F00301014376
:1041A000996092009968514011F00C0FFAD1E20524
:1041B0005EBF1A6822F480721A60002070BD4869E0
:1041C0008005FCD5E6E700BF00700040001002400B
:1041D000002002400006040008B500F091F9BDE897
:1041E000084000F065B9000010B5394C3948A36AA1
:1041F0004FF0FF32A262A36A0023A362A16AE16AC0
:1042000061F07F01E162E16A01F07F01E162E16A50
:10421000216B2263216B2363216BA16BA263A16BD2
:10422000A363A16BE16BE263E16BE363E16B216C80
:104230002264226C2364226C226E42F00102226608
:10424000D4F8802022F00102C4F88020D4F8802025
:10425000A26D42F08052A265A26F22F08052A26746
:10426000A26F1D4A4FF400419160D3601362536204
:104270009362D362136353639363D363136453648E
:104280009364D36413655365116841F480711160C0
:10429000D4F8902012F4407F1EBF4FF48032C4F84F
:1042A0009020C4F890300D4A0023A360C4F8882001
:1042B000C4F89C30FFF700FF10B1094800F0AEFBD6
:1042C000D4F8903023F00323C4F8903010BD00BF21
:1042D00000100240C0550008007000405501005118
:1042E000B8550008014B53F82000704728230020E0
:1042F000074A08B5536903F00103536123B1054A26
:1043000013680BB150689847BDE80840FFF7A0BD9F
:104310000004014034690020074A08B5536903F0DE
:104320000203536123B1054A93680BB1D0689847E3
:10433000BDE80840FFF78CBD00040140346900204F
:10434000074A08B5536903F00403536123B1054AD2
:1043500013690BB150699847BDE80840FFF778BD75
:104360000004014034690020074A08B5536903F08E
:104370000803536123B1054A93690BB1D06998478B
:10438000BDE80840FFF764BD000401403469002027
:10439000074A08B5536903F01003536123B1054A76
:1043A000136A0BB1506A9847BDE80840FFF750BD4B
:1043B0000004014034690020164B10B55C6904F418
:1043C00078725A61A30604D5134A936A0BB1D06A76
:1043D0009847600604D5104A136B0BB1506B984791
:1043E000210604D50C4A936B0BB1D06B9847E205BC
:1043F00004D5094A136C0BB1506C9847A30504D53A
:10440000054A936C0BB1D06C9847BDE81040FFF79C
:104410001FBD00BF0004014034690020194B10B5D6
:104420005C6904F47C425A61620504D5164A136D36
:104430000BB1506D9847230504D5134A936D0BB10A
:10444000D06D9847E00404D50F4A136E0BB1506E3F
:104450009847A10404D50C4A936E0BB1D06E9847CF
:10446000620404D5084A136F0BB1506F98472304B8
:1044700004D5054A936F0BB1D06F9847BDE8104043
:10448000FFF7E6BC000401403469002008B503488A
:10449000FFF78EFDBDE80840FFF7DABC3864002066
:1044A00008B500F0DBFEBDE80840FFF7D1BC000016
:1044B000062108B5084600F037F80621072000F06D
:1044C00033F80621082000F02FF80621092000F01B
:1044D0002BF806210A2000F027F80621172000F00B
:1044E00023F80621282000F01FF807211C2000F0E7
:1044F0001BF8BDE808400C21262000F015B800008C
:104500004FF0E023002258684FF0FF31930003F191
:10451000604303F5614301329042C3F88010C3F851
:104520008011F3D27047000000F1604303F561434E
:104530000901C9B283F80013012200F01F039A4059
:1045400043099B0003F1604303F56143C3F88021F5
:104550001A607047F8B5154682680669AA420B468C
:10456000816938BF8568761AB54204460BD2184671
:104570002A46FDF7F9F8A3692B44A361A3685B1BE6
:10458000A3602846F8BD0CD918463246FDF7ECF872
:10459000AF1BE1683A463044FDF7E6F8E3683B4478
:1045A000EBE718462A46FDF7DFF8E368E5E7000089
:1045B00083689342F7B51546044638BF8568D0E94D
:1045C0000460361AB5420BD22A46FDF7CDF863696E
:1045D0002B446361A36828465B1BA36003B0F0BD56
:1045E0000DD932460191FDF7BFF80199E068AF1B84
:1045F0003A463144FDF7B8F8E3683B44E9E72A4618
:10460000FDF7B2F8E368E4E710B50A440024C3619B
:10461000029B8460C0E90000C0E90511C16002612D
:10462000036210BD08B5D0E90532934201D182681A
:1046300082B98268013282605A1C42611970D0E9E5
:1046400004329A4224BFC3684361002100F052FA49
:10465000002008BD4FF0FF30FBE7000070B53023AD
:1046600004460E4683F31188A568A5B1A368A26924
:10467000013BA360531CA36115782269934224BFB8
:10468000E368A361E3690BB120469847002383F3F5
:104690001188284607E03146204600F01BFA002822
:1046A000E2DA85F3118870BD2DE9F74F04460E4616
:1046B00017469846D0F81C904FF0300A8AF31188BC
:1046C0004FF0000B154665B12A4631462046FFF7EC
:1046D00041FF034660B94146204600F0FBF900283F
:1046E000F1D0002383F31188781B03B0BDE8F08F6D
:1046F000B9F1000F03D001902046C847019B8BF30E
:104700001188ED1A1E448AF31188DCE7C0E905110F
:10471000C160C3611144009B8260C0E90000016177
:1047200003627047F8B504460D461646302383F3FE
:104730001188A768A7B1A368013BA36063695A1CED
:1047400062611D70D4E904329A4224BFE368636158
:10475000E3690BB120469847002080F3118807E0F9
:104760003146204600F0B6F90028E2DA87F31188D6
:10477000F8BD0000D0E905239A4210B501D1826846
:104780007AB98268013282605A1C82611C7803699E
:104790009A4224BFC3688361002100F0ABF9204630
:1047A00010BD4FF0FF30FBE72DE9F74F04460E46F2
:1047B00017469846D0F81C904FF0300A8AF31188BB
:1047C0004FF0000B154665B12A4631462046FFF7EB
:1047D000EFFE034660B94146204600F07BF9002811
:1047E000F1D0002383F31188781B03B0BDE8F08F6C
:1047F000B9F1000F03D001902046C847019B8BF30D
:104800001188ED1A1E448AF31188DCE702684368B8
:104810001143016003B11847704700001430FFF7DF
:1048200043BF00004FF0FF331430FFF73DBF0000DF
:104830003830FFF7B9BF00004FF0FF333830FFF7D3
:10484000B3BF00001430FFF709BF00004FF0FF3185
:104850001430FFF703BF00003830FFF763BF0000DC
:104860004FF0FF323830FFF75DBF0000012914BF61
:104870006FF0130000207047FFF724BB044B036068
:104880000023C0E90233436001230374704700BF73
:10489000E055000810B53023044683F31188FFF774
:1048A0003BFB02232374002080F3118810BD00001D
:1048B00038B5C36904460D461BB904210844FFF707
:1048C000A5FF294604F11400FFF7ACFE002806DA24
:1048D000201D4FF40061BDE83840FFF797BF38BD99
:1048E00000230375826803691B6899689142FBD2B3
:1048F0005A68036042601060586070470023037577
:10490000826803691B6899689142FBD85A68036002
:10491000426010605860704708B50846302383F342
:1049200011880B7D032B05D0042B0DD02BB983F3FD
:10493000118808BD8B6900221A604FF0FF33836134
:10494000FFF7CEFF0023F2E7D1E9003213605A608F
:10495000F3E70000FFF7C4BF054BD9680875186876
:1049600002681A60536001220275D860FBF7D2BC5E
:10497000A866002030B50C4BDD684B1C87B00446A0
:104980000FD02B46094A684600F046F92046FFF74B
:10499000E3FF009B13B1684600F048F9A86907B02F
:1049A00030BDFFF7D9FFF9E7A866002019490008D4
:1049B000044B1A68DB6890689B68984294BF00209B
:1049C00001207047A8660020084B10B51C68D86805
:1049D00022681A60536001222275DC60FFF78EFFA7
:1049E00001462046BDE81040FBF794BCA8660020B5
:1049F00038B5074C07490848012300252370656036
:104A000000F05AFC0223237085F3118838BD00BFE3
:104A1000106900200C560008A866002008B572B680
:104A2000044B186500F0CAFA00F07AFB024B03222F
:104A30001A70FEE7A86600201069002000F02CB96B
:104A40008B60022308618B82084670478368A3F15C
:104A5000840243F8142C026943F8442C426943F859
:104A6000402C094A43F8242CC26843F8182C02222F
:104A700003F80C2C002203F80B2C044A43F8102CEA
:104A8000A3F12000704700BF2D030008A866002096
:104A900008B5FFF7DBFFBDE80840FFF75BBF00008C
:104AA000024BDB6898610F20FFF756BFA866002015
:104AB000302383F31188FFF7F3BF000008B50146E8
:104AC000302383F311880820FFF754FF002383F37A
:104AD000118808BD064BDB6839B1426818605A601E
:104AE000136043600420FFF745BF4FF0FF3070476D
:104AF000A86600200368984206D01A6802605060D9
:104B000099611846FFF726BF7047000010B503688B
:104B10009C68A2420CD85C688A600B604C60216083
:104B2000596099688A1A9A604FF0FF33836010BD0C
:104B30001B68121BECE700000A2938BF0A2170B578
:104B400004460D460A26601900F0B0FB00F09CFBFD
:104B5000041BA54203D8751C2E460446F3E70A2E13
:104B600004D9BDE87040012000F0E6BB70BD000034
:104B7000F8B5144B0D46D96103F1100141600A2AC2
:104B80001969826038BF0A22016048601861A8185C
:104B9000144600F07DFB0A2700F076FB431BA3427E
:104BA000064606D37C1C281900F080FB27463546B4
:104BB000F2E70A2F04D9BDE8F840012000F0BCBBA1
:104BC000F8BD00BFA8660020F8B506460D4600F007
:104BD0005BFB0F4A134653F8107F9F4206D12A46CB
:104BE00001463046BDE8F840FFF7C2BFD169BB6857
:104BF000441A2C1928BF2C46A34202D92946FFF794
:104C00009BFF224631460348BDE8F840FFF77EBFD0
:104C1000A8660020B866002010B4C0E90323002372
:104C20005DF8044B4361FFF7CFBF000010B5194C8E
:104C3000236998420DD0D0E90032816813605A6030
:104C40009A680A449A60002303604FF0FF33A3611F
:104C500010BD2346026843F8102F53600022026003
:104C600022699A4203D1BDE8104000F019BB936855
:104C700081680B44936000F007FB2269E169926848
:104C8000441AA242E4D91144BDE81040091AFFF7C2
:104C900053BF00BFA86600202DE9F047DFF8BC80B5
:104CA00008F110072C4ED8F8105000F0EDFAD8F8A3
:104CB0001C40AA68031B9A423ED81444D5E900322E
:104CC0004FF00009C8F81C4013605A60C5F8009006
:104CD000D8F81030B34201D100F0E2FA89F311881C
:104CE000D5E9033128469847302383F311886B694F
:104CF000002BD8D000F0C8FA6A69A0EB04094A4535
:104D000082460DD2022000F017FB0022D8F81030A6
:104D1000B34208D151462846BDE8F047FFF728BF07
:104D2000121A2244F2E712EB090938BF4A46294613
:104D30003846FFF7EBFEB5E7D8F81030B34208D09D
:104D40001444211AC8F81C00A960BDE8F047FFF719
:104D5000F3BEBDE8F08700BFB8660020A86600205B
:104D600038B500F091FA054AD2E90845031B181935
:104D700045F10001C2E9080138BD00BFA866002066
:104D800000207047FEE70000704700004FF0FF3042
:104D900070470000BFF34F8F024A1369DB03FCD456
:104DA000704700BF0020024008B5094B1B7873B95B
:104DB000FFF7F0FF074B5A69002ABFBF064A9A6007
:104DC00002F188329A601A6822F480621A6008BD83
:104DD00028690020002002402301674508B50B4BDD
:104DE0001B7893B9FFF7D6FF094B5A6942F000428E
:104DF0005A611A6842F480521A601A6822F480528A
:104E00001A601A6842F480621A6008BD286900209E
:104E100000200240FF289ABF00F58030C002002029
:104E2000704700004FF40060704700004FF480703E
:104E300070470000FF2808B50BD8FFF7EBFF00F51F
:104E400000630268013204D104308342F9D10120A9
:104E500008BD0020FCE70000FF2810B504461FD85D
:104E6000FFF798FFFFF7A0FF0E4BF3221A61022213
:104E70005A615A6942EAC0025A615A6942F4803260
:104E80005A61FFF787FF4FF40061FFF7C3FF00F09F
:104E900043F9FFF7A3FF2046BDE81040FFF7CABF64
:104EA000002010BD002002402DE9F84340EA020333
:104EB00013F00703144606D0304B40F241321A601B
:104EC0000020BDE8F88385182D4A95420CD92B4A5D
:104ED00040F246311160F3E7031D1B684A689342B4
:104EE00008D1083C08300831072C14D902680B6837
:104EF0009A42F1D0FFF758FFFFF74CFF214E0831DF
:104F00004FF001084FF00009012CA1F1080706D865
:104F1000FFF764FF01E0002CECD10120D1E7C6F8D7
:104F20001480054651F8083C45F8043B51F8043C10
:104F30004360FFF72FFF336943F001033361C6F885
:104F40001490026851F8083C9A420CD00B4B40F286
:104F50006E321A600C4B18600C4B1C600C4B1F60BF
:104F6000FFF73CFFACE72D6851F8043C9D4201F18E
:104F70000801EBD1083C0830C6E700BF24690020D7
:104F80000000080800200240186900202069002065
:104F90001C690020084908B50B7828B11BB9FFF738
:104FA00003FF01230B7008BD002BFCD0BDE80840B7
:104FB0000870FFF713BF00BF2869002008B5064935
:104FC000064800F0ABF8BDE808404FF400414FF050
:104FD000805000F0A3B800BF007F01000001002056
:104FE000084600F037BA000038B5EFF311859DB9D7
:104FF000EFF30584C4F30804302334B183F311883C
:10500000FFF7AEFE85F3118838BD83F31188FFF7F3
:10501000A7FE84F3118838BDBDE83840FFF7A0BE75
:1050200038B5FFF7E1FF114C114AC00840EA417062
:10503000A0FB025EC908A0FB040C1CEB050CA1FB45
:1050400004404FF000035B41A1FB02121CEB040C77
:1050500043EB000011EB0E0142F10002411842F156
:105060000000090941EA007038BD00BFCFF753E3E3
:10507000A59BC4200244D2B2904200D17047431C89
:10508000800000F1804000F51450006841F8040BE6
:10509000D8B2F1E7124B10B5D3F89040240409D4EC
:1050A000D3F89040C3F89040D3F8904044F40044C3
:1050B000C3F890400B4C2368024443F48073236090
:1050C000D2B2904200D110BD431C800000F180405C
:1050D00000F5145051F8044B0460D8B2F1E700BF5A
:1050E000001002400070004007B5012201A9002015
:1050F000FFF7C0FF019803B05DF804FB13B5044649
:10510000FFF7F2FFA04205D0012201A9002001947F
:10511000FFF7C0FF02B010BD7047000070470000ED
:1051200070470000074B45F255521A6002225A6040
:1051300040F6FF729A604CF6CC421A60024B012294
:105140001A7070470030004030690020034B1B7814
:105150001BB1034B4AF6AA221A607047306900203F
:1051600000300040054B1A6832B902F1804202F566
:105170000432D2F894201A60704700BF2C690020D6
:10518000024B4FF40002C3F8942070470010024015
:1051900008B5FFF7E7FF024B1868C0F3407008BD81
:1051A0002C69002070470000FEE700000A4B0B4806
:1051B0000B4A90420BD30B4BDA1C121AC11E22F081
:1051C00003028B4238BF00220021FCF7DFBA53F8FC
:1051D000041B40F8041BECE79C570008B46900204E
:1051E000B4690020B46900200023054A1946013340
:1051F000102BC2E9001102F10802F8D1704700BF7C
:105200003469002008B5124B9A6D42F001029A658C
:105210009A6F42F001029A670E4A9B6F936843F0BF
:10522000010393600620FFF75DF80B4BB0FBF3F032
:105230004FF080434FF0FF3201389862DA6200226B
:105240009A615A63DA605A6001225A611A6008BD95
:1052500000100240002004E040420F004FF0804266
:1052600008B51169D3680B40D9B2C9439B071161D6
:1052700007D5302383F31188FFF7E0FB002383F386
:10528000118808BDFFF7BEBF4FF08043586A7047D2
:105290004FF08043002258631A610222DA6070479F
:1052A0004FF080430022DA60704700004FF08043E7
:1052B00058637047FEE7000070B51B4B0163002583
:1052C000044686B0586085620E46FEF79DFD04F1E7
:1052D0001003C4E904334FF0FF33C4E90635C4E9D1
:1052E0000044A560E562FFF7CFFF2B460246C4E904
:1052F000082304F134010D4A256580232046FFF779
:105300009FFB0123E0600A4A0375009272680192D4
:10531000B268CDE90223074B6846CDE90435FFF7B3
:10532000B7FB06B070BD00BF10690020185600081A
:105330001D560008B5520008024AD36A1843D062CD
:10534000704700BFA86600204B6843608B6883608D
:10535000CB68C3600B6943614B6903628B6943622D
:105360000B6803607047000008B5204BDA6A42F012
:105370007F02DA62DA6A22F07F02DA62DA6ADA6CD3
:1053800042F07F02DA64DA6E42F07F02DA66184A8F
:10539000DB6E11464FF09040FFF7D6FF02F11C0183
:1053A00000F58060FFF7D0FF02F1380100F5806062
:1053B000FFF7CAFF02F1540100F58060FFF7C4FF58
:1053C00002F1700100F58060FFF7BEFF02F18C0171
:1053D00000F58060FFF7B8FF02F1A80100F58060DA
:1053E000FFF7B2FFBDE80840FEF7FEBE0010024026
:1053F0002456000808B500F009F8FFF7F9FABDE8EF
:105400000840FFF7AFBE00007047000008B5FEF788
:10541000E3FEFFF7E9FEFFF72FFAFFF7F5FFBDE820
:105420000840FFF72FBF00000B460146184600F06A
:1054300003B8000000F00EB810B5054C13462CB1AF
:105440000A4601460220AFF3008010BD2046FCE76B
:1054500000000000024B01461868FFF7C1BD00BF05
:105460005023002010B501390244904201D10020A0
:1054700005E0037811F8014FA34201D0181B10BDBD
:105480000130F2E72DE9F041A3B1C91A17780144C0
:10549000044603F1FF3C8C42204601D9002009E07C
:1054A0000578BD4204F10104F5D10CEB0405D618D2
:1054B000A54201D1BDE8F08115F8018D16F801ED86
:1054C000F045F5D0E7E70000034611F8012B03F89B
:1054D000012B002AF9D170476F72672E61726475D3
:1054E00070696C6F742E486F6C7962726F47345FAD
:1054F0004750530053544D333247343F3F00000070
:1055000040A2E4F1646891060041A3E5F265699266
:10551000070000004261642043414E4966616365B3
:1055200020696E6465782E00000100000001FF0014
:10553000006400400068004000000000000000001F
:1055400055250008E11F0008B92C0008512000086B
:10555000952000087D2200085D2000081920000821
:105560001D200008F51F0008DD1F00083922000873
:1055700001200008212E00080D2000080D2200083F
:1055800001040E05054B02020E05054B04010E0534
:10559000054B05010B04044B0801060303460000FC
:1055A0000096000000000000000000000000000065
:1055B0000000000000000000636C6B737763000064
:1055C00000030000000000000001000000000101D5
:1055D000030000001328310104070400010000004B
:1055E000000000003948000825480008614800080C
:1055F0004D4800085948000845480008314800084F
:105600001D4800086D480008633000000856000877
:1056100000670020106900206D61696E0069646C8C
:1056200065000000A000802A00000000AAAAAAAA23
:1056300050000024FFFF00000077000000900900E8
:105640000400005A00000000AAAAAA9A0400000060
:10565000FFBF0000000000000000990000111014BE
:1056600000000000AAAAAAA600010010FFDF0000A7
:10567000000000000000000000000000000000002A
:10568000AAAAAAAA00000000FFFF00000000000074
:10569000000000000000000000000000AAAAAAAA62
:1056A00000000000FFFF00000000000000000000FC
:1056B0000000000000000000AAAAAAAA0000000042
:1056C000FFFF0000000000000000000000000000DC
:1056D00000000000AAAAAAAA00000000FFFF000024
:1056E00000000000000000001D0400000000000099
:1056F0000070070000000000FE2A0100D204000034
:10570000FF0000003864002000000000F45400088E
:10571000006889096D8BB90200B4C4040068890966
:105720000068890900688909006889090068890991
:1057300000688909000000005423002000000000D8
:105740000000000000000000000000000000000059
:105750000000000000000000000000000000000049
:105760000000000000000000000000000000000039
:105770000000000000000000000000000000000029
:105780000000000000000000000000000000000019
:0C5790000000000000000000000000000D
:00000001FF
