:020000040800F2
:1000000000060020E1010008E3010008E301000808
:10001000E3010008E3010008E3010008E301000830
:10002000E3010008E3010008E30100086D2F000868
:10003000E3010008E3010008E3010008E301000810
:10004000E3010008E3010008E3010008E301000800
:10005000E3010008E3010008153200083D32000802
:10006000653200088D320008B5320008E30100084F
:10007000E3010008E3010008E3010008E3010008D0
:10008000E3010008E3010008E3010008E3010008C0
:10009000E3010008E3010008E3010008DD32000885
:1000A000E3010008E3010008E3010008E3010008A0
:1000B000B1330008E3010008E3010008E301000890
:1000C000E3010008E3010008E3010008E301000880
:1000D000E3010008E3010008E3010008E301000870
:1000E00041330008E3010008E3010008E3010008D0
:1000F000E3010008E3010008E3010008E301000850
:10010000E3010008E3010008E3010008E30100083F
:10011000E3010008E3010008E3010008E30100082F
:10012000E3010008E3010008E3010008E30100081F
:10013000E3010008E3010008E3010008E30100080F
:10014000E3010008E3010008E3010008212700089B
:10015000E3010008E3010008E3010008E3010008EF
:10016000E3010008E3010008E3010008E3010008DF
:10017000E3010008E3010008E3010008E3010008CF
:10018000E3010008E3010008E3010008E3010008BF
:10019000E3010008E3010008E3010008E3010008AF
:1001A000E3010008E3010008E3010008E30100089F
:1001B000E3010008E3010008E3010008E30100088F
:1001C000E3010008E3010008E3010008E30100087F
:1001D000E3010008E3010008E3010008E30100086F
:1001E00002E000F000F8FEE772B6374880F30888B6
:1001F000364880F3098836483649086040F20000E6
:10020000CCF200004EF63471CEF200010860BFF36C
:100210004F8FBFF36F8F40F20000C0F2F0004EF638
:100220008851CEF200010860BFF34F8FBFF36F8F8C
:100230004FF00000E1EE100A4EF63C71CEF20001E4
:100240000860062080F31488BFF36F8F01F030FF41
:1002500002F02AFE4FF055301F491B4A91423CBF25
:1002600041F8040BFAE71D49184A91423CBF41F896
:10027000040BFAE71A491B4A1B4B9A423EBF51F83E
:10028000040B42F8040BF8E700201849184A914281
:100290003CBF41F8040BFAE701F00EFF02F058FEF4
:1002A000144C154DAC4203DA54F8041B8847F9E7A7
:1002B00000F042F8114C124DAC4203DA54F8041B22
:1002C0008847F9E701F0F6BE000600200022002072
:1002D0000000000808ED00E00000002000060020FB
:1002E0007837000800220020402200204022002011
:1002F000602E0020E0010008E0010008E001000895
:10030000E00100082DE9F04F2DED108AC1F80CD066
:10031000C3689D46BDEC108ABDE8F08F002383F3CF
:1003200011882846A047002001F072FAFEE701F08C
:1003300001FA00DFFEE7000038B500F0BBFB01F07A
:1003400087FE054601F0AAFE0446C8B90E4B9D4241
:1003500018D001339D4218BF044641F2883504BFCE
:1003600001240025002001F07DFE0CB100F074F89E
:1003700000F000FD284600F0BFF800F06DF8F9E746
:100380000025EFE70546EDE7010007B008B500F0EE
:1003900063FBA0F120035842584108BD07B541F264
:1003A0001203022101A8ADF8043000F073FB03B082
:1003B0005DF804FB38B5302383F3118817480368D0
:1003C0000BB101F0F1FA164A144800234FF47A7188
:1003D00001F0E0FA002383F31188124C236813B173
:1003E0002368013B2360636813B16368013B63606A
:1003F0000D4D2B7833B963687BB9022000F024FCE3
:10040000322363602B78032B07D163682BB902205A
:1004100000F01AFC4FF47A73636038BD402200206C
:10042000B50300086023002058220020084B1870F4
:1004300003280CD8DFE800F008050208022000F0CD
:10044000F9BB022000F0ECBB024B00225A6070475F
:100450005822002060230020234B244A10B51C465C
:10046000196801313FD004339342F9D16268A24246
:1004700039D31F4B9B6803F1006303F540439A4255
:1004800031D2002000F030FB0220FFF7CFFF194BE4
:100490001A6C00221A64196E1A66196E596C5A6425
:1004A000596E5A665A6E5A6942F080025A615A6908
:1004B00022F080025A615A691A6942F000521A61A8
:1004C0001A6922F000521A611B6972B64FF0E023DC
:1004D0003021C3F8084DD4E9003281F311889D46DC
:1004E00083F30888104710BD00C0000820C0000832
:1004F00000220020003802402DE9F04F93B0AA4BB3
:1005000000902022FF210AA89D6800F0DDFBA74A89
:100510001378A3B9A648012103601170302383F337
:10052000118803680BB101F03FFAA24AA0480023EA
:100530004FF47A7101F02EFA002383F31188009BA7
:1005400013B19D4B009A1A609C4A009C1378032BB0
:100550001EBF00231370984A4FF0000A18BF536063
:10056000D3465646D146012000F064FB24B1924B9D
:100570001B68002B00F01182002000F06DFA039040
:10058000039B002BF2DB012000F04AFB039B213B85
:10059000162BE8D801A252F823F000BFF905000895
:1005A00021060008B5060008670500086705000871
:1005B000670500083F0700080F0900082908000820
:1005C0008B080008B3080008D90800086705000870
:1005D000EB080008670500085D0900089906000897
:1005E00067050008A109000805060008990600082B
:1005F000670500088B0800080220FFF7C7FE0028E7
:1006000040F0F581009B0221BAF1000F08BF1C46A3
:1006100005A841F21233ADF8143000F03BFAA2E71E
:100620004FF47A7000F018FA071EEBDB0220FFF798
:10063000ADFE0028E6D0013F052F00F2DA81DFE8A9
:1006400007F0030A0D10133605230593042105A8AE
:1006500000F020FA17E054480421F9E75848042133
:10066000F6E758480421F3E74FF01C08404600F035
:100670003DFA08F104080590042105A800F00AFAE3
:10068000B8F12C0FF2D1012000FA07F747EA0B0B63
:100690005FFA8BFB4FF0000900F062FB26B10BF014
:1006A0000B030B2B08BF0024FFF778FE5BE74648DF
:1006B0000421CDE7002EA5D00BF00B030B2BA1D10D
:1006C0000220FFF763FE074600289BD0012000F0C0
:1006D0000BFA0220FFF7AAFE00261FFA86F8404612
:1006E00000F012FA044690B10021404600F01CFAD6
:1006F00001360028F1D1BA46044641F21213022114
:1007000005A8ADF814303E4600F0C4F92BE70120EF
:10071000FFF78CFE2546244B9B68AB4207D9284641
:1007200000F0E4F9013040F067810435F3E7234B32
:1007300000251D70204BBA465D603E46ACE7002E9A
:100740003FF460AF0BF00B030B2B7FF45BAF022089
:10075000FFF76CFE322000F07FF9B0F10008FFF6E1
:1007600051AF18F003077FF44DAF0F4A926808EBC2
:10077000050393423FF646AFB8F5807F3FF742AF9F
:10078000124B0193B84523DD4FF47A7000F064F901
:100790000390039A002AFFF635AF019B039A03F8F2
:1007A000012B0137EDE700BF002200205C23002071
:1007B00040220020B50300086023002058220020BA
:1007C00004220020082200200C2200205C220020AD
:1007D000C820FFF7DBFD074600283FF413AF1F2DAD
:1007E00011D8C5F1200242450AAB25F0030028BF0D
:1007F000424683490192184400F040FA019A804829
:10080000FF2100F061FA4FEAA8037D490193C8F384
:100810008702284600F060FA064600283FF46DAFD4
:10082000019B05EB830537E70220FFF7AFFD0028AA
:100830003FF4E8AE00F0A4F900283FF4E3AE00274F
:10084000B846704B9B68BB4218D91F2F11D80A9B22
:1008500001330ED027F0030312AA134453F8203CAF
:1008600005934046042205A900F0AEFA04378046FD
:10087000E7E7384600F03AF90590F2E7CDF8148042
:10088000042105A800F006F906E70023642104A866
:10089000049300F0F5F800287FF4B4AE0220FFF7CF
:1008A00075FD00283FF4AEAE049800F051F90590B4
:1008B000E6E70023642104A8049300F0E1F800288F
:1008C0007FF4A0AE0220FFF761FD00283FF49AAE4E
:1008D000049800F04DF9EAE70220FFF757FD0028E1
:1008E0003FF490AE00F05CF9E1E70220FFF74EFD27
:1008F00000283FF487AE05A9142000F057F9042121
:100900000746049004A800F0C5F83946B9E732203C
:1009100000F0A2F8071EFFF675AEBB077FF472AEBB
:10092000384A926807EB090393423FF66BAE022008
:10093000FFF72CFD00283FF465AE27F003074F4476
:10094000B9453FF4A9AE484600F0D0F8042105901F
:1009500005A800F09FF809F10409F1E74FF47A7057
:10096000FFF714FD00283FF44DAE00F009F9002810
:1009700044D00A9B01330BD008220AA9002000F0C2
:10098000ABF900283AD02022FF210AA800F09CF9F8
:10099000FFF704FD1C4800F041FF13B0BDE8F08FE5
:1009A000002E3FF42FAE0BF00B030B2B7FF42AAE7F
:1009B0000023642105A8059300F062F8074600288B
:1009C0007FF420AE0220FFF7E1FC804600283FF4D0
:1009D00019AEFFF7E3FC41F2883000F01FFF0598E5
:1009E00000F0F0F9464600F0BBF93C46BBE5064690
:1009F00052E64FF0000905E6BA467EE637467CE649
:100A00005C22002000220020A086010070B50F4B60
:100A10001B780133DBB2012B0C4611D80C4D296831
:100A20004FF47A730E6AA2FB03320146224628462F
:100A3000B047844204D1074B00221A70012070BDD8
:100A40004FF4FA7000F0EAFE0020F8E710220020D0
:100A5000082600209423002007B500230246012128
:100A60000DF107008DF80730FFF7D0FF20B19DF89A
:100A7000070003B05DF804FB4FF0FF30F9E700001A
:100A80000A4608B50421FFF7C1FF80F00100C0B29B
:100A9000404208BD30B4054C2368DD69044B0A466A
:100AA000AC460146204630BC604700BF0826002007
:100AB000A086010070B501F0D1F9094E094D3080D2
:100AC000002428683388834208D901F0C1F92B68D3
:100AD00004440133B4F5404F2B60F2D370BD00BF26
:100AE000962300206823002001F066BA00F1006020
:100AF00000F540400068704700F10060920000F58A
:100B0000404001F0F1B90000054B1A68054B1B8805
:100B10009B1A834202D9104401F09AB90020704711
:100B2000682300209623002038B5084D044629B1DB
:100B300028682044BDE8384001F0AAB9286820445C
:100B400001F08EF90028F3D038BD00BF68230020E3
:100B500010F003030AD1B0F5047F05D200F1005074
:100B6000A0F51040D0F80038184670470023FBE786
:100B700000F10050A0F51040D0F8100A70470000B6
:100B8000064991F8243033B10023086A81F82430F3
:100B90000822FFF7B1BF0120704700BF6C2300207F
:100BA000014B1868704700BF002004E070B5194B76
:100BB0001D68194B0138C5F30B0408442D0C0422A1
:100BC0001E88A6420BD15C680A46013C824213464D
:100BD0000FD214F9016F4EB102F8016BF6E7013A3A
:100BE00003F10803ECD181420B4602D22C2203F818
:100BF000012B0A4A05241688AE4204D1984284BFCC
:100C0000967803F8016B013C02F10402F3D1581A03
:100C100070BD00BF002004E0943400088034000858
:100C2000022802BF024B4FF000729A61704700BF6A
:100C300000000240022802BF024B4FF400729A618A
:100C4000704700BF00000240022801BF024A5369FA
:100C500083F40073536170470000024070B504468E
:100C60004FF47A764CB1412C254628BF412506FB2E
:100C700005F000F0D3FD641BF4E770BD10B5002350
:100C8000934203D0CC5CC4540133F9E710BD00009B
:100C900010B5013810F9013F3BB191F900409C4279
:100CA00003D11AB10131013AF4E71AB191F90020E8
:100CB000981A10BD1046FCE703460246D01A12F9F6
:100CC000011B0029FAD1704702440346934202D027
:100CD00003F8011BFAE770472DE9F8431F4D14464E
:100CE00095F824200746884652BBDFF870909CB3E5
:100CF00095F824302BB92022FF2148462F62FFF7B8
:100D0000E3FF95F82400C0F10802A24228BF224662
:100D1000D6B24146920005EB8000FFF7AFFF95F891
:100D20002430A41B1E44F6B2082E17449044E4B2AB
:100D300085F82460DBD1FFF723FF0028D7D108E036
:100D40002B6A03EB82038342CFD0FFF719FF002801
:100D5000CBD10020BDE8F8830120FBE76C23002005
:100D6000024B1A78024B1A70704700BF9423002080
:100D70001022002010B5104C104800F0B5F82146A4
:100D80000E4800F0DDF82468626DD2F8043843F0B4
:100D90000203C2F804384FF47A70FFF75FFF084986
:100DA000204600F0D3F9626DD2F8043823F0020334
:100DB000C2F8043810BD00BF6035000808260020C6
:100DC000683500087047000030B5094D0A4491426B
:100DD0000DD011F8013B5840082340F30004013BBB
:100DE0002C4013F0FF0384EA5000F6D1EFE730BD4A
:100DF0002083B8ED026843681143016003B11847CE
:100E00007047000013B5446BD4F894341A68117815
:100E1000042915D1217C022912D1197912890123C3
:100E20008B4013420CD101A904F14C0001F0F8FEF3
:100E3000D4F89444019B21790246206800F0D0F94F
:100E400002B010BD143001F07BBE00004FF0FF3344
:100E5000143001F075BE00004C3001F04DBF0000B1
:100E60004FF0FF334C3001F047BF0000143001F069
:100E700049BE00004FF0FF31143001F043BE0000C6
:100E80004C3001F019BF00004FF0FF324C3001F040
:100E900013BF00000020704710B5D0F894341A68D2
:100EA00011780429044617D1017C022914D15979FB
:100EB000528901238B4013420ED1143001F0DCFD26
:100EC000024648B1D4F894444FF4807361792068A5
:100ED000BDE8104000F072B910BD0000406BFFF794
:100EE000DBBF0000704700007FB5124B036000239A
:100EF0004360C0E90233012502260F4B0574044606
:100F00000290019300F18402294600964FF4807309
:100F1000143001F08DFD094B0294CDE9006304F516
:100F200023724FF48073294604F14C0001F054FE03
:100F300004B070BDB4340008DD0E0008050E0008D2
:100F40000B68302282F311880A7903EB82029061E8
:100F50004A79093243F822008A7912B103EB8203FD
:100F600098610223C0F894140374002080F3118860
:100F70007047000038B5037F044613B190F8543031
:100F8000ABB9201D01250221FFF734FF04F1140045
:100F900025776FF0010100F069FC84F8545004F1EA
:100FA0004C006FF00101BDE8384000F05FBC38BD77
:100FB00010B5012104460430FFF71CFF00232377FE
:100FC00084F8543010BD000038B5044600251430B4
:100FD00001F046FD04F14C00257701F015FE201DBF
:100FE00084F854500121FFF705FF2046BDE8384042
:100FF000FFF752BF90F8443003F06003202B07D175
:1010000090F84520212A4FF0000303D81F2A06D864
:1010100000207047222AFBD1C0E90E3303E0034AC7
:1010200082630722C26303640120704711220020FB
:1010300037B5D0F894341A681178042904461AD1C7
:10104000017C022917D11979128901238B4013429F
:1010500011D100F14C05284601F096FE58B101A9C6
:10106000284601F0DDFDD4F89444019B2179024625
:10107000206800F0B5F803B030BD0000F0B500EB1B
:10108000810385B09E6904460D46FEB1302383F38B
:10109000118804EB8507301D0821FFF7ABFEFB68C4
:1010A0005B691B6806F14C001BB1019001F0C6FDA5
:1010B000019803A901F0B4FD024648B1039B2946FB
:1010C000204600F08DF8002383F3118805B0F0BDB1
:1010D000FB685A691268002AF5D01B8A013B13404D
:1010E000F1D104F14402EAE7093138B550F8214062
:1010F000DCB1302383F31188D4F894241368527937
:1011000003EB8203DB689B695D6845B104216018CD
:10111000FFF770FE294604F1140001F0B7FC2046E9
:10112000FFF7BAFE002383F3118838BD7047000033
:1011300001F016B8012303700023C0E90133C36135
:1011400083620362C36243620363704738B5044637
:10115000302383F311880025C0E90355C0E9055504
:10116000416001F00DF80223237085F311882846B1
:1011700038BD000070B500EB810305465069DA60A8
:101180000E46144618B110220021FFF79DFDA069FC
:1011900018B110220021FFF797FD31462846BDE81F
:1011A000704001F0B7B80000826802F0011282605E
:1011B0000022C0E90422826101F038B9F0B400EBEA
:1011C00081044789E4680125A4698D403D43458138
:1011D00023600023A2606360F0BC01F053B90000FB
:1011E000F0B400EB81040789E468012564698D404F
:1011F0003D43058123600023A2606360F0BC01F0E1
:10120000CDB9000070B50223002504460370C0E983
:101210000255C0E90455C564856180F8345001F079
:1012200015F863681B6823B129462046BDE8704065
:10123000184770BD0378052B10B504460AD080F816
:1012400050300523037043681B680BB10421984795
:101250000023A36010BD00000178052906D190F895
:101260005020436802701B6803B1184770470000A4
:1012700070B590F83430044613B1002380F8343050
:1012800004F14402204601F0F3F863689B68B3B9A7
:1012900094F8443013F0600535D00021204601F069
:1012A00093FB0021204601F085FB63681B6813B1A6
:1012B000062120469847062384F8343070BD204626
:1012C00098470028E4D0B4F84A30E26B9A4288BFCD
:1012D000E36394F94430E56B002B4FF0300380F268
:1012E0000381002D00F0F280092284F8342083F37A
:1012F00011880021D4E90E232046FFF771FF002357
:1013000083F31188DAE794F8452003F07F0343EA7A
:10131000022340F20232934200F0C58021D8B3F597
:10132000807F48D00DD8012B3FD0022B00F0938056
:10133000002BB2D104F14C02A2630222E2632364C7
:10134000C1E7B3F5817F00F09B80B3F5407FA4D166
:1013500094F84630012BA0D1B4F84C3043F002038E
:1013600032E0B3F5006F4DD017D8B3F5A06F31D090
:10137000A3F5C063012B90D8636894F846205E689B
:1013800094F84710B4F848302046B047002884D07D
:101390004368A3630368E3631AE0B3F5106F36D0C4
:1013A00040F6024293427FF478AF5C4BA363022382
:1013B000E3630023C3E794F84630012B7FF46DAF5D
:1013C000B4F84C3023F00203C4E90E55A4F84C30B5
:1013D000256478E7B4F84430B3F5A06F0ED194F8E3
:1013E000463084F84E30204600F088FF63681B6862
:1013F00013B1012120469847032323700023C4E939
:101400000E339CE704F14F03A3630123C3E7237862
:10141000042B10D1302383F311882046FFF7C4FE3C
:1014200085F311880321636884F84F5021701B688D
:101430000BB12046984794F84630002BDED084F854
:101440004F300423237063681B68002BD6D0022121
:1014500020469847D2E794F848301D0603F00F0164
:1014600020460AD500F0F6FF012804D002287FF4B8
:1014700014AF2B4B9AE72B4B98E700F0DDFFF3E717
:1014800094F84630002B7FF408AF94F8483013F0FE
:101490000F01B3D01A06204602D501F0A9FAADE734
:1014A00001F09CFAAAE794F84630002B7FF4F5AEE1
:1014B00094F8483013F00F01A0D01B06204602D547
:1014C00001F082FA9AE701F075FA97E7142284F89E
:1014D000342083F311882B462A4629462046FFF7FD
:1014E0006DFE85F31188E9E65DB1152284F834209C
:1014F00083F311880021D4E90E232046FFF75EFE16
:10150000FDE60B2284F8342083F311882B462A460B
:1015100029462046FFF764FEE3E700BFE4340008F5
:10152000DC340008E034000838B590F83430044664
:10153000002B3ED0063BDAB20F2A34D80F2B32D81C
:10154000DFE803F0373131082232313131313131C6
:1015500031313737C56BB0F84A309D4214D2C36879
:101560001B8AB5FBF3F203FB12556DB9302383F3ED
:1015700011882B462A462946FFF732FE85F311884B
:101580000A2384F834300EE0142384F834303023F6
:1015900083F3118800231A4619462046FFF70EFEF2
:1015A000002383F3118838BD036C03B198470023EF
:1015B000E7E70021204601F007FA0021204601F06C
:1015C000F9F963681B6813B1062120469847062382
:1015D000D7E7000010B590F83430142B044629D01A
:1015E00017D8062B05D001D81BB110BD093B022B23
:1015F000FBD80021204601F0E7F90021204601F048
:10160000D9F963681B6813B1062120469847062361
:1016100019E0152BE9D10B2380F83430302383F304
:10162000118800231A461946FFF7DAFD002383F3D9
:101630001188DAE7C3689B695B68002BD5D1036C1E
:1016400003B19847002384F83430CEE700230375B4
:10165000826803691B6899689142FBD25A680360EB
:101660004260106058607047002303758268036908
:101670001B6899689142FBD85A6803604260106009
:101680005860704708B50846302383F311880B7DF6
:10169000032B05D0042B0DD02BB983F3118808BD83
:1016A0008B6900221A604FF0FF338361FFF7CEFF92
:1016B0000023F2E7D1E9003213605A60F3E700003B
:1016C000FFF7C4BF054BD9680875186802681A602F
:1016D000536001220275D860FEF714BE98230020E3
:1016E00030B50C4BDD684B1C87B004460FD02B4641
:1016F000094A684600F04EF92046FFF7E3FF009BD9
:1017000013B1684600F050F9A86907B030BDFFF783
:10171000D9FFF9E79823002085160008044B1A68C2
:10172000DB6890689B68984294BF00200120704756
:1017300098230020084B10B51C68D86822681A60EE
:10174000536001222275DC60FFF78EFF01462046C0
:10175000BDE81040FEF7D6BD9823002038B5074CF1
:1017600007490848012300252370656001F044FB08
:101770000223237085F3118838BD00BF00260020A6
:10178000EC3400089823002000F044B9034A516863
:1017900053685B1A9842FBD8704700BF001000E006
:1017A0008B60022308618B82084670478368A3F12F
:1017B000840243F8142C026943F8442C426943F82C
:1017C000402C094A43F8242CC26843F8182C022202
:1017D00003F80C2C002203F80B2C044A43F8102CBD
:1017E000A3F12000704700BF1D03000898230020CC
:1017F00008B5FFF7DBFFBDE80840FFF761BF000059
:10180000024BDB6898610F20FFF75CBF9823002034
:10181000302383F31188FFF7F3BF000008B50146BA
:10182000302383F311880820FFF75AFF002383F346
:10183000118808BD064BDB6839B1426818605A60F0
:10184000136043600420FFF74BBF4FF0FF30704739
:10185000982300200368984206D01A6802605060FE
:1018600099611846FFF72CBF7047000038B5044651
:101870000D462068844200D138BD036823605C6057
:101880008561FFF71DFFF4E710B503689C68A2426D
:101890000CD85C688A600B604C6021605960996864
:1018A0008A1A9A604FF0FF33836010BD1B68121BC9
:1018B000ECE700000A2938BF0A2170B504460D463E
:1018C0000A26601901F092FA01F07EFA041BA54283
:1018D00003D8751C2E460446F3E70A2E04D9BDE84A
:1018E0007040012001F0C8BA70BD0000F8B5144B7B
:1018F0000D46D96103F1100141600A2A196982601D
:1019000038BF0A22016048601861A818144601F027
:101910005FFA0A2701F058FA431BA342064606D392
:101920007C1C281901F062FA27463546F2E70A2F97
:1019300004D9BDE8F840012001F09EBAF8BD00BF0F
:1019400098230020F8B506460D4601F03DFA0F4AEF
:10195000134653F8107F9F4206D12A46014630466F
:10196000BDE8F840FFF7C2BFD169BB68441A2C1923
:1019700028BF2C46A34202D92946FFF79BFF2246E7
:1019800031460348BDE8F840FFF77EBF98230020AA
:10199000A823002010B4C0E9032300235DF8044B02
:1019A0004361FFF7CFBF000010B5194C236998427F
:1019B0000DD0D0E90032816813605A609A680A44F9
:1019C0009A60002303604FF0FF33A36110BD2346EC
:1019D000026843F8102F53600022026022699A4285
:1019E00003D1BDE8104001F0FBB9936881680B4456
:1019F000936001F0E9F92269E1699268441AA24210
:101A0000E4D91144BDE81040091AFFF753BF00BFE5
:101A1000982300202DE9F047DFF8BC8008F110077B
:101A20002C4ED8F8105001F0CFF9D8F81C40AA6815
:101A3000031B9A423ED81444D5E900324FF0000906
:101A4000C8F81C4013605A60C5F80090D8F81030F0
:101A5000B34201D101F0C4F989F31188D5E903310A
:101A600028469847302383F311886B69002BD8D020
:101A700001F0AAF96A69A0EB04094A4582460DD231
:101A8000022001F0F9F90022D8F81030B34208D151
:101A900051462846BDE8F047FFF728BF121A2244F6
:101AA000F2E712EB090938BF4A4629463846FFF7E4
:101AB000EBFEB5E7D8F81030B34208D01444211A31
:101AC000C8F81C00A960BDE8F047FFF7F3BEBDE809
:101AD000F08700BFA8230020982300200020704733
:101AE000FEE70000704700004FF0FF307047000035
:101AF00002290CD0032904D00129074818BF00206F
:101B00007047032A05D8054800EBC2007047044817
:101B100070470020704700BFC43500082022002015
:101B20007835000870B59AB00546084601A91446F4
:101B300000F0C2F801A8FFF7BFF8431C5B00C5E93D
:101B400000340022237003236370C6B201AB023459
:101B50001046D1B28E4204F1020401D81AB070BD11
:101B600013F8011B04F8021C04F8010C0132F0E721
:101B700008B5302383F311880348FFF759FA00238F
:101B800083F3118808BD00BF0826002090F8443078
:101B900003F01F02012A07D190F845200B2A03D138
:101BA0000023C0E90E3315E003F06003202B08D1B9
:101BB000B0F848302BB990F84520212A03D81F2AC5
:101BC00004D8FFF717BA222AEBD0FAE7034A826358
:101BD0000722C26303640120704700BF182200205F
:101BE00007B5052917D8DFE801F0191603191920E0
:101BF000302383F31188104A01900121FFF7BAFACC
:101C000001980E4A0221FFF7B5FA0D48FFF7DCF9FB
:101C1000002383F3118803B05DF804FB302383F3C2
:101C200011880748FFF7A6F9F2E7302383F31188FC
:101C30000348FFF7BDF9EBE7183500083C3500080D
:101C40000826002038B50C4D0C4C0D492A4604F1ED
:101C50000800FFF767FF05F1CA0204F11000094907
:101C6000FFF760FF05F5CA7204F118000649BDE8E8
:101C70003840FFF757BF00BFD02A002020220020A5
:101C8000F8340008023500080D35000870B5044628
:101C900008460D46FFF710F8C6B220460134037817
:101CA0000BB9184670BD32462946FEF7F1FF0028F1
:101CB000F3D10120F6E700002DE9F84F05460C4668
:101CC000FEF7FAFF2B49C6B22846FFF7DFFF08B13F
:101CD0000536F6B228492846FFF7D8FF08B1103676
:101CE000F6B2632E0DD8DFF88C80DFF88C90234F8E
:101CF000DFF890A0DFF890B02E7846B92670BDE8E6
:101D0000F88F29462046BDE8F84F01F09BBB252EF1
:101D10002BD1072241462846FEF7BAFF58B9DBF817
:101D200000302360DBF804306360DBF80830A36028
:101D300007350C34E0E7082249462846FEF7A8FF9D
:101D400098B90F4BA21C197809090232C95D02F833
:101D5000041C13F8011B01F00F015345C95D02F883
:101D6000031CF0D118340835C6E704F8016B0135BF
:101D7000C2E700BFE43500080D350008F93500085A
:101D8000107AFF1F1C7AFF1FEC350008BFF34F8F3E
:101D9000024AD368DB03FCD4704700BF003C02401A
:101DA00008B5094B1B7873B9FFF7F0FF074B1A69A9
:101DB000002ABFBF064A5A6002F188325A601A6888
:101DC00022F480621A6008BD2E2D0020003C0240E3
:101DD0002301674508B50B4B1B7893B9FFF7D6FF76
:101DE000094B1A6942F000421A611A6842F48052A3
:101DF0001A601A6822F480521A601A6842F48062EB
:101E00001A6008BD2E2D0020003C02400B28F0B5C2
:101E100016D80C4C0C4923787BB90C4D0E460C237C
:101E20004FF0006255F8047B46F8042B013B13F099
:101E3000FF033A44F6D10123237051F82000F0BD8E
:101E40000020FCE7602D0020302D00200C3600081B
:101E5000014B53F8200070470C3600080C207047E7
:101E60000B2810B5044601D9002010BDFFF7CEFFA6
:101E7000064B53F824301844C21A0BB90120F4E77A
:101E800012680132F0D1043BF6E700BF0C360008BF
:101E90000B2810B5044621D8FFF778FFFFF780FF25
:101EA0000F4AF323D360C300DBB243F4007343F063
:101EB00002031361136943F480331361FFF766FF74
:101EC000FFF7A4FF074B53F8241000F0D9F8FFF7F1
:101ED00081FF2046BDE81040FFF7C2BF002010BDC3
:101EE000003C02400C360008F8B512F0010314461D
:101EF00042D18218B2F1016F57D82D4B1B6813F0F5
:101F0000010352D02B4DFFF74BFFF323EB60FFF79C
:101F10003DFF40F20127032C15D824F00104661878
:101F2000244C401A40F20117B142236900EB01052D
:101F300024D123F001032361FFF74CFF0120F8BDFA
:101F4000043C0430E7E78307E7D12B6923F44073AF
:101F50002B612B693B432B6151F8046B0660BFF387
:101F60004F8FFFF713FF03689E42E9D02B6923F0E0
:101F700001032B61FFF72EFF0020E0E723F44073FD
:101F8000236123693B4323610B882B80BFF34F8F71
:101F9000FFF7FCFE2D8831F8023BADB2AB42C3D057
:101FA000236923F001032361E4E71846C7E700BF74
:101FB00000380240003C0240084908B50B7828B1BF
:101FC0001BB9FFF7EDFE01230B7008BD002BFCD001
:101FD000BDE808400870FFF7FDBE00BF2E2D0020B1
:101FE00010B50244064BD2B2904200D110BD441C41
:101FF00000B253F8200041F8040BE0B2F4E700BF50
:10200000502800400F4B30B51C6F240407D41C6FC0
:1020100044F400741C671C6F44F400441C670A4CB1
:10202000236843F4807323600244084BD2B2904289
:1020300000D130BD441C00B251F8045B43F820507D
:10204000E0B2F4E700380240007000405028004041
:1020500007B5012201A90020FFF7C2FF019803B0D4
:102060005DF804FB13B50446FFF7F2FFA04205D06C
:10207000012201A900200194FFF7C4FF02B010BDA6
:1020800070470000034B1A681AB9034AD2F8742843
:102090001A607047642D00200030024008B5FFF739
:1020A000F1FF024B1868C0F3407008BD642D00209A
:1020B00070470000FEE700000A4B0B480B4A9042B5
:1020C0000BD30B4BDA1C121AC11E22F003028B42F7
:1020D00038BF00220021FEF7F7BD53F8041B40F87B
:1020E000041BECE7B8370008602E0020602E0020AB
:1020F000602E002070B5D0E915439E6800224FF095
:10210000FF3504EB42135101D3F800090028BEBF8C
:10211000D3F8000940F08040C3F80009D3F8000B61
:102120000028BEBFD3F8000B40F08040C3F8000B7E
:10213000013263189642C3F80859C3F8085BE0D22D
:102140004FF00113C4F81C3870BD0000890141F044
:102150002001016103699B06FCD41220FFF716BB26
:1021600010B5054C2046FEF7E5FF4FF0A043636530
:10217000024BA36510BD00BF682D0020603600082B
:1021800070B50378012B054650D12A4B446D984217
:102190001BD1294B5A6B42F080025A635A6D42F0B0
:1021A00080025A655A6D5A6942F080025A615A6932
:1021B00022F080025A610E2143205B6900F022FC6C
:1021C0001E4BE3601E4BC4F800380023C4F8003EE9
:1021D000C02323606E6D4FF40413A3633369002B97
:1021E000FCDA012333610C20FFF7D0FA3369DB07F7
:1021F000FCD41220FFF7CAFA3369002BFCDA002660
:10220000A6602846FFF776FF6B68C4F81068DB68A5
:10221000C4F81468C4F81C684BB90A4BA3614FF0AA
:10222000FF336361A36843F00103A36070BD064BF5
:10223000F4E700BF682D0020003802404014004041
:1022400003002002003C30C0083C30C0F8B5446DAB
:10225000054600212046FFF779FFA96D00234FF0C6
:1022600001128F68C4F834384FF00066C4F81C2897
:102270004FF0FF3004EB431201339F42C2F8006974
:10228000C2F8006BC2F80809C2F8080BF2D20B685A
:102290006A6DEB65636210231361166916F0100610
:1022A000FBD11220FFF772FAD4F8003823F4FE6352
:1022B000C4F80038A36943F4402343F01003A3613A
:1022C0000923C4F81038C4F814380A4BEB604FF0F7
:1022D000C043C4F8103B084BC4F8003BC4F8106975
:1022E000C4F80039EB6D03F1100243F48013EA6582
:1022F000A362F8BD3C36000840800010426D90F8A3
:102300004E10D2F8003823F4FE6343EA0113C2F8FA
:10231000003870472DE9F84300EB8103456DDA681A
:10232000166806F00306731E022B05EB41130C46DC
:1023300080460FFA81F94FEA41104FF00001C3F8CF
:10234000101B4FF0010104F1100398BFB60401FA0D
:1023500003F391698EBF334E06F1805606F50046B1
:1023600000293AD0578A04F15801490137436F5088
:10237000D5F81C180B43C5F81C382B180021C3F8DE
:10238000101953690127611EA7409BB3138A928BD2
:102390009B08012A88BF5343D8F85C20981842EA6A
:1023A000034301F1400205EB8202C8F85C002146BC
:1023B00053602846FFF7CAFE08EB8900C3681B8AF2
:1023C00043EA8453483464011E432E51D5F81C3827
:1023D0001F43C5F81C78BDE8F88305EB4917D7F80B
:1023E000001B21F40041C7F8001BD5F81C1821EA96
:1023F0000303C0E704F13F0305EB83030A4A5A6075
:1024000028462146FFF7A2FE05EB4910D0F8003917
:1024100023F40043C0F80039D5F81C3823EA070735
:10242000D7E700BF0080001000040002826D126830
:10243000C265FFF75FBE00005831436D49015B582C
:1024400013F4004004D013F4001F0CBF022001203D
:10245000704700004831436D49015B5813F4004058
:1024600004D013F4001F0CBF0220012070470000AD
:1024700000EB8101CB68196A0B6813604B685360ED
:102480007047000000EB810330B5DD68AA6913686E
:10249000D36019B9402B84BF402313606B8A146842
:1024A000426D1C44013CB4FBF3F46343033323F05B
:1024B000030302EB411043EAC44343F0C043C0F8B6
:1024C000103B2B6803F00303012B09B20ED1D2F8A5
:1024D000083802EB411013F4807FD0F8003B14BFA2
:1024E00043F0805343F00053C0F8003B02EB41122D
:1024F000D2F8003B43F00443C2F8003B30BD00007B
:102500002DE9F041244D6E6D06EB40130446D3F8DF
:10251000087BC3F8087B38070AD5D6F814381907A2
:1025200006D505EB84032146DB6828465B6898479F
:10253000FA071FD5D6F81438DB071BD505EB840343
:10254000D968CCB98B69488A5A68B2FBF0F600FBAF
:1025500016228AB91868DA6890420DD2121AC3E9B5
:102560000024302383F311880B482146FFF78AFFAC
:1025700084F31188BDE8F081012303FA04F26B892A
:1025800023EA02036B81CB68002BF3D0214602487B
:10259000BDE8F041184700BF682D002000EB810323
:1025A00070B5DD68436D6C692668E6604A0156BB0C
:1025B0001A444FF40020C2F810092A6802F00302FE
:1025C000012A0AB20ED1D3F8080803EB421410F422
:1025D000807FD4F8000914BF40F0805040F00050D4
:1025E000C4F8000903EB4212D2F8000940F004409D
:1025F000C2F80009D3F83408012202FA01F10143BC
:10260000C3F8341870BD19B9402E84BF4020206033
:1026100020682E8A8419013CB4FBF6F440EAC440D9
:1026200040F000501A44C6E72DE9F8433B4D6E6D6B
:1026300006EB40130446D3F80889C3F8088918F05C
:10264000010F4FEA40171AD0D6F81038DB0716D51D
:1026500005EB8003D9684B691868DA68904230D27C
:10266000121A4FF000091A60C3F80490302383F364
:10267000118821462846FFF791FF89F3118818F049
:10268000800F1CD0D6F834380126A640334216D02D
:1026900005EB84036D6DD3F80CC0DCF81420013415
:1026A000E4B2D2F800E005EB04342F4451687145E0
:1026B00015D3D5F8343823EA0606C5F83468BDE8E2
:1026C000F883012303FA04F22B8923EA02032B8106
:1026D0008B68002BD3D0214628469847CFE7BCF81B
:1026E0001000AEEB0103834228BF0346D7F8180958
:1026F00080B2B3EB800FE2D89068A0F1040959F8DA
:10270000048FC4F80080A0EB09089844B8F1040FC6
:10271000F5D818440B4490605360C7E7682D00203B
:102720002DE9F74FA24C656D6E69AB691E4016F43A
:1027300080586E6107D02046FEF764FD03B0BDE807
:10274000F04F00F047BC002E12DAD5F8003E984852
:102750009B071EBFD5F8003E23F00303C5F8003EDB
:10276000D5F8043823F00103C5F80438FEF774FDEA
:10277000370505D58E48FFF7BDFC8D48FEF75AFD9D
:10278000B0040CD5D5F8083813F0060FEB6823F425
:1027900070530CBF43F4105343F4A053EB60310764
:1027A0001BD56368DB681BB9AB6923F00803AB6119
:1027B0002378052B0CD1D5F8003E7D489A071EBF23
:1027C000D5F8003E23F00303C5F8003EFEF744FDB4
:1027D0006368DB680BB176489847F30274D4B7029C
:1027E00027D5D4F85490DFF8C8B100274FF0010A7C
:1027F00009EB4712D2F8003B03F44023B3F5802FD6
:1028000011D1D2F8003B002B0DDA62890AFA07F3E6
:1028100022EA0303638104EB8703DB68DB6813B1FF
:10282000394658469847A36D01379B68FFB29F42CF
:10283000DED9F00617D5676D3A6AC2F30A1002F0C6
:102840000F0302F4F012B2F5802F00F08580B2F58C
:10285000402F08D104EB83030022DB681B6A07F5D5
:10286000805790426AD13003D5F8184813D5E10358
:1028700002D50020FFF744FEA20302D50120FFF796
:102880003FFE630302D50220FFF73AFE270302D57D
:102890000320FFF735FE75037FF550AFE00702D543
:1028A0000020FFF7C1FEA10702D50120FFF7BCFE03
:1028B000620702D50220FFF7B7FE23077FF53EAF80
:1028C0000320FFF7B1FE39E7636DDFF8E4A0019361
:1028D00000274FF00109A36D9B685FFA87FB9B45BA
:1028E0003FF67DAF019B03EB4B13D3F8001901F4C6
:1028F0004021B1F5802F1FD1D3F8001900291BDA30
:10290000D3F8001941F09041C3F80019D3F8001929
:102910000029FBDB5946606DFFF718FC218909FA95
:102920000BF321EA0303238104EB8B03DB689B6831
:1029300013B15946504698470137CCE7910708BF75
:10294000D7F80080072A98BF03F8018B02F1010233
:1029500098BF4FEA182884E7023304EB830207F597
:1029600080575268D2F818C0DCF80820DCE9001C57
:10297000A1EB0C0C002188420AD104EB83046368AC
:102980009B699A6802449A605A6802445A606AE7EE
:1029900011F0030F08BFD7F800808C4588BF02F8FC
:1029A000018B01F1010188BF4FEA1828E3E700BF5E
:1029B000682D0020436D03EB4111D1F8003B43F437
:1029C0000013C1F8003B7047436D03EB4111D1F890
:1029D000003943F40013C1F800397047436D03EB2D
:1029E0004111D1F8003B23F40013C1F8003B7047BC
:1029F000436D03EB4111D1F8003923F40013C1F802
:102A00000039704700F1604303F561430901C9B221
:102A100083F80013012200F01F039A4043099B0032
:102A200003F1604303F56143C3F880211A607047E6
:102A300030B5039C0172043304FB0325C0E906533F
:102A4000049B03630021059BC160C0E90000C0E94D
:102A50000422C0E90842C0E90A11436330BD000006
:102A6000416A0022C0E90411C0E90A22C2606FF085
:102A70000101FEF7FBBE0000D0E90432934201D110
:102A8000C2680AB9181D70470020704703691960B1
:102A9000C2680132C260C269134482690361934211
:102AA00024BF436A03610021FEF7D4BE38B5044653
:102AB0000D46E3683BB16269131D1268A3621344BB
:102AC000E362002007E0237A33B929462046FEF767
:102AD000B1FE0028EDDA38BD6FF00100FBE7000021
:102AE000C368C269013BC36043691344826943619F
:102AF000934224BF436A436100238362036B03B1A3
:102B00001847704770B53023044683F31188866AEE
:102B10003EB9FFF7CBFF054618B186F3118828466A
:102B200070BDA36AE26A13F8015BA362934202D309
:102B30002046FFF7D5FF002383F31188EFE700005D
:102B40002DE9F84F04460E46174698464FF03009D7
:102B500089F311880025AA46D4F828B0BBF1000FEC
:102B600009D141462046FFF7A1FF20B18BF3118820
:102B70002846BDE8F88FD4E90A12A7EB050B521AD4
:102B8000934528BF9346BBF1400F1BD9334601F153
:102B9000400251F8040B43F8040B9142F9D1A36AA7
:102BA00040334036A3624035D4E90A239A4202D327
:102BB0002046FFF795FF8AF31188BD42D8D289F3EA
:102BC0001188C9E730465A46FEF758F8A36A5B44B5
:102BD0005E44A3625D44E7E710B5029C01720433D2
:102BE00003FB0421C0E906130023C0E90A33039B59
:102BF0000363049BC460C0E90000C0E90422C0E98B
:102C00000842436310BD0000026AC260426AC0E924
:102C100004220022C0E90A226FF00101FEF726BE5D
:102C2000D0E904239A4201D1C26822B9184650F86B
:102C3000043B0B60704700231846FAE7C368C2697B
:102C40000133C3604369134482694361934224BFE3
:102C5000436A43610021FEF7FDBD000038B504461C
:102C60000D46E3683BB123691A1DA262E269134471
:102C7000E362002007E0237A33B929462046FEF7B5
:102C8000D9FD0028EDDA38BD6FF00100FBE7000048
:102C900003691960C268013AC260C269134482695B
:102CA0000361934224BF436A036100238362036B81
:102CB00003B118477047000070B530230D46044635
:102CC000114683F31188866A2EB9FFF7C7FF10B14A
:102CD00086F3118870BDA36A1D70A36AE26A01338E
:102CE0009342A36204D3E16920460439FFF7D0FF81
:102CF000002080F31188EDE72DE9F84F04460D46DA
:102D0000904699464FF0300A8AF311880026B34660
:102D1000A76A4FB949462046FFF7A0FF20B187F3C5
:102D200011883046BDE8F88FD4E90A073A1AA8EBB3
:102D30000607974228BF1746402F1BD905F14003CD
:102D400055F8042B40F8042B9D42F9D1A36A403377
:102D5000A3624036D4E90A239A4204D3E1692046AB
:102D60000439FFF795FF8BF311884645D9D28AF3D2
:102D70001188CDE729463A46FDF780FFA36A3B4418
:102D80003D44A3623E44E5E7D0E904239A4217D1CB
:102D9000C3689BB1836A8BB1043B9B1A0ED013604E
:102DA000C368013BC360C3691A44836902619A42E4
:102DB00024BF436A036100238362012318467047DE
:102DC0000023FBE700F030B94FF08043586A7047AA
:102DD0004FF08043002258631A610222DA60704784
:102DE0004FF080430022DA60704700004FF08043CC
:102DF00058637047FEE7000070B51B4B0163002568
:102E0000044686B0586085620E4600F0BFF804F1B3
:102E10001003C4E904334FF0FF33C4E90635C4E9B5
:102E20000044A560E562FFF7CFFF2B460246C4E9E8
:102E3000082304F134010D4A256580232046FEF75E
:102E4000AFFC0123E0600A4A0375009272680192A8
:102E5000B268CDE90223074B6846CDE90435FEF799
:102E6000C7FC06B070BD00BF002600206C3600080D
:102E700071360008F52D0008024AD36A1843D06263
:102E8000704700BF982300204B6843608B688360C5
:102E9000CB68C3600B6943614B6903628B69436212
:102EA0000B6803607047000008B5264B26481A6976
:102EB00040F2FF110A431A611A6922F4FF7222F0EC
:102EC00001021A611A691A6B0A431A631A6D0A43DE
:102ED0001A651E4A1B6D1146FFF7D6FF02F11C0151
:102EE00000F58060FFF7D0FF02F1380100F5806047
:102EF000FFF7CAFF02F1540100F58060FFF7C4FF3D
:102F000002F1700100F58060FFF7BEFF02F18C0155
:102F100000F58060FFF7B8FF02F1A80100F58060BE
:102F2000FFF7B2FF02F1C40100F58060FFF7ACFFCC
:102F300002F1E00100F58060FFF7A6FFBDE8084060
:102F400000F0EEB800380240000002407836000879
:102F500008B500F059FAFEF701FCFFF793F8BDE859
:102F60000840FEF76FBE000070470000EFF30983D2
:102F700005494A6B22F001024A63683383F30988EA
:102F8000002383F31188704700EF00E0302080F3C6
:102F9000118862B60C4B0D4AD96821F4E06109042E
:102FA000090C0A43DA60D3F8FC20094942F0807228
:102FB000C3F8FC200A6842F001020A602022DA7796
:102FC00083F82200704700BF00ED00E00003FA051F
:102FD000001000E010B5302383F311880E4B5B68BE
:102FE00013F4006314D0F1EE103AEFF30984683C57
:102FF0004FF08073E361094BDB6B236684F3098830
:10300000FEF78CFB10B1064BA36110BD054BFBE72F
:1030100083F31188F9E700BF00ED00E000EF00E066
:103020002F030008320300080F4B1A6C42F0010214
:103030001A641A6E42F001021A660C4A1B6E9368FB
:1030400043F0010393604FF0804353229A624FF0A4
:10305000FF32DA6200229A615A63DA605A60012212
:103060005A611A60704700BF00380240002004E037
:103070004FF0804208B51169D3680B40D9B2C943FB
:103080009B07116107D5302383F31188FEF77CFB82
:10309000002383F3118808BD1F4B1A696FEAC252DF
:1030A0006FEAD2521A611A69C2F308021A614FF02C
:1030B000FF301A695A69586100215A6959615A6981
:1030C0001A6A62F080521A621A6A02F080521A6218
:1030D0001A6A5A6A58625A6A59625A6A1A6C42F0F3
:1030E00080521A641A6E42F080521A661A6E0B4AA7
:1030F000106840F480701060186F00F44070B0F5F4
:10310000007F1EBF4FF4803018671967536823F49F
:103110000073536000F054B9003802400070004062
:10312000334B4FF080521A64324A4FF440411160E1
:103130001A6842F001021A601A689107FCD59A6871
:1031400022F003029A602A4B9A6812F00C02FBD11B
:10315000196801F0F90119609A601A6842F4803226
:103160001A601A689203FCD55A6F42F001025A673E
:103170001F4B5A6F9007FCD51F4A5A601A6842F0DD
:1031800080721A601B4A53685904FCD5184B1A68A0
:103190009201FCD5194A9A60194B1A68194B9A4248
:1031A000194B21D1194A1168194A91421CD140F298
:1031B00005121A60144A136803F00F03052BFAD1A5
:1031C0000B4B9A6842F002029A609A6802F00C0275
:1031D000082AFAD15A6C42F480425A645A6E42F478
:1031E00080425A665B6E704740F20572E1E700BFAD
:1031F00000380240007000400854400700948838AE
:10320000002004E011640020003C024000ED00E0DA
:1032100041C20F41074A08B5536903F001035361E6
:1032200023B1054A13680BB150689847BDE80840C0
:10323000FFF7D0BE003C0140E02D0020074A08B552
:10324000536903F00203536123B1054A93680BB13C
:10325000D0689847BDE80840FFF7BCBE003C01407D
:10326000E02D0020074A08B5536903F004035361B9
:1032700023B1054A13690BB150699847BDE808406E
:10328000FFF7A8BE003C0140E02D0020074A08B52A
:10329000536903F00803536123B1054A93690BB1E5
:1032A000D0699847BDE80840FFF794BE003C014054
:1032B000E02D0020074A08B5536903F0100353615D
:1032C00023B1054A136A0BB1506A9847BDE808401C
:1032D000FFF780BE003C0140E02D0020164B10B5EA
:1032E0005C6904F478725A61A30604D5134A936AA0
:1032F0000BB1D06A9847600604D5104A136B0BB126
:10330000506B9847210604D50C4A936B0BB1D06BD8
:103310009847E20504D5094A136C0BB1506C9847E5
:10332000A30504D5054A936C0BB1D06C9847BDE852
:103330001040FFF74FBE00BF003C0140E02D0020D1
:10334000194B10B55C6904F47C425A61620504D5DE
:10335000164A136D0BB1506D9847230504D5134AD7
:10336000936D0BB1D06D9847E00404D50F4A136EEE
:103370000BB1506E9847A10404D50C4A936E0BB163
:10338000D06E9847620404D5084A136F0BB1506F92
:103390009847230404D5054A936F0BB1D06F984723
:1033A000BDE81040FFF716BE003C0140E02D0020B4
:1033B00008B5FFF75DFEBDE80840FFF70BBE000053
:1033C000062108B50846FFF71DFB06210720FFF779
:1033D00019FB06210820FFF715FB06210920FFF73E
:1033E00011FB06210A20FFF70DFB06211720FFF72E
:1033F00009FB06212820FFF705FBBDE8084007214F
:103400001C20FFF7FFBA000008B5FFF745FE00F0EB
:103410000BF8FDF78DFEFDF765FDFFF7A5FDBDE897
:103420000840FFF7CFBC00000023054A19460133CE
:10343000102BC2E9001102F10802F8D1704700BF59
:10344000E02D0020034611F8012B03F8012B002A80
:10345000F9D1704753544D3332463F3F3F005354E8
:103460004D3332463430780053544D333246343283
:10347000780053544D3332463434365858000000E7
:10348000012033000010410001105A0003105900C0
:10349000071031000000000054340008130400003D
:1034A0005E3400081904000068340008210400009C
:1034B0007234000800000000610E00084D0E000884
:1034C000890E0008750E0008810E00086D0E0008B8
:1034D000590E0008450E0008950E00080000000077
:1034E000010000000000000063300000E834000824
:1034F000F0230020002600204172647550696C6F33
:10350000740025424F415244252D424C002553451D
:103510005249414C2500000002000000000000005C
:103520007D100008E910000840004000A02A00209B
:10353000B02A00200200000000000000030000008C
:10354000000000002D110008000000001000000025
:10355000C02A002000000000010000000000000060
:10356000682D002001010200E11B0008F11A00088B
:103570008D1B0008711B0008430000008035000807
:1035800009024300020100C03209040000010202E6
:103590000100052400100105240100010424020299
:1035A0000524060001070582030800FF0904010045
:1035B000020A000000070501024000000705810221
:1035C0004000000012000000CC350008120110017C
:1035D00002000040091241570002010203010000ED
:1035E0000403090425424F41524425004A48454DF1
:1035F0005F4A484546343035003031323334353651
:10360000373839414243444546000000004000003D
:1036100000400000004000000040000000000100E9
:103620000000020000000200000002000000020092
:103630000000020000000200000002000000000084
:103640007112000829150008D51500084000400037
:10365000C82D0020C82D002001000000D82D00201A
:103660008000000040010000030000006D61696EF1
:103670000069646C650000000000842A00000000FE
:10368000AAAAAAAA00000024FFFD00000000000072
:1036900000A00A004000001100000000AAAAAAAA87
:1036A00040000011FFFF00000000000000000000CB
:1036B0000000000000000000AAAAAAAA0000000062
:1036C000FFFF0000000000000000000000000000FC
:1036D00000000000AAAAAAAA00000000FFFF000044
:1036E00000000000000000000000000000000000DA
:1036F000AAAAAAAA00000000FFFF00000000000024
:10370000000000000000000000000000AAAAAAAA11
:1037100000000000FFFF00000000000000000000AB
:103720000000000000000000AAAAAAAA00000000F1
:10373000FFFF00000000000000000000000000008B
:10374000000000000A00000000000000030000006C
:103750000000000000000000000000000000000069
:103760000000000000000000000000000000000059
:10377000000000000000000039040000000000000C
:1037800000400F0000000000FF009600000000084D
:10379000009600000000080004000000E03500086A
:1037A0000000000000000000000000000000000019
:0837B000000000000000000011
:00000001FF
