:020000040800F2
:1000000000070020F1010008252D0008DD2C000864
:10001000052D0008DD2C0008FD2C0008F301000868
:10002000F3010008F3010008F3010008053D000892
:10003000F3010008F3010008F3010008F3010008D0
:10004000F3010008F3010008F3010008F3010008C0
:10005000F3010008F3010008154200083D420008C2
:10006000654200088D420008B5420008F30100080F
:10007000F3010008F3010008F3010008F301000890
:10008000F3010008F3010008F3010008F301000880
:10009000F3010008BD2C0008CD2C0008DD4200084B
:1000A000F3010008F3010008F3010008F301000860
:1000B000C5430008F3010008F3010008F30100083C
:1000C000F3010008F3010008F3010008F301000840
:1000D000F3010008B1430008F3010008F301000830
:1000E00041430008F3010008F3010008F301000890
:1000F000F3010008F3010008F3010008F301000810
:10010000F3010008F3010008F3010008F3010008FF
:10011000F3010008F3010008F3010008F3010008EF
:10012000F3010008F3010008F3010008F3010008DF
:10013000F3010008F3010008F3010008F3010008CF
:10014000F3010008F3010008F3010008F3010008BF
:10015000F3010008F3010008F3010008F3010008AF
:10016000F3010008F3010008F3010008F30100089F
:10017000F3010008F3010008F3010008F30100088F
:10018000F3010008F3010008F3010008F30100087F
:10019000F3010008F3010008F3010008F30100086F
:1001A000F3010008F3010008F3010008F30100085F
:1001B000F3010008F3010008F3010008F30100084F
:1001C000F3010008F3010008F3010008F30100083F
:1001D000F3010008F3010008F3010008F30100082F
:1001E00001150008000000000000000000000000F1
:1001F00002E000F000F8FEE772B6374880F30888A6
:10020000364880F3098836483649086040F20000D5
:10021000CCF200004EF63471CEF200010860BFF35C
:100220004F8FBFF36F8F40F20000C0F2F0004EF628
:100230008851CEF200010860BFF34F8FBFF36F8F7C
:100240004FF00000E1EE100A4EF63C71CEF20001D4
:100250000860062080F31488BFF36F8F04F032FF2C
:1002600005F012F84FF055301F491B4A91423CBF30
:1002700041F8040BFAE71D49184A91423CBF41F886
:10028000040BFAE71A491B4A1B4B9A423EBF51F82E
:10029000040B42F8040BF8E700201849184A914271
:1002A0003CBF41F8040BFAE704F010FF05F032F808
:1002B000144C154DAC4203DA54F8041B8847F9E797
:1002C00000F042F8114C124DAC4203DA54F8041B12
:1002D0008847F9E704F0F8BE00070020002300205B
:1002E0000000000808ED00E00001002000070020E9
:1002F000F855000800230020B4230020B823002074
:10030000EC540020E0010008E4010008E4010008CA
:10031000E40100082DE9F04F2DED108AC1F80CD052
:10032000C3689D46BDEC108ABDE8F08F002383F3BF
:1003300011882846A047002004F04CFBFEE704F09B
:10034000D5FA00DFFEE70000F8B501F047F904F048
:100350005BFE074604F0ACFE0546A8BB1F4B9F4260
:1003600032D001339F4232D01D4B27F0FF029A4218
:1003700030D1F8B200F00EFF2E4642F2107400F0B9
:100380000FFF08B10024264601F054FC20B10320E1
:1003900000F07AF80024264635B1124B9F4203D074
:1003A00004F07EFE00242646002004F037FE0EB145
:1003B00000F080F801F024FA00F024FF204600F05D
:1003C000D7F800F077F8F9E72E460024D7E704467F
:1003D0000126D4E706464FF47A74D0E7010007B04F
:1003E000000008B0263A09B008B501F0C3F8A0F142
:1003F00020035842584108BD07B541F212030221BB
:1004000001A8ADF8043001F0D3F803B05DF804FBA7
:1004100038B5302383F31188174803680BB104F013
:1004200097FB164A144800234FF47A7104F086FBB8
:10043000002383F31188124C236813B12368013B16
:100440002360636813B16368013B63600D4D2B78D3
:1004500033B963687BB9022001F060F9322363602D
:100460002B78032B07D163682BB9022001F056F9D2
:100470004FF47A73636038BDB8230020110400087C
:10048000D8240020D0230020084B187003280CD853
:10049000DFE800F008050208022001F037B9022069
:1004A00001F02CB9024B00225A607047D023002083
:1004B000D824002038B501F0BDFB30B1254B032214
:1004C0001A70254B00225A6038BD244B244A196803
:1004D0000131F9D004339342F9D1224C1F4DD4F8A5
:1004E0000428AA42F0D3204B9B6803F1006303F574
:1004F000F0439A42E8D204F0A5FD04F0B7FD0020D5
:1005000001F086F80220FFF7BFFF184B9A6D00221A
:100510009A65996F9A67996FD96DDA65D96FDA67BD
:10052000D96F196E1A66D3F88010C3F88020D3F8FB
:10053000803072B64FF0E0233021C3F8085DD4F864
:100540000038D4F8042881F311889D4683F3088885
:100550001047B9E7D0230020D824002000780008F5
:1005600020780008007000080023002000100240DE
:100570002DE9F04F93B0AC4B00902022FF210AA848
:100580009D6801F0E7F8A94A1378A3B9A8480121AA
:1005900003601170302383F3118803680BB104F0FA
:1005A000D7FAA44AA24800234FF47A7104F0C6FA9D
:1005B000002383F31188009B13B19F4B009A1A60AC
:1005C0009E4A009C1378032B1EBF002313709A4A87
:1005D0004FF0000A18BF5360D3465646D14601205B
:1005E00001F094F824B1944B1B68002B00F01582A5
:1005F000002000F0BFFF0390039B002B01DA00F006
:1006000049FE039B002BEDDB012001F077F8039BF3
:10061000213B162BE3D801A252F823F079060008FB
:10062000A106000835070008DF050008DF050008FF
:10063000DF050008BF0700088F090008A9080008A7
:100640000B0900083309000859090008DF050008F4
:100650006B090008DF050008DD090008190700081C
:10066000DF050008210A00088506000819070008B0
:10067000DF0500080B0900080220FFF7B5FE00287F
:1006800040F0F581009B0221BAF1000F08BF1C4623
:1006900005A841F21233ADF8143000F089FF9EE74F
:1006A0004FF47A7000F066FF071EEBDB0220FFF7C5
:1006B0009BFE0028E6D0013F052F00F2DA81DFE83B
:1006C00007F0030A0D10133605230593042105A82E
:1006D00000F06EFF17E054480421F9E75848042160
:1006E000F6E758480421F3E74FF01C08404600F0B5
:1006F00091FF08F104080590042105A800F058FFB7
:10070000B8F12C0FF2D1012000FA07F747EA0B0BE2
:100710005FFA8BFB4FF0000901F068F826B10BF08F
:100720000B030B2B08BF0024FFF766FE57E7464874
:100730000421CDE7002EA5D00BF00B030B2BA1D18C
:100740000220FFF751FE074600289BD0012000F051
:100750005FFF0220FFF798FE00261FFA86F840464A
:1007600000F068FF044690B10021404600F07AFF97
:1007700001360028F1D1BA46044641F21213022193
:1007800005A8ADF814303E4600F012FF27E701201F
:10079000FFF77AFE2546244B9B68AB4207D92846D3
:1007A00000F038FF013040F067810435F3E7234B58
:1007B00000251D70204BBA465D603E46ACE7002E1A
:1007C0003FF460AF0BF00B030B2B7FF45BAF022009
:1007D000FFF75AFE322000F0CDFEB0F10008FFF620
:1007E00051AF18F003077FF44DAF0F4A926808EB42
:1007F000050393423FF646AFB8F5807F3FF742AF1F
:10080000124B0193B84523DD4FF47A7000F0B2FE2D
:100810000390039A002AFFF635AF019B039A03F871
:10082000012B0137EDE700BF00230020D424002076
:10083000B823002011040008D8240020D023002071
:1008400004230020082300200C230020D4230020B0
:10085000C820FFF7C9FD074600283FF413AF1F2D3E
:1008600011D8C5F1200242450AAB25F0030028BF8C
:10087000424683490192184400F05AFF019A804889
:10088000FF2100F067FF4FEAA8037D490193C8F3F9
:100890008702284600F066FF064600283FF46DAF49
:1008A000019B05EB830537E70220FFF79DFD00283C
:1008B0003FF4E8AE00F0E8FE00283FF4E3AE002786
:1008C000B846704B9B68BB4218D91F2F11D80A9BA2
:1008D00001330ED027F0030312AA134453F8203C2F
:1008E00005934046042205A901F08EF9043780469D
:1008F000E7E7384600F08EFE0590F2E7CDF8148069
:10090000042105A800F054FE06E70023642104A892
:10091000049300F043FE00287FF4B4AE0220FFF7FA
:1009200063FD00283FF4AEAE049800F0A3FE0590EE
:10093000E6E70023642104A8049300F02FFE0028BA
:100940007FF4A0AE0220FFF74FFD00283FF49AAEDF
:10095000049800F091FEEAE70220FFF745FD002829
:100960003FF490AE00F0A0FEE1E70220FFF73CFD6F
:1009700000283FF487AE05A9142000F09BFE042157
:100980000746049004A800F013FE3946B9E7322068
:1009900000F0F0FD071EFFF675AEBB077FF472AEE8
:1009A000384A926807EB090393423FF66BAE022088
:1009B000FFF71AFD00283FF465AE27F003074F4408
:1009C000B9453FF4A9AE484600F024FE0421059045
:1009D00005A800F0EDFD09F10409F1E74FF47A7084
:1009E000FFF702FD00283FF44DAE00F04DFE002859
:1009F00044D00A9B01330BD008220AA9002000F042
:100A0000B1FE00283AD02022FF210AA800F0A2FE61
:100A1000FFF7F2FC1C4803F0E3FF13B0BDE8F08FD2
:100A2000002E3FF42FAE0BF00B030B2B7FF42AAEFE
:100A30000023642105A8059300F0B0FD07460028B7
:100A40007FF420AE0220FFF7CFFC804600283FF461
:100A500019AEFFF7D1FC41F2883003F0C1FF0598D1
:100A600000F0DAFE464600F0C1FE3C46B7E5064619
:100A700052E64FF0000905E6BA467EE637467CE6C8
:100A8000D423002000230020A0860100094A136817
:100A900049F2690099B21B0C00FB01331360064B4D
:100AA000186844F2506182B2000C01FB0200186029
:100AB00080B27047142300201023002010B50021BD
:100AC0001022044600F046FE034B03CB2060616019
:100AD0001868A06010BD00BF9075FF1F2DE9F041A0
:100AE000ADF54E7D0DF134086CAC40F27512074641
:100AF0000D460EA80021C8F8001000F02BFE4FF4A0
:100B0000C4720021204600F025FE02F013F9254BA7
:100B10004FF47A72B0FBF2F0186093E807000223FA
:100B200084E807000DF5E9702382FFF7C7FF41F263
:100B300004131D49238406A804F056FC182384F8E6
:100B400032310DF2E3266B440DF1300C1A4603CA24
:100B5000624530607160134606F10806F6D14146E1
:100B60000122204600F072FE00230393AB7E029325
:100B700005F11903019380B20123CDE904800093AC
:100B8000E97E06A3D3E90023384602F091FC0DF577
:100B90004E7DBDE8F08100BFAFF300809E6AC421A6
:100BA000818A46EEE0240020F85300082DE9F04148
:100BB0002C4C237ADAB080460D465BBB27A9284629
:100BC00000F054FF0746002842D19DF89D60C82ED2
:100BD0003ED801464FF4A662204600F0BBFD4FF41C
:100BE0008073C4F8F8314FF40073C4F80C334FF439
:100BF0004073C4F8203432460DF19E0104F109001F
:100C000000F096FD26449DF89C30777223720BB954
:100C1000EB7E23728122002106AC27A800F09AFD0A
:100C20000122214627A800F05DFF00230393AB7E3D
:100C3000029305F1190380B201932823CDE9044002
:100C40000093E97E05A3D3E90023404602F030FC7F
:100C50005AB0BDE8F08100BFAFF300802641727248
:100C6000DF25D7B7E8490020F0B5254E4FF48A7547
:100C700005FB0065F1B096F8D83085F8DC3000242B
:100C8000D822214685F8E8403AA800F063FD06F135
:100C9000090000F057FDD5F8E4308DF8F000C2B23D
:100CA00006AF06F109010DF1F100CDE93A3400F08B
:100CB0003FFD394601223AA800F040FF80B2CDE95D
:100CC000047008230127CDE9023706F1D803019308
:100CD00030230093317A0B4807A3D3E9002302F0B5
:100CE000E7FBA04206DD02F025F8C5F8E000384633
:100CF00071B0F0BD2046FBE778F6339F93CACD8DE7
:100D0000E8490020F83400202DE9F0411D4D1E4E29
:100D10001E4F86B0284602F0F7FB034658B3002466
:100D2000CDE90344ADF81440027B8DF81420996896
:100D30004068029403AA03C21B68DFF8548043F0A2
:100D40000043029301F0F8FF821941F1000300947F
:100D500002A9384601F082F9A04205DD284602F0DA
:100D6000D7FB88F80040D5E798F80030072B05D866
:100D7000013388F8003006B0BDE8F081014802F088
:100D8000C7FBF8E7F834002040420F002835002068
:100D90001D4F002070B50D4614461E4602F0E4FAC1
:100DA00050B9022E10D1012C0ED112A3D3E9002389
:100DB000C5E90023012007E0282C10D005D8012C1C
:100DC00009D0052C0FD0002070BD302CFBD10BA317
:100DD000D3E90023ECE70BA3D3E90023E8E70BA357
:100DE000D3E90023E4E70BA3D3E90023E0E700BF46
:100DF000AFF30080401DA12026812A0B78F6339F97
:100E000093CACD8D9E6AC421818A46EE26417272B4
:100E1000DF25D7B7F017304A39059E5638B5054655
:100E20000E4C0021013500F01DFCA4F82C55B4F83F
:100E30002C0500F0FFFB78B1B4F82C0500F00AFC9B
:100E4000014648B9B4F82C0500F00CFCB4F82C3578
:100E50000133A4F82C35EAE738BD00BFE84900208B
:100E600010B50A4B0A4A1A6003F5805393F84820DC
:100E70003AB95C6C2CB1204600F05AFF204604F0D1
:100E800069FABDE81040034800F052BF2835002041
:100E900050540008584500202DE9F04F8FB000AFA6
:100EA00005460C4602F060FA002849D1237E022B49
:100EB0001BD1E38A012B18D101F03CFF0646FFF756
:100EC000E5FD03464FF4C870DFF8C482B3FBF0F2CF
:100ED00006F5167602FB103316FA83F3C8F80030D5
:100EE000E37E33B9A34B00221A703C37BD46BDE800
:100EF000F08F07F12401204600F076FD0028F4D1A0
:100F000007F11400FFF7DAFD97F8264007F1140106
:100F1000224607F1270004F035FA0028E2D10F2C11
:100F200008D8944B1C70D8F80030A3F51673C8F895
:100F30000030DAE797F82410284602F00DFAD4E7DB
:100F4000E38A282B2BD010D8012B23D0052BCCD112
:100F5000BFF34F8F8849894BCA6802F4E06213439C
:100F6000CB60BFF34F8F00BFFDE7302BBDD1844E68
:100F7000E17E327A9142B8D1607E3146002291F80A
:100F8000DC50854200F0A5800132042A01F58A7107
:100F9000F5D1AAE721462846FFF7A0FDA5E721469F
:100FA0002846FFF703FEA0E7B2F8EC507B6005F19E
:100FB00003094FEA99094FEA8902D11DC908A8EB34
:100FC000C1039D46EB460021584600F0C3FB04F1E7
:100FD000EE012A463144584600F0AAFB7B6813B95B
:100FE000012000F015FB96F8D20000F023FB044628
:100FF00030B9307200F048FB204600F009FBB1E048
:10100000D6F8D4203AB996F8D200B6F82C25824208
:1010100001D8FFF703FFD6F8D4202A44944208D21F
:1010200096F8D200B6F82C250130824201D8FFF79D
:10103000F5FE70685FFA89F2594600F093FB08B933
:10104000C54679E0726896F8D2002A447260D6F8F4
:10105000D42005EB0209C6F8D49000F0EBFA8145E4
:1010600009D396F8D220D6F8D4000132001B86F8B6
:10107000D220C6F8D400FF2D0FD80024347200F01F
:1010800003FB204600F0C4FA00F0D4FD3D4B18816C
:1010900008B9FFF70FFAC54627E7BB6896F8D900ED
:1010A0000AFB0362FB68D2F8E41082F8E83001F52D
:1010B0008061C2F8E030C2F8E410FFF7D5FDFFF719
:1010C00023FE96F8D920013202F0030286F8D920D7
:1010D000B6E74FF48A7A0AFB02F505F1EA013144DA
:1010E000204600F057FDF86000287FF4FEAE35443E
:1010F000012285F8E82001F01DFED5F8E020D6EDAC
:10110000007ADFED216A801A192838BF192040F6CD
:10111000B832904228BF1046B8EE677A07EE900AC0
:10112000F8EEE77A67EEA67ADFED186AE7EE267A40
:10113000FCEEE77AC6ED007A96F8D930BB60BA6863
:1011400073680AFB02F4321992F8E81059B1D2F828
:10115000E4108B42E8463FF427AF002182F8E81004
:10116000C2F8E010C5467368064A9B0A0133138132
:10117000BBE600BFF134002000ED00E00400FA05FA
:10118000E8490020E0240020CDCCCC3D6666663FD7
:10119000F4340020014B1870704700BFEC2400208D
:1011A00038B54FF00054134B22689A4220D1124BAD
:1011B000627D12481A70237D03724FF48073C0F869
:1011C000F8314FF40073C0F80C3300254FF440732E
:1011D000C0F820340A49C0F8E450C922093000F0B0
:1011E000A7FAE0222946204600F0B4FA012038BDD3
:1011F0000020FCE79AAD44C5EC240020E84900201B
:101200001600002037B500F015FD194D1949288149
:1012100002236B7100220123174801F069F90023B2
:101220000193164B164900931648174B4FF4805202
:1012300002F06AF8154B197811B1124802F08CF8D7
:1012400001F078FD0446FFF721FC4FF4C873B0FBB2
:10125000F3F202FB130304F5167010FA83F00C4B43
:10126000186003F025FF08B10F232B8103B030BDB8
:10127000E024002040420F0028350020950D000892
:10128000F0240020F8340020990E0008EC240020FF
:10129000F43400202DE9F04F2DED028B90A7D7E913
:1012A00000670FF24429D9E90089884C95B00DAD4B
:1012B0009FED848BFFF728FDDFF834B200230C93F9
:1012C000ADF83C300D936B6000230DF125028DEDE0
:1012D000008B4FF0010A09A958468DF825308DF88A
:1012E00024A001F08FFC9DF824200023002A40F068
:1012F000AF80204602F038F80546002847D1DFF8D5
:10130000F4B101F017FDDBF8003098423FD301F053
:1013100011FD0790FFF7BAFB079A4FF4C873B0FBB3
:10132000F3F101FB130302F5167010FA83F0CBF80A
:101330000000DFF8C4B19BF800100791002914BF2A
:101340002B46534610A88DF83030FFF7B7FB0799AE
:10135000C1F11002D2B2062A10AB28BF06221944EE
:101360000DF13100079200F0E3F9079A0CAB0393FB
:10137000182302930132564BD2B2CDE900A3049256
:101380003B463246204602F035F88BF8005001F01B
:10139000D1FC504A504D1368C31AB3F57A7F32D34B
:1013A000106001F0C9FC02460B46204602F0BAF874
:1013B000204601F0D9FF30B32B7ADFF840A1002B93
:1013C00014BF032302238AF8053001F0B3FC0DF1AA
:1013D000400B4FF47A730122B0FBF3F05946CAF880
:1013E0000000504600F0D8FA182302933B4B0193BB
:1013F00080B240F25513CDE903B0009342464B460C
:10140000204601F0F7FF2B7AB3B101F093FC4FF0C7
:10141000000A83464FF48A7295F8D900504400F0D0
:10142000030002FB005393F8E810002934D00AF1BE
:10143000010ABAF1040FEFD1C82003F0D1FA2B7AD8
:10144000002B7FF434AF15B0BDEC028BBDE8F08FFC
:101450004FF0904110A84A6982F010024A61194683
:10146000102200F077F90DF126030AAA0CA95846BC
:1014700000F0E8FE95E8030011AB83E803009DF857
:101480003C308DF84C300C9B109310A9DDE90A23F9
:10149000204602F01BFA17E7D3F8E01049B12B6899
:1014A000FA2B38BFFA23ABEB01010533B1EB430F45
:1014B000BDD3FFF7D9FB4FF48A720028B7D1BBE741
:1014C000AFF300800000000000000000F8340020AE
:1014D000F0340020184F0020E84900201C4F002065
:1014E000401DA12026812A0BF1C6A7C1D068080F94
:1014F00028350020F4340020F1340020E0240020BE
:1015000008B5054800F044FFBDE80840034A044917
:10151000002003F019BF00BF28350020704F0020C5
:10152000610E000870B5104B1B780133DBB2012B44
:101530000C4612D80D4B1D6829684FF47A730E6A59
:10154000A2FB0332014622462846B047844204D11A
:10155000074B00221A70012070BD4FF4FA7003F09F
:101560003FFA0020F8E700BF182300201C230020CA
:10157000644F002007B50023024601210DF107004A
:101580008DF80730FFF7CEFF20B19DF8070003B0BC
:101590005DF804FB4FF0FF30F9E700000A4608B59C
:1015A0000421FFF7BFFF80F00100C0B2404208BD38
:1015B00030B4074B0A461978064B53F8214023688C
:1015C000DD69054B0146AC46204630BC604700BF94
:1015D000644F00201C230020A086010070B503F09A
:1015E000B7FB094E094D30800024286833888342B8
:1015F00008D903F0A9FB2B6804440133B4F5F04F7C
:101600002B60F2D370BD00BF664F0020204F00203A
:1016100003F050BC00F1006000F5E040D0F8000895
:101620007047000000F10060920000F5F04003F008
:10163000CBBB0000054B1A68054B1B889B1A8342E5
:1016400002D9104403F080BB00207047204F0020D7
:10165000664F0020024B1B68184403F07BBB00BFA1
:10166000204F0020024B1B68184403F085BB00BFCD
:10167000204F00200020704700F10050A0F51040DE
:10168000D0F8900570470000064991F8243033B136
:101690000023086A81F824300822FFF7C3BF012025
:1016A000704700BF244F0020014B1868704700BFEF
:1016B000002004E030B50F4B0F4C1B682288C3F3A9
:1016C0000B030138934208440BD164680A46013C7D
:1016D000824213460BD214F9015F2DB102F8015B6F
:1016E000F6E781420B4602D22C2203F8012B581A4E
:1016F00030BD00BF002004E020230020022802BFEC
:101700004FF0904310229A6170470000022802BFF8
:101710004FF090434FF480129A617047022801BF46
:101720004FF09042536983F01003536170470000FB
:1017300010B50023934203D0CC5CC4540133F9E7C5
:1017400010BD000003460246D01A12F9011B002901
:10175000FAD1704702440346934202D003F8011BBA
:10176000FAE770472DE9F8431F4D144695F82420F9
:101770000746884652BBDFF870909CB395F824303A
:101780002BB92022FF2148462F62FFF7E3FF95F88F
:101790002400C0F10802A24228BF2246D6B2414628
:1017A000920005EB8000FFF7C3FF95F82430A41BDF
:1017B0001E44F6B2082E17449044E4B285F8246023
:1017C000DBD1FFF761FF0028D7D108E02B6A03EBDC
:1017D00082038342CFD0FFF757FF0028CBD10020F0
:1017E000BDE8F8830120FBE7244F0020024B1A7864
:1017F000024B1A70704700BF644F0020182300206E
:1018000003494FF4E1330B60024B186802F0D4BF78
:101810004C4F00201C230020094B10B51822044611
:1018200000211846FFF796FF064A074B127804601E
:101830000146BDE8104053F8220002F0BDBF00BFD2
:101840004C4F0020644F00201C2300202DE9F0475E
:101850000D46044600219046284640F27912FFF7D3
:1018600079FF234620220021284601F0D1FF231DC5
:1018700002222021284601F0CBFF631D03222221F2
:10188000284601F0C5FFA31D03222521284601F0AB
:10189000BFFF04F1080310222821284601F0B8FFF9
:1018A00004F1100308223821284601F0B1FF04F1A9
:1018B000110308224021284601F0AAFF04F1120377
:1018C00008224821284601F0A3FF04F11403202236
:1018D0005021284601F09CFF04F11803402270219A
:1018E000284601F095FF04F120030822B021284684
:1018F00001F08EFF04F121030822B821284601F0EF
:1019000087FF04F12207C0263B46314608222846BD
:10191000083601F07DFFB6F5A07F07F10107F3D18E
:1019200004F1320308223146284601F071FF0027F6
:1019300004F1330A94F832304FEAC7099F4209F59F
:10194000A47615D3B8F1000F08D1314604F5997388
:101950000722284601F05CFF09F24F16274694F84B
:1019600032213B1B93420CD3F01DC008BDE8F08729
:101970000AEB070308223146284601F049FF0137E8
:10198000D8E707F2331331460822284601F040FF1A
:1019900008360137E3E7000013B504460846002186
:1019A00001602346C0F803102022019001F030FFAF
:1019B0000198231D0222202101F02AFF0198631DB6
:1019C0000322222101F024FF0198A31D03222521D7
:1019D00001F01EFF019804F108031022282101F0F4
:1019E00017FF072002B010BDF7B50023047F009158
:1019F0000E4607221946054601F0CEFD731C0093E2
:101A0000012200230721284601F0C6FDC4B9B31CFA
:101A10000093052223460821284601F0BDFD0D2430
:101A20003746B278BB1B934211D32B7FA88A073469
:101A3000E408BBB9844294BF0020012003B0F0BD8C
:101A4000AB8ADB00083BDB08B3700824E8E7FB1C2B
:101A50000093214600230822284601F09DFD08340A
:101A60000137DEE7201A18BF0120E7E7F7B50023AA
:101A7000047F00910E4608221946054601F08CFDB0
:101A8000731CC4B90822009311462346284601F06E
:101A900083FD1024012372785F1C013B934211D314
:101AA0002B7FA88A0734E408BBB9844294BF002086
:101AB000012003B0F0BDAB8ADB00083BDB0873708C
:101AC0000824E7E7F319009321460023082228465B
:101AD00001F062FD08343B46DDE7201A18BF012003
:101AE000E7E70000F8B50E460546144600218122BE
:101AF0003046FFF72FFE2B4608220021304601F02A
:101B000087FE7CB96B1C07220821304601F080FE5D
:101B10000F2401236A785F1C013B934204D3E01D2C
:101B2000C008F8BD0824F4E7EB1921460822304626
:101B300001F06EFE08343B46ECE70000F8B50E46B7
:101B4000054614460021CE223046FFF703FE2B4601
:101B500028220021304601F05BFE7CB905F1080324
:101B600008222821304601F053FE30242F462A7ADD
:101B70007B1B934204D3E01DC008F8BD2824F5E781
:101B800007F1090321460822304601F041FE0834DE
:101B90000137ECE7F7B5047F00910E4601231022D0
:101BA0000021054601F0F8FCC4B9B31C00930922DA
:101BB00023461021284601F0EFFC1924374672888D
:101BC000BB1B9A4211D82B7FA88A0734E408BBB903
:101BD000844294BF0020012003B0F0BDAB8ADB003B
:101BE000103BDB0873801024E8E73B1D009321467F
:101BF00000230822284601F0CFFC08340137DEE735
:101C0000201A18BF0120E7E730B5094D0A44914278
:101C10000DD011F8013B5840082340F30004013B6C
:101C20002C4013F0FF0384EA5000F6D1EFE730BDFB
:101C30002083B8EDF7B5384A106851686B4603C386
:101C40006A4636493648082303F0ACFB04460028B0
:101C500033D10A25334A106851686B4603C36A467C
:101C600031492F48082303F09DFB0446002849D042
:101C70000369B3F5623F45D8B0F8661040F21142EF
:101C800091423FD1294A024402F15C018B4239D38F
:101C90005C3B234900209E1AFFF7B6FF32460746F9
:101CA00004F164010020FFF7AFFFA3689F4229D130
:101CB000E368984208BF002524E00369B3F5623F5A
:101CC00027D8418B40F21142914220D1174A024459
:101CD00002F110018B4218D3103B114900209D1ACC
:101CE000FFF792FF2A46064604F118010020FFF78D
:101CF0008BFFA3689E4202D1E368984201D00D2574
:101D0000A8E70025284603B0F0BD1025A2E70C2562
:101D1000A0E70B259EE700BF20540008DC870300E6
:101D20000078000829540008908703000888FFF70E
:101D300010B5037C044613B9006803F01BFB204672
:101D400010BD00000023BFF35B8FC360BFF35B8F48
:101D5000BFF35B8F8360BFF35B8F7047BFF35B8F15
:101D60000068BFF35B8F704770B505460C30FFF716
:101D7000F5FF05F1080604463046FFF7EFFFA042E5
:101D800006D930466D68FFF7E9FF2544281A70BD73
:101D90003046FFF7E3FF201AF9E7000070B505466B
:101DA000406898B105F10800FFF7D8FF05F10C066F
:101DB00004463046FFF7D2FF8442304694BF6D6838
:101DC0000025FFF7CBFF013C2C44201A70BD00001A
:101DD00038B50C460546FFF7C7FFA04210D305F102
:101DE0000800FFF7BBFF04446868B4FBF0F100FB98
:101DF0001144BFF35B8F0120AC60BFF35B8F38BD34
:101E00000020FCE72DE9F041144607460D46FFF798
:101E1000C5FF844228BF0446D4B1B84658F80C6BBD
:101E20004046FFF79BFF3044286040467E68FFF73E
:101E300095FF331A9C4203D86C600120BDE8F08105
:101E40006B60A41B3B68AB602044E8600220F5E7B0
:101E50002046F3E738B50C460546FFF79FFFA04242
:101E600010D305F10C00FFF779FF04446868B4FB58
:101E7000F0F100FB1144BFF35B8F0120EC60BFF376
:101E80005B8F38BD0020FCE72DE9FF41884669469D
:101E90000746FFF7B7FF6C4606B204EBC6060025FF
:101EA000B44209D06268206808EB0501FFF740FCE6
:101EB000636808341D44F3E729463846FFF7CAFF34
:101EC000284604B0BDE8F081F8B505460C300F4651
:101ED000FFF744FF05F1080604463046FFF73EFFD2
:101EE000A042304688BF6C68FFF738FF201A386080
:101EF00020B130462C68FFF731FF2044F8BD0000C8
:101F000073B5144606460D46FFF72EFF844228BFE0
:101F100004460190DCB101A93046FFF7D5FF019BD3
:101F200033B93268C5E90233C5E9002401200CE069
:101F30009C4238BF01942860019868608442F5D9BA
:101F40003368AB60241AEC60022002B070BD2046FA
:101F5000FBE700002DE9FF410F466946FFF7D0FF80
:101F60006C4600B204EBC0050026AC4209D0D4F8A0
:101F7000048054F8081BB8194246FFF7D9FB4644C1
:101F8000F3E7304604B0BDE8F081000038B50546FF
:101F9000FFF7E0FF044601462846FFF719FF2046F9
:101FA00038BD00007047000010B413460268146882
:101FB0000022A4465DF8044B6047000000F5805005
:101FC00090F859047047000000F5805090F85204D2
:101FD0007047000000F5805090F9580470470000E9
:101FE00050207047302383F3118800F58052D2F8D7
:101FF0009C34D2F898041844D2F894341844D2F897
:102000007C341844D2F88C341844D2F888341844FC
:10201000002383F31188704700F58050C0F85414F2
:102020000120704738B5C26A936923F001039361B8
:10203000044600F07FFE0546E36A9B69DB0706D590
:1020400000F078FE431BFA2BF6D9002004E004F5DB
:102050008054012084F8520438BD00002DE9F04F6F
:102060000C4600F5805185B01F4691F85234BDF8FA
:102070003890054690469BB1D1F878340133C1F8C9
:1020800078342368980006D4237B082B0BD9627B15
:102090000AB10F2B07D9D1F87C340133C1F87C3455
:1020A0004FF0FF3010E0302383F31188EB6AD3F850
:1020B000C42012F4001B0AD0D1F880340133C1F8D7
:1020C0008034002080F3118805B0BDE8F08FD3F88C
:1020D000C4302068C3F3014A6B6A4822002812FB0F
:1020E0000A33B4BF40F08040800418602268520078
:1020F00044BF40F000501860207B4FEA0A6242EA79
:1021000000425A60607B4FEA4A1610B342F4401214
:102110005A60D1F8B0240132C1F8B024AA1902F5EE
:102120008352117B41F020011173207B039300F057
:102130005DFE039B033080105FFA8BF282420BF14D
:10214000010B0DDA04EB820103EB82024968916016
:10215000F2E7AA1902F58352117B60F34511E3E718
:10216000EB6A012202FA0AF2C3F8CC2005EB4A110D
:10217000AB1903F5825301F58251C3E90487183185
:10218000234604F10C0253F8040B41F8040B93426C
:10219000F9D11B880B802E4441F2680346F803A056
:1021A00006F5805609F0030396F86C2043F01003FF
:1021B00022F01F02134386F86C30002383F311884A
:1021C000CDF8009042463B462146284600F0D4FD1B
:1021D000012079E713B500F580540191606CFFF799
:1021E000DDFD1F280AD90199606C2022FFF74CFE03
:1021F000A0F120035842584102B010BD0020FBE777
:1022000008B5302383F3118800F58050406CFFF748
:1022100099FD002383F3118808BD000000220260AD
:10222000828142608260704710B500220023C0E9BD
:1022300000230023044603810C30FFF7EFFF204604
:1022400010BD00002DE9F0479A4688B00746884641
:102250009146302383F3118807F580546846FFF7D1
:10226000E3FF606CFFF780FD1F282DD9606C2022F2
:102270006946FFF78BFE202826D194F852341BB311
:1022800003AD444605AB2E4603CE9E4220606160FE
:10229000354604F10804F6D130682060B388A38085
:1022A000DDE90023C9E90023BDF80830AAF80030B1
:1022B000002383F3118853464A464146384608B006
:1022C000BDE8F04700F046BD002080F3118808B05B
:1022D000BDE8F0872DE9F84F00230646C0E9013339
:1022E000284B46F8303B00F5815405468846374672
:1022F000103438462037FFF797FFA742F9D105F58C
:1023000080544FF4805326630026C4E90D36676479
:10231000012305F5835705F5A359E66384F840309A
:1023200084F84830103709F110094FF0000A4FF0D7
:10233000000B47E908ABA7F11800FFF76FFF203744
:1023400047F8286C4F45F4D184F85884A4F85A64AF
:10235000A4F85C64A4F85E6484F86064A4F8626421
:10236000A4F86464A4F8666484F86864B8F1000FA3
:1023700002D0054800F0D8FC044BEB622846BDE8CB
:10238000F88F00BF50540008345400080064004027
:1023900010B5044B197804464A1C1A70FFF79AFFCF
:1023A000204610BD6D4F00202DE9F84315460C4620
:1023B00000295CD0022001F027FF2E49B0FBF4F782
:1023C0008C428CBF0A2111214B1EB7FBF1F601FB99
:1023D0001671DAB221B1022B1946F5D8002032E08D
:1023E000731EB3F5806FF9D2C2EBC20808F1030186
:1023F0004FEAE10EC1F3C701A2EB010C0EF1010996
:102400004FF47A735FFA8CF70EFB033E59FA8CFC9B
:10241000BEFBFCFCBCF5617F17DC1FFA8CF34A1C89
:1024200057FA82F27243B0FBF2F08442D6D14A1ED0
:102430000F2AD3D87A1E072AD0D801202B806E808D
:1024400028716971AF71BDE8F88308F1FF314FEA77
:10245000E10CC1F3C701521A0CF1010ED7B20CFB0B
:1024600003335EFA82F2B3FBF2F39BB2D7E708467E
:10247000E9E700BF3F420F0030B50D4B0D4D052081
:102480001C786C438C420ED15978518099785171E7
:10249000D9789171197911715B7903EB83035B0032
:1024A0001380012030BD013803F10603E8D1F9E7BC
:1024B0009054000840420F000B4B10B54FF454727B
:1024C000044600211846FFF745F9084BA361403345
:1024D000E361D8332362F0336362E36A6061002210
:1024E000C3F8C02010BD00BF00A4004070A400408D
:1024F0002DE9F04F00F580551F4695F85834012B13
:1025000089B004468946904604D90026304609B071
:10251000BDE8F08F9A4A52F8231009B942F8230017
:102520009848C4F80C900178277499B9302383F344
:102530001188954B9A6D42F000729A659A6B42F041
:1025400000729A639A6B22F000729A6301230370FF
:1025500081F3118895F851647EB9302383F3118893
:102560000321152001F072FF0321162001F06EFFF8
:10257000012385F8513486F31188302383F31188C1
:10258000E26A936923F01003936100F0D3FB824663
:10259000E36A9E6916F0080609D000F0CBFBA0EBB9
:1025A0000A03FA2BF4D9002686F31188AEE79A695C
:1025B00042F001029A6100F0BDFB8246E36A9A692B
:1025C000D00706D400F0B6FBA0EB0A03FA2BF5D92E
:1025D000E9E79A6942F002029A61E36A4FF0000A61
:1025E000C3F854A08AF31188686CFFF7ABFB04F5BD
:1025F000825B0BF1100B202200216846FFF7AAF83E
:1026000002A8FFF70BFECDF818A06A460BEB0603F5
:102610000DF1180E9446BCE80300F44518605960AB
:10262000624603F10803F5D1DCF80000186020369B
:102630009CF804201A71B6F5806FDCD1002304F5F4
:10264000A25285F8503485F853341A324946204650
:10265000FFF7AAFE064690B9E26A936923F00103E8
:10266000936100F067FB0546E36A9B69D9077FF534
:102670004CAF00F05FFB431BFA2BF5D945E795F80B
:102680005E34C5F86C94591E95F85F34E26A013BDC
:102690001B0243EA416395F8601401390B43B5F816
:1026A0005C14013943EA0143D361B8F1000F36D01D
:1026B00004F5A352023241462046FFF7DDFE90B9F1
:1026C000E26A936923F00103936100F033FB05464E
:1026D000E36A9B69DA077FF518AF00F02BFB431B19
:1026E000FA2BF5D911E795F86724C5F87084511EC7
:1026F00095F86824E36A013A120142EA012295F84A
:10270000661401390A43B5F86414013942EA0142FA
:1027100042F40002DA60E36A4FF420629A642046D1
:10272000FFF7CAFE002385F85934E36A6FF0404290
:102730001A65E36A154A5A65E36A44229A65E36AB0
:102740000722C3F8DC20E36A03229742DA653FF4EC
:10275000DDAEE26A936923F00103936100F0EAFAC7
:102760000746E36A9B69DB0705D500F0E3FAC31B64
:10277000FA2BF6D9C9E6012385F85234C6E600BF24
:10278000684F00206C4F0020001002409B000800A2
:102790002DE9F04F054689B090469946002741F251
:1027A000680A00F58056EB6AD3F8D430FB40D807AE
:1027B00051D505EB471252444FEA471B13791907CD
:1027C00049D4D6F884340133C6F8843405F5A553CA
:1027D000C3E9008913799A0648BFD6F8B43405EBEB
:1027E0000B0248BF0133524448BFC6F8B4341379D2
:1027F00043F008031371DB0722D596F85334FBB17D
:1028000005F58254183468465C44FFF70DFD03ABB0
:1028100004F1080C206861681A4603C20834644554
:102820001346F7D120681060A2889A800123ADF882
:1028300008302B68CDE90089DB6B6946284698474C
:10284000D6F8A834D6F854040133C6F8A83410B129
:1028500003681B6998470137202FA4D109B0BDE850
:10286000F08F00002DE9F04F8DB004460F4600F0C8
:1028700063FA82468946002F56D1E36AD3F8902046
:10288000920141BF04F58051D1F898240132C1F87A
:102890009824D3F89020160703D100200DB0BDE88E
:1028A000F08FD3F89050E669C5F30125482303FB68
:1028B0000566E8464046FFF7B1FC326851004ABF62
:1028C00022F06043C2F38A4343F00043920048BFC2
:1028D00043F080430093736813F400131FBF04F5A3
:1028E000805201238DF80D30D2F8B8340EBF8DF828
:1028F0000D300133C2F8B834F38803F00F038DF8BC
:102900000C304FF0000B9DF80C0000F06FFA5FFAEE
:102910008BF3984220D9F2180CA90B44127A03F8D1
:102920002C2C0BF1010BEEE7012FB6D1E36AD3F8A3
:102930009820950141BF04F58051D1F898240132C7
:10294000C1F89824D3F898201007A6D0D3F898504F
:10295000266AC5F30125A9E7EFB9E36AC3F89450E5
:1029600004A8FFF761FC98E80F0007AD07C52B80AE
:102970000023ADF8183023682046CDE904A9DB6BAD
:1029800004A9984704F5805458B1D4F89034013321
:10299000C4F8903482E7012F04BFE36AC3F89C5067
:1029A000DEE7D4F894340133C4F89434012075E799
:1029B0002DE9F04105460F4600F5805401263946C1
:1029C0002846FFF74FFF10B184F85364F7E7D4F8B7
:1029D000A834D4F854040133C4F8A83420B10368EF
:1029E000BDE8F0411B691847BDE8F081F0B5C36A46
:1029F0001A6C12F47F0F2BD000F580541B6CC4F8B6
:102A0000AC3441F26805002347194FF0010C00EB8C
:102A100043122A445E01117911F0020F15D04907C3
:102A200013D4B959C66AD6F8C8E00CFA01F111EA14
:102A30000E0F0AD0C6F8D010117941F004011171BF
:102A4000D4F88C240132C4F88C240133202BDED13D
:102A5000F0BD000010B5254C254B226802B338B3F9
:102A60001A6D12060ED580221A6500F065F950EA3B
:102A700001020B4602D0013861F1000302462068D2
:102A8000FFF786FE1A4A136D1B032AD523684FF4FD
:102A9000002103F580531165012283F8592420E0B9
:102AA00001221A6508221A654FF480621A6510BD6A
:102AB000196DC80702D4196D890705D50321196559
:102AC00010460021FFF774FF094B1A6D100702D45E
:102AD0001A6DD10605D518221A6520680121FFF765
:102AE00067FF2068BDE81040FFF780BF684F0020F7
:102AF0000064004008B5302383F31188FFF776FFA8
:102B0000002383F3118808BDC36AD3F8C40080F49E
:102B10000010C0F34050704708B5302383F311888C
:102B200000F58050406CFFF71FF9002383F31188F4
:102B300043090CBF0120002008BD000000F58053B0
:102B400093F8592462B1C16A8A6922F001028A614C
:102B5000D3F89C240132C3F89C24002283F8592422
:102B6000704700002DE9F743302181F3118800F50B
:102B700082511031002541F2680E4FF0010800F536
:102B8000805C00EB45147444267977071CD4F60664
:102B90001AD5D0F82C908E69D9F8C87008FA06F6C4
:102BA0003E4211D04F6801970F689742019F9F41A5
:102BB0000AD2C9F8D060267946F004062671DCF8FE
:102BC00088440134CCF888440135202D01F12001DE
:102BD000D7D1002383F3118803B0BDE8F083000050
:102BE000F8B51E46002313700F4605461446FFF73E
:102BF00093FF80F0010038701EB12846FFF784FF74
:102C00002070F8BD2DE9F04F85B09946DDE90EA39F
:102C10000D4602931378019391F800B08046164652
:102C200000F08AF82B7804460F4613B93378002B4E
:102C300041D022463B464046FFF794FFFFF75AFF3C
:102C4000FFF77CFF4B4632462946FFF7C9FF2B783A
:102C500033B1BBF1000F03D0012005B0BDE8F08F08
:102C6000337813B1019B002BF6D108F58053039301
:102C7000029B544577EB03031DD2039BD3F8540406
:102C8000C8B10368AAEB04011B6898474B4632465B
:102C900029464046FFF7A4FF2B7813B1BBF1000F84
:102CA000DAD1337813B1019B002BD5D100F044F871
:102CB00004460F46DCE70020CFE7000008B50020FF
:102CC000FFF7C8FEBDE8084001F050B808B5012084
:102CD000FFF7C0FEBDE8084001F048B800B59BB062
:102CE000EFF3098168226846FEF722FDEFF30583C2
:102CF000014B9B6BFEE700BF00ED00E008B5FFF75E
:102D0000EDFF000000B59BB0EFF309816822684633
:102D1000FEF70EFDEFF30583014B5B6BFEE700BF93
:102D200000ED00E0FEE700000FB408B5029801F0E6
:102D300007FEFEE702F004B902F0E6B813B56C46F0
:102D400084E80600031D94E8030083E805000120E1
:102D500002B010BD73B58568019155B11B885B0742
:102D600007D4D0E900369B6B9847019AC1B2304630
:102D7000A847012002B070BDF0B5866889B005464D
:102D80000C465EB1BDF838305B070AD4D0E9003795
:102D90009B6B98472246C1B23846B047012009B024
:102DA000F0BD00220023CDE900230023ADF8083058
:102DB0000A4603AB01F10806106851681C4603C4BB
:102DC0000832B2422346F7D1106820609288A28070
:102DD000FFF7B2FF0423ADF808302B68CDE90001FE
:102DE000DB6B694628469847D8E70000082817D9C2
:102DF00009280CD00A280CD00B280CD00C280CD099
:102E00000D280CD00E2814BF4020302070470C2015
:102E100070471020704714207047182070472020FA
:102E2000704700002DE9F041456A15B94162BDE8DF
:102E3000F0814B6823F06047C3F38A464FEAD37EA4
:102E4000C3F3807816EA230638BF3E46AC462B46CD
:102E50005A68BEEBD27F22F060440AD0002A18DA0A
:102E6000A40CB44217D19D420FD10D60DEE713468A
:102E7000EEE7A74207D102F08044C2F380724245D8
:102E80000BD054B1EFE708D2EDE7CCF800100B609F
:102E9000CDE7B44201D0B442E5D81A689C46002A76
:102EA000E5D11960C3E700002DE9F047089D01F066
:102EB00007044FEAD508224405F0070500EBD100CE
:102EC0004FF47F49944201D1BDE8F08704F0070731
:102ED00005F0070A57453E4638BF5646C6F1080674
:102EE000111B8E4228BF0E46E10808EBD50E415C4F
:102EF00013F80EC0B94029FA06F721FA0AF1FFB219
:102F00008CEA010147FA0AF739408CEA010C03F810
:102F10000EC034443544D5E780EA0120082341F24D
:102F2000210201B24000002980B203F1FF33B8BF93
:102F3000504013F0FF03F4D17047000038B50C4641
:102F40008D18A54200D138BD14F8011BFFF7E4FF2E
:102F5000F7E7000042684AB11368436043898189FA
:102F600001339BB29942438138BF83811046704739
:102F700070B588B0202204460D4668460021FEF751
:102F8000E9FB20460495FFF7E5FF024658B16B4682
:102F9000054608AE1C4603CCB4422860696023464F
:102FA00005F10805F6D1104608B070BD082817D9FC
:102FB00009280CD00A280CD00B280CD00C280CD0D7
:102FC0000D280CD00E2814BF4020302070470C2054
:102FD0007047102070471420704718207047202039
:102FE00070470000082817D90C280CD910280CD9D4
:102FF00014280CD918280CD920280CD930288CBFBB
:103000000F200E207047092070470A2070470B20C0
:1030100070470C2070470D20704700002DE9F843E1
:10302000078C072F04461ED9D0E9029800254FF6D9
:10303000FF73C5F12006A5F1200029FA05F108FA71
:1030400006F628FA00F031430143C9B21846FFF7EB
:1030500063FF0835402D0346EBD1E1693A46BDE8F0
:10306000F843FFF76BBF4FF6FF70BDE8F883000031
:1030700010B54B6823B9CA8A63F30902CA8210BD2E
:1030800004691A681C600361C38A013BC3824A60F9
:10309000EFE700002DE9F84F1D46CB8A0F46C3F33A
:1030A00009010529814692460B4630D00020AAB27C
:1030B00007F11A049EB2042E1FFA80F80FD890452B
:1030C00003F1010306D3FB8A0A4462F30903FB827E
:1030D00001201AE01AF80060E6540130EAE7904552
:1030E000F1D2A1F1050B1C237C68BBFBF3F203FBBF
:1030F00012BB1FFA8BF6002C45D14846FFF72AFF7A
:10310000044638B978606FF00200BDE8F88F4FF0E0
:103110000008E6E7002606607860ADB24FF0000BCD
:10312000454510D90AEB0803221D13F8011B9155E0
:10313000B1B208F101081B291FFA88F82BD04545C8
:1031400006F10106F1D8FB8AC3F30902154465F3C1
:103150000903BCE7013292B21C462368002BF9D167
:103160006B1F0B441C21B3FBF1F301339BB29A425A
:10317000D3D2BBF1000FD0D14846FFF7EBFE20B908
:10318000C4F800B0BFE70122E7E7C0F800B05E4630
:1031900020600446C1E74545D5D94846FFF7DAFE29
:1031A00008B92060AFE7C0F800B0002620600446F0
:1031B000B6E700002DE9F04F2DED028B1C4683B0E1
:1031C0005B69019207468846002B00F09A80238CA9
:1031D0002BB1E269002A00F09480072B35D807F163
:1031E0000C00FFF7B7FE054638B96FF00205284618
:1031F00003B0BDEC028BBDE8F08F14220021FEF776
:10320000A9FA228CE16905F10800FEF791FA208CF9
:10321000013080B2FFF7E6FEFFF7C8FE013880B24A
:103220002084013028746369228C1B782A4403F0BF
:103230001F0363F03F0348F0004113723846696092
:103240002946FFF7EFFD0125D1E700F10C034FF010
:10325000000908EE103A4FF0800A4E464D4618EE2F
:10326000100AFFF777FE83460028BED01422002103
:10327000FEF770FA002E3AD1019BABF8083002221B
:103280000BF1080E1FFA82FC0CF10100BCF1060FD5
:10329000218C80B201D88E422BD3FFF7A3FEFFF71B
:1032A00085FE62691278013802F01F028E4208BF63
:1032B0004FF0400A42EA49121BFA80F14AEA020A38
:1032C000013048F0004281F808A08BF81000CBF8DC
:1032D000042059463846FFF7A5FD238C0135B3423B
:1032E0002DB289F001094FF0000AB8D17FE7002222
:1032F000C6E7E169895D0EF802100136B6B2013207
:10330000C0E76FF0010572E7F8B515460E463022AA
:10331000002104461F46FEF71DFA069B6360B5F5C3
:10332000001F079BA76034BF6A094FF6FF72A362B4
:1033300097B2E66104F1100000239A4206D80023F8
:103340000360A782E3822383E360F8BD0660013354
:1033500030462036F1E7000003781BB94BB2002B52
:10336000C8BF01707047000000787047F8B50C4680
:10337000C969074611B9238C002B37D1257E1F2D33
:1033800034D8387828BB228C072A2CD8268A36F0E5
:1033900003032BD14FF6FF70FFF7D0FD20F00100A3
:1033A0003102400441EA0561400C41EA40254FF6F4
:1033B000FF72234629463846FFF7FCFE002807DD4A
:1033C000626913780133DBB21F2B88BF00231370AF
:1033D000F8BD218A2D0645EA012505432046FFF761
:1033E0001DFE0246E5E76FF00300F1E76FF0010014
:1033F000EEE7000070B58AB0044616460021282288
:1034000068461D46FEF7A6F9BDF83830ADF8103015
:103410000F9B05939DF840308DF81830119B079352
:103420006946BDF84830ADF820302046CDE9026548
:10343000FFF79CFF0AB070BD2DE9F041D369054646
:103440000C4616460BB9138C5BBB377E1F2F28D852
:1034500095F80080B8F1000F26D03046FFF7DEFD6A
:103460003378210241EAC33141EA0801338A41EA53
:10347000076141EA03410246334641F08001284694
:10348000FFF798FE00280ADD3378012B07D1726917
:1034900013780133DBB21F2B88BF00231370BDE804
:1034A000F0816FF00100FAE76FF00300F7E700002A
:1034B000F0B58BB004460D46174600212822684619
:1034C0001E46FEF747F99DF84C305A1E53425341B1
:1034D0008DF800309DF84030ADF81030119B059309
:1034E0009DF848308DF81830149B07936A46BDF854
:1034F0005430ADF8203029462046CDE90276FFF75A
:103500009BFF0BB0F0BD0000406A00B10430704773
:10351000436A1A68426202691A600361C38A013B06
:10352000C38270472DE9F041D0F82080194E14462F
:103530001D464146002709B9BDE8F081D1E90223C3
:10354000A21A65EB0303964277EB03031ED2036ACC
:103550008B420DD1FFF78CFD036A1B680362036980
:103560000B60C38A0161016A013BC3828846E2E7BE
:10357000FFF77EFD0B68C8F8003003690B60C38A53
:103580000161013BC382D8F80010D4E7884609687E
:10359000D1E700BF80841E002DE9F04F8BB00D46AF
:1035A000DDF8509014469B468046002800F01981B3
:1035B000B9F1000F00F01581531E3F2B00F211816D
:1035C000012A03D1BBF1000F40F00B810023CDE9AC
:1035D0000833B8F81430B5EBC30F4FEAC30703D371
:1035E00000200BB0BDE8F08F2B199F42D8F80C30AB
:1035F0003ABF7F1BFFB227461BB9D8F81030002B0B
:103600007AD0272D4ED8C5F12806B7424FF00003D7
:103610002CBFF6B23E4600932946D8F8080008AB06
:103620003246FFF741FCA7EB060A35445FFA8AFAF7
:10363000B8F8143003F10053053BDB000493D8F8CD
:103640000C3003932821039B13B1BAF1000F2CD146
:10365000D8F8100040B1BAF1000F05D0009608ABC1
:103660005246691AFFF720FC38B2002FB8D066071F
:103670000AD00AAB03EBD401624211F8083C02F015
:103680000702134101F8083C082C3CD9102C40F2E9
:10369000B580202C40F2B780BBF1000F00F09C8079
:1036A000082334E0BA460026C2E7049BE02B28BF7B
:1036B000E02306930B44AB42059314D95A1B03989D
:1036C0000096924534BF5246D2B2691A08AB043014
:1036D0000792FFF7E9FB079A1644AAEB020A154482
:1036E000F6B25FFA8AFA049B069A05999B1A04932C
:1036F000039B1B680393A6E70093D8F8080008AB68
:103700003A462946AEE7BBF1000F13D00123B4EBD4
:10371000C30F6CD0082C12D89DF82030621E23FAFB
:1037200002F2D50706D54FF0FF3202FA04F4234324
:103730008DF820309DF8203089F8003051E7102CAA
:1037400012D8BDF82030621E23FA02F2D10706D546
:103750004FF0FF3202FA04F42343ADF82030BDF8F5
:103760002030A9F800303CE7202C0FD80899631EC0
:1037700021FA03F3DA0705D54FF0FF3202FA04F419
:103780000C430894089BC9F800302AE7402C2BD042
:10379000DDE90865611EC4F12102A4F1210326FAC6
:1037A00001F105FA02F225FA03F311431943CB079D
:1037B00012D50122A4F12003C4F1200102FA03F37F
:1037C00022FA01F1A240524243EA010363EB4303B0
:1037D00032432B43CDE90823DDE90823C9E900235F
:1037E000FFE66FF00100FCE66FF00800F9E6082C38
:1037F000A0D9102CB3D9202CEED8C3E7BBF1000F11
:10380000ADD0022383E7BBF1000FBBD004237EE7DA
:1038100030B5012A144638BF0124402C85B028BF9A
:1038200040240025012ACDE9025518D81B788DF8CF
:10383000083063070AD004AB03EBD405624215F8E5
:10384000083C02F00702934005F8083C009103464B
:103850002246002102A8FFF727FB05B030BD082A49
:10386000E4D9102A03D81B88ADF80830E1E7202AF4
:103870008DBFD3E900231B680293CDE90223D8E76B
:1038800010B5CB681BB98B600B618B8210BD0469CE
:103890001A681C600361C38A013BC382CA60F0E7F7
:1038A00003064CBFC0F3C0300220704708B5024683
:1038B000FFF7F6FF022806D15306C2F30F2001D10D
:1038C00000F0030008BDC2F30740FBE72DE9F04F0D
:1038D00093B0CDE903230A6804461046FFF7E0FFE2
:1038E000022814BFC2F306260026002A0D4682468F
:1038F00080F2F28112F0C04940F0EE81097B00298C
:1039000000F0EA81022803D02378B34240F0E78137
:10391000C2F304630693104602F07F030593FFF79A
:10392000C5FF059B29444FEA834848EA0A4848EA0C
:103930004668CE7800230022CDE90823F3098346A8
:1039400048EA0008029367D0059B00930246676827
:10395000534608A92046B847002800F0C381276ACB
:103960004FB9414604F10C00FFF702FB074690B93E
:103970006FF0020054E03B6998450DD03F68002F7E
:10398000F9D1414604F10C00FFF7F2FA074600288E
:10399000EED0236A3B60276297F817C006F01F0835
:1039A000CCF3840CACEB08001FFA80FE0028B8BFF3
:1039B0000EF12000A8EB0C031FFA83FED7E90221C9
:1039C000B8BF00B2002B0793BEBF0EF120031BB29D
:1039D000079352EA010338D0039BDFF824E39A1AD5
:1039E000049B4FF0000C63EB010196457CEB010357
:1039F0002BD36B7B97F81AE0734519D1029B002BF0
:103A000078D0012821DC7868F8B9DFF8F0C2944555
:103A100070EB010316D337E0276A27B96FF00C006B
:103A200013B0BDE8F08F3B699845B5D03F68F4E727
:103A3000B24890427CEB010301D30020F0E7029BE7
:103A4000002BFAD0079B0F2B17DCFA7DB30002F096
:103A5000030203F07C031343FB7539462046FFF74E
:103A600007FB6B7BBB76029B3BB9FB7DC3F38402F8
:103A7000013262F38603FB75D0E76A7BBB7E9A4214
:103A8000DBD1029B002B35D0B309022B32D0039B34
:103A9000BB60049BFB60142200210DA8FDF75AFEB9
:103AA000039B0A93049B0B932B1D0C932B7BADF86C
:103AB0003EB0013BDBB2ADF83C30069B8DF84230A6
:103AC000059B8DF8433094F82C308DF840A083F09E
:103AD00001038DF844308DF84180A3680AA920467F
:103AE0009847FB7DC3F38403013303F01F039B025C
:103AF000FB82A2E7FB7DC6F34012B2EBD31F40F07E
:103B0000F480C3F38403434540F0F280029A2B7B98
:103B1000B609002A4DD0F2075DD4032B40F2EB80AA
:103B2000039BBB60049BFB602B7BAE1D033BDBB2A6
:103B30003246394604F10C00FFF7ACFA00280CDAE3
:103B400039462046FFF794FAFB7DC3F38403013323
:103B500003F01F039B02FB820AE7DDE90884AB88C0
:103B60003B834FF6FF73C9F12000A9F1200228FA28
:103B700009F104FA00F0014324FA02F21143184655
:103B8000C9B2FFF7C9F909F10809B9F1400F0346B5
:103B9000E9D1B8822A7B033AD2B23146FFF7CEF997
:103BA000FB7DB882DA43C2F3C01262F3C713FB7520
:103BB00043E786B92E1D013BDBB23246394604F19C
:103BC0000C00FFF767FA0028BADB2A7BB88A013AB3
:103BD000D2B23146E2E7F98AC1F30901013B042977
:103BE000DAB25BD8281D002307F11B069A4208D9D8
:103BF00010F801CB06F801C0013101330529DBB211
:103C0000F4D103990A9104990B91934207F11B0196
:103C10000C9138BF043379680D9134BF55FA83F3A2
:103C200000230E93FB8AADF83EB0C3F309031A4498
:103C3000069B8DF84230059B8DF8433094F82C306C
:103C4000ADF83C2083F001038DF8443000238DF85B
:103C500040A08DF841807B602A7BB88A013A291DFB
:103C6000FFF76CF93B8BB882834203D1A3680AA9A2
:103C70002046984720460AA9FFF702FEFB7DBA8A34
:103C8000C3F38403013303F01F039B02FB823B8BCE
:103C90009A420CBF00206FF01000C1E67B68002B39
:103CA000AFD0052001E01C3033461E68002EFAD14B
:103CB000091A081D2E1D184401EB090CBCF11B0F3D
:103CC0005FFA89F39DD89A429BD916F8013B00F818
:103CD000013B09F10109EFE76FF00900A0E66FF081
:103CE0000A009DE66FF00B009AE66FF00D0097E674
:103CF0006FF00E0094E66FF00F0091E640420F0067
:103D000080841E00EFF3098305494A6B22F001020B
:103D10004A63683383F30988002383F3118870476B
:103D200000EF00E0302080F3118862B60C4B0D4AA2
:103D3000D96821F4E0610904090C0A43DA60D3F878
:103D4000FC20094942F08072C3F8FC200A6842F066
:103D500001020A602022DA7783F82200704700BF50
:103D600000ED00E00003FA05001000E010B530237C
:103D700083F311880E4B5B6813F4006314D0F1EEEB
:103D8000103AEFF30984683C4FF08073E361094B0C
:103D9000DB6B236684F3098800F09CFD10B1064BB1
:103DA000A36110BD054BFBE783F31188F9E700BF62
:103DB00000ED00E000EF00E03F03000842030008D0
:103DC000026843681143016003B11847704700005F
:103DD000024A136843F0C003136070470038014083
:103DE00013B50F4C204600F0DBFC04F114000D4924
:103DF000009400234FF4807200F098FB0A490B4BAB
:103E000000944FF4807204F1380000F011FC084B6C
:103E1000E365002000F0F8F9206602B010BD00BF95
:103E2000744F0020E04F0020E0500020D13D0008FA
:103E30000038014030B5037C234C002918BF0C46E4
:103E4000012B0FD1214B98420CD1214B1A6E42F419
:103E500080421A66D3F8802042F48042C3F8802062
:103E6000D3F880302268036EC16D846603EB520381
:103E7000B3FBF2F36268150442BF23F0070503F0B9
:103E8000070343EA4503CB60A36843F040034B605C
:103E9000E36843F001038B6042F4967343F001033F
:103EA0000B604FF0FF330B62510505D512F0102265
:103EB00005D0B2F1805F04D080F8643030BD7F233C
:103EC000FAE73F23F8E700BFB0540008744F002022
:103ED000001002402DE9F047C66D3768F46934627E
:103EE0002107054619D014F0080118BF4FF480715E
:103EF000E20748BF41F02001A30748BF41F040015D
:103F0000600748BF41F08001302383F31188281DEA
:103F1000FFF756FF002383F31188E2050AD530230B
:103F200083F311884FF48061281DFFF749FF0023B8
:103F300083F311884FF030094FF0000A14F0200885
:103F400038D13B0616D54FF0300905F1380A200666
:103F500010D589F31188504600F09EFB002836DA10
:103F60000821281DFFF72CFF27F080033360002372
:103F700083F31188790614D5620612D5302383F3B2
:103F80001188D5E913239A4208D12B6C33B1102143
:103F9000281D27F04007FFF713FF3760002383F346
:103FA0001188E30618D5AA6E1369ABB1BDE8F047D6
:103FB0005069184789F31188736A95F86410284688
:103FC000194000F007FC8AF31188F469B6E7B06283
:103FD00088F31188F469BAE7BDE8F087434B4FF4E2
:103FE000007270B51A605A6912F4C06FFBD1404B71
:103FF0009A6802F00C02042A20D01A6842F48072F7
:104000001A601A685205FCD501229A609A6802F07B
:104010000C02042AFAD13749374A0A600A6812F0BA
:104020000F02FBD1C3F8982063221A601A68960326
:10403000FCD42E4A4FF48071C2F88010C468E503A6
:1040400006D51A6842F480321A601A689103FCD5CA
:10405000C269D20709D5D3F8982042F00102C3F80B
:104060009820D3F898209607FBD54269DA6044F48B
:1040700080721A6004F0807111B11A689501FBD545
:10408000996802691B4E22F0030501F003012943E0
:10409000996085693560316869400907FBD113492A
:1040A00005680D6046684E608068C1F880006E0447
:1040B00017D448698505FCD4996802F0030021F003
:1040C00003010143996092009968514011F00C0F6F
:1040D000FAD1E2055EBF1A6822F480721A600020ED
:1040E00070BD48698005FCD5E6E700BF0070004060
:1040F00000100240002002400006040008B500F055
:1041000091F9BDE8084000F065B9000010B5394CE0
:104110003948A36A4FF0FF32A262A36A0023A36268
:10412000A16AE16A61F07F01E162E16A01F07F0169
:10413000E162E16A216B2263216B2363216BA16B36
:10414000A263A16BA363A16BE16BE263E16BE36329
:10415000E16B216C2264226C2364226C226E42F09B
:1041600001022266D4F8802022F00102C4F88020E7
:10417000D4F88020A26D42F08052A265A26F22F096
:104180008052A267A26F1D4A4FF400419160D36034
:10419000136253629362D362136353639363D36373
:1041A000136453649364D36413655365116841F4D5
:1041B00080711160D4F8902012F4407F1EBF4FF43C
:1041C0008032C4F89020C4F890300D4A0023A360D8
:1041D000C4F88820C4F89C30FFF700FF10B10948EC
:1041E00000F0AEFBD4F8903023F00323C4F89030F5
:1041F00010BD00BF00100240D05400080070004005
:1042000055010051C8540008014B53F82000704775
:1042100028230020074A08B5536903F001035361BE
:1042200023B1054A13680BB150689847BDE80840B0
:10423000FFF79CBD000401406C540020074A08B5FC
:10424000536903F00203536123B1054A93680BB12C
:10425000D0689847BDE80840FFF788BD00040140DA
:104260006C540020074A08B5536903F004035361F6
:1042700023B1054A13690BB150699847BDE808405E
:10428000FFF774BD000401406C540020074A08B5D4
:10429000536903F00803536123B1054A93690BB1D5
:1042A000D0699847BDE80840FFF760BD00040140B1
:1042B0006C540020074A08B5536903F0100353619A
:1042C00023B1054A136A0BB1506A9847BDE808400C
:1042D000FFF74CBD000401406C540020164B10B594
:1042E0005C6904F478725A61A30604D5134A936A90
:1042F0000BB1D06A9847600604D5104A136B0BB116
:10430000506B9847210604D50C4A936B0BB1D06BC8
:104310009847E20504D5094A136C0BB1506C9847D5
:10432000A30504D5054A936C0BB1D06C9847BDE842
:104330001040FFF71BBD00BF000401406C5400207B
:10434000194B10B55C6904F47C425A61620504D5CE
:10435000164A136D0BB1506D9847230504D5134AC7
:10436000936D0BB1D06D9847E00404D50F4A136EDE
:104370000BB1506E9847A10404D50C4A936E0BB153
:10438000D06E9847620404D5084A136F0BB1506F82
:104390009847230404D5054A936F0BB1D06F984713
:1043A000BDE81040FFF7E2BC000401406C5400205F
:1043B00008B50348FFF78EFDBDE80840FFF7D6BCFF
:1043C000744F002008B500F0D9FEBDE80840FFF7A3
:1043D000CDBC0000062108B5084600F037F80621DC
:1043E000072000F033F80621082000F02FF80621FE
:1043F000092000F02BF806210A2000F027F80621FA
:10440000172000F023F80621282000F01FF80721CC
:104410001C2000F01BF8BDE808400C21252000F00E
:1044200015B800004FF0E023002258684FF0FF312C
:10443000930003F1604303F5614301329042C3F8F6
:104440008010C3F88011F3D27047000000F1604380
:1044500003F561430901C9B283F80013012200F09A
:104460001F039A4043099B0003F1604303F5614336
:10447000C3F880211A607047F8B51546826806694E
:10448000AA420B46816938BF8568761AB542044650
:104490000BD218462A46FDF74BF9A3692B44A361BA
:1044A000A3685B1BA3602846F8BD0CD918463246AA
:1044B000FDF73EF9AF1BE1683A463044FDF738F9A5
:1044C000E3683B44EBE718462A46FDF731F9E36819
:1044D000E5E7000083689342F7B51546044638BF08
:1044E0008568D0E90460361AB5420BD22A46FDF73A
:1044F0001FF963692B446361A36828465B1BA360B3
:1045000003B0F0BD0DD932460191FDF711F90199C3
:10451000E068AF1B3A463144FDF70AF9E3683B44D3
:10452000E9E72A46FDF704F9E368E4E710B50A4431
:104530000024C361029B8460C0E90000C0E905114A
:10454000C1600261036210BD08B5D0E90532934233
:1045500001D1826882B98268013282605A1C42614C
:104560001970D0E904329A4224BFC3684361002124
:1045700000F052FA002008BD4FF0FF30FBE70000CA
:1045800070B5302304460E4683F31188A568A5B1A3
:10459000A368A269013BA360531CA361157822693B
:1045A000934224BFE368A361E3690BB120469847B7
:1045B000002383F31188284607E03146204600F0A7
:1045C0001BFA0028E2DA85F3118870BD2DE9F74F58
:1045D00004460E4617469846D0F81C904FF0300A15
:1045E0008AF311884FF0000B154665B12A46314613
:1045F0002046FFF741FF034660B94146204600F0E0
:10460000FBF90028F1D0002383F31188781B03B055
:10461000BDE8F08FB9F1000F03D001902046C847E4
:10462000019B8BF31188ED1A1E448AF31188DCE795
:10463000C0E90511C160C3611144009B8260C0E9FB
:104640000000016103627047F8B504460D46164646
:10465000302383F31188A768A7B1A368013BA36047
:1046600063695A1C62611D70D4E904329A4224BF06
:10467000E3686361E3690BB120469847002080F34B
:10468000118807E03146204600F0B6F90028E2DA4A
:1046900087F31188F8BD0000D0E905239A4210B5D0
:1046A00001D182687AB98268013282605A1C8261C3
:1046B0001C7803699A4224BFC3688361002100F01B
:1046C000ABF9204610BD4FF0FF30FBE72DE9F74F67
:1046D00004460E4617469846D0F81C904FF0300A14
:1046E0008AF311884FF0000B154665B12A46314612
:1046F0002046FFF7EFFE034660B94146204600F032
:104700007BF90028F1D0002383F31188781B03B0D4
:10471000BDE8F08FB9F1000F03D001902046C847E3
:10472000019B8BF31188ED1A1E448AF31188DCE794
:10473000026843681143016003B1184770470000E5
:104740001430FFF743BF00004FF0FF331430FFF782
:104750003DBF00003830FFF7B9BF00004FF0FF3316
:104760003830FFF7B3BF00001430FFF709BF000077
:104770004FF0FF311430FFF703BF00003830FFF770
:1047800063BF00004FF0FF323830FFF75DBF00001D
:10479000012914BF6FF0130000207047FFF720BB02
:1047A000044B03600023C0E9023343600123037418
:1047B000704700BFF054000810B53023044683F35F
:1047C0001188FFF737FB02232374002080F3118840
:1047D00010BD000038B5C36904460D461BB904215D
:1047E0000844FFF7A5FF294604F11400FFF7ACFECB
:1047F000002806DA201D4FF40061BDE83840FFF7BD
:1048000097BF38BD00230375826803691B689968E8
:104810009142FBD25A680360426010605860704752
:1048200000230375826803691B6899689142FBD86D
:104830005A680360426010605860704708B50846C7
:10484000302383F311880B7D032B05D0042B0DD06F
:104850002BB983F3118808BD8B6900221A604FF0D1
:10486000FF338361FFF7CEFF0023F2E7D1E9003287
:1048700013605A60F3E70000FFF7C4BF054BD96827
:104880000875186802681A60536001220275D860C2
:10489000FBF740BDE051002030B50C4BDD684B1CF0
:1048A00087B004460FD02B46094A684600F046F907
:1048B0002046FFF7E3FF009B13B1684600F048F97C
:1048C000A86907B030BDFFF7D9FFF9E7E051002034
:1048D0003D480008044B1A68DB6890689B68984262
:1048E00094BF002001207047E0510020084B10B514
:1048F0001C68D86822681A60536001222275DC6047
:10490000FFF78EFF01462046BDE81040FBF702BDD1
:10491000E051002038B5074C07490848012300251D
:104920002370656000F058FC0223237085F3118822
:1049300038BD00BF485400201C550008E05100203D
:1049400008B572B6044B186500F0C8FA00F078FBA1
:10495000024B03221A70FEE7E05100204854002069
:1049600000F02CB98B60022308618B8208467047E7
:104970008368A3F1840243F8142C026943F8442CA1
:10498000426943F8402C094A43F8242CC26843F892
:10499000182C022203F80C2C002203F80B2C044ADA
:1049A00043F8102CA3F12000704700BF2D0300082E
:1049B000E051002008B5FFF7DBFFBDE80840FFF736
:1049C0005BBF0000024BDB6898610F20FFF756BF0A
:1049D000E0510020302383F31188FFF7F3BF00007C
:1049E00008B50146302383F311880820FFF754FFF0
:1049F000002383F3118808BD064BDB6839B1426898
:104A000018605A60136043600420FFF745BF4FF001
:104A1000FF307047E05100200368984206D01A68C2
:104A20000260506099611846FFF726BF704700008A
:104A300010B503689C68A2420CD85C688A600B6061
:104A40004C602160596099688A1A9A604FF0FF3370
:104A5000836010BD1B68121BECE700000A2938BFF9
:104A60000A2170B504460D460A26601900F0AEFB17
:104A700000F09AFB041BA54203D8751C2E46044681
:104A8000F3E70A2E04D9BDE87040012000F0E4BB32
:104A900070BD0000F8B5144B0D46D96103F110014B
:104AA00041600A2A1969826038BF0A2201604860A1
:104AB0001861A818144600F07BFB0A2700F074FB6D
:104AC000431BA342064606D37C1C281900F07EFB3C
:104AD00027463546F2E70A2F04D9BDE8F840012001
:104AE00000F0BABBF8BD00BFE0510020F8B50646A3
:104AF0000D4600F059FB0F4A134653F8107F9F42B2
:104B000006D12A4601463046BDE8F840FFF7C2BF4D
:104B1000D169BB68441A2C1928BF2C46A34202D97C
:104B20002946FFF79BFF224631460348BDE8F8407F
:104B3000FFF77EBFE0510020F051002010B4C0E923
:104B4000032300235DF8044B4361FFF7CFBF000050
:104B500010B5194C236998420DD0D0E90032816814
:104B600013605A609A680A449A60002303604FF009
:104B7000FF33A36110BD2346026843F8102F536032
:104B80000022026022699A4203D1BDE8104000F081
:104B900017BB936881680B44936000F005FB2269A2
:104BA000E1699268441AA242E4D91144BDE8104078
:104BB000091AFFF753BF00BFE05100202DE9F0476D
:104BC000DFF8BC8008F110072C4ED8F8105000F028
:104BD000EBFAD8F81C40AA68031B9A423ED814444A
:104BE000D5E900324FF00009C8F81C4013605A6044
:104BF000C5F80090D8F81030B34201D100F0E0FAC7
:104C000089F31188D5E9033128469847302383F387
:104C100011886B69002BD8D000F0C6FA6A69A0EB46
:104C200004094A4582460DD2022000F015FB0022FD
:104C3000D8F81030B34208D151462846BDE8F047B5
:104C4000FFF728BF121A2244F2E712EB090938BF16
:104C50004A4629463846FFF7EBFEB5E7D8F810304C
:104C6000B34208D01444211AC8F81C00A960BDE85A
:104C7000F047FFF7F3BEBDE8F08700BFF05100201A
:104C8000E051002038B500F08FFA054AD2E9084516
:104C9000031B181945F10001C2E9080138BD00BF26
:104CA000E051002000207047FEE700007047000040
:104CB0004FF0FF3070470000BFF34F8F024A136977
:104CC000DB03FCD4704700BF0020024008B5094B4D
:104CD0001B7873B9FFF7F0FF074B5A69002ABFBF73
:104CE000064A9A6002F188329A601A6822F4806259
:104CF0001A6008BD6054002000200240230167456F
:104D000008B50B4B1B7893B9FFF7D6FF094B5A69CF
:104D100042F000425A611A6842F480521A601A68DE
:104D200022F480521A601A6842F480621A6008BD48
:104D300060540020002002407F289ABF00F5803098
:104D4000C0020020704700004FF400607047000070
:104D5000802070477F2808B50BD8FFF7EDFF00F5DE
:104D600000630268013204D104308342F9D101208A
:104D700008BD0020FCE700007F2810B504461FD8BE
:104D8000FFF79AFFFFF7A2FF0E4BF3221A610222F0
:104D90005A615A6942EAC0025A615A6942F4803241
:104DA0005A61FFF789FF4FF40061FFF7C5FF00F07C
:104DB00043F9FFF7A5FF2046BDE81040FFF7CABF43
:104DC000002010BD002002402DE9F84340EA020314
:104DD00013F00703144606D0304B40F241321A60FC
:104DE0000020BDE8F88385182D4A95420CD92B4A3E
:104DF00040F246311160F3E7031D1B684A68934295
:104E000008D1083C08300831072C14D902680B6817
:104E10009A42F1D0FFF75AFFFFF74EFF214E0831BB
:104E20004FF001084FF00009012CA1F1080706D846
:104E3000FFF766FF01E0002CECD10120D1E7C6F8B6
:104E40001480054651F8083C45F8043B51F8043CF1
:104E50004360FFF731FF336943F001033361C6F864
:104E60001490026851F8083C9A420CD00B4B40F267
:104E70006E321A600C4B18600C4B1C600C4B1F60A0
:104E8000FFF73EFFACE72D6851F8043C9D4201F16D
:104E90000801EBD1083C0830C6E700BF5C54002095
:104EA0000000040800200240505400205854002004
:104EB00054540020084908B50B7828B11BB9FFF7F6
:104EC00005FF01230B7008BD002BFCD0BDE8084096
:104ED0000870FFF715BF00BF6054002008B50649F1
:104EE000064800F0ABF8BDE808404FF480414FF0B1
:104EF000805000F0A3B800BF007F01000001002037
:104F0000084600F037BA000038B5EFF311859DB9B7
:104F1000EFF30584C4F30804302334B183F311881C
:104F2000FFF7B0FE85F3118838BD83F31188FFF7D2
:104F3000A9FE84F3118838BDBDE83840FFF7A2BE52
:104F400038B5FFF7E1FF114C114AC00840EA417043
:104F5000A0FB025EC908A0FB040C1CEB050CA1FB26
:104F600004404FF000035B41A1FB02121CEB040C58
:104F700043EB000011EB0E0142F10002411842F137
:104F80000000090941EA007038BD00BFCFF753E3C4
:104F9000A59BC4200244D2B2904200D17047431C6A
:104FA000800000F1804000F51450006841F8040BC7
:104FB000D8B2F1E7124B10B5D3F89040240409D4CD
:104FC000D3F89040C3F89040D3F8904044F40044A4
:104FD000C3F890400B4C2368024443F48073236071
:104FE000D2B2904200D110BD431C800000F180403D
:104FF00000F5145051F8044B0460D8B2F1E700BF3B
:10500000001002400070004007B5012201A90020F5
:10501000FFF7C0FF019803B05DF804FB13B5044629
:10502000FFF7F2FFA04205D0012201A90020019460
:10503000FFF7C0FF02B010BD7047000070470000CE
:1050400070470000074B45F255521A6002225A6021
:1050500040F6FF729A604CF6CC421A60024B012275
:105060001A7070470030004068540020034B1B78D2
:105070001BB1034B4AF6AA221A60704768540020FD
:1050800000300040054B1A6832B902F1804202F547
:105090000432D2F894201A60704700BF6454002094
:1050A000024B4FF40002C3F89420704700100240F6
:1050B00008B5FFF7E7FF024B1868C0F3407008BD62
:1050C0006454002070470000FEE700000A4B0B48C4
:1050D0000B4A90420BD30B4BDA1C121AC11E22F062
:1050E00003028B4238BF00220021FCF733BB53F888
:1050F000041B40F8041BECE7AC560008EC540020FD
:10510000EC540020EC5400200023054A19460133DA
:10511000102BC2E9001102F10802F8D1704700BF5C
:105120006C54002008B5124B9A6D42F001029A654A
:105130009A6F42F001029A670E4A9B6F936843F0A0
:10514000010393600620FFF75FF80B4BB0FBF3F011
:105150004FF080434FF0FF3201389862DA6200224C
:105160009A615A63DA605A6001225A611A6008BD76
:1051700000100240002004E040420F004FF0804247
:1051800008B51169D3680B40D9B2C9439B071161B7
:1051900007D5302383F31188FFF7E2FB002383F365
:1051A000118808BDFFF7BEBF4FF08043586A7047B3
:1051B0004FF08043002258631A610222DA60704780
:1051C0004FF080430022DA60704700004FF08043C8
:1051D00058637047FEE7000070B51B4B0163002564
:1051E000044686B0586085620E46FEF79BFD04F1CA
:1051F0001003C4E904334FF0FF33C4E90635C4E9B2
:105200000044A560E562FFF7CFFF2B460246C4E9E4
:10521000082304F134010D4A256580232046FFF759
:10522000A1FB0123E0600A4A0375009272680192B3
:10523000B268CDE90223074B6846CDE90435FFF794
:10524000B9FB06B070BD00BF4854002028550008C7
:105250002D550008D5510008024AD36A1843D06280
:10526000704700BFE05100204B6843608B6883604B
:10527000CB68C3600B6943614B6903628B6943620E
:105280000B6803607047000008B5204BDA6A42F0F3
:105290007F02DA62DA6A22F07F02DA62DA6ADA6CB4
:1052A00042F07F02DA64DA6E42F07F02DA66184A70
:1052B000DB6E11464FF09040FFF7D6FF02F11C0164
:1052C00000F58060FFF7D0FF02F1380100F5806043
:1052D000FFF7CAFF02F1540100F58060FFF7C4FF39
:1052E00002F1700100F58060FFF7BEFF02F18C0152
:1052F00000F58060FFF7B8FF02F1A80100F58060BB
:10530000FFF7B2FFBDE80840FEF700BF0010024003
:105310003455000808B500F009F8FFF7FBFABDE8BE
:105320000840FFF7AFBE00007047000008B5FEF769
:10533000E5FEFFF7E9FEFFF731FAFFF7F5FFBDE8FD
:105340000840FFF72FBF00000B460146184600F04B
:1053500003B8000000F00EB810B5054C13462CB190
:105360000A4601460220AFF3008010BD2046FCE74C
:1053700000000000024B01461868FFF7C1BD00BFE6
:105380005023002010B501390244904201D1002081
:1053900005E0037811F8014FA34201D0181B10BD9E
:1053A0000130F2E72DE9F041A3B1C91A17780144A1
:1053B000044603F1FF3C8C42204601D9002009E05D
:1053C0000578BD4204F10104F5D10CEB0405D618B3
:1053D000A54201D1BDE8F08115F8018D16F801ED67
:1053E000F045F5D0E7E70000034611F8012B03F87C
:1053F000012B002AF9D170476F72672E61726475B4
:1054000070696C6F742E6D526F2D4D31303039359F
:105410000000000053544D333247343F3F0000003A
:1054200040A2E4F1646891060041A3E5F265699247
:10543000070000004261642043414E496661636594
:1054400020696E6465782E000000000000000000F6
:10545000F1240008A91F0008052C000819200008E5
:105460005D2000084522000825200008E11F0008F3
:10547000E51F0008BD1F0008A51F00080122000845
:10548000C91F00083D2D0008D51F0008D5210008C0
:1054900001040E05054B02020E05054B04010E0525
:1054A000054B05010B04044B0801060303460000ED
:1054B0000096000000000000000000000000000056
:1054C0000000000000000000636C6B737763000055
:1054D00000030000000000000001000000000101C6
:1054E000030000000328310104070400010000004C
:1054F000000000005D470008494700088547000894
:10550000714700087D4700086947000855470008B3
:105510004147000891470008633000001855000813
:1055200038520020485400206D61696E0069646C37
:10553000650000000001A82A00000000AAAABEAA77
:1055400000001424EFFF0000000000007097090025
:105550000000000000000000AAAAAAAA00000000A3
:10556000FFFF00000000000000000000000000003D
:1055700000000000AAAAAAAA00000000FFFF000085
:10558000000000000000000000000000000000001B
:10559000AAAAAAAA00000000FFFF00000000000065
:1055A000000000000000000000000000AAAAAAAA53
:1055B00000000000FFFF00000000000000000000ED
:1055C0000000000000000000AAAAAAAA0000000033
:1055D000FFFF0000000000000000000000000000CD
:1055E00000000000AAAAAAAA00000000FFFF000015
:1055F0000000000000000000110400000000000096
:105600000088030000000000FE2A0100D204000010
:10561000FF000000744F0020000000001454000838
:10562000006889096D8BB90200B4C4040068890957
:105630000068890900688909006889090068890982
:1056400000688909000000005423002000000000C9
:10565000000000000000000000000000000000004A
:10566000000000000000000000000000000000003A
:10567000000000000000000000000000000000002A
:10568000000000000000000000000000000000001A
:10569000000000000000000000000000000000000A
:0C56A000000000000000000000000000FE
:00000001FF
