:020000040800F2
:1000000000070020F1010008D1250008892500081B
:10001000B125000889250008A9250008F30100087A
:10002000F3010008F3010008F3010008B1350008EE
:10003000F3010008F3010008F3010008F3010008D0
:10004000F3010008F3010008F3010008F3010008C0
:10005000F3010008F3010008A5380008CD380008B6
:10006000F53800081D39000845390008F30100087B
:10007000F3010008F3010008F3010008F301000890
:10008000F3010008F3010008F3010008F301000880
:10009000F301000869250008792500086D3900087A
:1000A000F3010008F3010008F3010008F301000860
:1000B000413A0008F3010008F3010008F3010008C9
:1000C000F3010008F3010008F3010008F301000840
:1000D000F3010008F3010008F3010008F301000830
:1000E000D1390008F3010008F3010008F30100080A
:1000F000F3010008F3010008F3010008F301000810
:10010000F3010008F3010008F3010008F3010008FF
:10011000F3010008F3010008F3010008F3010008EF
:10012000F3010008F3010008F3010008F3010008DF
:10013000F3010008F3010008F3010008F3010008CF
:10014000F3010008F3010008F3010008F3010008BF
:10015000F3010008F3010008F3010008F3010008AF
:10016000F3010008F3010008F3010008F30100089F
:10017000F3010008F3010008F3010008F30100088F
:10018000F3010008F3010008F3010008F30100087F
:10019000F3010008F3010008F3010008F30100086F
:1001A000F3010008F3010008F3010008F30100085F
:1001B000F3010008F3010008F3010008F30100084F
:1001C000F3010008F3010008F3010008F30100083F
:1001D000F3010008F3010008F3010008F30100082F
:1001E000590F00080000000000000000000000009F
:1001F00002E000F000F8FEE772B6374880F30888A6
:10020000364880F3098836483649086040F20000D5
:10021000CCF200004EF63471CEF200010860BFF35C
:100220004F8FBFF36F8F40F20000C0F2F0004EF628
:100230008851CEF200010860BFF34F8FBFF36F8F7C
:100240004FF00000E1EE100A4EF63C71CEF20001D4
:100250000860062080F31488BFF36F8F04F08AF8DB
:1002600004F06AF94FF055301F491B4A91423CBFD8
:1002700041F8040BFAE71D49184A91423CBF41F886
:10028000040BFAE71A491B4A1B4B9A423EBF51F82E
:10029000040B42F8040BF8E700201849184A914271
:1002A0003CBF41F8040BFAE704F068F804F08AF95F
:1002B000144C154DAC4203DA54F8041B8847F9E797
:1002C00000F042F8114C124DAC4203DA54F8041B12
:1002D0008847F9E704F050B8000700200023002009
:1002E0000000000808ED00E00001002000070020E9
:1002F0005848000800230020A4230020A823002041
:1003000004510020E0010008E4010008E4010008B5
:10031000E40100082DE9F04F2DED108AC1F80CD052
:10032000C3689D46BDEC108ABDE8F08F002383F3BF
:1003300011882846A047002003F0C0FCFEE703F028
:1003400049FC00DFFEE70000F8B500F017FE03F0FF
:10035000B3FF074604F004F80646C0BB274B9F4294
:1003600035D001339F4235D0254B27F0FF029A420A
:1003700033D1F8B200F03AFC354642F2107400F086
:100380003BFC08B10024254601F0AEF848B3032039
:1003900000F03AF80024254636B11A4B9F4203D0AC
:1003A00003F0D6FF00242546002003F08FFF0DB197
:1003B00000F040F800F052FC02F012F90546ACB92A
:1003C00000F094FC4FF47A7003F07EFCF7E73546BA
:1003D0000024D4E704460125D1E705464FF47A749A
:1003E000CDE7B4F57A7F08BF0125D5E702F0F8F82C
:1003F000431BA342E4D900F01DF8DDE7010007B07C
:10040000000008B0263A09B0084B187003280CD831
:10041000DFE800F008050208022000F00BBE022011
:1004200000F000BE024B00225A607047A823002053
:10043000AC23002010B501F057F830B1234B032254
:100440001A70234B00225A6010BD224B224A1C46D0
:1004500019680131F8D004339342F9D16268A2429D
:10046000F2D31E4B9B6803F1006303F520439A42CD
:10047000EAD203F03FFF03F051FF002000F098FDA7
:100480000220FFF7C1FF164B9A6D00229A65996F03
:100490009A67996FD96DDA65D96FDA67D96F196E76
:1004A0001A66D3F88010C3F88020D3F8803072B673
:1004B0004FF0E0233021C3F8084DD4E9003281F336
:1004C00011889D4683F308881047BDE7A8230020C4
:1004D000AC23002000A0000820A00008002300207A
:1004E00000100240094A136849F2690099B21B0CD6
:1004F00000FB01331360064B186844F2506182B26E
:10050000000C01FB0200186080B270471423002029
:100510001023002010B500211022044600F0A4FD95
:10052000034B03CB206061601868A06010BD00BF62
:100530009075FF1F2DE9F041ADF54E7D0DF13408AA
:100540006CAC40F2751207460D460EA80021C8F8A3
:10055000001000F089FD4FF4C4720021204600F025
:1005600083FD02F03DF8254B4FF47A72B0FBF2F0B8
:10057000186093E80700022384E807000DF5E9708E
:100580002382FFF7C7FF41F204031D49238406A815
:1005900004F080F8192384F832310DF2E32206AB1F
:1005A0000DF1300C1E4603CE664510605160334697
:1005B00002F10802F6D13378137041460122204639
:1005C00000F09EFD00230393AB7E029305F1190317
:1005D000019380B20123CDE904800093E97E05A355
:1005E000D3E90023384602F0B9FB0DF54E7DBDE896
:1005F000F08100BF9E6AC421818A46EEB4230020A8
:10060000A44600082DE9F0412C4C237ADAB080464C
:100610000D465BBB27A9284600F082FE074600284E
:1006200042D19DF89D60C82E3ED801464FF4A66287
:10063000204600F019FD4FF48073C4F8F8314FF4F0
:100640000073C4F80C334FF44073C4F820343246BE
:100650000DF19E0104F1090000F0F4FC26449DF820
:100660009C30777223720BB9EB7E237281220021BA
:1006700006AC27A800F0F8FC0122214627A800F0CC
:100680008BFE00230393AB7E029305F1190380B226
:1006900001932823CDE904400093E97E05A3D3E923
:1006A0000023404602F05AFB5AB0BDE8F08100BF7B
:1006B000AFF3008026417272DF25D7B7C048002013
:1006C000F0B5254E4FF48A7505FB0065F1B096F83C
:1006D000D83085F8DC300024D822214685F8E8405F
:1006E0003AA800F0C1FC06F1090000F0B5FCD5F80D
:1006F000E4308DF8F000C2B206AF06F109010DF149
:10070000F100CDE93A3400F09DFC394601223AA8C7
:1007100000F06EFE80B2CDE9047008230127CDE918
:10072000023706F1D803019330230093317A0B4846
:1007300007A3D3E9002302F011FBA04206DD01F07C
:100740004FFFC5F8E000384671B0F0BD2046FBE72A
:1007500078F6339F93CACD8DC0480020CC3300205B
:100760002DE9F0411D4D1E4E1E4F86B0284602F069
:1007700021FB034658B30024CDE90344ADF81440EF
:10078000027B8DF8142099684068029403AA03C282
:100790001B68DFF8548043F00043029301F022FF0E
:1007A000821941F10003009402A9384601F0ACF827
:1007B000A04205DD284602F001FB88F80040D5E79D
:1007C00098F80030072B05D8013388F8003006B0C0
:1007D000BDE8F081014802F0F1FAF8E7CC330020DF
:1007E00040420F0000340020F54D002070B50D464A
:1007F00014461E4602F00EFA50B9022E10D1012CFA
:100800000ED112A3D3E90023C5E90023012007E09C
:10081000282C10D005D8012C09D0052C0FD0002091
:1008200070BD302CFBD10BA3D3E90023ECE70BA365
:10083000D3E90023E8E70BA3D3E90023E4E70BA304
:10084000D3E90023E0E700BFAFF30080401DA12003
:1008500026812A0B78F6339F93CACD8D9E6AC421D8
:10086000818A46EE26417272DF25D7B7F017304AEB
:1008700039059E5638B505460E4C0021013500F06D
:10088000B9FBA4F82C55B4F82C0500F09BFB78B10B
:10089000B4F82C0500F0A6FB014648B9B4F82C05C5
:1008A00000F0A8FBB4F82C350133A4F82C35EAE7A6
:1008B00038BD00BFC048002010B50A4B0A4A1A6074
:1008C00003F5805393F848203AB95C6C2CB120466C
:1008D00000F084FE204603F093FEBDE8104003487C
:1008E00000F07CBE00340020F046000830440020B8
:1008F0002DE9F04F8FB000AF05460C4602F08AF9A3
:10090000002849D1237E022B1BD1E38A012B18D169
:1009100001F066FE0646FFF7E5FD03464FF4C8709A
:10092000DFF8C482B3FBF0F206F5167602FB103353
:1009300016FA83F3C8F80030E37E33B9A34B0022E4
:100940001A703C37BD46BDE8F08F07F12401204600
:1009500000F0A4FC0028F4D107F11400FFF7DAFD41
:1009600097F8264007F11401224607F1270003F00B
:100970005FFE0028E2D10F2C08D8944B1C70D8F8E9
:100980000030A3F51673C8F80030DAE797F82410A2
:10099000284602F037F9D4E7E38A282B2BD010D869
:1009A000012B23D0052BCCD1BFF34F8F8849894B26
:1009B000CA6802F4E0621343CB60BFF34F8F00BFFD
:1009C000FDE7302BBDD1844EE17E327A9142B8D121
:1009D000607E3146002291F8DC50854200F0A5800F
:1009E0000132042A01F58A71F5D1AAE72146284689
:1009F000FFF7A0FDA5E721462846FFF703FEA0E785
:100A0000B2F8EC507B6005F103094FEA99094FEA0F
:100A10008902D11DC908A8EBC1039D46EB46002100
:100A2000584600F021FB04F1EE012A4631445846B5
:100A300000F008FB7B6813B9012000F0B9FA96F8C2
:100A4000D20000F0BFFA044630B9307200F0DAFA92
:100A5000204600F0ADFAB1E0D6F8D4203AB996F8C5
:100A6000D200B6F82C25824201D8FFF703FFD6F852
:100A7000D4202A44944208D296F8D200B6F82C2505
:100A80000130824201D8FFF7F5FE70685FFA89F203
:100A9000594600F0F1FA08B9C54679E0726896F84F
:100AA000D2002A447260D6F8D42005EB0209C6F8B9
:100AB000D49000F087FA814509D396F8D220D6F871
:100AC000D4000132001B86F8D220C6F8D400FF2DD6
:100AD0000FD80024347200F095FA204600F068FA2E
:100AE00000F002FD3D4B188108B9FFF7A3FCC54695
:100AF00027E7BB6896F8D9000AFB0362FB68D2F8C7
:100B0000E41082F8E83001F58061C2F8E030C2F804
:100B1000E410FFF7D5FDFFF723FE96F8D920013248
:100B200002F0030286F8D920B6E74FF48A7A0AFB6E
:100B300002F505F1EA013144204600F085FCF86039
:100B400000287FF4FEAE3544012285F8E82001F04C
:100B500047FDD5F8E020D6ED007ADFED216A801A56
:100B6000192838BF192040F6B832904228BF1046E5
:100B7000B8EE677A07EE900AF8EEE77A67EEA67AA3
:100B8000DFED186AE7EE267AFCEEE77AC6ED007A2A
:100B900096F8D930BB60BA6873680AFB02F4321960
:100BA00092F8E81059B1D2F8E4108B42E8463FF4CD
:100BB00027AF002182F8E810C2F8E010C54673683C
:100BC000064A9B0A01331381BBE600BFC5330020F0
:100BD00000ED00E00400FA05C0480020B423002026
:100BE000CDCCCC3D6666663FC8330020014B187003
:100BF000704700BFC023002038B54FF00054134B9E
:100C000022689A4220D1124B627D12481A70237DCD
:100C100003724FF48073C0F8F8314FF40073C0F8DA
:100C20000C3300254FF44073C0F820340A49C0F853
:100C3000E450C922093000F005FAE0222946204696
:100C400000F012FA012038BD0020FCE79AAD44C53F
:100C5000C0230020C04800201600002037B500F057
:100C600043FC194D1949288102236B71002201238D
:100C7000174801F093F800230193164B164900938F
:100C80001648174B4FF4805201F094FF154B19781A
:100C900011B1124801F0B6FF01F0A2FC0446FFF7C3
:100CA00021FC4FF4C873B0FBF3F202FB130304F50D
:100CB000167010FA83F00C4B186003F051FB08B16A
:100CC0000F232B8103B030BDB423002040420F001E
:100CD00000340020ED070008C4230020CC3300209E
:100CE000F1080008C0230020C83300202DE9F04F90
:100CF0002DED028B90A7D7E900670FF24429D9E9BF
:100D00000089884C95B00DAD9FED848BFFF728FDD1
:100D1000DFF834B200230C93ADF83C300D936B60D8
:100D200000230DF125028DED008B4FF0010A09A97A
:100D300058468DF825308DF824A001F0B9FB9DF8B8
:100D400024200023002A40F0AF80204601F062FFFB
:100D50000546002847D1DFF8F4B101F041FCDBF88B
:100D6000003098423FD301F03BFC0790FFF7BAFBFD
:100D7000079A4FF4C873B0FBF3F101FB130302F5BC
:100D8000167010FA83F0CBF80000DFF8C4B19BF8BE
:100D900000100791002914BF2B46534610A88DF868
:100DA0003030FFF7B7FB0799C1F11002D2B2062A23
:100DB00010AB28BF062219440DF13100079200F054
:100DC00041F9079A0CAB0393182302930132564B57
:100DD000D2B2CDE900A304923B463246204601F050
:100DE0005FFF8BF8005001F0FBFB504A504D136839
:100DF000C31AB3F57A7F32D3106001F0F3FB0246D9
:100E00000B46204601F0E4FF204601F003FF30B31B
:100E10002B7ADFF840A1002B14BF032302238AF8AA
:100E2000053001F0DDFB0DF1400B4FF47A73012228
:100E3000B0FBF3F05946CAF80000504600F006FA3D
:100E4000182302933B4B019380B240F25513CDE936
:100E500003B0009342464B46204601F021FF2B7A17
:100E6000B3B101F0BDFB4FF0000A83464FF48A7224
:100E700095F8D900504400F0030002FB005393F8AA
:100E8000E810002934D00AF1010ABAF1040FEFD1B9
:100E9000C82002F019FF2B7A002B7FF434AF15B075
:100EA000BDEC028BBDE8F08F4FF0904110A84A696D
:100EB00082F020024A611946102200F0D5F80DF1A7
:100EC00026030AAA0CA9584600F012FE95E8030072
:100ED00011AB83E803009DF83C308DF84C300C9B3F
:100EE000109310A9DDE90A23204602F045F917E71F
:100EF000D3F8E01049B12B68FA2B38BFFA23ABEBDB
:100F000001010533B1EB430FBDD3FFF7D9FB4FF41C
:100F10008A720028B7D1BBE7AFF300800000000061
:100F200000000000CC330020C4330020F04D00202E
:100F3000C0480020F44D0020401DA12026812A0B2E
:100F4000F1C6A7C1D068080F00340020C8330020C4
:100F5000C5330020B423002008B5054800F06EFE1C
:100F6000BDE80840034A0449002003F043BB00BF2A
:100F700000340020304E0020B908000870B503F09E
:100F80003FF8094E094D3080002428683388834299
:100F900008D903F031F82B6804440133B4F5204F2D
:100FA0002B60F2D370BD00BF244E0020F84D00200E
:100FB00003F0D8B800F10060920000F5204003F083
:100FC0005BB80000054B1A68054B1B889B1A8342CF
:100FD00002D9104403F010B800207047F84D0020EB
:100FE000244E0020024B1B68184403F00BB800BFCE
:100FF000F84D0020024B1B68184403F015B800BFE1
:10100000F84D0020064991F8243033B10023086AD6
:1010100081F824300822FFF7CDBF0120704700BFC0
:10102000FC4D0020022802BF4FF0904320229A611D
:1010300070470000022802BF4FF090434FF40012A7
:101040009A61704710B50023934203D0CC5CC4541E
:101050000133F9E710BD000003460246D01A12F929
:10106000011B0029FAD1704702440346934202D083
:1010700003F8011BFAE770472DE9F8431F4D1446AA
:1010800095F824200746884652BBDFF870909CB341
:1010900095F824302BB92022FF2148462F62FFF714
:1010A000E3FF95F82400C0F10802A24228BF2246BF
:1010B000D6B24146920005EB8000FFF7C3FF95F8DA
:1010C0002430A41B1E44F6B2082E17449044E4B208
:1010D00085F82460DBD1FFF795FF0028D7D108E021
:1010E0002B6A03EB82038342CFD0FFF78BFF0028EC
:1010F000CBD10020BDE8F8830120FBE7FC4D0020A8
:101100002DE9F0470D46044600219046284640F25E
:101110007912FFF7A9FF234620220021284601F07B
:10112000CDFF231D02222021284601F0C7FF631DA9
:1011300003222221284601F0C1FFA31D03222521FD
:10114000284601F0BBFF04F108031022282128469D
:1011500001F0B4FF04F1100308223821284601F001
:10116000ADFF04F1110308224021284601F0A6FF3B
:1011700004F1120308224821284601F09FFF04F1E0
:10118000140320225021284601F098FF04F118038F
:1011900040227021284601F091FF04F1200308222B
:1011A000B021284601F08AFF04F121030822B8216A
:1011B000284601F083FF04F12207C0263B46314652
:1011C00008222846083601F079FFB6F5A07F07F11E
:1011D0000107F3D104F1320308223146284601F019
:1011E0006DFF002704F1330A94F832304FEAC70943
:1011F0009F4209F5A47615D3B8F1000F08D1314606
:1012000004F599730722284601F058FF09F24F169A
:10121000274694F832213B1B93420CD3F01DC008A3
:10122000BDE8F0870AEB070308223146284601F0A3
:1012300045FF0137D8E707F2331331460822284625
:1012400001F03CFF08360137E3E7000013B5044620
:101250000846002101602346C0F8031020220190B7
:1012600001F02CFF0198231D0222202101F026FF0E
:101270000198631D0322222101F020FF0198A31D84
:101280000322252101F01AFF019804F1080310221E
:10129000282101F013FF072002B010BDF7B500238D
:1012A000047F00910E4607221946054601F0CAFD4B
:1012B000731C0093012200230721284601F0C2FD80
:1012C000C4B9B31C0093052223460821284601F027
:1012D000B9FD0D243746B278BB1B934211D32B7F47
:1012E000A88A0734E408BBB9844294BF00200120D7
:1012F00003B0F0BDAB8ADB00083BDB08B370082409
:10130000E8E7FB1C0093214600230822284601F051
:1013100099FD08340137DEE7201A18BF0120E7E7FE
:10132000F7B50023047F00910E46082219460546B2
:1013300001F088FD731CC4B90822009311462346AE
:10134000284601F07FFD1024012372785F1C013BC9
:10135000934211D32B7FA88A0734E408BBB9844297
:1013600094BF0020012003B0F0BDAB8ADB00083B36
:10137000DB0873700824E7E7F31900932146002384
:101380000822284601F05EFD08343B46DDE7201ABE
:1013900018BF0120E7E70000F8B50E4605461446E1
:1013A000002181223046FFF75FFE2B4608220021F4
:1013B000304601F083FE7CB96B1C072208213046C1
:1013C00001F07CFE0F2401236A785F1C013B9342ED
:1013D00004D3E01DC008F8BD0824F4E7EB1921464A
:1013E0000822304601F06AFE08343B46ECE7000074
:1013F000F8B50E46054614460021CE223046FFF7CA
:1014000033FE2B4628220021304601F057FE7CB9DE
:1014100005F1080308222821304601F04FFE302450
:101420002F462A7A7B1B934204D3E01DC008F8BDE7
:101430002824F5E707F1090321460822304601F088
:101440003DFE08340137ECE7F7B5047F00910E4606
:10145000012310220021054601F0F4FCC4B9B31C9D
:101460000093092223461021284601F0EBFC1924A1
:1014700037467288BB1B9A4211D82B7FA88A073443
:10148000E408BBB9844294BF0020012003B0F0BD42
:10149000AB8ADB00103BDB0873801024E8E73B1DC0
:1014A0000093214600230822284601F0CBFC083493
:1014B0000137DEE7201A18BF0120E7E730B5094DF4
:1014C0000A4491420DD011F8013B5840082340F3E3
:1014D0000004013B2C4013F0FF0384EA5000F6D1D6
:1014E000EFE730BD2083B8EDF7B5364A1068516894
:1014F0006B4603C36A4634493448082303F0A8F80E
:10150000044690BB0A25324A106851686B4603C3F3
:101510006A4630492D48082303F09AF8044600280B
:1015200047D00369B3F5583F43D8B0F86620B2F509
:10153000826F3ED1284A024402F15C018B4238D3CB
:101540005C3B224900209E1AFFF7B8FF324607464F
:1015500004F164010020FFF7B1FFA3689F4228D186
:10156000E368984208BF002523E00369B3F5583FBC
:1015700026D8428BB2F5826F20D1174A024402F17D
:1015800010018B4218D3103B104900209D1AFFF721
:1015900095FF2A46064604F118010020FFF78EFF4A
:1015A000A3689E4202D1E368984201D00D25AAE7C4
:1015B0000025284603B0F0BD1025A4E70C25A2E7BE
:1015C0000B25A0E7C0460008DC5F030000A0000870
:1015D000C9460008905F03000860FFF710B5037C60
:1015E000044613B9006803F01BF8204610BD000044
:1015F0000023BFF35B8FC360BFF35B8FBFF35B8FD1
:101600008360BFF35B8F7047BFF35B8F0068BFF3EE
:101610005B8F704770B505460C30FFF7F5FF05F19D
:10162000080604463046FFF7EFFFA04206D93046D1
:101630006D68FFF7E9FF2544281A70BD3046FFF7B3
:10164000E3FF201AF9E7000070B50546406898B13D
:1016500005F10800FFF7D8FF05F10C0604463046F7
:10166000FFF7D2FF8442304694BF6D680025FFF734
:10167000CBFF013C2C44201A70BD000038B50C464D
:101680000546FFF7C7FFA04210D305F10800FFF79A
:10169000BBFF04446868B4FBF0F100FB1144BFF3E6
:1016A0005B8F0120AC60BFF35B8F38BD0020FCE78F
:1016B0002DE9F041144607460D46FFF7C5FF844269
:1016C00028BF0446D4B1B84658F80C6B4046FFF723
:1016D0009BFF3044286040467E68FFF795FF331A31
:1016E0009C4203D86C600120BDE8F0816B60A41BB4
:1016F0003B68AB602044E8600220F5E72046F3E752
:1017000038B50C460546FFF79FFFA04210D305F100
:101710000C00FFF779FF04446868B4FBF0F100FBAC
:101720001144BFF35B8F0120EC60BFF35B8F38BDCA
:101730000020FCE72DE9FF41884669460746FFF790
:10174000B7FF6C4606B204EBC6060025B44209D0CA
:101750006268206808EB0501FFF774FC63680834D1
:101760001D44F3E729463846FFF7CAFF284604B070
:10177000BDE8F081F8B505460C300F46FFF744FF91
:1017800005F1080604463046FFF73EFFA04230460A
:1017900088BF6C68FFF738FF201A386020B13046E8
:1017A0002C68FFF731FF2044F8BD000073B51446E4
:1017B00006460D46FFF72EFF844228BF04460190DF
:1017C000DCB101A93046FFF7D5FF019B33B9326880
:1017D000C5E90233C5E9002401200CE09C4238BF72
:1017E00001942860019868608442F5D93368AB6041
:1017F000241AEC60022002B070BD2046FBE7000016
:101800002DE9FF410F466946FFF7D0FF6C4600B255
:1018100004EBC0050026AC4209D0D4F8048054F88B
:10182000081BB8194246FFF70DFC4644F3E7304663
:1018300004B0BDE8F081000038B50546FFF7E0FFD1
:10184000044601462846FFF719FF204638BD000030
:101850007047000010B41346026814680022A446C2
:101860005DF8044B6047000000F5805090F8590483
:101870007047000000F5805090F852047047000057
:1018800000F5805090F958047047000050207047D0
:10189000302383F3118800F58052D2F89C34D2F8BB
:1018A00098041844D2F894341844D2F87C3418447C
:1018B000D2F88C341844D2F888341844002383F3C7
:1018C0001188704700F58050C0F85414012070470B
:1018D00038B5C26A936923F001039361044600F0AE
:1018E0007FFE0546E36A9B69DB0706D500F078FEBC
:1018F000431BFA2BF6D9002004E004F580540120A4
:1019000084F8520438BD00002DE9F04F0C4600F574
:10191000805185B01F4691F85234BDF83890054685
:1019200090469BB1D1F878340133C1F878342368FC
:10193000980006D4237B082B0BD9627B0AB10F2BAE
:1019400007D9D1F87C340133C1F87C344FF0FF3033
:1019500010E0302383F31188EB6AD3F8C42012F42B
:10196000001B0AD0D1F880340133C1F88034002044
:1019700080F3118805B0BDE8F08FD3F8C43020683B
:10198000C3F3014A6B6A4822002812FB0A33B4BF32
:1019900040F08040800418602268520044BF40F04C
:1019A00000501860207B4FEA0A6242EA00425A6007
:1019B000607B4FEA4A1610B342F440125A60D1F8E5
:1019C000B0240132C1F8B024AA1902F58352117B68
:1019D00041F020011173207B039300F05DFE039B17
:1019E000033080105FFA8BF282420BF1010B0DDAAB
:1019F00004EB820103EB820249689160F2E7AA19C5
:101A000002F58352117B60F34511E3E7EB6A012293
:101A100002FA0AF2C3F8CC2005EB4A11AB1903F520
:101A2000825301F58251C3E904871831234604F13A
:101A30000C0253F8040B41F8040B9342F9D11B88B4
:101A40000B802E4441F2680346F803A006F5805649
:101A500009F0030396F86C2043F0100322F01F02F4
:101A6000134386F86C30002383F31188CDF800907F
:101A700042463B462146284600F0D4FD012079E746
:101A800013B500F580540191606CFFF7DDFD1F2850
:101A90000AD90199606C2022FFF74CFEA0F12003C7
:101AA0005842584102B010BD0020FBE708B5302372
:101AB00083F3118800F58050406CFFF799FD0023F7
:101AC00083F3118808BD0000002202608281426019
:101AD0008260704710B500220023C0E90023002374
:101AE000044603810C30FFF7EFFF204610BD0000D5
:101AF0002DE9F0479A4688B007468846914630233C
:101B000083F3118807F580546846FFF7E3FF606CA4
:101B1000FFF780FD1F282DD9606C20226946FFF752
:101B20008BFE202826D194F852341BB303AD4446D3
:101B300005AB2E4603CE9E4220606160354604F11F
:101B40000804F6D130682060B388A380DDE9002363
:101B5000C9E90023BDF80830AAF80030002383F358
:101B6000118853464A464146384608B0BDE8F0471A
:101B700000F046BD002080F3118808B0BDE8F08772
:101B80002DE9F84F00230646C0E90133284B46F8FB
:101B9000303B00F5815405468846374610343846B8
:101BA0002037FFF797FFA742F9D105F580544FF48E
:101BB000805326630026C4E90D366764012305F5CA
:101BC000835705F5A359E66384F8403084F848301C
:101BD000103709F110094FF0000A4FF0000B47E9E8
:101BE00008ABA7F11800FFF76FFF203747F8286C04
:101BF0004F45F4D184F85884A4F85A64A4F85C647E
:101C0000A4F85E6484F86064A4F86264A4F8646470
:101C1000A4F8666484F86864B8F1000F02D005483F
:101C200000F0D8FC044BEB622846BDE8F88F00BFFB
:101C3000F0460008D44600080064004010B5044B8C
:101C4000197804464A1C1A70FFF79AFF204610BD07
:101C50002D4E00202DE9F84315460C4600295CD096
:101C6000022001F019FE2E49B0FBF4F78C428CBF24
:101C70000A2111214B1EB7FBF1F601FB1671DAB2F6
:101C800021B1022B1946F5D8002032E0731EB3F5BE
:101C9000806FF9D2C2EBC20808F103014FEAE10EEE
:101CA000C1F3C701A2EB010C0EF101094FF47A73E5
:101CB0005FFA8CF70EFB033E59FA8CFCBEFBFCFC72
:101CC000BCF5617F17DC1FFA8CF34A1C57FA82F2CD
:101CD0007243B0FBF2F08442D6D14A1E0F2AD3D809
:101CE0007A1E072AD0D801202B806E802871697156
:101CF000AF71BDE8F88308F1FF314FEAE10CC1F3A1
:101D0000C701521A0CF1010ED7B20CFB03335EFA75
:101D100082F2B3FBF2F39BB2D7E70846E9E700BFD4
:101D20003F420F0030B50D4B0D4D05201C786C4324
:101D30008C420ED15978518099785171D97891712E
:101D4000197911715B7903EB83035B001380012028
:101D500030BD013803F10603E8D1F9E73047000848
:101D600040420F000B4B10B54FF454720446002153
:101D70001846FFF779F9084BA3614033E361D83384
:101D80002362F0336362E36A60610022C3F8C0201B
:101D900010BD00BF00A4004070A400402DE9F04F2A
:101DA00000F580551F4695F85834012B89B004463C
:101DB0008946904604D90026304609B0BDE8F08F28
:101DC0009A4A52F8231009B942F823009848C4F8F7
:101DD0000C900178277499B9302383F31188954BBF
:101DE0009A6D42F000729A659A6B42F000729A63A3
:101DF0009A6B22F000729A630123037081F31188B9
:101E000095F851647EB9302383F31188032115209E
:101E100001F056FE0321162001F052FE012385F841
:101E2000513486F31188302383F31188E26A936971
:101E300023F01003936100F0D3FB8246E36A9E69AE
:101E400016F0080609D000F0CBFBA0EB0A03FA2B32
:101E5000F4D9002686F31188AEE79A6942F00102B0
:101E60009A6100F0BDFB8246E36A9A69D00706D406
:101E700000F0B6FBA0EB0A03FA2BF5D9E9E79A6963
:101E800042F002029A61E36A4FF0000AC3F854A0DC
:101E90008AF31188686CFFF7ABFB04F5825B0BF1EA
:101EA000100B202200216846FFF7DEF802A8FFF79A
:101EB0000BFECDF818A06A460BEB06030DF1180EC9
:101EC0009446BCE80300F44518605960624603F18B
:101ED0000803F5D1DCF80000186020369CF80420D7
:101EE0001A71B6F5806FDCD1002304F5A25285F893
:101EF000503485F853341A3249462046FFF7AAFE7B
:101F0000064690B9E26A936923F00103936100F0F9
:101F100067FB0546E36A9B69D9077FF54CAF00F084
:101F20005FFB431BFA2BF5D945E795F85E34C5F8FE
:101F30006C94591E95F85F34E26A013B1B0243EA38
:101F4000416395F8601401390B43B5F85C1401390D
:101F500043EA0143D361B8F1000F36D004F5A35230
:101F6000023241462046FFF7DDFE90B9E26A9369EE
:101F700023F00103936100F033FB0546E36A9B699C
:101F8000DA077FF518AF00F02BFB431BFA2BF5D9CE
:101F900011E795F86724C5F87084511E95F86824F8
:101FA000E36A013A120142EA012295F86614013906
:101FB0000A43B5F86414013942EA014242F40002CE
:101FC000DA60E36A4FF420629A642046FFF7CAFEA3
:101FD000002385F85934E36A6FF040421A65E36ADA
:101FE000154A5A65E36A44229A65E36A0722C3F8F0
:101FF000DC20E36A03229742DA653FF4DDAEE26A51
:10200000936923F00103936100F0EAFA0746E36A5B
:102010009B69DB0705D500F0E3FAC31BFA2BF6D961
:10202000C9E6012385F85234C6E600BF284E0020D9
:102030002C4E0020001002409B0008002DE9F04FBC
:10204000054689B090469946002741F2680A00F596
:102050008056EB6AD3F8D430FB40D80751D505EB56
:10206000471252444FEA471B1379190749D4D6F84F
:1020700084340133C6F8843405F5A553C3E90089D7
:1020800013799A0648BFD6F8B43405EB0B0248BF63
:102090000133524448BFC6F8B434137943F00803FF
:1020A0001371DB0722D596F85334FBB105F5825442
:1020B000183468465C44FFF70DFD03AB04F1080CCF
:1020C000206861681A4603C2083464451346F7D194
:1020D00020681060A2889A800123ADF808302B6830
:1020E000CDE90089DB6B694628469847D6F8A834C5
:1020F000D6F854040133C6F8A83410B103681B693C
:1021000098470137202FA4D109B0BDE8F08F000017
:102110002DE9F04F8DB004460F4600F063FA824679
:102120008946002F56D1E36AD3F89020920141BF2F
:1021300004F58051D1F898240132C1F89824D3F8DD
:102140009020160703D100200DB0BDE8F08FD3F822
:102150009050E669C5F30125482303FB0566E84670
:102160004046FFF7B1FC326851004ABF22F060439D
:10217000C2F38A4343F00043920048BF43F08043D8
:102180000093736813F400131FBF04F580520123FA
:102190008DF80D30D2F8B8340EBF8DF80D30013304
:1021A000C2F8B834F38803F00F038DF80C304FF009
:1021B000000B9DF80C0000F06FFA5FFA8BF3984269
:1021C00020D9F2180CA90B44127A03F82C2C0BF12D
:1021D000010BEEE7012FB6D1E36AD3F89820950101
:1021E00041BF04F58051D1F898240132C1F89824F8
:1021F000D3F898201007A6D0D3F89850266AC5F3D4
:102200000125A9E7EFB9E36AC3F8945004A8FFF7E2
:1022100061FC98E80F0007AD07C52B800023ADF8DF
:10222000183023682046CDE904A9DB6B04A9984740
:1022300004F5805458B1D4F890340133C4F8903484
:1022400082E7012F04BFE36AC3F89C50DEE7D4F8AD
:1022500094340133C4F89434012075E72DE9F0413A
:1022600005460F4600F58054012639462846FFF7FB
:102270004FFF10B184F85364F7E7D4F8A834D4F8CA
:1022800054040133C4F8A83420B10368BDE8F04118
:102290001B691847BDE8F081F0B5C36A1A6C12F4E7
:1022A0007F0F2BD000F580541B6CC4F8AC3441F286
:1022B0006805002347194FF0010C00EB43122A4434
:1022C0005E01117911F0020F15D0490713D4B959E5
:1022D000C66AD6F8C8E00CFA01F111EA0E0F0AD06E
:1022E000C6F8D010117941F004011171D4F88C2492
:1022F0000132C4F88C240133202BDED1F0BD000064
:1023000010B5254C254B226802B338B31A6D12065E
:102310000ED580221A6500F065F950EA01020B46DD
:1023200002D0013861F1000302462068FFF786FE03
:102330001A4A136D1B032AD523684FF4002103F5B5
:1023400080531165012283F8592420E001221A6587
:1023500008221A654FF480621A6510BD196DC8070E
:1023600002D4196D890705D503211965104600218E
:10237000FFF774FF094B1A6D100702D41A6DD106CE
:1023800005D518221A6520680121FFF767FF20682C
:10239000BDE81040FFF780BF284E002000640040D9
:1023A00008B5302383F31188FFF776FF002383F30A
:1023B000118808BDC36AD3F8C40080F40010C0F3CC
:1023C0004050704708B5302383F3118800F58050E2
:1023D000406CFFF71FF9002383F3118843090CBFFA
:1023E0000120002008BD000000F5805393F8592417
:1023F00062B1C16A8A6922F001028A61D3F89C2421
:102400000132C3F89C24002283F85924704700004D
:102410002DE9F743302181F3118800F58251103105
:10242000002541F2680E4FF0010800F5805C00EBDA
:1024300045147444267977071CD4F6061AD5D0F8CB
:102440002C908E69D9F8C87008FA06F63E4211D071
:102450004F6801970F689742019F9F410AD2C9F8C0
:10246000D060267946F004062671DCF888440134F1
:10247000CCF888440135202D01F12001D7D100236B
:1024800083F3118803B0BDE8F0830000F8B51E4661
:10249000002313700F4605461446FFF793FF80F0A4
:1024A000010038701EB12846FFF784FF2070F8BD88
:1024B0002DE9F04F85B09946DDE90EA30D46029354
:1024C0001378019391F800B08046164600F08AF820
:1024D0002B7804460F4613B93378002B41D022469F
:1024E0003B464046FFF794FFFFF75AFFFFF77CFF9C
:1024F0004B4632462946FFF7C9FF2B7833B1BBF173
:10250000000F03D0012005B0BDE8F08F337813B180
:10251000019B002BF6D108F580530393029B544591
:1025200077EB03031DD2039BD3F85404C8B10368AF
:10253000AAEB04011B6898474B46324629464046A1
:10254000FFF7A4FF2B7813B1BBF1000FDAD133787A
:1025500013B1019B002BD5D100F044F804460F467F
:10256000DCE70020CFE7000008B50020FFF7C8FE39
:10257000BDE8084001F050B808B50120FFF7C0FEE3
:10258000BDE8084001F048B800B59BB0EFF3098101
:1025900068226846FEF756FDEFF30583014B9B6BFF
:1025A000FEE700BF00ED00E008B5FFF7EDFF00001B
:1025B00000B59BB0EFF3098168226846FEF742FD43
:1025C000EFF30583014B5B6BFEE700BF00ED00E01E
:1025D000FEE700000FB408B5029801F025FBFEE706
:1025E00001F006BE01F0E8BD13B56C4684E80600B4
:1025F000031D94E8030083E80500012002B010BD2C
:1026000073B58568019155B11B885B0707D4D0E984
:1026100000369B6B9847019AC1B23046A84701200B
:1026200002B070BDF0B5866889B005460C465EB153
:10263000BDF838305B070AD4D0E900379B6B984768
:102640002246C1B23846B047012009B0F0BD002291
:102650000023CDE900230023ADF808300A4603AB80
:1026600001F10806106851681C4603C40832B242E2
:102670002346F7D1106820609288A280FFF7B2FF4E
:102680000423ADF808302B68CDE90001DB6B694607
:1026900028469847D8E70000082817D909280CD001
:1026A0000A280CD00B280CD00C280CD00D280CD0EC
:1026B0000E2814BF4020302070470C207047102097
:1026C0007047142070471820704720207047000082
:1026D0002DE9F041456A15B94162BDE8F0814B68CA
:1026E00023F06047C3F38A464FEAD37EC3F3807872
:1026F00016EA230638BF3E46AC462B465A68BEEB68
:10270000D27F22F060440AD0002A18DAA40CB44226
:1027100017D19D420FD10D60DEE71346EEE7A742C9
:1027200007D102F08044C2F3807242450BD054B10D
:10273000EFE708D2EDE7CCF800100B60CDE7B4422C
:1027400001D0B442E5D81A689C46002AE5D1196048
:10275000C3E700002DE9F047089D01F007044FEAA8
:10276000D508224405F0070500EBD1004FF47F495E
:10277000944201D1BDE8F08704F0070705F0070A8D
:1027800057453E4638BF5646C6F10806111B8E42D5
:1027900028BF0E46E10808EBD50E415C13F80EC0C9
:1027A000B94029FA06F721FA0AF1FFB28CEA0101D1
:1027B00047FA0AF739408CEA010C03F80EC034449A
:1027C0003544D5E780EA0120082341F2210201B215
:1027D0004000002980B203F1FF33B8BF504013F02E
:1027E000FF03F4D17047000038B50C468D18A542A0
:1027F00000D138BD14F8011BFFF7E4FFF7E7000034
:1028000042684AB1136843604389818901339BB2AE
:102810009942438138BF83811046704770B588B0B4
:10282000202204460D4668460021FEF71DFC204686
:102830000495FFF7E5FF024658B16B46054608AE22
:102840001C4603CCB44228606960234605F10805A4
:10285000F6D1104608B070BD082817D909280CD049
:102860000A280CD00B280CD00C280CD00D280CD02A
:102870000E2814BF4020302070470C2070471020D5
:1028800070471420704718207047202070470000C0
:10289000082817D90C280CD910280CD914280CD9C1
:1028A00018280CD920280CD930288CBF0F200E20D6
:1028B0007047092070470A2070470B2070470C2092
:1028C00070470D20704700002DE9F843078C072F53
:1028D00004461ED9D0E9029800254FF6FF73C5F1D2
:1028E0002006A5F1200029FA05F108FA06F628FAD3
:1028F00000F031430143C9B21846FFF763FF0835C2
:10290000402D0346EBD1E1693A46BDE8F843FFF7B5
:102910006BBF4FF6FF70BDE8F883000010B54B6841
:1029200023B9CA8A63F30902CA8210BD04691A680E
:102930001C600361C38A013BC3824A60EFE7000069
:102940002DE9F84F1D46CB8A0F46C3F3090105292F
:10295000814692460B4630D00020AAB207F11A04F5
:102960009EB2042E1FFA80F80FD8904503F10103A0
:1029700006D3FB8A0A4462F30903FB8201201AE0B2
:102980001AF80060E6540130EAE79045F1D2A1F16F
:10299000050B1C237C68BBFBF3F203FB12BB1FFA85
:1029A0008BF6002C45D14846FFF72AFF044638B97C
:1029B00078606FF00200BDE8F88F4FF00008E6E79E
:1029C000002606607860ADB24FF0000B454510D987
:1029D0000AEB0803221D13F8011B9155B1B208F14F
:1029E00001081B291FFA88F82BD0454506F101067E
:1029F000F1D8FB8AC3F30902154465F30903BCE768
:102A0000013292B21C462368002BF9D16B1F0B4494
:102A10001C21B3FBF1F301339BB29A42D3D2BBF139
:102A2000000FD0D14846FFF7EBFE20B9C4F800B044
:102A3000BFE70122E7E7C0F800B05E462060044629
:102A4000C1E74545D5D94846FFF7DAFE08B9206009
:102A5000AFE7C0F800B0002620600446B6E70000EB
:102A60002DE9F04F2DED028B1C4683B05B6901927E
:102A700007468846002B00F09A80238C2BB1E26930
:102A8000002A00F09480072B35D807F10C00FFF7DF
:102A9000B7FE054638B96FF00205284603B0BDEC15
:102AA000028BBDE8F08F14220021FEF7DDFA228CA4
:102AB000E16905F10800FEF7C5FA208C013080B20B
:102AC000FFF7E6FEFFF7C8FE013880B22084013030
:102AD00028746369228C1B782A4403F01F0363F077
:102AE0003F0348F000411372384669602946FFF7FA
:102AF000EFFD0125D1E700F10C034FF0000908EECE
:102B0000103A4FF0800A4E464D4618EE100AFFF775
:102B100077FE83460028BED014220021FEF7A4FAD7
:102B2000002E3AD1019BABF8083002220BF1080EBF
:102B30001FFA82FC0CF10100BCF1060F218C80B25F
:102B400001D88E422BD3FFF7A3FEFFF785FE626903
:102B50001278013802F01F028E4208BF4FF0400A7F
:102B600042EA49121BFA80F14AEA020A013048F0AF
:102B7000004281F808A08BF81000CBF804205946D9
:102B80003846FFF7A5FD238C0135B3422DB289F0FD
:102B900001094FF0000AB8D17FE70022C6E7E169DA
:102BA000895D0EF802100136B6B20132C0E76FF04F
:102BB000010572E7F8B515460E463022002104469D
:102BC0001F46FEF751FA069B6360B5F5001F079B91
:102BD000A76034BF6A094FF6FF72A36297B2E6613D
:102BE00004F1100000239A4206D800230360A78254
:102BF000E3822383E360F8BD06600133304620366C
:102C0000F1E7000003781BB94BB2002BC8BF01707D
:102C10007047000000787047F8B50C46C969074650
:102C200011B9238C002B37D1257E1F2D34D838784D
:102C300028BB228C072A2CD8268A36F003032BD1F6
:102C40004FF6FF70FFF7D0FD20F001003102400485
:102C500041EA0561400C41EA40254FF6FF722346E8
:102C600029463846FFF7FCFE002807DD6269137825
:102C70000133DBB21F2B88BF00231370F8BD218AFC
:102C80002D0645EA012505432046FFF71DFE0246B5
:102C9000E5E76FF00300F1E76FF00100EEE70000F9
:102CA00070B58AB0044616460021282268461D46A3
:102CB000FEF7DAF9BDF83830ADF810300F9B059308
:102CC0009DF840308DF81830119B07936946BDF888
:102CD0004830ADF820302046CDE90265FFF79CFF73
:102CE0000AB070BD2DE9F041D36905460C46164681
:102CF0000BB9138C5BBB377E1F2F28D895F800804B
:102D0000B8F1000F26D03046FFF7DEFD3378210200
:102D100041EAC33141EA0801338A41EA076141EAE5
:102D200003410246334641F080012846FFF798FEF2
:102D300000280ADD3378012B07D17269137801333B
:102D4000DBB21F2B88BF00231370BDE8F0816FF04A
:102D50000100FAE76FF00300F7E70000F0B58BB071
:102D600004460D4617460021282268461E46FEF7F7
:102D70007BF99DF84C305A1E534253418DF8003078
:102D80009DF84030ADF81030119B05939DF8483008
:102D90008DF81830149B07936A46BDF85430ADF88F
:102DA000203029462046CDE90276FFF79BFF0BB085
:102DB000F0BD0000406A00B104307047436A1A68F1
:102DC000426202691A600361C38A013BC382704791
:102DD0002DE9F041D0F82080194E14461D46414699
:102DE000002709B9BDE8F081D1E90223A21A65EBF9
:102DF0000303964277EB03031ED2036A8B420DD185
:102E0000FFF78CFD036A1B68036203690B60C38ACA
:102E10000161016A013BC3828846E2E7FFF77EFD5C
:102E20000B68C8F8003003690B60C38A0161013B7D
:102E3000C382D8F80010D4E788460968D1E700BFFC
:102E400080841E002DE9F04F8BB00D46DDF85090C8
:102E500014469B468046002800F01981B9F1000F06
:102E600000F01581531E3F2B00F21181012A03D17E
:102E7000BBF1000F40F00B810023CDE90833B8F817
:102E80001430B5EBC30F4FEAC30703D300200BB0D8
:102E9000BDE8F08F2B199F42D8F80C303ABF7F1B4A
:102EA000FFB227461BB9D8F81030002B7AD0272D57
:102EB0004ED8C5F12806B7424FF000032CBFF6B23A
:102EC0003E4600932946D8F8080008AB3246FFF783
:102ED00041FCA7EB060A35445FFA8AFAB8F81430C9
:102EE00003F10053053BDB000493D8F80C30039347
:102EF0002821039B13B1BAF1000F2CD1D8F8100090
:102F000040B1BAF1000F05D0009608AB5246691ADD
:102F1000FFF720FC38B2002FB8D066070AD00AAB02
:102F200003EBD401624211F8083C02F0070213419E
:102F300001F8083C082C3CD9102C40F2B580202C1C
:102F400040F2B780BBF1000F00F09C80082334E012
:102F5000BA460026C2E7049BE02B28BFE023069375
:102F60000B44AB42059314D95A1B03980096924523
:102F700034BF5246D2B2691A08AB04300792FFF749
:102F8000E9FB079A1644AAEB020A1544F6B25FFA67
:102F90008AFA049B069A05999B1A0493039B1B6863
:102FA0000393A6E70093D8F8080008AB3A462946F1
:102FB000AEE7BBF1000F13D00123B4EBC30F6CD00D
:102FC000082C12D89DF82030621E23FA02F2D50791
:102FD00006D54FF0FF3202FA04F423438DF8203077
:102FE0009DF8203089F8003051E7102C12D8BDF838
:102FF0002030621E23FA02F2D10706D54FF0FF32CD
:1030000002FA04F42343ADF82030BDF82030A9F8CB
:1030100000303CE7202C0FD80899631E21FA03F3F7
:10302000DA0705D54FF0FF3202FA04F40C43089496
:10303000089BC9F800302AE7402C2BD0DDE9086551
:10304000611EC4F12102A4F1210326FA01F105FA5F
:1030500002F225FA03F311431943CB0712D50122DB
:10306000A4F12003C4F1200102FA03F322FA01F1D2
:10307000A240524243EA010363EB430332432B4332
:10308000CDE90823DDE90823C9E90023FFE66FF055
:103090000100FCE66FF00800F9E6082CA0D9102C1E
:1030A000B3D9202CEED8C3E7BBF1000FADD002237B
:1030B00083E7BBF1000FBBD004237EE730B5012AC4
:1030C000144638BF0124402C85B028BF4024002579
:1030D000012ACDE9025518D81B788DF8083063070E
:1030E0000AD004AB03EBD405624215F8083C02F0A9
:1030F0000702934005F8083C009103462246002150
:1031000002A8FFF727FB05B030BD082AE4D9102A32
:1031100003D81B88ADF80830E1E7202A8DBFD3E93A
:1031200000231B680293CDE90223D8E710B5CB68D2
:103130001BB98B600B618B8210BD04691A681C601F
:103140000361C38A013BC382CA60F0E703064CBF38
:10315000C0F3C0300220704708B50246FFF7F6FF03
:10316000022806D15306C2F30F2001D100F003005C
:1031700008BDC2F30740FBE72DE9F04F93B0CDE95E
:1031800003230A6804461046FFF7E0FF022814BF35
:10319000C2F306260026002A0D46824680F2F281FE
:1031A00012F0C04940F0EE81097B002900F0EA816D
:1031B000022803D02378B34240F0E781C2F30463CE
:1031C0000693104602F07F030593FFF7C5FF059BAA
:1031D00029444FEA834848EA0A4848EA4668CE78D4
:1031E00000230022CDE90823F309834648EA0008BA
:1031F000029367D0059B009302466768534608A96F
:103200002046B847002800F0C381276A4FB94146DD
:1032100004F10C00FFF702FB074690B96FF00200C3
:1032200054E03B6998450DD03F68002FF9D14146E5
:1032300004F10C00FFF7F2FA07460028EED0236AEB
:103240003B60276297F817C006F01F08CCF3840C88
:10325000ACEB08001FFA80FE0028B8BF0EF120007A
:10326000A8EB0C031FFA83FED7E90221B8BF00B216
:10327000002B0793BEBF0EF120031BB2079352EA47
:10328000010338D0039BDFF824E39A1A049B4FF024
:10329000000C63EB010196457CEB01032BD36B7BA8
:1032A00097F81AE0734519D1029B002B78D00128BA
:1032B00021DC7868F8B9DFF8F0C2944570EB0103BF
:1032C00016D337E0276A27B96FF00C0013B0BDE8BA
:1032D000F08F3B699845B5D03F68F4E7B24890421B
:1032E0007CEB010301D30020F0E7029B002BFAD016
:1032F000079B0F2B17DCFA7DB30002F0030203F0EB
:103300007C031343FB7539462046FFF707FB6B7BB5
:10331000BB76029B3BB9FB7DC3F38402013262F3AF
:103320008603FB75D0E76A7BBB7E9A42DBD1029BAA
:10333000002B35D0B309022B32D0039BBB60049B1A
:10334000FB60142200210DA8FDF78EFE039B0A935B
:10335000049B0B932B1D0C932B7BADF83EB0013BD4
:10336000DBB2ADF83C30069B8DF84230059B8DF802
:10337000433094F82C308DF840A083F001038DF891
:1033800044308DF84180A3680AA920469847FB7D08
:10339000C3F38403013303F01F039B02FB82A2E704
:1033A000FB7DC6F34012B2EBD31F40F0F480C3F3B1
:1033B0008403434540F0F280029A2B7BB609002A31
:1033C0004DD0F2075DD4032B40F2EB80039BBB6032
:1033D000049BFB602B7BAE1D033BDBB232463946C0
:1033E00004F10C00FFF7ACFA00280CDA394620464D
:1033F000FFF794FAFB7DC3F38403013303F01F034B
:103400009B02FB820AE7DDE90884AB883B834FF629
:10341000FF73C9F12000A9F1200228FA09F104FA8A
:1034200000F0014324FA02F211431846C9B2FFF733
:10343000C9F909F10809B9F1400F0346E9D1B88289
:103440002A7B033AD2B23146FFF7CEF9FB7DB88230
:10345000DA43C2F3C01262F3C713FB7543E786B9C0
:103460002E1D013BDBB23246394604F10C00FFF75A
:1034700067FA0028BADB2A7BB88A013AD2B2314611
:10348000E2E7F98AC1F30901013B0429DAB25BD80A
:10349000281D002307F11B069A4208D910F801CB1A
:1034A00006F801C0013101330529DBB2F4D10399DB
:1034B0000A9104990B91934207F11B010C9138BFBB
:1034C000043379680D9134BF55FA83F300230E93CA
:1034D000FB8AADF83EB0C3F309031A44069B8DF88E
:1034E0004230059B8DF8433094F82C30ADF83C20E9
:1034F00083F001038DF8443000238DF840A08DF84F
:1035000041807B602A7BB88A013A291DFFF76CF95C
:103510003B8BB882834203D1A3680AA9204698470F
:1035200020460AA9FFF702FEFB7DBA8AC3F3840393
:10353000013303F01F039B02FB823B8B9A420CBFBB
:1035400000206FF01000C1E67B68002BAFD0052093
:1035500001E01C3033461E68002EFAD1091A081DFE
:103560002E1D184401EB090CBCF11B0F5FFA89F307
:103570009DD89A429BD916F8013B00F8013B09F10E
:103580000109EFE76FF00900A0E66FF00A009DE681
:103590006FF00B009AE66FF00D0097E66FF00E00EB
:1035A00094E66FF00F0091E640420F0080841E0009
:1035B000EFF3098305494A6B22F001024A6368333D
:1035C00083F30988002383F31188704700EF00E03C
:1035D000302080F3118862B60C4B0D4AD96821F473
:1035E000E0610904090C0A43DA60D3F8FC200949B8
:1035F00042F08072C3F8FC200A6842F001020A60BF
:103600002022DA7783F82200704700BF00ED00E047
:103610000003FA05001000E010B5302383F3118891
:103620000E4B5B6813F4006314D0F1EE103AEFF325
:103630000984683C4FF08073E361094BDB6B2366C0
:1036400084F3098800F0BAFA10B1064BA36110BDEB
:10365000054BFBE783F31188F9E700BF00ED00E0BD
:1036600000EF00E03F03000842030008434B4FF423
:10367000007270B51A605A6912F4C06FFBD1404BEA
:103680009A6802F00C02042A20D01A6842F4807270
:103690001A601A685205FCD501229A609A6802F0F5
:1036A0000C02042AFAD13749374A0A600A6812F034
:1036B0000F02FBD1C3F8982063221A601A689603A0
:1036C000FCD42E4A4FF48071C2F88010C468E50320
:1036D00006D51A6842F480321A601A689103FCD544
:1036E000C269D20709D5D3F8982042F00102C3F885
:1036F0009820D3F898209607FBD54269DA6044F405
:1037000080721A6004F0807111B11A689501FBD5BE
:10371000996802691B4E22F0030501F00301294359
:10372000996085693560316869400907FBD11349A3
:1037300005680D6046684E608068C1F880006E04C0
:1037400017D448698505FCD4996802F0030021F07C
:1037500003010143996092009968514011F00C0FE8
:10376000FAD1E2055EBF1A6822F480721A60002066
:1037700070BD48698005FCD5E6E700BF00700040D9
:1037800000100240002002400006040008B500F0CE
:1037900083F9BDE8084000F05BB9000010B5394C72
:1037A0003948A36A4FF0FF32A262A36A0023A362E2
:1037B000A16AE16A61F07F01E162E16A01F07F01E3
:1037C000E162E16A216B2263216B2363216BA16BB0
:1037D000A263A16BA363A16BE16BE263E16BE363A3
:1037E000E16B216C2264226C2364226C226E42F015
:1037F00001022266D4F8802022F00102C4F8802061
:10380000D4F88020A26D42F08052A265A26F22F00F
:103810008052A267A26F1D4A4FF400419160D360AD
:10382000136253629362D362136353639363D363EC
:10383000136453649364D36413655365116841F44E
:1038400080711160D4F8902012F4407F1EBF4FF4B5
:103850008032C4F89020C4F890300D4A0023A36051
:10386000C4F88820C4F89C30FFF700FF10B1094865
:1038700000F0DAF9D4F8903023F00323C4F8903044
:1038800010BD00BF00100240584700080070004003
:103890005501005150470008014B53F82000704774
:1038A00018230020074A08B5536903F00103536148
:1038B00023B1054A13680BB150689847BDE808402A
:1038C000FFF7AABE0004014084500020074A08B553
:1038D000536903F00203536123B1054A93680BB1A6
:1038E000D0689847BDE80840FFF796BE0004014045
:1038F00084500020074A08B5536903F0040353615C
:1039000023B1054A13690BB150699847BDE80840D7
:10391000FFF782BE0004014084500020074A08B52A
:10392000536903F00803536123B1054A93690BB14E
:10393000D0699847BDE80840FFF76EBE000401401B
:1039400084500020074A08B5536903F010035361FF
:1039500023B1054A136A0BB1506A9847BDE8084085
:10396000FFF75ABE0004014084500020164B10B5EA
:103970005C6904F478725A61A30604D5134A936A09
:103980000BB1D06A9847600604D5104A136B0BB18F
:10399000506B9847210604D50C4A936B0BB1D06B42
:1039A0009847E20504D5094A136C0BB1506C98474F
:1039B000A30504D5054A936C0BB1D06C9847BDE8BC
:1039C0001040FFF729BE00BF0004014084500020D2
:1039D000194B10B55C6904F47C425A61620504D548
:1039E000164A136D0BB1506D9847230504D5134A41
:1039F000936D0BB1D06D9847E00404D50F4A136E58
:103A00000BB1506E9847A10404D50C4A936E0BB1CC
:103A1000D06E9847620404D5084A136F0BB1506FFB
:103A20009847230404D5054A936F0BB1D06F98478C
:103A3000BDE81040FFF7F0BD0004014084500020B5
:103A400008B500F0F3FCBDE80840FFF7E5BD000055
:103A5000062108B5084600F033F80621072000F0DB
:103A60002FF80621082000F02BF80621092000F08D
:103A700027F806210A2000F023F80621172000F07D
:103A80001FF80621282000F01BF8BDE80840072198
:103A90001C2000F015B800004FF0E0230022586809
:103AA0004FF0FF31930003F1604303F561430132AE
:103AB0009042C3F88010C3F88011F3D27047000021
:103AC00000F1604303F561430901C9B283F80013B3
:103AD000012200F01F039A4043099B0003F1604359
:103AE00003F56143C3F880211A6070470023037512
:103AF000826803691B6899689142FBD25A68036027
:103B00004260106058607047002303758268036943
:103B10001B6899689142FBD85A6803604260106044
:103B20005860704708B50846302383F311880B7D31
:103B3000032B05D0042B0DD02BB983F3118808BDBE
:103B40008B6900221A604FF0FF338361FFF7CEFFCD
:103B50000023F2E7D1E9003213605A60F3E7000076
:103B6000FFF7C4BF054BD9680875186802681A606A
:103B7000536001220275D860FCF7CCBB384E0020A0
:103B800030B50C4BDD684B1C87B004460FD02B467C
:103B9000094A684600F02AF92046FFF7E3FF009B38
:103BA00013B1684600F02CF9A86907B030BDFFF7E3
:103BB000D9FFF9E7384E0020253B0008044B1A686E
:103BC000DB6890689B68984294BF00200120704792
:103BD000384E0020084B10B51C68D86822681A605F
:103BE000536001222275DC60FFF78EFF01462046FC
:103BF000BDE81040FCF78EBB384E002038B5074CAE
:103C000007490848012300252370656000F03CFC4B
:103C10000223237085F3118838BD00BF6050002057
:103C20007C470008384E002008B572B6044B186572
:103C300000F0ACFA00F05CFB024B03221A70FEE7C6
:103C4000384E00206050002000F010B98B60022335
:103C500008618B82084670478368A3F1840243F8A9
:103C6000142C026943F8442C426943F8402C094A59
:103C700043F8242CC26843F8182C022203F80C2CB9
:103C8000002203F80B2C044A43F8102CA3F1200067
:103C9000704700BF2D030008384E002008B5FFF71D
:103CA000DBFFBDE80840FFF75BBF0000024BDB68AD
:103CB00098610F20FFF756BF384E0020302383F362
:103CC0001188FFF7F3BF000008B50146302383F3E6
:103CD00011880820FFF754FF002383F3118808BDE3
:103CE00010B503689C68A2420CD85C688A600B60BF
:103CF0004C602160596099688A1A9A604FF0FF33CE
:103D0000836010BD1B68121BECE700000A2938BF56
:103D10000A2170B504460D460A26601900F0AEFB74
:103D200000F09AFB041BA54203D8751C2E460446DE
:103D3000F3E70A2E04D9BDE87040012000F0E4BB8F
:103D400070BD0000F8B5144B0D46D96103F11001A8
:103D500041600A2A1969826038BF0A2201604860FE
:103D60001861A818144600F07BFB0A2700F074FBCA
:103D7000431BA342064606D37C1C281900F07EFB99
:103D800027463546F2E70A2F04D9BDE8F84001205E
:103D900000F0BABBF8BD00BF384E0020F8B50646AB
:103DA0000D4600F059FB0F4A134653F8107F9F420F
:103DB00006D12A4601463046BDE8F840FFF7C2BFAB
:103DC000D169BB68441A2C1928BF2C46A34202D9DA
:103DD0002946FFF79BFF224631460348BDE8F840DD
:103DE000FFF77EBF384E0020484E002010B4C0E9D7
:103DF000032300235DF8044B4361FFF7CFBF0000AE
:103E000010B5194C236998420DD0D0E90032816871
:103E100013605A609A680A449A60002303604FF066
:103E2000FF33A36110BD2346026843F8102F53608F
:103E30000022026022699A4203D1BDE8104000F0DE
:103E400017BB936881680B44936000F005FB2269FF
:103E5000E1699268441AA242E4D91144BDE81040D5
:103E6000091AFFF753BF00BF384E00202DE9F04775
:103E7000DFF8BC8008F110072C4ED8F8105000F085
:103E8000EBFAD8F81C40AA68031B9A423ED81444A7
:103E9000D5E900324FF00009C8F81C4013605A60A1
:103EA000C5F80090D8F81030B34201D100F0E0FA24
:103EB00089F31188D5E9033128469847302383F3E5
:103EC00011886B69002BD8D000F0C6FA6A69A0EBA4
:103ED00004094A4582460DD2022000F015FB00225B
:103EE000D8F81030B34208D151462846BDE8F04713
:103EF000FFF728BF121A2244F2E712EB090938BF74
:103F00004A4629463846FFF7EBFEB5E7D8F81030A9
:103F1000B34208D01444211AC8F81C00A960BDE8B7
:103F2000F047FFF7F3BEBDE8F08700BF484E002022
:103F3000384E002038B500F08FFA054AD2E908451E
:103F4000031B181945F10001C2E9080138BD00BF83
:103F5000384E002000207047FEE700007047000048
:103F60004FF0FF3070470000BFF34F8F024A1369D4
:103F7000DB03FCD4704700BF0020024008B5094BAA
:103F80001B7873B9FFF7F0FF074B5A69002ABFBFD0
:103F9000064A9A6002F188329A601A6822F48062B6
:103FA0001A6008BD785000200020024023016745B8
:103FB00008B50B4B1B7893B9FFF7D6FF094B5A692D
:103FC00042F000425A611A6842F480521A601A683C
:103FD00022F480521A601A6842F480621A6008BDA6
:103FE00078500020002002407F289ABF00F58030E2
:103FF000C0020020704700004FF4006070470000CE
:10400000802070477F2808B50BD8FFF7EDFF00F53B
:1040100000630268013204D104308342F9D10120E7
:1040200008BD0020FCE700007F2810B504461FD81B
:10403000FFF79AFFFFF7A2FF0E4BF3221A6102224D
:104040005A615A6942EAC0025A615A6942F480329E
:104050005A61FFF789FF4FF40061FFF7C5FF00F0D9
:1040600043F9FFF7A5FF2046BDE81040FFF7CABFA0
:10407000002010BD002002402DE9F84340EA020371
:1040800013F00703144606D0304B40F241321A6059
:104090000020BDE8F88385182D4A95420CD92B4A9B
:1040A00040F246311160F3E7031D1B684A689342F2
:1040B00008D1083C08300831072C14D902680B6875
:1040C0009A42F1D0FFF75AFFFFF74EFF214E083119
:1040D0004FF001084FF00009012CA1F1080706D8A4
:1040E000FFF766FF01E0002CECD10120D1E7C6F814
:1040F0001480054651F8083C45F8043B51F8043C4F
:104100004360FFF731FF336943F001033361C6F8C1
:104110001490026851F8083C9A420CD00B4B40F2C4
:104120006E321A600C4B18600C4B1C600C4B1F60FD
:10413000FFF73EFFACE72D6851F8043C9D4201F1CA
:104140000801EBD1083C0830C6E700BF74500020DE
:104150000000040800200240685000207050002039
:104160006C500020084908B50B7828B11BB9FFF73F
:1041700005FF01230B7008BD002BFCD0BDE80840F3
:104180000870FFF715BF00BF7850002008B506493A
:10419000064800F0ABF8BDE808404FF480414FF00E
:1041A000805000F0A3B800BF007F01000001002094
:1041B000084600F035BA000038B5EFF311859DB917
:1041C000EFF30584C4F30804302334B183F311887A
:1041D000FFF7B0FE85F3118838BD83F31188FFF730
:1041E000A9FE84F3118838BDBDE83840FFF7A2BEB0
:1041F00038B5FFF7E1FF114C114AC00840EA4170A1
:10420000A0FB025EC908A0FB040C1CEB050CA1FB83
:1042100004404FF000035B41A1FB02121CEB040CB5
:1042200043EB000011EB0E0142F10002411842F194
:104230000000090941EA007038BD00BFCFF753E321
:10424000A59BC4200244D2B2904200D17047431CC7
:10425000800000F1804000F51450006841F8040B24
:10426000D8B2F1E7124B10B5D3F89040240409D42A
:10427000D3F89040C3F89040D3F8904044F4004401
:10428000C3F890400B4C2368024443F480732360CE
:10429000D2B2904200D110BD431C800000F180409A
:1042A00000F5145051F8044B0460D8B2F1E700BF98
:1042B000001002400070004007B5012201A9002053
:1042C000FFF7C0FF019803B05DF804FB13B5044687
:1042D000FFF7F2FFA04205D0012201A900200194BE
:1042E000FFF7C0FF02B010BD70470000704700002C
:1042F00070470000074B45F255521A6002225A607F
:1043000040F6FF729A604CF6CC421A60024B0122D2
:104310001A7070470030004080500020034B1B781B
:104320001BB1034B4AF6AA221A6070478050002046
:1043300000300040054B1A6832B902F1804202F5A4
:104340000432D2F894201A60704700BF7C500020DD
:10435000024B4FF40002C3F8942070470010024053
:1043600008B5FFF7E7FF024B1868C0F3407008BDBF
:104370007C50002070470000FEE700000A4B0B480D
:104380000B4A90420BD30B4BDA1C121AC11E22F0BF
:1043900003028B4238BF00220021FCF765BE53F8B0
:1043A000041B40F8041BECE7FC4800080451002003
:1043B00004510020045100200023054A194601330E
:1043C000102BC2E9001102F10802F8D1704700BFBA
:1043D0008450002008B5124B9A6D42F001029A6594
:1043E0009A6F42F001029A670E4A9B6F936843F0FE
:1043F000010393600620FFF74FFA0B4BB0FBF3F07D
:104400004FF080434FF0FF3201389862DA620022A9
:104410009A615A63DA605A6001225A611A6008BDD3
:1044200000100240002004E040420F004FF08042A4
:1044300008B51169D3680B40D9B2C9439B07116114
:1044400007D5302383F31188FFF7FEFB002383F3A6
:10445000118808BDFFF7BEBF4FF08043586A704710
:104460004FF08043002258631A610222DA607047DD
:104470004FF080430022DA60704700004FF0804325
:1044800058637047FEE7000070B51B4B01630025C1
:10449000044686B0586085620E46FFF799F804F12D
:1044A0001003C4E904334FF0FF33C4E90635C4E90F
:1044B0000044A560E562FFF7CFFF2B460246C4E942
:1044C000082304F134010D4A256580232046FFF7B7
:1044D000BDFB0123E0600A4A0375009272680192F5
:1044E000B268CDE90223074B6846CDE90435FFF7F2
:1044F000D5FB06B070BD00BF6050002088470008A3
:104500008D47000885440008024AD36A1843D062E8
:10451000704700BF384E00204B6843608B68836053
:10452000CB68C3600B6943614B6903628B6943626B
:104530000B6803607047000008B5204BDA6A42F050
:104540007F02DA62DA6A22F07F02DA62DA6ADA6C11
:1045500042F07F02DA64DA6E42F07F02DA66184ACD
:10456000DB6E11464FF09040FFF7D6FF02F11C01C1
:1045700000F58060FFF7D0FF02F1380100F58060A0
:10458000FFF7CAFF02F1540100F58060FFF7C4FF96
:1045900002F1700100F58060FFF7BEFF02F18C01AF
:1045A00000F58060FFF7B8FF02F1A80100F5806018
:1045B000FFF7B2FFBDE80840FFF7F0B80010024077
:1045C0009447000808B500F009F8FFF717FBBDE8AD
:1045D0000840FFF7AFBE00007047000008B5FFF7C6
:1045E000D5F8FFF7E9FEFFF7F7FFBDE80840FFF752
:1045F00031BF00000B460146184600F003B800002A
:1046000000F00EB810B5054C13462CB10A46014611
:104610000220AFF3008010BD2046FCE70000000040
:10462000024B01461868FFF7C3BD00BF40230020BE
:1046300010B501390244904201D1002005E0037811
:1046400011F8014FA34201D0181B10BD0130F2E751
:104650002DE9F041A3B1C91A17780144044603F1CA
:10466000FF3C8C42204601D9002009E00578BD427C
:1046700004F10104F5D10CEB0405D618A54201D1D3
:10468000BDE8F08115F8018D16F801EDF045F5D083
:10469000E7E70000034611F8012B03F8012B002A7D
:1046A000F9D170476F72672E6172647570696C6FB3
:1046B000742E4E75636C656F2D47343931000000E0
:1046C00040A2E4F1646891060041A3E5F2656992B5
:1046D000070000004261642043414E496661636502
:1046E00020696E6465782E00000000000000000064
:1046F0009D1D000855180008B1240008C5180008C1
:1047000009190008F11A0008D11800088D180008CE
:10471000911800086918000851180008AD1A00081F
:1047200075180008E925000881180008811A00089A
:1047300001040E05054B02020E05054B04010E0592
:10474000054B05010B04044B08010603034600005A
:10475000636C6B73776300000003000000000000CF
:1047600000010000000001010300000023283101C6
:1047700004070400010000006330000078470008CF
:10478000904E0020605000206D61696E0069646C7D
:10479000650000000004002800000000AAAAAAAAE0
:1047A00000000024DFFF0000000000000000000007
:1047B00000000A0000000000AAAAAAAA0000000047
:1047C000FFFF000000000000990000000000000052
:1047D00000000000AAAAAAAA00000000FFFF000033
:1047E00000000000000000000000000000000000C9
:1047F000AAAAAAAA00000000FFFF00000000000013
:10480000000000000000000000000000AAAAAAAA00
:1048100000000000FFFF000000000000000000009A
:104820000000000000000000AAAAAAAA00000000E0
:10483000FFFF00000000000000000000000000007A
:1048400000000000AAAAAAAA00000000FFFF0000C2
:104850000000000000000000100400000000000044
:104860000060030000000000FE2A0100D2040000E6
:10487000006889096D8BB90200B4C4040068890915
:104880000068890900688909006889090068890940
:104890000068890900000000442300200000000097
:1048A0000000000000000000000000000000000008
:1048B00000000000000000000000000000000000F8
:1048C00000000000000000000000000000000000E8
:1048D00000000000000000000000000000000000D8
:1048E00000000000000000000000000000000000C8
:0C48F000000000000000000000000000BC
:00000001FF
