:020000040800F2
:1000000000070020F1010008F9230008B1230008CF
:10001000D9230008B1230008D1230008F301000808
:10002000F3010008F3010008F3010008ED330008B4
:10003000F3010008F3010008F3010008F3010008D0
:10004000F3010008F3010008F3010008F3010008C0
:10005000F3010008F30100087D410008A5410008F4
:10006000CD410008F54100081D420008F3010008D9
:10007000F3010008F3010008F3010008F301000890
:10008000F3010008F3010008F301000865230008EC
:1000900091230008A1230008F3010008454200084D
:1000A000F3010008F3010008F3010008F301000860
:1000B00019430008F3010008F3010008F3010008E8
:1000C000F3010008F3010008F3010008F301000840
:1000D000F3010008F3010008F3010008F301000830
:1000E000A9420008F3010008F3010008F301000829
:1000F000F3010008F3010008F3010008F301000810
:10010000F3010008F3010008F3010008F3010008FF
:10011000F3010008F3010008F3010008F3010008EF
:10012000F3010008F3010008F3010008F3010008DF
:10013000F3010008F3010008F3010008F3010008CF
:10014000F3010008F3010008F3010008F3010008BF
:10015000F3010008F3010008F3010008F3010008AF
:10016000F3010008F3010008F3010008F30100089F
:10017000F3010008F3010008F3010008F30100088F
:10018000F3010008F3010008F3010008F30100087F
:10019000F3010008F3010008F3010008F30100086F
:1001A000F3010008F3010008F3010008F30100085F
:1001B000F3010008F3010008F3010008F30100084F
:1001C000F3010008F3010008F3010008F30100083F
:1001D000F3010008F3010008F3010008F30100082F
:1001E000B90F00080000000000000000000000003F
:1001F00002E000F000F8FEE772B6374880F30888A6
:10020000364880F3098836483649086040F20000D5
:10021000CCF200004EF63471CEF200010860BFF35C
:100220004F8FBFF36F8F40F20000C0F2F0004EF628
:100230008851CEF200010860BFF34F8FBFF36F8F7C
:100240004FF00000E1EE100A4EF63C71CEF20001D4
:100250000860062080F31488BFF36F8F03F0A4FDBD
:1002600003F036FE4FF055301F491B4A91423CBF08
:1002700041F8040BFAE71D49184A91423CBF41F886
:10028000040BFAE71A491B4A1B4B9A423EBF51F82E
:10029000040B42F8040BF8E700201849184A914271
:1002A0003CBF41F8040BFAE703F082FD03F064FE63
:1002B000144C154DAC4203DA54F8041B8847F9E797
:1002C00000F042F8114C124DAC4203DA54F8041B12
:1002D0008847F9E703F06ABD0007002000230020EB
:1002E0000000000808ED00E00001002000070020E9
:1002F00018470008002300208023002080230020CE
:10030000604D0020E0010008E4010008E40100085D
:10031000E40100082DE9F04F2DED108AC1F80CD052
:10032000C3689D46BDEC108ABDE8F08F002383F3BF
:1003300011882846A047002003F0B4F9FEE703F037
:100340003DF900DFFEE70000F8B500F047FE03F0DE
:10035000C5FC074603F014FD0546C0BB294B9F4270
:1003600035D001339F4235D0274B27F0FF029A4208
:1003700033D1F8B200F03EFC2E4642F2107400F089
:100380003FFC08B10024264601F012F948B30320CF
:1003900000F03EF80024264635B11C4B9F4203D0A6
:1003A00003F0E6FC00242646002003F0A1FC0EB179
:1003B00000F044F800F090FC02F026F80546C4B9BD
:1003C00000F0D2FC4FF47A7003F072F9F7E72E4692
:1003D0000024D4E704460126D1E7064641F28834DA
:1003E000CDE741F288339C4204BF4FF47A74012672
:1003F000D2E702F009F8431BA342E1D900F01EF84E
:10040000DAE700BF010007B0000008B0263A09B0E3
:10041000084B187003280CD8DFE800F00805020824
:10042000022000F037BE022000F02CBE024B00225A
:100430005A607047802300208423002010B501F00B
:10044000B7F830B1204B03221A70204B00225A60BB
:1004500010BD1F4B1F4A1C4619680131F8D00433E8
:100460009342F9D162681C4B9A42F1D91B4B9B68AD
:1004700003F1006303F580339A42E9D203F04CFCA8
:1004800003F05EFC002000F0C3FD0220FFF7C0FF78
:10049000134B1A6C00221A64196E1A66196E596C85
:1004A0005A64596E5A665B6E72B64FF0E023302183
:1004B000C3F8084DD4E9003281F311889D4683F3D7
:1004C00008881047C4E700BF802300208423002051
:1004D0000000010820000108FFFF000800230020A1
:1004E00000380240094A136849F2690099B21B0CAE
:1004F00000FB01331360064B186844F2506182B26E
:10050000000C01FB0200186080B270471823002025
:100510001423002010B500211022044600F0D6FD5F
:10052000034B03CB206061601868A06010BD00BF62
:10053000107AFF1F2DE9F041ADF54C7D0DF12C082F
:100540006AAC40F2751207460D460CA80021C8F8A7
:10055000001000F0BBFD4FF4C4720021204600F0F3
:10056000B5FD01F051FF274B4FF47A72B0FBF2F06A
:10057000186093E80700022384E807000DF5E57092
:100580002382FFF7C7FF47F217231F49238407A8D9
:1005900003F0CEFF0E2384F832310DF2DB2207ABDD
:1005A0000DF1240C1E4603CE6645106051603346A3
:1005B00002F10802F6D130681060B388938041469A
:1005C0000122204600F0CEFD00230393AB7E029370
:1005D00005F11903019380B20123CDE90480009352
:1005E000E97E06A3D3E90023384602F0D5FA0DF5DB
:1005F0004C7DBDE8F08100BFAFF300809E6AC4214E
:10060000818A46EE8C230020404500082DE9F04108
:100610002C4C237ADAB080460D465BBB27A92846CE
:1006200000F0B0FE0746002842D19DF89D60C82E1C
:100630003ED801464FF4A662204600F047FD4FF435
:100640008073C4F8F8314FF40073C4F80C334FF4DE
:100650004073C4F8203432460DF19E0104F10900C4
:1006600000F022FD26449DF89C30777223720BB96E
:10067000EB7E23728122002106AC27A800F026FD24
:100680000122214627A800F0B9FE00230393AB7E88
:10069000029305F1190380B201932823CDE90440A8
:1006A0000093E97E05A3D3E90023404602F074FAE3
:1006B0005AB0BDE8F08100BFAFF3008026417272EE
:1006C000DF25D7B7B0440020F0B5254E4FF48A752A
:1006D00005FB0065F1B096F8D83085F8DC300024D1
:1006E000D822214685F8E8403AA800F0EFFC06F150
:1006F000090000F0E3FCD5F8E4308DF8F000C2B258
:1007000006AF06F109010DF1F100CDE93A3400F030
:10071000CBFC394601223AA800F09CFE80B2CDE91C
:10072000047008230127CDE9023706F1D8030193AD
:1007300030230093317A0B4807A3D3E9002302F05A
:100740002BFAA04206DD01F05FFEC5F8E000384656
:1007500071B0F0BD2046FBE778F6339F93CACD8D8C
:10076000B0440020A43300202DE9F0411D4D1E4E61
:100770001E4F86B0284602F03BFA034658B30024C9
:10078000CDE90344ADF81440027B8DF8142099683C
:100790004068029403AA03C21B68DFF8548043F048
:1007A0000043029301F032FE821941F100030094EC
:1007B00002A9384601F0DAF8A04205DD284602F029
:1007C0001BFA88F80040D5E798F80030072B05D8C9
:1007D000013388F8003006B0BDE8F081014802F02E
:1007E0000BFAF8E7A433002040420F00D833002072
:1007F000E549002070B50D4614461E4602F028F962
:1008000050B9022E10D1012C0ED112A3D3E900232E
:10081000C5E90023012007E0282C10D005D8012CC1
:1008200009D0052C0FD0002070BD302CFBD10BA3BC
:10083000D3E90023ECE70BA3D3E90023E8E70BA3FC
:10084000D3E90023E4E70BA3D3E90023E0E700BFEB
:10085000AFF30080401DA12026812A0B78F6339F3C
:1008600093CACD8D9E6AC421818A46EE264172725A
:10087000DF25D7B7F017304A39059E5638B50546FB
:100880000E4C0021013500F0E5FBA4F82C55B4F81E
:100890002C0500F0C7FB78B1B4F82C0500F0D2FBB2
:1008A000014648B9B4F82C0500F0D4FBB4F82C3557
:1008B0000133A4F82C35EAE738BD00BFB04400206E
:1008C00010B50A4B0A4A1A6003F5805393F860206A
:1008D0003AB9DC6D2CB1204600F0E8FE204603F06A
:1008E00067FDBDE81040034800F0E0BED8330020AB
:1008F0008C450008204400202DE9F04F8FB000AF58
:1009000005460C4602F0A4F8002849D1237E022BAC
:100910001BD1E38A012B18D101F076FD0646FFF7C3
:10092000E1FD03464FF4C870DFF8C482B3FBF0F278
:1009300006F5167602FB103316FA83F3C8F800307A
:10094000E37E33B9A34B00221A703C37BD46BDE8A5
:10095000F08F07F12401204600F0D2FC0028F4D1EA
:1009600007F11400FFF7D6FD97F8264007F11401B0
:10097000224607F1270003F065FD0028E2D10F2C85
:1009800008D8944B1C70D8F80030A3F51673C8F83B
:100990000030DAE797F82410284602F051F8D4E73F
:1009A000E38A282B2BD010D8012B23D0052BCCD1B8
:1009B000BFF34F8F8849894BCA6802F4E062134342
:1009C000CB60BFF34F8F00BFFDE7302BBDD1844E0E
:1009D000E17E327A9142B8D1607E3146002291F8B0
:1009E000DC50854200F0A5800132042A01F58A71AD
:1009F000F5D1AAE721462846FFF79CFDA5E7214649
:100A00002846FFF703FEA0E7B2F8EC507B6005F143
:100A100003094FEA99094FEA8902D11DC908A8EBD9
:100A2000C1039D46EB460021584600F04FFB04F100
:100A3000EE012A463144584600F036FB7B6813B974
:100A4000012000F0E5FA96F8D20000F0EBFA044637
:100A500030B9307200F006FB204600F0D9FAB1E060
:100A6000D6F8D4203AB996F8D200B6F82C258242AE
:100A700001D8FFF703FFD6F8D4202A44944208D2C5
:100A800096F8D200B6F82C250130824201D8FFF743
:100A9000F5FE70685FFA89F2594600F01FFB08B94D
:100AA000C54679E0726896F8D2002A447260D6F89A
:100AB000D42005EB0209C6F8D49000F0B3FA8145C2
:100AC00009D396F8D220D6F8D4000132001B86F85C
:100AD000D220C6F8D400FF2D0FD80024347200F0C5
:100AE000C1FA204600F094FA00F062FD3D4B1881F7
:100AF00008B9FFF7A3FCC54627E7BB6896F8D900FD
:100B00000AFB0362FB68D2F8E41082F8E83001F5D2
:100B10008061C2F8E030C2F8E410FFF7D5FDFFF7BE
:100B200023FE96F8D920013202F0030286F8D9207C
:100B3000B6E74FF48A7A0AFB02F505F1EA0131447F
:100B4000204600F0B3FCF86000287FF4FEAE354488
:100B5000012285F8E82001F057FCD5F8E020D6ED19
:100B6000007ADFED216A801A192838BF192040F673
:100B7000B832904228BF1046B8EE677A07EE900A66
:100B8000F8EEE77A67EEA67ADFED186AE7EE267AE6
:100B9000FCEEE77AC6ED007A96F8D930BB60BA6809
:100BA00073680AFB02F4321992F8E81059B1D2F8CE
:100BB000E4108B42E8463FF427AF002182F8E810AA
:100BC000C2F8E010C5467368064A9B0A01331381D8
:100BD000BBE600BF9D33002000ED00E00400FA05F5
:100BE000B04400208C230020CDCCCC3D6666663F0F
:100BF000A0330020014B1870704700BF98230020DD
:100C000030B54FF000542B4B22689A4285B007D084
:100C100003F0C0F8044620BB0024204605B030BDD8
:100C2000254B627D25481A70237D03724FF4807333
:100C3000C0F8F8314FF40073C0F80C3300254FF4BE
:100C40004073C0F820341E49C0F8E450C92209306E
:100C500000F02AFA2046E022294600F037FA012463
:100C6000DBE7184A184D136C43F000731364AA6D48
:100C7000164B9A42D0D12B6E013B7E2BCCD8144A16
:100C800007CA01AB83E807001846032100F05EFCA9
:100C90006B6D83424FF00003BED12A6D8A4201BFC3
:100CA000AB65054B2A6E1A7003BF0A4BEA6D1A60DA
:100CB0001C46B2E79AAD44C598230020B0440020FA
:100CC0001600002000380240006600405041A0B0ED
:100CD000586600401023002037B51A4D00F068FC1C
:100CE00002236B71184B288119681848012201F002
:100CF00027FA00230193164B164900931648174B09
:100D00004FF4805201F074FE154B197811B112485E
:100D100001F096FE01F078FB0446FFF7E3FB4FF489
:100D2000C873B0FBF3F202FB130304F5167010FA5C
:100D300083F00C4B186003F023F808B10F232B81CC
:100D400003B030BD8C23002010230020D8330020B6
:100D5000F50700089C230020A4330020F9080008B0
:100D600098230020A03300202DE9F04F2DED028BB9
:100D70000FF23829D9E90089834C93B00BAE9FED6F
:100D80007E8BFFF7F1FC814FDFF828A200230A9346
:100D9000ADF834300B9373604FF0000B5B468DED74
:100DA000008B01250DF11D0207A938468DF81C5056
:100DB0008DF81DB001F072F99DF81C30002B40F049
:100DC000A580204601F044FE0646002845D1704F1C
:100DD00001F01AFB3B6898423FD301F015FB8246B5
:100DE000FFF780FB4FF4C873B0FBF3F202FB130371
:100DF0000AF5167010FA83F03860664F97F800B065
:100E0000CBF1100ABBF1000F14BF33462B465FFA3B
:100E10008AFA0EA88DF82830FFF77CFBBAF1060F8E
:100E200028BF4FF0060A0EAB03EB0B0152460DF143
:100E3000290000F039F90AAB0393182302930AF151
:100E40000102554BD2B2CDE90053049220464CA387
:100E5000D3E9002301F042FE3E7001F0D5FA4F4A7B
:100E60004F4D1368C31AB3F57A7F2ED3106001F08B
:100E7000CDFA02460B46204601F0C8FE204601F09E
:100E8000E7FD10B32B7A474E002B14BF0323022338
:100E9000737101F0B9FA0EAF4FF47A730122B0FB0F
:100EA000F3F039463060304600F002FA182302931E
:100EB0003D4B019380B240F25513CDE9037000938E
:100EC00042464B46204601F009FE2B7A93B101F0D1
:100ED0009BFA002607464FF48A7A95F8D9003044E9
:100EE00000F003000AFB005393F8E82092B30136A8
:100EF000042EF2D1C82002F0DBFB2B7A002B7FF40A
:100F00003DAF13B0BDEC028BBDE8F08FDAF81430C2
:100F100083F01003CAF81430594610220EA800F0CE
:100F2000D5F80DF11E0308AA0AA9384600F01EFEE6
:100F300096E803000FAB83E803009DF834308DF88A
:100F400044300A9B0E930EA9DDE90823204602F0E7
:100F500031F821E7D3F8E02042B12B68FA2B38BFF3
:100F6000FA23BA1A0533B2EB430FC0D3FFF7ACFB39
:100F70000028BCD1BEE700BF000000000000000058
:100F8000401DA12026812A0BA4330020D833002045
:100F9000A03300209D3300209C330020E049002036
:100FA000B04400208C230020E4490020F1C6A7C1F2
:100FB000D068080F0008024008B5054800F072FE2E
:100FC000BDE80840034A0449002003F0EBB900BF24
:100FD000D8330020204A0020C108000870B502F074
:100FE0001FFD094E094D3080002428683388834254
:100FF00008D902F00FFD2B6804440133B4F5803F9B
:101000002B60F2D370BD00BF144A0020E8490020D5
:1010100002F0B4BD00F10060920000F5803002F0F3
:1010200045BD0000054B1A68054B1B889B1A83427F
:1010300002D9104402F0EEBC00207047E8490020BD
:10104000144A0020024B1B68184402F0EBBC00BF9E
:10105000E8490020024B1B68184402F0FBBC00BFAB
:10106000E8490020064991F8243033B10023086A8A
:1010700081F824300822FFF7CDBF0120704700BF60
:10108000EC490020022802BF014B10229A617047F0
:1010900000080240022802BF024B4FF480129A61FE
:1010A000704700BF0008024010B50023934203D0F0
:1010B000CC5CC4540133F9E710BD0000034602467E
:1010C000D01A12F9011B0029FAD1704702440346D5
:1010D000934202D003F8011BFAE770472DE9F84369
:1010E0001F4D144695F824200746884652BBDFF86A
:1010F00070909CB395F824302BB92022FF214846EC
:101100002F62FFF7E3FF95F82400C0F10802A24226
:1011100028BF2246D6B24146920005EB8000FFF779
:10112000C3FF95F82430A41B1E44F6B2082E1744C2
:101130009044E4B285F82460DBD1FFF793FF0028E8
:10114000D7D108E02B6A03EB82038342CFD0FFF7AD
:1011500089FF0028CBD10020BDE8F8830120FBE700
:10116000EC4900202DE9F0470D4604460021904649
:10117000284640F27912FFF7A9FF234620220021DA
:10118000284601F0B9FE231D02222021284601F045
:10119000B3FE631D03222221284601F0ADFEA31DEC
:1011A00003222521284601F0A7FE04F1080310229E
:1011B0002821284601F0A0FE04F11003082238215E
:1011C000284601F099FE04F1110308224021284627
:1011D00001F092FE04F1120308224821284601F092
:1011E0008BFE04F1140320225021284601F084FED6
:1011F00004F1180340227021284601F07DFE04F11D
:1012000020030822B021284601F076FE04F12103D4
:101210000822B821284601F06FFE04F12207C026FB
:101220003B46314608222846083601F065FEB6F5F1
:10123000A07F07F10107F3D104F132030822314600
:10124000284601F059FE002704F1330A94F83230A1
:101250004FEAC7099F4209F5A47615D3B8F1000FEC
:1012600008D1314604F599730722284601F044FE5F
:1012700009F24F16274694F832213B1B93420CD3B8
:10128000F01DC008BDE8F0870AEB070308223146CD
:10129000284601F031FE0137D8E707F23313314613
:1012A0000822284601F028FE08360137E3E700004F
:1012B00013B504460846002101602346C0F8031018
:1012C0002022019001F018FE0198231D0222202106
:1012D00001F012FE0198631D0322222101F00CFE91
:1012E0000198A31D0322252101F006FE019804F1B7
:1012F00008031022282101F0FFFD072002B010BDD5
:10130000F7B50023047F00910E46072219460546D3
:1013100001F0B6FC731C009301220023072128462C
:1013200001F0AEFCC4B9B31C00930522234608218A
:10133000284601F0A5FC0D243746B278BB1B93422A
:1013400011D32B7FA88A0734E408BBB9844294BF29
:101350000020012003B0F0BDAB8ADB00083BDB08B6
:10136000B3700824E8E7FB1C009321460023082201
:10137000284601F085FC08340137DEE7201A18BF43
:101380000120E7E7F7B50023047F00910E4608220D
:101390001946054601F074FC731CC4B90822009379
:1013A00011462346284601F06BFC10240123727875
:1013B0005F1C013B934211D32B7FA88A0734E408BA
:1013C000BBB9844294BF0020012003B0F0BDAB8ABA
:1013D000DB00083BDB0873700824E7E7F319009390
:1013E000214600230822284601F04AFC08343B46E7
:1013F000DDE7201A18BF0120E7E70000F8B50E4628
:1014000005461446002181223046FFF75FFE2B4639
:1014100008220021304601F06FFD7CB96B1C0722C9
:101420000821304601F068FD0F2401236A785F1C13
:10143000013B934204D3E01DC008F8BD0824F4E743
:10144000EB1921460822304601F056FD08343B4690
:10145000ECE70000F8B50E46054614460021CE2202
:101460003046FFF733FE2B4628220021304601F09C
:1014700043FD7CB905F1080308222821304601F01C
:101480003BFD30242F462A7A7B1B934204D3E01D78
:10149000C008F8BD2824F5E707F109032146082212
:1014A000304601F029FD08340137ECE7F7B5047F39
:1014B00000910E46012310220021054601F0E0FBB9
:1014C000C4B9B31C0093092223461021284601F019
:1014D000D7FB192437467288BB1B9A4211D82B7F41
:1014E000A88A0734E408BBB9844294BF00200120D5
:1014F00003B0F0BDAB8ADB00103BDB087380102427
:10150000E8E73B1D0093214600230822284601F00E
:10151000B7FB08340137DEE7201A18BF0120E7E7E0
:1015200030B5094D0A4491420DD011F8013B5840A5
:10153000082340F30004013B2C4013F0FF0384EA2E
:101540005000F6D1EFE730BD2083B8EDF7B54FF08E
:10155000FF33DFF854C0DFF854E000EB81011A4696
:1015600088421CD050F8044B019401AF042417F8B2
:10157000015B82EA05620825DB18164605F1FF3596
:101580005241002EBCBF83EA0C0382EA0E0215F022
:10159000FF05F1D1013C14F0FF04E8D1E0E7D843A6
:1015A000D14303B0F0BD00BF9336EAA9EBE1F042AE
:1015B000F7B5384A106851686B4603C36A46364926
:1015C0003648082302F04EFF0446002833D10A258E
:1015D000334A106851686B4603C36A4631492F4845
:1015E000082302F03FFF0446002849D00369B3F501
:1015F000702F45D8B0F8661041F2727291423FD117
:10160000294A024402F15C018B4239D35C3B2349F5
:1016100000209E1AFFF784FF3246074604F164015A
:101620000020FFF77DFFA3689F4229D1E36898421D
:1016300008BF002524E00369B3F5702F27D8418B3C
:1016400041F27272914220D1174A024402F1100114
:101650008B4218D3103B114900209D1AFFF760FF01
:101660002A46064604F118010020FFF759FFA36837
:101670009E4202D1E368984201D00D25A8E70025DB
:10168000284603B0F0BD1025A2E70C25A0E70B25E6
:101690009EE700BF50450008DCFF0E000000010877
:1016A0005945000890FF0E000800FFF710B5037CB5
:1016B000044613B9006802F0BDFE204610BD0000CC
:1016C0000023BFF35B8FC360BFF35B8FBFF35B8F00
:1016D0008360BFF35B8F7047BFF35B8F0068BFF31E
:1016E0005B8F704770B505460C30FFF7F5FF05F1CD
:1016F000080604463046FFF7EFFFA04206D9304601
:101700006D68FFF7E9FF2544281A70BD3046FFF7E2
:10171000E3FF201AF9E7000070B50546406898B16C
:1017200005F10800FFF7D8FF05F10C060446304626
:10173000FFF7D2FF8442304694BF6D680025FFF763
:10174000CBFF013C2C44201A70BD000038B50C467C
:101750000546FFF7C7FFA04210D305F10800FFF7C9
:10176000BBFF04446868B4FBF0F100FB1144BFF315
:101770005B8F0120AC60BFF35B8F38BD0020FCE7BE
:101780002DE9F041144607460D46FFF7C5FF844298
:1017900028BF0446D4B1B84658F80C6B4046FFF752
:1017A0009BFF3044286040467E68FFF795FF331A60
:1017B0009C4203D86C600120BDE8F0816B60A41BE3
:1017C0003B68AB602044E8600220F5E72046F3E781
:1017D00038B50C460546FFF79FFFA04210D305F130
:1017E0000C00FFF779FF04446868B4FBF0F100FBDC
:1017F0001144BFF35B8F0120EC60BFF35B8F38BDFA
:101800000020FCE72DE9FF41884669460746FFF7BF
:10181000B7FF6C4606B204EBC6060025B44209D0F9
:101820006268206808EB0501FFF73EFC6368083436
:101830001D44F3E729463846FFF7CAFF284604B09F
:10184000BDE8F081F8B505460C300F46FFF744FFC0
:1018500005F1080604463046FFF73EFFA042304639
:1018600088BF6C68FFF738FF201A386020B1304617
:101870002C68FFF731FF2044F8BD000073B5144613
:1018800006460D46FFF72EFF844228BF044601900E
:10189000DCB101A93046FFF7D5FF019B33B93268AF
:1018A000C5E90233C5E9002401200CE09C4238BFA1
:1018B00001942860019868608442F5D93368AB6070
:1018C000241AEC60022002B070BD2046FBE7000045
:1018D0002DE9FF410F466946FFF7D0FF6C4600B285
:1018E00004EBC0050026AC4209D0D4F8048054F8BB
:1018F000081BB8194246FFF7D7FB4644F3E73046CA
:1019000004B0BDE8F081000038B50546FFF7E0FF00
:10191000044601462846FFF719FF204638BD00005F
:1019200010B4026854681A4623465DF8044B184701
:10193000002070470020704770470000002070476B
:101940000E20704700F5805090F8C800C0F34000AA
:101950007047000000F5805090F9D00070470000FB
:1019600000F58050C0F8CC1001207047F7B50C6826
:10197000BDF8207014F0005470D10D7B082D6DD887
:10198000302585F311884569AE6876010CD4AC68C2
:10199000240108D4AC6814F080545DD184F311881C
:1019A000204603B0F0BD01240E6804F1180C002E8F
:1019B000B8BFF6004FEA0C1CB4BF46F0040676052B
:1019C00045F80C600E680FFA84FC16F0804F18BFC3
:1019D00005EB0C1E05EB0C1C1EBFDEF8806146F00B
:1019E0000206CEF880610E7BCCF8846105EB04150D
:1019F0008E68C5F88C614E68C5F88861DCF8805146
:101A000045F00105CCF8805100EB441641F2680521
:101A10002E4405EB44150544C6E9002308350E465F
:101A200001F10C0C56F804EB45F804EB6645F9D1CE
:101A3000843436882E8000EB441407F003052679A1
:101A400026F00B0635432571002484F31188009796
:101A500000F0FCFC0120A4E70224A5E74FF0FF30D2
:101A60009FE7000013B500F580540191E06DFFF78A
:101A700053FE1F280AD90199E06D2022FFF7C2FE0C
:101A8000A0F120035842584102B010BD0020FBE7EE
:101A900008B5302383F3118800F58050C06DFFF73F
:101AA0000FFE002383F3118808BD000000220260AE
:101AB000828142608260704710B500220023C0E935
:101AC00000230023044603810C30FFF7EFFF20467C
:101AD00010BD0000F0B5054600F580500C4690F8AA
:101AE000C83013F0040FC3F3800108BF114661F33F
:101AF000820304F1840680F8C83005EB461389B0F0
:101B00001B79D8072ED57AB319072DD46846FFF76D
:101B1000D3FF05EB441303F5835303F1180703AA1E
:101B2000103318685968144603C40833BB42224670
:101B3000F7D1186820609B88A380DDE90E23CDE9EA
:101B400000230123ADF808302B686946DB6B28467B
:101B5000984705EB46152B791A075CBF43F008033D
:101B60002B7101E0002AF4D109B0F0BD2DE9F04756
:101B70009A4688B0074688469146302383F31188F9
:101B800007F580546846FFF797FFE06DFFF7AAFD61
:101B90001F282AD9E06D20226946FFF7B5FE2028CC
:101BA00023D103AD444605AB2E4603CE9E422060B2
:101BB0006160354604F10804F6D130682060B388CE
:101BC000A380DDE90023C9E90023BDF80830AAF8A5
:101BD0000030002383F3118853464A464146384675
:101BE00008B0BDE8F04700F01FBC002080F311886A
:101BF00008B0BDE8F08700002DE9F84F0023C0E9E8
:101C00000133254B044640F8183B0F46FFF74EFFC3
:101C100004F12800FFF750FF04F1480804F582554D
:101C20004646083530462036FFF746FFAE42F9D12A
:101C300004F580554FF480534FF00009C5E913397E
:101C4000C5F848800123EE6504F5875804F58456ED
:101C5000C5F8549085F8583085F86030083608F19A
:101C600008084FF0000A4FF0000B46E908ABA6F158
:101C70001800FFF71BFF203646F8289C4645F4D194
:101C800085F8D07017B1054800F0B8FB044B6361CC
:101C90002046BDE8F88F00BF8C4500086445000869
:101CA0000064004010B5044B197804464A1C1A70B1
:101CB000FFF7A2FF204610BD1C4A00202DE9F04787
:101CC000002950D0294B2A4FB7FBF1F599428CBF20
:101CD0000A231123581EB5FBF3FC03FB1C53C4B2AB
:101CE0002BB102280346F5D80020BDE8F0870CF19F
:101CF000FF36B6F5806FF7D2C4EBC40E0EF10303C6
:101D00004FEAE309C3F3C703A4EB030809F1010A8F
:101D10004FF47A755FFA88F009FB05555AFA88F88E
:101D2000B5FBF8F5B5F5617FC1BF0EF1FF33C3F325
:101D3000C703E01AC0B25C1C50FA84F40CFB04F434
:101D4000B7FBF4F4A142CFD1013BDBB20F2BCBD8D0
:101D50000138C0B20728C7D80021107116809170D1
:101D6000D3700120C1E70846BFE700BF3F420F0024
:101D700080DE800270B505460E464FF47A746B69BA
:101D80005B6803F00103B34207D04FF47A7001F0AF
:101D90008FFC013CF3D1204670BD0120FCE7000020
:101DA00030B54269936913F0700F16D000230B4CC5
:101DB000936103F1840200EB421211794D0709D5BA
:101DC000890707D5416954F823508D60117941F096
:101DD000040111710133032BEBD130BD78450008AC
:101DE00073B51D46436916469A68D207044609D55D
:101DF0009A6801219960C2F34002CDE90065002193
:101E0000FFF768FE63699A68D1050BD59A684FF4AD
:101E100080719960C2F34022CDE90065012120461E
:101E2000FFF758FE63699A68D2030BD59A684FF49E
:101E300080319960C2F34042CDE90065022120461D
:101E4000FFF748FE04F58053D3F8CC0010B10368C7
:101E50001B699847204602B0BDE87040FFF7A0BF5D
:101E6000F8B504464669002972D106F10C073868B6
:101E7000800770D006EB01153868D5F8B00110F076
:101E8000040FD5F8B0011ABFC00840F00040400D63
:101E9000A061D5F8B0C11CF0020F1CBF40F080401B
:101EA000A061D5F8B40106EB011100F00F0084F831
:101EB0002400D1F8B8012077D1F8B801000A607782
:101EC000D1F8B801000CA077D1F8B801000EE07786
:101ED000D1F8BC0184F82000D1F8BC01000A84F8D4
:101EE0002100D1F8BC01000C84F82200D1F8BC110B
:101EF000090E84F823103821396004F1340004F10C
:101F0000180104F1240551F8046B40F8046BA94250
:101F1000F9D109880180C4E90A23214600232386D8
:101F200051F8283B2046DB6B984704F5805393F823
:101F3000C820D3F8CC0042F0040283F8C82010B1C6
:101F400003681B6998472046BDE8F840FFF728BFA3
:101F500006F110078BE7F8BD10B5044600F056FAFD
:101F600002460B4652EA030102D0013A63F1000334
:101F70000449086820B12146BDE81040FFF770BF52
:101F800010BD00BF184A0020F0B5302181F3118840
:101F9000DFF848C000F583510831002404F18405BE
:101FA00000EB45152E7977070ED4F6060CD5D1E94E
:101FB000007697429E4107D246695CF82470B7606C
:101FC0002E7946F004062E710134032C01F1200114
:101FD000E4D1002383F31188F0BD00BF78450008E9
:101FE00008B5302383F31188FFF7DAFE002383F36B
:101FF000118808BDF8B543690546986800F0E050BF
:10200000B0F1E05F0F4621D0F8B1302383F311889F
:1020100005F583541034002606F1840305EB4313C1
:102020001B791A0706D50136032E04F12004F3D1DB
:10203000012007E05B07F6D42146384600F040FA5D
:102040000028F0D1002383F31188F8BD0120FCE7BC
:1020500008B5302383F3118800F58050C06DFFF779
:1020600041FB002383F3118843090CBF01200020AA
:1020700008BD0000F8B51D46002313700F46064644
:102080001446FFF7E5FF80F00100387025B12946BE
:102090003046FFF7AFFF2070F8BD00002DE9B841D2
:1020A0000C4615461F46804600F0B0F90B462178D5
:1020B000024609B9287850B14046FFF765FFFFF79F
:1020C0008FFF3B462A462146FFF7D4FF0120BDE89B
:1020D000B881000070B5302686F31188174B1A6C52
:1020E00042F000721A641A6A42F000721A621A6AA6
:1020F00022F000721A62002383F3118800F58054E5
:1021000094F8C83013F0010516D1A9B186F31188EF
:102110000321132001F0C8F90321142001F0C4F9B0
:102120000321152001F0C0F994F8C83043F00103F1
:1021300084F8C83085F3118870BD00BF00380240B4
:102140002DE9F04700F5805588B095F8D030012B87
:1021500004468846164600F28180814F57F82320B6
:102160000AB947F82300D7F800A0C4F80C802674F9
:10217000BAF1000F64D095F8D030012B70D0012156
:102180002046FFF7A7FF302383F3118862691368A5
:1021900023F0020313606269136843F001031360C4
:1021A000636900275F6187F3118801212046FFF7EB
:1021B000E1FD002800F09580E86DFFF781FA04F555
:1021C0008359BA4609F10809202200216846FEF722
:1021D0007DFF02A8FFF76AFCCDF818A06A4609EB5C
:1021E00007030DF1180E9446BCE80300F44518608F
:1021F0005960624603F10803F5D1DCF8000018606D
:1022000020379CF804201A71602FDDD195F8C83072
:102210006FF38203002785F8C8306A46414620469E
:10222000ADF80070ADF802708DF80470FFF746FD50
:10223000636948BB4FF400421A6008B0BDE8F087FC
:1022400041F2D80002F0B6F8814610B15146FFF7CE
:10225000D3FCC7F80090B9F1000F8CD10020ECE757
:10226000386803681B6B98470146002887D1386897
:10227000FFF730FF3868036832465B68414698478D
:1022800000287FF47CAFE9E761221A609DF80230F4
:102290009DF803201B06120402F4702203F0407321
:1022A0001343BDF80020C2F3090213439DF8042034
:1022B0001205022E02F4E0020CBF4FF00041002193
:1022C000134362690B43D361636913225A616269E4
:1022D000136823F00103136039462046FFF74AFDD7
:1022E00008B96369A6E795F8D03093BB6169D1F866
:1022F000002242F00102C1F800226169D1F80022F7
:1023000022F47C5222F00E02C1F800226169D1F859
:10231000002242F46062C1F800226269C2F81432FD
:102320006269C2F80432626941F6FF71C2F80C12A8
:102330006269C2F840326269C2F8443263690122BC
:10234000C3F81C226269D2F8003223F00103C2F8FC
:10235000003295F8C83043F0020385F8C8306CE7C6
:10236000184A002008B500F051F850EA010302466F
:1023700002D0421E61F10001044B186810B10B46F7
:10238000FFF72EFDBDE8084001F064B8184A0020B0
:1023900008B50020FFF7E0FDBDE8084001F05AB89D
:1023A00008B50120FFF7D8FDBDE8084001F052B89C
:1023B00000B59BB0EFF3098168226846FEF774FE12
:1023C000EFF30583014B9B6BFEE700BF00ED00E0E0
:1023D00008B5FFF7EDFF000000B59BB0EFF30981F2
:1023E00068226846FEF760FEEFF30583014B5B6BE6
:1023F000FEE700BF00ED00E0FEE700000FB408B507
:10240000029801F005F9FEE701F006BC01F0E8BB17
:1024100013B56C4684E80600031D94E8030083E8C6
:102420000500012002B010BD73B58568019155B15A
:102430001B885B0707D4D0E900369B6B9847019A4D
:10244000C1B23046A847012002B070BDF0B5866821
:1024500089B005460C465EB1BDF838305B070AD43A
:10246000D0E900379B6B98472246C1B23846B04747
:10247000012009B0F0BD00220023CDE90023002394
:10248000ADF808300A4603AB01F108061068516840
:102490001C4603C40832B2422346F7D110682060BC
:1024A0009288A280FFF7B2FF0423ADF808302B68B2
:1024B000CDE90001DB6B694628469847D8E7000064
:1024C00030B503680968DD0FB5EBD17F23F06044B8
:1024D00021F060424FEAD1700BD0002BB8BFA40CA2
:1024E0000029B8BF920C944202D034BF01200020D2
:1024F00030BD944205D1C1F38070C3F38073834231
:10250000F6D194422CBF00200120F1E72DE9F041E3
:10251000456A15B94162BDE8F0814B6823F0604718
:10252000C3F38A464FEAD37EC3F3807816EA2306C4
:1025300038BF3E46AC462B465A68BEEBD27F22F0EF
:1025400060440AD0002A18DAA40CB44217D19D4284
:102550000FD10D60DEE71346EEE7A74207D102F088
:102560008044C2F3807242450BD054B1EFE708D2E9
:10257000EDE7CCF800100B60CDE7B44201D0B442D7
:10258000E5D81A689C46002AE5D11960C3E7000027
:102590002DE9F047089D01F007044FEAD5082244D1
:1025A00005F0070500EBD1004FF47F49944201D1BB
:1025B000BDE8F08704F0070705F0070A57453E46D7
:1025C00038BF5646C6F10806111B8E4228BF0E467C
:1025D000E10808EBD50E415C13F80EC0B94029FAAA
:1025E00006F721FA0AF1FFB28CEA010147FA0AF76D
:1025F00039408CEA010C03F80EC034443544D5E769
:1026000080EA0120082341F2210201B240000029A2
:1026100080B203F1FF33B8BF504013F0FF03F4D191
:102620007047000038B50C468D18A54200D138BD62
:1026300014F8011BFFF7E4FFF7E7000042684AB116
:10264000136843604389818901339BB29942438176
:1026500038BF83811046704770B588B02022044689
:102660000D4668460021FEF731FD20460495FFF730
:10267000E5FF024658B16B46054608AE1C4603CC42
:10268000B44228606960234605F10805F6D110467A
:1026900008B070BD082817D909280CD00A280CD01A
:1026A0000B280CD00C280CD00D280CD00E2814BFF1
:1026B0004020302070470C207047102070471420B5
:1026C000704718207047202070470000082817D94D
:1026D0000C280CD910280CD914280CD918280CD97E
:1026E00020280CD930288CBF0F200E2070470920DD
:1026F00070470A2070470B2070470C2070470D2050
:10270000704700002DE9F843078C072F04461ED9B7
:10271000D0E9029800254FF6FF73C5F12006A5F118
:10272000200029FA05F108FA06F628FA00F03143EC
:102730000143C9B21846FFF763FF0835402D034631
:10274000EBD1E1693A46BDE8F843FFF76BBF4FF6BE
:10275000FF70BDE8F883000010B54B6823B9CA8A42
:1027600063F30902CA8210BD04691A681C60036120
:10277000C38A013BC3824A60EFE700002DE9F84FAE
:102780001D46CB8A0F46C3F30901052981469246AF
:102790000B4630D00020AAB207F11A049EB2042ED4
:1027A0001FFA80F80FD8904503F1010306D3FB8A86
:1027B0000A4462F30903FB8201201AE01AF8006060
:1027C000E6540130EAE79045F1D2A1F1050B1C2354
:1027D0007C68BBFBF3F203FB12BB1FFA8BF6002CE9
:1027E00045D14846FFF72AFF044638B978606FF0B4
:1027F0000200BDE8F88F4FF00008E6E7002606600B
:102800007860ADB24FF0000B454510D90AEB0803D4
:10281000221D13F8011B9155B1B208F101081B29C3
:102820001FFA88F82BD0454506F10106F1D8FB8A3E
:10283000C3F30902154465F30903BCE7013292B200
:102840001C462368002BF9D16B1F0B441C21B3FBE2
:10285000F1F301339BB29A42D3D2BBF1000FD0D136
:102860004846FFF7EBFE20B9C4F800B0BFE70122ED
:10287000E7E7C0F800B05E4620600446C1E7454582
:10288000D5D94846FFF7DAFE08B92060AFE7C0F8AF
:1028900000B0002620600446B6E700002DE9F04FA6
:1028A0002DED028B1C4683B05B690192074688467A
:1028B000002B00F09A80238C2BB1E269002A00F0F3
:1028C0009480072B35D807F10C00FFF7B7FE0546BB
:1028D00038B96FF00205284603B0BDEC028BBDE8A5
:1028E000F08F14220021FEF7F1FB228CE16905F143
:1028F0000800FEF7D9FB208C013080B2FFF7E6FE1E
:10290000FFF7C8FE013880B2208401302874636963
:10291000228C1B782A4403F01F0363F03F0348F026
:1029200000411372384669602946FFF7EFFD012523
:10293000D1E700F10C034FF0000908EE103A4FF018
:10294000800A4E464D4618EE100AFFF777FE834682
:102950000028BED014220021FEF7B8FB002E3AD189
:10296000019BABF8083002220BF1080E1FFA82FC23
:102970000CF10100BCF1060F218C80B201D88E420F
:102980002BD3FFF7A3FEFFF785FE626912780138AB
:1029900002F01F028E4208BF4FF0400A42EA49127D
:1029A0001BFA80F14AEA020A013048F0004281F83D
:1029B00008A08BF81000CBF8042059463846FFF7E2
:1029C000A5FD238C0135B3422DB289F001094FF0EA
:1029D000000AB8D17FE70022C6E7E169895D0EF8F9
:1029E00002100136B6B20132C0E76FF0010572E79E
:1029F000F8B515460E463022002104461F46FEF764
:102A000065FB069B6360B5F5001F079BA76034BF9D
:102A10006A094FF6FF72A36297B2E66104F11000F3
:102A200000239A4206D800230360A782E38223830F
:102A3000E360F8BD0660013330462036F1E7000060
:102A400003781BB94BB2002BC8BF01707047000060
:102A500000787047F8B50C46C969074611B9238C50
:102A6000002B37D1257E1F2D34D8387828BB228CF7
:102A7000072A2CD8268A36F003032BD14FF6FF7095
:102A8000FFF7D0FD20F001003102400441EA05616A
:102A9000400C41EA40254FF6FF722346294638464E
:102AA000FFF7FCFE002807DD626913780133DBB213
:102AB0001F2B88BF00231370F8BD218A2D0645EA1D
:102AC000012505432046FFF71DFE0246E5E76FF0AE
:102AD0000300F1E76FF00100EEE7000070B58AB087
:102AE000044616460021282268461D46FEF7EEFAE7
:102AF000BDF83830ADF810300F9B05939DF840308D
:102B00008DF81830119B07936946BDF84830ADF831
:102B100020302046CDE90265FFF79CFF0AB070BD6A
:102B20002DE9F041D36905460C4616460BB9138CC6
:102B30005BBB377E1F2F28D895F80080B8F1000FB7
:102B400026D03046FFF7DEFD3378210241EAC3315B
:102B500041EA0801338A41EA076141EA034102463A
:102B6000334641F080012846FFF798FE00280ADD31
:102B70003378012B07D1726913780133DBB21F2B35
:102B800088BF00231370BDE8F0816FF00100FAE701
:102B90006FF00300F7E70000F0B58BB004460D4678
:102BA00017460021282268461E46FEF78FFA9DF838
:102BB0004C305A1E534253418DF800309DF840303E
:102BC000ADF81030119B05939DF848308DF8183002
:102BD000149B07936A46BDF85430ADF8203029465F
:102BE0002046CDE90276FFF79BFF0BB0F0BD000059
:102BF000406A00B104307047436A1A684262026951
:102C00001A600361C38A013BC38270472DE9F0411A
:102C1000D0F82080194E14461D464146002709B9B8
:102C2000BDE8F081D1E90223A21A65EB03039642C5
:102C300077EB03031ED2036A8B420DD1FFF78CFDA5
:102C4000036A1B68036203690B60C38A0161016A3E
:102C5000013BC3828846E2E7FFF77EFD0B68C8F8B8
:102C6000003003690B60C38A0161013BC382D8F85D
:102C70000010D4E788460968D1E700BF80841E00B1
:102C80002DE9F04F8BB00D46DDF8509014469B4671
:102C90008046002800F01981B9F1000F00F015817D
:102CA000531E3F2B00F21181012A03D1BBF1000F0B
:102CB00040F00B810023CDE90833B8F81430B5EBB0
:102CC000C30F4FEAC30703D300200BB0BDE8F08F5A
:102CD0002B199F42D8F80C303ABF7F1BFFB2274612
:102CE0001BB9D8F81030002B7AD0272D4ED8C5F15B
:102CF0002806B7424FF000032CBFF6B23E460093C1
:102D00002946D8F8080008AB3246FFF741FCA7EB8C
:102D1000060A35445FFA8AFAB8F8143003F1005312
:102D2000053BDB000493D8F80C3003932821039B68
:102D300013B1BAF1000F2CD1D8F8100040B1BAF19C
:102D4000000F05D0009608AB5246691AFFF720FC29
:102D500038B2002FB8D066070AD00AAB03EBD40113
:102D6000624211F8083C02F00702134101F8083CE6
:102D7000082C3CD9102C40F2B580202C40F2B780B2
:102D8000BBF1000F00F09C80082334E0BA46002617
:102D9000C2E7049BE02B28BFE02306930B44AB4221
:102DA000059314D95A1B03980096924534BF524696
:102DB000D2B2691A08AB04300792FFF7E9FB079A11
:102DC0001644AAEB020A1544F6B25FFA8AFA049B8B
:102DD000069A05999B1A0493039B1B680393A6E725
:102DE0000093D8F8080008AB3A462946AEE7BBF195
:102DF000000F13D00123B4EBC30F6CD0082C12D8F2
:102E00009DF82030621E23FA02F2D50706D54FF056
:102E1000FF3202FA04F423438DF820309DF820306D
:102E200089F8003051E7102C12D8BDF82030621E0E
:102E300023FA02F2D10706D54FF0FF3202FA04F46A
:102E40002343ADF82030BDF82030A9F800303CE72E
:102E5000202C0FD80899631E21FA03F3DA0705D551
:102E60004FF0FF3202FA04F40C430894089BC9F8AF
:102E700000302AE7402C2BD0DDE90865611EC4F143
:102E80002102A4F1210326FA01F105FA02F225FA42
:102E900003F311431943CB0712D50122A4F12003F8
:102EA000C4F1200102FA03F322FA01F1A2405242D6
:102EB00043EA010363EB430332432B43CDE9082389
:102EC000DDE90823C9E90023FFE66FF00100FCE615
:102ED0006FF00800F9E6082CA0D9102CB3D9202CEB
:102EE000EED8C3E7BBF1000FADD0022383E7BBF1FF
:102EF000000FBBD004237EE730B5012A144638BF4B
:102F00000124402C85B028BF40240025012ACDE9AA
:102F1000025518D81B788DF8083063070AD004AB27
:102F200003EBD405624215F8083C02F00702934017
:102F300005F8083C009103462246002102A8FFF74D
:102F400027FB05B030BD082AE4D9102A03D81B8816
:102F5000ADF80830E1E7202A8DBFD3E900231B68D4
:102F60000293CDE90223D8E710B5CB681BB98B607B
:102F70000B618B8210BD04691A681C600361C38AEF
:102F8000013BC382CA60F0E703064CBFC0F3C03008
:102F90000220704708B50246FFF7F6FF022806D167
:102FA0005306C2F30F2001D100F0030008BDC2F3A5
:102FB0000740FBE72DE9F04F93B0CDE903230A6802
:102FC00004461046FFF7E0FF022814BFC2F30626AE
:102FD0000026002A0D46824680F2F28112F0C04996
:102FE00040F0EE81097B002900F0EA81022803D03D
:102FF0002378B34240F0E781C2F30463069310469E
:1030000002F07F030593FFF7C5FF059B29444FEAB4
:10301000834848EA0A4848EA4668CE7800230022F6
:10302000CDE90823F309834648EA0008029367D0F4
:10303000059B009302466768534608A92046B84797
:10304000002800F0C381276A4FB9414604F10C0003
:10305000FFF702FB074690B96FF0020054E03B69AE
:1030600098450DD03F68002FF9D1414604F10C007E
:10307000FFF7F2FA07460028EED0236A3B6027628A
:1030800097F817C006F01F08CCF3840CACEB0800CF
:103090001FFA80FE0028B8BF0EF12000A8EB0C0339
:1030A0001FFA83FED7E90221B8BF00B2002B0793B5
:1030B000BEBF0EF120031BB2079352EA010338D0C2
:1030C000039BDFF824E39A1A049B4FF0000C63EB98
:1030D000010196457CEB01032BD36B7B97F81AE03B
:1030E000734519D1029B002B78D0012821DC786828
:1030F000F8B9DFF8F0C2944570EB010316D337E05E
:10310000276A27B96FF00C0013B0BDE8F08F3B6958
:103110009845B5D03F68F4E7B24890427CEB010394
:1031200001D30020F0E7029B002BFAD0079B0F2B66
:1031300017DCFA7DB30002F0030203F07C031343B3
:10314000FB7539462046FFF707FB6B7BBB76029B7E
:103150003BB9FB7DC3F38402013262F38603FB7546
:10316000D0E76A7BBB7E9A42DBD1029B002B35D035
:10317000B309022B32D0039BBB60049BFB6014227B
:1031800000210DA8FDF7A2FF039B0A93049B0B935C
:103190002B1D0C932B7BADF83EB0013BDBB2ADF8A1
:1031A0003C30069B8DF84230059B8DF8433094F8F7
:1031B0002C308DF840A083F001038DF844308DF859
:1031C0004180A3680AA920469847FB7DC3F3840386
:1031D000013303F01F039B02FB82A2E7FB7DC6F3D2
:1031E0004012B2EBD31F40F0F480C3F38403434595
:1031F00040F0F280029A2B7BB609002A4DD0F207EC
:103200005DD4032B40F2EB80039BBB60049BFB600F
:103210002B7BAE1D033BDBB23246394604F10C007A
:10322000FFF7ACFA00280CDA39462046FFF794FA8B
:10323000FB7DC3F38403013303F01F039B02FB8276
:103240000AE7DDE90884AB883B834FF6FF73C9F1D9
:103250002000A9F1200228FA09F104FA00F0014344
:1032600024FA02F211431846C9B2FFF7C9F909F16D
:103270000809B9F1400F0346E9D1B8822A7B033A25
:10328000D2B23146FFF7CEF9FB7DB882DA43C2F302
:10329000C01262F3C713FB7543E786B92E1D013BCD
:1032A000DBB23246394604F10C00FFF767FA00281A
:1032B000BADB2A7BB88A013AD2B23146E2E7F98A10
:1032C000C1F30901013B0429DAB25BD8281D0023B0
:1032D00007F11B069A4208D910F801CB06F801C085
:1032E000013101330529DBB2F4D103990A91049924
:1032F0000B91934207F11B010C9138BF043379689D
:103300000D9134BF55FA83F300230E93FB8AADF879
:103310003EB0C3F309031A44069B8DF84230059B67
:103320008DF8433094F82C30ADF83C2083F0010345
:103330008DF8443000238DF840A08DF841807B60EB
:103340002A7BB88A013A291DFFF76CF93B8BB882BA
:10335000834203D1A3680AA92046984720460AA9B8
:10336000FFF702FEFB7DBA8AC3F38403013303F047
:103370001F039B02FB823B8B9A420CBF00206FF025
:103380001000C1E67B68002BAFD0052001E01C30A7
:1033900033461E68002EFAD1091A081D2E1D184446
:1033A00001EB090CBCF11B0F5FFA89F39DD89A421F
:1033B0009BD916F8013B00F8013B09F10109EFE741
:1033C0006FF00900A0E66FF00A009DE66FF00B00B9
:1033D0009AE66FF00D0097E66FF00E0094E66FF03E
:1033E0000F0091E640420F0080841E00EFF3098336
:1033F00005494A6B22F001024A63683383F3098866
:10340000002383F31188704700EF00E0302080F341
:10341000118862B60C4B0D4AD96821F4E0610904A9
:10342000090C0A43DA60D3F8FC20094942F08072A3
:10343000C3F8FC200A6842F001020A602022DA7711
:1034400083F82200704700BF00ED00E00003FA059A
:10345000001000E010B5302383F311880E4B5B6839
:1034600013F4006314D0F1EE103AEFF30984683CD2
:103470004FF08073E361094BDB6B236684F30988AB
:1034800000F090F810B1064BA36110BD054BFBE7AF
:1034900083F31188F9E700BF00ED00E000EF00E0E2
:1034A0003F0300084203000800F1604303F5614355
:1034B0000901C9B283F80013012200F01F039A40EA
:1034C00043099B0003F1604303F56143C3F8802186
:1034D0001A60704700230375826803691B68996846
:1034E0009142FBD25A680360426010605860704796
:1034F00000230375826803691B6899689142FBD8B1
:103500005A680360426010605860704708B508460A
:10351000302383F311880B7D032B05D0042B0DD0B2
:103520002BB983F3118808BD8B6900221A604FF014
:10353000FF338361FFF7CEFF0023F2E7D1E90032CA
:1035400013605A60F3E70000FFF7C4BF054BD9686A
:103550000875186802681A60536001220275D86005
:10356000FCF7D8BE284A002030B50C4BDD684B1C58
:1035700087B004460FD02B46094A684600F02AF966
:103580002046FFF7E3FF009B13B1684600F02CF9DB
:10359000A86907B030BDFFF7D9FFF9E7284A002036
:1035A0000D350008044B1A68DB6890689B689842E8
:1035B00094BF002001207047284A0020084B10B516
:1035C0001C68D86822681A60536001222275DC608A
:1035D000FFF78EFF01462046BDE81040FCF79ABE7B
:1035E000284A002038B5074C074908480123002520
:1035F0002370656000F014FC0223237085F31188AA
:1036000038BD00BF904C0020D0450008284A00205B
:1036100008B572B6044B186500F0C4FA00F07AFBE6
:10362000024B03221A70FEE7284A0020904C00202B
:1036300000F010B98B60022308618B820846704746
:103640008368A3F1840243F8142C026943F8442CE4
:10365000426943F8402C094A43F8242CC26843F8D5
:10366000182C022203F80C2C002203F80B2C044A1D
:1036700043F8102CA3F12000704700BF2D03000871
:10368000284A002008B5FFF7DBFFBDE80840FFF738
:103690005BBF0000024BDB6898610F20FFF756BF4D
:1036A000284A0020302383F31188FFF7F3BF00007E
:1036B00008B50146302383F311880820FFF754FF33
:1036C000002383F3118808BD10B503689C68A242EB
:1036D0000CD85C688A600B604C6021605960996806
:1036E0008A1A9A604FF0FF33836010BD1B68121B6B
:1036F000ECE700000A2938BF0A2170B504460D46E0
:103700000A26601900F086FB00F072FB041BA5423C
:1037100003D8751C2E460446F3E70A2E04D9BDE8EB
:103720007040012000F0BCBB70BD0000F8B5144B28
:103730000D46D96103F1100141600A2A19698260BE
:1037400038BF0A22016048601861A818144600F0CA
:1037500053FB0A2700F04CFB431BA342064606D34B
:103760007C1C281900F056FB27463546F2E70A2F45
:1037700004D9BDE8F840012000F092BBF8BD00BFBD
:10378000284A0020F8B506460D4600F031FB0F4AE6
:10379000134653F8107F9F4206D12A460146304611
:1037A000BDE8F840FFF7C2BFD169BB68441A2C19C5
:1037B00028BF2C46A34202D92946FFF79BFF224689
:1037C00031460348BDE8F840FFF77EBF284A002095
:1037D000384A002010B4C0E9032300235DF8044BED
:1037E0004361FFF7CFBF000010B5194C2369984221
:1037F0000DD0D0E90032816813605A609A680A449B
:103800009A60002303604FF0FF33A36110BD23468D
:10381000026843F8102F53600022026022699A4226
:1038200003D1BDE8104000F0EFBA936881680B4403
:10383000936000F0DDFA2269E1699268441AA242BD
:10384000E4D91144BDE81040091AFFF753BF00BF87
:10385000284A00202DE9F047DFF8BC8008F1100766
:103860002C4ED8F8105000F0C3FAD8F81C40AA68C3
:10387000031B9A423ED81444D5E900324FF00009A8
:10388000C8F81C4013605A60C5F80090D8F8103092
:10389000B34201D100F0B8FA89F31188D5E90331B8
:1038A00028469847302383F311886B69002BD8D0C2
:1038B00000F09EFA6A69A0EB04094A4582460DD2DF
:1038C000022000F0EDFA0022D8F81030B34208D1FF
:1038D00051462846BDE8F047FFF728BF121A224498
:1038E000F2E712EB090938BF4A4629463846FFF786
:1038F000EBFEB5E7D8F81030B34208D01444211AD3
:10390000C8F81C00A960BDE8F047FFF7F3BEBDE8AA
:10391000F08700BF384A0020284A002038B500F060
:1039200067FA054AD2E90845031B181945F1000159
:10393000C2E9080138BD00BF284A002000207047B6
:10394000FEE70000704700004FF0FF3070470000B6
:10395000BFF34F8F024AD368DB03FCD4704700BF2C
:10396000003C024008B5094B1B7873B9FFF7F0FF24
:10397000074B1A69002ABFBF064A5A6002F1883213
:103980005A601A6822F480621A6008BD984C0020C0
:10399000003C02402301674508B50B4B1B7893B9E7
:1039A000FFF7D6FF094B1A6942F000421A611A6804
:1039B00042F480521A601A6822F480521A601A681F
:1039C00042F480621A6008BD984C0020003C02401E
:1039D0000B28F0B516D80C4C0C4923787BB90C4D4C
:1039E0000E460C234FF0006255F8047B46F8042B7A
:1039F000013B13F0FF033A44F6D10123237051F841
:103A00002000F0BD0020FCE7CC4C00209C4C0020A6
:103A1000DC450008014B53F820007047DC450008E6
:103A20000C2070470B2810B5044601D9002010BDAA
:103A3000FFF7CEFF064B53F824301844C21A0BB9D7
:103A40000120F4E712680132F0D1043BF6E700BF31
:103A5000DC4500080B2810B5044621D8FFF778FF95
:103A6000FFF780FF0F4AF323D360C300DBB243F4B8
:103A7000007343F002031361136943F4803313614D
:103A8000FFF766FFFFF7A4FF074B53F8241000F081
:103A90003DF9FFF781FF2046BDE81040FFF7C2BFA8
:103AA000002010BD003C0240DC450008F8B512F0D3
:103AB0000103144642D18218B2F1016F57D82D4B41
:103AC0001B6813F0010352D02B4DFFF74BFFF3237C
:103AD000EB60FFF73DFF40F20127032C15D824F0DF
:103AE00001046618244C401A40F20117B1422369C0
:103AF00000EB010524D123F001032361FFF74CFF04
:103B00000120F8BD043C0430E7E78307E7D12B69C7
:103B100023F440732B612B693B432B6151F8046BF9
:103B20000660BFF34F8FFFF713FF03689E42E9D093
:103B30002B6923F001032B61FFF72EFF0020E0E744
:103B400023F44073236123693B4323610B882B805B
:103B5000BFF34F8FFFF7FCFE2D8831F8023BADB26B
:103B6000AB42C3D0236923F001032361E4E7184685
:103B7000C7E700BF00380240003C0240084908B5D2
:103B80000B7828B11BB9FFF7EDFE01230B7008BDC0
:103B9000002BFCD0BDE808400870FFF7FDBE00BF59
:103BA000984C002008B50649064800F0B1F8BDE879
:103BB00008404FF480314FF0805000F0A9B800BFAA
:103BC00000FF0100000100200846114600F014BC6F
:103BD000012000F011BC0000084600F02BBC0000E2
:103BE00038B5EFF311859DB9EFF30584C4F30804EC
:103BF000302334B183F31188FFF790FE85F31188E9
:103C000038BD83F31188FFF789FE84F3118838BD2E
:103C1000BDE83840FFF782BE38B5FFF7E1FF114C31
:103C2000114AC00840EA4170A0FB025EC908A0FB2F
:103C3000040C1CEB050CA1FB04404FF000035B419E
:103C4000A1FB02121CEB040C43EB000011EB0E0174
:103C500042F10002411842F10000090941EA0070F6
:103C600038BD00BFCFF753E3A59BC42010B5024475
:103C7000064BD2B2904200D110BD441C00B253F8A2
:103C8000200041F8040BE0B2F4E700BF50280040E8
:103C90000F4B30B51C6F240407D41C6F44F4007420
:103CA0001C671C6F44F400441C670A4C236843F4EF
:103CB000807323600244084BD2B2904200D130BDE1
:103CC000441C00B251F8045B43F82050E0B2F4E722
:103CD00000380240007000405028004007B5012223
:103CE00001A90020FFF7C2FF019803B05DF804FBB3
:103CF00013B50446FFF7F2FFA04205D0012201A947
:103D000000200194FFF7C4FF02B010BD704700000F
:103D10007047000070470000074B45F255521A608B
:103D200002225A6040F6FF729A604CF6CC421A604A
:103D3000024B01221A70704700300040D44C002022
:103D4000034B1B781BB1034B4AF6AA221A6070473B
:103D5000D44C002000300040034B1A681AB9034AC3
:103D6000D2F874281A607047D04C0020003002400E
:103D7000024B4FF08072C3F8742870470030024045
:103D800008B5FFF7E9FF024B1868C0F3407008BDA3
:103D9000D04C002008B5FFF7DFFF024B1868C0F3D6
:103DA000007008BDD04C002070470000FEE7000006
:103DB0000A4B0B480B4A90420BD30B4BDA1C121ADE
:103DC000C11E22F003028B4238BF00220021FDF702
:103DD0007DB953F8041B40F8041BECE79847000832
:103DE000604D0020604D0020604D002000F0D0B8F4
:103DF0004FF08043586A70474FF080430022586369
:103E00001A610222DA6070474FF080430022DA60C4
:103E1000704700004FF0804358637047FEE7000092
:103E200070B51B4B01630025044686B0586085625F
:103E30000E46FFF7EBFA04F11003C4E904334FF028
:103E4000FF33C4E90635C4E90044A560E562FFF725
:103E5000CFFF2B460246C4E9082304F134010D4A82
:103E6000256580232046FFF7E5FB0123E0600A4A31
:103E70000375009272680192B268CDE90223074B84
:103E80006846CDE90435FFF7FDFB06B070BD00BF05
:103E9000904C00200C460008114600081D3E00080A
:103EA000024AD36A1843D062704700BF284A0020F4
:103EB0004B6843608B688360CB68C3600B69436168
:103EC0004B6903628B6943620B68036070470000B3
:103ED00008B5264B26481A6940F2FF110A431A61B9
:103EE0001A6922F4FF7222F001021A611A691A6B30
:103EF0000A431A631A6D0A431A651E4A1B6D11465E
:103F0000FFF7D6FF02F11C0100F58060FFF7D0FF3C
:103F100002F1380100F58060FFF7CAFF02F1540199
:103F200000F58060FFF7C4FF02F1700100F58060CA
:103F3000FFF7BEFF02F18C0100F58060FFF7B8FFCC
:103F400002F1A80100F58060FFF7B2FF02F1C401A1
:103F500000F58060FFF7ACFF02F1E00100F5806042
:103F6000FFF7A6FFBDE8084000F08EB80038024019
:103F7000000002401846000808B500F0F9F9FFF704
:103F800031FBBDE80840FFF7E7BE000070470000C6
:103F90000F4B1A6C42F001021A641A6E42F00102D1
:103FA0001A660C4A1B6E936843F0010393604FF04E
:103FB000804353229A624FF0FF32DA6200229A6104
:103FC0005A63DA605A6001225A611A60704700BF72
:103FD00000380240002004E04FF0804208B511692B
:103FE000D3680B40D9B2C9439B07116107D5302371
:103FF00083F31188FFF71CFB002383F3118808BDAE
:104000001F4B1A696FEAC2526FEAD2521A611A69DB
:10401000C2F308021A614FF0FF301A695A695861F9
:1040200000215A6959615A691A6A62F080521A620B
:104030001A6A02F080521A621A6A5A6A58625A6AF6
:1040400059625A6A1A6C42F080521A641A6E42F02F
:1040500080521A661A6E0B4A106840F48070106025
:10406000186F00F44070B0F5007F1EBF4FF4803031
:1040700018671967536823F40073536000F054B94C
:104080000038024000700040334B4FF080521A64F9
:10409000324A4FF4404111601A6842F001021A603E
:1040A0001A689107FCD59A6822F003029A602A4B9D
:1040B0009A6812F00C02FBD1196801F0F90119603D
:1040C0009A601A6842F480321A601A689203FCD52A
:1040D0005A6F42F001025A671F4B5A6F9007FCD586
:1040E0001F4A5A601A6842F080721A601B4A53686D
:1040F0005904FCD5184B1A689201FCD5194A9A60EC
:10410000194B1A68194B9A42194B21D1194A116857
:10411000194A91421CD140F205121A60144A1368E0
:1041200003F00F03052BFAD10B4B9A6842F0020201
:104130009A609A6802F00C02082AFAD15A6C42F48A
:1041400080425A645A6E42F480425A665B6E7047EF
:1041500040F20572E1E700BF003802400070004005
:104160000854400700948838002004E011640020BF
:10417000003C024000ED00E041C20F41074A08B593
:10418000536903F00103536123B1054A13680BB16E
:1041900050689847BDE80840FFF75CB9003C014013
:1041A000D84C0020074A08B5536903F00203536155
:1041B00023B1054A93680BB1D0689847BDE8084021
:1041C000FFF748B9003C0140D84C0020074A08B529
:1041D000536903F00403536123B1054A13690BB11A
:1041E00050699847BDE80840FFF734B9003C0140EA
:1041F000D84C0020074A08B5536903F008035361FF
:1042000023B1054A93690BB1D0699847BDE80840CE
:10421000FFF720B9003C0140D84C0020074A08B500
:10422000536903F01003536123B1054A136A0BB1BC
:10423000506A9847BDE80840FFF70CB9003C0140C0
:10424000D84C0020164B10B55C6904F478725A61A2
:10425000A30604D5134A936A0BB1D06A9847600647
:1042600004D5104A136B0BB1506B9847210604D547
:104270000C4A936B0BB1D06B9847E20504D5094A01
:10428000136C0BB1506C9847A30504D5054A936C89
:104290000BB1D06C9847BDE81040FFF7DBB800BF0A
:1042A000003C0140D84C0020194B10B55C6904F467
:1042B0007C425A61620504D5164A136D0BB1506DEC
:1042C0009847230504D5134A936D0BB1D06D9847D9
:1042D000E00404D50F4A136E0BB1506E9847A10449
:1042E00004D50C4A936E0BB1D06E9847620404D586
:1042F000084A136F0BB1506F9847230404D5054A41
:10430000936F0BB1D06F9847BDE81040FFF7A2B88C
:10431000003C0140D84C002008B5FFF75DFEBDE829
:104320000840FFF797B80000062108B50846FFF7D8
:10433000BBF806210720FFF7B7F806210820FFF792
:10434000B3F806210920FFF7AFF806210A20FFF78E
:10435000ABF806211720FFF7A7F806212820FFF762
:10436000A3F8BDE8084007211C20FFF79DB8000016
:1043700008B5FFF745FE00F007F8FFF707FEBDE8B8
:104380000840FFF733BD00000023054A19460133FA
:10439000102BC2E9001102F10802F8D1704700BFEA
:1043A000D84C00200B460146184600F02DB80000FE
:1043B00000F040B8012838BF012010B5044620465F
:1043C00000F030F830B900F007F808B900F00CF848
:1043D0008047F4E710BD0000024B1868BFF35B8F05
:1043E000704700BF584D002008B5062000F084F843
:1043F0000120FFF7A5FA0000024B0A4601461868A3
:10440000FFF7E2BB1C23002010B5054C13462CB16E
:104410000A4601460220AFF3008010BD2046FCE7AB
:1044200000000000024B01461868FFF7D1BB00BF37
:104430001C230020024B01461868FFF7CDBB00BFCC
:104440001C23002010B501390244904201D1002004
:1044500005E0037811F8014FA34201D0181B10BDED
:104460000130F2E72DE9F041A3B1C91A17780144F0
:10447000044603F1FF3C8C42204601D9002009E0AC
:104480000578BD4204F10104F5D10CEB0405D61802
:10449000A54201D1BDE8F08115F8018D16F801EDB6
:1044A000F045F5D0E7E700001F2938B504460D4672
:1044B00004D9162303604FF0FF3038BD426C12B1AF
:1044C00052F821304BB9204600F030F82A46014618
:1044D0002046BDE8384000F017B8012B0AD0591C1F
:1044E00003D1162303600120E7E7002442F82540AA
:1044F000284698470020E0E7024B01461868FFF77E
:10450000D3BF00BF1C23002038B5074D002304464D
:10451000084611462B60FFF717FA431C02D12B689F
:1045200003B1236038BD00BF5C4D0020FFF706BA21
:10453000034611F8012B03F8012B002AF9D170472B
:1045400073772D6E61762D663430352D626C0000E8
:1045500040A2E4F1646891060041A3E5F265699226
:10456000070000004261642043414E496661636573
:1045700020696E6465782E008000000000800000D5
:104580000000800000000000000000002119000869
:10459000412100089D200008611900086D190008DC
:1045A0006D1B000831190008411900083519000871
:1045B0003D19000839190008911A0008451900082A
:1045C0001124000855190008651A0008633000001E
:1045D000CC450008804A0020904C0020004000009C
:1045E000004000000040000000400000000001000A
:1045F00000000200000002000000020000000200B3
:104600000000020000000200000002006D61696EFF
:104610000069646C650000005400806A00000000BE
:10462000AAAAAA6A00000024F17F0000000000008E
:10463000009009000100000000000000AAAAAAAA38
:1046400000000000FEFF000000000000000000006D
:104650000001000000000000AAAAAAAA00000000B1
:10466000EFFF00000000000000000000000000005C
:1046700000000000AAAAAAAA00000000FFFF000094
:10468000000000000000000000000000000000002A
:10469000AAAAAAAA00000000FFFF00000000000074
:1046A000000000000000000000000000AAAAAAAA62
:1046B00000000000FFFF00000000000000000000FC
:1046C0000000000000000000AAAAAAAA0000000042
:1046D000FFFF0000000000000000000000000000DC
:1046E000000000000A0000000000000003000000BD
:1046F00000000000000000000000000000000000BA
:1047000000000000000000000000000000000000A9
:104710000000000000000000721700000000000010
:1047200000000F000000000040420F00FE2A0100C0
:10473000D204000020230020000000000000000040
:104740000000000000000000000000000000000069
:104750000000000000000000000000000000000059
:104760000000000000000000000000000000000049
:104770000000000000000000000000000000000039
:104780000000000000000000000000000000000029
:08479000000000000000000021
:00000001FF
