:020000040800F2
:10000000000200203505000881260008512600085E
:100010006D260008512600086526000837050008EF
:10002000370500083705000837050008793600084D
:10003000370500083705000837050008A542000805
:1000400037050008370500083705000837050008A0
:100050003705000837050008D93F000805400008AB
:10006000314000085D40000889400008370500085D
:100070003705000837050008370500083705000870
:100080003705000837050008370500080526000871
:10009000312600084126000837050008B540000851
:1000A0003705000837050008370500083705000840
:1000B0003705000837050008370500083705000830
:1000C0003705000837050008370500083705000820
:1000D0003705000837050008370500083705000810
:1000E0001D410008370500083705000837050008DE
:1000F00037050008370500083705000837050008F0
:1001000037050008370500083705000837050008DF
:1001100037050008370500083705000837050008CF
:1001200037050008370500083705000837050008BF
:1001300037050008370500083705000837050008AF
:10014000370500083705000837050008370500089F
:10015000370500083705000837050008370500088F
:10016000A5120008000000000000000000000000D0
:100170004FF0FF0C1CEAD0521EBF1CEAD15392EA8A
:100180000C0F93EA0C0F6FD01A4480EA010C400266
:1001900018BF5FEA41211ED04FF0006343EA5010C0
:1001A00043EA5111A0FB01310CF00040B1F5000F02
:1001B0003EBF490041EAD3715B0040EA010062F1B1
:1001C0007F02FD2A1DD8B3F1004F40EBC25008BF9B
:1001D00020F00100704790F0000F0CF0004C08BFB9
:1001E00049024CEA502040EA51207F3AC2BFD2F186
:1001F000FF0340EAC250704740F400004FF0000394
:10020000013A5DDC12F1190FDCBF00F000407047CD
:10021000C2F10002410021FA02F1C2F1200200FA0B
:1002200002FC5FEA310040F1000053EA4C0308BFD2
:1002300020EADC70704792F0000F00F0004C02BF23
:10024000400010F4000F013AF9D040EA0C0093F09E
:10025000000F01F0004C02BF490011F4000F013BF8
:10026000F9D041EA0C018FE70CEAD15392EA0C0F66
:1002700018BF93EA0C0F0AD030F0004C18BF31F0D1
:10028000004CD8D180EA010000F00040704790F0A7
:10029000000F17BF90F0004F084691F0000F91F04B
:1002A000004F14D092EA0C0F01D142020FD193EA11
:1002B0000C0F03D14B0218BF084608D180EA010099
:1002C00000F0004040F0FE4040F40000704740F075
:1002D000FE4040F44000704780F0004002E000BF64
:1002E00081F0004142001FBF5FEA410392EA030F21
:1002F0007FEA226C7FEA236C6AD04FEA1262D2EB6B
:100300001363C1BFD218414048404140B8BF5B426F
:10031000192B88BF704710F0004F40F4000020F008
:100320007F4018BF404211F0004F41F4000121F01E
:100330007F4118BF494292EA030F3FD0A2F1010268
:1003400041FA03FC10EB0C00C3F1200301FA03F1A6
:1003500000F0004302D5494260EB4000B0F5000FC9
:1003600013D3B0F1807F06D340084FEA310102F188
:100370000102FE2A51D2B1F1004F40EBC25008BF3A
:1003800020F0010040EA03007047490040EB000004
:10039000013A28BFB0F5000FEDD2B0FA80FCACF105
:1003A000080CB2EB0C0200FA0CF0AABF00EBC25032
:1003B00052421843BCBFD0401843704792F0000F20
:1003C00081F4000106BF80F400000132013BB5E773
:1003D0004FEA41037FEA226C18BF7FEA236C21D0E9
:1003E00092EA030F04D092F0000F08BF084670474E
:1003F00090EA010F1CBF0020704712F07F4F04D11C
:10040000400028BF40F00040704712F100723CBF2E
:1004100000F50000704700F0004343F0FE4040F458
:10042000000070477FEA226216BF08467FEA236316
:100430000146420206BF5FEA412390EA010F40F401
:10044000800070474FF0000304E000BF10F000434D
:1004500048BF40425FEA000C08BF704743F0964334
:1004600001464FF000001CE050EA010208BF70474F
:100470004FF000030AE000BF50EA010208BF7047D6
:1004800011F0004302D5404261EB41015FEA010CEB
:1004900002BF84460146002043F0B64308BFA3F1E3
:1004A0008053A3F50003BCFA8CF2083AA3EBC253C5
:1004B00010DB01FA02FC634400FA02FCC2F12002E4
:1004C000BCF1004F20FA02F243EB020008BF20F01B
:1004D0000100704702F1200201FA02FCC2F1200281
:1004E00050EA4C0021FA02F243EB020008BF20EA76
:1004F000DC70704742000ED2B2F1FE4F0BD34FF0CA
:100500009E03B3EB126209D44FEA002343F0004389
:1005100023FA02F070474FF00000704712F1610FAC
:1005200001D1420202D14FF0FF3070474FF000007E
:10053000704700BF02E000F000F8FEE772B6264800
:1005400080F30888254880F30988254825490860F4
:10055000022080F31488BFF36F8F03F061FC03F077
:10056000C5FC4FF0553020491B4A91423CBF41F831
:10057000040BFAE71D49194A91423CBF41F8040BAC
:10058000FAE71B491B4A1C4B9A423EBF51F8040B29
:1005900042F8040BF8E700201849194A91423CBF81
:1005A00041F8040BFAE703F03FFC03F0A1FC154C03
:1005B000154DAC4203DA54F8041B8847F9E700F004
:1005C0003FF8124C124DAC4203DA54F8041B884732
:1005D000F9E703F027BC000000020020000800201B
:1005E0000000000808ED00E00001002000020020EB
:1005F00038450008000800208008002080080020FE
:100600002C25002060010008640100086401000836
:10061000640100082DE9F04FC1F80CD0C3689D4675
:10062000BDE8F08F002383F311882846A0470020FF
:1006300003F078F9FEE703F001F900DFFEE70000C0
:10064000F8B500F041FE314A536823F0E06343F00F
:10065000905343F48043536003F07CFB074603F060
:10066000CBFB0546B8BB2A4B9F4234D001339F4297
:1006700034D0284B27F0FF029A4232D1F8B200F072
:100680003BFC2E4642F2107400F03CFC08B1002402
:10069000264601F00DF940B30024032000F03EF897
:1006A000264635B11C4B9F4203D0002403F09CFB2F
:1006B0002646002003F058FB0EB100F045F800F08C
:1006C0008DFC01F0E5FF0546BCB900F0CFFC012030
:1006D00003F02EF9F8E72E460024D5E7044601265C
:1006E000D2E7064641F28834CEE741F288339C4295
:1006F00004BF4FF47A740126D3E701F0C9FF431B0E
:10070000A342E2D900F020F8DBE700BF000001407F
:10071000010007B0000008B0263A09B0084B187075
:1007200003280CD8DFE800F008050208022000F0DA
:1007300033BE022000F028BE0022024B5A607047F0
:10074000800800208408002038B501F0B1F830B1ED
:1007500003221F4B1A7000221E4B5A6038BD1E4BDD
:100760001E4A19680131F9D004339342F9D11C4C67
:10077000194DD4F80428AA42F0D31A4B9B6803F110
:10078000006303F508439A42E8D203F001FB03F04B
:1007900013FB002000F0BEFD0220FFF7BFFF124B4D
:1007A000DA690022DA61D96999699A619B6972B63E
:1007B0004FF0E023C3F8085D3021D4F80038D4F8B6
:1007C000042881F311889D4683F308881047C5E704
:1007D0008008002084080020008800082088000885
:1007E00000800008000800200010024049F2690063
:1007F000084A136899B21B0C00FB013344F25061A4
:100800001360054B186882B2000C01FB02001860EF
:1008100080B27047180800201408002010B5044664
:100820000021102200F0D4FD034B03CB2060616057
:100830001868A06010BD00BFE8F7FF1F2DE9F04168
:100840000026ADF54E7D6CAC40F2751207460D46A4
:100850000EA831460D9600F0BBFD4FF4C472314630
:10086000204600F0B5FD01F013FF4FF47A72B0FBA3
:10087000F2F0264B0DF13408186093E807000223CC
:1008800084E807000DF5E9702382FFF7C7FF4EF6F5
:1008900003531F4907A8238403F0D0FD17230DF24B
:1008A000E32284F832310DF12C0C07AB1E4603CE47
:1008B000664510605160334602F10802F6D1306897
:1008C0001060B188B379204691809371414601222E
:1008D00000F0CAFD00230393AB7E80B2029305F1C2
:1008E000190301930123CDE904800093384605A341
:1008F000D3E90023E97E02F08FFA0DF54E7DBDE8C5
:10090000F08100BF9E6AC421818A46EE8C080020D7
:100910004C4400082DE9F0412C4C8046237A0D46CA
:10092000DAB05BBB284627A900F0AEFE07460028D8
:1009300042D19DF89D60C82E3ED801464FF4A66274
:10094000204600F045FD4FF48073C4F8F8314FF4B1
:100950000073C4F80C334FF440733246C4F82034AB
:100960000DF19E0104F1090000F020FD9DF89C307E
:100970002644777223720BB9EB7E23728122002109
:1009800006AC27A800F024FD0122214627A800F08C
:10099000B7FE00230393AB7E80B2029305F11903E7
:1009A00001932823CDE904400093404605A3D3E9F1
:1009B0000023E97E02F030FA5AB0BDE8F08100BFB2
:1009C000AFF3008026417272DF25D7B7B01D00203B
:1009D000F0B54FF48A750024234EF1B005FB006595
:1009E00096F8D830D822214685F8DC3085F8E840E2
:1009F0003AA800F0EDFC06F1090000F0E1FCD5F8A2
:100A0000E430C2B206AF8DF8F00006F109010DF135
:100A1000F100CDE93A3400F0C9FC394601223AA888
:100A200000F09AFE80B2CDE9047008230127CDE9D9
:100A3000023706F1D80301933023317A00930B4833
:100A400007A3D3E9002302F0E7F9A04206DD01F095
:100A50001FFEC5F8E000384671B0F0BD2046FBE748
:100A600078F6339F93CACD8DB01D0020A4180020C6
:100A70002DE9F0411D4D1E4E1E4F86B0284602F056
:100A8000F7F9034658B30024CDE90344ADF8144008
:100A9000027B02948DF814209968406803AA03C26F
:100AA0001B68DFF8548043F00043029301F0F2FD2D
:100AB000821941F100033846009402A901F0CAF8F6
:100AC000A04205DD284602F0D7F988F80040D5E7B6
:100AD00098F80030072B05D8013388F8003006B0AD
:100AE000BDE8F081014802F0C7F9F8E7A41800203A
:100AF00040420F00D8180020E522002070B50D46B6
:100B000014461E4602F0E4F850B9022E10D1012C12
:100B10000ED112A3D3E900230120C5E9002307E089
:100B2000282C10D005D8012C09D0052C0FD000207E
:100B300070BD302CFBD10BA3D3E90023ECE70BA352
:100B4000D3E90023E8E70BA3D3E90023E4E70BA3F1
:100B5000D3E90023E0E700BFAFF30080401DA120F0
:100B600026812A0B78F6339F93CACD8D9E6AC421C5
:100B7000818A46EE26417272DF25D7B7F017304AD8
:100B800039059E5638B505460E4C0021013500F05A
:100B9000E3FBA4F82C55B4F82C0500F0C5FB78B1A4
:100BA000B4F82C0500F0D0FB014648B9B4F82C0588
:100BB00000F0D2FBB4F82C350133A4F82C35EAE769
:100BC00038BD00BFB01D002010B50A4B0A4A1A609C
:100BD00093F8602442B9D3F85C442CB1204600F06D
:100BE000E5FE204603F06CFBBDE81040034800F032
:100BF000DDBE00BFD8180020A0440008201D002042
:100C00002DE9F04F8FB000AF05460C4602F060F8BA
:100C1000002848D1237E022B1AD1E38A012B17D159
:100C200001F036FD0646FFF7E1FD4FF4C873B0FB57
:100C3000F3F202FB1303DFF8A0829BB206F51676EF
:100C40003344C8F80030E37E33B90022A34B1A7056
:100C50003C37BD46BDE8F08F204607F1240100F087
:100C6000D1FC0028F4D107F11400FFF7D7FD97F865
:100C7000264007F11401224607F1270003F06AFB22
:100C80000028E2D10F2C08D8944B1C70D8F8003003
:100C9000A3F51673C8F80030DAE7284697F8241051
:100CA00002F00EF8D4E7E38A282B2BD010D8012BC2
:100CB00023D0052BCCD1BFF34F8F8949894BCA680C
:100CC00002F4E0621343CB60BFF34F8F00BFFDE738
:100CD000302BBDD1844EE17E327A9142B8D131467B
:100CE0000022607E91F8DC50854200F0A580013240
:100CF000042A01F58A71F5D1AAE721462846FFF7B3
:100D00009DFDA5E721462846FFF704FEA0E7B2F8BF
:100D1000EC507B6005F103094FEA99094FEA89021B
:100D2000D11DC908A8EBC1039D46EB4600215846DA
:100D300000F04EFB04F1EE012A465846314400F023
:100D400035FB7B6813B9012000F0E4FA96F8D20075
:100D500000F0EAFA044630B9307200F005FB204694
:100D600000F0D8FAB0E0D6F8D4203AB996F8D2001C
:100D7000B6F82C25824201D8FFF704FFD6F8D4201C
:100D80002A44944208D296F8D200B6F82C250130B5
:100D9000824201D8FFF7F6FE594670685FFA89F281
:100DA00000F01EFB08B9C54678E0726896F8D200DC
:100DB0002A447260D6F8D42005EB0209C6F8D49014
:100DC00000F0B2FA814509D396F8D220D6F8D400C3
:100DD0000132001B86F8D220C6F8D400FF2D0FD8B0
:100DE0000024347200F0C0FA204600F093FA00F0BC
:100DF0005FFD3E4B188108B9FFF7A6FCC54627E703
:100E0000BB6896F8D9000AFB0362D2F8E410FB68CD
:100E100001F5806182F8E830C2F8E030C2F8E410F1
:100E2000FFF7D6FDFFF724FE96F8D920013202F035
:100E3000030286F8D920B6E74FF48A7A0AFB02F556
:100E400005F1EA012046314400F0B2FCF8600028C8
:100E50007FF4FEAE0122354485F8E82001F018FC4D
:100E6000D5F8E020801A192840F6B83238BF19208A
:100E7000904228BF1046FFF7E5FA1D49FFF778F9C1
:100E800004463068FFF7DEFA1A49FFF771F90146A8
:100E90002046FFF727FAFFF72DFB306096F8D93090
:100EA000BB60BA6873680AFB02F4321992F8E81062
:100EB00059B1D2F8E410E8468B423FF428AF002144
:100EC00082F8E810C2F8E010C5467368074A9B0A2A
:100ED00001331381BCE600BFA01800209D1800203C
:100EE00000ED00E00400FA05B01D00208C08002091
:100EF000CDCCCC3D6666663F014B1870704700BF95
:100F00009808002030B54FF000542B4B226885B074
:100F10009A4207D002F07AFF044620BB0024204604
:100F200005B030BD627D254B25481A70237D002514
:100F300003724FF48073C0F8F8314FF40073C0F8B7
:100F40000C334FF44073C922C0F820341D49C0F857
:100F5000E450093000F02AFA2046E022294600F049
:100F600037FA0124DBE7184A184DD36943F00073C0
:100F7000D361AA6D164B9A42D0D12B6E013B7E2BCA
:100F8000CCD8144A01AB07CA83E8070018460321EE
:100F900000F05EFC6B6D83424FF00003BED12A6D02
:100FA0008A4203BFAB652A6E044B1C4601BF1A7010
:100FB000EA6D094B1A60B2E79AAD44C59808002063
:100FC000B01D002016000020001002400066004006
:100FD0005041A0B0586600401008002037B500F01E
:100FE00067FC0223184D01226B71184B2881196888
:100FF000174801F0F9F900230193164B16490093A5
:101000004FF48052154B164801F030FE154B1978FD
:1010100011B1134801F054FE01F03AFB0446FFF70A
:10102000E5FB4FF4C873B0FBF3F202FB130304F5C6
:1010300016709BB218440C4B186002F0DDFE08B12C
:101040000F232B8103B030BD8C0800201008002036
:10105000D8180020FD0A00089C080020010C000898
:10106000A418002098080020A01800202DE9F04FB7
:101070000FF22829D9E900897E4C93B0FFF7F8FCDC
:1010800000230BAE7C4FDFF8F4A10A93ADF83430A7
:101090000B9373604FF0000B002200230125CDE974
:1010A000002338465B460DF11D0207A98DF81C5040
:1010B0008DF81DB001F04AF99DF81C30002B40F06E
:1010C000A080204601F004FE0646002845D101F02C
:1010D000DFFA6B4F3B6898423FD301F0D9FA824662
:1010E000FFF784FB4FF4C873B0FBF3F202FB13006D
:1010F00083B20AF5167018443860624F0EA897F84C
:1011000000B0BBF1000F14BF33462B46CBF1100AE1
:101110005FFA8AFA8DF82830FFF780FBBAF1060FE4
:1011200028BF4FF0060A0EAB03EB0B0152460DF140
:10113000290000F03BF90AAB039318230AF10102DE
:101140000293514BD2B2CDE900530492204647A3FB
:10115000D3E9002301F002FE3E7001F099FA4B4AF8
:101160004B4D1368C31AB3F57A7F2ED3106001F08C
:1011700091FA02460B46204601F088FE204601F017
:10118000A7FD10B32B7A434E002B14BF0323022379
:10119000737101F07DFA4FF47A73B0FBF3F00EAF88
:1011A000012230603946304600F004FA18230293D9
:1011B000394B80B2019340F25513CDE9037000938F
:1011C00042464B46204601F0C9FD2B7AB3B101F0EF
:1011D0005FFA002607464FF48A7A95F8D900304422
:1011E00000F003000AFB005393F8E8206AB30136CD
:1011F000042EF2D12B7A002B7FF440AF13B0BDE860
:10120000F08FDAF80C30594683F00803CAF80C3036
:1012100010220EA800F0DCF80DF11E0308AA0AA99E
:10122000384600F00DFE96E803000FAB83E803009C
:101230009DF8343020468DF844300A9B0EA90E9359
:10124000DDE9082301F0F8FF24E7D3F8E02042B1FC
:101250002B68BA1AFA2B38BFFA230533B2EB430FC7
:10126000C5D3FFF7B5FB0028C1D1C3E7401DA120BE
:1012700026812A0BA4180020D8180020000C014059
:10128000A01800209D1800209C180020E0220020BB
:10129000B01D00208C080020E4220020F1C6A7C168
:1012A000D068080F08B5054800F062FEBDE80840A8
:1012B0000020034A034902F0FDBF00BFD8180020F8
:1012C00020230020C90B000870B502F0EBFB0025BD
:1012D0000E4C0F4E20803068238883420CD80025A6
:1012E0002088013802F0DAFB23880544013BB5F57C
:1012F000805F2380F4D370BD02F0D0FB33680544D7
:101300000133B5F5084F3360E5D3E8E71423002037
:10131000E822002002F054BC00F10060920000F5C9
:10132000084002F0F9BB0000054B1A68054B1B880A
:101330009B1A834202D9104402F0B0BB00207047D0
:10134000E822002014230020024B1B68184402F0FE
:10135000ABBB00BFE8220020024B1B68184402F020
:10136000B5BB00BFE8220020064991F8243033B114
:1013700000230822086A81F82430FFF7CDBF01203E
:10138000704700BFEC220020022802BF0822014B58
:101390001A617047000C0140022802BF4FF400227E
:1013A000014B1A61704700BF000C0140002310B5CB
:1013B000934203D0CC5CC4540133F9E710BD000064
:1013C00003460246D01A12F9011B0029FAD17047D0
:1013D00003460244934202D003F8011BFAE7704728
:1013E0002DE9F8431F4D144695F8242007468846FA
:1013F00052BBDFF870909CB395F824302BB92022B3
:10140000FF2148462F62FFF7E3FF95F8240041468D
:10141000C0F10802A24228BF224605EB8000D6B2E6
:101420009200FFF7C3FF95F82430A41B1E44F6B2C8
:10143000082E17449044E4B285F82460DBD1FFF70E
:1014400093FF0028D7D108E02B6A03EB8203834285
:10145000CFD0FFF789FF0028CBD10020BDE8F8836B
:101460000120FBE7EC2200202DE9F0470D46044661
:1014700000219046284640F27912FFF7A9FF234643
:1014800020220021284601F079FE02222021284650
:10149000231D01F073FE032222212846631D01F063
:1014A0006DFE032225212846A31D01F067FE1022B0
:1014B0002821284604F1080301F060FE08223821A3
:1014C000284604F1100301F059FE08224021284665
:1014D00004F1110301F052FE08224821284604F1CC
:1014E000120301F04BFE20225021284604F1140380
:1014F00001F044FE40227021284604F1180301F057
:101500003DFE0822B021284604F1200301F036FEFA
:101510000822B821284604F1210301F02FFEC0263D
:1015200004F122073B46314608222846083601F0DE
:1015300025FEB6F5A07F07F10107F3D10822314659
:10154000284604F1320301F019FE002704F1330AA2
:1015500094F832304FEAC7099F4209F5A47615D3B3
:10156000B8F1000F08D131460722284604F59973D7
:1015700001F004FE09F24F16274694F832213B1B76
:1015800093420CD3F01DC008BDE8F0870AEB0703B7
:1015900008223146284601F0F1FD0137D8E73146EF
:1015A00007F233130822284601F0E8FD0836013718
:1015B000E3E7000038B50C460021054621600346EC
:1015C000C4F803102046202201F0D8FD20462B1D30
:1015D0000222202101F0D2FD20466B1D0322222190
:1015E00001F0CCFD2046AB1D0322252101F0C6FDF4
:1015F00020461022282105F1080301F0BFFD072035
:1016000038BD00000023F7B50E460546047F0722CB
:101610000091194601F074FC731C00930122002311
:101620000721284601F06CFCC4B9B31C00930522C5
:1016300023460821284601F063FC0D243746B27882
:10164000BB1B934211D32B7FE01DC008AC8ABBB9F2
:10165000A04294BF0020012003B0F0BDAB8A082453
:10166000DB00083BDB08B370E8E7FB1C2146009376
:1016700008220023284601F043FC08340137DEE746
:10168000001B18BF0120E7E70023F7B50E46047FD3
:10169000082200911946054601F032FC731CC4B9BA
:1016A0000822009311462346284601F029FC102405
:1016B000012372785F1C013B934211D32B7FE01D05
:1016C000C008AC8ABBB9A04294BF0020012003B07F
:1016D000F0BDAB8A0824DB00083BDB087370E7E74A
:1016E000F3192146009308220023284601F008FC44
:1016F00008343B46DDE7001B18BF0120E7E7000088
:10170000F8B50E4605461446002181223046FFF703
:101710005FFE2B4608220021304601F02FFD7CB9E8
:101720000722082130466B1C01F028FD0F240123FD
:101730006A785F1C013B934204D3E01DC008F8BDEA
:101740000824F4E72146EB190822304601F016FD83
:1017500008343B46ECE70000F8B50E460546144653
:101760000021CE223046FFF733FE2B4628220021EF
:10177000304601F003FD7CB908222821304605F1EE
:10178000080301F0FBFC30242F462A7A7B1B93428E
:1017900004D3E01DC008F8BD2824F5E7214607F171
:1017A00009030822304601F0E9FC08340137ECE770
:1017B000F7B5047F0E460091012310220021054653
:1017C00001F09EFBC4B9B31C0093092223461021EB
:1017D000284601F095FB192437467288BB1B9A42B4
:1017E00011D82B7FE01DC008AC8ABBB9A04294BFC2
:1017F0000020012003B0F0BDAB8A1024DB00103BB9
:10180000DB087380E8E73B1D214600930822002394
:10181000284601F075FB08340137DEE7001B18BFCE
:101820000120E7E730B5094D0A4491420DD011F887
:10183000013B5840082340F30004013B2C4013F0C7
:10184000FF0384EA5000F6D1EFE730BD2083B8ED06
:101850004FF0FF33F7B500EB81061946DFF848C0BB
:10186000DFF848E0B0421BD050F8042B01AF0192E2
:10187000042217F8014B81EA046108240D46DB18A5
:101880004941013C002DBCBF83EA0C0381EA0E01F3
:1018900014F0FF04F2D1013A12F0FF02E9D1E1E7BE
:1018A000D843C94303B0F0BD9336EAA9EBE1F04257
:1018B000F7B56B46374A106851686A4603C3082378
:1018C0003549364802F056FD0446002833D10A2532
:1018D0006B46334A106851686A4603C3082331498E
:1018E0002E4802F047FD0446002849D00369B3F5AD
:1018F0005E3F45D840F2ED32B0F8661091423FD1DC
:10190000294A024402F15C018B4239D35C3B2349F2
:1019100000209E1AFFF786FF07463246002004F19A
:101920006401FFF77FFFA3689F4229D1E3689842D3
:1019300008BF002524E00369B3F55E3F27D840F2D5
:10194000ED32418B914220D1174A024402F110013D
:101950008B4218D3103B114900209D1AFFF762FFFC
:1019600006462A46002004F11801FFF75BFFA36832
:101970009E4202D1E368984201D00D25A8E70025D8
:10198000284603B0F0BD1025A2E70C25A0E70B25E3
:101990009EE700BF64440008DC770300008800086D
:1019A0006D440008907703000878FFF710B5037CBA
:1019B000044613B9006802F0C5FC204610BD0000C3
:1019C0000023BFF35B8FC360BFF35B8FBFF35B8FFD
:1019D0008360BFF35B8F7047BFF35B8F0068BFF31B
:1019E0005B8F704770B505460C30FFF7F5FF05F1CA
:1019F000080604463046FFF7EFFFA04206D93046FE
:101A00006D68FFF7E9FF2C44201A70BD3046FFF7E0
:101A1000E3FFF9E770B505464068A0B105F108009D
:101A2000FFF7DAFF05F10C0604463046FFF7D4FF56
:101A3000844288BF0025304698BF6D68FFF7CCFF11
:101A4000013C2C44201A70BD38B50C460546FFF702
:101A5000C9FFA04210D305F10800FFF7BDFF044401
:101A60006868BFF35B8FB4FBF0F100FB1144AC601E
:101A7000BFF35B8F012038BD0020FCE72DE9F0416A
:101A8000144607460D46FFF7C5FF844228BF0446AB
:101A9000D4B1B84658F80C6B4046FFF79DFF06449A
:101AA0002E6040467E68FFF797FF331A9C4203D8AA
:101AB00001206C60BDE8F0816B603B68A61B0644AA
:101AC000AB600220EE60F5E72046F3E738B50C4640
:101AD0000546FFF79FFFA04210D305F10C00FFF76A
:101AE0007BFF04446868BFF35B8FB4FBF0F100FB3D
:101AF0001144EC60BFF35B8F012038BD0020FCE790
:101B00002DE9FF410F46694606466C46FFF7B6FFD2
:101B1000002504EBC008444508D0626820687919A4
:101B2000FFF744FC636808341D44F4E72946304657
:101B3000FFF7CCFF284604B0BDE8F081F8B50546B4
:101B40000C300F46FFF748FF05F108060446304603
:101B5000FFF742FFA042304688BF6C68FFF73CFFAA
:101B6000201A386020B130462C68FFF735FF20443A
:101B7000F8BD0000F7B5174606460D46FFF732FFE1
:101B8000B842044628BF3C460190DCB1304601A96A
:101B9000FFF7D4FF019B33B93268C5E90233C5E9C9
:101BA000002401200CE09C4238BF01942860019879
:101BB00084426860F5D9241A02203368EC60AB6077
:101BC00003B0F0BD2046FBE72DE9FF410E46694614
:101BD000FFF7D0FF6C46002504EBC007BC4209D0DC
:101BE000D4F804807019424654F8081BFFF7DEFB56
:101BF0004544F3E7284604B0BDE8F08138B5054612
:101C0000FFF7E2FF044601462846FFF71DFF204686
:101C100038BD000010B4026854681A46234610BC50
:101C200018470000002070470020704770470000F0
:101C3000002070470E20704790F8C804C0F34000A1
:101C40007047000090F9D00470470000C0F8CC1431
:101C500001207047F7B50C68BDF8207014F00054EF
:101C60006BD10D7B082D68D8302585F31188456927
:101C7000AE6876010CD4AC68240108D4AC6814F0CA
:101C8000805458D184F31188204603B0F0BD01245C
:101C90000E6804F1180C002EBABFF60046F00406D8
:101CA00076054FEA0C1C45F80C600E684FEA041CE0
:101CB00016F0804F1CBF05EB0C0EDEF88061AC44C3
:101CC0001CBF46F00206CEF880610E7B05EB0415C2
:101CD000CCF884618E68C5F88C614E68C5F888615F
:101CE0000E46DCF8805145F00105CCF8805100EB40
:101CF0004415C5F86824C5F86C3401F10C0C05F5E1
:101D00008E6556F804EB664545F804EBF9D1368844
:101D100024342E8000EB4414267907F0030526F0C6
:101D20000B0635432571002484F31188009700F0D9
:101D3000D1FC0120A9E70224AAE74FF0FF30A4E775
:101D400038B50446D0F85C040D46FFF763FE1F2843
:101D50000AD920222946D4F85C04FFF7D1FEA0F16D
:101D600020035842584138BD0020FCE708B5302315
:101D700083F31188D0F85C04FFF722FE002383F37D
:101D8000118808BD00220260828142608260704733
:101D90000022002310B5C0E900230023044603817C
:101DA0000C30FFF7EFFF204610BD0000F0B590F8B3
:101DB000C8340D4613F0040FC3F3800108BF114669
:101DC00005F1240661F3820380F8C83400EB461362
:101DD0001B790446D80789B02DD572B319072CD4C6
:101DE00004EB45156846FFF7D3FF05F58E6303AA9C
:101DF00005F58F65174618685968083303C7AB4265
:101E00003A46F7D11868694638609B882046BB80FF
:101E1000DDE90E23CDE900230123ADF80830236866
:101E2000DB6B984704EB461423791A075CBF43F039
:101E30000803237101E0002AF4D109B0F0BD0000CD
:101E40002DE9F0479A46054688469146302388B0EA
:101E500083F311886846FFF79BFFD5F85C04FFF712
:101E6000C1FD1F282BD920226946D5F85C04FFF755
:101E7000C5FE202823D1444603AE05AB374603CF29
:101E80009F42206061603E4604F10804F6D1386844
:101E90002060BB88A380DDE90023C9E90023BDF8E9
:101EA0000830AAF80030002383F3118853464A46CD
:101EB0004146284608B0BDE8F04700F0F9BB0020D5
:101EC00080F3118808B0BDE8F087000000232DE9F9
:101ED000F0470446C0E90133224B0E4640F8183B58
:101EE000FFF750FF04F1480704F12800FFF750FF07
:101EF0003D4604F5896828462035FFF749FF4545EA
:101F0000F9D14FF48063C4F84874C4F84C34002706
:101F100001234FF000084FF00009C4F85C54C4F8E6
:101F20005074C4F8547484F8583484F8603404F558
:101F3000916504F59D6A45E90889A5F11800FFF748
:101F400021FF203545F8287C5545F4D184F8D0642C
:101F500016B1054800F096FB044B20466361BDE8CE
:101F6000F08700BFA04400087844000800640040E7
:101F700010B50446034B19784A1C1A70FFF7A6FFE8
:101F8000204610BD1C2300202DE9F04300294FD02E
:101F9000284F294BB7FBF1F499428CBF0A23112338
:101FA000B4FBF3FC581E03FB1C43C5B22BB1022843
:101FB0000346F5D80020BDE8F0830CF1FF36B6F5F6
:101FC000806FF7D24FF47A74C5EBC50E0EF10303A0
:101FD0004FEAE30909FB0444C3F3C703E81AC0B29C
:101FE00009F101088044B4FBF8F4B4F5617FC2BF85
:101FF0000EF1FF33C3F3C703E81A03F10104C8BFAE
:10200000C0B2E4B204440CFB04F4B7FBF4F4A14204
:10201000D0D1013BDBB20F2BCCD80138C0B207289E
:10202000C8D800211071168001209170D370C2E7CA
:102030000846C0E7005125023F420F0070B5054633
:102040000E464FF47A746B6901205B6803F001035C
:10205000B34204D001F06CFC013CF4D1204670BDC9
:1020600030B54269936913F0700F16D000230B4C02
:10207000936103F1240200EB421211794D0709D557
:10208000890707D5416954F823508D60117941F0D3
:10209000040111710133032BEBD130BD8C440008D6
:1020A00073B51D46436916469A680446D20709D59A
:1020B00001219A689960C2F340020021CDE90065D0
:1020C000FFF774FE63699A68D1050BD54FF48071F0
:1020D0009A6820469960C2F340220121CDE900654B
:1020E000FFF764FE63699A68D2030BD54FF4803121
:1020F0009A6820469960C2F340420221CDE900650A
:10210000FFF754FED4F8CC0410B103681B6998475C
:10211000204602B0BDE87040FFF7A2BFF8B5044604
:102120004669002970D106F10C07386880076ED027
:10213000386806EB01104FEA011CD0F8B011D0F856
:10214000B051490746BFED0845F000456D0DA5614A
:10215000D0F8B011890744BF45F08045A561D0F89B
:10216000B40106EB0C0100F00F0084F82400D1F854
:10217000B80104F124052077D1F8B801000A60778E
:10218000D1F8B801000CA077D1F8B801000EE077C3
:10219000D1F8BC0184F82000D1F8BC01000A84F811
:1021A0002100D1F8BC01000C84F82200D1F8BC1148
:1021B00004F13400090E84F823103821396004F149
:1021C000180151F8046BA94240F8046BF9D1098851
:1021D0000180C4E90A2300232146238651F8283BC5
:1021E0002046DB6B984794F8C834D4F8CC0443F00D
:1021F000040384F8C83410B103681B69984720466B
:10220000BDE8F840FFF72CBF06F110078DE7F8BDD9
:1022100010B5044600F03EFA02460B4652EA0301AE
:1022200002D0013A63F100030449086820B1214655
:10223000BDE81040FFF772BF10BD00BF182300209B
:10224000F0B5302181F311880021124F00F58D6522
:1022500001F1240400EB4414267916F0040F0FD189
:10226000F6060DD5D5E900C694459E4108D24669CB
:1022700057F821C0C6F808C0267946F00406267132
:102280000131032905F12005E2D1002383F31188F0
:10229000F0BD00BF8C44000808B5302383F31188DB
:1022A000FFF7DEFE002383F3118808BDF8B543690C
:1022B000044698680E4600F0E050B0F1E05F1FD091
:1022C000E8B1302383F31188002504F58E6704EB11
:1022D000451393F884341A0706D50135032D07F109
:1022E0002007F4D1012007E05B07F6D439463046D9
:1022F00000F02AFA0028F0D1002383F31188F8BDFA
:102300000120FCE708B5302383F31188D0F85C0482
:10231000FFF768FB002383F3118843090CBF0120FA
:10232000002008BDF8B51D46002313700F46064671
:102330001446FFF7E7FF80F00100387025B1294609
:102340003046FFF7B3FF2070F8BD0000F8B50C462B
:1023500015461E46074600F09DF90B4621780246B9
:1023600009B9287850B13846FFF76AFFFFF794FFA4
:1023700033462A462146FFF7D5FF0120F8BD00006D
:1023800038B50446302080F31188164BDA6942F0E4
:102390000072DA611A6942F000721A611A6922F059
:1023A00000721A61002383F3118894F8C83413F083
:1023B000010516D1A9B180F311880321132001F082
:1023C000ABF90321142001F0A7F90321152001F036
:1023D000A3F994F8C83443F0010384F8C83485F3B2
:1023E000118838BD001002402DE9F04790F8D03434
:1023F0000446012B0F46154688B07ED8804E56F80D
:1024000023200AB946F82300D6F80090E760257427
:10241000B9F1000F63D094F8D034012B6FD00121B3
:102420002046FFF7ADFF302383F311884FF00008FB
:102430006269136823F0020313606269136843F052
:10244000010313606369C3F8148088F311880121C4
:102450002046FFF7F3FD002800F09280D4F85C04DA
:10246000FFF7AEFAA14604F1600A20220021684677
:10247000FEF7AEFF02A8FFF785FC6A46CDF818808C
:1024800009F58D630DF1180C164603CE66451860EC
:102490005960324603F10803F6D1306809F120098A
:1024A00018603279CA451A71DFD1002694F8C83411
:1024B0006A466FF3820384F8C83439462046ADF883
:1024C0000060ADF802608DF80460FFF75DFD6369A0
:1024D00048BB4FF400421A6008B0BDE8F0874FF4E3
:1024E0009B6001F0EFFE804610B14946FFF7EEFC1D
:1024F000C6F80080B8F1000F8DD10020ECE73068FD
:1025000003681B6B98470146002888D13068FFF7A5
:1025100037FF30682A46036839465B6898470028C9
:102520007FF47DAFE9E76122022D0CBF4FF000413F
:1025300000211A609DF802309DF803201B0612044A
:1025400002F4702203F040731343BDF800202046CC
:10255000C2F3090213439DF80420120502F4E002BD
:10256000134362690B43D3611322636931465A6195
:102570006269136823F001031360FFF75FFD08B978
:102580006369A6E794F8D03493BB6169D1F800225F
:1025900042F00102C1F800226169D1F8002222F460
:1025A0007C5222F00E02C1F800226169D1F80022AB
:1025B00042F46062C1F8002241F6FF716269C2F81C
:1025C00014326269C2F804326269C2F80C1262699C
:1025D000C2F840326269C2F8443201226369C3F82A
:1025E0001C226269D2F8003223F00103C2F80032E3
:1025F00094F8C83443F0020384F8C8346CE700BF91
:102600001823002008B500F045F802460B4652EAB0
:10261000030102D0013A63F100030449086808B1DC
:10262000FFF73EFDBDE8084001F054B81823002034
:1026300008B50020FFF7ECFDBDE8084001F04AB8FE
:1026400008B50120FFF7E4FDBDE8084001F042B8FD
:10265000EFF30983EFF30583014B9B6BFEE700BFAC
:1026600000ED00E008B5FFF7F3FF0000EFF309838A
:10267000EFF30583014B5B6BFEE700BF00ED00E06D
:10268000FEE700000FB408B5029801F001F9FEE77B
:1026900001F010BB01F0BCBA13B56C4684E806002B
:1026A000031D94E8030083E80500012002B010BD7B
:1026B000F8B586680D4656B11B885B0707D4D0E98C
:1026C00000379B6B98472A46C1B23846B047012075
:1026D000F8BD0000F0B5866805460C4689B05EB1CD
:1026E000BDF838305B070AD4D0E900379B6B9847B8
:1026F0002246C1B23846B047012009B0F0BD0022E1
:102700000023CDE9002300230A46ADF8083001F18B
:10271000080603AB1C4610685168083203C4B24275
:102720002346F7D1106820609288A280FFF7B2FF9D
:102730000423ADF808302B68CDE90001DB6B694656
:1027400028469847D8E7000030B503680968DD0FD0
:10275000B5EBD17F23F0604421F060424FEAD170A5
:102760000BD0002BB8BFA40C0029B8BF920C944228
:1027700002D034BF0120002030BD944205D1C1F306
:102780008070C3F380738342F6D194422CBF002043
:102790000120F1E72DE9F041456A15B94162BDE834
:1027A000F0814B68AC4623F06047C3F38A4616EAD3
:1027B000230638BF3E464FEAD37EC3F380782B46CC
:1027C0005A68BEEBD27F22F060440AD0002A18DAA1
:1027D000A40CB44217D19D420FD10D60DEE7134621
:1027E000EEE7A74207D102F08044C2F3807242456F
:1027F0000BD054B1EFE708D2EDE7CCF800100B6036
:10280000CDE7B44201D0B442E5D81A689C46002A0C
:10281000E5D11960C3E700002DE9F0474FF47F4987
:10282000089D01F007044FEAD508224405F007058A
:1028300000EBD100944201D1BDE8F08704F0070716
:1028400005F0070A57453E4638BF5646111BC6F1EC
:1028500008068E4228BF0E46E108415C08EBD50E03
:1028600013F80EC0B94029FA06F721FA0AF1FFB2AF
:102870008CEA010147FA0AF739408CEA010C03F8A7
:102880000EC034443544D5E7082341F2210280EAE2
:10289000012001B24000002980B203F1FF33B8BF2C
:1028A000504013F0FF03F4D17047000038B50C46D8
:1028B0008D18A54200D138BD14F8011BFFF7E4FFC5
:1028C000F7E700000346406848B1026899895A60FA
:1028D0005A89013292B291425A8138BF9A81704727
:1028E00070B504460D4688B0202200216846FEF7E8
:1028F0006FFD20460495FFF7E5FF024658B16B4691
:10290000054608AE1C4603CCB442286069602346E5
:1029100005F10805F6D1104608B070BD082817D992
:1029200009280CD00A280CD00B280CD00C280CD06D
:102930000D280CD00E2814BF4020302070470C20EA
:1029400070471020704714207047182070472020CF
:1029500070470000082817D90C280CD910280CD96A
:1029600014280CD918280CD920280CD930288CBF51
:102970000F200E207047092070470A2070470B2057
:1029800070470C2070470D20704700002DE9F84378
:10299000078C0446072F1ED9D0E9029800254FF670
:1029A000FF73C5F12006A5F1200029FA05F108FA08
:1029B00006F628FA00F031430143C9B21846FFF782
:1029C00063FF0835402D0346EBD13A46E169BDE887
:1029D000F843FFF76BBF4FF6FF70BDE8F8830000C8
:1029E00010B54B6823B9CA8A63F30902CA8210BDC5
:1029F00004691A681C600361C38A013BC3824A6090
:102A0000EFE700002DE9F84F1D46CB8A0F46C3F3D0
:102A100009010529814692460B4630D00020AAB212
:102A200007F11A049EB2042E1FFA80F80FD89045C1
:102A300003F1010306D3FB8A0A4462F30903012070
:102A4000FB821AE01AF800600130E654EAE790458C
:102A5000F1D21C23A1F1050BBBFBF3F203FB12BB6C
:102A60007C681FFA8BF6002C45D14846FFF72AFFF9
:102A7000044638B978606FF00200BDE8F88F4FF077
:102A80000008E6E70026066078604FF0000BADB264
:102A9000454510D90AEB0803221D13F8011B08F164
:102AA00001089155B1B21B291FFA88F82BD0454572
:102AB00006F10106F1D8FB8AC3F30902154465F358
:102AC0000903BCE71C46013292B22368002BF9D1FE
:102AD0006B1F0B441C21B3FBF1F301339BB29A42F1
:102AE000D3D2BBF1000FD0D14846FFF7EBFE20B99F
:102AF000C4F800B0BFE70122E7E7C0F800B05E46C7
:102B000020600446C1E74545D5D94846FFF7DAFEBF
:102B100008B92060AFE7C0F800B000262060044686
:102B2000B6E700002DE9F74F1C465B69074688466B
:102B30000092002B00F09780238C2BB1E269002AD1
:102B400000F09180072B33D807F10C00FFF7BAFE95
:102B5000054628B96FF00205284603B0BDE8F08F9E
:102B600014220021FEF734FC228CE16905F10800F3
:102B7000FEF71CFC208C48F00041013080B2FFF7CA
:102B8000E9FEFFF7CBFE013880B2208401302874C3
:102B90006369228C1B782A4403F01F0363F03F0310
:102BA0001372384669602946FFF7F4FD0125D3E723
:102BB0004FF000094FF0800A4E464D4600F10C03DD
:102BC00001930198FFF77EFE83460028C2D01422AD
:102BD0000021FEF7FDFB002E3BD10222009BABF84B
:102BE00008300BF1080E1FFA82FC0CF10100BCF159
:102BF000060F218C80B201D88E422CD3FFF7AAFE9B
:102C0000FFF78CFE8E4208BF4FF0400A6269013820
:102C1000127880B202F01F0242EA49120BEB000167
:102C20004AEA020A013048F0004281F808A08BF815
:102C3000100059463846CBF80420FFF7ABFD238C33
:102C40000135B3424FF0000A2DB289F00109B8D125
:102C500082E70022C5E7E169895D01360EF80210BE
:102C6000B6B20132BFE76FF0010575E7F8B504466B
:102C700015460E46302200211F46FEF7A9FB069B93
:102C8000B5F5001F6360079B28BF4FF6FF72A36274
:102C90004FF0000338BF6A09A760E66197B204F1FC
:102CA00010009A4206D800230360A782E3822383A0
:102CB000E360F8BD0660013330462036F1E70000DE
:102CC00003781BB94BB2002BC8BF017070470000DE
:102CD00000787047F8B50C46C969074611B9238CCE
:102CE000002B37D1257E1F2D34D8387828BB228C75
:102CF000072A2CD8268A36F003032BD14FF6FF7013
:102D0000FFF7D4FD4FF6FF7220F0010036024004B9
:102D100046EA0565400C45EA4025234629463846E3
:102D2000FFF700FF002807DD626913780133DBB28B
:102D30001F2B88BF00231370F8BD218A2D0645EA9A
:102D4000012505432046FFF721FE0246E5E76FF027
:102D50000300F1E76FF00100EEE7000070B50446F4
:102D60001D4616468AB0282200216846FEF730FB31
:102D7000BDF838306946ADF810300F9B20460593FA
:102D80009DF84030CDE902658DF81830119B07930E
:102D9000BDF84830ADF82030FFF79CFF0AB070BD99
:102DA0002DE9F041D36905460C4616460BB9138C44
:102DB0005BBB377E1F2F28D895F80080B8F1000F35
:102DC00026D03046FFF7E2FD3378210241EAC331D5
:102DD00041EA0801338A41EA076141EA03410246B8
:102DE0003346284641F08001FFF79CFE00280ADDAB
:102DF0003378012B07D1726913780133DBB21F2BB3
:102E000088BF00231370BDE8F0816FF00100FAE77E
:102E10006FF00300F7E70000F0B504460D461E46CC
:102E200017468BB0282200216846FEF7D1FA9DF89C
:102E30004C3029465A1E534253418DF800309DF8BC
:102E400040306A46ADF81030119B204605939DF83E
:102E50004830CDE902768DF81830149B0793BDF801
:102E60005430ADF82030FFF79BFF0BB0F0BD0000F1
:102E7000406A00B104307047436A1A6842620269CE
:102E80001A600361C38A013BC38270472DE9F04198
:102E9000D0F8208014461D4641460027174E09B938
:102EA000BDE8F081D1E90223A21A65EB0303964243
:102EB00077EB03031ED2036A8B420DD1FFF790FD1F
:102EC000036A1B68036203690B60C38A0161016ABC
:102ED000013B8846C382E2E7FFF782FD0B68C8F832
:102EE000003003690B60C38A0161013BC382D8F8DB
:102EF0000010D4E788460968D1E700BF80841E002F
:102F00002DE9F04F8BB00D4614469B468046DDF808
:102F10005090002800F01A81B9F1000F00F01681DE
:102F2000531E3F2B00F21281012A03D1BBF1000F87
:102F300040F00C810023CDE90833B8F81430B5EB2C
:102F4000C30F4FEAC30703D300200BB0BDE8F08FD7
:102F50002B199F42D8F80C3036BF7F1B2746FFB293
:102F60001BB9D8F81030002B7BD0272D4ED8C5F1D7
:102F70002806B7424FF0000334BF3E46F6B2009336
:102F800029463246D8F8080008ABFFF745FCA7EB06
:102F9000060A35445FFA8AFA2821B8F8143003F19A
:102FA0000053053BDB000493D8F80C300393039BDC
:102FB00013B1BAF1000F2CD1D8F8100040B1BAF11A
:102FC000000F05D05246009608AB691AFFF724FCA3
:102FD00038B2002FB8D066070AD00AAB03EBD40191
:102FE00011F8083C624202F00702134101F8083C64
:102FF000082C3DD9102C40F2B680202C40F2B8802D
:10300000BBF1000F00F09D80082335E0BA46002692
:10301000C2E7049BE02B28BFE02306930B44AB429E
:10302000059315D95A1B924538BF5246039828BFBD
:10303000D2B20096691A08AB04300792FFF7ECFB96
:10304000079A1644AAEB020A1544F6B25FFA8AFA06
:10305000049B069A05999B1A0493039B1B68039390
:10306000A5E700933A462946D8F8080008ABADE733
:10307000BBF1000F13D00123B4EBC30F6CD0082CAD
:1030800012D89DF82030621E23FA02F2D50706D529
:103090004FF0FF3202FA04F423438DF820309DF8FC
:1030A000203089F8003050E7102C12D8BDF82030BD
:1030B000621E23FA02F2D10706D54FF0FF3202FA60
:1030C00004F42343ADF82030BDF82030A9F80030D7
:1030D0003BE7202C0FD80899631E21FA03F3DA0787
:1030E00005D54FF0FF3202FA04F40C430894089B14
:1030F000C9F8003029E7402C2BD0DDE90865611EB6
:10310000C4F12102A4F1210326FA01F105FA02F229
:1031100025FA03F311431943CB0712D50122A4F179
:103120002003C4F1200102FA03F322FA01F1A240C4
:10313000524243EA010363EB430332432B43CDE99D
:103140000823DDE90823C9E90023FEE66FF001004A
:10315000FBE66FF00800F8E6082CA0D9102CB3D9D4
:10316000202CEED8C3E7BBF1000FADD0022383E7DC
:10317000BBF1000FBBD004237EE70000012A30B56D
:10318000144638BF01220025402A28BF402285B0BE
:10319000012CCDE9025517D81B788DF8083053075C
:1031A0000AD004AB03EBD20515F8083C544204F0F6
:1031B0000704A34005F8083C0346009102A800213B
:1031C000FFF72AFB05B030BD082CE5D9102C03D839
:1031D0001B88ADF80830E2E7202C02D81B68029368
:1031E000DDE7D3E90045CDE90245D8E710B5CB6866
:1031F0001BB98B600B618B8210BD04691A681C605F
:103200000361C38A013BC382CA60F0E703064CBF77
:10321000C0F3C0300220704708B50246FFF7F6FF42
:10322000022806D15306C2F30F2001D100F003009B
:1032300008BDC2F30740FBE72DE9F04F93B0CDE99D
:1032400003230A6804461046FFF7E0FF02280CBF7C
:103250000026C2F30626002A0D46824680F2F98136
:1032600012F0C04940F0F581097B002900F0F1819E
:10327000022803D02378B34240F0EE81C2F3046306
:103280001046069302F07F030593FFF7C5FF059BE9
:1032900000224FEA8348002348EA0A48294448EAC2
:1032A0004668CE78CDE90823F309834648EA00084A
:1032B000029367D0059B02460093204653466768F9
:1032C00008A9B847002800F0CA81276A4FB94146CB
:1032D00004F10C00FFF704FB074690B96FF0020001
:1032E00054E03B6998450DD03F68002FF9D1414625
:1032F00004F10C00FFF7F4FA07460028EED0236A29
:103300003B60276297F817C006F01F08CCF3840CC7
:10331000ACEB08001FFA80FE0028B8BF0EF12000B9
:10332000A8EB0C031FFA83FEB8BF00B2002B079373
:10333000BEBF0EF120031BB20793D7E9022152EA68
:10334000010338D04FF0000C039BDFF8F8E19A1A24
:10335000049B63EB010196457CEB01032BD36B7B54
:1033600097F81AE0734519D1029B002B78D00128F9
:1033700021DC7868F8B9DFF8D0C1944570EB01031F
:1033800016D337E0276A27B96FF00C0013B0BDE8F9
:10339000F08F3B699845B5D03F68F4E76A489042A2
:1033A0007CEB010301D30020F0E7029B002BFAD055
:1033B000079B0F2B17DCFA7DB30002F0030203F02A
:1033C0007C031343FB7539462046FFF709FB6B7BF3
:1033D000BB76029B3BB9FB7DC3F38402013262F3EF
:1033E0008603FB75D0E76A7BBB7E9A42DBD1029BEA
:1033F000002B35D0B309022B32D0039B1422BB60C3
:10340000049B0021FB600DA8FDF7E2FF039B204613
:103410000A93049BADF83EB00B932B1D0C932B7BB2
:103420008DF840A0013BDBB2ADF83C30069B8DF837
:1034300041808DF84230059B0AA98DF8433094F8FD
:103440002C3083F001038DF84430A3689847FB7D4E
:10345000C3F38403013303F01F039B02FB82A2E743
:10346000FB7DC6F34012B2EBD31F40F0FB80C3F3E9
:103470008403434540F0F980029A2B7BB609002A69
:103480004DD0F20762D4032B40F2F280039BAE1DB5
:10349000BB60049B3246FB602B7B3946033BDBB2AF
:1034A00004F10C00FFF7AEFA00280CDA394620468A
:1034B000FFF796FAFB7DC3F38403013303F01F0388
:1034C0009B02FB820AE7AB88DDE908843B834FF669
:1034D000FF73C9F12000A9F1200228FA09F104FACA
:1034E00000F0014324FA02F211431846C9B2FFF773
:1034F000CBF909F10809B9F1400F0346E9D131468A
:10350000B8822A7B033AD2B2FFF7D0F9FB7DB882AA
:10351000DA43C2F3C01262F3C713FB7543E7AEB9D7
:103520002E1D013B32463946DBB204F10C00FFF799
:1035300069FA0028BADB2A7B3146013AB88AD2B24E
:10354000E2E700BF80841E0040420F00F98A013B81
:10355000C1F309010429DAB25DD80023281D07F15F
:103560001B069A4208D910F801CB013306F801C0B6
:1035700001310529DBB2F4D1934228BF002303991E
:1035800038BF04330A91049938BFDBB20B9107F1BD
:103590001B010C91796838BF5B190D910E93FB8A62
:1035A000ADF83EB0C3F309031A44069BADF83C20C6
:1035B0008DF84230059B8DF840A08DF8433094F88B
:1035C0002C308DF8418083F001038DF844300023C6
:1035D0007B602A7BB88A013A291DFFF767F93B8B8C
:1035E000B882834203D12046A3680AA9984720469F
:1035F0000AA9FFF7FBFDFB7DBA8AC3F384030133FD
:1036000003F01F039B02FB823B8B9A420CBF0020FE
:103610006FF01000BAE67B68002BADD0052001E00A
:1036200033461C301E68002EFAD1091A081D2E1DC3
:10363000184401EB090CBCF11B0F5FFA89F39BD80E
:103640009A4299D916F8013B09F1010900F8013BAA
:10365000EFE76FF0090099E66FF00A0096E66FF069
:103660000B0093E66FF00D0090E66FF00E008DE614
:103670006FF00F008AE600BFEFF30983203383F376
:103680000988002383F3118870470000302080F3FD
:10369000118862B60C4B0D4AD96821F4E061090427
:1036A000090C0A43DA60D3F8FC20094942F0807221
:1036B000C3F8FC200A6842F001020A602022DA778F
:1036C00083F82200704700BF00ED00E00003FA0518
:1036D000001000E0302310B583F311880B4B5B68BA
:1036E00013F400630FD0EFF309844FF08073203C94
:1036F000E36184F3098800F095F810B1044BA361ED
:1037000010BD044BFBE783F31188F9E700ED00E0FF
:10371000370600083A0600080122090100F160435B
:1037200003F56143C9B283F8001300F01F039A4008
:1037300043099B0003F1604303F56143C3F8802113
:103740001A607047090100F16040C9B200F56D4090
:103750000176704700238268037503691B689968C6
:103760009142FBD25A680360426010605860704713
:1037700000238268037503691B6899689142FBD82E
:103780005A680360426010605860704708B5084688
:10379000302383F311880B7D032B05D0042B0DD030
:1037A0002BB983F3118808BD00228B691A604FF092
:1037B000FF338361FFF7CEFF0023F2E7D1E9003248
:1037C00013605A60F3E70000FFF7C4BF054BD968E8
:1037D00008751868026853601A6001220275D86083
:1037E000FCF718BF2823002030B50C4B0446DD68D9
:1037F0004B1C87B00FD02B466846094A00F0BCF836
:103800002046FFF7E3FF009B13B1684600F0BCF8C9
:10381000A86907B030BDFFF7D9FFF9E728230020DA
:103820008D370008044B1A68DB6890689B689842E3
:1038300094BF00200120704728230020084B10B5BA
:103840001C68D868226853601A6001222275DC6007
:10385000FFF78EFF01462046BDE81040FCF7DABEB8
:103860002823002038B501230025064C06490748C7
:103870002370656000F0F8FA0223237085F3118845
:1038800038BD00BF80240020E44400082823002025
:1038900008B572B6044B186500F0A6F900F076FA88
:1038A0000322024B1A70FEE7282300208024002008
:1038B00000F07CB88B60022308618B820846704759
:1038C0008368A3F1440243F8142C026943F8442CA2
:1038D000426943F8402C094A43F8242CC268A3F1FA
:1038E000200043F8182C022203F80C2C002203F8C5
:1038F0000B2C034A43F8102C704700BF2506000824
:103900002823002008B5FFF7DBFFBDE80840FFF7DC
:103910005BBF0000024BDB6898610F20FFF756BFCA
:1039200028230020302383F31188FFF7F3BF000022
:1039300008B50146302383F311880820FFF754FFB0
:10394000002383F3118808BD10B50A4C23699A68D7
:1039500091420CD85A6881600360426010609A6896
:103960005860511A99604FF0FF33A36110BD1B6876
:10397000891AECE728230020C0E90323002310B4B0
:1039800010BC4361FFF7E0BF036881689A680A448E
:103990009A60426813605A6000234FF0FF32036060
:1039A000014B9A61704700BF2823002070B5124D6B
:1039B0002A46EB690133EB6152F8103F934206D07F
:1039C00030269A68013A9A602C69A36803B170BDE9
:1039D000D4E900210A605160236083F311882046F6
:1039E000D4E90331984786F3118861690029EBD047
:1039F0002046FFF7A9FFE7E728230020054A30B556
:103A0000D369D2E908451B1B181945F10001C2E929
:103A1000080130BD2823002000207047FEE7000089
:103A2000704700004FF0FF3070470000BFF34F8F2A
:103A3000024AD368DB07FCD4704700BF0020024075
:103A400008B5074B1B7853B9FFF7F0FF054B1A6910
:103A5000120641BF044A5A6002F188325A6008BD1A
:103A600098240020002002402301674508B5054B3B
:103A70001B7833B9FFF7DAFF034A136943F0800379
:103A8000136108BD98240020002002407F289ABFBF
:103A900000F58030C0020020704700004FF4006045
:103AA00070470000802070477F2808B50BD8FFF7CB
:103AB000EDFF00F500630268013204D10430834257
:103AC000F9D1012008BD0020FCE700007F2810B5D7
:103AD00004461CD8FFF7AAFFFFF7B2FFF3220D4BF5
:103AE0004FF40061DA6002221A61FFF7CFFF5861DC
:103AF0001A6942F040021A61FFF798FF00F042F99C
:103B0000FFF7B4FF2046BDE81040FFF7CDBF00200F
:103B100010BD00BF002002402DE9F843054612F019
:103B20000100144606D040F2033200201E4B1A60FA
:103B3000BDE8F8831D4BAA189A4204D94FF442728B
:103B4000194B1A60F4E7FFF77BFF4FF00109FFF70D
:103B50006DFFDFF85C806D1A012C0F4605EB010646
:103B600003D8FFF783FF0120E2E73B88C8F81090F5
:103B700033800020FFF75AFFC8F81000338831F86F
:103B8000022B9BB29A420CD040F21F32064B1A60B5
:103B9000084B1E60084B1C60084B1F60FFF766FF58
:103BA000C6E7023CD8E700BF9424002000000408C8
:103BB0000020024088240020902400208C24002033
:103BC000084908B50B7828B11BB9FFF739FF012365
:103BD0000B7008BD002BFCD0BDE808400870FFF753
:103BE00045BF00BF982400204FF47F41014800F0FA
:103BF000CBB800BF000100200846114600F084BB8E
:103C0000012000F081BB0000084600F09BBB0000D3
:103C100038B5EFF31185BDBBEFF30584C4F3080499
:103C20003023C4B183F31188FFF7E8FE44014B0150
:103C3000241A43EAD06363EB0103A2009B0012182D
:103C400043EA947341EB0301C900D00041EA527189
:103C500085F3118838BD83F31188FFF7CFFE450146
:103C60004B012D1A43EAD06363EB0103AA009B00CA
:103C7000121843EA957341EB0301C900D00041EAF1
:103C8000527184F3118838BDFFF7B8FE44014B012F
:103C9000241A43EAD06363EB0103A2009B001218CD
:103CA00043EA947341EB0301C900D00041EA527129
:103CB00038BD00BF38B5FFF7ABFF00230F4A104CEB
:103CC000C00840EA4170A0FB025EC908A0FB040CDA
:103CD000A1FB0440A1FB02121CEB050C5B411CEB99
:103CE000040C43EB000011EB0E0142F100024118FD
:103CF00042F10000090941EA007038BDA59BC420CB
:103D0000CFF753E310B5094C013AD2B2FF2A00D1E4
:103D100010BD500854F82030013054F820009BB2F8
:103D200043EA004341F8043BEEE700BF046C004067
:103D300010B50748013AD2B2FF2A00D110BD0C8855
:103D4000530840F823404C88013340F82340F1E702
:103D5000046C004007B50122002001A9FFF7D2FF43
:103D6000019803B05DF804FB13B50446FFF7F2FFBA
:103D7000A04205D00122002001A90194FFF7D8FF3D
:103D800002B010BD7047000070470000704700008F
:103D900045F25552064B1A6002225A6040F6FF72F5
:103DA0009A604CF6CC421A600122024B1A7070479E
:103DB00000300040A0240020034B1B781BB14AF6C2
:103DC000AA22024B1A607047A02400200030004055
:103DD000044B1A682AB902F1804202F50432526A91
:103DE0001A6070479C2400204FF08072014B5A6289
:103DF000704700BF0010024008B5FFF7E9FF024B13
:103E00001868C0F3407008BD9C24002008B5FFF777
:103E1000DFFF024B1868C0F3007008BD9C2400202F
:103E200070470000FEE700000A4B0B480B4A904227
:103E30000BD30B4BC11EDA1C121A22F003028B4269
:103E400038BF00220021FDF7C3BA53F8041B40F825
:103E5000041BECE7B84500082C2500202C25002089
:103E60002C250020FEE7000070B5002504461A4B03
:103E700086B05860856201630E46FFF707FC04F1C7
:103E80001003C4E904334FF0FF33A361134BE56122
:103E9000D9692B460A462046C4E9082304F13401B7
:103EA0008023C4E900440E4AA560E5622565FFF75A
:103EB00001FD01230B4AE0600375009272686846B9
:103EC0000192B268CDE90223074BCDE90435FFF733
:103ED00019FD06B070BD00BF8024002028230020FB
:103EE000F0440008F5440008653E000800F030B8D2
:103EF00008B500F06DF9FFF7B5FCBDE80840FFF725
:103F000067BF0000704700004FF0FF310E4B1A6989
:103F100019611A6900221A611869D868D960D968CC
:103F2000DA60DA68DA6942F08052DA61DA69DA690D
:103F300042F00062DA61054ADB69136843F480737A
:103F4000136000F025B900BF00100240007000406F
:103F50001E4B1A6842F001021A601A689007FCD5DD
:103F60005A6822F003025A605A6812F00C02FBD120
:103F7000196801F0F90119605A601A6842F4803238
:103F80001A601A689103FCD54EF63162DA625A68FB
:103F900042F4E8125A601A6842F080721A601A6895
:103FA0009201FCD50A4A0B495A6012220A600A683B
:103FB00002F00702022AFAD15A6842F002025A605D
:103FC0005A6802F00C02082AFAD170470010024029
:103FD00000641D0000200240084A08B551691368BA
:103FE0000B4003F00103536123B1054A13680BB181
:103FF00050689847BDE80840FFF76CBB00040140DB
:10400000A4240020084A08B5516913680B4003F046
:104010000203536123B1054A93680BB1D0689847F6
:10402000BDE80840FFF756BB00040140A42400206F
:10403000084A08B5516913680B4003F00403536143
:1040400023B1054A13690BB150699847BDE8084090
:10405000FFF740BB00040140A4240020084A08B533
:10406000516913680B4003F00803536123B1054AFB
:1040700093690BB1D0699847BDE80840FFF72ABBA8
:1040800000040140A4240020084A08B551691368BF
:104090000B4003F01003536123B1054A136A0BB1BF
:1040A000506A9847BDE80840FFF714BB0004014080
:1040B000A4240020174B10B55A691C68144004F45E
:1040C00078725A61A30604D5134A936A0BB1D06A79
:1040D0009847600604D5104A136B0BB1506B984794
:1040E000210604D50C4A936B0BB1D06B9847E205BF
:1040F00004D5094A136C0BB1506C9847A30504D53D
:10410000054A936C0BB1D06C9847BDE81040FFF79F
:10411000E1BA00BF00040140A42400201A4B10B5EE
:104120005A691C68144004F47C425A61620504D543
:10413000164A136D0BB1506D9847230504D5134AE9
:10414000936D0BB1D06D9847E00404D50F4A136E00
:104150000BB1506E9847A10404D50C4A936E0BB175
:10416000D06E9847620404D5084A136F0BB1506FA4
:104170009847230404D5054A936F0BB1D06F984735
:10418000BDE81040FFF7A6BA00040140A4240020B7
:10419000062108B50846FFF7BFFA06210720FFF7FA
:1041A000BBFA06210820FFF7B7FA06210920FFF71E
:1041B000B3FA06210A20FFF7AFFA06211720FFF70E
:1041C000ABFABDE8084006212820FFF7A5BA000099
:1041D00008B5FFF799FE044800F00AF8FFF792FED1
:1041E000BDE8084000F002B8FC44000800F042B806
:1041F000002319461C4A0133102BC2E9001102F1B9
:104200000802F8D1194B9A6942F07D029A619B69C4
:104210000268174BDA6082685A6042681A60C268A6
:1042200003F58063DA6042695A6002691A60826944
:10423000C3F80C24026AC3F80424C269C3F800243A
:10424000426AC3F80C28C26AC3F80428826AC3F819
:104250000028026BC3F80C2C826BC3F8042C426B51
:10426000C3F8002C704700BFA424002000100240B7
:10427000000801404FF0E023044A08215A6100225F
:104280009A6107220B201A61FFF75CBA3F190100FF
:1042900008B5302383F31188FFF70AFB002383F36B
:1042A000118808BD08B5FFF7F3FFBDE80840FFF728
:1042B00011BA00000B460146184600F02DB8000068
:1042C00000F040B8012838BF012010B50446204650
:1042D00000F030F830B900F007F808B900F00CF839
:1042E0008047F4E710BD0000024B1868BFF35B8FF6
:1042F000704700BF24250020062008B500F082F892
:104300000120FFF78BFB0000024B0A4601461868AC
:10431000FFF772BC1C08002010B504460448134681
:1043200020B10A4602202146AFF3008010BD00BF35
:1043300000000000024B01461868FFF761BC00BF97
:104340001C080020024B01461868FFF75DBC00BF47
:104350001C08002010B501390244904201D1002010
:1043600005E0037811F8014FA34201D0181B10BDDE
:104370000130F2E72DE9F0419BB10446C91A1778E4
:10438000014403F1FF3C8C42204601D9002008E0A3
:1043900005780134BD42F6D10CEB0405D618A542D0
:1043A00001D1BDE8F08115F8018D16F801EDF04559
:1043B000F5D0E8E71F2938B504460D4604D9162381
:1043C00003604FF0FF3038BD426C12B152F821301B
:1043D0004BB9204600F030F82A4601462046BDE899
:1043E000384000F017B8012B0AD0591C03D116230E
:1043F00003600120E7E70024284642F8254098475B
:104400000020E0E7024B01461868FFF7D3BF00BF6A
:104410001C08002038B50023064D04460846114606
:104420002B60FFF7FFFA431C02D12B6803B1236016
:1044300038BD00BF28250020FFF7EEBA034611F86B
:10444000012B03F8012B002AF9D170476F72672EF8
:104450006172647570696C6F742E5A756261784709
:104460004E53530040A2E4F1646891060041A3E575
:10447000F2656992070000004261642043414E49A1
:104480006661636520696E6465782E0080000000B7
:10449000008000000000800000000000000000001C
:1044A000151C0008E92300084D2300084D1C0008D6
:1044B000551C0008411E0008251C0008351C00087A
:1044C000291C0008311C00082D1C00086D1D000867
:1044D000391C000899260008451C0008411D0008E9
:1044E00063300000E0440008802300208024002086
:1044F0006D61696E0069646C650000000C880000E5
:10450000447B444444544424800E00004414111459
:10451000947B4444000000004444444444444444E4
:104520000400000044424444444444440000000069
:104530004444444444444444ED030000000000006B
:10454000006803000000000040420F00FE2A010046
:10455000D20400002008002000000000000000003D
:10456000000000000000000000000000000000004B
:10457000000000000000000000000000000000003B
:10458000000000000000000000000000000000002B
:10459000000000000000000000000000000000001B
:1045A000000000000000000000000000000000000B
:0845B000000000000000000003
:00000001FF
